{"abi":[{"type":"constructor","inputs":[{"name":"initSupply","type":"uint256","internalType":"uint256"},{"name":"initOwner","type":"address","internalType":"address"}],"stateMutability":"nonpayable"},{"type":"function","name":"allowance","inputs":[{"name":"owner","type":"address","internalType":"address"},{"name":"spender","type":"address","internalType":"address"}],"outputs":[{"name":"","type":"uint256","internalType":"uint256"}],"stateMutability":"view"},{"type":"function","name":"approve","inputs":[{"name":"spender","type":"address","internalType":"address"},{"name":"amount","type":"uint256","internalType":"uint256"}],"outputs":[{"name":"","type":"bool","internalType":"bool"}],"stateMutability":"nonpayable"},{"type":"function","name":"balanceOf","inputs":[{"name":"account","type":"address","internalType":"address"}],"outputs":[{"name":"","type":"uint256","internalType":"uint256"}],"stateMutability":"view"},{"type":"function","name":"burn","inputs":[{"name":"amount","type":"uint256","internalType":"uint256"}],"outputs":[],"stateMutability":"nonpayable"},{"type":"function","name":"burnFrom","inputs":[{"name":"account","type":"address","internalType":"address"},{"name":"amount","type":"uint256","internalType":"uint256"}],"outputs":[],"stateMutability":"nonpayable"},{"type":"function","name":"decimals","inputs":[],"outputs":[{"name":"","type":"uint8","internalType":"uint8"}],"stateMutability":"view"},{"type":"function","name":"decreaseAllowance","inputs":[{"name":"spender","type":"address","internalType":"address"},{"name":"subtractedValue","type":"uint256","internalType":"uint256"}],"outputs":[{"name":"","type":"bool","internalType":"bool"}],"stateMutability":"nonpayable"},{"type":"function","name":"increaseAllowance","inputs":[{"name":"spender","type":"address","internalType":"address"},{"name":"addedValue","type":"uint256","internalType":"uint256"}],"outputs":[{"name":"","type":"bool","internalType":"bool"}],"stateMutability":"nonpayable"},{"type":"function","name":"name","inputs":[],"outputs":[{"name":"","type":"string","internalType":"string"}],"stateMutability":"view"},{"type":"function","name":"setTransfersRevert","inputs":[{"name":"_transfersRevert","type":"bool","internalType":"bool"}],"outputs":[],"stateMutability":"nonpayable"},{"type":"function","name":"symbol","inputs":[],"outputs":[{"name":"","type":"string","internalType":"string"}],"stateMutability":"view"},{"type":"function","name":"totalSupply","inputs":[],"outputs":[{"name":"","type":"uint256","internalType":"uint256"}],"stateMutability":"view"},{"type":"function","name":"transfer","inputs":[{"name":"to","type":"address","internalType":"address"},{"name":"amount","type":"uint256","internalType":"uint256"}],"outputs":[{"name":"","type":"bool","internalType":"bool"}],"stateMutability":"nonpayable"},{"type":"function","name":"transferFrom","inputs":[{"name":"from","type":"address","internalType":"address"},{"name":"to","type":"address","internalType":"address"},{"name":"amount","type":"uint256","internalType":"uint256"}],"outputs":[{"name":"","type":"bool","internalType":"bool"}],"stateMutability":"nonpayable"},{"type":"function","name":"transfersRevert","inputs":[],"outputs":[{"name":"","type":"bool","internalType":"bool"}],"stateMutability":"view"},{"type":"event","name":"Approval","inputs":[{"name":"owner","type":"address","indexed":true,"internalType":"address"},{"name":"spender","type":"address","indexed":true,"internalType":"address"},{"name":"value","type":"uint256","indexed":false,"internalType":"uint256"}],"anonymous":false},{"type":"event","name":"Transfer","inputs":[{"name":"from","type":"address","indexed":true,"internalType":"address"},{"name":"to","type":"address","indexed":true,"internalType":"address"},{"name":"value","type":"uint256","indexed":false,"internalType":"uint256"}],"anonymous":false}],"bytecode":{"object":"0x608060405234801561000f575f5ffd5b50604051610db6380380610db683398101604081905261002e91610190565b604080518082018252601f8082527f45524332305f5365745472616e73666572526576657274696e675f4d6f636b006020808401829052845180860190955291845290830152908383838360036100858382610261565b5060046100928282610261565b5050506100a581836100b060201b60201c565b505050505050610340565b6001600160a01b03821661010a5760405162461bcd60e51b815260206004820152601f60248201527f45524332303a206d696e7420746f20746865207a65726f206164647265737300604482015260640160405180910390fd5b6101155f838361017c565b8060025f828254610126919061031b565b90915550506001600160a01b0382165f81815260208181526040808320805486019055518481527fddf252ad1be2c89b69c2b068fc378daa952ba7f163c4a11628f55a4df523b3ef910160405180910390a35050565b60055460ff161561018b575f5ffd5b505050565b5f5f604083850312156101a1575f5ffd5b825160208401519092506001600160a01b03811681146101bf575f5ffd5b809150509250929050565b634e487b7160e01b5f52604160045260245ffd5b600181811c908216806101f257607f821691505b60208210810361021057634e487b7160e01b5f52602260045260245ffd5b50919050565b601f82111561018b57805f5260205f20601f840160051c8101602085101561023b5750805b601f840160051c820191505b8181101561025a575f8155600101610247565b5050505050565b81516001600160401b0381111561027a5761027a6101ca565b61028e8161028884546101de565b84610216565b6020601f8211600181146102c0575f83156102a95750848201515b5f19600385901b1c1916600184901b17845561025a565b5f84815260208120601f198516915b828110156102ef57878501518255602094850194600190920191016102cf565b508482101561030c57868401515f19600387901b60f8161c191681555b50505050600190811b01905550565b8082018082111561033a57634e487b7160e01b5f52601160045260245ffd5b92915050565b610a698061034d5f395ff3fe608060405234801561000f575f5ffd5b50600436106100f0575f3560e01c806370a0823111610093578063a1905e2411610063578063a1905e24146101f5578063a457c2d714610202578063a9059cbb14610215578063dd62ed3e14610228575f5ffd5b806370a082311461019157806379cc6790146101b95780638673a742146101cc57806395d89b41146101ed575f5ffd5b806323b872dd116100ce57806323b872dd14610147578063313ce5671461015a578063395093511461016957806342966c681461017c575f5ffd5b806306fdde03146100f4578063095ea7b31461011257806318160ddd14610135575b5f5ffd5b6100fc61023b565b60405161010991906108a3565b60405180910390f35b6101256101203660046108f3565b6102cb565b6040519015158152602001610109565b6002545b604051908152602001610109565b61012561015536600461091b565b6102e4565b60405160128152602001610109565b6101256101773660046108f3565b610307565b61018f61018a366004610955565b610328565b005b61013961019f36600461096c565b6001600160a01b03165f9081526020819052604090205490565b61018f6101c73660046108f3565b610335565b61018f6101da36600461098c565b6005805460ff1916911515919091179055565b6100fc61034e565b6005546101259060ff1681565b6101256102103660046108f3565b61035d565b6101256102233660046108f3565b6103dc565b6101396102363660046109ab565b6103e9565b60606003805461024a906109dc565b80601f0160208091040260200160405190810160405280929190818152602001828054610276906109dc565b80156102c15780601f10610298576101008083540402835291602001916102c1565b820191905f5260205f20905b8154815290600101906020018083116102a457829003601f168201915b5050505050905090565b5f336102d8818585610413565b60019150505b92915050565b5f336102f1858285610537565b6102fc8585856105af565b506001949350505050565b5f336102d881858561031983836103e9565b6103239190610a14565b610413565b610332338261075c565b50565b610340823383610537565b61034a828261075c565b5050565b60606004805461024a906109dc565b5f338161036a82866103e9565b9050838110156103cf5760405162461bcd60e51b815260206004820152602560248201527f45524332303a2064656372656173656420616c6c6f77616e63652062656c6f77604482015264207a65726f60d81b60648201526084015b60405180910390fd5b6102fc8286868403610413565b5f336102d88185856105af565b6001600160a01b039182165f90815260016020908152604080832093909416825291909152205490565b6001600160a01b0383166104755760405162461bcd60e51b8152602060048201526024808201527f45524332303a20617070726f76652066726f6d20746865207a65726f206164646044820152637265737360e01b60648201526084016103c6565b6001600160a01b0382166104d65760405162461bcd60e51b815260206004820152602260248201527f45524332303a20617070726f766520746f20746865207a65726f206164647265604482015261737360f01b60648201526084016103c6565b6001600160a01b038381165f8181526001602090815260408083209487168084529482529182902085905590518481527f8c5be1e5ebec7d5bd14f71427d1e84f3dd0314c0f7b2291e5b200ac8c7c3b92591015b60405180910390a3505050565b5f61054284846103e9565b90505f1981146105a9578181101561059c5760405162461bcd60e51b815260206004820152601d60248201527f45524332303a20696e73756666696369656e7420616c6c6f77616e636500000060448201526064016103c6565b6105a98484848403610413565b50505050565b6001600160a01b0383166106135760405162461bcd60e51b815260206004820152602560248201527f45524332303a207472616e736665722066726f6d20746865207a65726f206164604482015264647265737360d81b60648201526084016103c6565b6001600160a01b0382166106755760405162461bcd60e51b815260206004820152602360248201527f45524332303a207472616e7366657220746f20746865207a65726f206164647260448201526265737360e81b60648201526084016103c6565b610680838383610894565b6001600160a01b0383165f90815260208190526040902054818110156106f75760405162461bcd60e51b815260206004820152602660248201527f45524332303a207472616e7366657220616d6f756e7420657863656564732062604482015265616c616e636560d01b60648201526084016103c6565b6001600160a01b038481165f81815260208181526040808320878703905593871680835291849020805487019055925185815290927fddf252ad1be2c89b69c2b068fc378daa952ba7f163c4a11628f55a4df523b3ef910160405180910390a36105a9565b6001600160a01b0382166107bc5760405162461bcd60e51b815260206004820152602160248201527f45524332303a206275726e2066726f6d20746865207a65726f206164647265736044820152607360f81b60648201526084016103c6565b6107c7825f83610894565b6001600160a01b0382165f908152602081905260409020548181101561083a5760405162461bcd60e51b815260206004820152602260248201527f45524332303a206275726e20616d6f756e7420657863656564732062616c616e604482015261636560f01b60648201526084016103c6565b6001600160a01b0383165f818152602081815260408083208686039055600280548790039055518581529192917fddf252ad1be2c89b69c2b068fc378daa952ba7f163c4a11628f55a4df523b3ef910161052a565b505050565b60055460ff161561088f575f5ffd5b602081525f82518060208401528060208501604085015e5f604082850101526040601f19601f83011684010191505092915050565b80356001600160a01b03811681146108ee575f5ffd5b919050565b5f5f60408385031215610904575f5ffd5b61090d836108d8565b946020939093013593505050565b5f5f5f6060848603121561092d575f5ffd5b610936846108d8565b9250610944602085016108d8565b929592945050506040919091013590565b5f60208284031215610965575f5ffd5b5035919050565b5f6020828403121561097c575f5ffd5b610985826108d8565b9392505050565b5f6020828403121561099c575f5ffd5b81358015158114610985575f5ffd5b5f5f604083850312156109bc575f5ffd5b6109c5836108d8565b91506109d3602084016108d8565b90509250929050565b600181811c908216806109f057607f821691505b602082108103610a0e57634e487b7160e01b5f52602260045260245ffd5b50919050565b808201808211156102de57634e487b7160e01b5f52601160045260245ffdfea264697066735822122023660a9e736a489d30095e6d211c80db849327090f675448d67db880da488bd264736f6c634300081b0033","linkReferences":{}},"methodIdentifiers":{"allowance(address,address)":"dd62ed3e","approve(address,uint256)":"095ea7b3","balanceOf(address)":"70a08231","burn(uint256)":"42966c68","burnFrom(address,uint256)":"79cc6790","decimals()":"313ce567","decreaseAllowance(address,uint256)":"a457c2d7","increaseAllowance(address,uint256)":"39509351","name()":"06fdde03","setTransfersRevert(bool)":"8673a742","symbol()":"95d89b41","totalSupply()":"18160ddd","transfer(address,uint256)":"a9059cbb","transferFrom(address,address,uint256)":"23b872dd","transfersRevert()":"a1905e24"},"id":233}