{"abi":[{"type":"constructor","inputs":[{"name":"_delegation","type":"address","internalType":"contract IDelegationManager"},{"name":"_pauserRegistry","type":"address","internalType":"contract IPauserRegistry"},{"name":"_permissionController","type":"address","internalType":"contract IPermissionController"},{"name":"_DEALLOCATION_DELAY","type":"uint32","internalType":"uint32"},{"name":"_ALLOCATION_CONFIGURATION_DELAY","type":"uint32","internalType":"uint32"}],"stateMutability":"nonpayable"},{"type":"function","name":"ALLOCATION_CONFIGURATION_DELAY","inputs":[],"outputs":[{"name":"","type":"uint32","internalType":"uint32"}],"stateMutability":"view"},{"type":"function","name":"DEALLOCATION_DELAY","inputs":[],"outputs":[{"name":"","type":"uint32","internalType":"uint32"}],"stateMutability":"view"},{"type":"function","name":"addStrategiesToOperatorSet","inputs":[{"name":"avs","type":"address","internalType":"address"},{"name":"operatorSetId","type":"uint32","internalType":"uint32"},{"name":"strategies","type":"address[]","internalType":"contract IStrategy[]"}],"outputs":[],"stateMutability":"nonpayable"},{"type":"function","name":"clearDeallocationQueue","inputs":[{"name":"operator","type":"address","internalType":"address"},{"name":"strategies","type":"address[]","internalType":"contract IStrategy[]"},{"name":"numToClear","type":"uint16[]","internalType":"uint16[]"}],"outputs":[],"stateMutability":"nonpayable"},{"type":"function","name":"createOperatorSets","inputs":[{"name":"avs","type":"address","internalType":"address"},{"name":"params","type":"tuple[]","internalType":"struct IAllocationManagerTypes.CreateSetParams[]","components":[{"name":"operatorSetId","type":"uint32","internalType":"uint32"},{"name":"strategies","type":"address[]","internalType":"contract IStrategy[]"}]}],"outputs":[],"stateMutability":"nonpayable"},{"type":"function","name":"delegation","inputs":[],"outputs":[{"name":"","type":"address","internalType":"contract IDelegationManager"}],"stateMutability":"view"},{"type":"function","name":"deregisterFromOperatorSets","inputs":[{"name":"params","type":"tuple","internalType":"struct IAllocationManagerTypes.DeregisterParams","components":[{"name":"operator","type":"address","internalType":"address"},{"name":"avs","type":"address","internalType":"address"},{"name":"operatorSetIds","type":"uint32[]","internalType":"uint32[]"}]}],"outputs":[],"stateMutability":"nonpayable"},{"type":"function","name":"encumberedMagnitude","inputs":[{"name":"operator","type":"address","internalType":"address"},{"name":"strategy","type":"address","internalType":"contract IStrategy"}],"outputs":[{"name":"","type":"uint64","internalType":"uint64"}],"stateMutability":"view"},{"type":"function","name":"getAVSRegistrar","inputs":[{"name":"avs","type":"address","internalType":"address"}],"outputs":[{"name":"","type":"address","internalType":"contract IAVSRegistrar"}],"stateMutability":"view"},{"type":"function","name":"getAllocatableMagnitude","inputs":[{"name":"operator","type":"address","internalType":"address"},{"name":"strategy","type":"address","internalType":"contract IStrategy"}],"outputs":[{"name":"","type":"uint64","internalType":"uint64"}],"stateMutability":"view"},{"type":"function","name":"getAllocatedSets","inputs":[{"name":"operator","type":"address","internalType":"address"}],"outputs":[{"name":"","type":"tuple[]","internalType":"struct OperatorSet[]","components":[{"name":"avs","type":"address","internalType":"address"},{"name":"id","type":"uint32","internalType":"uint32"}]}],"stateMutability":"view"},{"type":"function","name":"getAllocatedStrategies","inputs":[{"name":"operator","type":"address","internalType":"address"},{"name":"operatorSet","type":"tuple","internalType":"struct OperatorSet","components":[{"name":"avs","type":"address","internalType":"address"},{"name":"id","type":"uint32","internalType":"uint32"}]}],"outputs":[{"name":"","type":"address[]","internalType":"contract IStrategy[]"}],"stateMutability":"view"},{"type":"function","name":"getAllocation","inputs":[{"name":"operator","type":"address","internalType":"address"},{"name":"operatorSet","type":"tuple","internalType":"struct OperatorSet","components":[{"name":"avs","type":"address","internalType":"address"},{"name":"id","type":"uint32","internalType":"uint32"}]},{"name":"strategy","type":"address","internalType":"contract IStrategy"}],"outputs":[{"name":"","type":"tuple","internalType":"struct IAllocationManagerTypes.Allocation","components":[{"name":"currentMagnitude","type":"uint64","internalType":"uint64"},{"name":"pendingDiff","type":"int128","internalType":"int128"},{"name":"effectBlock","type":"uint32","internalType":"uint32"}]}],"stateMutability":"view"},{"type":"function","name":"getAllocationDelay","inputs":[{"name":"operator","type":"address","internalType":"address"}],"outputs":[{"name":"","type":"bool","internalType":"bool"},{"name":"","type":"uint32","internalType":"uint32"}],"stateMutability":"view"},{"type":"function","name":"getAllocations","inputs":[{"name":"operators","type":"address[]","internalType":"address[]"},{"name":"operatorSet","type":"tuple","internalType":"struct OperatorSet","components":[{"name":"avs","type":"address","internalType":"address"},{"name":"id","type":"uint32","internalType":"uint32"}]},{"name":"strategy","type":"address","internalType":"contract IStrategy"}],"outputs":[{"name":"","type":"tuple[]","internalType":"struct IAllocationManagerTypes.Allocation[]","components":[{"name":"currentMagnitude","type":"uint64","internalType":"uint64"},{"name":"pendingDiff","type":"int128","internalType":"int128"},{"name":"effectBlock","type":"uint32","internalType":"uint32"}]}],"stateMutability":"view"},{"type":"function","name":"getMaxMagnitude","inputs":[{"name":"operator","type":"address","internalType":"address"},{"name":"strategy","type":"address","internalType":"contract IStrategy"}],"outputs":[{"name":"","type":"uint64","internalType":"uint64"}],"stateMutability":"view"},{"type":"function","name":"getMaxMagnitudes","inputs":[{"name":"operators","type":"address[]","internalType":"address[]"},{"name":"strategy","type":"address","internalType":"contract IStrategy"}],"outputs":[{"name":"","type":"uint64[]","internalType":"uint64[]"}],"stateMutability":"view"},{"type":"function","name":"getMaxMagnitudes","inputs":[{"name":"operator","type":"address","internalType":"address"},{"name":"strategies","type":"address[]","internalType":"contract IStrategy[]"}],"outputs":[{"name":"","type":"uint64[]","internalType":"uint64[]"}],"stateMutability":"view"},{"type":"function","name":"getMaxMagnitudesAtBlock","inputs":[{"name":"operator","type":"address","internalType":"address"},{"name":"strategies","type":"address[]","internalType":"contract IStrategy[]"},{"name":"blockNumber","type":"uint32","internalType":"uint32"}],"outputs":[{"name":"","type":"uint64[]","internalType":"uint64[]"}],"stateMutability":"view"},{"type":"function","name":"getMemberCount","inputs":[{"name":"operatorSet","type":"tuple","internalType":"struct OperatorSet","components":[{"name":"avs","type":"address","internalType":"address"},{"name":"id","type":"uint32","internalType":"uint32"}]}],"outputs":[{"name":"","type":"uint256","internalType":"uint256"}],"stateMutability":"view"},{"type":"function","name":"getMembers","inputs":[{"name":"operatorSet","type":"tuple","internalType":"struct OperatorSet","components":[{"name":"avs","type":"address","internalType":"address"},{"name":"id","type":"uint32","internalType":"uint32"}]}],"outputs":[{"name":"","type":"address[]","internalType":"address[]"}],"stateMutability":"view"},{"type":"function","name":"getMinimumSlashableStake","inputs":[{"name":"operatorSet","type":"tuple","internalType":"struct OperatorSet","components":[{"name":"avs","type":"address","internalType":"address"},{"name":"id","type":"uint32","internalType":"uint32"}]},{"name":"operators","type":"address[]","internalType":"address[]"},{"name":"strategies","type":"address[]","internalType":"contract IStrategy[]"},{"name":"futureBlock","type":"uint32","internalType":"uint32"}],"outputs":[{"name":"slashableStake","type":"uint256[][]","internalType":"uint256[][]"}],"stateMutability":"view"},{"type":"function","name":"getOperatorSetCount","inputs":[{"name":"avs","type":"address","internalType":"address"}],"outputs":[{"name":"","type":"uint256","internalType":"uint256"}],"stateMutability":"view"},{"type":"function","name":"getRegisteredSets","inputs":[{"name":"operator","type":"address","internalType":"address"}],"outputs":[{"name":"","type":"tuple[]","internalType":"struct OperatorSet[]","components":[{"name":"avs","type":"address","internalType":"address"},{"name":"id","type":"uint32","internalType":"uint32"}]}],"stateMutability":"view"},{"type":"function","name":"getStrategiesInOperatorSet","inputs":[{"name":"operatorSet","type":"tuple","internalType":"struct OperatorSet","components":[{"name":"avs","type":"address","internalType":"address"},{"name":"id","type":"uint32","internalType":"uint32"}]}],"outputs":[{"name":"","type":"address[]","internalType":"contract IStrategy[]"}],"stateMutability":"view"},{"type":"function","name":"getStrategyAllocations","inputs":[{"name":"operator","type":"address","internalType":"address"},{"name":"strategy","type":"address","internalType":"contract IStrategy"}],"outputs":[{"name":"","type":"tuple[]","internalType":"struct OperatorSet[]","components":[{"name":"avs","type":"address","internalType":"address"},{"name":"id","type":"uint32","internalType":"uint32"}]},{"name":"","type":"tuple[]","internalType":"struct IAllocationManagerTypes.Allocation[]","components":[{"name":"currentMagnitude","type":"uint64","internalType":"uint64"},{"name":"pendingDiff","type":"int128","internalType":"int128"},{"name":"effectBlock","type":"uint32","internalType":"uint32"}]}],"stateMutability":"view"},{"type":"function","name":"initialize","inputs":[{"name":"initialOwner","type":"address","internalType":"address"},{"name":"initialPausedStatus","type":"uint256","internalType":"uint256"}],"outputs":[],"stateMutability":"nonpayable"},{"type":"function","name":"isMemberOfOperatorSet","inputs":[{"name":"operator","type":"address","internalType":"address"},{"name":"operatorSet","type":"tuple","internalType":"struct OperatorSet","components":[{"name":"avs","type":"address","internalType":"address"},{"name":"id","type":"uint32","internalType":"uint32"}]}],"outputs":[{"name":"","type":"bool","internalType":"bool"}],"stateMutability":"view"},{"type":"function","name":"isOperatorSet","inputs":[{"name":"operatorSet","type":"tuple","internalType":"struct OperatorSet","components":[{"name":"avs","type":"address","internalType":"address"},{"name":"id","type":"uint32","internalType":"uint32"}]}],"outputs":[{"name":"","type":"bool","internalType":"bool"}],"stateMutability":"view"},{"type":"function","name":"modifyAllocations","inputs":[{"name":"operator","type":"address","internalType":"address"},{"name":"params","type":"tuple[]","internalType":"struct IAllocationManagerTypes.AllocateParams[]","components":[{"name":"operatorSet","type":"tuple","internalType":"struct OperatorSet","components":[{"name":"avs","type":"address","internalType":"address"},{"name":"id","type":"uint32","internalType":"uint32"}]},{"name":"strategies","type":"address[]","internalType":"contract IStrategy[]"},{"name":"newMagnitudes","type":"uint64[]","internalType":"uint64[]"}]}],"outputs":[],"stateMutability":"nonpayable"},{"type":"function","name":"owner","inputs":[],"outputs":[{"name":"","type":"address","internalType":"address"}],"stateMutability":"view"},{"type":"function","name":"pause","inputs":[{"name":"newPausedStatus","type":"uint256","internalType":"uint256"}],"outputs":[],"stateMutability":"nonpayable"},{"type":"function","name":"pauseAll","inputs":[],"outputs":[],"stateMutability":"nonpayable"},{"type":"function","name":"paused","inputs":[{"name":"index","type":"uint8","internalType":"uint8"}],"outputs":[{"name":"","type":"bool","internalType":"bool"}],"stateMutability":"view"},{"type":"function","name":"paused","inputs":[],"outputs":[{"name":"","type":"uint256","internalType":"uint256"}],"stateMutability":"view"},{"type":"function","name":"pauserRegistry","inputs":[],"outputs":[{"name":"","type":"address","internalType":"contract IPauserRegistry"}],"stateMutability":"view"},{"type":"function","name":"permissionController","inputs":[],"outputs":[{"name":"","type":"address","internalType":"contract IPermissionController"}],"stateMutability":"view"},{"type":"function","name":"registerForOperatorSets","inputs":[{"name":"operator","type":"address","internalType":"address"},{"name":"params","type":"tuple","internalType":"struct IAllocationManagerTypes.RegisterParams","components":[{"name":"avs","type":"address","internalType":"address"},{"name":"operatorSetIds","type":"uint32[]","internalType":"uint32[]"},{"name":"data","type":"bytes","internalType":"bytes"}]}],"outputs":[],"stateMutability":"nonpayable"},{"type":"function","name":"removeStrategiesFromOperatorSet","inputs":[{"name":"avs","type":"address","internalType":"address"},{"name":"operatorSetId","type":"uint32","internalType":"uint32"},{"name":"strategies","type":"address[]","internalType":"contract IStrategy[]"}],"outputs":[],"stateMutability":"nonpayable"},{"type":"function","name":"renounceOwnership","inputs":[],"outputs":[],"stateMutability":"nonpayable"},{"type":"function","name":"setAVSRegistrar","inputs":[{"name":"avs","type":"address","internalType":"address"},{"name":"registrar","type":"address","internalType":"contract IAVSRegistrar"}],"outputs":[],"stateMutability":"nonpayable"},{"type":"function","name":"setAllocationDelay","inputs":[{"name":"operator","type":"address","internalType":"address"},{"name":"delay","type":"uint32","internalType":"uint32"}],"outputs":[],"stateMutability":"nonpayable"},{"type":"function","name":"slashOperator","inputs":[{"name":"avs","type":"address","internalType":"address"},{"name":"params","type":"tuple","internalType":"struct IAllocationManagerTypes.SlashingParams","components":[{"name":"operator","type":"address","internalType":"address"},{"name":"operatorSetId","type":"uint32","internalType":"uint32"},{"name":"strategies","type":"address[]","internalType":"contract IStrategy[]"},{"name":"wadsToSlash","type":"uint256[]","internalType":"uint256[]"},{"name":"description","type":"string","internalType":"string"}]}],"outputs":[],"stateMutability":"nonpayable"},{"type":"function","name":"transferOwnership","inputs":[{"name":"newOwner","type":"address","internalType":"address"}],"outputs":[],"stateMutability":"nonpayable"},{"type":"function","name":"unpause","inputs":[{"name":"newPausedStatus","type":"uint256","internalType":"uint256"}],"outputs":[],"stateMutability":"nonpayable"},{"type":"function","name":"updateAVSMetadataURI","inputs":[{"name":"avs","type":"address","internalType":"address"},{"name":"metadataURI","type":"string","internalType":"string"}],"outputs":[],"stateMutability":"nonpayable"},{"type":"event","name":"AVSMetadataURIUpdated","inputs":[{"name":"avs","type":"address","indexed":true,"internalType":"address"},{"name":"metadataURI","type":"string","indexed":false,"internalType":"string"}],"anonymous":false},{"type":"event","name":"AVSRegistrarSet","inputs":[{"name":"avs","type":"address","indexed":false,"internalType":"address"},{"name":"registrar","type":"address","indexed":false,"internalType":"contract IAVSRegistrar"}],"anonymous":false},{"type":"event","name":"AllocationDelaySet","inputs":[{"name":"operator","type":"address","indexed":false,"internalType":"address"},{"name":"delay","type":"uint32","indexed":false,"internalType":"uint32"},{"name":"effectBlock","type":"uint32","indexed":false,"internalType":"uint32"}],"anonymous":false},{"type":"event","name":"AllocationUpdated","inputs":[{"name":"operator","type":"address","indexed":false,"internalType":"address"},{"name":"operatorSet","type":"tuple","indexed":false,"internalType":"struct OperatorSet","components":[{"name":"avs","type":"address","internalType":"address"},{"name":"id","type":"uint32","internalType":"uint32"}]},{"name":"strategy","type":"address","indexed":false,"internalType":"contract IStrategy"},{"name":"magnitude","type":"uint64","indexed":false,"internalType":"uint64"},{"name":"effectBlock","type":"uint32","indexed":false,"internalType":"uint32"}],"anonymous":false},{"type":"event","name":"EncumberedMagnitudeUpdated","inputs":[{"name":"operator","type":"address","indexed":false,"internalType":"address"},{"name":"strategy","type":"address","indexed":false,"internalType":"contract IStrategy"},{"name":"encumberedMagnitude","type":"uint64","indexed":false,"internalType":"uint64"}],"anonymous":false},{"type":"event","name":"Initialized","inputs":[{"name":"version","type":"uint8","indexed":false,"internalType":"uint8"}],"anonymous":false},{"type":"event","name":"MaxMagnitudeUpdated","inputs":[{"name":"operator","type":"address","indexed":false,"internalType":"address"},{"name":"strategy","type":"address","indexed":false,"internalType":"contract IStrategy"},{"name":"maxMagnitude","type":"uint64","indexed":false,"internalType":"uint64"}],"anonymous":false},{"type":"event","name":"OperatorAddedToOperatorSet","inputs":[{"name":"operator","type":"address","indexed":true,"internalType":"address"},{"name":"operatorSet","type":"tuple","indexed":false,"internalType":"struct OperatorSet","components":[{"name":"avs","type":"address","internalType":"address"},{"name":"id","type":"uint32","internalType":"uint32"}]}],"anonymous":false},{"type":"event","name":"OperatorRemovedFromOperatorSet","inputs":[{"name":"operator","type":"address","indexed":true,"internalType":"address"},{"name":"operatorSet","type":"tuple","indexed":false,"internalType":"struct OperatorSet","components":[{"name":"avs","type":"address","internalType":"address"},{"name":"id","type":"uint32","internalType":"uint32"}]}],"anonymous":false},{"type":"event","name":"OperatorSetCreated","inputs":[{"name":"operatorSet","type":"tuple","indexed":false,"internalType":"struct OperatorSet","components":[{"name":"avs","type":"address","internalType":"address"},{"name":"id","type":"uint32","internalType":"uint32"}]}],"anonymous":false},{"type":"event","name":"OperatorSlashed","inputs":[{"name":"operator","type":"address","indexed":false,"internalType":"address"},{"name":"operatorSet","type":"tuple","indexed":false,"internalType":"struct OperatorSet","components":[{"name":"avs","type":"address","internalType":"address"},{"name":"id","type":"uint32","internalType":"uint32"}]},{"name":"strategies","type":"address[]","indexed":false,"internalType":"contract IStrategy[]"},{"name":"wadSlashed","type":"uint256[]","indexed":false,"internalType":"uint256[]"},{"name":"description","type":"string","indexed":false,"internalType":"string"}],"anonymous":false},{"type":"event","name":"OwnershipTransferred","inputs":[{"name":"previousOwner","type":"address","indexed":true,"internalType":"address"},{"name":"newOwner","type":"address","indexed":true,"internalType":"address"}],"anonymous":false},{"type":"event","name":"Paused","inputs":[{"name":"account","type":"address","indexed":true,"internalType":"address"},{"name":"newPausedStatus","type":"uint256","indexed":false,"internalType":"uint256"}],"anonymous":false},{"type":"event","name":"StrategyAddedToOperatorSet","inputs":[{"name":"operatorSet","type":"tuple","indexed":false,"internalType":"struct OperatorSet","components":[{"name":"avs","type":"address","internalType":"address"},{"name":"id","type":"uint32","internalType":"uint32"}]},{"name":"strategy","type":"address","indexed":false,"internalType":"contract IStrategy"}],"anonymous":false},{"type":"event","name":"StrategyRemovedFromOperatorSet","inputs":[{"name":"operatorSet","type":"tuple","indexed":false,"internalType":"struct OperatorSet","components":[{"name":"avs","type":"address","internalType":"address"},{"name":"id","type":"uint32","internalType":"uint32"}]},{"name":"strategy","type":"address","indexed":false,"internalType":"contract IStrategy"}],"anonymous":false},{"type":"event","name":"Unpaused","inputs":[{"name":"account","type":"address","indexed":true,"internalType":"address"},{"name":"newPausedStatus","type":"uint256","indexed":false,"internalType":"uint256"}],"anonymous":false},{"type":"error","name":"AlreadyMemberOfSet","inputs":[]},{"type":"error","name":"CurrentlyPaused","inputs":[]},{"type":"error","name":"Empty","inputs":[]},{"type":"error","name":"InputAddressZero","inputs":[]},{"type":"error","name":"InputArrayLengthMismatch","inputs":[]},{"type":"error","name":"InsufficientMagnitude","inputs":[]},{"type":"error","name":"InvalidAVSRegistrar","inputs":[]},{"type":"error","name":"InvalidCaller","inputs":[]},{"type":"error","name":"InvalidNewPausedStatus","inputs":[]},{"type":"error","name":"InvalidOperator","inputs":[]},{"type":"error","name":"InvalidOperatorSet","inputs":[]},{"type":"error","name":"InvalidPermissions","inputs":[]},{"type":"error","name":"InvalidSnapshotOrdering","inputs":[]},{"type":"error","name":"InvalidWadToSlash","inputs":[]},{"type":"error","name":"ModificationAlreadyPending","inputs":[]},{"type":"error","name":"NotMemberOfSet","inputs":[]},{"type":"error","name":"OnlyPauser","inputs":[]},{"type":"error","name":"OnlyUnpauser","inputs":[]},{"type":"error","name":"OperatorNotSlashable","inputs":[]},{"type":"error","name":"OutOfBounds","inputs":[]},{"type":"error","name":"SameMagnitude","inputs":[]},{"type":"error","name":"StrategiesMustBeInAscendingOrder","inputs":[]},{"type":"error","name":"StrategyAlreadyInOperatorSet","inputs":[]},{"type":"error","name":"StrategyNotInOperatorSet","inputs":[]},{"type":"error","name":"UninitializedAllocationDelay","inputs":[]}],"bytecode":{"object":"0x610120604052348015610010575f5ffd5b50604051615b2d380380615b2d83398101604081905261002f91610180565b82858383876001600160a01b03811661005b576040516339b190bb60e11b815260040160405180910390fd5b6001600160a01b0390811660805292831660a05263ffffffff91821660c0521660e052166101005261008b610095565b50505050506101e9565b5f54610100900460ff16156101005760405162461bcd60e51b815260206004820152602760248201527f496e697469616c697a61626c653a20636f6e747261637420697320696e697469604482015266616c697a696e6760c81b606482015260840160405180910390fd5b5f5460ff9081161461014f575f805460ff191660ff9081179091556040519081527f7f26b83ff96e1f2b6a682f133852f6798a09c465da95921460cefb38474024989060200160405180910390a15b565b6001600160a01b0381168114610165575f5ffd5b50565b805163ffffffff8116811461017b575f5ffd5b919050565b5f5f5f5f5f60a08688031215610194575f5ffd5b855161019f81610151565b60208701519095506101b081610151565b60408701519094506101c181610151565b92506101cf60608701610168565b91506101dd60808701610168565b90509295509295909350565b60805160a05160c05160e051610100516158b361027a5f395f81816103f901526137a701525f81816105480152613d9f01525f818161031e0152818161223e015261294601525f81816106fa01528181610c970152818161161c01528181611c8301528181611ced0152612c0d01525f818161056f0152818161079201528181611d92015261341e01526158b35ff3fe608060405234801561000f575f5ffd5b5060043610610281575f3560e01c80636e875dba11610156578063a984eb3a116100ca578063c221d8ae11610084578063c221d8ae146106bc578063cd6dc687146106cf578063d3d96ff4146106e2578063df5cf723146106f5578063f2fde38b1461071c578063fabc1cbc1461072f575f5ffd5b8063a984eb3a1461060e578063adc2e3d914610641578063b2447af714610654578063b66bd98914610667578063b9fbaed11461067a578063ba1a84e5146106a9575f5ffd5b80638ce648541161011b5780638ce64854146105915780638da5cb5b146105b157806394d7d00c146105c2578063952899ee146105d5578063a9333ec8146105e8578063a9821821146105fb575f5ffd5b80636e875dba14610515578063715018a61461052857806379ae50cd146105305780637bc1ef6114610543578063886f11951461056a575f5ffd5b80634657e26a116101f8578063595c6a67116101b2578063595c6a67146104875780635ac86ab71461048f5780635c975abb146104b2578063670d3ba2146104c45780636cfb4481146104d75780636e3492b514610502575f5ffd5b80634657e26a146103f45780634a10ffe51461041b5780634b5046ef1461043b57806350feea201461044e578063547afb871461046157806356c483e614610474575f5ffd5b80632981eb77116102495780632981eb77146103195780632bab2c4a14610355578063304c10cd1461037557806336352057146103a057806340120dab146103b35780634177a87c146103d4575f5ffd5b806310e1b9b814610285578063136439dd146102ae57806315fe5028146102c3578063260dc758146102e3578063261f84e014610306575b5f5ffd5b6102986102933660046147cf565b610742565b6040516102a59190614816565b60405180910390f35b6102c16102bc366004614849565b61077d565b005b6102d66102d1366004614860565b610852565b6040516102a591906148de565b6102f66102f13660046148f0565b610969565b60405190151581526020016102a5565b6102c161031436600461494a565b6109a0565b6103407f000000000000000000000000000000000000000000000000000000000000000081565b60405163ffffffff90911681526020016102a5565b610368610363366004614a2f565b610c43565b6040516102a59190614ae3565b610388610383366004614860565b610f30565b6040516001600160a01b0390911681526020016102a5565b6102c16103ae366004614b46565b610f5f565b6103c66103c1366004614b98565b611771565b6040516102a5929190614c25565b6103e76103e23660046148f0565b6118ec565b6040516102a59190614c82565b6103887f000000000000000000000000000000000000000000000000000000000000000081565b61042e610429366004614c94565b611910565b6040516102a59190614cd7565b6102c1610449366004614d22565b6119b8565b6102c161045c366004614da2565b611a72565b61042e61046f366004614e00565b611bd0565b6102c1610482366004614e4c565b611c78565b6102c1611d7d565b6102f661049d366004614e7f565b606654600160ff9092169190911b9081161490565b6066545b6040519081526020016102a5565b6102f66104d2366004614e9f565b611e2c565b6104ea6104e5366004614b98565b611e3d565b6040516001600160401b0390911681526020016102a5565b6102c1610510366004614ee0565b611faa565b6103e76105233660046148f0565b61238b565b6102c161239c565b6102d661053e366004614860565b6123ad565b6103407f000000000000000000000000000000000000000000000000000000000000000081565b6103887f000000000000000000000000000000000000000000000000000000000000000081565b6105a461059f366004614f11565b612487565b6040516102a59190614f54565b6033546001600160a01b0316610388565b61042e6105d0366004614f66565b61254c565b6102c16105e3366004614fc1565b612638565b6104ea6105f6366004614b98565b612aff565b6102c161060936600461516a565b612b2e565b6104ea61061c366004614b98565b60a260209081525f92835260408084209091529082529020546001600160401b031681565b6102c161064f3660046151e8565b612b9e565b6104b66106623660046148f0565b612efb565b6102c1610675366004614da2565b612f1d565b61068d610688366004614860565b613077565b60408051921515835263ffffffff9091166020830152016102a5565b6104b66106b7366004614860565b613111565b6103e76106ca366004614e9f565b613131565b6102c16106dd36600461522a565b613162565b6102c16106f0366004614b98565b61327f565b6103887f000000000000000000000000000000000000000000000000000000000000000081565b6102c161072a366004614860565b6133a3565b6102c161073d366004614849565b61341c565b604080516060810182525f80825260208201819052918101829052906107718561076b86613532565b85613595565b925050505b9392505050565b60405163237dfb4760e11b81523360048201527f00000000000000000000000000000000000000000000000000000000000000006001600160a01b0316906346fbf68e90602401602060405180830381865afa1580156107df573d5f5f3e3d5ffd5b505050506040513d601f19601f820116820180604052508101906108039190615254565b61082057604051631d77d47760e21b815260040160405180910390fd5b60665481811681146108455760405163c61dca5d60e01b815260040160405180910390fd5b61084e82613701565b5050565b6001600160a01b0381165f908152609d60205260408120606091906108769061373e565b90505f816001600160401b03811115610891576108916146f3565b6040519080825280602002602001820160405280156108d557816020015b604080518082019091525f80825260208201528152602001906001900390816108af5790505b5090505f5b82811015610961576001600160a01b0385165f908152609d6020526040902061093c906109079083613747565b604080518082019091525f80825260208201525060408051808201909152606082901c815263ffffffff909116602082015290565b82828151811061094e5761094e615273565b60209081029190910101526001016108da565b509392505050565b60208082015182516001600160a01b03165f90815260989092526040822061099a9163ffffffff9081169061375216565b92915050565b826109aa81613769565b6109c75760405163932d94f760e01b815260040160405180910390fd5b5f5b82811015610c3c575f6040518060400160405280876001600160a01b031681526020018686858181106109fe576109fe615273565b9050602002810190610a109190615287565b610a1e9060208101906152a5565b63ffffffff168152509050610a68816020015163ffffffff1660985f896001600160a01b03166001600160a01b031681526020019081526020015f2061381390919063ffffffff16565b610a8557604051631fb1705560e21b815260040160405180910390fd5b7f31629285ead2335ae0933f86ed2ae63321f7af77b4e6eaabc42c057880977e6c6040518060400160405280886001600160a01b03168152602001836020015163ffffffff16815250604051610adb91906152be565b60405180910390a15f610aed82613532565b90505f5b868685818110610b0357610b03615273565b9050602002810190610b159190615287565b610b239060208101906152cc565b9050811015610c3157610b99878786818110610b4157610b41615273565b9050602002810190610b539190615287565b610b619060208101906152cc565b83818110610b7157610b71615273565b9050602002016020810190610b869190614860565b5f8481526099602052604090209061381e565b507f7ab260fe0af193db5f4986770d831bda4ea46099dc817e8b6716dcae8af8e88b83888887818110610bce57610bce615273565b9050602002810190610be09190615287565b610bee9060208101906152cc565b84818110610bfe57610bfe615273565b9050602002016020810190610c139190614860565b604051610c21929190615311565b60405180910390a1600101610af1565b5050506001016109c9565b5050505050565b606083516001600160401b03811115610c5e57610c5e6146f3565b604051908082528060200260200182016040528015610c9157816020015b6060815260200190600190039081610c7c5790505b5090505f7f00000000000000000000000000000000000000000000000000000000000000006001600160a01b031663f0e0e67686866040518363ffffffff1660e01b8152600401610ce3929190615337565b5f60405180830381865afa158015610cfd573d5f5f3e3d5ffd5b505050506040513d5f823e601f3d908101601f19168201604052610d24919081019061535b565b90505f5b8551811015610f26575f868281518110610d4457610d44615273565b6020026020010151905085516001600160401b03811115610d6757610d676146f3565b604051908082528060200260200182016040528015610d90578160200160208202803683370190505b50848381518110610da357610da3615273565b60209081029190910101525f5b8651811015610f1c575f878281518110610dcc57610dcc615273565b6020908102919091018101516001600160a01b038086165f90815260a1845260408082209284168252919093528220909250610e0790613832565b9050806001600160401b03165f03610e20575050610f14565b5f610e2c858d85610742565b90508863ffffffff16816040015163ffffffff1611158015610e5457505f8160200151600f0b125b15610e7657610e6a815f01518260200151613845565b6001600160401b031681525b80515f90610e91906001600160401b03908116908516613859565b9050610ed881898981518110610ea957610ea9615273565b60200260200101518781518110610ec257610ec2615273565b602002602001015161386d90919063ffffffff16565b898881518110610eea57610eea615273565b60200260200101518681518110610f0357610f03615273565b602002602001018181525050505050505b600101610db0565b5050600101610d28565b5050949350505050565b6001600160a01b038082165f908152609760205260408120549091168015610f585780610776565b5090919050565b606654600190600290811603610f885760405163840a48d560e01b815260040160405180910390fd5b82610f9281613769565b610faf5760405163932d94f760e01b815260040160405180910390fd5b5f6040518060400160405280866001600160a01b03168152602001856020016020810190610fdd91906152a5565b63ffffffff16905290505f610ffe610ff86020870187614860565b83613881565b905061100d60608601866152cc565b905061101c60408701876152cc565b90501461103c576040516343714afd60e01b815260040160405180910390fd5b60208083015183516001600160a01b03165f9081526098909252604090912061106e9163ffffffff9081169061375216565b61108b57604051631fb1705560e21b815260040160405180910390fd5b806110a95760405163ebbff49760e01b815260040160405180910390fd5b5f6110b760408701876152cc565b90506001600160401b038111156110d0576110d06146f3565b6040519080825280602002602001820160405280156110f9578160200160208202803683370190505b5090505f5b61110b60408801886152cc565b90508110156117025780158061119e575061112960408801886152cc565b61113460018461547b565b81811061114357611143615273565b90506020020160208101906111589190614860565b6001600160a01b031661116e60408901896152cc565b8381811061117e5761117e615273565b90506020020160208101906111939190614860565b6001600160a01b0316115b6111bb57604051639f1c805360e01b815260040160405180910390fd5b6111c860608801886152cc565b828181106111d8576111d8615273565b905060200201355f1080156112185750670de0b6b3a76400006111fe60608901896152cc565b8381811061120e5761120e615273565b9050602002013511155b61123557604051631353603160e01b815260040160405180910390fd5b61129161124560408901896152cc565b8381811061125557611255615273565b905060200201602081019061126a9190614860565b60995f61127688613532565b81526020019081526020015f206138f790919063ffffffff16565b6112ae576040516331bc342760e11b815260040160405180910390fd5b5f806113006112c060208b018b614860565b6112c988613532565b6112d660408d018d6152cc565b878181106112e6576112e6615273565b90506020020160208101906112fb9190614860565b613595565b805191935091506001600160401b03165f0361131d5750506116fa565b5f61135861132e60608c018c6152cc565b8681811061133e5761133e615273565b85516001600160401b031692602090910201359050613918565b83519091506113736001600160401b03808416908316613859565b86868151811061138557611385615273565b60200260200101818152505081835f018181516113a2919061548e565b6001600160401b03169052508351829085906113bf90839061548e565b6001600160401b03169052506020840180518391906113df90839061548e565b6001600160401b031690525060208301515f600f9190910b12156114fa575f61144261140e60608e018e6152cc565b8881811061141e5761141e615273565b905060200201358560200151611433906154ad565b6001600160801b031690613918565b9050806001600160401b03168460200181815161145f91906154d1565b600f0b9052507f1487af5418c47ee5ea45ef4a93398668120890774a9e13487e61e9dc3baf76dd61149360208e018e614860565b8a8e80604001906114a491906152cc565b8a8181106114b4576114b4615273565b90506020020160208101906114c99190614860565b6114da885f01518960200151613845565b88604001516040516114f09594939291906154fe565b60405180910390a1505b61154c61150a60208d018d614860565b6115138a613532565b61152060408f018f6152cc565b8981811061153057611530615273565b90506020020160208101906115459190614860565b878761392e565b7f1487af5418c47ee5ea45ef4a93398668120890774a9e13487e61e9dc3baf76dd61157a60208d018d614860565b8961158860408f018f6152cc565b8981811061159857611598615273565b90506020020160208101906115ad9190614860565b86516040516115c1949392919043906154fe565b60405180910390a16116126115d960208d018d614860565b6115e660408e018e6152cc565b888181106115f6576115f6615273565b905060200201602081019061160b9190614860565b8651613b66565b6001600160a01b037f00000000000000000000000000000000000000000000000000000000000000001663601bb36f61164e60208e018e614860565b61165b60408f018f6152cc565b8981811061166b5761166b615273565b90506020020160208101906116809190614860565b875160405160e085901b6001600160e01b03191681526001600160a01b0393841660048201529290911660248301526001600160401b0380861660448401521660648201526084015f604051808303815f87803b1580156116df575f5ffd5b505af11580156116f1573d5f5f3e3d5ffd5b50505050505050505b6001016110fe565b507f80969ad29428d6797ee7aad084f9e4a42a82fc506dcd2ca3b6fb431f85ccebe56117316020880188614860565b8461173f60408a018a6152cc565b8561174d60808d018d61554f565b60405161176097969594939291906155b9565b60405180910390a150505050505050565b6001600160a01b0382165f908152609d6020526040812060609182916117969061373e565b90505f816001600160401b038111156117b1576117b16146f3565b6040519080825280602002602001820160405280156117f557816020015b604080518082019091525f80825260208201528152602001906001900390816117cf5790505b5090505f826001600160401b03811115611811576118116146f3565b60405190808252806020026020018201604052801561185a57816020015b604080516060810182525f80825260208083018290529282015282525f1990920191018161182f5790505b5090505f5b838110156118dd576001600160a01b0388165f908152609d6020526040812061188c906109079084613747565b9050808483815181106118a1576118a1615273565b60200260200101819052506118b789828a610742565b8383815181106118c9576118c9615273565b60209081029190910101525060010161185f565b509093509150505b9250929050565b60605f61077660995f6118fe86613532565b81526020019081526020015f20613be8565b60605f83516001600160401b0381111561192c5761192c6146f3565b604051908082528060200260200182016040528015611955578160200160208202803683370190505b5090505f5b84518110156109615761198685828151811061197857611978615273565b602002602001015185612aff565b82828151811061199857611998615273565b6001600160401b039092166020928302919091019091015260010161195a565b6066545f906001908116036119e05760405163840a48d560e01b815260040160405180910390fd5b838214611a00576040516343714afd60e01b815260040160405180910390fd5b5f5b84811015611a6957611a6187878784818110611a2057611a20615273565b9050602002016020810190611a359190614860565b868685818110611a4757611a47615273565b9050602002016020810190611a5c919061564f565b613bf4565b600101611a02565b50505050505050565b83611a7c81613769565b611a995760405163932d94f760e01b815260040160405180910390fd5b604080518082019091526001600160a01b038616815263ffffffff851660208201525f611ac582613532565b9050611b06826020015163ffffffff1660985f8a6001600160a01b03166001600160a01b031681526020019081526020015f2061375290919063ffffffff16565b611b2357604051631fb1705560e21b815260040160405180910390fd5b5f5b84811015611bc657611b42868683818110610b7157610b71615273565b611b5f5760405163585cfb2f60e01b815260040160405180910390fd5b7f7ab260fe0af193db5f4986770d831bda4ea46099dc817e8b6716dcae8af8e88b83878784818110611b9357611b93615273565b9050602002016020810190611ba89190614860565b604051611bb6929190615311565b60405180910390a1600101611b25565b5050505050505050565b60605f82516001600160401b03811115611bec57611bec6146f3565b604051908082528060200260200182016040528015611c15578160200160208202803683370190505b5090505f5b835181101561096157611c4685858381518110611c3957611c39615273565b6020026020010151612aff565b828281518110611c5857611c58615273565b6001600160401b0390921660209283029190910190910152600101611c1a565b336001600160a01b037f00000000000000000000000000000000000000000000000000000000000000001614611d7357611cb182613769565b611cce576040516348f5c3ed60e01b815260040160405180910390fd5b6040516336b87bd760e11b81526001600160a01b0383811660048301527f00000000000000000000000000000000000000000000000000000000000000001690636d70f7ae90602401602060405180830381865afa158015611d32573d5f5f3e3d5ffd5b505050506040513d601f19601f82011682018060405250810190611d569190615254565b611d735760405163ccea9e6f60e01b815260040160405180910390fd5b61084e8282613cf8565b60405163237dfb4760e11b81523360048201527f00000000000000000000000000000000000000000000000000000000000000006001600160a01b0316906346fbf68e90602401602060405180830381865afa158015611ddf573d5f5f3e3d5ffd5b505050506040513d601f19601f82011682018060405250810190611e039190615254565b611e2057604051631d77d47760e21b815260040160405180910390fd5b611e2a5f19613701565b565b5f61077683609a5f61127686613532565b6001600160a01b038281165f81815260a2602090815260408083209486168084529482528083205493835260a38252808320948352939052918220546001600160401b0390911690600f81810b600160801b909204900b03825b81811015611f67576001600160a01b038087165f90815260a3602090815260408083209389168352929052908120611ecf9083613ea4565b6001600160a01b038881165f90815260a0602090815260408083208584528252808320938b16835292815290829020825160608101845290546001600160401b0381168252600160401b8104600f0b92820192909252600160c01b90910463ffffffff16918101829052919250431015611f4a575050611f67565b611f58858260200151613845565b94505050806001019050611e97565b506001600160a01b038086165f90815260a1602090815260408083209388168352929052208290611f9790613832565b611fa1919061548e565b95945050505050565b606654600290600490811603611fd35760405163840a48d560e01b815260040160405180910390fd5b611fe8611fe36020840184614860565b613769565b806120015750612001611fe36040840160208501614860565b61201e576040516348f5c3ed60e01b815260040160405180910390fd5b5f5b61202d60408401846152cc565b90508110156122ef575f60405180604001604052808560200160208101906120559190614860565b6001600160a01b0316815260200161207060408701876152cc565b8581811061208057612080615273565b905060200201602081019061209591906152a5565b63ffffffff1681525090506120e2816020015163ffffffff1660985f8760200160208101906120c49190614860565b6001600160a01b0316815260208101919091526040015f2090613752565b6120ff57604051631fb1705560e21b815260040160405180910390fd5b609e5f61210f6020870187614860565b6001600160a01b03166001600160a01b031681526020019081526020015f205f61213883613532565b815260208101919091526040015f205460ff16612168576040516325131d4f60e01b815260040160405180910390fd5b6121a261217482613532565b609c5f6121846020890189614860565b6001600160a01b0316815260208101919091526040015f2090613f13565b506121da6121b36020860186614860565b609a5f6121bf85613532565b81526020019081526020015f20613f1e90919063ffffffff16565b506121e86020850185614860565b6001600160a01b03167fad34c3070be1dffbcaa499d000ba2b8d9848aefcac3059df245dd95c4ece14fe8260405161222091906152be565b60405180910390a2604080518082019091525f8152602081016122637f000000000000000000000000000000000000000000000000000000000000000043615670565b63ffffffff169052609e5f61227b6020880188614860565b6001600160a01b03166001600160a01b031681526020019081526020015f205f6122a484613532565b81526020808201929092526040015f2082518154939092015163ffffffff166101000264ffffffff00199215159290921664ffffffffff199093169290921717905550600101612020565b506123036103836040840160208501614860565b6001600160a01b031663303ca95661231e6020850185614860565b61232e6040860160208701614860565b61233b60408701876152cc565b6040518563ffffffff1660e01b815260040161235a94939291906156c5565b5f604051808303815f87803b158015612371575f5ffd5b505af1158015612383573d5f5f3e3d5ffd5b505050505050565b606061099a609a5f6118fe85613532565b6123a4613f32565b611e2a5f613f8c565b6001600160a01b0381165f908152609c60205260408120606091906123d19061373e565b90505f816001600160401b038111156123ec576123ec6146f3565b60405190808252806020026020018201604052801561243057816020015b604080518082019091525f808252602082015281526020019060019003908161240a5790505b5090505f5b82811015610961576001600160a01b0385165f908152609c60205260409020612462906109079083613747565b82828151811061247457612474615273565b6020908102919091010152600101612435565b60605f84516001600160401b038111156124a3576124a36146f3565b6040519080825280602002602001820160405280156124ec57816020015b604080516060810182525f80825260208083018290529282015282525f199092019101816124c15790505b5090505f5b85518110156125435761251e86828151811061250f5761250f615273565b60200260200101518686610742565b82828151811061253057612530615273565b60209081029190910101526001016124f1565b50949350505050565b60605f83516001600160401b03811115612568576125686146f3565b604051908082528060200260200182016040528015612591578160200160208202803683370190505b5090505f5b8451811015612543576001600160a01b0386165f90815260a1602052604081208651612606928792918990869081106125d1576125d1615273565b60200260200101516001600160a01b03166001600160a01b031681526020019081526020015f20613fdd90919063ffffffff16565b82828151811061261857612618615273565b6001600160401b0390921660209283029190910190910152600101612596565b6066545f906001908116036126605760405163840a48d560e01b815260040160405180910390fd5b61266983613769565b612686576040516348f5c3ed60e01b815260040160405180910390fd5b5f5f5f61269286613077565b91509150816126b45760405163fa55fc8160e01b815260040160405180910390fd5b91505f90505b8351811015610c3c578381815181106126d5576126d5615273565b602002602001015160400151518482815181106126f4576126f4615273565b602002602001015160200151511461271f576040516343714afd60e01b815260040160405180910390fd5b5f84828151811061273257612732615273565b602090810291909101810151518082015181516001600160a01b03165f908152609890935260409092209092506127729163ffffffff9081169061375216565b61278f57604051631fb1705560e21b815260040160405180910390fd5b5f61279a8783613881565b90505f5b8684815181106127b0576127b0615273565b60200260200101516020015151811015612af4575f8785815181106127d7576127d7615273565b60200260200101516020015182815181106127f4576127f4615273565b6020026020010151905061280b898261ffff613bf4565b5f5f61281a8b61076b88613532565b915091508060200151600f0b5f1461284557604051630d8fcbe360e41b815260040160405180910390fd5b5f61285287858489613ff1565b9050612897825f01518c8a8151811061286d5761286d615273565b602002602001015160400151878151811061288a5761288a615273565b6020026020010151614027565b600f0b602083018190525f036128c057604051634606179360e11b815260040160405180910390fd5b5f8260200151600f0b1215612a04578015612986576129416128e188613532565b6001600160a01b03808f165f90815260a360209081526040808320938a16835292905220908154600160801b90819004600f0b5f818152600180860160205260409091209390935583546001600160801b03908116939091011602179055565b61296b7f000000000000000000000000000000000000000000000000000000000000000043615670565b612976906001615670565b63ffffffff166040830152612a71565b61299883602001518360200151613845565b6001600160401b031660208401528a518b90899081106129ba576129ba615273565b60200260200101516040015185815181106129d7576129d7615273565b6020908102919091018101516001600160401b031683525f9083015263ffffffff43166040830152612a71565b5f8260200151600f0b1315612a7157612a2583602001518360200151613845565b6001600160401b039081166020850181905284519091161015612a5b57604051636c9be0bf60e01b815260040160405180910390fd5b612a658943615670565b63ffffffff1660408301525b612a868c612a7e89613532565b86868661392e565b7f1487af5418c47ee5ea45ef4a93398668120890774a9e13487e61e9dc3baf76dd8c612ab46109078a613532565b86612ac6865f01518760200151613845565b8660400151604051612adc9594939291906154fe565b60405180910390a150506001909201915061279e9050565b5050506001016126ba565b6001600160a01b038083165f90815260a160209081526040808320938516835292905290812061077690613832565b82612b3881613769565b612b555760405163932d94f760e01b815260040160405180910390fd5b836001600160a01b03167fa89c1dc243d8908a96dd84944bcc97d6bc6ac00dd78e20621576be6a3c9437138484604051612b909291906156f1565b60405180910390a250505050565b606654600290600490811603612bc75760405163840a48d560e01b815260040160405180910390fd5b82612bd181613769565b612bee5760405163932d94f760e01b815260040160405180910390fd5b6040516336b87bd760e11b81526001600160a01b0385811660048301527f00000000000000000000000000000000000000000000000000000000000000001690636d70f7ae90602401602060405180830381865afa158015612c52573d5f5f3e3d5ffd5b505050506040513d601f19601f82011682018060405250810190612c769190615254565b612c935760405163ccea9e6f60e01b815260040160405180910390fd5b5f5b612ca260208501856152cc565b9050811015612e6a57604080518082019091525f9080612cc56020880188614860565b6001600160a01b03168152602001868060200190612ce391906152cc565b85818110612cf357612cf3615273565b9050602002016020810190612d0891906152a5565b63ffffffff90811690915260208083015183516001600160a01b03165f90815260989092526040909120929350612d4492919081169061375216565b612d6157604051631fb1705560e21b815260040160405180910390fd5b612d6b8682613881565b15612d8957604051636c6c6e2760e11b815260040160405180910390fd5b612db2612d9582613532565b6001600160a01b0388165f908152609c6020526040902090613813565b50612dde86609a5f612dc385613532565b81526020019081526020015f2061381e90919063ffffffff16565b50856001600160a01b03167f43232edf9071753d2321e5fa7e018363ee248e5f2142e6c08edd3265bfb4895e82604051612e1891906152be565b60405180910390a26001600160a01b0386165f908152609e60205260408120600191612e4384613532565b815260208101919091526040015f20805460ff191691151591909117905550600101612c95565b50612e7b6103836020850185614860565b6001600160a01b031663c63fd50285612e976020870187614860565b612ea460208801886152cc565b612eb160408a018a61554f565b6040518763ffffffff1660e01b8152600401612ed296959493929190615704565b5f604051808303815f87803b158015612ee9575f5ffd5b505af1158015611bc6573d5f5f3e3d5ffd5b5f61099a609a5f612f0b85613532565b81526020019081526020015f2061373e565b83612f2781613769565b612f445760405163932d94f760e01b815260040160405180910390fd5b6040805180820182526001600160a01b03871680825263ffffffff80881660208085018290525f93845260989052939091209192612f83929161375216565b612fa057604051631fb1705560e21b815260040160405180910390fd5b5f612faa82613532565b90505f5b84811015611bc657612ff3868683818110612fcb57612fcb615273565b9050602002016020810190612fe09190614860565b5f84815260996020526040902090613f1e565b613010576040516331bc342760e11b815260040160405180910390fd5b7f7b4b073d80dcac55a11177d8459ad9f664ceeb91f71f27167bb14f8152a7eeee8387878481811061304457613044615273565b90506020020160208101906130599190614860565b604051613067929190615311565b60405180910390a1600101612fae565b6001600160a01b0381165f908152609b602090815260408083208151608081018352905463ffffffff80821680845260ff600160201b8404161515958401869052650100000000008304821694840194909452600160481b9091041660608201819052849391929190158015906130f85750826060015163ffffffff164310155b15613107575050604081015160015b9590945092505050565b6001600160a01b0381165f90815260986020526040812061099a9061373e565b6001600160a01b0382165f908152609f602052604081206060919061315a90826118fe86613532565b949350505050565b5f54610100900460ff161580801561318057505f54600160ff909116105b806131995750303b15801561319957505f5460ff166001145b6132015760405162461bcd60e51b815260206004820152602e60248201527f496e697469616c697a61626c653a20636f6e747261637420697320616c72656160448201526d191e481a5b9a5d1a585b1a5e995960921b60648201526084015b60405180910390fd5b5f805460ff191660011790558015613222575f805461ff0019166101001790555b61322b82613701565b61323483613f8c565b801561327a575f805461ff0019169055604051600181527f7f26b83ff96e1f2b6a682f133852f6798a09c465da95921460cefb3847402498906020015b60405180910390a15b505050565b8161328981613769565b6132a65760405163932d94f760e01b815260040160405180910390fd5b60405163b526578760e01b81526001600160a01b03848116600483015283169063b526578790602401602060405180830381865afa1580156132ea573d5f5f3e3d5ffd5b505050506040513d601f19601f8201168201806040525081019061330e9190615254565b61332b57604051631d0b13c160e31b815260040160405180910390fd5b6001600160a01b038381165f90815260976020526040902080546001600160a01b0319169184169190911790557f2ae945c40c44dc0ec263f95609c3fdc6952e0aefa22d6374e44f2c997acedf858361338381610f30565b604080516001600160a01b03938416815292909116602083015201613271565b6133ab613f32565b6001600160a01b0381166134105760405162461bcd60e51b815260206004820152602660248201527f4f776e61626c653a206e6577206f776e657220697320746865207a65726f206160448201526564647265737360d01b60648201526084016131f8565b61341981613f8c565b50565b7f00000000000000000000000000000000000000000000000000000000000000006001600160a01b031663eab66d7a6040518163ffffffff1660e01b8152600401602060405180830381865afa158015613478573d5f5f3e3d5ffd5b505050506040513d601f19601f8201168201806040525081019061349c9190615750565b6001600160a01b0316336001600160a01b0316146134cd5760405163794821ff60e01b815260040160405180910390fd5b606654801982198116146134f45760405163c61dca5d60e01b815260040160405180910390fd5b606682905560405182815233907f3582d1828e26bf56bd801502bc021ac0bc8afb57c826e4986b45593c8fad389c9060200160405180910390a25050565b5f815f0151826020015163ffffffff1660405160200161357d92919060609290921b6bffffffffffffffffffffffff1916825260a01b6001600160a01b031916601482015260200190565b60405160208183030381529060405261099a9061576b565b6040805180820182525f80825260208083018290528351606081018552828152808201839052808501839052845180860186526001600160a01b03898116855260a18452868520908816855290925293822092939281906135f590613832565b6001600160401b0390811682526001600160a01b038981165f81815260a260209081526040808320948c168084529482528083205486169682019690965291815260a082528481208b8252825284812092815291815290839020835160608101855290549283168152600160401b8304600f0b91810191909152600160c01b90910463ffffffff169181018290529192504310156136975790925090506136f9565b6136a8815f01518260200151613845565b6001600160401b0316815260208101515f600f9190910b12156136e6576136d782602001518260200151613845565b6001600160401b031660208301525b5f60408201819052602082015290925090505b935093915050565b606681905560405181815233907fab40a374bc51de372200a8bc981af8c9ecdc08dfdaef0bb6e09f88f3c616ef3d9060200160405180910390a250565b5f61099a825490565b5f610776838361403e565b5f8181526001830160205260408120541515610776565b604051631beb2b9760e31b81526001600160a01b0382811660048301523360248301523060448301525f80356001600160e01b0319166064840152917f00000000000000000000000000000000000000000000000000000000000000009091169063df595cb8906084016020604051808303815f875af11580156137ef573d5f5f3e3d5ffd5b505050506040513d601f19601f8201168201806040525081019061099a9190615254565b5f6107768383614064565b5f610776836001600160a01b038416614064565b5f61099a82670de0b6b3a76400006140b0565b5f610776826001600160401b0385166154d1565b5f61077683670de0b6b3a7640000846140f4565b5f6107768383670de0b6b3a76400006140f4565b6001600160a01b0382165f908152609e602052604081208190816138a485613532565b815260208082019290925260409081015f2081518083019092525460ff8116151580835261010090910463ffffffff169282019290925291508061315a57506020015163ffffffff164311159392505050565b6001600160a01b0381165f9081526001830160205260408120541515610776565b5f6107768383670de0b6b3a764000060016141d9565b6020808301516001600160a01b038088165f90815260a284526040808220928816825291909352909120546001600160401b039081169116146139f457602082810180516001600160a01b038881165f81815260a286526040808220938a1680835293875290819020805467ffffffffffffffff19166001600160401b0395861617905593518451918252948101919091529216908201527facf9095feb3a370c9cf692421c69ef320d4db5c66e6a7d29c7694eb02364fc559060600160405180910390a15b6001600160a01b038086165f90815260a060209081526040808320888452825280832093871683529281529082902083518154928501519385015163ffffffff16600160c01b0263ffffffff60c01b196001600160801b038616600160401b026001600160c01b03199095166001600160401b03909316929092179390931716919091179055600f0b15613ad6576001600160a01b0385165f908152609f602090815260408083208784529091529020613aae908461381e565b506001600160a01b0385165f908152609d60205260409020613ad09085613813565b50610c3c565b80516001600160401b03165f03610c3c576001600160a01b0385165f908152609f602090815260408083208784529091529020613b139084613f1e565b506001600160a01b0385165f908152609f602090815260408083208784529091529020613b3f9061373e565b5f03610c3c576001600160a01b0385165f908152609d602052604090206123839085613f13565b6001600160a01b038084165f90815260a160209081526040808320938616835292905220613b95904383614232565b604080516001600160a01b038086168252841660208201526001600160401b038316918101919091527f1c6458079a41077d003c11faf9bf097e693bd67979e4e6500bac7b29db779b5c90606001613271565b60605f61077683614246565b6001600160a01b038381165f90815260a360209081526040808320938616835292905290812054600f81810b600160801b909204900b035b5f81118015613c3e57508261ffff1682105b15610c3c576001600160a01b038086165f90815260a3602090815260408083209388168352929052908120613c729061429f565b90505f5f613c81888489613595565b91509150806040015163ffffffff16431015613c9f57505050610c3c565b613cac888489858561392e565b6001600160a01b038089165f90815260a360209081526040808320938b16835292905220613cd9906142f1565b50613ce38561578e565b9450613cee846157a6565b9350505050613c2c565b6001600160a01b0382165f908152609b60209081526040918290208251608081018452905463ffffffff808216835260ff600160201b830416151593830193909352650100000000008104831693820193909352600160481b909204166060820181905215801590613d745750806060015163ffffffff164310155b15613d8e57604081015163ffffffff168152600160208201525b63ffffffff82166040820152613dc47f000000000000000000000000000000000000000000000000000000000000000043615670565b613dcf906001615670565b63ffffffff90811660608381019182526001600160a01b0386165f818152609b602090815260409182902087518154838a0151858b01519851928a1664ffffffffff1990921691909117600160201b91151591909102176cffffffffffffffff0000000000191665010000000000978916979097026cffffffff000000000000000000191696909617600160481b968816968702179055815192835294871694820194909452928301919091527f4e85751d6331506c6c62335f207eb31f12a61e570f34f5c17640308785c6d4db9101613271565b5f5f613ec6613eb28461436e565b8554613ec19190600f0b6157bb565b6143db565b8454909150600160801b9004600f90810b9082900b12613ef957604051632d0483c560e21b815260040160405180910390fd5b600f0b5f9081526001939093016020525050604090205490565b5f6107768383614444565b5f610776836001600160a01b038416614444565b6033546001600160a01b03163314611e2a5760405162461bcd60e51b815260206004820181905260248201527f4f776e61626c653a2063616c6c6572206973206e6f7420746865206f776e657260448201526064016131f8565b603380546001600160a01b038381166001600160a01b0319831681179093556040519116919082907f8be0079c531659141344cd1fd0a4f28419497f9722a3daafe3b4186f6b6457e0905f90a35050565b5f6107768383670de0b6b3a7640000614527565b5f6140028460995f61127689613532565b801561400b5750815b8015611fa157505090516001600160401b031615159392505050565b5f6107766001600160401b038085169084166157e2565b5f825f01828154811061405357614053615273565b905f5260205f200154905092915050565b5f8181526001830160205260408120546140a957508154600181810184555f84815260208082209093018490558454848252828601909352604090209190915561099a565b505f61099a565b81545f9080156140ec576140d6846140c960018461547b565b5f91825260209091200190565b54600160201b90046001600160e01b031661315a565b509092915050565b5f80805f19858709858702925082811083820303915050805f0361412b578382816141215761412161580f565b0492505050610776565b8084116141725760405162461bcd60e51b81526020600482015260156024820152744d6174683a206d756c446976206f766572666c6f7760581b60448201526064016131f8565b5f8486880960026001871981018816978890046003810283188082028403028082028403028082028403028082028403028082028403029081029092039091025f889003889004909101858311909403939093029303949094049190911702949350505050565b5f5f6141e68686866140f4565b905060018360028111156141fc576141fc615823565b14801561421857505f84806142135761421361580f565b868809115b15611fa157614228600182615837565b9695505050505050565b61327a83836001600160401b03841661456f565b6060815f0180548060200260200160405190810160405280929190818152602001828054801561429357602002820191905f5260205f20905b81548152602001906001019080831161427f575b50505050509050919050565b5f6142b98254600f81810b600160801b909204900b131590565b156142d757604051631ed9509560e11b815260040160405180910390fd5b508054600f0b5f9081526001909101602052604090205490565b5f61430b8254600f81810b600160801b909204900b131590565b1561432957604051631ed9509560e11b815260040160405180910390fd5b508054600f0b5f818152600180840160205260408220805492905583546fffffffffffffffffffffffffffffffff191692016001600160801b03169190911790915590565b5f6001600160ff1b038211156143d75760405162461bcd60e51b815260206004820152602860248201527f53616665436173743a2076616c756520646f65736e27742066697420696e2061604482015267371034b73a191a9b60c11b60648201526084016131f8565b5090565b80600f81900b811461443f5760405162461bcd60e51b815260206004820152602760248201527f53616665436173743a2076616c756520646f65736e27742066697420696e20316044820152663238206269747360c81b60648201526084016131f8565b919050565b5f818152600183016020526040812054801561451e575f61446660018361547b565b85549091505f906144799060019061547b565b90508181146144d8575f865f01828154811061449757614497615273565b905f5260205f200154905080875f0184815481106144b7576144b7615273565b5f918252602080832090910192909255918252600188019052604090208390555b85548690806144e9576144e961584a565b600190038181905f5260205f20015f90559055856001015f8681526020019081526020015f205f90556001935050505061099a565b5f91505061099a565b82545f908161453886868385614672565b905080156145655761454f866140c960018461547b565b54600160201b90046001600160e01b0316610771565b5091949350505050565b82548015614625575f614587856140c960018561547b565b60408051808201909152905463ffffffff808216808452600160201b9092046001600160e01b0316602084015291925090851610156145d95760405163151b8e3f60e11b815260040160405180910390fd5b805163ffffffff80861691160361462357826145fa866140c960018661547b565b80546001600160e01b0392909216600160201b0263ffffffff9092169190911790555050505050565b505b506040805180820190915263ffffffff92831681526001600160e01b03918216602080830191825285546001810187555f968752952091519051909216600160201b029190921617910155565b5f5b81831015610961575f61468784846146c5565b5f8781526020902090915063ffffffff86169082015463ffffffff1611156146b1578092506146bf565b6146bc816001615837565b93505b50614674565b5f6146d3600284841861585e565b61077690848416615837565b6001600160a01b0381168114613419575f5ffd5b634e487b7160e01b5f52604160045260245ffd5b604051606081016001600160401b0381118282101715614729576147296146f3565b60405290565b604051601f8201601f191681016001600160401b0381118282101715614757576147576146f3565b604052919050565b803563ffffffff8116811461443f575f5ffd5b5f60408284031215614782575f5ffd5b604080519081016001600160401b03811182821017156147a4576147a46146f3565b60405290508082356147b5816146df565b81526147c36020840161475f565b60208201525092915050565b5f5f5f608084860312156147e1575f5ffd5b83356147ec816146df565b92506147fb8560208601614772565b9150606084013561480b816146df565b809150509250925092565b81516001600160401b03168152602080830151600f0b9082015260408083015163ffffffff16908201526060810161099a565b5f60208284031215614859575f5ffd5b5035919050565b5f60208284031215614870575f5ffd5b8135610776816146df565b80516001600160a01b0316825260209081015163ffffffff16910152565b5f8151808452602084019350602083015f5b828110156148d4576148be86835161487b565b60409590950194602091909101906001016148ab565b5093949350505050565b602081525f6107766020830184614899565b5f60408284031215614900575f5ffd5b6107768383614772565b5f5f83601f84011261491a575f5ffd5b5081356001600160401b03811115614930575f5ffd5b6020830191508360208260051b85010111156118e5575f5ffd5b5f5f5f6040848603121561495c575f5ffd5b8335614967816146df565b925060208401356001600160401b03811115614981575f5ffd5b61498d8682870161490a565b9497909650939450505050565b5f6001600160401b038211156149b2576149b26146f3565b5060051b60200190565b5f82601f8301126149cb575f5ffd5b81356149de6149d98261499a565b61472f565b8082825260208201915060208360051b8601019250858311156149ff575f5ffd5b602085015b83811015614a25578035614a17816146df565b835260209283019201614a04565b5095945050505050565b5f5f5f5f60a08587031215614a42575f5ffd5b614a4c8686614772565b935060408501356001600160401b03811115614a66575f5ffd5b614a72878288016149bc565b93505060608501356001600160401b03811115614a8d575f5ffd5b614a99878288016149bc565b925050614aa86080860161475f565b905092959194509250565b5f8151808452602084019350602083015f5b828110156148d4578151865260209586019590910190600101614ac5565b5f602082016020835280845180835260408501915060408160051b8601019250602086015f5b82811015614b3a57603f19878603018452614b25858351614ab3565b94506020938401939190910190600101614b09565b50929695505050505050565b5f5f60408385031215614b57575f5ffd5b8235614b62816146df565b915060208301356001600160401b03811115614b7c575f5ffd5b830160a08186031215614b8d575f5ffd5b809150509250929050565b5f5f60408385031215614ba9575f5ffd5b8235614bb4816146df565b91506020830135614b8d816146df565b5f8151808452602084019350602083015f5b828110156148d457614c0f86835180516001600160401b03168252602080820151600f0b9083015260409081015163ffffffff16910152565b6060959095019460209190910190600101614bd6565b604081525f614c376040830185614899565b8281036020840152611fa18185614bc4565b5f8151808452602084019350602083015f5b828110156148d45781516001600160a01b0316865260209586019590910190600101614c5b565b602081525f6107766020830184614c49565b5f5f60408385031215614ca5575f5ffd5b82356001600160401b03811115614cba575f5ffd5b614cc6858286016149bc565b9250506020830135614b8d816146df565b602080825282518282018190525f918401906040840190835b81811015614d175783516001600160401b0316835260209384019390920191600101614cf0565b509095945050505050565b5f5f5f5f5f60608688031215614d36575f5ffd5b8535614d41816146df565b945060208601356001600160401b03811115614d5b575f5ffd5b614d678882890161490a565b90955093505060408601356001600160401b03811115614d85575f5ffd5b614d918882890161490a565b969995985093965092949392505050565b5f5f5f5f60608587031215614db5575f5ffd5b8435614dc0816146df565b9350614dce6020860161475f565b925060408501356001600160401b03811115614de8575f5ffd5b614df48782880161490a565b95989497509550505050565b5f5f60408385031215614e11575f5ffd5b8235614e1c816146df565b915060208301356001600160401b03811115614e36575f5ffd5b614e42858286016149bc565b9150509250929050565b5f5f60408385031215614e5d575f5ffd5b8235614e68816146df565b9150614e766020840161475f565b90509250929050565b5f60208284031215614e8f575f5ffd5b813560ff81168114610776575f5ffd5b5f5f60608385031215614eb0575f5ffd5b8235614ebb816146df565b9150614e768460208501614772565b5f60608284031215614eda575f5ffd5b50919050565b5f60208284031215614ef0575f5ffd5b81356001600160401b03811115614f05575f5ffd5b61315a84828501614eca565b5f5f5f60808486031215614f23575f5ffd5b83356001600160401b03811115614f38575f5ffd5b614f44868287016149bc565b9350506147fb8560208601614772565b602081525f6107766020830184614bc4565b5f5f5f60608486031215614f78575f5ffd5b8335614f83816146df565b925060208401356001600160401b03811115614f9d575f5ffd5b614fa9868287016149bc565b925050614fb86040850161475f565b90509250925092565b5f5f60408385031215614fd2575f5ffd5b8235614fdd816146df565b915060208301356001600160401b03811115614ff7575f5ffd5b8301601f81018513615007575f5ffd5b80356150156149d98261499a565b8082825260208201915060208360051b850101925087831115615036575f5ffd5b602084015b8381101561515b5780356001600160401b03811115615058575f5ffd5b85016080818b03601f1901121561506d575f5ffd5b615075614707565b6150828b60208401614772565b815260608201356001600160401b0381111561509c575f5ffd5b6150ab8c6020838601016149bc565b60208301525060808201356001600160401b038111156150c9575f5ffd5b6020818401019250508a601f8301126150e0575f5ffd5b81356150ee6149d98261499a565b8082825260208201915060208360051b86010192508d83111561510f575f5ffd5b6020850194505b828510156151455784356001600160401b0381168114615134575f5ffd5b825260209485019490910190615116565b604084015250508452506020928301920161503b565b50809450505050509250929050565b5f5f5f6040848603121561517c575f5ffd5b8335615187816146df565b925060208401356001600160401b038111156151a1575f5ffd5b8401601f810186136151b1575f5ffd5b80356001600160401b038111156151c6575f5ffd5b8660208284010111156151d7575f5ffd5b939660209190910195509293505050565b5f5f604083850312156151f9575f5ffd5b8235615204816146df565b915060208301356001600160401b0381111561521e575f5ffd5b614e4285828601614eca565b5f5f6040838503121561523b575f5ffd5b8235615246816146df565b946020939093013593505050565b5f60208284031215615264575f5ffd5b81518015158114610776575f5ffd5b634e487b7160e01b5f52603260045260245ffd5b5f8235603e1983360301811261529b575f5ffd5b9190910192915050565b5f602082840312156152b5575f5ffd5b6107768261475f565b6040810161099a828461487b565b5f5f8335601e198436030181126152e1575f5ffd5b8301803591506001600160401b038211156152fa575f5ffd5b6020019150600581901b36038213156118e5575f5ffd5b6060810161531f828561487b565b6001600160a01b039290921660409190910152919050565b604081525f6153496040830185614c49565b8281036020840152611fa18185614c49565b5f6020828403121561536b575f5ffd5b81516001600160401b03811115615380575f5ffd5b8201601f81018413615390575f5ffd5b805161539e6149d98261499a565b8082825260208201915060208360051b8501019250868311156153bf575f5ffd5b602084015b8381101561545c5780516001600160401b038111156153e1575f5ffd5b8501603f810189136153f1575f5ffd5b60208101516154026149d98261499a565b808282526020820191506020808460051b8601010192508b831115615425575f5ffd5b6040840193505b8284101561544757835182526020938401939091019061542c565b865250506020938401939190910190506153c4565b509695505050505050565b634e487b7160e01b5f52601160045260245ffd5b8181038181111561099a5761099a615467565b6001600160401b03828116828216039081111561099a5761099a615467565b5f81600f0b60016001607f1b031981036154c9576154c9615467565b5f0392915050565b600f81810b9083900b0160016001607f1b03811360016001607f1b03198212171561099a5761099a615467565b6001600160a01b038616815260c0810161551b602083018761487b565b6001600160a01b039490941660608201526001600160401b0392909216608083015263ffffffff1660a09091015292915050565b5f5f8335601e19843603018112615564575f5ffd5b8301803591506001600160401b0382111561557d575f5ffd5b6020019150368190038213156118e5575f5ffd5b81835281816020850137505f828201602090810191909152601f909101601f19169091010190565b6001600160a01b03881681525f60c082016155d7602084018a61487b565b60c060608401528690528660e083015f5b888110156156185782356155fb816146df565b6001600160a01b03168252602092830192909101906001016155e8565b50838103608085015261562b8188614ab3565b91505082810360a0840152615641818587615591565b9a9950505050505050505050565b5f6020828403121561565f575f5ffd5b813561ffff81168114610776575f5ffd5b63ffffffff818116838216019081111561099a5761099a615467565b8183526020830192505f815f5b848110156148d45763ffffffff6156af8361475f565b1686526020958601959190910190600101615699565b6001600160a01b038581168252841660208201526060604082018190525f90614228908301848661568c565b602081525f61315a602083018486615591565b6001600160a01b038781168252861660208201526080604082018190525f90615730908301868861568c565b8281036060840152615743818587615591565b9998505050505050505050565b5f60208284031215615760575f5ffd5b8151610776816146df565b80516020808301519190811015614eda575f1960209190910360031b1b16919050565b5f6001820161579f5761579f615467565b5060010190565b5f816157b4576157b4615467565b505f190190565b8082018281125f8312801582168215821617156157da576157da615467565b505092915050565b600f82810b9082900b0360016001607f1b0319811260016001607f1b038213171561099a5761099a615467565b634e487b7160e01b5f52601260045260245ffd5b634e487b7160e01b5f52602160045260245ffd5b8082018082111561099a5761099a615467565b634e487b7160e01b5f52603160045260245ffd5b5f8261587857634e487b7160e01b5f52601260045260245ffd5b50049056fea264697066735822122024c25397fd2f7d3fe674c9ceaf5dbbee1b238edae160c8de5d8a2948cba2a68464736f6c634300081b0033","linkReferences":{}},"methodIdentifiers":{"ALLOCATION_CONFIGURATION_DELAY()":"7bc1ef61","DEALLOCATION_DELAY()":"2981eb77","addStrategiesToOperatorSet(address,uint32,address[])":"50feea20","clearDeallocationQueue(address,address[],uint16[])":"4b5046ef","createOperatorSets(address,(uint32,address[])[])":"261f84e0","delegation()":"df5cf723","deregisterFromOperatorSets((address,address,uint32[]))":"6e3492b5","encumberedMagnitude(address,address)":"a984eb3a","getAVSRegistrar(address)":"304c10cd","getAllocatableMagnitude(address,address)":"6cfb4481","getAllocatedSets(address)":"15fe5028","getAllocatedStrategies(address,(address,uint32))":"c221d8ae","getAllocation(address,(address,uint32),address)":"10e1b9b8","getAllocationDelay(address)":"b9fbaed1","getAllocations(address[],(address,uint32),address)":"8ce64854","getMaxMagnitude(address,address)":"a9333ec8","getMaxMagnitudes(address,address[])":"547afb87","getMaxMagnitudes(address[],address)":"4a10ffe5","getMaxMagnitudesAtBlock(address,address[],uint32)":"94d7d00c","getMemberCount((address,uint32))":"b2447af7","getMembers((address,uint32))":"6e875dba","getMinimumSlashableStake((address,uint32),address[],address[],uint32)":"2bab2c4a","getOperatorSetCount(address)":"ba1a84e5","getRegisteredSets(address)":"79ae50cd","getStrategiesInOperatorSet((address,uint32))":"4177a87c","getStrategyAllocations(address,address)":"40120dab","initialize(address,uint256)":"cd6dc687","isMemberOfOperatorSet(address,(address,uint32))":"670d3ba2","isOperatorSet((address,uint32))":"260dc758","modifyAllocations(address,((address,uint32),address[],uint64[])[])":"952899ee","owner()":"8da5cb5b","pause(uint256)":"136439dd","pauseAll()":"595c6a67","paused()":"5c975abb","paused(uint8)":"5ac86ab7","pauserRegistry()":"886f1195","permissionController()":"4657e26a","registerForOperatorSets(address,(address,uint32[],bytes))":"adc2e3d9","removeStrategiesFromOperatorSet(address,uint32,address[])":"b66bd989","renounceOwnership()":"715018a6","setAVSRegistrar(address,address)":"d3d96ff4","setAllocationDelay(address,uint32)":"56c483e6","slashOperator(address,(address,uint32,address[],uint256[],string))":"36352057","transferOwnership(address)":"f2fde38b","unpause(uint256)":"fabc1cbc","updateAVSMetadataURI(address,string)":"a9821821"},"id":121}