{"abi":[{"type":"constructor","inputs":[{"name":"_delegation","type":"address","internalType":"contract IDelegationManager"},{"name":"_pauserRegistry","type":"address","internalType":"contract IPauserRegistry"},{"name":"_permissionController","type":"address","internalType":"contract IPermissionController"},{"name":"_DEALLOCATION_DELAY","type":"uint32","internalType":"uint32"},{"name":"_ALLOCATION_CONFIGURATION_DELAY","type":"uint32","internalType":"uint32"},{"name":"_version","type":"string","internalType":"string"}],"stateMutability":"nonpayable"},{"type":"function","name":"ALLOCATION_CONFIGURATION_DELAY","inputs":[],"outputs":[{"name":"","type":"uint32","internalType":"uint32"}],"stateMutability":"view"},{"type":"function","name":"DEALLOCATION_DELAY","inputs":[],"outputs":[{"name":"","type":"uint32","internalType":"uint32"}],"stateMutability":"view"},{"type":"function","name":"addStrategiesToOperatorSet","inputs":[{"name":"avs","type":"address","internalType":"address"},{"name":"operatorSetId","type":"uint32","internalType":"uint32"},{"name":"strategies","type":"address[]","internalType":"contract IStrategy[]"}],"outputs":[],"stateMutability":"nonpayable"},{"type":"function","name":"clearDeallocationQueue","inputs":[{"name":"operator","type":"address","internalType":"address"},{"name":"strategies","type":"address[]","internalType":"contract IStrategy[]"},{"name":"numToClear","type":"uint16[]","internalType":"uint16[]"}],"outputs":[],"stateMutability":"nonpayable"},{"type":"function","name":"createOperatorSets","inputs":[{"name":"avs","type":"address","internalType":"address"},{"name":"params","type":"tuple[]","internalType":"struct IAllocationManagerTypes.CreateSetParams[]","components":[{"name":"operatorSetId","type":"uint32","internalType":"uint32"},{"name":"strategies","type":"address[]","internalType":"contract IStrategy[]"}]}],"outputs":[],"stateMutability":"nonpayable"},{"type":"function","name":"delegation","inputs":[],"outputs":[{"name":"","type":"address","internalType":"contract IDelegationManager"}],"stateMutability":"view"},{"type":"function","name":"deregisterFromOperatorSets","inputs":[{"name":"params","type":"tuple","internalType":"struct IAllocationManagerTypes.DeregisterParams","components":[{"name":"operator","type":"address","internalType":"address"},{"name":"avs","type":"address","internalType":"address"},{"name":"operatorSetIds","type":"uint32[]","internalType":"uint32[]"}]}],"outputs":[],"stateMutability":"nonpayable"},{"type":"function","name":"getAVSRegistrar","inputs":[{"name":"avs","type":"address","internalType":"address"}],"outputs":[{"name":"","type":"address","internalType":"contract IAVSRegistrar"}],"stateMutability":"view"},{"type":"function","name":"getAllocatableMagnitude","inputs":[{"name":"operator","type":"address","internalType":"address"},{"name":"strategy","type":"address","internalType":"contract IStrategy"}],"outputs":[{"name":"","type":"uint64","internalType":"uint64"}],"stateMutability":"view"},{"type":"function","name":"getAllocatedSets","inputs":[{"name":"operator","type":"address","internalType":"address"}],"outputs":[{"name":"","type":"tuple[]","internalType":"struct OperatorSet[]","components":[{"name":"avs","type":"address","internalType":"address"},{"name":"id","type":"uint32","internalType":"uint32"}]}],"stateMutability":"view"},{"type":"function","name":"getAllocatedStake","inputs":[{"name":"operatorSet","type":"tuple","internalType":"struct OperatorSet","components":[{"name":"avs","type":"address","internalType":"address"},{"name":"id","type":"uint32","internalType":"uint32"}]},{"name":"operators","type":"address[]","internalType":"address[]"},{"name":"strategies","type":"address[]","internalType":"contract IStrategy[]"}],"outputs":[{"name":"","type":"uint256[][]","internalType":"uint256[][]"}],"stateMutability":"view"},{"type":"function","name":"getAllocatedStrategies","inputs":[{"name":"operator","type":"address","internalType":"address"},{"name":"operatorSet","type":"tuple","internalType":"struct OperatorSet","components":[{"name":"avs","type":"address","internalType":"address"},{"name":"id","type":"uint32","internalType":"uint32"}]}],"outputs":[{"name":"","type":"address[]","internalType":"contract IStrategy[]"}],"stateMutability":"view"},{"type":"function","name":"getAllocation","inputs":[{"name":"operator","type":"address","internalType":"address"},{"name":"operatorSet","type":"tuple","internalType":"struct OperatorSet","components":[{"name":"avs","type":"address","internalType":"address"},{"name":"id","type":"uint32","internalType":"uint32"}]},{"name":"strategy","type":"address","internalType":"contract IStrategy"}],"outputs":[{"name":"","type":"tuple","internalType":"struct IAllocationManagerTypes.Allocation","components":[{"name":"currentMagnitude","type":"uint64","internalType":"uint64"},{"name":"pendingDiff","type":"int128","internalType":"int128"},{"name":"effectBlock","type":"uint32","internalType":"uint32"}]}],"stateMutability":"view"},{"type":"function","name":"getAllocationDelay","inputs":[{"name":"operator","type":"address","internalType":"address"}],"outputs":[{"name":"","type":"bool","internalType":"bool"},{"name":"","type":"uint32","internalType":"uint32"}],"stateMutability":"view"},{"type":"function","name":"getAllocations","inputs":[{"name":"operators","type":"address[]","internalType":"address[]"},{"name":"operatorSet","type":"tuple","internalType":"struct OperatorSet","components":[{"name":"avs","type":"address","internalType":"address"},{"name":"id","type":"uint32","internalType":"uint32"}]},{"name":"strategy","type":"address","internalType":"contract IStrategy"}],"outputs":[{"name":"","type":"tuple[]","internalType":"struct IAllocationManagerTypes.Allocation[]","components":[{"name":"currentMagnitude","type":"uint64","internalType":"uint64"},{"name":"pendingDiff","type":"int128","internalType":"int128"},{"name":"effectBlock","type":"uint32","internalType":"uint32"}]}],"stateMutability":"view"},{"type":"function","name":"getEncumberedMagnitude","inputs":[{"name":"operator","type":"address","internalType":"address"},{"name":"strategy","type":"address","internalType":"contract IStrategy"}],"outputs":[{"name":"","type":"uint64","internalType":"uint64"}],"stateMutability":"view"},{"type":"function","name":"getMaxMagnitude","inputs":[{"name":"operator","type":"address","internalType":"address"},{"name":"strategy","type":"address","internalType":"contract IStrategy"}],"outputs":[{"name":"","type":"uint64","internalType":"uint64"}],"stateMutability":"view"},{"type":"function","name":"getMaxMagnitudes","inputs":[{"name":"operators","type":"address[]","internalType":"address[]"},{"name":"strategy","type":"address","internalType":"contract IStrategy"}],"outputs":[{"name":"","type":"uint64[]","internalType":"uint64[]"}],"stateMutability":"view"},{"type":"function","name":"getMaxMagnitudes","inputs":[{"name":"operator","type":"address","internalType":"address"},{"name":"strategies","type":"address[]","internalType":"contract IStrategy[]"}],"outputs":[{"name":"","type":"uint64[]","internalType":"uint64[]"}],"stateMutability":"view"},{"type":"function","name":"getMaxMagnitudesAtBlock","inputs":[{"name":"operator","type":"address","internalType":"address"},{"name":"strategies","type":"address[]","internalType":"contract IStrategy[]"},{"name":"blockNumber","type":"uint32","internalType":"uint32"}],"outputs":[{"name":"","type":"uint64[]","internalType":"uint64[]"}],"stateMutability":"view"},{"type":"function","name":"getMemberCount","inputs":[{"name":"operatorSet","type":"tuple","internalType":"struct OperatorSet","components":[{"name":"avs","type":"address","internalType":"address"},{"name":"id","type":"uint32","internalType":"uint32"}]}],"outputs":[{"name":"","type":"uint256","internalType":"uint256"}],"stateMutability":"view"},{"type":"function","name":"getMembers","inputs":[{"name":"operatorSet","type":"tuple","internalType":"struct OperatorSet","components":[{"name":"avs","type":"address","internalType":"address"},{"name":"id","type":"uint32","internalType":"uint32"}]}],"outputs":[{"name":"","type":"address[]","internalType":"address[]"}],"stateMutability":"view"},{"type":"function","name":"getMinimumSlashableStake","inputs":[{"name":"operatorSet","type":"tuple","internalType":"struct OperatorSet","components":[{"name":"avs","type":"address","internalType":"address"},{"name":"id","type":"uint32","internalType":"uint32"}]},{"name":"operators","type":"address[]","internalType":"address[]"},{"name":"strategies","type":"address[]","internalType":"contract IStrategy[]"},{"name":"futureBlock","type":"uint32","internalType":"uint32"}],"outputs":[{"name":"slashableStake","type":"uint256[][]","internalType":"uint256[][]"}],"stateMutability":"view"},{"type":"function","name":"getOperatorSetCount","inputs":[{"name":"avs","type":"address","internalType":"address"}],"outputs":[{"name":"","type":"uint256","internalType":"uint256"}],"stateMutability":"view"},{"type":"function","name":"getRegisteredSets","inputs":[{"name":"operator","type":"address","internalType":"address"}],"outputs":[{"name":"","type":"tuple[]","internalType":"struct OperatorSet[]","components":[{"name":"avs","type":"address","internalType":"address"},{"name":"id","type":"uint32","internalType":"uint32"}]}],"stateMutability":"view"},{"type":"function","name":"getStrategiesInOperatorSet","inputs":[{"name":"operatorSet","type":"tuple","internalType":"struct OperatorSet","components":[{"name":"avs","type":"address","internalType":"address"},{"name":"id","type":"uint32","internalType":"uint32"}]}],"outputs":[{"name":"","type":"address[]","internalType":"contract IStrategy[]"}],"stateMutability":"view"},{"type":"function","name":"getStrategyAllocations","inputs":[{"name":"operator","type":"address","internalType":"address"},{"name":"strategy","type":"address","internalType":"contract IStrategy"}],"outputs":[{"name":"","type":"tuple[]","internalType":"struct OperatorSet[]","components":[{"name":"avs","type":"address","internalType":"address"},{"name":"id","type":"uint32","internalType":"uint32"}]},{"name":"","type":"tuple[]","internalType":"struct IAllocationManagerTypes.Allocation[]","components":[{"name":"currentMagnitude","type":"uint64","internalType":"uint64"},{"name":"pendingDiff","type":"int128","internalType":"int128"},{"name":"effectBlock","type":"uint32","internalType":"uint32"}]}],"stateMutability":"view"},{"type":"function","name":"initialize","inputs":[{"name":"initialOwner","type":"address","internalType":"address"},{"name":"initialPausedStatus","type":"uint256","internalType":"uint256"}],"outputs":[],"stateMutability":"nonpayable"},{"type":"function","name":"isMemberOfOperatorSet","inputs":[{"name":"operator","type":"address","internalType":"address"},{"name":"operatorSet","type":"tuple","internalType":"struct OperatorSet","components":[{"name":"avs","type":"address","internalType":"address"},{"name":"id","type":"uint32","internalType":"uint32"}]}],"outputs":[{"name":"","type":"bool","internalType":"bool"}],"stateMutability":"view"},{"type":"function","name":"isOperatorSet","inputs":[{"name":"operatorSet","type":"tuple","internalType":"struct OperatorSet","components":[{"name":"avs","type":"address","internalType":"address"},{"name":"id","type":"uint32","internalType":"uint32"}]}],"outputs":[{"name":"","type":"bool","internalType":"bool"}],"stateMutability":"view"},{"type":"function","name":"isOperatorSlashable","inputs":[{"name":"operator","type":"address","internalType":"address"},{"name":"operatorSet","type":"tuple","internalType":"struct OperatorSet","components":[{"name":"avs","type":"address","internalType":"address"},{"name":"id","type":"uint32","internalType":"uint32"}]}],"outputs":[{"name":"","type":"bool","internalType":"bool"}],"stateMutability":"view"},{"type":"function","name":"modifyAllocations","inputs":[{"name":"operator","type":"address","internalType":"address"},{"name":"params","type":"tuple[]","internalType":"struct IAllocationManagerTypes.AllocateParams[]","components":[{"name":"operatorSet","type":"tuple","internalType":"struct OperatorSet","components":[{"name":"avs","type":"address","internalType":"address"},{"name":"id","type":"uint32","internalType":"uint32"}]},{"name":"strategies","type":"address[]","internalType":"contract IStrategy[]"},{"name":"newMagnitudes","type":"uint64[]","internalType":"uint64[]"}]}],"outputs":[],"stateMutability":"nonpayable"},{"type":"function","name":"owner","inputs":[],"outputs":[{"name":"","type":"address","internalType":"address"}],"stateMutability":"view"},{"type":"function","name":"pause","inputs":[{"name":"newPausedStatus","type":"uint256","internalType":"uint256"}],"outputs":[],"stateMutability":"nonpayable"},{"type":"function","name":"pauseAll","inputs":[],"outputs":[],"stateMutability":"nonpayable"},{"type":"function","name":"paused","inputs":[{"name":"index","type":"uint8","internalType":"uint8"}],"outputs":[{"name":"","type":"bool","internalType":"bool"}],"stateMutability":"view"},{"type":"function","name":"paused","inputs":[],"outputs":[{"name":"","type":"uint256","internalType":"uint256"}],"stateMutability":"view"},{"type":"function","name":"pauserRegistry","inputs":[],"outputs":[{"name":"","type":"address","internalType":"contract IPauserRegistry"}],"stateMutability":"view"},{"type":"function","name":"permissionController","inputs":[],"outputs":[{"name":"","type":"address","internalType":"contract IPermissionController"}],"stateMutability":"view"},{"type":"function","name":"registerForOperatorSets","inputs":[{"name":"operator","type":"address","internalType":"address"},{"name":"params","type":"tuple","internalType":"struct IAllocationManagerTypes.RegisterParams","components":[{"name":"avs","type":"address","internalType":"address"},{"name":"operatorSetIds","type":"uint32[]","internalType":"uint32[]"},{"name":"data","type":"bytes","internalType":"bytes"}]}],"outputs":[],"stateMutability":"nonpayable"},{"type":"function","name":"removeStrategiesFromOperatorSet","inputs":[{"name":"avs","type":"address","internalType":"address"},{"name":"operatorSetId","type":"uint32","internalType":"uint32"},{"name":"strategies","type":"address[]","internalType":"contract IStrategy[]"}],"outputs":[],"stateMutability":"nonpayable"},{"type":"function","name":"renounceOwnership","inputs":[],"outputs":[],"stateMutability":"nonpayable"},{"type":"function","name":"setAVSRegistrar","inputs":[{"name":"avs","type":"address","internalType":"address"},{"name":"registrar","type":"address","internalType":"contract IAVSRegistrar"}],"outputs":[],"stateMutability":"nonpayable"},{"type":"function","name":"setAllocationDelay","inputs":[{"name":"operator","type":"address","internalType":"address"},{"name":"delay","type":"uint32","internalType":"uint32"}],"outputs":[],"stateMutability":"nonpayable"},{"type":"function","name":"slashOperator","inputs":[{"name":"avs","type":"address","internalType":"address"},{"name":"params","type":"tuple","internalType":"struct IAllocationManagerTypes.SlashingParams","components":[{"name":"operator","type":"address","internalType":"address"},{"name":"operatorSetId","type":"uint32","internalType":"uint32"},{"name":"strategies","type":"address[]","internalType":"contract IStrategy[]"},{"name":"wadsToSlash","type":"uint256[]","internalType":"uint256[]"},{"name":"description","type":"string","internalType":"string"}]}],"outputs":[],"stateMutability":"nonpayable"},{"type":"function","name":"transferOwnership","inputs":[{"name":"newOwner","type":"address","internalType":"address"}],"outputs":[],"stateMutability":"nonpayable"},{"type":"function","name":"unpause","inputs":[{"name":"newPausedStatus","type":"uint256","internalType":"uint256"}],"outputs":[],"stateMutability":"nonpayable"},{"type":"function","name":"updateAVSMetadataURI","inputs":[{"name":"avs","type":"address","internalType":"address"},{"name":"metadataURI","type":"string","internalType":"string"}],"outputs":[],"stateMutability":"nonpayable"},{"type":"function","name":"version","inputs":[],"outputs":[{"name":"","type":"string","internalType":"string"}],"stateMutability":"view"},{"type":"event","name":"AVSMetadataURIUpdated","inputs":[{"name":"avs","type":"address","indexed":true,"internalType":"address"},{"name":"metadataURI","type":"string","indexed":false,"internalType":"string"}],"anonymous":false},{"type":"event","name":"AVSRegistrarSet","inputs":[{"name":"avs","type":"address","indexed":false,"internalType":"address"},{"name":"registrar","type":"address","indexed":false,"internalType":"contract IAVSRegistrar"}],"anonymous":false},{"type":"event","name":"AllocationDelaySet","inputs":[{"name":"operator","type":"address","indexed":false,"internalType":"address"},{"name":"delay","type":"uint32","indexed":false,"internalType":"uint32"},{"name":"effectBlock","type":"uint32","indexed":false,"internalType":"uint32"}],"anonymous":false},{"type":"event","name":"AllocationUpdated","inputs":[{"name":"operator","type":"address","indexed":false,"internalType":"address"},{"name":"operatorSet","type":"tuple","indexed":false,"internalType":"struct OperatorSet","components":[{"name":"avs","type":"address","internalType":"address"},{"name":"id","type":"uint32","internalType":"uint32"}]},{"name":"strategy","type":"address","indexed":false,"internalType":"contract IStrategy"},{"name":"magnitude","type":"uint64","indexed":false,"internalType":"uint64"},{"name":"effectBlock","type":"uint32","indexed":false,"internalType":"uint32"}],"anonymous":false},{"type":"event","name":"EncumberedMagnitudeUpdated","inputs":[{"name":"operator","type":"address","indexed":false,"internalType":"address"},{"name":"strategy","type":"address","indexed":false,"internalType":"contract IStrategy"},{"name":"encumberedMagnitude","type":"uint64","indexed":false,"internalType":"uint64"}],"anonymous":false},{"type":"event","name":"Initialized","inputs":[{"name":"version","type":"uint8","indexed":false,"internalType":"uint8"}],"anonymous":false},{"type":"event","name":"MaxMagnitudeUpdated","inputs":[{"name":"operator","type":"address","indexed":false,"internalType":"address"},{"name":"strategy","type":"address","indexed":false,"internalType":"contract IStrategy"},{"name":"maxMagnitude","type":"uint64","indexed":false,"internalType":"uint64"}],"anonymous":false},{"type":"event","name":"OperatorAddedToOperatorSet","inputs":[{"name":"operator","type":"address","indexed":true,"internalType":"address"},{"name":"operatorSet","type":"tuple","indexed":false,"internalType":"struct OperatorSet","components":[{"name":"avs","type":"address","internalType":"address"},{"name":"id","type":"uint32","internalType":"uint32"}]}],"anonymous":false},{"type":"event","name":"OperatorRemovedFromOperatorSet","inputs":[{"name":"operator","type":"address","indexed":true,"internalType":"address"},{"name":"operatorSet","type":"tuple","indexed":false,"internalType":"struct OperatorSet","components":[{"name":"avs","type":"address","internalType":"address"},{"name":"id","type":"uint32","internalType":"uint32"}]}],"anonymous":false},{"type":"event","name":"OperatorSetCreated","inputs":[{"name":"operatorSet","type":"tuple","indexed":false,"internalType":"struct OperatorSet","components":[{"name":"avs","type":"address","internalType":"address"},{"name":"id","type":"uint32","internalType":"uint32"}]}],"anonymous":false},{"type":"event","name":"OperatorSlashed","inputs":[{"name":"operator","type":"address","indexed":false,"internalType":"address"},{"name":"operatorSet","type":"tuple","indexed":false,"internalType":"struct OperatorSet","components":[{"name":"avs","type":"address","internalType":"address"},{"name":"id","type":"uint32","internalType":"uint32"}]},{"name":"strategies","type":"address[]","indexed":false,"internalType":"contract IStrategy[]"},{"name":"wadSlashed","type":"uint256[]","indexed":false,"internalType":"uint256[]"},{"name":"description","type":"string","indexed":false,"internalType":"string"}],"anonymous":false},{"type":"event","name":"OwnershipTransferred","inputs":[{"name":"previousOwner","type":"address","indexed":true,"internalType":"address"},{"name":"newOwner","type":"address","indexed":true,"internalType":"address"}],"anonymous":false},{"type":"event","name":"Paused","inputs":[{"name":"account","type":"address","indexed":true,"internalType":"address"},{"name":"newPausedStatus","type":"uint256","indexed":false,"internalType":"uint256"}],"anonymous":false},{"type":"event","name":"StrategyAddedToOperatorSet","inputs":[{"name":"operatorSet","type":"tuple","indexed":false,"internalType":"struct OperatorSet","components":[{"name":"avs","type":"address","internalType":"address"},{"name":"id","type":"uint32","internalType":"uint32"}]},{"name":"strategy","type":"address","indexed":false,"internalType":"contract IStrategy"}],"anonymous":false},{"type":"event","name":"StrategyRemovedFromOperatorSet","inputs":[{"name":"operatorSet","type":"tuple","indexed":false,"internalType":"struct OperatorSet","components":[{"name":"avs","type":"address","internalType":"address"},{"name":"id","type":"uint32","internalType":"uint32"}]},{"name":"strategy","type":"address","indexed":false,"internalType":"contract IStrategy"}],"anonymous":false},{"type":"event","name":"Unpaused","inputs":[{"name":"account","type":"address","indexed":true,"internalType":"address"},{"name":"newPausedStatus","type":"uint256","indexed":false,"internalType":"uint256"}],"anonymous":false},{"type":"error","name":"AlreadyMemberOfSet","inputs":[]},{"type":"error","name":"CurrentlyPaused","inputs":[]},{"type":"error","name":"Empty","inputs":[]},{"type":"error","name":"InputAddressZero","inputs":[]},{"type":"error","name":"InputArrayLengthMismatch","inputs":[]},{"type":"error","name":"InsufficientMagnitude","inputs":[]},{"type":"error","name":"InvalidAVSRegistrar","inputs":[]},{"type":"error","name":"InvalidCaller","inputs":[]},{"type":"error","name":"InvalidNewPausedStatus","inputs":[]},{"type":"error","name":"InvalidOperator","inputs":[]},{"type":"error","name":"InvalidOperatorSet","inputs":[]},{"type":"error","name":"InvalidPermissions","inputs":[]},{"type":"error","name":"InvalidShortString","inputs":[]},{"type":"error","name":"InvalidSnapshotOrdering","inputs":[]},{"type":"error","name":"InvalidWadToSlash","inputs":[]},{"type":"error","name":"ModificationAlreadyPending","inputs":[]},{"type":"error","name":"NonexistentAVSMetadata","inputs":[]},{"type":"error","name":"NotMemberOfSet","inputs":[]},{"type":"error","name":"OnlyPauser","inputs":[]},{"type":"error","name":"OnlyUnpauser","inputs":[]},{"type":"error","name":"OperatorNotSlashable","inputs":[]},{"type":"error","name":"OutOfBounds","inputs":[]},{"type":"error","name":"SameMagnitude","inputs":[]},{"type":"error","name":"StrategiesMustBeInAscendingOrder","inputs":[]},{"type":"error","name":"StrategyAlreadyInOperatorSet","inputs":[]},{"type":"error","name":"StrategyNotInOperatorSet","inputs":[]},{"type":"error","name":"StringTooLong","inputs":[{"name":"str","type":"string","internalType":"string"}]},{"type":"error","name":"UninitializedAllocationDelay","inputs":[]}],"bytecode":{"object":"0x610140604052346102af576156a38038038061001a816102c7565b92833981019060c0818303126102af5780516001600160a01b03811681036102af5760208201516001600160a01b03811692908381036102af576040820151926001600160a01b03841684036102af57610076606084016102ec565b91610083608085016102ec565b60a085015190946001600160401b0382116102af57019587601f880112156102af5786516001600160401b0381116102b3576100c8601f8201601f19166020016102c7565b978189526020890199602083830101116102af57815f9260208093018c5e89010152156102a05760805260a05260c05260e05261010052601f8151116102645751905160208210610254575b17610120525f5460ff8160081c166101ff5760ff808216036101c5575b6040516153a590816102fe823960805181818161058e01528181611b89015281816121b50152612e43015260a051818181610e4801528181611aa90152818161270201528181612d3501526140ff015260c051818181610a3201528181611d26015261378b015260e05181818161217c01526149260152610100518181816116160152613f12015261012051816119f50152f35b60ff90811916175f557f7f26b83ff96e1f2b6a682f133852f6798a09c465da95921460cefb3847402498602060405160ff8152a15f610131565b60405162461bcd60e51b815260206004820152602760248201527f496e697469616c697a61626c653a20636f6e747261637420697320696e697469604482015266616c697a696e6760c81b6064820152608490fd5b5f198260200360031b1b16610114565b60449060405192839163305a27a960e01b8352602060048401525180918160248501528484015e5f828201840152601f01601f19168101030190fd5b6339b190bb60e11b5f5260045ffd5b5f80fd5b634e487b7160e01b5f52604160045260245ffd5b6040519190601f01601f191682016001600160401b038111838210176102b357604052565b519063ffffffff821682036102af5756fe60806040526004361015610011575f80fd5b5f3560e01c806310e1b9b8146103245780631352c3e61461031f578063136439dd1461031a57806315fe502814610315578063260dc75814610310578063261f84e01461030b5780632981eb77146103065780632b453a9a146103015780632bab2c4a146102fc578063304c10cd146102f757806336352057146102f257806340120dab146102ed5780634177a87c146102e85780634657e26a146102e35780634a10ffe5146102de5780634b5046ef146102d957806350feea20146102d4578063547afb87146102cf57806354fd4d50146102ca57806356c483e6146102c5578063595c6a67146102c05780635ac86ab7146102bb5780635c975abb146102b6578063670d3ba2146102b15780636cfb4481146102ac5780636e3492b5146102a75780636e875dba146102a2578063715018a61461029d57806379ae50cd146102985780637bc1ef6114610293578063886f11951461028e5780638ce64854146102895780638da5cb5b1461028457806394d7d00c1461027f578063952899ee1461027a578063a9333ec814610275578063a982182114610270578063adc2e3d91461026b578063b2447af714610266578063b66bd98914610261578063b9fbaed11461025c578063ba1a84e514610257578063c221d8ae14610252578063cd6dc6871461024d578063d3d96ff414610248578063df5cf72314610243578063f2fde38b1461023e578063f605ce08146102395763fabc1cbc14610234575f80fd5b612e1a565b612df5565b612d64565b612d20565b612bf5565b612b07565b612a76565b612a3b565b6129fe565b612926565b6128f3565b612681565b61261a565b6125c6565b612448565b6122d2565b6122aa565b6121f5565b6121a0565b612160565b6120d4565b612079565b612000565b611cb2565b611c78565b611c21565b611c04565b611bd1565b611b5e565b611a7e565b6119e3565b611955565b611834565b611724565b611687565b611601565b611583565b611489565b610cf9565b610cc0565b610bd9565b610b5e565b610a16565b6107a5565b610723565b610687565b61055e565b610523565b61049c565b6001600160a01b0381160361033a57565b5f80fd5b634e487b7160e01b5f52604160045260245ffd5b604081019081106001600160401b0382111761036d57604052565b61033e565b606081019081106001600160401b0382111761036d57604052565b608081019081106001600160401b0382111761036d57604052565b90601f801991011681019081106001600160401b0382111761036d57604052565b604051906103d86040836103a8565b565b63ffffffff81160361033a57565b604090602319011261033a576040519061040182610352565b8160243561040e81610329565b815260206044359161041f836103da565b0152565b604090600319011261033a576040519061043c82610352565b8160043561044981610329565b815260206024359161041f836103da565b919082604091031261033a5760405161047281610352565b6020808294803561048281610329565b845201359161041f836103da565b6001600160401b031690565b3461033a57608036600319011261033a5760606104ec6004356104be81610329565b6104c7366103e8565b906104e6606435926104d884610329565b6104e0612ede565b50613c40565b90613cdb565b9050610521604051809263ffffffff604080926001600160401b0381511685526020810151600f0b6020860152015116910152565bf35b3461033a57606036600319011261033a57602061055460043561054581610329565b61054e366103e8565b90612f11565b6040519015158152f35b3461033a57602036600319011261033a5760043560405163237dfb4760e11b8152336004820152906020826024817f00000000000000000000000000000000000000000000000000000000000000006001600160a01b03165afa918215610619576105e8926105d4915f916105ea575b50612fa1565b6105e360665482811614612fb7565b613e6d565b005b61060c915060203d602011610612575b61060481836103a8565b810190612f7e565b5f6105ce565b503d6105fa565b612f96565b90602080835192838152019201905f5b81811061063b5750505090565b9091926020604082610668600194885163ffffffff6020809260018060a01b038151168552015116910152565b01940192910161062e565b90602061068492818152019061061e565b90565b3461033a57602036600319011261033a576004356106a481610329565b6001600160a01b03165f818152609d60205260409020546106c481612fe5565b915f5b8281106106e057604051806106dc8682610673565b0390f35b600190825f52609d6020526107076106fb8260405f20614d29565b90549060031b1c613e9f565b6107118287613048565b5261071c8186613048565b50016106c7565b3461033a57604036600319011261033a57602061055461074236610423565b80516001600160a01b03165f9081526098845260408082209285015163ffffffff16825260019092016020522054151590565b9181601f8401121561033a578235916001600160401b03831161033a576020808501948460051b01011161033a57565b3461033a57604036600319011261033a576004356107c281610329565b6024356001600160401b03811161033a576107e1903690600401610775565b906107f36107ee84613ec9565b613061565b6001600160a01b0383165f90815260a46020526040902061081f9061081a905b5460ff1690565b613077565b5f915b80831061082b57005b61083e61083984838561308d565b6130af565b907f31629285ead2335ae0933f86ed2ae63321f7af77b4e6eaabc42c057880977e6c6109076108d661086e6103c9565b6001600160a01b03891681529463ffffffff16602086019081526001600160a01b0389165f9081526098602052604090206108cc906108c7906108c16108b8855163ffffffff1690565b63ffffffff1690565b90614d5b565b6130b9565b5163ffffffff1690565b6108fb6108e16103c9565b6001600160a01b038a1681529163ffffffff166020830152565b604051918291826130cf565b0390a161091382613c40565b925f5b61092e61092487858561308d565b60208101906130f5565b90508110156109fc57806109858761097f61097361096e6001966109686109246109608e5f52609960205260405f2090565b968c8c61308d565b9061312a565b61313a565b6001600160a01b031690565b90613f5e565b507f7ab260fe0af193db5f4986770d831bda4ea46099dc817e8b6716dcae8af8e88b6109f36109bf61096e846109686109248d8b8b61308d565b6040805189516001600160a01b0390811682526020808c015163ffffffff1690830152909216908201529081906060820190565b0390a101610916565b5060019094019392509050610822565b5f91031261033a57565b3461033a575f36600319011261033a57602060405163ffffffff7f0000000000000000000000000000000000000000000000000000000000000000168152f35b6001600160401b03811161036d5760051b60200190565b9080601f8301121561033a578135610a8481610a56565b92610a9260405194856103a8565b81845260208085019260051b82010192831161033a57602001905b828210610aba5750505090565b602080918335610ac981610329565b815201910190610aad565b602081016020825282518091526040820191602060408360051b8301019401925f915b838310610b0657505050505090565b9091929394603f19828203018352855190602080835192838152019201905f905b808210610b465750505060208060019297019301930191939290610af7565b90919260208060019286518152019401920190610b27565b3461033a57608036600319011261033a57610b7836610423565b6044356001600160401b03811161033a57610b97903690600401610a6d565b90606435906001600160401b03821161033a576106dc92610bbf610bcd933690600401610a6d565b9063ffffffff4316926140cd565b60405191829182610ad4565b3461033a5760a036600319011261033a57610bf336610423565b6044356001600160401b03811161033a57610c12903690600401610a6d565b6064356001600160401b03811161033a57610c31903690600401610a6d565b90610c49608435610c41816103da565b8383866140cd565b925f5b8251811015610cb257610c72826001600160a01b03610c6b8487613048565b5116612f11565b15610c80575b600101610c4c565b915f5b8451811015610cab57805f610ca4600193610c9e888b613048565b51613048565b5201610c83565b5091610c78565b604051806106dc8782610ad4565b3461033a57602036600319011261033a576020610ce7600435610ce281610329565b613144565b6040516001600160a01b039091168152f35b3461033a57604036600319011261033a57600435610d1681610329565b6024356001600160401b03811161033a5760a0600319823603011261033a57610d4c610d46600280606654161490565b15613169565b610d586107ee83613ec9565b610e0f6108c7610d6a602484016130af565b610d84610d756103c9565b6001600160a01b039096168652565b63ffffffff1660208501908152610dbf610da460448601866004016130f5565b9050610db660648701876004016130f5565b9190501461317f565b8451610dfb906108b890610df0906001600160a01b03165b6001600160a01b03165f90815260986020526040902090565b925163ffffffff1690565b906001915f520160205260405f2054151590565b610e2c610e2783610e228460040161313a565b612f11565b613195565b610e46610e3f60448301836004016130f5565b90506131ab565b7f00000000000000000000000000000000000000000000000000000000000000006001600160a01b031691905f5b610e8460448401846004016130f5565b9050811015611371578015801561130f575b610e9f906131ff565b610eb38161096860648601866004016130f5565b351515806112e4575b610ec590613215565b610f23610f1e610ee5610ed788613c40565b5f52609960205260405f2090565b610eff61097361096e8661096860448b018b6004016130f5565b6001600160a01b03165f90815260019091016020526040902054151590565b61322b565b610f58610f328460040161313a565b610f3b87613c40565b610f5261096e8561096860448a018a6004016130f5565b91613cdb565b9190610f6e61049084516001600160401b031690565b80156112d957610fb76104907f1487af5418c47ee5ea45ef4a93398668120890774a9e13487e61e9dc3baf76dd92610fb08661096860648c018c6004016130f5565b35906142d6565b93611069610fcc84516001600160401b031690565b95610fe96001600160401b0388166001600160401b038316614e9b565b610ff3878a613048565b5261101e6110118261100c86516001600160401b031690565b613241565b6001600160401b03168452565b6110436110368261100c88516001600160401b031690565b6001600160401b03168652565b61105c602086019161100c83516001600160401b031690565b6001600160401b03169052565b866110786020830151600f0b90565b855f61108483600f0b90565b12611200575b8391508b836110c061096e89946109686110b26110ac6110c69a60040161313a565b96613c40565b9460448101906004016130f5565b91614389565b6110d28760040161313a565b906111146110fe6110f061096e8861096860448e0160048f016130f5565b92516001600160401b031690565b926040519384938d63ffffffff431693866132a7565b0390a161114e6111268660040161313a565b61113d61096e8561096860448b018b6004016130f5565b83516001600160401b0316916145f2565b61115a8560040161313a565b9061118361117561096e8561096860448b018b6004016130f5565b91516001600160401b031690565b91873b1561033a5760405163601bb36f60e01b81526001600160a01b039182166004820152911660248201526001600160401b039384166044820152921660648301525f8260848183895af1918215610619576001926111e6575b505b01610e74565b806111f45f6111fa936103a8565b80610a0c565b5f6111de565b61124361049061049061126995610fb06112529561096861123561122961122961125f9b613261565b6001600160801b031690565b9360648101906004016130f5565b6001600160801b0316600f0b90565b6020840151600f0b613281565b600f0b6020830152565b8189886112ce61129361096e896109686112858660040161313a565b9560448101906004016130f5565b6112b66112a787516001600160401b031690565b6020880151600f0b5b90614302565b604087015163ffffffff1691604051958695866132a7565b0390a1865f8561108a565b5050600191506111e0565b50610ec5670de0b6b3a76400006113058361096860648801886004016130f5565b3511159050610ebc565b50610e9f61133061097361097361096e8561096860448a018a6004016130f5565b61135e61097361097361097361096e61134f60448b018b6004016130f5565b6113588a6131f1565b9161312a565b6001600160a01b03909116119050610e96565b7f80969ad29428d6797ee7aad084f9e4a42a82fc506dcd2ca3b6fb431f85ccebe585836113d76113c8876113a78160040161313a565b936113b860448301836004016130f5565b93909260848101906004016132f8565b9390926040519788978861334a565b0390a1005b604090600319011261033a576004356113f481610329565b9060243561068481610329565b90602080835192838152019201905f5b81811061141e5750505090565b9091926020606082611459600194885163ffffffff604080926001600160401b0381511685526020810151600f0b6020860152015116910152565b019401929101611411565b909161147b6106849360408452604084019061061e565b916020818403910152611401565b3461033a57611497366113dc565b6001600160a01b0382165f818152609d60205260409020549092916114bb82612fe5565b926114c583613415565b945f5b8481106114de57604051806106dc898983611464565b600190825f52609d60205261151a856114fd6106fb8460405f20614d29565b80611508858c613048565b52611513848b613048565b5086612efc565b611524828a613048565b5261152f8189613048565b50016114c8565b90602080835192838152019201905f5b8181106115535750505090565b82516001600160a01b0316845260209384019390920191600101611546565b906020610684928181520190611536565b3461033a57604036600319011261033a576115a56115a036610423565b613c40565b5f52609960205260405f206040519081602082549182815201915f5260205f20905f5b8181106115eb576106dc856115df818703826103a8565b60405191829182611572565b82548452602090930192600192830192016115c8565b3461033a575f36600319011261033a576040517f00000000000000000000000000000000000000000000000000000000000000006001600160a01b03168152602090f35b60206040818301928281528451809452019201905f5b8181106116685750505090565b82516001600160401b031684526020938401939092019160010161165b565b3461033a57604036600319011261033a576004356001600160401b03811161033a576116b7903690600401610a6d565b602435906116c482610329565b6116ce81516131ab565b915f5b8251811015611716576001906116fa836001600160a01b036116f38488613048565b5116613984565b6001600160401b0361170c8388613048565b91169052016116d1565b604051806106dc8682611645565b3461033a57606036600319011261033a5760043561174181610329565b6024356001600160401b03811161033a57611760903690600401610775565b90916044356001600160401b03811161033a57611781903690600401610775565b929093611795610d46600180606654161490565b6117a084831461317f565b5f5b8281106117ab57005b6117b681848461312a565b35906117c182610329565b6117cc81878961312a565b359161ffff8316830361033a576001926117e691876147ae565b016117a2565b606060031982011261033a5760043561180481610329565b91602435611811816103da565b91604435906001600160401b03821161033a5761183091600401610775565b9091565b3461033a57611842366117ec565b916118516107ee859395613ec9565b6118aa6108c76040519261186484610352565b6001600160a01b038516845263ffffffff1660208401908152610dfb6108b8610df061188f87613c40565b6001600160a01b039098165f90815260986020526040902090565b5f5b8381106118b557005b6001906118e66118e16118d0865f52609960205260405f2090565b61097f61097361096e868b8d61312a565b613464565b7f7ab260fe0af193db5f4986770d831bda4ea46099dc817e8b6716dcae8af8e88b61194c61191861096e84898b61312a565b6040805187516001600160a01b0390811682526020808a015163ffffffff1690830152909216908201529081906060820190565b0390a1016118ac565b3461033a57604036600319011261033a5760043561197281610329565b6024356001600160401b03811161033a57611991903690600401610a6d565b61199b81516131ab565b915f5b8251811015611716576001906119c76001600160a01b036119bf8387613048565b511684613984565b6001600160401b036119d98388613048565b911690520161199e565b3461033a575f36600319011261033a577f000000000000000000000000000000000000000000000000000000000000000060ff811690601f8211611a6f576040805191611a3082846103a8565b6020808452830193601f198301368637835283528051928392602084525180918160208601528385015e5f838201830152601f01601f19168201010390f35b632cd44ac360e21b5f5260045ffd5b3461033a57604036600319011261033a57600435611a9b81610329565b602435611aa7816103da565b7f00000000000000000000000000000000000000000000000000000000000000006001600160a01b03169133839003611ae5575b6105e89250614898565b6020602493611afb611af684613ec9565b61347a565b6040516336b87bd760e11b81526001600160a01b038416600482015294859182905afa928315610619576105e893611b3a915f91611b3f575b50613490565b611adb565b611b58915060203d6020116106125761060481836103a8565b5f611b34565b3461033a575f36600319011261033a5760405163237dfb4760e11b81523360048201526020816024817f00000000000000000000000000000000000000000000000000000000000000006001600160a01b03165afa801561061957611bc9915f916105ea5750612fa1565b6105e8613e39565b3461033a57602036600319011261033a5760043560ff811680910361033a5760016020911b806066541614604051908152f35b3461033a575f36600319011261033a576020606654604051908152f35b3461033a57606036600319011261033a576020610554600435611c4381610329565b611c4f6115a0366103e8565b5f908152609a845260408082206001600160a01b03909316825260019092016020522054151590565b3461033a576020611c91611c8b366113dc565b90614a51565b90506001600160401b0360405191168152f35b9081606091031261033a5790565b3461033a57602036600319011261033a576004356001600160401b03811161033a57611ce2903690600401611ca4565b611cf3610d46600480606654161490565b611d04611cff8261313a565b613ec9565b8015611f99575b611d149061347a565b6020810190604081014363ffffffff167f00000000000000000000000000000000000000000000000000000000000000005f5b611d5184866130f5565b9050811015611f205780611f1a86611dbe6108c78a610dfb6108b8610df0610dd7611d8f6108398f9c61096860019e611d898a61313a565b9c6130f5565b94611daa611d9b6103c9565b6001600160a01b03909a168a52565b61096e60208a0196879063ffffffff169052565b611e06611e01610813611dec611dd38c61313a565b6001600160a01b03165f908152609e6020526040902090565b611df585613c40565b5f5260205260405f2090565b6134a6565b611e3d611e2e611e158a61313a565b6001600160a01b03165f908152609c6020526040902090565b611e3783613c40565b90615137565b50611e6a611e5b611e4d83613c40565b5f52609a60205260405f2090565b611e648a61313a565b90614b5f565b50611e776109738961313a565b7fad34c3070be1dffbcaa499d000ba2b8d9848aefcac3059df245dd95c4ece14fe60405180611ea685826130cf565b0390a2611ee9611eb686886134d4565b91611ed4611ec26103c9565b5f815263ffffffff9094166020850152565b611df5611ee3611dd38c61313a565b91613c40565b906020908051151560ff80198554169116178355015164ffffffff0082549160081b169064ffffffff001916179055565b01611d47565b838686611f4e611f35610973610ce28561313a565b93611f48611f428461313a565b9461313a565b926130f5565b939091813b1561033a575f8094611f7b6040519788968795869463181e54ab60e11b86526004860161352e565b03925af1801561061957611f8b57005b806111f45f6105e8936103a8565b50611d14611fac611cff6020840161313a565b9050611d0b565b90602080835192838152019201905f5b818110611fd05750505090565b82516001600160a01b0316845260209384019390920191600101611fc3565b906020610684928181520190611fb3565b3461033a57604036600319011261033a5761201d6115a036610423565b5f52609a60205260405f206040519081602082549182815201915f5260205f20905f5b818110612063576106dc85612057818703826103a8565b60405191829182611fef565b8254845260209093019260019283019201612040565b3461033a575f36600319011261033a57612091614b72565b603380546001600160a01b031981169091555f906001600160a01b03167f8be0079c531659141344cd1fd0a4f28419497f9722a3daafe3b4186f6b6457e08280a3005b3461033a57602036600319011261033a576004356120f181610329565b6001600160a01b03165f818152609c602052604090205461211181612fe5565b915f5b82811061212957604051806106dc8682610673565b600190825f52609c6020526121446106fb8260405f20614d29565b61214e8287613048565b526121598186613048565b5001612114565b3461033a575f36600319011261033a57602060405163ffffffff7f0000000000000000000000000000000000000000000000000000000000000000168152f35b3461033a575f36600319011261033a576040517f00000000000000000000000000000000000000000000000000000000000000006001600160a01b03168152602090f35b906020610684928181520190611401565b3461033a57608036600319011261033a576004356001600160401b03811161033a57612225903690600401610a6d565b61222e366103e8565b9060643561223b81610329565b6122458251613415565b925f5b835181101561229c5760019061227e846001600160a01b0361226a8489613048565b5116612274612ede565b506104e686613c40565b905061228a8288613048565b526122958187613048565b5001612248565b604051806106dc87826121e4565b3461033a575f36600319011261033a576033546040516001600160a01b039091168152602090f35b3461033a57606036600319011261033a576004356122ef81610329565b6024356001600160401b03811161033a5761230e903690600401610a6d565b9060443561231b816103da565b61232583516131ab565b925f926001600160a01b03169163ffffffff16905b805184101561243a575f83815260a16020526040902061237c906001600160a01b036123668785613048565b511660018060a01b03165f5260205260405f2090565b938454945f955b8087106123f2576001939495965080155f146123ca57506123c19050670de0b6b3a76400005b6123b38389613048565b906001600160401b03169052565b0192919061233a565b6104906123eb6123c1936123e06123a9946131f1565b905f5260205f200190565b5460201c90565b8087169080881860011c820180921161243557825f528563ffffffff8360205f20015416115f146124265750955b95612383565b96506001810180911115612420575b6131dd565b604051806106dc8782611645565b3461033a57604036600319011261033a5760043561246581610329565b6024356001600160401b03811161033a573660238201121561033a5780600401359161249083610a56565b9161249e60405193846103a8565b8383526024602084019460051b8201019036821161033a5760248101945b8286106124cd576105e88585613557565b85356001600160401b03811161033a5782016080602319823603011261033a57604051906124fa82610372565b612507366024830161045a565b825260648101356001600160401b03811161033a5761252c9060243691840101610a6d565b602083015260848101356001600160401b03811161033a57602491010136601f8201121561033a57803561255f81610a56565b9161256d60405193846103a8565b81835260208084019260051b8201019036821161033a57602001915b8183106125a65750505060408201528152602095860195016124bc565b82356001600160401b038116810361033a57815260209283019201612589565b3461033a5760206126096126046125dc366113dc565b6001600160a01b039182165f90815260a1865260408082209290931681526020919091522090565b614ced565b6001600160401b0360405191168152f35b3461033a57604036600319011261033a5760043561263781610329565b602435906001600160401b03821161033a573660238301121561033a578160040135906001600160401b03821161033a57366024838501011161033a5760246105e89301906139b3565b3461033a57604036600319011261033a5760043561269e81610329565b6024356001600160401b03811161033a576126bd903690600401611ca4565b6126ce610d46600480606654161490565b6126da6107ee83613ec9565b6040516336b87bd760e11b81526001600160a01b0383166004820152602081806024810103817f00000000000000000000000000000000000000000000000000000000000000006001600160a01b03165afa801561061957612742915f91611b3f5750613490565b60208101916001600160a01b03811691905f5b61275f85846130f5565b905081101561288f578061288961287c876127d56108c761279261083960019861096861278b8d61313a565b968d6130f5565b6127ac61279d6103c9565b6001600160a01b039095168552565b63ffffffff16602084019081528351610dfb906108b890610df0906001600160a01b0316610dd7565b6127ee6127e96127e58389612f11565b1590565b613a3d565b6001600160a01b0386165f908152609c60205260409020612812906108c183613c40565b5061282886612823611e4d84613c40565b613f5e565b50877f43232edf9071753d2321e5fa7e018363ee248e5f2142e6c08edd3265bfb4895e6040518061285985826130cf565b0390a26001600160a01b0386165f908152609e60205260409020611df590611ee3565b805460ff19166001179055565b01612755565b506128c591846128a4610973610ce28461313a565b906128b86128b18461313a565b91846130f5565b95909360408101906132f8565b9094833b1561033a57611f7b5f96928793604051998a988997889663631fea8160e11b885260048801613a53565b3461033a57604036600319011261033a576129106115a036610423565b5f52609a602052602060405f2054604051908152f35b3461033a576108c761298261293a366117ec565b939161294b6107ee85979397613ec9565b610dfb6108b8610df06040519661296188610352565b6001600160a01b038116885263ffffffff9094166020880190815293610dd7565b61298b81613c40565b905f5b83811061299757005b6001906129c3610f1e6129b2865f52609960205260405f2090565b611e6461097361096e868b8d61312a565b7f7b4b073d80dcac55a11177d8459ad9f664ceeb91f71f27167bb14f8152a7eeee6129f561191861096e84898b61312a565b0390a10161298e565b3461033a57602036600319011261033a57604063ffffffff612a2a600435612a2581610329565b613ad4565b835191151582529091166020820152f35b3461033a57602036600319011261033a57600435612a5881610329565b60018060a01b03165f526098602052602060405f2054604051908152f35b3461033a57606036600319011261033a57600435612a9381610329565b612a9c366103e8565b9060018060a01b03165f52609f602052612ab960405f2091613c40565b5f5260205260405f206040519081602082549182815201915f5260205f20905f5b818110612af1576106dc856115df818703826103a8565b8254845260209093019260019283019201612ada565b3461033a57604036600319011261033a57600435612b2481610329565b612b696024355f5492612b4f60ff600886901c161580958196612be7575b8115612bc7575b50613b89565b83612b60600160ff195f5416175f55565b612bb057613bec565b612b6f57005b612b7d61ff00195f54165f55565b604051600181527f7f26b83ff96e1f2b6a682f133852f6798a09c465da95921460cefb38474024989080602081016113d7565b612bc261010061ff00195f5416175f55565b613bec565b303b15915081612bd9575b505f612b49565b60ff1660011490505f612bd2565b600160ff8216109150612b42565b3461033a57604036600319011261033a57600435612c1281610329565b60243590612c1f82610329565b612c2b6107ee82613ec9565b60405163b526578760e01b81526001600160a01b0382811660048301526020908290602490829087165afa908115610619575f91612d01575b5015612cf2576001600160a01b0381165f9081526097602052604090207f2ae945c40c44dc0ec263f95609c3fdc6952e0aefa22d6374e44f2c997acedf8592612cc69180546001600160a01b0319166001600160a01b03909216919091179055565b612ccf81613144565b604080516001600160a01b039384168152929091166020830152819081016113d7565b631d0b13c160e31b5f5260045ffd5b612d1a915060203d6020116106125761060481836103a8565b5f612c64565b3461033a575f36600319011261033a576040517f00000000000000000000000000000000000000000000000000000000000000006001600160a01b03168152602090f35b3461033a57602036600319011261033a57600435612d8181610329565b612d89614b72565b6001600160a01b03811615612da1576105e890614bca565b60405162461bcd60e51b815260206004820152602660248201527f4f776e61626c653a206e6577206f776e657220697320746865207a65726f206160448201526564647265737360d01b6064820152608490fd5b3461033a576020612e08611c8b366113dc565b506001600160401b0360405191168152f35b3461033a57602036600319011261033a5760043560405163755b36bd60e11b81526020816004817f00000000000000000000000000000000000000000000000000000000000000006001600160a01b03165afa908115610619575f91612ea3575b506001600160a01b03163303612e94576105e890613bfd565b63794821ff60e01b5f5260045ffd5b90506020813d602011612ed6575b81612ebe602093836103a8565b8101031261033a5751612ed081610329565b5f612e7b565b3d9150612eb1565b60405190612eeb82610372565b5f6040838281528260208201520152565b6104e6612f0c93926104e0612ede565b905090565b6001600160a01b03165f908152609e6020526040902090612f3190613c40565b5f52602052602060405f2060405190612f4982610352565b549063ffffffff60ff831615159283835260081c1692839101521515908115612f70575090565b63ffffffff16431115919050565b9081602091031261033a5751801515810361033a5790565b6040513d5f823e3d90fd5b15612fa857565b631d77d47760e21b5f5260045ffd5b15612fbe57565b63c61dca5d60e01b5f5260045ffd5b60405190612fda82610352565b5f6020838281520152565b90612fef82610a56565b612ffc60405191826103a8565b828152809261300d601f1991610a56565b01905f5b82811061301d57505050565b602090613028612fcd565b82828501015201613011565b634e487b7160e01b5f52603260045260245ffd5b805182101561305c5760209160051b010190565b613034565b1561306857565b63932d94f760e01b5f5260045ffd5b1561307e57565b6348f7dbb960e01b5f5260045ffd5b919081101561305c5760051b81013590603e198136030182121561033a570190565b35610684816103da565b156130c057565b631fb1705560e21b5f5260045ffd5b81516001600160a01b0316815260209182015163ffffffff169181019190915260400190565b903590601e198136030182121561033a57018035906001600160401b03821161033a57602001918160051b3603831361033a57565b919081101561305c5760051b0190565b3561068481610329565b6001600160a01b039081165f8181526097602052604090205490911680612f0c575090565b1561317057565b63840a48d560e01b5f5260045ffd5b1561318657565b6343714afd60e01b5f5260045ffd5b1561319c57565b63ebbff49760e01b5f5260045ffd5b906131b582610a56565b6131c260405191826103a8565b82815280926131d3601f1991610a56565b0190602036910137565b634e487b7160e01b5f52601160045260245ffd5b5f1981019190821161243557565b1561320657565b639f1c805360e01b5f5260045ffd5b1561321c57565b631353603160e01b5f5260045ffd5b1561323257565b6331bc342760e11b5f5260045ffd5b906001600160401b03809116911603906001600160401b03821161243557565b600f0b6f7fffffffffffffffffffffffffffffff198114612435575f0390565b90600f0b90600f0b019060016001607f1b0319821260016001607f1b0383131761243557565b6001600160a01b039182168152825182166020808301919091529092015163ffffffff9081166040840152921660608201526001600160401b0390921660808301529190911660a082015260c00190565b903590601e198136030182121561033a57018035906001600160401b03821161033a5760200191813603831361033a57565b908060209392818452848401375f828201840152601f01601f1916010190565b6001600160a01b03918216815282519091166020808301919091529091015163ffffffff1660408201529095949293918060c0830160c060608501525260e0820196905f5b8181106133e45750505080860360808201526020808551978881520194015f965b8088106133cc57505061068494955060a081850391015261332a565b909460208060019288518152019601970196906133b0565b909197602061340b6001928b356133fa81610329565b6001600160a01b0316815260200190565b990192910161338f565b9061341f82610a56565b61342c60405191826103a8565b828152809261343d601f1991610a56565b01905f5b82811061344d57505050565b602090613458612ede565b82828501015201613441565b1561346b57565b63585cfb2f60e01b5f5260045ffd5b1561348157565b6348f5c3ed60e01b5f5260045ffd5b1561349757565b63ccea9e6f60e01b5f5260045ffd5b156134ad57565b6325131d4f60e01b5f5260045ffd5b63ffffffff60019116019063ffffffff821161243557565b9063ffffffff8091169116019063ffffffff821161243557565b916020908281520191905f5b8181106135075750505090565b90919260208060019263ffffffff8735613520816103da565b1681520194019291016134fa565b6001600160a01b03918216815291166020820152606060408201819052610684939101916134ee565b906135899061356d610d46600180606654161490565b613579611af684613ec9565b61358283613ad4565b929061392c565b5f925b8151841015613926576135be60206135a48685613048565b5101515160406135b48786613048565b510151511461317f565b6135c88483613048565b5151916135f86108c76135e4610dd7865160018060a01b031690565b610dfb6108b8602088015163ffffffff1690565b6136028383612f11565b935f5b60206136118885613048565b5101515181101561391757807f1487af5418c47ee5ea45ef4a93398668120890774a9e13487e61e9dc3baf76dd6136be826137d8878b8d8c8c61367461366760019c602061365f878a613048565b510151613048565b516001600160a01b031690565b96879361368185846146aa565b6136948561368e86613c40565b85613cdb565b9a8b9891976136b66136b06108b860408d015163ffffffff1690565b15613942565b898888614c12565b6137056136fb6136d58b516001600160401b031690565b6136f56136e888604061365f8a8a613048565b516001600160401b031690565b90614c71565b600f0b60208b0152565b61372661371f61371960208c0151600f0b90565b600f0b90565b1515613958565b6020890151600f0b805f81121561388d57505015613824575050506001600160a01b03165f90815260a3602052604090206137809261377a91611ee391905b9060018060a01b03165f5260205260405f2090565b90614ca2565b6137c86137bb6137b67f000000000000000000000000000000000000000000000000000000000000000063ffffffff43166134d4565b6134bc565b63ffffffff166040840152565b836137d28d613c40565b8c614389565b61381b61380d60406138016137f486516001600160401b031690565b6020870151600f0b6112b0565b94015163ffffffff1690565b6040519384938c8c866132a7565b0390a101613605565b613876955061386994506136e8935060409161365f9161386460208a0161105c8c6112b0602061385b85516001600160401b031690565b920151600f0b90565b613048565b6001600160401b03168352565b5f60208301524363ffffffff1660408301526137c8565b95509650505050505f9150136138a4575b506137c8565b6138d96138fe916136e86138cc60208601926138c784516001600160401b031690565b614302565b6001600160401b03168252565b6001600160401b036138f561049085516001600160401b031690565b9116111561396e565b6139116137bb8a63ffffffff43166134d4565b5f61389e565b5093509150926001019261358c565b50505050565b1561393357565b63fa55fc8160e01b5f5260045ffd5b1561394957565b630d8fcbe360e41b5f5260045ffd5b1561395f57565b634606179360e11b5f5260045ffd5b1561397557565b636c9be0bf60e01b5f5260045ffd5b6001600160a01b039081165f90815260a160209081526040808320939094168252919091522061068490614ced565b907fa89c1dc243d8908a96dd84944bcc97d6bc6ac00dd78e20621576be6a3c943713916139e26107ee82613ec9565b6001600160a01b03165f81815260a4602052604090205490939060ff1615613a21575b613a1c60405192839260208452602084019161332a565b0390a2565b835f5260a460205260405f20600160ff19825416179055613a05565b15613a4457565b636c6c6e2760e11b5f5260045ffd5b6001600160a01b0391821681529116602082015260806040820181905261068495919491939192613a889291860191906134ee565b92606081850391015261332a565b90604051613aa38161038d565b606063ffffffff829454818116845260ff8160201c1615156020850152818160281c16604085015260481c16910152565b60018060a01b03165f52609b60205260405f2090606060405192613af78461038d565b54613b4f613b45613b3f63ffffffff841680885260ff8560201c1615159788602082015263ffffffff808760281c169687604084015260481c16968791015263ffffffff1690565b95151590565b9263ffffffff1690565b63ffffffff811615159081613b78575b50613b6957509190565b9192505063ffffffff16600191565b63ffffffff1690504310155f613b5f565b15613b9057565b60405162461bcd60e51b815260206004820152602e60248201527f496e697469616c697a61626c653a20636f6e747261637420697320616c72656160448201526d191e481a5b9a5d1a585b1a5e995960921b6064820152608490fd5b613bf86103d892613e6d565b614bca565b613c0e606654198219811614612fb7565b806066556040519081527f3582d1828e26bf56bd801502bc021ac0bc8afb57c826e4986b45593c8fad389c60203392a2565b602081519101516040519060208201926bffffffffffffffffffffffff199060601b16835263ffffffff60a01b9060a01b16603482015260208152613c866040826103a8565b5190519060208110613c96575090565b5f199060200360031b1b1690565b90604051613cb181610372565b604063ffffffff8294546001600160401b038116845280831c600f0b602085015260c01c16910152565b9291613da4613da991613cec612fcd565b50613cf5612ede565b50613765613d1a612604836137658a60018060a01b03165f5260a160205260405f2090565b94613d97613d4c613d3f856137658c60018060a01b03165f5260a260205260405f2090565b546001600160401b031690565b98613d67613d586103c9565b6001600160401b039099168952565b613d7e602089019a8b906001600160401b03169052565b6001600160a01b03165f90815260a06020526040902090565b905f5260205260405f2090565b613ca4565b926040840190613dc06108b8835163ffffffff1690565b4310613e33575f8092613dda87516001600160401b031690565b92613dfe613df160208a01956112b08751600f0b90565b6001600160401b03168952565b8351600f0b90838212613e14575b505052529190565b61105c613e2c926138c783516001600160401b031690565b5f80613e0c565b50509190565b5f196066556040515f1981527fab40a374bc51de372200a8bc981af8c9ecdc08dfdaef0bb6e09f88f3c616ef3d60203392a2565b806066556040519081527fab40a374bc51de372200a8bc981af8c9ecdc08dfdaef0bb6e09f88f3c616ef3d60203392a2565b613ea7612fcd565b5063ffffffff60405191613eba83610352565b8060601c835216602082015290565b604051631beb2b9760e31b81526001600160a01b0391821660048201523360248201523060448201525f80356001600160e01b03191660648301529091602091839160849183917f0000000000000000000000000000000000000000000000000000000000000000165af1908115610619575f91613f45575090565b610684915060203d6020116106125761060481836103a8565b610684916001600160a01b031690614d5b565b90613f7b82610a56565b613f8860405191826103a8565b8281528092613f99601f1991610a56565b01905f5b828110613fa957505050565b806060602080938501015201613f9d565b60208183031261033a578051906001600160401b03821161033a57019080601f8301121561033a57815190613fee82610a56565b92613ffc60405194856103a8565b82845260208085019360051b8201019082821161033a5760208101935b82851061402857505050505090565b84516001600160401b03811161033a57820184603f8201121561033a5760208101519061405482610a56565b9161406260405193846103a8565b8083526020808085019260051b840101019187831161033a57604001905b82821061409857505050815260209485019401614019565b8151815260209182019101614080565b90916140bf61068493604084526040840190611fb3565b916020818403910152611536565b909391926140db8551613f71565b604051637870733b60e11b815290925f82806140fb898b600484016140a8565b03817f00000000000000000000000000000000000000000000000000000000000000006001600160a01b03165afa918215610619575f926142b2575b50939590935f90670de0b6b3a7640000955b83518310156142a75761415f6136678486613048565b9361416a89516131ab565b6141748589613048565b5261417f8488613048565b505f5b89518110156142995780878761419d6136676001958f613048565b8c6001600160401b036141c7612604846137658760018060a01b03165f5260a160205260405f2090565b169189831561428e57614236956141e861421d936104909361422298612efc565b9063ffffffff80614200604085015163ffffffff1690565b92169116111580614275575b61424c57516001600160401b031690565b614f3b565b61423083610c9e8a89613048565b51614e26565b61424482610c9e898d613048565b525b01614182565b6142706138cc61426383516001600160401b031690565b6020840151600f0b6112b0565b6136e8565b505f6142856020830151600f0b90565b600f0b1261420c565b505050505050614246565b509350600190920191614149565b505050505092915050565b6142cf9192503d805f833e6142c781836103a8565b810190613fba565b905f614137565b90670de0b6b3a7640000906142eb8184614e26565b92096142f45790565b600181018091116124355790565b906001600160401b036143189216600f0b613281565b6001600160401b0381600f0b11614335576001600160401b031690565b60405162461bcd60e51b815260206004820152602660248201527f53616665436173743a2076616c756520646f65736e27742066697420696e203660448201526534206269747360d01b6064820152608490fd5b93909260206143af613d3f856137658960018060a01b03165f5260a260205260405f2090565b910180516001600160401b039081169216829003614552575b5050614450816143f08461376587613d978a60018060a01b03165f5260a060205260405f2090565b81518154602084015160409485015163ffffffff60c01b60c09190911b1677ffffffffffffffffffffffffffffffff00000000000000009190951b166001600160e01b03199091166001600160401b039092169190911717919091179055565b6020810151600f0b156144ba5750826144986144b29261448785613d976144b79860018060a01b03165f52609f60205260405f2090565b6001600160a01b0390911690614d5b565b506001600160a01b03165f908152609d6020526040902090565b614d5b565b50565b516001600160401b0316156144ce57505050565b61450390611e376109736144f685613d978860018060a01b03165f52609f60205260405f2090565b926001600160a01b031690565b506001600160a01b0382165f908152609f60205260409020614526908290613d97565b5415614530575050565b61454d6144b79260018060a01b03165f52609d60205260405f2090565b615137565b6145b76145e8916136e87facf9095feb3a370c9cf692421c69ef320d4db5c66e6a7d29c7694eb02364fc559461459c886137658c60018060a01b03165f5260a260205260405f2090565b906001600160401b03166001600160401b0319825416179055565b604080516001600160a01b03808a168252871660208201526001600160401b03909216908201529081906060820190565b0390a15f806143c8565b6001600160a01b038181165f90815260a1602090815260408083209386168352929052207f1c6458079a41077d003c11faf9bf097e693bd67979e4e6500bac7b29db779b5c9361468b91614658906001600160401b0383169063ffffffff431690615246565b604080516001600160a01b0394851681529490931660208501526001600160401b03169183019190915281906060820190565b0390a1565b5f1981146124355760010190565b8015612435575f190190565b6001600160a01b038082165f90815260a360209081526040808320938616835292905290812090939291906146ea905b5480600f0b9060801d600f0b0390565b935b841515806147a3575b1561479c5761472061471b846137658560018060a01b03165f5260a360205260405f2090565b614f72565b61472b848285613cdb565b916147406108b8604085015163ffffffff1690565b4310614792576147869261478c94928761475a9388614389565b61478061477b866137658760018060a01b03165f5260a360205260405f2090565b614fb7565b50614690565b9461469e565b936146ec565b5050505050509050565b5050509050565b5061ffff81106146f5565b6001600160a01b038181165f90815260a36020908152604080832093861683529290529081209094906147e0906146da565b945b8515158061488b575b156148835761481161471b856137658660018060a01b03165f5260a360205260405f2090565b61481c858286613cdb565b916148316108b8604085015163ffffffff1690565b43106148785761486c9261487294928861484b9389614389565b61478061477b876137658860018060a01b03165f5260a360205260405f2090565b9561469e565b946147e2565b505050509350505050565b509350505050565b5061ffff851681106147eb565b907f4e85751d6331506c6c62335f207eb31f12a61e570f34f5c17640308785c6d4db9161468b6149e56148e36148de8460018060a01b03165f52609b60205260405f2090565b613a96565b6108cc60608201916148f9835163ffffffff1690565b63ffffffff811615159081614a40575b50614a16575b63ffffffff8716604082015261495b6149516137b67f000000000000000000000000000000000000000000000000000000000000000063ffffffff43166134d4565b63ffffffff168452565b6001600160a01b0386165f908152609b602052604090208151815460208085015160408601516060909601516cffffffff00000000000000000060489190911b1668ffffffff000000000060289790971b9690961664ff0000000091151590921b166cffffffffffffffffffffffffff1990921663ffffffff909316929092171717919091179055565b604080516001600160a01b03909416845263ffffffff94851660208501529316928201929092529081906060820190565b614a34614a2a604083015163ffffffff1690565b63ffffffff168252565b6001602082015261490f565b63ffffffff1690504310155f614909565b90916001600160401b03614a79846137658560018060a01b03165f5260a260205260405f2090565b541683614a9e6146da83966137658760018060a01b03165f5260a360205260405f2090565b5f905b808210614ad0575b505061260461100c91613765610684959660018060a01b03165f5260a160205260405f2090565b909250614b20613da483613765614b0487614aff846137658d60018060a01b03165f5260a360205260405f2090565b615042565b6001600160a01b038a165f90815260a060205260409020613d97565b614b346108b8604083015163ffffffff1690565b4310614b575760200151600196614b4d91600f0b6112b0565b9586930190614aa1565b869350614aa9565b610684916001600160a01b031690615137565b6033546001600160a01b03163303614b8657565b606460405162461bcd60e51b815260206004820152602060248201527f4f776e61626c653a2063616c6c6572206973206e6f7420746865206f776e65726044820152fd5b603380546001600160a01b039283166001600160a01b0319821681179092559091167f8be0079c531659141344cd1fd0a4f28419497f9722a3daafe3b4186f6b6457e05f80a3565b90614c1f614c4792613c40565b5f52609960205260405f209060018060a01b0316906001915f520160205260405f2054151590565b9182614c69575b5081614c58575090565b6001600160401b0391505116151590565b91505f614c4e565b6001600160401b03809116600f0b9116600f0b0360016001607f1b03811360016001607f1b03198212176124355790565b90815460801d90614cc1826001850190600f0b5f5260205260405f2090565b5581546001600160801b0316600190910160801b6fffffffffffffffffffffffffffffffff1916179055565b805480614d035750670de0b6b3a7640000919050565b805f19810111612435576001600160401b03915f525f199060205f2001015460201c1690565b805482101561305c575f5260205f2001905f90565b91614d579183549060031b91821b915f19901b19161790565b9055565b5f828152600182016020526040902054614dbe57805490600160401b82101561036d5782614da9614d93846001809601855584614d29565b819391549060031b91821b915f19901b19161790565b90558054925f520160205260405f2055600190565b50505f90565b8115614dce570490565b634e487b7160e01b5f52601260045260245ffd5b15614de957565b60405162461bcd60e51b81526020600482015260156024820152744d6174683a206d756c446976206f766572666c6f7760581b6044820152606490fd5b5f1982820982820291828083109203918083039214614e8a577faccb18165bd6fe31ae1cf318dc5b51eee0e1ba569b88cd74c1773b91fac1066993670de0b6b3a764000091614e76848411614de2565b0990828211900360ee1b910360121c170290565b50670de0b6b3a76400009250500490565b5f19670de0b6b3a7640000820991670de0b6b3a7640000820291828085109403938085039414614f2f57670de0b6b3a76400008291614edb868411614de2565b09600182190182168092046002816003021880820260020302808202600203028082026002030280820260020302808202600203028091026002030293600183805f03040190848311900302920304170290565b50906106849250614dc4565b90915f198383099280830292838086109503948086039514614f6557908291614edb868411614de2565b5050906106849250614dc4565b614f87815480600f0b9060801d600f0b131590565b614fa8578054600f0b5f9081526001909101602052604090205490565b5490565b631ed9509560e11b5f5260045ffd5b90614fcd825480600f0b9060801d600f0b131590565b614fa8578154600f0b9160018101925f61500882614ff6818890600f0b5f5260205260405f2090565b549690600f0b5f5260205260405f2090565b5560016001600160801b031983541691016001600160801b0316179055565b9190915f838201938412911290801582169115161761243557565b805490916001600160ff1b0381116150a65761371961506f61506a6150769385600f0b615027565b61530c565b9260801d90565b81600f0b1215615097576001614fa4920190600f0b5f5260205260405f2090565b632d0483c560e21b5f5260045ffd5b60405162461bcd60e51b815260206004820152602860248201527f53616665436173743a2076616c756520646f65736e27742066697420696e2061604482015267371034b73a191a9b60c11b6064820152608490fd5b80548015615123575f1901906151128282614d29565b8154905f199060031b1b1916905555565b634e487b7160e01b5f52603160045260245ffd5b6001810191805f528260205260405f2054928315155f146151d2575f1984018481116124355783545f19810194908511612435575f958583613d9794615185980361518b575b5050506150fc565b55600190565b6151bb6151b5916151ac6151a26151c99588614d29565b90549060031b1c90565b92839187614d29565b90614d3e565b85905f5260205260405f2090565b555f808061517d565b505050505f90565b156151e157565b63151b8e3f60e11b5f5260045ffd5b8054600160401b81101561036d5761520d91600182018155614d29565b61523357815160209283015190921b63ffffffff191663ffffffff909216919091179055565b634e487b7160e01b5f525f60045260245ffd5b805480615282575b5061527d6103d89361526d6152616103c9565b63ffffffff9095168552565b6001600160e01b03166020840152565b6151f0565b805f1981011161243557815f5263ffffffff6152dd6108b85f198460205f2001016108cc6152cf604051926152b684610352565b548681169081855260201c602085015263ffffffff1690565b8589169586911611156151da565b0361524e576103d8939250906123e06152f5926131f1565b9063ffffffff82549181199060201b169116179055565b9081600f0b91820361531a57565b60405162461bcd60e51b815260206004820152602760248201527f53616665436173743a2076616c756520646f65736e27742066697420696e20316044820152663238206269747360c81b6064820152608490fdfea2646970667358221220b7c1451fa1afaf008a37d34062a0d07bec477569d00dcae82e618e4a3412215664736f6c634300081b0033","linkReferences":{}},"methodIdentifiers":{"ALLOCATION_CONFIGURATION_DELAY()":"7bc1ef61","DEALLOCATION_DELAY()":"2981eb77","addStrategiesToOperatorSet(address,uint32,address[])":"50feea20","clearDeallocationQueue(address,address[],uint16[])":"4b5046ef","createOperatorSets(address,(uint32,address[])[])":"261f84e0","delegation()":"df5cf723","deregisterFromOperatorSets((address,address,uint32[]))":"6e3492b5","getAVSRegistrar(address)":"304c10cd","getAllocatableMagnitude(address,address)":"6cfb4481","getAllocatedSets(address)":"15fe5028","getAllocatedStake((address,uint32),address[],address[])":"2b453a9a","getAllocatedStrategies(address,(address,uint32))":"c221d8ae","getAllocation(address,(address,uint32),address)":"10e1b9b8","getAllocationDelay(address)":"b9fbaed1","getAllocations(address[],(address,uint32),address)":"8ce64854","getEncumberedMagnitude(address,address)":"f605ce08","getMaxMagnitude(address,address)":"a9333ec8","getMaxMagnitudes(address,address[])":"547afb87","getMaxMagnitudes(address[],address)":"4a10ffe5","getMaxMagnitudesAtBlock(address,address[],uint32)":"94d7d00c","getMemberCount((address,uint32))":"b2447af7","getMembers((address,uint32))":"6e875dba","getMinimumSlashableStake((address,uint32),address[],address[],uint32)":"2bab2c4a","getOperatorSetCount(address)":"ba1a84e5","getRegisteredSets(address)":"79ae50cd","getStrategiesInOperatorSet((address,uint32))":"4177a87c","getStrategyAllocations(address,address)":"40120dab","initialize(address,uint256)":"cd6dc687","isMemberOfOperatorSet(address,(address,uint32))":"670d3ba2","isOperatorSet((address,uint32))":"260dc758","isOperatorSlashable(address,(address,uint32))":"1352c3e6","modifyAllocations(address,((address,uint32),address[],uint64[])[])":"952899ee","owner()":"8da5cb5b","pause(uint256)":"136439dd","pauseAll()":"595c6a67","paused()":"5c975abb","paused(uint8)":"5ac86ab7","pauserRegistry()":"886f1195","permissionController()":"4657e26a","registerForOperatorSets(address,(address,uint32[],bytes))":"adc2e3d9","removeStrategiesFromOperatorSet(address,uint32,address[])":"b66bd989","renounceOwnership()":"715018a6","setAVSRegistrar(address,address)":"d3d96ff4","setAllocationDelay(address,uint32)":"56c483e6","slashOperator(address,(address,uint32,address[],uint256[],string))":"36352057","transferOwnership(address)":"f2fde38b","unpause(uint256)":"fabc1cbc","updateAVSMetadataURI(address,string)":"a9821821","version()":"54fd4d50"},"id":2}