{"abi":[{"type":"constructor","inputs":[{"name":"_delegation","type":"address","internalType":"contract IDelegationManager"},{"name":"_pauserRegistry","type":"address","internalType":"contract IPauserRegistry"},{"name":"_version","type":"string","internalType":"string"}],"stateMutability":"nonpayable"},{"type":"function","name":"OPERATOR_AVS_REGISTRATION_TYPEHASH","inputs":[],"outputs":[{"name":"","type":"bytes32","internalType":"bytes32"}],"stateMutability":"view"},{"type":"function","name":"OPERATOR_SET_FORCE_DEREGISTRATION_TYPEHASH","inputs":[],"outputs":[{"name":"","type":"bytes32","internalType":"bytes32"}],"stateMutability":"view"},{"type":"function","name":"OPERATOR_SET_REGISTRATION_TYPEHASH","inputs":[],"outputs":[{"name":"","type":"bytes32","internalType":"bytes32"}],"stateMutability":"view"},{"type":"function","name":"avsOperatorStatus","inputs":[{"name":"avs","type":"address","internalType":"address"},{"name":"operator","type":"address","internalType":"address"}],"outputs":[{"name":"","type":"uint8","internalType":"enum IAVSDirectoryTypes.OperatorAVSRegistrationStatus"}],"stateMutability":"view"},{"type":"function","name":"calculateOperatorAVSRegistrationDigestHash","inputs":[{"name":"operator","type":"address","internalType":"address"},{"name":"avs","type":"address","internalType":"address"},{"name":"salt","type":"bytes32","internalType":"bytes32"},{"name":"expiry","type":"uint256","internalType":"uint256"}],"outputs":[{"name":"","type":"bytes32","internalType":"bytes32"}],"stateMutability":"view"},{"type":"function","name":"cancelSalt","inputs":[{"name":"salt","type":"bytes32","internalType":"bytes32"}],"outputs":[],"stateMutability":"nonpayable"},{"type":"function","name":"delegation","inputs":[],"outputs":[{"name":"","type":"address","internalType":"contract IDelegationManager"}],"stateMutability":"view"},{"type":"function","name":"deregisterOperatorFromAVS","inputs":[{"name":"operator","type":"address","internalType":"address"}],"outputs":[],"stateMutability":"nonpayable"},{"type":"function","name":"domainSeparator","inputs":[],"outputs":[{"name":"","type":"bytes32","internalType":"bytes32"}],"stateMutability":"view"},{"type":"function","name":"initialize","inputs":[{"name":"initialOwner","type":"address","internalType":"address"},{"name":"initialPausedStatus","type":"uint256","internalType":"uint256"}],"outputs":[],"stateMutability":"nonpayable"},{"type":"function","name":"operatorSaltIsSpent","inputs":[{"name":"operator","type":"address","internalType":"address"},{"name":"salt","type":"bytes32","internalType":"bytes32"}],"outputs":[{"name":"isSpent","type":"bool","internalType":"bool"}],"stateMutability":"view"},{"type":"function","name":"owner","inputs":[],"outputs":[{"name":"","type":"address","internalType":"address"}],"stateMutability":"view"},{"type":"function","name":"pause","inputs":[{"name":"newPausedStatus","type":"uint256","internalType":"uint256"}],"outputs":[],"stateMutability":"nonpayable"},{"type":"function","name":"pauseAll","inputs":[],"outputs":[],"stateMutability":"nonpayable"},{"type":"function","name":"paused","inputs":[{"name":"index","type":"uint8","internalType":"uint8"}],"outputs":[{"name":"","type":"bool","internalType":"bool"}],"stateMutability":"view"},{"type":"function","name":"paused","inputs":[],"outputs":[{"name":"","type":"uint256","internalType":"uint256"}],"stateMutability":"view"},{"type":"function","name":"pauserRegistry","inputs":[],"outputs":[{"name":"","type":"address","internalType":"contract IPauserRegistry"}],"stateMutability":"view"},{"type":"function","name":"registerOperatorToAVS","inputs":[{"name":"operator","type":"address","internalType":"address"},{"name":"operatorSignature","type":"tuple","internalType":"struct ISignatureUtilsMixinTypes.SignatureWithSaltAndExpiry","components":[{"name":"signature","type":"bytes","internalType":"bytes"},{"name":"salt","type":"bytes32","internalType":"bytes32"},{"name":"expiry","type":"uint256","internalType":"uint256"}]}],"outputs":[],"stateMutability":"nonpayable"},{"type":"function","name":"renounceOwnership","inputs":[],"outputs":[],"stateMutability":"nonpayable"},{"type":"function","name":"transferOwnership","inputs":[{"name":"newOwner","type":"address","internalType":"address"}],"outputs":[],"stateMutability":"nonpayable"},{"type":"function","name":"unpause","inputs":[{"name":"newPausedStatus","type":"uint256","internalType":"uint256"}],"outputs":[],"stateMutability":"nonpayable"},{"type":"function","name":"updateAVSMetadataURI","inputs":[{"name":"metadataURI","type":"string","internalType":"string"}],"outputs":[],"stateMutability":"nonpayable"},{"type":"function","name":"version","inputs":[],"outputs":[{"name":"","type":"string","internalType":"string"}],"stateMutability":"view"},{"type":"event","name":"AVSMetadataURIUpdated","inputs":[{"name":"avs","type":"address","indexed":true,"internalType":"address"},{"name":"metadataURI","type":"string","indexed":false,"internalType":"string"}],"anonymous":false},{"type":"event","name":"Initialized","inputs":[{"name":"version","type":"uint8","indexed":false,"internalType":"uint8"}],"anonymous":false},{"type":"event","name":"OperatorAVSRegistrationStatusUpdated","inputs":[{"name":"operator","type":"address","indexed":true,"internalType":"address"},{"name":"avs","type":"address","indexed":true,"internalType":"address"},{"name":"status","type":"uint8","indexed":false,"internalType":"enum IAVSDirectoryTypes.OperatorAVSRegistrationStatus"}],"anonymous":false},{"type":"event","name":"OwnershipTransferred","inputs":[{"name":"previousOwner","type":"address","indexed":true,"internalType":"address"},{"name":"newOwner","type":"address","indexed":true,"internalType":"address"}],"anonymous":false},{"type":"event","name":"Paused","inputs":[{"name":"account","type":"address","indexed":true,"internalType":"address"},{"name":"newPausedStatus","type":"uint256","indexed":false,"internalType":"uint256"}],"anonymous":false},{"type":"event","name":"Unpaused","inputs":[{"name":"account","type":"address","indexed":true,"internalType":"address"},{"name":"newPausedStatus","type":"uint256","indexed":false,"internalType":"uint256"}],"anonymous":false},{"type":"error","name":"CurrentlyPaused","inputs":[]},{"type":"error","name":"InputAddressZero","inputs":[]},{"type":"error","name":"InvalidNewPausedStatus","inputs":[]},{"type":"error","name":"InvalidShortString","inputs":[]},{"type":"error","name":"InvalidSignature","inputs":[]},{"type":"error","name":"OnlyPauser","inputs":[]},{"type":"error","name":"OnlyUnpauser","inputs":[]},{"type":"error","name":"OperatorAlreadyRegisteredToAVS","inputs":[]},{"type":"error","name":"OperatorNotRegisteredToAVS","inputs":[]},{"type":"error","name":"OperatorNotRegisteredToEigenLayer","inputs":[]},{"type":"error","name":"SaltSpent","inputs":[]},{"type":"error","name":"SignatureExpired","inputs":[]},{"type":"error","name":"StringTooLong","inputs":[{"name":"str","type":"string","internalType":"string"}]}],"bytecode":{"object":"0x60e06040523461022b576114c18038038061001981610243565b92833981019060608183031261022b5780516001600160a01b038116810361022b5760208201516001600160a01b0381169283820361022b576040810151906001600160401b03821161022b57019284601f8501121561022b5783516001600160401b03811161022f57610096601f8201601f1916602001610243565b9481865260208601966020838301011161022b57815f926020809301895e860101521561021c5760805260a052601f8151116101e057519051602082106101d0575b1760c0525f5460ff8160081c1661017b5760ff80821603610141575b6040516112589081610269823960805181818161014501528181610ae301528181610be80152610db2015260a051818181610339015261084c015260c051818181610ca00152610f930152f35b60ff90811916175f557f7f26b83ff96e1f2b6a682f133852f6798a09c465da95921460cefb3847402498602060405160ff8152a15f6100f4565b60405162461bcd60e51b815260206004820152602760248201527f496e697469616c697a61626c653a20636f6e747261637420697320696e697469604482015266616c697a696e6760c81b6064820152608490fd5b5f198260200360031b1b166100d8565b60449060405192839163305a27a960e01b8352602060048401525180918160248501528484015e5f828201840152601f01601f19168101030190fd5b6339b190bb60e11b5f5260045ffd5b5f80fd5b634e487b7160e01b5f52604160045260245ffd5b6040519190601f01601f191682016001600160401b0381118382101761022f5760405256fe6080806040526004361015610012575f80fd5b5f3560e01c908163136439dd14610d8357508063374823b514610d3a57806349075da314610cdc57806354fd4d5014610c88578063595c6a6714610bbd5780635ac86ab714610b8a5780635c975abb14610b6d578063715018a614610b12578063886f119514610ace5780638da5cb5b14610aa65780639926ee7d146106fb578063a1060c88146106c7578063a364f4da146105e4578063a98fb35514610540578063c825fe6814610506578063cd6dc687146103dc578063d79aceab146103a2578063dce974b914610368578063df5cf72314610324578063ec76f442146102ec578063f2fde38b1461025d578063f698da251461023b5763fabc1cbc14610119575f80fd5b346102245760203660031901126102245760405163755b36bd60e11b81526004803591906020908290817f00000000000000000000000000000000000000000000000000000000000000006001600160a01b03165afa908115610230575f916101ea575b506001600160a01b031633036101db576066541981198116036101cc57806066556040519081527f3582d1828e26bf56bd801502bc021ac0bc8afb57c826e4986b45593c8fad389c60203392a2005b63c61dca5d60e01b5f5260045ffd5b63794821ff60e01b5f5260045ffd5b90506020813d602011610228575b8161020560209383610e73565b8101031261022457516001600160a01b0381168103610224575f61017d565b5f80fd5b3d91506101f8565b6040513d5f823e3d90fd5b34610224575f366003190112610224576020610255610f67565b604051908152f35b3461022457602036600319011261022457610276610e23565b61027e6110d2565b6001600160a01b03811615610298576102969061112a565b005b60405162461bcd60e51b815260206004820152602660248201527f4f776e61626c653a206e6577206f776e657220697320746865207a65726f206160448201526564647265737360d01b6064820152608490fd5b3461022457602036600319011261022457335f52609960205260405f206004355f5260205260405f20600160ff198254161790555f80f35b34610224575f366003190112610224576040517f00000000000000000000000000000000000000000000000000000000000000006001600160a01b03168152602090f35b34610224575f3660031901126102245760206040517f4ee65f64218c67b68da66fd0db16560040a6b973290b9e71912d661ee53fe4958152f35b34610224575f3660031901126102245760206040517fda2c89bafdd34776a2b8bb9c83c82f419e20cc8c67207f70edd58249b92661bd8152f35b34610224576040366003190112610224576103f5610e23565b5f5460ff8160081c1615918280936104f9575b80156104e2575b156104865760ff1982166001175f556104399183610475575b50610434602435611062565b61112a565b61043f57005b61ff00195f54165f557f7f26b83ff96e1f2b6a682f133852f6798a09c465da95921460cefb3847402498602060405160018152a1005b61ffff1916610101175f5583610428565b60405162461bcd60e51b815260206004820152602e60248201527f496e697469616c697a61626c653a20636f6e747261637420697320616c72656160448201526d191e481a5b9a5d1a585b1a5e995960921b6064820152608490fd5b50303b15801561040f5750600160ff83161461040f565b50600160ff831610610408565b34610224575f3660031901126102245760206040517f809c5ac049c45b7a7f050a20f00c16cf63797efbf8b1eb8d749fdfa39ff8f9298152f35b346102245760203660031901126102245760043567ffffffffffffffff811161022457366023820112156102245780600401359067ffffffffffffffff8211610224573660248383010111610224577fa89c1dc243d8908a96dd84944bcc97d6bc6ac00dd78e20621576be6a3c9437139082602460405192602084528260208501520160408301375f604084830101526040813394601f80199101168101030190a2005b34610224576020366003190112610224576105fd610e23565b60018060665416146106b857335f52609860205260405f2060018060a01b0382165f5260205260ff60405f20541660028110156106a45760010361069557335f8181526098602090815260408083206001600160a01b0395909516808452948252808320805460ff19169055519182529192917ff0952b1c65271d819d39983d2abb044b9cace59bcc4d4dd389f586ebdcb15b4191a3005b6352df45c960e01b5f5260045ffd5b634e487b7160e01b5f52602160045260245ffd5b63840a48d560e01b5f5260045ffd5b346102245760803660031901126102245760206102556106e5610e23565b6106ed610e39565b906064359160443591610ec9565b3461022457604036600319011261022457610714610e23565b6024359067ffffffffffffffff8211610224576060600319833603011261022457604051916060830183811067ffffffffffffffff821117610a9257604052806004013567ffffffffffffffff81116102245781013660238201121561022457600481013561078281610e95565b916107906040519384610e73565b818352366024828401011161022457815f9260246020930183860137830101528352602083019160248201358352604460408501920135825260018060665416146106b857335f52609860205260405f2060018060a01b0382165f5260205260ff60405f20541660028110156106a457600114610a835760018060a01b03811693845f52609960205260405f2084515f5260205260ff60405f205416610a74576040516336b87bd760e11b8152600481018690526020816024817f00000000000000000000000000000000000000000000000000000000000000006001600160a01b03165afa908115610230575f91610a45575b5015610a365761089984518451903385610ec9565b905192514211610a27576108ad8382611172565b60058195929510156106a4578690159485610a14575b50508315610956575b5050501561094757815f52609960205260405f2090515f5260205260405f20600160ff19825416179055335f52609860205260405f20815f5260205260405f20600160ff1982541617905560405190600182527ff0952b1c65271d819d39983d2abb044b9cace59bcc4d4dd389f586ebdcb15b4160203393a3005b638baa579f60e01b5f5260045ffd5b5f93509061098e61099c8594936040519283916020830195630b135d3f60e11b87526024840152604060448401526064830190610e4f565b03601f198101835282610e73565b51915afa3d15610a0d573d6109b081610e95565b906109be6040519283610e73565b81523d5f602083013e5b816109ff575b816109dd575b508380806108cc565b90506020818051810103126102245760200151630b135d3f60e11b14836109d4565b9050602081511015906109ce565b60606109c8565b6001600160a01b031614935085876108c3565b630819bdcd60e01b5f5260045ffd5b639f88c8af60e01b5f5260045ffd5b610a67915060203d602011610a6d575b610a5f8183610e73565b810190610eb1565b86610884565b503d610a55565b630d4c4c9160e21b5f5260045ffd5b631aa528bb60e11b5f5260045ffd5b634e487b7160e01b5f52604160045260245ffd5b34610224575f366003190112610224576033546040516001600160a01b039091168152602090f35b34610224575f366003190112610224576040517f00000000000000000000000000000000000000000000000000000000000000006001600160a01b03168152602090f35b34610224575f36600319011261022457610b2a6110d2565b603380546001600160a01b031981169091555f906001600160a01b03167f8be0079c531659141344cd1fd0a4f28419497f9722a3daafe3b4186f6b6457e08280a3005b34610224575f366003190112610224576020606654604051908152f35b346102245760203660031901126102245760043560ff81168091036102245760016020911b806066541614604051908152f35b34610224575f3660031901126102245760405163237dfb4760e11b81523360048201526020816024817f00000000000000000000000000000000000000000000000000000000000000006001600160a01b03165afa908115610230575f91610c69575b5015610c5a575f196066556040515f1981527fab40a374bc51de372200a8bc981af8c9ecdc08dfdaef0bb6e09f88f3c616ef3d60203392a2005b631d77d47760e21b5f5260045ffd5b610c82915060203d602011610a6d57610a5f8183610e73565b81610c20565b34610224575f36600319011261022457610cd8610cc47f0000000000000000000000000000000000000000000000000000000000000000611094565b604051918291602083526020830190610e4f565b0390f35b3461022457604036600319011261022457610cf5610e23565b610cfd610e39565b9060018060a01b03165f52609860205260405f209060018060a01b03165f5260205260ff60405f20541660405160028210156106a4576020918152f35b34610224576040366003190112610224576001600160a01b03610d5b610e23565b165f52609960205260405f206024355f52602052602060ff60405f2054166040519015158152f35b346102245760203660031901126102245763237dfb4760e11b81523360048281019190915235906020816024817f00000000000000000000000000000000000000000000000000000000000000006001600160a01b03165afa908115610230575f91610e04575b5015610c5a57606654818116036101cc5761029690611062565b610e1d915060203d602011610a6d57610a5f8183610e73565b82610dea565b600435906001600160a01b038216820361022457565b602435906001600160a01b038216820361022457565b805180835260209291819084018484015e5f828201840152601f01601f1916010190565b90601f8019910116810190811067ffffffffffffffff821117610a9257604052565b67ffffffffffffffff8111610a9257601f01601f191660200190565b90816020910312610224575180151581036102245790565b9290916040519260208401947fda2c89bafdd34776a2b8bb9c83c82f419e20cc8c67207f70edd58249b92661bd865260018060a01b0316604085015260018060a01b03166060840152608083015260a082015260a08152610f2b60c082610e73565b519020610f36610f67565b9060405190602082019261190160f01b84526022830152604282015260428152610f61606282610e73565b51902090565b6040600a60208251610f798482610e73565b828152016922b4b3b2b72630bcb2b960b11b815220610fb77f0000000000000000000000000000000000000000000000000000000000000000611094565b80511561104e5760ff60f81b6020820151169080516001101561104e57602160ff60f81b9101511683519060208201928352602182015260028152610ffd602282610e73565b51902082519160208301937f8b73c3c69bb8fe3d512ecc4cf759cc79239f7b179b0ffacaa9a75d522b39400f855283015260608201524660808201523060a082015260a08152610f6160c082610e73565b634e487b7160e01b5f52603260045260245ffd5b806066556040519081527fab40a374bc51de372200a8bc981af8c9ecdc08dfdaef0bb6e09f88f3c616ef3d60203392a2565b60ff811690601f82116110c357604051916110b0604084610e73565b6020808452838101919036833783525290565b632cd44ac360e21b5f5260045ffd5b6033546001600160a01b031633036110e657565b606460405162461bcd60e51b815260206004820152602060248201527f4f776e61626c653a2063616c6c6572206973206e6f7420746865206f776e65726044820152fd5b603380546001600160a01b039283166001600160a01b0319821681179092559091167f8be0079c531659141344cd1fd0a4f28419497f9722a3daafe3b4186f6b6457e05f80a3565b9060418151145f1461119e5761119a91602082015190606060408401519301515f1a906111a7565b9091565b50505f90600290565b7f7fffffffffffffffffffffffffffffff5d576e7357a4501ddfe92f46681b20a08411611217576020935f9360ff60809460405194855216868401526040830152606082015282805260015afa15610230575f516001600160a01b0381161561120f57905f90565b505f90600190565b505050505f9060039056fea264697066735822122013ade501b6588209e81562a53e627705129ee90f39ed282ecf848b26a032af1464736f6c634300081b0033","linkReferences":{}},"methodIdentifiers":{"OPERATOR_AVS_REGISTRATION_TYPEHASH()":"d79aceab","OPERATOR_SET_FORCE_DEREGISTRATION_TYPEHASH()":"dce974b9","OPERATOR_SET_REGISTRATION_TYPEHASH()":"c825fe68","avsOperatorStatus(address,address)":"49075da3","calculateOperatorAVSRegistrationDigestHash(address,address,bytes32,uint256)":"a1060c88","cancelSalt(bytes32)":"ec76f442","delegation()":"df5cf723","deregisterOperatorFromAVS(address)":"a364f4da","domainSeparator()":"f698da25","initialize(address,uint256)":"cd6dc687","operatorSaltIsSpent(address,bytes32)":"374823b5","owner()":"8da5cb5b","pause(uint256)":"136439dd","pauseAll()":"595c6a67","paused()":"5c975abb","paused(uint8)":"5ac86ab7","pauserRegistry()":"886f1195","registerOperatorToAVS(address,(bytes,bytes32,uint256))":"9926ee7d","renounceOwnership()":"715018a6","transferOwnership(address)":"f2fde38b","unpause(uint256)":"fabc1cbc","updateAVSMetadataURI(string)":"a98fb355","version()":"54fd4d50"},"id":0}