{"abi":[{"type":"constructor","inputs":[{"name":"_strategyManager","type":"address","internalType":"contract IStrategyManager"},{"name":"_eigenPodManager","type":"address","internalType":"contract IEigenPodManager"},{"name":"_allocationManager","type":"address","internalType":"contract IAllocationManager"},{"name":"_pauserRegistry","type":"address","internalType":"contract IPauserRegistry"},{"name":"_permissionController","type":"address","internalType":"contract IPermissionController"},{"name":"_MIN_WITHDRAWAL_DELAY","type":"uint32","internalType":"uint32"},{"name":"_version","type":"string","internalType":"string"}],"stateMutability":"nonpayable"},{"type":"function","name":"DELEGATION_APPROVAL_TYPEHASH","inputs":[],"outputs":[{"name":"","type":"bytes32","internalType":"bytes32"}],"stateMutability":"view"},{"type":"function","name":"allocationManager","inputs":[],"outputs":[{"name":"","type":"address","internalType":"contract IAllocationManager"}],"stateMutability":"view"},{"type":"function","name":"beaconChainETHStrategy","inputs":[],"outputs":[{"name":"","type":"address","internalType":"contract IStrategy"}],"stateMutability":"view"},{"type":"function","name":"calculateDelegationApprovalDigestHash","inputs":[{"name":"staker","type":"address","internalType":"address"},{"name":"operator","type":"address","internalType":"address"},{"name":"approver","type":"address","internalType":"address"},{"name":"approverSalt","type":"bytes32","internalType":"bytes32"},{"name":"expiry","type":"uint256","internalType":"uint256"}],"outputs":[{"name":"","type":"bytes32","internalType":"bytes32"}],"stateMutability":"view"},{"type":"function","name":"calculateWithdrawalRoot","inputs":[{"name":"withdrawal","type":"tuple","internalType":"struct IDelegationManagerTypes.Withdrawal","components":[{"name":"staker","type":"address","internalType":"address"},{"name":"delegatedTo","type":"address","internalType":"address"},{"name":"withdrawer","type":"address","internalType":"address"},{"name":"nonce","type":"uint256","internalType":"uint256"},{"name":"startBlock","type":"uint32","internalType":"uint32"},{"name":"strategies","type":"address[]","internalType":"contract IStrategy[]"},{"name":"scaledShares","type":"uint256[]","internalType":"uint256[]"}]}],"outputs":[{"name":"","type":"bytes32","internalType":"bytes32"}],"stateMutability":"pure"},{"type":"function","name":"completeQueuedWithdrawal","inputs":[{"name":"withdrawal","type":"tuple","internalType":"struct IDelegationManagerTypes.Withdrawal","components":[{"name":"staker","type":"address","internalType":"address"},{"name":"delegatedTo","type":"address","internalType":"address"},{"name":"withdrawer","type":"address","internalType":"address"},{"name":"nonce","type":"uint256","internalType":"uint256"},{"name":"startBlock","type":"uint32","internalType":"uint32"},{"name":"strategies","type":"address[]","internalType":"contract IStrategy[]"},{"name":"scaledShares","type":"uint256[]","internalType":"uint256[]"}]},{"name":"tokens","type":"address[]","internalType":"contract IERC20[]"},{"name":"receiveAsTokens","type":"bool","internalType":"bool"}],"outputs":[],"stateMutability":"nonpayable"},{"type":"function","name":"completeQueuedWithdrawals","inputs":[{"name":"withdrawals","type":"tuple[]","internalType":"struct IDelegationManagerTypes.Withdrawal[]","components":[{"name":"staker","type":"address","internalType":"address"},{"name":"delegatedTo","type":"address","internalType":"address"},{"name":"withdrawer","type":"address","internalType":"address"},{"name":"nonce","type":"uint256","internalType":"uint256"},{"name":"startBlock","type":"uint32","internalType":"uint32"},{"name":"strategies","type":"address[]","internalType":"contract IStrategy[]"},{"name":"scaledShares","type":"uint256[]","internalType":"uint256[]"}]},{"name":"tokens","type":"address[][]","internalType":"contract IERC20[][]"},{"name":"receiveAsTokens","type":"bool[]","internalType":"bool[]"}],"outputs":[],"stateMutability":"nonpayable"},{"type":"function","name":"convertToDepositShares","inputs":[{"name":"staker","type":"address","internalType":"address"},{"name":"strategies","type":"address[]","internalType":"contract IStrategy[]"},{"name":"withdrawableShares","type":"uint256[]","internalType":"uint256[]"}],"outputs":[{"name":"","type":"uint256[]","internalType":"uint256[]"}],"stateMutability":"view"},{"type":"function","name":"cumulativeWithdrawalsQueued","inputs":[{"name":"staker","type":"address","internalType":"address"}],"outputs":[{"name":"totalQueued","type":"uint256","internalType":"uint256"}],"stateMutability":"view"},{"type":"function","name":"decreaseDelegatedShares","inputs":[{"name":"staker","type":"address","internalType":"address"},{"name":"curDepositShares","type":"uint256","internalType":"uint256"},{"name":"beaconChainSlashingFactorDecrease","type":"uint64","internalType":"uint64"}],"outputs":[],"stateMutability":"nonpayable"},{"type":"function","name":"delegateTo","inputs":[{"name":"operator","type":"address","internalType":"address"},{"name":"approverSignatureAndExpiry","type":"tuple","internalType":"struct ISignatureUtilsMixinTypes.SignatureWithExpiry","components":[{"name":"signature","type":"bytes","internalType":"bytes"},{"name":"expiry","type":"uint256","internalType":"uint256"}]},{"name":"approverSalt","type":"bytes32","internalType":"bytes32"}],"outputs":[],"stateMutability":"nonpayable"},{"type":"function","name":"delegatedTo","inputs":[{"name":"staker","type":"address","internalType":"address"}],"outputs":[{"name":"operator","type":"address","internalType":"address"}],"stateMutability":"view"},{"type":"function","name":"delegationApprover","inputs":[{"name":"operator","type":"address","internalType":"address"}],"outputs":[{"name":"","type":"address","internalType":"address"}],"stateMutability":"view"},{"type":"function","name":"delegationApproverSaltIsSpent","inputs":[{"name":"delegationApprover","type":"address","internalType":"address"},{"name":"salt","type":"bytes32","internalType":"bytes32"}],"outputs":[{"name":"spent","type":"bool","internalType":"bool"}],"stateMutability":"view"},{"type":"function","name":"depositScalingFactor","inputs":[{"name":"staker","type":"address","internalType":"address"},{"name":"strategy","type":"address","internalType":"contract IStrategy"}],"outputs":[{"name":"","type":"uint256","internalType":"uint256"}],"stateMutability":"view"},{"type":"function","name":"domainSeparator","inputs":[],"outputs":[{"name":"","type":"bytes32","internalType":"bytes32"}],"stateMutability":"view"},{"type":"function","name":"eigenPodManager","inputs":[],"outputs":[{"name":"","type":"address","internalType":"contract IEigenPodManager"}],"stateMutability":"view"},{"type":"function","name":"getDepositedShares","inputs":[{"name":"staker","type":"address","internalType":"address"}],"outputs":[{"name":"","type":"address[]","internalType":"contract IStrategy[]"},{"name":"","type":"uint256[]","internalType":"uint256[]"}],"stateMutability":"view"},{"type":"function","name":"getOperatorShares","inputs":[{"name":"operator","type":"address","internalType":"address"},{"name":"strategies","type":"address[]","internalType":"contract IStrategy[]"}],"outputs":[{"name":"","type":"uint256[]","internalType":"uint256[]"}],"stateMutability":"view"},{"type":"function","name":"getOperatorsShares","inputs":[{"name":"operators","type":"address[]","internalType":"address[]"},{"name":"strategies","type":"address[]","internalType":"contract IStrategy[]"}],"outputs":[{"name":"","type":"uint256[][]","internalType":"uint256[][]"}],"stateMutability":"view"},{"type":"function","name":"getQueuedWithdrawal","inputs":[{"name":"withdrawalRoot","type":"bytes32","internalType":"bytes32"}],"outputs":[{"name":"withdrawal","type":"tuple","internalType":"struct IDelegationManagerTypes.Withdrawal","components":[{"name":"staker","type":"address","internalType":"address"},{"name":"delegatedTo","type":"address","internalType":"address"},{"name":"withdrawer","type":"address","internalType":"address"},{"name":"nonce","type":"uint256","internalType":"uint256"},{"name":"startBlock","type":"uint32","internalType":"uint32"},{"name":"strategies","type":"address[]","internalType":"contract IStrategy[]"},{"name":"scaledShares","type":"uint256[]","internalType":"uint256[]"}]},{"name":"shares","type":"uint256[]","internalType":"uint256[]"}],"stateMutability":"view"},{"type":"function","name":"getQueuedWithdrawalRoots","inputs":[{"name":"staker","type":"address","internalType":"address"}],"outputs":[{"name":"","type":"bytes32[]","internalType":"bytes32[]"}],"stateMutability":"view"},{"type":"function","name":"getQueuedWithdrawals","inputs":[{"name":"staker","type":"address","internalType":"address"}],"outputs":[{"name":"withdrawals","type":"tuple[]","internalType":"struct IDelegationManagerTypes.Withdrawal[]","components":[{"name":"staker","type":"address","internalType":"address"},{"name":"delegatedTo","type":"address","internalType":"address"},{"name":"withdrawer","type":"address","internalType":"address"},{"name":"nonce","type":"uint256","internalType":"uint256"},{"name":"startBlock","type":"uint32","internalType":"uint32"},{"name":"strategies","type":"address[]","internalType":"contract IStrategy[]"},{"name":"scaledShares","type":"uint256[]","internalType":"uint256[]"}]},{"name":"shares","type":"uint256[][]","internalType":"uint256[][]"}],"stateMutability":"view"},{"type":"function","name":"getSlashableSharesInQueue","inputs":[{"name":"operator","type":"address","internalType":"address"},{"name":"strategy","type":"address","internalType":"contract IStrategy"}],"outputs":[{"name":"","type":"uint256","internalType":"uint256"}],"stateMutability":"view"},{"type":"function","name":"getWithdrawableShares","inputs":[{"name":"staker","type":"address","internalType":"address"},{"name":"strategies","type":"address[]","internalType":"contract IStrategy[]"}],"outputs":[{"name":"withdrawableShares","type":"uint256[]","internalType":"uint256[]"},{"name":"depositShares","type":"uint256[]","internalType":"uint256[]"}],"stateMutability":"view"},{"type":"function","name":"increaseDelegatedShares","inputs":[{"name":"staker","type":"address","internalType":"address"},{"name":"strategy","type":"address","internalType":"contract IStrategy"},{"name":"prevDepositShares","type":"uint256","internalType":"uint256"},{"name":"addedShares","type":"uint256","internalType":"uint256"}],"outputs":[],"stateMutability":"nonpayable"},{"type":"function","name":"initialize","inputs":[{"name":"initialOwner","type":"address","internalType":"address"},{"name":"initialPausedStatus","type":"uint256","internalType":"uint256"}],"outputs":[],"stateMutability":"nonpayable"},{"type":"function","name":"isDelegated","inputs":[{"name":"staker","type":"address","internalType":"address"}],"outputs":[{"name":"","type":"bool","internalType":"bool"}],"stateMutability":"view"},{"type":"function","name":"isOperator","inputs":[{"name":"operator","type":"address","internalType":"address"}],"outputs":[{"name":"","type":"bool","internalType":"bool"}],"stateMutability":"view"},{"type":"function","name":"minWithdrawalDelayBlocks","inputs":[],"outputs":[{"name":"","type":"uint32","internalType":"uint32"}],"stateMutability":"view"},{"type":"function","name":"modifyOperatorDetails","inputs":[{"name":"operator","type":"address","internalType":"address"},{"name":"newDelegationApprover","type":"address","internalType":"address"}],"outputs":[],"stateMutability":"nonpayable"},{"type":"function","name":"operatorShares","inputs":[{"name":"operator","type":"address","internalType":"address"},{"name":"strategy","type":"address","internalType":"contract IStrategy"}],"outputs":[{"name":"shares","type":"uint256","internalType":"uint256"}],"stateMutability":"view"},{"type":"function","name":"owner","inputs":[],"outputs":[{"name":"","type":"address","internalType":"address"}],"stateMutability":"view"},{"type":"function","name":"pause","inputs":[{"name":"newPausedStatus","type":"uint256","internalType":"uint256"}],"outputs":[],"stateMutability":"nonpayable"},{"type":"function","name":"pauseAll","inputs":[],"outputs":[],"stateMutability":"nonpayable"},{"type":"function","name":"paused","inputs":[{"name":"index","type":"uint8","internalType":"uint8"}],"outputs":[{"name":"","type":"bool","internalType":"bool"}],"stateMutability":"view"},{"type":"function","name":"paused","inputs":[],"outputs":[{"name":"","type":"uint256","internalType":"uint256"}],"stateMutability":"view"},{"type":"function","name":"pauserRegistry","inputs":[],"outputs":[{"name":"","type":"address","internalType":"contract IPauserRegistry"}],"stateMutability":"view"},{"type":"function","name":"pendingWithdrawals","inputs":[{"name":"withdrawalRoot","type":"bytes32","internalType":"bytes32"}],"outputs":[{"name":"pending","type":"bool","internalType":"bool"}],"stateMutability":"view"},{"type":"function","name":"permissionController","inputs":[],"outputs":[{"name":"","type":"address","internalType":"contract IPermissionController"}],"stateMutability":"view"},{"type":"function","name":"queueWithdrawals","inputs":[{"name":"params","type":"tuple[]","internalType":"struct IDelegationManagerTypes.QueuedWithdrawalParams[]","components":[{"name":"strategies","type":"address[]","internalType":"contract IStrategy[]"},{"name":"depositShares","type":"uint256[]","internalType":"uint256[]"},{"name":"__deprecated_withdrawer","type":"address","internalType":"address"}]}],"outputs":[{"name":"","type":"bytes32[]","internalType":"bytes32[]"}],"stateMutability":"nonpayable"},{"type":"function","name":"queuedWithdrawals","inputs":[{"name":"withdrawalRoot","type":"bytes32","internalType":"bytes32"}],"outputs":[{"name":"withdrawal","type":"tuple","internalType":"struct IDelegationManagerTypes.Withdrawal","components":[{"name":"staker","type":"address","internalType":"address"},{"name":"delegatedTo","type":"address","internalType":"address"},{"name":"withdrawer","type":"address","internalType":"address"},{"name":"nonce","type":"uint256","internalType":"uint256"},{"name":"startBlock","type":"uint32","internalType":"uint32"},{"name":"strategies","type":"address[]","internalType":"contract IStrategy[]"},{"name":"scaledShares","type":"uint256[]","internalType":"uint256[]"}]}],"stateMutability":"view"},{"type":"function","name":"redelegate","inputs":[{"name":"newOperator","type":"address","internalType":"address"},{"name":"newOperatorApproverSig","type":"tuple","internalType":"struct ISignatureUtilsMixinTypes.SignatureWithExpiry","components":[{"name":"signature","type":"bytes","internalType":"bytes"},{"name":"expiry","type":"uint256","internalType":"uint256"}]},{"name":"approverSalt","type":"bytes32","internalType":"bytes32"}],"outputs":[{"name":"withdrawalRoots","type":"bytes32[]","internalType":"bytes32[]"}],"stateMutability":"nonpayable"},{"type":"function","name":"registerAsOperator","inputs":[{"name":"initDelegationApprover","type":"address","internalType":"address"},{"name":"allocationDelay","type":"uint32","internalType":"uint32"},{"name":"metadataURI","type":"string","internalType":"string"}],"outputs":[],"stateMutability":"nonpayable"},{"type":"function","name":"renounceOwnership","inputs":[],"outputs":[],"stateMutability":"nonpayable"},{"type":"function","name":"slashOperatorShares","inputs":[{"name":"operator","type":"address","internalType":"address"},{"name":"strategy","type":"address","internalType":"contract IStrategy"},{"name":"prevMaxMagnitude","type":"uint64","internalType":"uint64"},{"name":"newMaxMagnitude","type":"uint64","internalType":"uint64"}],"outputs":[],"stateMutability":"nonpayable"},{"type":"function","name":"strategyManager","inputs":[],"outputs":[{"name":"","type":"address","internalType":"contract IStrategyManager"}],"stateMutability":"view"},{"type":"function","name":"transferOwnership","inputs":[{"name":"newOwner","type":"address","internalType":"address"}],"outputs":[],"stateMutability":"nonpayable"},{"type":"function","name":"undelegate","inputs":[{"name":"staker","type":"address","internalType":"address"}],"outputs":[{"name":"withdrawalRoots","type":"bytes32[]","internalType":"bytes32[]"}],"stateMutability":"nonpayable"},{"type":"function","name":"unpause","inputs":[{"name":"newPausedStatus","type":"uint256","internalType":"uint256"}],"outputs":[],"stateMutability":"nonpayable"},{"type":"function","name":"updateOperatorMetadataURI","inputs":[{"name":"operator","type":"address","internalType":"address"},{"name":"metadataURI","type":"string","internalType":"string"}],"outputs":[],"stateMutability":"nonpayable"},{"type":"function","name":"version","inputs":[],"outputs":[{"name":"","type":"string","internalType":"string"}],"stateMutability":"view"},{"type":"event","name":"DelegationApproverUpdated","inputs":[{"name":"operator","type":"address","indexed":true,"internalType":"address"},{"name":"newDelegationApprover","type":"address","indexed":false,"internalType":"address"}],"anonymous":false},{"type":"event","name":"DepositScalingFactorUpdated","inputs":[{"name":"staker","type":"address","indexed":false,"internalType":"address"},{"name":"strategy","type":"address","indexed":false,"internalType":"contract IStrategy"},{"name":"newDepositScalingFactor","type":"uint256","indexed":false,"internalType":"uint256"}],"anonymous":false},{"type":"event","name":"Initialized","inputs":[{"name":"version","type":"uint8","indexed":false,"internalType":"uint8"}],"anonymous":false},{"type":"event","name":"OperatorMetadataURIUpdated","inputs":[{"name":"operator","type":"address","indexed":true,"internalType":"address"},{"name":"metadataURI","type":"string","indexed":false,"internalType":"string"}],"anonymous":false},{"type":"event","name":"OperatorRegistered","inputs":[{"name":"operator","type":"address","indexed":true,"internalType":"address"},{"name":"delegationApprover","type":"address","indexed":false,"internalType":"address"}],"anonymous":false},{"type":"event","name":"OperatorSharesDecreased","inputs":[{"name":"operator","type":"address","indexed":true,"internalType":"address"},{"name":"staker","type":"address","indexed":false,"internalType":"address"},{"name":"strategy","type":"address","indexed":false,"internalType":"contract IStrategy"},{"name":"shares","type":"uint256","indexed":false,"internalType":"uint256"}],"anonymous":false},{"type":"event","name":"OperatorSharesIncreased","inputs":[{"name":"operator","type":"address","indexed":true,"internalType":"address"},{"name":"staker","type":"address","indexed":false,"internalType":"address"},{"name":"strategy","type":"address","indexed":false,"internalType":"contract IStrategy"},{"name":"shares","type":"uint256","indexed":false,"internalType":"uint256"}],"anonymous":false},{"type":"event","name":"OperatorSharesSlashed","inputs":[{"name":"operator","type":"address","indexed":true,"internalType":"address"},{"name":"strategy","type":"address","indexed":false,"internalType":"contract IStrategy"},{"name":"totalSlashedShares","type":"uint256","indexed":false,"internalType":"uint256"}],"anonymous":false},{"type":"event","name":"OwnershipTransferred","inputs":[{"name":"previousOwner","type":"address","indexed":true,"internalType":"address"},{"name":"newOwner","type":"address","indexed":true,"internalType":"address"}],"anonymous":false},{"type":"event","name":"Paused","inputs":[{"name":"account","type":"address","indexed":true,"internalType":"address"},{"name":"newPausedStatus","type":"uint256","indexed":false,"internalType":"uint256"}],"anonymous":false},{"type":"event","name":"SlashingWithdrawalCompleted","inputs":[{"name":"withdrawalRoot","type":"bytes32","indexed":false,"internalType":"bytes32"}],"anonymous":false},{"type":"event","name":"SlashingWithdrawalQueued","inputs":[{"name":"withdrawalRoot","type":"bytes32","indexed":false,"internalType":"bytes32"},{"name":"withdrawal","type":"tuple","indexed":false,"internalType":"struct IDelegationManagerTypes.Withdrawal","components":[{"name":"staker","type":"address","internalType":"address"},{"name":"delegatedTo","type":"address","internalType":"address"},{"name":"withdrawer","type":"address","internalType":"address"},{"name":"nonce","type":"uint256","internalType":"uint256"},{"name":"startBlock","type":"uint32","internalType":"uint32"},{"name":"strategies","type":"address[]","internalType":"contract IStrategy[]"},{"name":"scaledShares","type":"uint256[]","internalType":"uint256[]"}]},{"name":"sharesToWithdraw","type":"uint256[]","indexed":false,"internalType":"uint256[]"}],"anonymous":false},{"type":"event","name":"StakerDelegated","inputs":[{"name":"staker","type":"address","indexed":true,"internalType":"address"},{"name":"operator","type":"address","indexed":true,"internalType":"address"}],"anonymous":false},{"type":"event","name":"StakerForceUndelegated","inputs":[{"name":"staker","type":"address","indexed":true,"internalType":"address"},{"name":"operator","type":"address","indexed":true,"internalType":"address"}],"anonymous":false},{"type":"event","name":"StakerUndelegated","inputs":[{"name":"staker","type":"address","indexed":true,"internalType":"address"},{"name":"operator","type":"address","indexed":true,"internalType":"address"}],"anonymous":false},{"type":"event","name":"Unpaused","inputs":[{"name":"account","type":"address","indexed":true,"internalType":"address"},{"name":"newPausedStatus","type":"uint256","indexed":false,"internalType":"uint256"}],"anonymous":false},{"type":"error","name":"ActivelyDelegated","inputs":[]},{"type":"error","name":"CallerCannotUndelegate","inputs":[]},{"type":"error","name":"CurrentlyPaused","inputs":[]},{"type":"error","name":"FullySlashed","inputs":[]},{"type":"error","name":"InputAddressZero","inputs":[]},{"type":"error","name":"InputArrayLengthMismatch","inputs":[]},{"type":"error","name":"InputArrayLengthZero","inputs":[]},{"type":"error","name":"InvalidNewPausedStatus","inputs":[]},{"type":"error","name":"InvalidPermissions","inputs":[]},{"type":"error","name":"InvalidShortString","inputs":[]},{"type":"error","name":"InvalidSignature","inputs":[]},{"type":"error","name":"InvalidSnapshotOrdering","inputs":[]},{"type":"error","name":"NotActivelyDelegated","inputs":[]},{"type":"error","name":"OnlyAllocationManager","inputs":[]},{"type":"error","name":"OnlyEigenPodManager","inputs":[]},{"type":"error","name":"OnlyPauser","inputs":[]},{"type":"error","name":"OnlyStrategyManagerOrEigenPodManager","inputs":[]},{"type":"error","name":"OnlyUnpauser","inputs":[]},{"type":"error","name":"OperatorNotRegistered","inputs":[]},{"type":"error","name":"OperatorsCannotUndelegate","inputs":[]},{"type":"error","name":"SaltSpent","inputs":[]},{"type":"error","name":"SignatureExpired","inputs":[]},{"type":"error","name":"StringTooLong","inputs":[{"name":"str","type":"string","internalType":"string"}]},{"type":"error","name":"WithdrawalDelayNotElapsed","inputs":[]},{"type":"error","name":"WithdrawalNotQueued","inputs":[]},{"type":"error","name":"WithdrawerNotCaller","inputs":[]}],"bytecode":{"object":"0x6101606040523461035457615b848038038061001a8161036c565b92833981019060e081830312610354578051906001600160a01b0382168203610354576020810151906001600160a01b03821682036103545760408101516001600160a01b03811681036103545760608201516001600160a01b03811694909390858503610354576080840151946001600160a01b03861686036103545760a08501519463ffffffff861686036103545760c0810151906001600160401b03821161035457019688601f890112156103545787516001600160401b038111610358576100ef601f8201601f191660200161036c565b98818a5260208a019a6020838301011161035457815f9260208093018d5e8a010152156103455760805260a05260c05260e0526101005261012052601f81511161030957519051602082106102f9575b17610140525f5460ff8160081c166102a45760ff8082160361026a575b6040516157f2908161039282396080518181816105f401528181610f230152818161199701526127c1015260a051818181610b5301528181610bbb01528181612f2101526147fc015260c051818181610ccc01528181610df20152818161153401528181611eca0152818161257301528181612f9a01528181613fbb015281816140c901526147cf015260e051818181610a2c01528181610c3a0152818161138d015281816116920152818161225601528181612d1801528181613707015281816137e6015261504b01526101005181818161172e0152818161207a0152818161441f01526145b0015261012051818181610dae0152614331015261014051818181610ec001526134d00152f35b60ff90811916175f557f7f26b83ff96e1f2b6a682f133852f6798a09c465da95921460cefb3847402498602060405160ff8152a15f61015c565b60405162461bcd60e51b815260206004820152602760248201527f496e697469616c697a61626c653a20636f6e747261637420697320696e697469604482015266616c697a696e6760c81b6064820152608490fd5b5f198260200360031b1b1661013f565b60449060405192839163305a27a960e01b8352602060048401525180918160248501528484015e5f828201840152601f01601f19168101030190fd5b6339b190bb60e11b5f5260045ffd5b5f80fd5b634e487b7160e01b5f52604160045260245ffd5b6040519190601f01601f191682016001600160401b038111838210176103585760405256fe60806040526004361015610011575f80fd5b5f3560e01c806304a4f979146103545780630b9f487a1461034f5780630dd8dd021461034a578063136439dd1461034557806325df922e146103405780632aa6d8881461033b57806339b70e38146103365780633c651cf2146103315780633cdeb5e01461032c5780633e28391d146103275780634657e26a146103225780634665bcda1461031d57806354b7c96c1461031857806354fd4d5014610313578063595c6a671461030e578063597b36da146103095780635ac86ab7146103045780635c975abb146102ff5780635d975e88146102fa5780635dd68579146102f5578063601bb36f146102f057806360a0d1ce146102eb57806365da1264146102e657806366d5ba93146102e15780636d70f7ae146102dc5780636e174448146102d7578063715018a6146102d2578063778e55f3146102cd57806378296ec5146102c8578063886f1195146102c35780638da5cb5b146102be57806390041347146102b95780639104c319146102b45780639435bb43146102af57806399f5371b146102aa578063a1788484146102a5578063a33a3433146102a0578063b7f06ebe1461029b578063bb45fef214610296578063bfae3fd214610291578063c448feb81461028c578063c978f7ac14610287578063ca8aa7c714610282578063cd6dc6871461027d578063da8be86414610278578063e4cc3f9014610273578063eea9064b1461026e578063f0e0e67614610269578063f2fde38b14610264578063f698da251461025f578063fabc1cbc1461025a5763fd8aa88d14610255575f80fd5b61285c565b612798565b61277e565b6126ed565b61262c565b612428565b6123a1565b61236f565b612285565b612241565b6120c3565b61205e565b612018565b611fca565b611f9b565b611d55565b611c4b565b611b88565b611a7b565b611a54565b611a26565b6119c6565b611982565b6118ee565b6118aa565b61184f565b611653565b611607565b6115c5565b611582565b611506565b611349565b61125e565b611149565b61107e565b61104b565b611011565b610ef8565b610ea8565b610e21565b610ddd565b610d99565b610d4e565b610cfa565b610b82565b610b3e565b6109b9565b610848565b6105c4565b610477565b6103bf565b610367565b5f91031261036357565b5f80fd5b34610363575f3660031901126103635760206040517f14bde674c9f64b2ad00eaaee4a8bed1fabef35c7507e3c5b9cfc9436909a2dad8152f35b6001600160a01b0381160361036357565b35906103bd826103a1565b565b346103635760a03660031901126103635760206104066004356103e1816103a1565b6024356103ed816103a1565b6044356103f9816103a1565b60643591608435936128d1565b604051908152f35b9181601f84011215610363578235916001600160401b038311610363576020808501948460051b01011161036357565b60206040818301928281528451809452019201905f5b8181106104615750505090565b8251845260209384019390920191600101610454565b34610363576020366003190112610363576004356001600160401b038111610363576104a790369060040161040e565b906104bf6104b9600280606654161490565b1561297b565b6104c76135db565b6104d082612991565b335f908152609a60205260409020549092906001600160a01b03165f5b8281106105125761050e85610502600160c955565b6040519182918261043e565b0390f35b8061054f61052c61052660019487896129d7565b806129f9565b905061054661053c84888a6129d7565b60208101906129f9565b91905014612a2e565b6105b361057461056d61056661052685898b6129d7565b3691610729565b85336137b4565b866105ab876105a361059961053c8861059161052682878a6129d7565b9590976129d7565b9490923691610729565b92369161079d565b908633613ab0565b6105bd8288612a51565b52016104ed565b346103635760203660031901126103635760043560405163237dfb4760e11b8152336004820152906020826024817f00000000000000000000000000000000000000000000000000000000000000006001600160a01b03165afa91821561067f5761064e9261063a915f91610650575b50612a85565b61064960665482811614612a9b565b613e04565b005b610672915060203d602011610678575b61066a81836106d3565b810190612a65565b5f610634565b503d610660565b612a7a565b634e487b7160e01b5f52604160045260245ffd5b60e081019081106001600160401b038211176106b357604052565b610684565b604081019081106001600160401b038211176106b357604052565b90601f801991011681019081106001600160401b038211176106b357604052565b604051906103bd60e0836106d3565b604051906103bd6040836106d3565b6001600160401b0381116106b35760051b60200190565b92919061073581610712565b9361074360405195866106d3565b602085838152019160051b810192831161036357905b82821061076557505050565b602080918335610774816103a1565b815201910190610759565b9080601f830112156103635781602061079a93359101610729565b90565b9291906107a981610712565b936107b760405195866106d3565b602085838152019160051b810192831161036357905b8282106107d957505050565b81358152602091820191016107cd565b9080601f830112156103635781602061079a9335910161079d565b90602080835192838152019201905f5b8181106108215750505090565b8251845260209384019390920191600101610814565b90602061079a928181520190610804565b3461036357606036600319011261036357600435610865816103a1565b6024356001600160401b0381116103635761088490369060040161077f565b906044356001600160401b038111610363576108a49036906004016107e9565b6001600160a01b038281165f818152609a602052604090205490936108cc92869216906137b4565b6108d68451612991565b935f5b815181101561095a57600190855f5260a260205261094961092d61092860405f206109146109078689612a51565b516001600160a01b031690565b60018060a01b03165f5260205260405f2090565b612ad3565b6109378388612a51565b516109428488612a51565b5191613e36565b6109538289612a51565b52016108d9565b6040518061050e8882610837565b6024359063ffffffff8216820361036357565b359063ffffffff8216820361036357565b9181601f84011215610363578235916001600160401b038311610363576020838186019501011161036357565b34610363576060366003190112610363576004356109d6816103a1565b6109de610968565b6044356001600160401b038111610363576109fd90369060040161098c565b610a089391936135db565b335f908152609a6020526040902054610a2a906001600160a01b031615612af6565b7f00000000000000000000000000000000000000000000000000000000000000006001600160a01b0316803b1561036357604051632b6241f360e11b815233600482015263ffffffff9490941660248501525f908490604490829084905af191821561067f577f02a919ed0e2acad1dd90f17ef2fa4ae5462ee1339170034a8531cca4b670809093610b1793610b24575b50610ac68133613e52565b610ad03333613eb2565b6040516001600160a01b0391909116815233907fa453db612af59e5521d6ab9284dc3e2d06af286eb1b1b7b771fce4716c19f2c190602090a2604051918291339583612b0c565b0390a261064e600160c955565b80610b325f610b38936106d3565b80610359565b5f610abb565b34610363575f366003190112610363576040517f00000000000000000000000000000000000000000000000000000000000000006001600160a01b03168152602090f35b3461036357608036600319011261036357600435610b9f816103a1565b602435610bab816103a1565b6064356044356001600160a01b037f00000000000000000000000000000000000000000000000000000000000000001633148015610cc8575b15610cb957610bf16135db565b6001600160a01b038481165f908152609a602090815260409182902054915163152667d960e31b81529183166004830181905286841660248401529196919592879060449082907f0000000000000000000000000000000000000000000000000000000000000000165afa95861561067f57610c8096610c7a915f91610c8a575b508383614074565b9461426c565b61064e600160c955565b610cac915060203d602011610cb2575b610ca481836106d3565b810190612b33565b5f610c72565b503d610c9a565b63045206a560e21b5f5260045ffd5b50337f00000000000000000000000000000000000000000000000000000000000000006001600160a01b031614610be4565b34610363576020366003190112610363576020610d3c600435610d1c816103a1565b6001600160a01b039081165f908152609960205260409020600101541690565b6040516001600160a01b039091168152f35b34610363576020366003190112610363576020610d8f600435610d70816103a1565b6001600160a01b039081165f908152609a602052604090205416151590565b6040519015158152f35b34610363575f366003190112610363576040517f00000000000000000000000000000000000000000000000000000000000000006001600160a01b03168152602090f35b34610363575f366003190112610363576040517f00000000000000000000000000000000000000000000000000000000000000006001600160a01b03168152602090f35b3461036357604036600319011261036357610e7d600435610e41816103a1565b60243590610e4e826103a1565b610e5f610e5a826142e8565b612b48565b610e676135db565b610e78610e73826130d3565b612b5e565b613e52565b600160c955005b805180835260209291819084018484015e5f828201840152601f01601f1916010190565b34610363575f3660031901126103635761050e610ee47f000000000000000000000000000000000000000000000000000000000000000061437d565b604051918291602083526020830190610e84565b34610363575f3660031901126103635760405163237dfb4760e11b81523360048201526020816024817f00000000000000000000000000000000000000000000000000000000000000006001600160a01b03165afa801561067f57610f63915f916106505750612a85565b61064e613dd0565b91909160e08184031261036357610f806106f4565b92610f8a826103b2565b8452610f98602083016103b2565b6020850152610fa9604083016103b2565b604085015260608201356060850152610fc46080830161097b565b608085015260a08201356001600160401b0381116103635781610fe891840161077f565b60a085015260c08201356001600160401b0381116103635761100a92016107e9565b60c0830152565b34610363576020366003190112610363576004356001600160401b038111610363576104066110466020923690600401610f6b565b612b74565b346103635760203660031901126103635760043560ff81168091036103635760016020911b806066541614604051908152f35b34610363575f366003190112610363576020606654604051908152f35b90602080835192838152019201905f5b8181106110b85750505090565b82516001600160a01b03168452602093840193909201916001016110ab565b80516001600160a01b039081168352602080830151821690840152604080830151909116908301526060808201519083015260808082015163ffffffff169083015261079a9160c061113860a084015160e060a085015260e084019061109b565b9201519060c0818403910152610804565b346103635760203660031901126103635761118b61050e61117460043561116e612b9f565b506143d5565b6040929192519384936040855260408501906110d7565b908382036020850152610804565b9080602083519182815201916020808360051b8301019401925f915b8383106111c457505050505090565b90919293946020806111e2600193601f198682030187528951610804565b970193019301919392906111b5565b929160408401936040815282518095526060810194602060608260051b8401019401905f5b8181106112335750505061079a9394506020818403910152611199565b90919460208061124f600193605f19888203018c5289516110d7565b97019801910196919096611216565b346103635760203660031901126103635760043561127b816103a1565b60018060a01b03165f5260a360205260405f20604051808260208294549384815201905f5260205f20925f5b81811061131f5750506112bc925003826106d3565b80516112c781612bd5565b906112d181612c24565b925f5b8281106112ed5750505061050e604051928392836111f1565b806113036112fd60019385612a51565b516143d5565b61130d8389612a51565b526113188287612a51565b52016112d4565b84548352600194850194869450602090930192016112a7565b6001600160401b0381160361036357565b3461036357608036600319011261036357600435611366816103a1565b602435611372816103a1565b6044359161137f83611338565b60643561138b81611338565b7f00000000000000000000000000000000000000000000000000000000000000006001600160a01b031633036114f75761143561142f61143d926113cd6135db565b611427611403876113ee8860018060a01b03165f52609860205260405f2090565b9060018060a01b03165f5260205260405f2090565b546114216001600160401b038a166001600160401b038516836150f7565b9061450f565b96868661454e565b85612c8f565b938383614655565b604080516001600160a01b0384811682526020820186905292909216917fdd611f4ef63f4385f1756c86ce1f1f389a9013ba6fa07daba8528291bc2d3c309190a261149661148a826147b1565b6001600160a01b031690565b91823b156103635760405163debe1eab60e01b81526001600160a01b039290921660048301526024820152905f908290604490829084905af1801561067f576114e35761064e600160c955565b80610b325f6114f1936106d3565b5f610c80565b6323d871a560e01b5f5260045ffd5b3461036357606036600319011261036357600435611523816103a1565b60443560243561153282611338565b7f00000000000000000000000000000000000000000000000000000000000000006001600160a01b0316330361157357610e7d9261156e6135db565b612c9c565b633213a66160e21b5f5260045ffd5b346103635760203660031901126103635760043561159f816103a1565b60018060a01b03165f52609a602052602060018060a01b0360405f205416604051908152f35b346103635760203660031901126103635761118b61050e6115f06004356115eb816103a1565b612ef8565b60409291925193849360408552604085019061109b565b34610363576020366003190112610363576020610d8f600435611629816103a1565b6130d3565b604090600319011261036357600435611646816103a1565b9060243561079a816103a1565b34610363576116613661162e565b60405163152667d960e31b81526001600160a01b0380841660048301528216602482015291602083806044810103817f00000000000000000000000000000000000000000000000000000000000000006001600160a01b03165afa92831561067f575f9361182a575b506117269060018060a01b031691825f5260a56020526117056117008260405f209060018060a01b03165f5260205260405f2090565b615126565b925f5260a560205260405f209060018060a01b03165f5260205260405f2090565b61175e6117597f000000000000000000000000000000000000000000000000000000000000000063ffffffff4316614534565b61451c565b8154919063ffffffff165f5b8381106117db5761050e61179a5f88611795898989816117aa5750506001600160e01b038416611421565b615153565b6040519081529081906020820190565b6117c86117cf916117bd61142194614501565b905f5260205f200190565b5460201c90565b6001600160e01b031690565b90928082169080831860011c820180921161182557835f528463ffffffff8360205f20015416115f146118115750925b9061176a565b93915060018101809111611825579061180b565b612c6d565b6117269193506118489060203d602011610cb257610ca481836106d3565b92906116ca565b34610363575f3660031901126103635761186761483d565b603380546001600160a01b031981169091555f906001600160a01b03167f8be0079c531659141344cd1fd0a4f28419497f9722a3daafe3b4186f6b6457e08280a3005b346103635760206118e56118bd3661162e565b6001600160a01b039182165f9081526098855260408082209290931681526020919091522090565b54604051908152f35b346103635760403660031901126103635760043561190b816103a1565b6024356001600160401b0381116103635761194b7f02a919ed0e2acad1dd90f17ef2fa4ae5462ee1339170034a8531cca4b670809091369060040161098c565b9092611959610e5a826142e8565b611965610e73826130d3565b61197d60405192839260018060a01b03169583612b0c565b0390a2005b34610363575f366003190112610363576040517f00000000000000000000000000000000000000000000000000000000000000006001600160a01b03168152602090f35b34610363575f366003190112610363576033546040516001600160a01b039091168152602090f35b90604060031983011261036357600435611a07816103a1565b91602435906001600160401b0382116103635761079a9160040161077f565b346103635761050e611a40611a3a366119ee565b90613106565b604051918291602083526020830190610804565b34610363575f3660031901126103635760206040515f51602061579d5f395f51905f528152f35b34610363576060366003190112610363576004356001600160401b03811161036357611aab90369060040161040e565b6024356001600160401b03811161036357611aca90369060040161040e565b916044356001600160401b03811161036357611aed90939193369060040161040e565b90611aff6104b9600480606654161490565b611b076135db565b3686900360de1901925f5b86811015610c80578060051b908189013591868312156103635783821015611b7257600192611b46611b6c928a018a6129f9565b90611b678d611b5e611b59888d8d613179565b613189565b94369101610f6b565b614980565b01611b12565b6129c3565b90602061079a9281815201906110d7565b3461036357602036600319011261036357600435611ba4612b9f565b505f5260a460205261050e60405f20611c3a600660405192611bc584610698565b80546001600160a01b0316845260018101546001600160a01b0316602085015260028101546001600160a01b0316604085015260038101546060850152611c23611c16600483015463ffffffff1690565b63ffffffff166080860152565b611c2f60058201613193565b60a0850152016131e4565b60c082015260405191829182611b77565b3461036357602036600319011261036357600435611c68816103a1565b60018060a01b03165f52609f602052602060405f2054604051908152f35b6001600160401b0381116106b357601f01601f191660200190565b90606060031983011261036357600435611cba816103a1565b91602435906001600160401b03821161036357604082820360031901126103635760405191611ce8836106b8565b80600401356001600160401b0381116103635781019180602384011215610363576004830135611d1781611c86565b91611d2560405193846106d3565b81835260248583010111610363576020815f92602480970183860137830101528352013560208201529060443590565b3461036357611db4611d6636611ca1565b611d73939192933361332e565b92611d7c6135db565b335f908152609a6020526040902054611da1906001600160a01b031615155b15612af6565b611dad610e73866130d3565b8433614e66565b611dc56104b9600180606654161490565b611dce33612ef8565b611dda828593956136d6565b335f908152609a60205260409020909190611e119084905b80546001600160a01b0319166001600160a01b03909216919091179055565b6001600160a01b038316337fc3ee9f2e5fda98e8066a1f745b2df9285f416fe98cf2559cd21484b3d87433045f80a35f5b8551811015611f8d575f51602061579d5f395f51905f52611e6961148a610907848a612a51565b14611ea6575b80611ea0611e826109076001948a612a51565b611e8c8386612a51565b51611e978488612a51565b5191338961413e565b01611e42565b60405163a3d75e0960e01b8152336004820152906020826024816001600160a01b037f0000000000000000000000000000000000000000000000000000000000000000165afa91821561067f57600192611f5d915f91611f6f575b506001600160401b03611f55611f3b6109288c61091461090789611f353360018060a01b03165f5260a260205260405f2090565b93612a51565b611f4f611f48878a612a51565b5191614cdf565b90615272565b911690615272565b611f678285612a51565b529050611e6f565b611f87915060203d8111610cb257610ca481836106d3565b5f611f01565b61050e85610502600160c955565b34610363576020366003190112610363576004355f52609e602052602060ff60405f2054166040519015158152f35b3461036357604036600319011261036357600435611fe7816103a1565b6024359060018060a01b03165f52609c60205260405f20905f52602052602060ff60405f2054166040519015158152f35b346103635760206104066120596109286120313661162e565b6001600160a01b039182165f90815260a2875260408082209290931681526020919091522090565b614cdf565b34610363575f36600319011261036357602060405163ffffffff7f0000000000000000000000000000000000000000000000000000000000000000168152f35b90916120b561079a93604084526040840190610804565b916020818403910152610804565b34610363576120d1366119ee565b6120db8151612991565b6120e58251612991565b9161211a816121146121078760018060a01b03165f52609a60205260405f2090565b546001600160a01b031690565b866137b4565b5f5b825181101561222f5780602061214361148a61213e6109076121849689612a51565b6147b1565b6121506109078488612a51565b60405163fe243a1760e01b81526001600160a01b03808c166004830152909116602482015293849190829081906044820190565b03915afa801561067f576001925f91612201575b506121a38288612a51565b526121f06121d46109286121c78a60018060a01b03165f5260a260205260405f2090565b610914610907868a612a51565b6121de8389612a51565b516121e98487612a51565b5191614827565b6121fa8287612a51565b520161211c565b612222915060203d8111612228575b61221a81836106d3565b810190612ee9565b5f612198565b503d612210565b50505061050e6040519283928361209e565b34610363575f366003190112610363576040517f00000000000000000000000000000000000000000000000000000000000000006001600160a01b03168152602090f35b34610363576040366003190112610363576004356122a2816103a1565b6122e76024355f54926122cd60ff600886901c161580958196612361575b8115612341575b506132ba565b836122de600160ff195f5416175f55565b61232a5761331d565b6122ed57005b6122fb61ff00195f54165f55565b604051600181527f7f26b83ff96e1f2b6a682f133852f6798a09c465da95921460cefb384740249890602090a1005b61233c61010061ff00195f5416175f55565b61331d565b303b15915081612353575b505f6122c7565b60ff1660011490505f61234c565b600160ff82161091506122c0565b346103635760203660031901126103635761050e610502600435612392816103a1565b61332e565b8015150361036357565b34610363576060366003190112610363576004356001600160401b0381116103635760e0600319823603011261036357602435906001600160401b038211610363576123f4610e7d92369060040161040e565b90611b676044359361240585612397565b6124166104b9600480606654161490565b61241e6135db565b3690600401610f6b565b346103635761247b61243936611ca1565b906124459392936135db565b335f908152609a6020526040902054612468906001600160a01b03161515611d9b565b612474610e73856130d3565b8333614e66565b61248c6104b9600180606654161490565b61249533612ef8565b90916124a183826136d6565b335f908152609a602052604090206124ba908390611df2565b6001600160a01b038216337fc3ee9f2e5fda98e8066a1f745b2df9285f416fe98cf2559cd21484b3d87433045f80a35f5b8451811015610c80575f51602061579d5f395f51905f5261251261148a6109078489612a51565b1461254f575b8061254961252b61090760019489612a51565b6125358388612a51565b516125408487612a51565b5191338861413e565b016124eb565b60405163a3d75e0960e01b8152336004820152906020826024816001600160a01b037f0000000000000000000000000000000000000000000000000000000000000000165afa91821561067f576001926125eb915f916125fd575b506001600160401b03611f556125de6109288b61091461090789611f353360018060a01b03165f5260a260205260405f2090565b611f4f611f48878c612a51565b6125f58287612a51565b529050612518565b612615915060203d8111610cb257610ca481836106d3565b5f6125aa565b90602061079a928181520190611199565b34610363576040366003190112610363576004356001600160401b03811161036357366023820112156103635780600401359061266882610712565b9161267660405193846106d3565b8083526024602084019160051b8301019136831161036357602401905b8282106126d357836024356001600160401b0381116103635761050e916126c16126c792369060040161077f565b90613451565b6040519182918261261b565b6020809183356126e2816103a1565b815201910190612693565b346103635760203660031901126103635760043561270a816103a1565b61271261483d565b6001600160a01b0381161561272a5761064e90614895565b60405162461bcd60e51b815260206004820152602660248201527f4f776e61626c653a206e6577206f776e657220697320746865207a65726f206160448201526564647265737360d01b6064820152608490fd5b34610363575f3660031901126103635760206104066134a4565b346103635760203660031901126103635760043560405163755b36bd60e11b81526020816004817f00000000000000000000000000000000000000000000000000000000000000006001600160a01b03165afa90811561067f575f91612821575b506001600160a01b031633036128125761064e90613598565b63794821ff60e01b5f5260045ffd5b90506020813d602011612854575b8161283c602093836106d3565b81010312610363575161284e816103a1565b5f6127f9565b3d915061282f565b3461036357602036600319011261036357600435612879816103a1565b60018060a01b03165f5260a360205260405f206040519081602082549182815201915f5260205f20905f5b8181106128bb5761050e85610502818703826106d3565b82548452602090930192600192830192016128a4565b604080517f14bde674c9f64b2ad00eaaee4a8bed1fabef35c7507e3c5b9cfc9436909a2dad602082019081526001600160a01b0395861692820192909252918416606083015292909116608082015260a081019290925260c08083019390935291815261293f60e0826106d3565b51902061294a6134a4565b9060405190602082019261190160f01b845260228301526042820152604281526129756062826106d3565b51902090565b1561298257565b63840a48d560e01b5f5260045ffd5b9061299b82610712565b6129a860405191826106d3565b82815280926129b9601f1991610712565b0190602036910137565b634e487b7160e01b5f52603260045260245ffd5b9190811015611b725760051b81013590605e1981360301821215610363570190565b903590601e198136030182121561036357018035906001600160401b03821161036357602001918160051b3603831361036357565b15612a3557565b6343714afd60e01b5f5260045ffd5b805115611b725760200190565b8051821015611b725760209160051b010190565b90816020910312610363575161079a81612397565b6040513d5f823e3d90fd5b15612a8c57565b631d77d47760e21b5f5260045ffd5b15612aa257565b63c61dca5d60e01b5f5260045ffd5b60408051909190612ac283826106d3565b6001815291601f1901366020840137565b90604051602081018181106001600160401b038211176106b35760405291548252565b15612afd57565b633bf2b50360e11b5f5260045ffd5b90918060409360208452816020850152848401375f828201840152601f01601f1916010190565b90816020910312610363575161079a81611338565b15612b4f57565b63932d94f760e01b5f5260045ffd5b15612b6557565b6325ec6c1f60e01b5f5260045ffd5b60405161297581612b9160208201946020865260208601906110d7565b03601f1981018352826106d3565b60405190612bac82610698565b606060c0835f81525f60208201525f60408201525f838201525f60808201528260a08201520152565b90612bdf82610712565b612bec60405191826106d3565b8281528092612bfd601f1991610712565b01905f5b828110612c0d57505050565b602090612c18612b9f565b82828501015201612c01565b90612c2e82610712565b612c3b60405191826106d3565b8281528092612c4c601f1991610712565b01905f5b828110612c5c57505050565b806060602080938501015201612c50565b634e487b7160e01b5f52601160045260245ffd5b906001820180921161182557565b9190820180921161182557565b6001600160a01b038181165f908152609a60205260409020541615612de5576001600160a01b0381165f908152609a60205260409020612cdb90612107565b60405163152667d960e31b81526001600160a01b03821660048201525f51602061579d5f395f51905f5260248201529092602082806044810103817f00000000000000000000000000000000000000000000000000000000000000006001600160a01b03165afa90811561067f576103bd95612dba935f93612dc0575b50612db490612d97610928612d7d8860018060a01b03165f5260a260205260405f2090565b5f51602061579d5f395f51905f525f5260205260405f2090565b936001600160401b0380670de0b6b3a76400005b931691166152e7565b91614827565b916146c8565b612db4919350612dde9060203d602011610cb257610ca481836106d3565b9290612d58565b505050565b9080601f83011215610363578151612e0181610712565b92612e0f60405194856106d3565b81845260208085019260051b82010192831161036357602001905b828210612e375750505090565b8151815260209182019101612e2a565b9190916040818403126103635780516001600160401b03811161036357810183601f8201121561036357805190612e7d82610712565b91612e8b60405193846106d3565b80835260208084019160051b8301019186831161036357602001905b828210612ecf575050509260208201516001600160401b0381116103635761079a9201612dea565b602080918351612ede816103a1565b815201910190612ea7565b90816020910312610363575190565b6040516394f649dd60e01b81526001600160a01b038216600482015291905f83806024810103817f00000000000000000000000000000000000000000000000000000000000000006001600160a01b03165afa90811561067f575f935f926130a5575b5060405163fe243a1760e01b81526001600160a01b0390911660048201525f51602061579d5f395f51905f5260248201529060208280604481015b03817f00000000000000000000000000000000000000000000000000000000000000006001600160a01b03165afa91821561067f575f92613084575b50811561307f57612feb612fe68551612c81565b612991565b93612ff9612fe68251612c81565b9261301a613008835188612a51565b5f51602061579d5f395f51905f529052565b613025825185612a51565b525f5b8151811015613079578061305d61304461090760019486612a51565b61304e838a612a51565b6001600160a01b039091169052565b6130678185612a51565b516130728287612a51565b5201613028565b50505090565b919050565b61309e91925060203d6020116122285761221a81836106d3565b905f612fd2565b60209450612f9692506130c9903d805f833e6130c181836106d3565b810190612e47565b9490949250612f5b565b6001600160a01b031680151590816130e9575090565b5f818152609a60205260409020546001600160a01b031614919050565b9190916131138351612991565b905f5b8451811015613172576001600160a01b038281165f90815260986020526040902060019291613160919061314a848a612a51565b511660018060a01b03165f5260205260405f2090565b5461316b8286612a51565b5201613116565b5090925050565b9190811015611b725760051b0190565b3561079a81612397565b90604051918281549182825260208201905f5260205f20925f5b8181106131c25750506103bd925003836106d3565b84546001600160a01b03168352600194850194879450602090930192016131ad565b90604051918281549182825260208201905f5260205f20925f5b8181106132135750506103bd925003836106d3565b84548352600194850194879450602090930192016131fe565b9060405161323981610698565b82546001600160a01b039081168252600184015416602082015291829060c0906132b59060069060028101546001600160a01b031660408601526003810154606086015261329e613291600483015463ffffffff1690565b63ffffffff166080870152565b6132aa60058201613193565b60a0860152016131e4565b910152565b156132c157565b60405162461bcd60e51b815260206004820152602e60248201527f496e697469616c697a61626c653a20636f6e747261637420697320616c72656160448201526d191e481a5b9a5d1a585b1a5e995960921b6064820152608490fd5b6133296103bd92613e04565b614895565b6133366135db565b6001600160a01b038082165f908152609a6020526040902054161561342c5761335e816130d3565b61341d5761337f906001600160a01b0381163381900361338a575b50614cf2565b906103bd600160c955565b6001600160a01b0382165f908152609a60205260409020546001600160a01b03166133b4816142e8565b80156133f8575b6133c49061343b565b6001600160a01b0316907ff0eddf07e6ea14f388b47e1e94a0f464ecbd9eed4171130e0fc0e99fb4030a8a5f80a35f613379565b506001600160a01b038181165f908152609960205260409020600101541633146133bb565b6311ca333560e31b5f5260045ffd5b63a5c7c44560e01b5f5260045ffd5b1561344257565b631e499a2360e11b5f5260045ffd5b9061345c8251612c24565b915f5b815181101561307957600190613488846001600160a01b036134818487612a51565b5116613106565b6134928287612a51565b5261349d8186612a51565b500161345f565b600a60206040516134b66040826106d3565b828152016922b4b3b2b72630bcb2b960b11b8152206134f47f000000000000000000000000000000000000000000000000000000000000000061437d565b805115611b725760ff60f81b60208201511690805160011015611b7257612b919161297591602160ff60f81b9101511660405190602082019283526021820152600281526135436022826106d3565b519020604080517f8b73c3c69bb8fe3d512ecc4cf759cc79239f7b179b0ffacaa9a75d522b39400f602082019081529181019590955260608501919091524660808501523060a08501529291829060c0820190565b6135a9606654198219811614612a9b565b806066556040519081527f3582d1828e26bf56bd801502bc021ac0bc8afb57c826e4986b45593c8fad389c60203392a2565b600260c954146135ec57600260c955565b60405162461bcd60e51b815260206004820152601f60248201527f5265656e7472616e637947756172643a207265656e7472616e742063616c6c006044820152606490fd5b602081830312610363578051906001600160401b03821161036357019080601f8301121561036357815161366481610712565b9261367260405194856106d3565b81845260208085019260051b82010192831161036357602001905b82821061369a5750505090565b6020809183516136a981611338565b81520191019061368d565b6001600160a01b03909116815260406020820181905261079a9291019061109b565b61370392915f816136e78151612991565b93604051968792839263547afb8760e01b8452600484016136b4565b03817f00000000000000000000000000000000000000000000000000000000000000006001600160a01b03165afa93841561067f575f94613790575b505f5b8151811015613172578061377f61375e61090760019486612a51565b61377861376b848a612a51565b516001600160401b031690565b905f614074565b6137898286612a51565b5201613742565b6137ad9194503d805f833e6137a581836106d3565b810190613631565b925f61373f565b92916137e2905f816137c68151612991565b94604051948592839263547afb8760e01b8452600484016136b4565b03817f00000000000000000000000000000000000000000000000000000000000000006001600160a01b03165afa91821561067f575f9261386a575b505f5b8151811015613862578061385161383d61090760019486612a51565b61384a61376b8488612a51565b9089614074565b61385b8287612a51565b5201613821565b509193505050565b61387f9192503d805f833e6137a581836106d3565b905f61381e565b1561388d57565b6339b190bb60e11b5f5260045ffd5b156138a357565b63796cc52560e01b5f5260045ffd5b6001600160a01b03918216815291166020820152604081019190915260600190565b5f1981146118255760010190565b916138fb9183549060031b91821b915f19901b19161790565b9055565b91909182821061390e57505050565b5f5260205f2091820191015b818110613925575050565b5f815560010161391a565b90600160401b81116106b35781548183556103bd926138ff565b8151916001600160401b0383116106b3576020906139688484613930565b01905f5260205f205f5b83811061397f5750505050565b82516001600160a01b031681830155602090920191600101613972565b8151916001600160401b0383116106b3576020906139ba8484613930565b01905f5260205f205f5b8381106139d15750505050565b6001906020845194019381840155016139c4565b815181546001600160a01b039182166001600160a01b0319918216178355602084015160018401805491841691831691909117905560408401516002840180549190931691161790556060820151600382015560808201516103bd9260069160c09190613a6b9063ffffffff16600486019063ffffffff1663ffffffff19825416179055565b613a7c60a08201516005860161394a565b0151910161399c565b91613aa29061079a949284526060602085015260608401906110d7565b916040818403910152610804565b9294919391929190613acc6001600160a01b0384161515613886565b613ad88551151561389c565b613ae28551612991565b91613aed8651612991565b905f5b8751811015613c92578060208a80613bb384611f356109078f98898f8f908f908f908f613bd49f90613b8988613b2f61213e61090783613b9097612a51565b9e613b79613b5b6109288c61091461090787611f358d60018060a01b03165f5260a260205260405f2090565b94613b7184613b6a8186612a51565b5192612a51565b519086614827565b613b838389612a51565b52612a51565b5190614f07565b613b9a8786612a51565b526001600160a01b038316613c48575b50505050612a51565b51915f8b6040519788958694859363724af42360e01b8552600485016138b2565b03926001600160a01b03165af1801561067f576001925f91613c2a575b5015613bfe575b01613af0565b5f613c248a61091461090785611f358d60018060a01b03165f5260a260205260405f2090565b55613bf8565b613c42915060203d81116122285761221a81836106d3565b5f613bf1565b613c6e613c8694613c6688613c60610907828b612a51565b92612a51565b519085614f14565b613c7f86611f356109078289612a51565b5192614747565b8f8f908f908f90613baa565b5050927f26b2aae26516e8719ef50ea2f6831a2efbd4e37dccdf0f6936b27bc08e793e30949650613db99192613db496613cdc8360018060a01b03165f52609f60205260405f2090565b546001600160a01b0384165f908152609f60205260409020613cfe81546138d4565b9055613d28613d0b6106f4565b6001600160a01b0386168152966001600160a01b03166020880152565b6001600160a01b038416604087015260608601524363ffffffff16608086015260a085015260c0840152613d5b83612b74565b958691613d80613d73845f52609e60205260405f2090565b805460ff19166001179055565b613d9b85613d96855f5260a460205260405f2090565b6139e5565b6001600160a01b03165f90815260a36020526040902090565b61545f565b50613dca6040519283928684613a85565b0390a190565b5f196066556040515f1981527fab40a374bc51de372200a8bc981af8c9ecdc08dfdaef0bb6e09f88f3c616ef3d60203392a2565b806066556040519081527fab40a374bc51de372200a8bc981af8c9ecdc08dfdaef0bb6e09f88f3c616ef3d60203392a2565b61079a9291613e47613e4d92614cdf565b906151d2565b6151d2565b6001600160a01b039081165f8181526099602090815260409182902060010180546001600160a01b0319169590941694851790935551928352917f773b54c04d756fcc5e678111f7d730de3be98192000799eee3d63716055a87c69190a2565b9190613ec56104b9600180606654161490565b613ece83612ef8565b613edb82849693966136d6565b91613efa84611df28360018060a01b03165f52609a60205260405f2090565b6001600160a01b038481169082167fc3ee9f2e5fda98e8066a1f745b2df9285f416fe98cf2559cd21484b3d87433045f80a35f5b865181101561406b575f51602061579d5f395f51905f52613f5561148a610907848b612a51565b14613f92575b80613f8c613f6e6109076001948b612a51565b613f788387612a51565b51613f838489612a51565b5191868a61413e565b01613f2e565b60405163a3d75e0960e01b81526001600160a01b038316600482015290602082806024810103817f00000000000000000000000000000000000000000000000000000000000000006001600160a01b03165afa91821561067f5760019261403b915f9161404d575b506001600160401b03611f5561402e6109288d61091461090789611f358d60018060a01b03165f5260a260205260405f2090565b611f4f611f48878b612a51565b6140458286612a51565b529050613f5b565b614065915060203d8111610cb257610ca481836106d3565b5f613ffa565b50505050509050565b91906001600160a01b03165f51602061579d5f395f51905f52146140a0576001600160401b0391501690565b60405163a3d75e0960e01b81526001600160a01b039092166004830152602082806024810103817f00000000000000000000000000000000000000000000000000000000000000006001600160a01b03165afa90811561067f5761079a925f9261411d575b506001600160401b0380670de0b6b3a7640000612dab565b61413791925060203d602011610cb257610ca481836106d3565b905f614105565b9093801561425d578315614256576001600160a01b038581165f90815260a2602090815260408083209387168352929052207f8be932bac54561f27260f95463d9b8ab37e06b2842e5ee2404157cc13df6eb8f916141b9916141ab91612059916109289091895f84614f91565b6040519182918689846138b2565b0390a16001600160a01b038085165f908152609a6020526040902054166141e1575b50505050565b61424a7f1ec042c965e2edd7107b51188ee0f383e22e76179041ab3a9d18ff151405166c93614224846113ee8560018060a01b03165f52609860205260405f2090565b61422f828254612c8f565b90556040516001600160a01b039093169592938493846138b2565b0390a25f8080806141db565b5050505050565b630a33bc6960e21b5f5260045ffd5b91929094801561425d5784156142e0576141ab6120597f8be932bac54561f27260f95463d9b8ab37e06b2842e5ee2404157cc13df6eb8f936109286141b99460018060a01b038b165f5260a2602052896142d98a60405f209060018060a01b03165f5260205260405f2090565b9384614f91565b505050505050565b604051631beb2b9760e31b81526001600160a01b0391821660048201523360248201523060448201525f80356001600160e01b03191660648301529091602091839160849183917f0000000000000000000000000000000000000000000000000000000000000000165af190811561067f575f91614364575090565b61079a915060203d6020116106785761066a81836106d3565b60ff811690601f82116143ac57604051916143996040846106d3565b6020808452838101919036833783525290565b632cd44ac360e21b5f5260045ffd5b9063ffffffff8091169116019063ffffffff821161182557565b6143f36143f8916143e4612b9f565b505f5260a460205260405f2090565b61322c565b9060a08201614408815151612991565b9061444461441d608086015163ffffffff1690565b7f0000000000000000000000000000000000000000000000000000000000000000906143bb565b63ffffffff431663ffffffff8216105f146144d257845161447f91906001600160a01b031660208701516001600160a01b0316845191615018565b939290925b60c08101915f5b8551518110156144c957806144b86144a66001938751612a51565b516144b1838b612a51565b5190615272565b6144c28288612a51565b520161448b565b50929350935050565b5083516144f8906001600160a01b031660208601516001600160a01b03168351916137b4565b93929092614484565b5f1981019190821161182557565b9190820391821161182557565b63ffffffff5f199116019063ffffffff821161182557565b9063ffffffff8091169116039063ffffffff821161182557565b6001600160a01b039081165f81815260a56020908152604080832094861683529390529190912090949392916145a89161458790615126565b955f5260a560205260405f209060018060a01b03165f5260205260405f2090565b6145db6117597f000000000000000000000000000000000000000000000000000000000000000063ffffffff4316614534565b8154919063ffffffff165f5b83811061460b575050946117959161079a959681155f146117aa57505f9050611421565b90928082169080831860011c820180921161182557835f528463ffffffff8360205f20015416115f146146415750925b906145e7565b93915060018101809111611825579061463b565b60018060a01b031691825f5260986020526146838260405f209060018060a01b03165f5260205260405f2090565b918254828103908111611825577f6909600037b75d7b4733aedd815442b5ec018a827751c832aaff64eba5d6d2dd93556146c36040519283925f846138b2565b0390a2565b91909160018060a01b031691825f52609860205260405f205f51602061579d5f395f51905f525f5260205260405f2090815491838303928311611825577f6909600037b75d7b4733aedd815442b5ec018a827751c832aaff64eba5d6d2dd935f51602061579d5f395f51905f52936146c39255604051938493846138b2565b6001600160a01b039081165f818152609860209081526040808320948716835293905291909120805491948083039493928511611825577f6909600037b75d7b4733aedd815442b5ec018a827751c832aaff64eba5d6d2dd946146c39255604051938493846138b2565b6001600160a01b03165f51602061579d5f395f51905f52036147fa577f00000000000000000000000000000000000000000000000000000000000000006001600160a01b031690565b7f00000000000000000000000000000000000000000000000000000000000000006001600160a01b031690565b61079a9291611f4f61483892614cdf565b615272565b6033546001600160a01b0316330361485157565b606460405162461bcd60e51b815260206004820152602060248201527f4f776e61626c653a2063616c6c6572206973206e6f7420746865206f776e65726044820152fd5b603380546001600160a01b039283166001600160a01b0319821681179092559091167f8be0079c531659141344cd1fd0a4f28419497f9722a3daafe3b4186f6b6457e05f80a3565b156148e457565b6316110d3560e21b5f5260045ffd5b156148fa57565b6387c9d21960e01b5f5260045ffd5b1561491057565b6378f67ae160e11b5f5260045ffd5b5f60066103bd9282815582600182015582600282015582600382015582600482015561495483600583018054908281556138ff565b018054908281556138ff565b9190826040910312610363576020825192015190565b3561079a816103a1565b93929360a08101926149958451518214612a2e565b60408201516149b7906149b0906001600160a01b031661148a565b33146148dd565b6149c082612b74565b6149e46149df6149d8835f52609e60205260405f2090565b5460ff1690565b6148f3565b7f1f40400889274ed07b24845e5054a87a0cab969eb1277aafe61ae352e7c32a00614aae614a57614a1f61441d608088015163ffffffff1690565b614a3663ffffffff821663ffffffff431611614909565b86516001600160a01b031660208801516001600160a01b03168a5191615018565b92614a7481614a6f613d9b895160018060a01b031690565b615504565b50614a8f614a8a825f5260a460205260405f2090565b61491f565b61179a614aa4825f52609e60205260405f2090565b805460ff19169055565b0390a182516001600160a01b03165f908152609a60205260409020614ad290612107565b8351614aea906001600160a01b0316828851916137b4565b5f5b87518051821015614cd2579088888888614b0e8f966109078761213e92612a51565b614b2a614b1f8760c0860151612a51565b516144b1888d612a51565b968715614cc35715614be15791516001600160a01b0392831692614b6b92614b66928892614b6091610907918591169951612a51565b95613179565b614976565b91813b1561036357604051630bab906360e21b81526001600160a01b039485166004820152908416602482015291909216604482015260648101939093525f908390608490829084905af191821561067f57600192614bcd575b505b01614aec565b80610b325f614bdb936106d3565b5f614bc5565b9151614c289660409590945091505f90614c0b906109079088906001600160a01b03169451612a51565b85516350ff722560e01b81529788958694859390600485016138b2565b03926001600160a01b03165af1801561067f5789614c7b91600194848b5f925f94614c80575b5051614c6991610907916001600160a01b03165b9551612a51565b614c738689612a51565b51938961426c565b614bc7565b610907919450614c62935091614caf614c699360403d8111614cbc575b614ca781836106d3565b810190614960565b9490949592505091614c4e565b503d614c9d565b50505050505060019150614bc7565b5050505050505050509050565b518061079a5750670de0b6b3a764000090565b61079a90614d076104b9600280606654161490565b6001600160a01b0381165f908152609a602052604090206060929190614d2c90612107565b90614d5a614d4a8260018060a01b03165f52609a60205260405f2090565b80546001600160a01b0319169055565b6001600160a01b038281169082167ffee30966a256b71e14bc0ebfc94315e28ef4a97a7131a9e2b7a310a73af446765f80a3614d9581612ef8565b9190948551908115614e485750614dab90612991565b92614db78682846137b4565b915f5b8751811015614e3e57600190614e2d89614dd2612ab1565b614dda612ab1565b90614dfc614df361090787614ded612ab1565b96612a51565b61304e83612a44565b614e06858b612a51565b51614e1083612a44565b52614e1b858a612a51565b51614e2584612a44565b528787613ab0565b614e378289612a51565b5201614dba565b5093955050505050565b955050505050565b15614e5757565b630d4c4c9160e21b5f5260045ffd5b6001600160a01b038281165f908152609960205260409020600101549194911692908315614256576103bd94614efd91855f52609c60205260405f20815f52602052614ec1614ebc60ff60405f20541615151590565b614e50565b614eef613d7382614ee28960018060a01b03165f52609c60205260405f2090565b905f5260205260405f2090565b8560208501958651936128d1565b9051915192615334565b90611f4f61079a92614cdf565b6001600160a01b039081165f81815260a560209081526040808320948616835293905291909120909291614f6c91614f4b90615126565b935f5260a560205260405f209060018060a01b03165f5260205260405f2090565b908201809211611825576103bd916001600160e01b0316904363ffffffff1690615613565b9290918215614fd457614fb382614838614fad61205988612ad3565b86615272565b90808201809211611825578301809311611825576138fb92613e4d916151d2565b506138fb9150613e4d61205984612ad3565b9161501163ffffffff9160409396959660018060a01b0316855260606020860152606085019061109b565b9416910152565b939290915f816150288151612991565b946150476040519586938493632535f40360e21b855260048501614fe6565b03817f00000000000000000000000000000000000000000000000000000000000000006001600160a01b03165afa91821561067f575f926150b3575b505f5b815181101561386257806150a261383d61090760019486612a51565b6150ac8287612a51565b5201615086565b6150c89192503d805f833e6137a581836106d3565b905f615083565b634e487b7160e01b5f52602160045260245ffd5b634e487b7160e01b5f52601260045260245ffd5b91906151048282856152e7565b92821561512157096151135790565b600181018091116118255790565b6150e3565b8054908161513557505f919050565b815f19810111611825575f525f199060205f2001015460201c6117cf565b916001600160401b03809116911603906001600160401b038211611825576001600160401b0361079a921690615272565b8115615121570490565b1561519557565b60405162461bcd60e51b81526020600482015260156024820152744d6174683a206d756c446976206f766572666c6f7760581b6044820152606490fd5b5f19670de0b6b3a7640000820991670de0b6b3a764000082029182808510940393808503941461526657670de0b6b3a7640000829161521286841161518e565b09600182190182168092046002816003021880820260020302808202600203028082026002030280820260020302808202600203028091026002030293600183805f03040190848311900302920304170290565b509061079a9250615184565b5f19828209828202918280831092039180830392146152d6577faccb18165bd6fe31ae1cf318dc5b51eee0e1ba569b88cd74c1773b91fac1066993670de0b6b3a7640000916152c284841161518e565b0990828211900360ee1b910360121c170290565b50670de0b6b3a76400009250500490565b90915f1983830992808302928380861095039480860395146153115790829161521286841161518e565b50509061079a9250615184565b1561532557565b638baa579f60e01b5f5260045ffd5b9092421161543b5761534682846156ec565b9390926005851015615436576103bd94159384615420575b50831561536e575b50505061531e565b5f935090612b916153a68594936040519283916020830195630b135d3f60e11b87526024840152604060448401526064830190610e84565b51915afa3d15615419573d6153ba81611c86565b906153c860405192836106d3565b81523d5f602083013e5b8161540b575b816153e7575b505f8080615366565b9050615404630b135d3f60e11b9160208082518301019101612ee9565b145f6153de565b9050602081511015906153d8565b60606153d2565b6001600160a01b0384811691161493505f61535e565b6150cf565b630819bdcd60e01b5f5260045ffd5b8054821015611b72575f5260205f2001905f90565b6001810190825f528160205260405f2054155f146154c2578054600160401b8110156106b3576154af61549982600187940185558461544a565b819391549060031b91821b915f19901b19161790565b905554915f5260205260405f2055600190565b5050505f90565b805480156154f0575f1901906154df828261544a565b8154905f199060031b1b1916905555565b634e487b7160e01b5f52603160045260245ffd5b6001810191805f528260205260405f2054928315155f1461559f575f1984018481116118255783545f19810194908511611825575f958583614ee2946155529803615558575b5050506154c9565b55600190565b6155886155829161557961556f615596958861544a565b90549060031b1c90565b9283918761544a565b906138e2565b85905f5260205260405f2090565b555f808061554a565b505050505f90565b156155ae57565b63151b8e3f60e11b5f5260045ffd5b8054600160401b8110156106b3576155da9160018201815561544a565b61560057815160209283015190921b63ffffffff191663ffffffff909216919091179055565b634e487b7160e01b5f525f60045260245ffd5b80548061564f575b5061564a6103bd9361563a61562e610703565b63ffffffff9095168552565b6001600160e01b03166020840152565b6155bd565b805f1981011161182557815f5263ffffffff6156bd6156b45f198460205f2001016156aa61569c60405192615683846106b8565b548681169081855260201c602085015263ffffffff1690565b8589169586911611156155a7565b5163ffffffff1690565b63ffffffff1690565b0361561b576103bd939250906117bd6156d592614501565b9063ffffffff82549181199060201b169116179055565b9060418151145f146157185761571491602082015190606060408401519301515f1a90615721565b9091565b50505f90600290565b7f7fffffffffffffffffffffffffffffff5d576e7357a4501ddfe92f46681b20a08411615791576020935f9360ff60809460405194855216868401526040830152606082015282805260015afa1561067f575f516001600160a01b0381161561578957905f90565b505f90600190565b505050505f9060039056fe000000000000000000000000beac0eeeeeeeeeeeeeeeeeeeeeeeeeeeeeebeac0a264697066735822122071904c1947e6b7a3219793a609bb37ffb9f1d99902e6c8b68fefd0f0e684563064736f6c634300081b0033","linkReferences":{}},"methodIdentifiers":{"DELEGATION_APPROVAL_TYPEHASH()":"04a4f979","allocationManager()":"ca8aa7c7","beaconChainETHStrategy()":"9104c319","calculateDelegationApprovalDigestHash(address,address,address,bytes32,uint256)":"0b9f487a","calculateWithdrawalRoot((address,address,address,uint256,uint32,address[],uint256[]))":"597b36da","completeQueuedWithdrawal((address,address,address,uint256,uint32,address[],uint256[]),address[],bool)":"e4cc3f90","completeQueuedWithdrawals((address,address,address,uint256,uint32,address[],uint256[])[],address[][],bool[])":"9435bb43","convertToDepositShares(address,address[],uint256[])":"25df922e","cumulativeWithdrawalsQueued(address)":"a1788484","decreaseDelegatedShares(address,uint256,uint64)":"60a0d1ce","delegateTo(address,(bytes,uint256),bytes32)":"eea9064b","delegatedTo(address)":"65da1264","delegationApprover(address)":"3cdeb5e0","delegationApproverSaltIsSpent(address,bytes32)":"bb45fef2","depositScalingFactor(address,address)":"bfae3fd2","domainSeparator()":"f698da25","eigenPodManager()":"4665bcda","getDepositedShares(address)":"66d5ba93","getOperatorShares(address,address[])":"90041347","getOperatorsShares(address[],address[])":"f0e0e676","getQueuedWithdrawal(bytes32)":"5d975e88","getQueuedWithdrawalRoots(address)":"fd8aa88d","getQueuedWithdrawals(address)":"5dd68579","getSlashableSharesInQueue(address,address)":"6e174448","getWithdrawableShares(address,address[])":"c978f7ac","increaseDelegatedShares(address,address,uint256,uint256)":"3c651cf2","initialize(address,uint256)":"cd6dc687","isDelegated(address)":"3e28391d","isOperator(address)":"6d70f7ae","minWithdrawalDelayBlocks()":"c448feb8","modifyOperatorDetails(address,address)":"54b7c96c","operatorShares(address,address)":"778e55f3","owner()":"8da5cb5b","pause(uint256)":"136439dd","pauseAll()":"595c6a67","paused()":"5c975abb","paused(uint8)":"5ac86ab7","pauserRegistry()":"886f1195","pendingWithdrawals(bytes32)":"b7f06ebe","permissionController()":"4657e26a","queueWithdrawals((address[],uint256[],address)[])":"0dd8dd02","queuedWithdrawals(bytes32)":"99f5371b","redelegate(address,(bytes,uint256),bytes32)":"a33a3433","registerAsOperator(address,uint32,string)":"2aa6d888","renounceOwnership()":"715018a6","slashOperatorShares(address,address,uint64,uint64)":"601bb36f","strategyManager()":"39b70e38","transferOwnership(address)":"f2fde38b","undelegate(address)":"da8be864","unpause(uint256)":"fabc1cbc","updateOperatorMetadataURI(address,string)":"78296ec5","version()":"54fd4d50"},"id":4}