{"abi":[{"type":"constructor","inputs":[{"name":"_version","type":"string","internalType":"string"}],"stateMutability":"nonpayable"},{"type":"function","name":"acceptAdmin","inputs":[{"name":"account","type":"address","internalType":"address"}],"outputs":[],"stateMutability":"nonpayable"},{"type":"function","name":"addPendingAdmin","inputs":[{"name":"account","type":"address","internalType":"address"},{"name":"admin","type":"address","internalType":"address"}],"outputs":[],"stateMutability":"nonpayable"},{"type":"function","name":"canCall","inputs":[{"name":"account","type":"address","internalType":"address"},{"name":"caller","type":"address","internalType":"address"},{"name":"target","type":"address","internalType":"address"},{"name":"selector","type":"bytes4","internalType":"bytes4"}],"outputs":[{"name":"","type":"bool","internalType":"bool"}],"stateMutability":"view"},{"type":"function","name":"getAdmins","inputs":[{"name":"account","type":"address","internalType":"address"}],"outputs":[{"name":"","type":"address[]","internalType":"address[]"}],"stateMutability":"view"},{"type":"function","name":"getAppointeePermissions","inputs":[{"name":"account","type":"address","internalType":"address"},{"name":"appointee","type":"address","internalType":"address"}],"outputs":[{"name":"","type":"address[]","internalType":"address[]"},{"name":"","type":"bytes4[]","internalType":"bytes4[]"}],"stateMutability":"view"},{"type":"function","name":"getAppointees","inputs":[{"name":"account","type":"address","internalType":"address"},{"name":"target","type":"address","internalType":"address"},{"name":"selector","type":"bytes4","internalType":"bytes4"}],"outputs":[{"name":"","type":"address[]","internalType":"address[]"}],"stateMutability":"view"},{"type":"function","name":"getPendingAdmins","inputs":[{"name":"account","type":"address","internalType":"address"}],"outputs":[{"name":"","type":"address[]","internalType":"address[]"}],"stateMutability":"view"},{"type":"function","name":"isAdmin","inputs":[{"name":"account","type":"address","internalType":"address"},{"name":"caller","type":"address","internalType":"address"}],"outputs":[{"name":"","type":"bool","internalType":"bool"}],"stateMutability":"view"},{"type":"function","name":"isPendingAdmin","inputs":[{"name":"account","type":"address","internalType":"address"},{"name":"pendingAdmin","type":"address","internalType":"address"}],"outputs":[{"name":"","type":"bool","internalType":"bool"}],"stateMutability":"view"},{"type":"function","name":"removeAdmin","inputs":[{"name":"account","type":"address","internalType":"address"},{"name":"admin","type":"address","internalType":"address"}],"outputs":[],"stateMutability":"nonpayable"},{"type":"function","name":"removeAppointee","inputs":[{"name":"account","type":"address","internalType":"address"},{"name":"appointee","type":"address","internalType":"address"},{"name":"target","type":"address","internalType":"address"},{"name":"selector","type":"bytes4","internalType":"bytes4"}],"outputs":[],"stateMutability":"nonpayable"},{"type":"function","name":"removePendingAdmin","inputs":[{"name":"account","type":"address","internalType":"address"},{"name":"admin","type":"address","internalType":"address"}],"outputs":[],"stateMutability":"nonpayable"},{"type":"function","name":"setAppointee","inputs":[{"name":"account","type":"address","internalType":"address"},{"name":"appointee","type":"address","internalType":"address"},{"name":"target","type":"address","internalType":"address"},{"name":"selector","type":"bytes4","internalType":"bytes4"}],"outputs":[],"stateMutability":"nonpayable"},{"type":"function","name":"version","inputs":[],"outputs":[{"name":"","type":"string","internalType":"string"}],"stateMutability":"view"},{"type":"event","name":"AdminRemoved","inputs":[{"name":"account","type":"address","indexed":true,"internalType":"address"},{"name":"admin","type":"address","indexed":false,"internalType":"address"}],"anonymous":false},{"type":"event","name":"AdminSet","inputs":[{"name":"account","type":"address","indexed":true,"internalType":"address"},{"name":"admin","type":"address","indexed":false,"internalType":"address"}],"anonymous":false},{"type":"event","name":"AppointeeRemoved","inputs":[{"name":"account","type":"address","indexed":true,"internalType":"address"},{"name":"appointee","type":"address","indexed":true,"internalType":"address"},{"name":"target","type":"address","indexed":false,"internalType":"address"},{"name":"selector","type":"bytes4","indexed":false,"internalType":"bytes4"}],"anonymous":false},{"type":"event","name":"AppointeeSet","inputs":[{"name":"account","type":"address","indexed":true,"internalType":"address"},{"name":"appointee","type":"address","indexed":true,"internalType":"address"},{"name":"target","type":"address","indexed":false,"internalType":"address"},{"name":"selector","type":"bytes4","indexed":false,"internalType":"bytes4"}],"anonymous":false},{"type":"event","name":"Initialized","inputs":[{"name":"version","type":"uint8","indexed":false,"internalType":"uint8"}],"anonymous":false},{"type":"event","name":"PendingAdminAdded","inputs":[{"name":"account","type":"address","indexed":true,"internalType":"address"},{"name":"admin","type":"address","indexed":false,"internalType":"address"}],"anonymous":false},{"type":"event","name":"PendingAdminRemoved","inputs":[{"name":"account","type":"address","indexed":true,"internalType":"address"},{"name":"admin","type":"address","indexed":false,"internalType":"address"}],"anonymous":false},{"type":"error","name":"AdminAlreadyPending","inputs":[]},{"type":"error","name":"AdminAlreadySet","inputs":[]},{"type":"error","name":"AdminNotPending","inputs":[]},{"type":"error","name":"AdminNotSet","inputs":[]},{"type":"error","name":"AppointeeAlreadySet","inputs":[]},{"type":"error","name":"AppointeeNotSet","inputs":[]},{"type":"error","name":"CannotHaveZeroAdmins","inputs":[]},{"type":"error","name":"InvalidShortString","inputs":[]},{"type":"error","name":"NotAdmin","inputs":[]},{"type":"error","name":"StringTooLong","inputs":[{"name":"str","type":"string","internalType":"string"}]}],"bytecode":{"object":"0x60a0604052346101af57610f9480380380610019816101c7565b9283398101906020818303126101af578051906001600160401b0382116101af570181601f820112156101af5780516001600160401b0381116101b357610069601f8201601f19166020016101c7565b918183526020830193602083830101116101af57815f926020809301865e83010152601f8151116101735751905160208210610163575b176080525f5460ff8160081c1661010e5760ff808216036100d4575b604051610da790816101ed8239608051816107190152f35b60ff90811916175f557f7f26b83ff96e1f2b6a682f133852f6798a09c465da95921460cefb3847402498602060405160ff8152a15f6100bc565b60405162461bcd60e51b815260206004820152602760248201527f496e697469616c697a61626c653a20636f6e747261637420697320696e697469604482015266616c697a696e6760c81b6064820152608490fd5b5f198260200360031b1b166100a0565b60449060405192839163305a27a960e01b8352602060048401525180918160248501528484015e5f828201840152601f01601f19168101030190fd5b5f80fd5b634e487b7160e01b5f52604160045260245ffd5b6040519190601f01601f191682016001600160401b038111838210176101b35760405256fe60806040526004361015610011575f80fd5b5f3560e01c806306641201146108e8578063268959e51461082f5780634f906cf9146107a357806354fd4d5014610707578063628806ef146106805780636bddfa1f1461060e578063882a3b38146104bc5780639100674514610490578063950d806e14610370578063ad5f22101461034c578063ad8aca77146102ef578063df595cb814610258578063eb5a4e871461018a5763fddbdefd146100b3575f80fd5b34610186576060366003190112610186576100cc6109e1565b6100d46109f7565b6044356001600160e01b0319811681036101865760609190911b6001600160601b03191660a09190911c63ffffffff60401b16179060018060a01b03165f526001602052600560405f2001905f5260205260405f206040519081602082549182815201915f5260205f20905f5b8181106101705761016c8561015881870382610aa8565b604051918291602083526020830190610a6c565b0390f35b8254845260209093019260019283019201610141565b5f80fd5b34610186576040366003190112610186576101a36109e1565b6101ab6109f7565b906101b63382610b1e565b15610249576001600160a01b039081165f81815260016020908152604080832095909416808352600386019091529290205490929061023a57816101f991610d19565b1561022b5760207fb14b9a3d448c5b04f0e5b087b6f5193390db7955482a6ffb841e7b3ba61a460c91604051908152a2005b6319abede360e11b5f5260045ffd5b63130160e560e31b5f5260045ffd5b637bfa4b9f60e01b5f5260045ffd5b3461018657602061026836610a0d565b90916102748185610b1e565b938415610288575b85856040519015158152f35b6001600160a01b039081165f9081526001875260408082209290931681526004919091018652206102e693509160601b6001600160601b03191660a09190911c63ffffffff60401b1617906001915f520160205260405f2054151590565b8280808061027c565b3461018657604036600319011261018657602061034261030d6109e1565b6103156109f7565b6001600160a01b039182165f90815260018086526040808320939094168252919091016020522054151590565b6040519015158152f35b346101865760203660031901126101865761016c61015861036b6109e1565b610b7b565b346101865761037e36610a0d565b919261038a3382610b1e565b15610249576001600160a01b03165f81815260016020526040902090929091606081901b6001600160601b03191660a083901c63ffffffff60401b161792600481019060018060a01b0387165f52816020526103f78560405f206001915f520160205260405f2054151590565b610481577f037f03a2ad6b967df4a01779b6d2b4c85950df83925d9e31362b519422fc01699460059260018060a01b0389165f5260205261043b8160405f20610d19565b505f520160205261045960405f209560018060a01b03168096610d19565b50604080516001600160a01b039290921682526001600160e01b0319929092166020820152a3005b63ad8efeb760e01b5f5260045ffd5b346101865760403660031901126101865760206103426104ae6109e1565b6104b66109f7565b90610b1e565b34610186576040366003190112610186576104d56109e1565b6104dd6109f7565b9060018060a01b03165f526001602052600460405f20019060018060a01b03165f5260205260405f2080549061051282610ade565b916105206040519384610aa8565b808352601f1961052f82610ade565b0136602085013761053f81610ade565b9061054d6040519283610aa8565b80825261055981610ade565b602083019390601f19013685375f5b8281106105ce5761058b8686866020604051948594604086526040860190610a6c565b918483038286015251918281520191905f5b8181106105ab575050500390f35b82516001600160e01b03191684528594506020938401939092019160010161059d565b806105db60019284610c15565b90549060031b1c63ffffffff60e01b8160a01b166105f98388610af6565b5260601c6106078289610af6565b5201610568565b34610186576020366003190112610186576001600160a01b0361062f6109e1565b165f52600160205260405f206040519081602082549182815201915f5260205f20905f5b81811061066a5761016c8561015881870382610aa8565b8254845260209093019260019283019201610653565b34610186576020366003190112610186576001600160a01b036106a16109e1565b16805f52600160205260405f206106b83382610c2a565b156106f8576106cb906002339101610d19565b507fbf265e8326285a2747e33e54d5945f7111f2b5edb826eb8c08d4677779b3ff976020604051338152a2005b63bed8295f60e01b5f5260045ffd5b34610186575f366003190112610186577f000000000000000000000000000000000000000000000000000000000000000060ff811690601f8211610794576040908151906107558383610aa8565b6020808352820193601f198401368637825283528151928391602083525180918160208501528484015e5f828201840152601f01601f19168101030190f35b632cd44ac360e21b5f5260045ffd5b34610186576040366003190112610186576107bc6109e1565b6107c46109f7565b906107cf3382610b1e565b15610249576001600160a01b039081165f8181526001602052604090209092909116906107fd908290610c2a565b156106f85760207fd706ed7ae044d795b49e54c9f519f663053951011985f663a862cd9ee72a9ac791604051908152a2005b34610186576040366003190112610186576108486109e1565b6108506109f7565b9061085b3382610b1e565b156102495760018060a01b031690815f526001602052600260405f2001906001825411156108d9576001600160a01b031690610898908290610c2a565b156108ca5760207fdb9d5d31320daf5bc7181d565b6da4d12e30f0f4d5aa324a992426c14a1d19ce91604051908152a2005b630716d81b60e51b5f5260045ffd5b6310ce892b60e31b5f5260045ffd5b34610186576108f636610a0d565b91926109023382610b1e565b15610249576001600160a01b03165f81815260016020526040902090929091606081901b6001600160601b03191660a083901c63ffffffff60401b161792600481019060018060a01b0387165f528160205261096f8560405f206001915f520160205260405f2054151590565b156109d2577f18242326b6b862126970679759169f01f646bd55ec5bfcab85ba9f337a74e0c69460059260018060a01b0389165f526020526109b48160405f20610c2a565b505f520160205261045960405f209560018060a01b03168096610c2a565b63262118cd60e01b5f5260045ffd5b600435906001600160a01b038216820361018657565b602435906001600160a01b038216820361018657565b6080906003190112610186576004356001600160a01b038116810361018657906024356001600160a01b038116810361018657906044356001600160a01b038116810361018657906064356001600160e01b0319811681036101865790565b90602080835192838152019201905f5b818110610a895750505090565b82516001600160a01b0316845260209384019390920191600101610a7c565b90601f8019910116810190811067ffffffffffffffff821117610aca57604052565b634e487b7160e01b5f52604160045260245ffd5b67ffffffffffffffff8111610aca5760051b60200190565b8051821015610b0a5760209160051b010190565b634e487b7160e01b5f52603260045260245ffd5b6001600160a01b03165f81815260016020526040902060020154909190610b4c576001600160a01b03161490565b5f9182526001602090815260408084206001600160a01b03909316845260039092019052902054151590565b90565b6001600160a01b03165f81815260016020526040902060020154610bc05760405190610ba8604083610aa8565b60018252602080830190368237825115610b0a575290565b5f526001602052600260405f2001604051808260208294549384815201905f5260205f20925f5b818110610bfc575050610b7892500382610aa8565b8454835260019485019486945060209093019201610be7565b8054821015610b0a575f5260205f2001905f90565b906001820191815f528260205260405f20548015155f14610d11575f198101818111610cfd5782545f19810191908211610cfd57808203610cb2575b50505080548015610c9e575f190190610c7f8282610c15565b8154905f199060031b1b19169055555f526020525f6040812055600190565b634e487b7160e01b5f52603160045260245ffd5b610ce8610cc2610cd29386610c15565b90549060031b1c92839286610c15565b819391549060031b91821b915f19901b19161790565b90555f528360205260405f20555f8080610c66565b634e487b7160e01b5f52601160045260245ffd5b505050505f90565b5f828152600182016020526040902054610d6b5780549068010000000000000000821015610aca5782610d56610cd2846001809601855584610c15565b90558054925f520160205260405f2055600190565b50505f9056fea2646970667358221220f3ad0f30263704168217c618489951af404a7458ed446716b8eacb77b8293f7b64736f6c634300081b0033","linkReferences":{}},"methodIdentifiers":{"acceptAdmin(address)":"628806ef","addPendingAdmin(address,address)":"eb5a4e87","canCall(address,address,address,bytes4)":"df595cb8","getAdmins(address)":"ad5f2210","getAppointeePermissions(address,address)":"882a3b38","getAppointees(address,address,bytes4)":"fddbdefd","getPendingAdmins(address)":"6bddfa1f","isAdmin(address,address)":"91006745","isPendingAdmin(address,address)":"ad8aca77","removeAdmin(address,address)":"268959e5","removeAppointee(address,address,address,bytes4)":"06641201","removePendingAdmin(address,address)":"4f906cf9","setAppointee(address,address,address,bytes4)":"950d806e","version()":"54fd4d50"},"id":39}