{"abi":[{"type":"constructor","inputs":[{"name":"params","type":"tuple","internalType":"struct IRegistryCoordinatorTypes.RegistryCoordinatorParams","components":[{"name":"serviceManager","type":"address","internalType":"contract IServiceManager"},{"name":"slashingParams","type":"tuple","internalType":"struct IRegistryCoordinatorTypes.SlashingRegistryParams","components":[{"name":"stakeRegistry","type":"address","internalType":"contract IStakeRegistry"},{"name":"blsApkRegistry","type":"address","internalType":"contract IBLSApkRegistry"},{"name":"indexRegistry","type":"address","internalType":"contract IIndexRegistry"},{"name":"socketRegistry","type":"address","internalType":"contract ISocketRegistry"},{"name":"allocationManager","type":"address","internalType":"contract IAllocationManager"},{"name":"pauserRegistry","type":"address","internalType":"contract IPauserRegistry"}]}]}],"stateMutability":"nonpayable"},{"type":"function","name":"OPERATOR_CHURN_APPROVAL_TYPEHASH","inputs":[],"outputs":[{"name":"","type":"bytes32","internalType":"bytes32"}],"stateMutability":"view"},{"type":"function","name":"PUBKEY_REGISTRATION_TYPEHASH","inputs":[],"outputs":[{"name":"","type":"bytes32","internalType":"bytes32"}],"stateMutability":"view"},{"type":"function","name":"allocationManager","inputs":[],"outputs":[{"name":"","type":"address","internalType":"contract IAllocationManager"}],"stateMutability":"view"},{"type":"function","name":"avs","inputs":[],"outputs":[{"name":"","type":"address","internalType":"address"}],"stateMutability":"view"},{"type":"function","name":"blsApkRegistry","inputs":[],"outputs":[{"name":"","type":"address","internalType":"contract IBLSApkRegistry"}],"stateMutability":"view"},{"type":"function","name":"calculateOperatorChurnApprovalDigestHash","inputs":[{"name":"registeringOperator","type":"address","internalType":"address"},{"name":"registeringOperatorId","type":"bytes32","internalType":"bytes32"},{"name":"operatorKickParams","type":"tuple[]","internalType":"struct ISlashingRegistryCoordinatorTypes.OperatorKickParam[]","components":[{"name":"quorumNumber","type":"uint8","internalType":"uint8"},{"name":"operator","type":"address","internalType":"address"}]},{"name":"salt","type":"bytes32","internalType":"bytes32"},{"name":"expiry","type":"uint256","internalType":"uint256"}],"outputs":[{"name":"","type":"bytes32","internalType":"bytes32"}],"stateMutability":"view"},{"type":"function","name":"calculatePubkeyRegistrationMessageHash","inputs":[{"name":"operator","type":"address","internalType":"address"}],"outputs":[{"name":"","type":"bytes32","internalType":"bytes32"}],"stateMutability":"view"},{"type":"function","name":"churnApprover","inputs":[],"outputs":[{"name":"","type":"address","internalType":"address"}],"stateMutability":"view"},{"type":"function","name":"createSlashableStakeQuorum","inputs":[{"name":"operatorSetParams","type":"tuple","internalType":"struct ISlashingRegistryCoordinatorTypes.OperatorSetParam","components":[{"name":"maxOperatorCount","type":"uint32","internalType":"uint32"},{"name":"kickBIPsOfOperatorStake","type":"uint16","internalType":"uint16"},{"name":"kickBIPsOfTotalStake","type":"uint16","internalType":"uint16"}]},{"name":"minimumStake","type":"uint96","internalType":"uint96"},{"name":"strategyParams","type":"tuple[]","internalType":"struct IStakeRegistryTypes.StrategyParams[]","components":[{"name":"strategy","type":"address","internalType":"contract IStrategy"},{"name":"multiplier","type":"uint96","internalType":"uint96"}]},{"name":"lookAheadPeriod","type":"uint32","internalType":"uint32"}],"outputs":[],"stateMutability":"nonpayable"},{"type":"function","name":"createTotalDelegatedStakeQuorum","inputs":[{"name":"operatorSetParams","type":"tuple","internalType":"struct ISlashingRegistryCoordinatorTypes.OperatorSetParam","components":[{"name":"maxOperatorCount","type":"uint32","internalType":"uint32"},{"name":"kickBIPsOfOperatorStake","type":"uint16","internalType":"uint16"},{"name":"kickBIPsOfTotalStake","type":"uint16","internalType":"uint16"}]},{"name":"minimumStake","type":"uint96","internalType":"uint96"},{"name":"strategyParams","type":"tuple[]","internalType":"struct IStakeRegistryTypes.StrategyParams[]","components":[{"name":"strategy","type":"address","internalType":"contract IStrategy"},{"name":"multiplier","type":"uint96","internalType":"uint96"}]}],"outputs":[],"stateMutability":"nonpayable"},{"type":"function","name":"deregisterOperator","inputs":[{"name":"operator","type":"address","internalType":"address"},{"name":"avs","type":"address","internalType":"address"},{"name":"operatorSetIds","type":"uint32[]","internalType":"uint32[]"}],"outputs":[],"stateMutability":"nonpayable"},{"type":"function","name":"deregisterOperator","inputs":[{"name":"quorumNumbers","type":"bytes","internalType":"bytes"}],"outputs":[],"stateMutability":"nonpayable"},{"type":"function","name":"disableM2QuorumRegistration","inputs":[],"outputs":[],"stateMutability":"nonpayable"},{"type":"function","name":"domainSeparator","inputs":[],"outputs":[{"name":"","type":"bytes32","internalType":"bytes32"}],"stateMutability":"view"},{"type":"function","name":"eip712Domain","inputs":[],"outputs":[{"name":"fields","type":"bytes1","internalType":"bytes1"},{"name":"name","type":"string","internalType":"string"},{"name":"version","type":"string","internalType":"string"},{"name":"chainId","type":"uint256","internalType":"uint256"},{"name":"verifyingContract","type":"address","internalType":"address"},{"name":"salt","type":"bytes32","internalType":"bytes32"},{"name":"extensions","type":"uint256[]","internalType":"uint256[]"}],"stateMutability":"view"},{"type":"function","name":"ejectOperator","inputs":[{"name":"operator","type":"address","internalType":"address"},{"name":"quorumNumbers","type":"bytes","internalType":"bytes"}],"outputs":[],"stateMutability":"nonpayable"},{"type":"function","name":"ejectionCooldown","inputs":[],"outputs":[{"name":"","type":"uint256","internalType":"uint256"}],"stateMutability":"view"},{"type":"function","name":"ejector","inputs":[],"outputs":[{"name":"","type":"address","internalType":"address"}],"stateMutability":"view"},{"type":"function","name":"getCurrentQuorumBitmap","inputs":[{"name":"operatorId","type":"bytes32","internalType":"bytes32"}],"outputs":[{"name":"","type":"uint192","internalType":"uint192"}],"stateMutability":"view"},{"type":"function","name":"getOperator","inputs":[{"name":"operator","type":"address","internalType":"address"}],"outputs":[{"name":"","type":"tuple","internalType":"struct ISlashingRegistryCoordinatorTypes.OperatorInfo","components":[{"name":"operatorId","type":"bytes32","internalType":"bytes32"},{"name":"status","type":"uint8","internalType":"enum ISlashingRegistryCoordinatorTypes.OperatorStatus"}]}],"stateMutability":"view"},{"type":"function","name":"getOperatorFromId","inputs":[{"name":"operatorId","type":"bytes32","internalType":"bytes32"}],"outputs":[{"name":"","type":"address","internalType":"address"}],"stateMutability":"view"},{"type":"function","name":"getOperatorId","inputs":[{"name":"operator","type":"address","internalType":"address"}],"outputs":[{"name":"","type":"bytes32","internalType":"bytes32"}],"stateMutability":"view"},{"type":"function","name":"getOperatorSetParams","inputs":[{"name":"quorumNumber","type":"uint8","internalType":"uint8"}],"outputs":[{"name":"","type":"tuple","internalType":"struct ISlashingRegistryCoordinatorTypes.OperatorSetParam","components":[{"name":"maxOperatorCount","type":"uint32","internalType":"uint32"},{"name":"kickBIPsOfOperatorStake","type":"uint16","internalType":"uint16"},{"name":"kickBIPsOfTotalStake","type":"uint16","internalType":"uint16"}]}],"stateMutability":"view"},{"type":"function","name":"getOperatorStatus","inputs":[{"name":"operator","type":"address","internalType":"address"}],"outputs":[{"name":"","type":"uint8","internalType":"enum ISlashingRegistryCoordinatorTypes.OperatorStatus"}],"stateMutability":"view"},{"type":"function","name":"getQuorumBitmapAtBlockNumberByIndex","inputs":[{"name":"operatorId","type":"bytes32","internalType":"bytes32"},{"name":"blockNumber","type":"uint32","internalType":"uint32"},{"name":"index","type":"uint256","internalType":"uint256"}],"outputs":[{"name":"","type":"uint192","internalType":"uint192"}],"stateMutability":"view"},{"type":"function","name":"getQuorumBitmapHistoryLength","inputs":[{"name":"operatorId","type":"bytes32","internalType":"bytes32"}],"outputs":[{"name":"","type":"uint256","internalType":"uint256"}],"stateMutability":"view"},{"type":"function","name":"getQuorumBitmapIndicesAtBlockNumber","inputs":[{"name":"blockNumber","type":"uint32","internalType":"uint32"},{"name":"operatorIds","type":"bytes32[]","internalType":"bytes32[]"}],"outputs":[{"name":"","type":"uint32[]","internalType":"uint32[]"}],"stateMutability":"view"},{"type":"function","name":"getQuorumBitmapUpdateByIndex","inputs":[{"name":"operatorId","type":"bytes32","internalType":"bytes32"},{"name":"index","type":"uint256","internalType":"uint256"}],"outputs":[{"name":"","type":"tuple","internalType":"struct ISlashingRegistryCoordinatorTypes.QuorumBitmapUpdate","components":[{"name":"updateBlockNumber","type":"uint32","internalType":"uint32"},{"name":"nextUpdateBlockNumber","type":"uint32","internalType":"uint32"},{"name":"quorumBitmap","type":"uint192","internalType":"uint192"}]}],"stateMutability":"view"},{"type":"function","name":"indexRegistry","inputs":[],"outputs":[{"name":"","type":"address","internalType":"contract IIndexRegistry"}],"stateMutability":"view"},{"type":"function","name":"initialize","inputs":[{"name":"initialOwner","type":"address","internalType":"address"},{"name":"churnApprover","type":"address","internalType":"address"},{"name":"ejector","type":"address","internalType":"address"},{"name":"initialPausedStatus","type":"uint256","internalType":"uint256"},{"name":"avs","type":"address","internalType":"address"}],"outputs":[],"stateMutability":"nonpayable"},{"type":"function","name":"isChurnApproverSaltUsed","inputs":[{"name":"","type":"bytes32","internalType":"bytes32"}],"outputs":[{"name":"","type":"bool","internalType":"bool"}],"stateMutability":"view"},{"type":"function","name":"isM2Quorum","inputs":[{"name":"quorumNumber","type":"uint8","internalType":"uint8"}],"outputs":[{"name":"","type":"bool","internalType":"bool"}],"stateMutability":"view"},{"type":"function","name":"isM2QuorumRegistrationDisabled","inputs":[],"outputs":[{"name":"","type":"bool","internalType":"bool"}],"stateMutability":"view"},{"type":"function","name":"lastEjectionTimestamp","inputs":[{"name":"","type":"address","internalType":"address"}],"outputs":[{"name":"","type":"uint256","internalType":"uint256"}],"stateMutability":"view"},{"type":"function","name":"m2QuorumBitmap","inputs":[],"outputs":[{"name":"","type":"uint256","internalType":"uint256"}],"stateMutability":"view"},{"type":"function","name":"operatorSetsEnabled","inputs":[],"outputs":[{"name":"","type":"bool","internalType":"bool"}],"stateMutability":"view"},{"type":"function","name":"owner","inputs":[],"outputs":[{"name":"","type":"address","internalType":"address"}],"stateMutability":"view"},{"type":"function","name":"pause","inputs":[{"name":"newPausedStatus","type":"uint256","internalType":"uint256"}],"outputs":[],"stateMutability":"nonpayable"},{"type":"function","name":"pauseAll","inputs":[],"outputs":[],"stateMutability":"nonpayable"},{"type":"function","name":"paused","inputs":[{"name":"index","type":"uint8","internalType":"uint8"}],"outputs":[{"name":"","type":"bool","internalType":"bool"}],"stateMutability":"view"},{"type":"function","name":"paused","inputs":[],"outputs":[{"name":"","type":"uint256","internalType":"uint256"}],"stateMutability":"view"},{"type":"function","name":"pauserRegistry","inputs":[],"outputs":[{"name":"","type":"address","internalType":"contract IPauserRegistry"}],"stateMutability":"view"},{"type":"function","name":"pubkeyRegistrationMessageHash","inputs":[{"name":"operator","type":"address","internalType":"address"}],"outputs":[{"name":"","type":"tuple","internalType":"struct BN254.G1Point","components":[{"name":"X","type":"uint256","internalType":"uint256"},{"name":"Y","type":"uint256","internalType":"uint256"}]}],"stateMutability":"view"},{"type":"function","name":"quorumCount","inputs":[],"outputs":[{"name":"","type":"uint8","internalType":"uint8"}],"stateMutability":"view"},{"type":"function","name":"quorumUpdateBlockNumber","inputs":[{"name":"","type":"uint8","internalType":"uint8"}],"outputs":[{"name":"","type":"uint256","internalType":"uint256"}],"stateMutability":"view"},{"type":"function","name":"registerOperator","inputs":[{"name":"quorumNumbers","type":"bytes","internalType":"bytes"},{"name":"socket","type":"string","internalType":"string"},{"name":"params","type":"tuple","internalType":"struct IBLSApkRegistryTypes.PubkeyRegistrationParams","components":[{"name":"pubkeyRegistrationSignature","type":"tuple","internalType":"struct BN254.G1Point","components":[{"name":"X","type":"uint256","internalType":"uint256"},{"name":"Y","type":"uint256","internalType":"uint256"}]},{"name":"pubkeyG1","type":"tuple","internalType":"struct BN254.G1Point","components":[{"name":"X","type":"uint256","internalType":"uint256"},{"name":"Y","type":"uint256","internalType":"uint256"}]},{"name":"pubkeyG2","type":"tuple","internalType":"struct BN254.G2Point","components":[{"name":"X","type":"uint256[2]","internalType":"uint256[2]"},{"name":"Y","type":"uint256[2]","internalType":"uint256[2]"}]}]},{"name":"operatorSignature","type":"tuple","internalType":"struct ISignatureUtilsMixinTypes.SignatureWithSaltAndExpiry","components":[{"name":"signature","type":"bytes","internalType":"bytes"},{"name":"salt","type":"bytes32","internalType":"bytes32"},{"name":"expiry","type":"uint256","internalType":"uint256"}]}],"outputs":[],"stateMutability":"nonpayable"},{"type":"function","name":"registerOperator","inputs":[{"name":"operator","type":"address","internalType":"address"},{"name":"avs","type":"address","internalType":"address"},{"name":"operatorSetIds","type":"uint32[]","internalType":"uint32[]"},{"name":"data","type":"bytes","internalType":"bytes"}],"outputs":[],"stateMutability":"nonpayable"},{"type":"function","name":"registerOperatorWithChurn","inputs":[{"name":"quorumNumbers","type":"bytes","internalType":"bytes"},{"name":"socket","type":"string","internalType":"string"},{"name":"params","type":"tuple","internalType":"struct IBLSApkRegistryTypes.PubkeyRegistrationParams","components":[{"name":"pubkeyRegistrationSignature","type":"tuple","internalType":"struct BN254.G1Point","components":[{"name":"X","type":"uint256","internalType":"uint256"},{"name":"Y","type":"uint256","internalType":"uint256"}]},{"name":"pubkeyG1","type":"tuple","internalType":"struct BN254.G1Point","components":[{"name":"X","type":"uint256","internalType":"uint256"},{"name":"Y","type":"uint256","internalType":"uint256"}]},{"name":"pubkeyG2","type":"tuple","internalType":"struct BN254.G2Point","components":[{"name":"X","type":"uint256[2]","internalType":"uint256[2]"},{"name":"Y","type":"uint256[2]","internalType":"uint256[2]"}]}]},{"name":"operatorKickParams","type":"tuple[]","internalType":"struct ISlashingRegistryCoordinatorTypes.OperatorKickParam[]","components":[{"name":"quorumNumber","type":"uint8","internalType":"uint8"},{"name":"operator","type":"address","internalType":"address"}]},{"name":"churnApproverSignature","type":"tuple","internalType":"struct ISignatureUtilsMixinTypes.SignatureWithSaltAndExpiry","components":[{"name":"signature","type":"bytes","internalType":"bytes"},{"name":"salt","type":"bytes32","internalType":"bytes32"},{"name":"expiry","type":"uint256","internalType":"uint256"}]},{"name":"operatorSignature","type":"tuple","internalType":"struct ISignatureUtilsMixinTypes.SignatureWithSaltAndExpiry","components":[{"name":"signature","type":"bytes","internalType":"bytes"},{"name":"salt","type":"bytes32","internalType":"bytes32"},{"name":"expiry","type":"uint256","internalType":"uint256"}]}],"outputs":[],"stateMutability":"nonpayable"},{"type":"function","name":"renounceOwnership","inputs":[],"outputs":[],"stateMutability":"nonpayable"},{"type":"function","name":"serviceManager","inputs":[],"outputs":[{"name":"","type":"address","internalType":"contract IServiceManager"}],"stateMutability":"view"},{"type":"function","name":"setAVS","inputs":[{"name":"_avs","type":"address","internalType":"address"}],"outputs":[],"stateMutability":"nonpayable"},{"type":"function","name":"setChurnApprover","inputs":[{"name":"_churnApprover","type":"address","internalType":"address"}],"outputs":[],"stateMutability":"nonpayable"},{"type":"function","name":"setEjectionCooldown","inputs":[{"name":"_ejectionCooldown","type":"uint256","internalType":"uint256"}],"outputs":[],"stateMutability":"nonpayable"},{"type":"function","name":"setEjector","inputs":[{"name":"_ejector","type":"address","internalType":"address"}],"outputs":[],"stateMutability":"nonpayable"},{"type":"function","name":"setOperatorSetParams","inputs":[{"name":"quorumNumber","type":"uint8","internalType":"uint8"},{"name":"operatorSetParams","type":"tuple","internalType":"struct ISlashingRegistryCoordinatorTypes.OperatorSetParam","components":[{"name":"maxOperatorCount","type":"uint32","internalType":"uint32"},{"name":"kickBIPsOfOperatorStake","type":"uint16","internalType":"uint16"},{"name":"kickBIPsOfTotalStake","type":"uint16","internalType":"uint16"}]}],"outputs":[],"stateMutability":"nonpayable"},{"type":"function","name":"socketRegistry","inputs":[],"outputs":[{"name":"","type":"address","internalType":"contract ISocketRegistry"}],"stateMutability":"view"},{"type":"function","name":"stakeRegistry","inputs":[],"outputs":[{"name":"","type":"address","internalType":"contract IStakeRegistry"}],"stateMutability":"view"},{"type":"function","name":"supportsAVS","inputs":[{"name":"_avs","type":"address","internalType":"address"}],"outputs":[{"name":"","type":"bool","internalType":"bool"}],"stateMutability":"view"},{"type":"function","name":"transferOwnership","inputs":[{"name":"newOwner","type":"address","internalType":"address"}],"outputs":[],"stateMutability":"nonpayable"},{"type":"function","name":"unpause","inputs":[{"name":"newPausedStatus","type":"uint256","internalType":"uint256"}],"outputs":[],"stateMutability":"nonpayable"},{"type":"function","name":"updateOperators","inputs":[{"name":"operators","type":"address[]","internalType":"address[]"}],"outputs":[],"stateMutability":"nonpayable"},{"type":"function","name":"updateOperatorsForQuorum","inputs":[{"name":"operatorsPerQuorum","type":"address[][]","internalType":"address[][]"},{"name":"quorumNumbers","type":"bytes","internalType":"bytes"}],"outputs":[],"stateMutability":"nonpayable"},{"type":"function","name":"updateSocket","inputs":[{"name":"socket","type":"string","internalType":"string"}],"outputs":[],"stateMutability":"nonpayable"},{"type":"function","name":"version","inputs":[],"outputs":[{"name":"","type":"string","internalType":"string"}],"stateMutability":"view"},{"type":"event","name":"AVSUpdated","inputs":[{"name":"prevAVS","type":"address","indexed":false,"internalType":"address"},{"name":"newAVS","type":"address","indexed":false,"internalType":"address"}],"anonymous":false},{"type":"event","name":"ChurnApproverUpdated","inputs":[{"name":"prevChurnApprover","type":"address","indexed":false,"internalType":"address"},{"name":"newChurnApprover","type":"address","indexed":false,"internalType":"address"}],"anonymous":false},{"type":"event","name":"EIP712DomainChanged","inputs":[],"anonymous":false},{"type":"event","name":"EjectionCooldownUpdated","inputs":[{"name":"prevEjectionCooldown","type":"uint256","indexed":false,"internalType":"uint256"},{"name":"newEjectionCooldown","type":"uint256","indexed":false,"internalType":"uint256"}],"anonymous":false},{"type":"event","name":"EjectorUpdated","inputs":[{"name":"prevEjector","type":"address","indexed":false,"internalType":"address"},{"name":"newEjector","type":"address","indexed":false,"internalType":"address"}],"anonymous":false},{"type":"event","name":"Initialized","inputs":[{"name":"version","type":"uint8","indexed":false,"internalType":"uint8"}],"anonymous":false},{"type":"event","name":"M2QuorumRegistrationDisabled","inputs":[],"anonymous":false},{"type":"event","name":"OperatorDeregistered","inputs":[{"name":"operator","type":"address","indexed":true,"internalType":"address"},{"name":"operatorId","type":"bytes32","indexed":true,"internalType":"bytes32"}],"anonymous":false},{"type":"event","name":"OperatorRegistered","inputs":[{"name":"operator","type":"address","indexed":true,"internalType":"address"},{"name":"operatorId","type":"bytes32","indexed":true,"internalType":"bytes32"}],"anonymous":false},{"type":"event","name":"OperatorSetParamsUpdated","inputs":[{"name":"quorumNumber","type":"uint8","indexed":true,"internalType":"uint8"},{"name":"operatorSetParams","type":"tuple","indexed":false,"internalType":"struct ISlashingRegistryCoordinatorTypes.OperatorSetParam","components":[{"name":"maxOperatorCount","type":"uint32","internalType":"uint32"},{"name":"kickBIPsOfOperatorStake","type":"uint16","internalType":"uint16"},{"name":"kickBIPsOfTotalStake","type":"uint16","internalType":"uint16"}]}],"anonymous":false},{"type":"event","name":"OperatorSetsEnabled","inputs":[],"anonymous":false},{"type":"event","name":"OperatorSocketUpdate","inputs":[{"name":"operatorId","type":"bytes32","indexed":true,"internalType":"bytes32"},{"name":"socket","type":"string","indexed":false,"internalType":"string"}],"anonymous":false},{"type":"event","name":"OwnershipTransferred","inputs":[{"name":"previousOwner","type":"address","indexed":true,"internalType":"address"},{"name":"newOwner","type":"address","indexed":true,"internalType":"address"}],"anonymous":false},{"type":"event","name":"Paused","inputs":[{"name":"account","type":"address","indexed":true,"internalType":"address"},{"name":"newPausedStatus","type":"uint256","indexed":false,"internalType":"uint256"}],"anonymous":false},{"type":"event","name":"QuorumBlockNumberUpdated","inputs":[{"name":"quorumNumber","type":"uint8","indexed":true,"internalType":"uint8"},{"name":"blocknumber","type":"uint256","indexed":false,"internalType":"uint256"}],"anonymous":false},{"type":"event","name":"QuorumCreated","inputs":[{"name":"quorumNumber","type":"uint8","indexed":true,"internalType":"uint8"},{"name":"operatorSetParams","type":"tuple","indexed":false,"internalType":"struct ISlashingRegistryCoordinatorTypes.OperatorSetParam","components":[{"name":"maxOperatorCount","type":"uint32","internalType":"uint32"},{"name":"kickBIPsOfOperatorStake","type":"uint16","internalType":"uint16"},{"name":"kickBIPsOfTotalStake","type":"uint16","internalType":"uint16"}]},{"name":"minimumStake","type":"uint96","indexed":false,"internalType":"uint96"},{"name":"strategyParams","type":"tuple[]","indexed":false,"internalType":"struct IStakeRegistryTypes.StrategyParams[]","components":[{"name":"strategy","type":"address","internalType":"contract IStrategy"},{"name":"multiplier","type":"uint96","internalType":"uint96"}]},{"name":"stakeType","type":"uint8","indexed":false,"internalType":"enum IStakeRegistryTypes.StakeType"},{"name":"lookAheadPeriod","type":"uint32","indexed":false,"internalType":"uint32"}],"anonymous":false},{"type":"event","name":"Unpaused","inputs":[{"name":"account","type":"address","indexed":true,"internalType":"address"},{"name":"newPausedStatus","type":"uint256","indexed":false,"internalType":"uint256"}],"anonymous":false},{"type":"error","name":"AlreadyRegisteredForQuorums","inputs":[]},{"type":"error","name":"BitmapCannotBeZero","inputs":[]},{"type":"error","name":"BitmapEmpty","inputs":[]},{"type":"error","name":"BitmapUpdateIsAfterBlockNumber","inputs":[]},{"type":"error","name":"BitmapValueTooLarge","inputs":[]},{"type":"error","name":"BytesArrayLengthTooLong","inputs":[]},{"type":"error","name":"BytesArrayNotOrdered","inputs":[]},{"type":"error","name":"CannotChurnSelf","inputs":[]},{"type":"error","name":"CannotKickOperatorAboveThreshold","inputs":[]},{"type":"error","name":"CannotReregisterYet","inputs":[]},{"type":"error","name":"ChurnApproverSaltUsed","inputs":[]},{"type":"error","name":"CurrentlyPaused","inputs":[]},{"type":"error","name":"ExpModFailed","inputs":[]},{"type":"error","name":"InputAddressZero","inputs":[]},{"type":"error","name":"InputLengthMismatch","inputs":[]},{"type":"error","name":"InsufficientStakeForChurn","inputs":[]},{"type":"error","name":"InvalidAVS","inputs":[]},{"type":"error","name":"InvalidNewPausedStatus","inputs":[]},{"type":"error","name":"InvalidRegistrationType","inputs":[]},{"type":"error","name":"InvalidSignature","inputs":[]},{"type":"error","name":"InvalidSignature","inputs":[]},{"type":"error","name":"LookAheadPeriodTooLong","inputs":[]},{"type":"error","name":"M2QuorumRegistrationIsDisabled","inputs":[]},{"type":"error","name":"MaxOperatorCountReached","inputs":[]},{"type":"error","name":"MaxQuorumsReached","inputs":[]},{"type":"error","name":"NextBitmapUpdateIsBeforeBlockNumber","inputs":[]},{"type":"error","name":"NotRegistered","inputs":[]},{"type":"error","name":"NotRegisteredForQuorum","inputs":[]},{"type":"error","name":"NotSorted","inputs":[]},{"type":"error","name":"OnlyAllocationManager","inputs":[]},{"type":"error","name":"OnlyEjector","inputs":[]},{"type":"error","name":"OnlyM2QuorumsAllowed","inputs":[]},{"type":"error","name":"OnlyPauser","inputs":[]},{"type":"error","name":"OnlyUnpauser","inputs":[]},{"type":"error","name":"OperatorNotRegistered","inputs":[]},{"type":"error","name":"OperatorSetQuorum","inputs":[]},{"type":"error","name":"OperatorSetsAlreadyEnabled","inputs":[]},{"type":"error","name":"OperatorSetsNotEnabled","inputs":[]},{"type":"error","name":"QuorumDoesNotExist","inputs":[]},{"type":"error","name":"QuorumOperatorCountMismatch","inputs":[]},{"type":"error","name":"SignatureExpired","inputs":[]},{"type":"error","name":"StringTooLong","inputs":[{"name":"str","type":"string","internalType":"string"}]}],"bytecode":{"object":"0x610180604052346103f75760405161603d38819003601f8101601f191683016001600160401b038111848210176103fb5783928291604052833981010360e081126103f75761004c61040f565b825190916001600160a01b03821682036103f75760c0918352601f1901126103f75760405160c081016001600160401b038111828210176103fb5760405260208301516001600160a01b03811681036103f75781526040830151906001600160a01b03821682036103f757602081019182526060840151936001600160a01b03851685036103f7576040820194855260808101516001600160a01b03811681036103f7576060830190815260a0820151916001600160a01b03831683036103f7576080840192835260c00151926001600160a01b03841684036103f75760a081019384526020860181905251935195519051915192516001600160a01b0390811696948116949381169392811692918116911661016761040f565b600681526576302e302e3160d01b6020820190815296516001600160a01b031660805260e09590955260c0526101005260a052610120528051601f106103bb57519051602082106103ab575b1761014052801561039c576101605260645460ff8160081c166103475760ff8082160361030c575b604051615c0e908161042f8239608051818181610d6e01528181612336015281816132b20152615147015260a05181818161288601526137d0015260c051818181610b8d0152818161118f0152818161173301528181611b6001528181613b91015281816146c101528181614b0e0152614d8e015260e0518181816110ca0152818161177701528181611a9c0152818161370c01528181613bf301528181614b9701528181614e1701526155b901526101005181818161112e01528181611aff0152818161218101528181612caf01528181613c5501528181614c020152614e8101526101205181818161101901528181611a320152818161275801528181613a0901526153be015261014051815050610160518181816109b8015281816115f501528181611e8d01526129a30152f35b60ff90811916176064557f7f26b83ff96e1f2b6a682f133852f6798a09c465da95921460cefb3847402498602060405160ff8152a15f6101db565b60405162461bcd60e51b815260206004820152602760248201527f496e697469616c697a61626c653a20636f6e747261637420697320696e697469604482015266616c697a696e6760c81b6064820152608490fd5b6339b190bb60e11b5f5260045ffd5b5f198260200360031b1b166101b3565b60449060405192839163305a27a960e01b8352602060048401525180918160248501528484015e5f828201840152601f01601f19168101030190fd5b5f80fd5b634e487b7160e01b5f52604160045260245ffd5b60408051919082016001600160401b038111838210176103fb5760405256fe60806040526004361015610011575f80fd5b5f3560e01c8062cf2ab51461041357806303fd34921461040e57806304ec635114610409578063054310e6146104045780630cf4b767146103ff5780630d3f2134146103fa578063125e0584146103f557806313542a4e146103f0578063136439dd146103eb5780631478851f146103e65780631eb812da146103e1578063249a0c42146103dc57806328f61b31146103d7578063296bb064146103d257806329d1e0c3146103cd5780632cdd1e86146103c8578063303ca956146103c35780633998fdd3146103be5780633c2a7f4c146103b95780633eef3a51146103b45780635140a548146103af578063530b97a4146103aa57806354fd4d50146103a55780635865c60c146103a0578063595c6a671461039b5780635ac86ab7146103965780635b0b829f146103915780635c975abb1461038c5780635df459461461038757806368304835146103825780636e3b17db1461037d578063715018a614610378578063733b750714610373578063734479921461036e57806381f936d2146103695780638281ab751461036457806384b0196e1461035f57806384ca52131461035a578063871ef04914610355578063886f1195146103505780638da5cb5b1461034b5780639aa1653d146103465780639b5d177b146103415780639e9923c21461033c5780639feab85914610337578063a4d7871f14610332578063a50857bf1461032d578063a65497c614610328578063a96f783e14610323578063b52657871461031e578063c391425e14610319578063c63fd50214610314578063ca0de8821461030f578063ca4f2d971461030a578063ca8aa7c714610305578063de1164bb14610300578063e65797ad146102fb578063e814ca9d146102f6578063ea32afae146102f1578063ec8c3a1e146102ec578063f2fde38b146102e7578063f698da25146102e2578063fabc1cbc146102dd5763fd39105a146102d8575f80fd5b612a5c565b61297a565b612960565b6128cf565b6128b5565b612871565b61284d565b6127e0565b612787565b612743565b6126dd565b6126a3565b61250f565b61246b565b6123f3565b6123d6565b6123a9565b612228565b6121ea565b6121b0565b61216c565b6120a6565b611ee4565b611ebc565b611e78565b611e48565b611df4565b611cc2565b61192c565b61190b565b6118dc565b611881565b611826565b6117a6565b611762565b61171e565b611701565b61166c565b61163d565b6115ca565b61155a565b6114e5565b6113a1565b6112db565b610ee0565b610d9d565b610d59565b610ccb565b610c37565b610c0a565b610b57565b610b2f565b610afd565b610a75565b610a46565b610988565b61094d565b610912565b6108be565b61084b565b6107b4565b6106d4565b61069c565b61053b565b634e487b7160e01b5f52604160045260245ffd5b606081019081106001600160401b0382111761044757604052565b610418565b604081019081106001600160401b0382111761044757604052565b90601f801991011681019081106001600160401b0382111761044757604052565b60405190610497604083610467565b565b60405190610497606083610467565b6001600160401b0381116104475760051b60200190565b6001600160a01b038116036104d057565b5f80fd5b9080601f830112156104d05781356104eb816104a8565b926104f96040519485610467565b81845260208085019260051b8201019283116104d057602001905b8282106105215750505090565b602080918335610530816104bf565b815201910190610514565b346104d05760203660031901126104d0576004356001600160401b0381116104d05761056b9036906004016104d4565b61058261057c600480606554161490565b15612aa2565b6040905f60205b825182101561069a5783519061059f8583610467565b60018252803660208401376105df6105c76105ba8587612ade565b516001600160a01b031690565b6105d084612acc565b6001600160a01b039091169052565b6105e7612af2565b906106116105f86105ba8688612ade565b6001600160a01b03165f90815260356020526040902090565b5461061b83612acc565b5261064561064061063461062e85612acc565b51614fbe565b6001600160c01b031690565b613513565b945f5b8651811015610688578061068261067b6106756106676001958c612b46565b516001600160f81b03191690565b60f81c90565b86886136c0565b01610648565b50945060019093019291506105899050565b005b346104d05760203660031901126104d0576004355f526034602052602060405f2054604051908152f35b63ffffffff8116036104d057565b346104d05760603660031901126104d05760243561071461070e6004356106fa846106c6565b604435905f52603460205260405f20612be3565b50612bf8565b63ffffffff80825116921691821061079b5760408161075061077894602061075e9501519063ffffffff82161591821561077c575b50506137b7565b01516001600160c01b031690565b6040516001600160c01b0390911681529081906020820190565b0390f35b9091506107939063ffffffff165b63ffffffff1690565b115f80610749565b636cb19aff60e01b5f5260045ffd5b5f9103126104d057565b346104d0575f3660031901126104d0576039546040516001600160a01b039091168152602090f35b6001600160401b03811161044757601f01601f191660200190565b929192610803826107dc565b916108116040519384610467565b8294818452818301116104d0578281602093845f960137010152565b9080601f830112156104d057816020610848933591016107f7565b90565b346104d05760203660031901126104d0576004356001600160401b0381116104d05761087b90369060040161082d565b335f52603560205260ff600160405f200154169060038210156108b9576108a7600161069a9314612b57565b335f52603560205260405f20546137cd565b611514565b346104d05760203660031901126104d0577fa77a91bea7b6d95a8eb5a54878a1d9e3c875e26c86a9b70e3420c5c5db193b6260406004356108fd61388d565b603c549080603c5582519182526020820152a1005b346104d05760203660031901126104d05760043561092f816104bf565b60018060a01b03165f52603b602052602060405f2054604051908152f35b346104d05760203660031901126104d05760043561096a816104bf565b60018060a01b03165f526035602052602060405f2054604051908152f35b346104d05760203660031901126104d05760043560405163237dfb4760e11b8152336004820152906020826024817f00000000000000000000000000000000000000000000000000000000000000006001600160a01b03165afa918215610a415761069a926109fe915f91610a12575b50612b99565b610a0d60655482811614612baf565b613919565b610a34915060203d602011610a3a575b610a2c8183610467565b810190612b7a565b5f6109f8565b503d610a22565b612b8e565b346104d05760203660031901126104d0576004355f526036602052602060ff60405f2054166040519015158152f35b346104d05760403660031901126104d0576060610aad61070e602435600435610a9c612bc5565b505f52603460205260405f20612be3565b6040519063ffffffff815116825263ffffffff6020820151166020830152604060018060c01b03910151166040820152f35b6004359060ff821682036104d057565b359060ff821682036104d057565b346104d05760203660031901126104d05760ff610b18610adf565b165f526037602052602060405f2054604051908152f35b346104d0575f3660031901126104d057603a546040516001600160a01b039091168152602090f35b346104d05760203660031901126104d0576040516308f6629d60e31b815260048035908201526020816024816001600160a01b037f0000000000000000000000000000000000000000000000000000000000000000165afa8015610a4157610778915f91610bdb575b506040516001600160a01b0390911681529081906020820190565b610bfd915060203d602011610c03575b610bf58183610467565b810190612c29565b5f610bc0565b503d610beb565b346104d05760203660031901126104d05761069a600435610c2a816104bf565b610c3261388d565b61394b565b346104d05760203660031901126104d05761069a600435610c57816104bf565b610c5f61388d565b6139a9565b9080601f830112156104d0578135610c7b816104a8565b92610c896040519485610467565b81845260208085019260051b8201019283116104d057602001905b828210610cb15750505090565b602080918335610cc0816106c6565b815201910190610ca4565b346104d05760603660031901126104d057600435610ce8816104bf565b60243590610cf5826104bf565b6044356001600160401b0381116104d05761069a92610d4e610d1e610d53933690600401610c64565b91610d27613a07565b610d3861057c600280606554161490565b603d546001600160a01b03918216911614612c3e565b613a48565b90613ae0565b346104d0575f3660031901126104d0576040517f00000000000000000000000000000000000000000000000000000000000000006001600160a01b03168152602090f35b346104d05760203660031901126104d0576040610dd5610dd0600435610dc2816104bf565b610dca612c54565b50613117565b613d71565b610deb8251809260208091805184520151910152565bf35b60609060031901126104d05760405190610e068261042c565b81600435610e13816106c6565b815260243561ffff811681036104d05760208201526044359061ffff821682036104d05760400152565b6001600160601b038116036104d057565b81601f820112156104d057803590610e65826104a8565b92610e736040519485610467565b82845260208085019360061b830101918183116104d057602001925b828410610e9d575050505090565b6040848303126104d05760206040918251610eb78161044c565b8635610ec2816104bf565b815282870135610ed181610e3d565b83820152815201930192610e8f565b346104d05760c03660031901126104d057610efa36610ded565b606435610f0681610e3d565b6084356001600160401b0381116104d057610f25903690600401610e4e565b60a43592610f32846106c6565b610f3a61388d565b60325460ff1692610f496151b7565b60ff841691610f5a60c08410613e8f565b610f81610f71610f6c60325460ff1690565b613ea5565b60ff1660ff196032541617603255565b610f8b8186614222565b610f93613eb7565b94610f9e8551612b14565b965f5b8651811015610fdb5780610fd5610fcb610fbd6001948b612ade565b51516001600160a01b031690565b6105d0838d612ade565b01610fa1565b508688969596610fe9610488565b63ffffffff8916815290602082015261100182612acc565b5261100b81612acc565b50603d546001600160a01b037f000000000000000000000000000000000000000000000000000000000000000081169116813b156104d057604051630130fc2760e51b8152925f9184918291611065919060048401613f04565b038183855af1908115610a415760049260209261129a575b5061108860016133d6565b61109260016133d6565b604051632981eb7760e01b815292839182905afa8015610a41576110c8915f9161126b575b5063ffffffff808416911611613fbf565b7f00000000000000000000000000000000000000000000000000000000000000006001600160a01b0316803b156104d0575f6040518092630662d3e160e51b825281838161111c8c898d8c60048601614026565b03925af18015610a4157611257575b507f00000000000000000000000000000000000000000000000000000000000000006001600160a01b0316803b156104d05760405163136ca0f960e11b815260ff84166004820152905f908290602490829084905af18015610a4157611243575b507f00000000000000000000000000000000000000000000000000000000000000006001600160a01b0316803b156104d05760405163136ca0f960e11b815260ff9390931660048401525f908390602490829084905af18015610a41577fa34835bc2b673ec37fcf1591a91295b163fc2e181e4ea4e733beb27de1ceac4c9561122493600192611229575b5060405195869586614083565b0390a2005b806112375f61123d93610467565b806107aa565b88611217565b806112375f61125193610467565b8661118c565b806112375f61126593610467565b8661112b565b61128d915060203d602011611293575b6112858183610467565b810190612e9a565b886110b7565b503d61127b565b806112375f6112a893610467565b8961107d565b9181601f840112156104d0578235916001600160401b0383116104d057602083818601950101116104d057565b346104d05760403660031901126104d0576004356001600160401b0381116104d057366023820112156104d0578060040135611316816104a8565b916113246040519384610467565b8183526024602084019260051b820101903682116104d05760248101925b82841061137257602435856001600160401b0382116104d05761136c61069a9236906004016112ae565b91612c6c565b83356001600160401b0381116104d0576020916113968392602436918701016104d4565b815201930192611342565b346104d05760a03660031901126104d0576004356113be816104bf565b6114356024356113cd816104bf565b6044356113d9816104bf565b60643590608435926113ea846104bf565b6064549561141960ff600889901c1615611403565b1590565b809881996114b3575b8115611493575b50612ef1565b8661142c600160ff196064541617606455565b61147a57612f78565b61143b57005b61144b61ff001960645416606455565b604051600181527f7f26b83ff96e1f2b6a682f133852f6798a09c465da95921460cefb384740249890602090a1005b61148e61010061ff00196064541617606455565b612f78565b303b159150816114a5575b505f611413565b60ff1660011490505f61149e565b600160ff821610915061140c565b805180835260209291819084018484015e5f828201840152601f01601f1916010190565b346104d0575f3660031901126104d057610778611500612f54565b6040519182916020835260208301906114c1565b634e487b7160e01b5f52602160045260245ffd5b600311156108b957565b9060038210156108b95752565b81518152602091820151604082019392610497920190611532565b346104d05760203660031901126104d057600435611577816104bf565b61157f612c54565b5060018060a01b03165f52603560205260405f2060ff6001604051926115a48461044c565b805484520154169060038210156108b9576107789160208201526040519182918261153f565b346104d0575f3660031901126104d05760405163237dfb4760e11b81523360048201526020816024817f00000000000000000000000000000000000000000000000000000000000000006001600160a01b03165afa8015610a4157611635915f91610a125750612b99565b61069a6138e5565b346104d05760203660031901126104d0576020600160ff61165c610adf565b161b806065541614604051908152f35b346104d05760803660031901126104d057611685610adf565b60603660231901126104d05760405161169d8161042c565b6024356116a9816106c6565b815260443561ffff811681036104d057602082015260643561ffff811681036104d05760408201526116d961388d565b60ff6032541660ff831610156116f25761069a91614222565b637310cff560e11b5f5260045ffd5b346104d0575f3660031901126104d0576020606554604051908152f35b346104d0575f3660031901126104d0576040517f00000000000000000000000000000000000000000000000000000000000000006001600160a01b03168152602090f35b346104d0575f3660031901126104d0576040517f00000000000000000000000000000000000000000000000000000000000000006001600160a01b03168152602090f35b346104d05760403660031901126104d0576004356117c3816104bf565b6024356001600160401b0381116104d0576117e290369060040161082d565b603a546001600160a01b03163303611817576001600160a01b0382165f908152603b6020526040902042905561069a916142dd565b6376d8ab1760e11b5f5260045ffd5b346104d0575f3660031901126104d05761183e61388d565b60c880546001600160a01b031981169091555f906001600160a01b03167f8be0079c531659141344cd1fd0a4f28419497f9722a3daafe3b4186f6b6457e08280a3005b346104d0575f3660031901126104d05761189961388d565b6101005f546118ae60ff8260081c1615613101565b61ff001916175f557f0fc3c0e6f8b4795f371e19de7f4c5733dd9e549fa8c39e5842eb66c31572d99e5f80a1005b346104d05760203660031901126104d05760206119036004356118fe816104bf565b613117565b604051908152f35b346104d0575f3660031901126104d057602060ff5f54166040519015158152f35b346104d05760a03660031901126104d05761194636610ded565b60643561195281610e3d565b6084356001600160401b0381116104d057611971903690600401610e4e565b61197961388d565b60325460ff166119876151b7565b60ff81169061199860c08310613e8f565b6119aa610f71610f6c60325460ff1690565b6119b48582614222565b6119bc613eb7565b936119c78451612b14565b955f5b85518110156119f657806119f06119e6610fbd6001948a612ade565b6105d0838c612ade565b016119ca565b50848688611a02610488565b63ffffffff88168152906020820152611a1a82612acc565b52611a2481612acc565b50603d546001600160a01b037f0000000000000000000000000000000000000000000000000000000000000000811692911690823b156104d057611a81925f9283604051809681958294630130fc2760e51b845260048401613f04565b03925af18015610a4157611c2b575b50611a9a5f6133d6565b7f00000000000000000000000000000000000000000000000000000000000000006001600160a01b0316803b156104d0575f6040518092633aea0b9d60e11b8252818381611aed888b8d6004850161405b565b03925af18015610a4157611c17575b507f00000000000000000000000000000000000000000000000000000000000000006001600160a01b0316803b156104d05760405163136ca0f960e11b815260ff86166004820152905f908290602490829084905af18015610a4157611c03575b507f00000000000000000000000000000000000000000000000000000000000000006001600160a01b0316803b156104d05760405163136ca0f960e11b815260ff9590951660048601525f908590602490829084905af1938415610a41575f6112249281927fa34835bc2b673ec37fcf1591a91295b163fc2e181e4ea4e733beb27de1ceac4c97611bf5575060405195869586614083565b806112378461123d93610467565b806112375f611c1193610467565b85611b5d565b806112375f611c2593610467565b85611afc565b806112375f611c3993610467565b85611a90565b929391611c61611c6f92600f60f81b865260e0602087015260e08601906114c1565b9084820360408601526114c1565b92606083015260018060a01b031660808201525f60a082015260c0818303910152602080835192838152019201905f5b818110611cac5750505090565b8251845260209384019390920191600101611c9f565b346104d0575f3660031901126104d05760fa541580611d5a575b15611d1d57611ce9614415565b611cf16144ca565b90610778604051611d03602082610467565b5f8082523660208301376040519384933091469186611c3f565b60405162461bcd60e51b81526020600482015260156024820152741152540dcc4c8e88155b9a5b9a5d1a585b1a5e9959605a1b6044820152606490fd5b5060fb5415611cdc565b81601f820112156104d057803590611d7b826104a8565b92611d896040519485610467565b82845260208085019360061b830101918183116104d057602001925b828410611db3575050505090565b6040848303126104d05760206040918251611dcd8161044c565b611dd687610aef565b815282870135611de5816104bf565b83820152815201930192611da5565b346104d05760a03660031901126104d057600435611e11816104bf565b60243590604435906001600160401b0382116104d057602092611e3b611903933690600401611d64565b606435916084359361316a565b346104d05760203660031901126104d0576020611e66600435614fbe565b6040516001600160c01b039091168152f35b346104d0575f3660031901126104d0576040517f00000000000000000000000000000000000000000000000000000000000000006001600160a01b03168152602090f35b346104d0575f3660031901126104d05760c8546040516001600160a01b039091168152602090f35b346104d0575f3660031901126104d057602060ff60325416604051908152f35b91908260409103126104d057604051611f1c8161044c565b6020808294803584520135910152565b9080601f830112156104d05760405191611f47604084610467565b8290604081019283116104d057905b828210611f635750505090565b8135815260209182019101611f56565b906101006043198301126104d05760405191611f8e8361042c565b82611f9a826044611f04565b8152611fa7826084611f04565b6020820152608060c3198301126104d057604090611fdf825193611fca8561044c565b611fd58160c4611f2c565b8552610104611f2c565b60208401520152565b808203929161010084126104d0576040516120028161042c565b608081956120108486611f04565b835261201f8460408701611f04565b6020840152607f1901126104d057611fdf60409260c08451956120418761044c565b61204e8360808301611f2c565b875201611f2c565b9190916060818403126104d057604051906120708261042c565b81938135916001600160401b0383116104d057612093604093928493830161082d565b8452602081013560208501520135910152565b346104d0576101a03660031901126104d0576004356001600160401b0381116104d0576120d79036906004016112ae565b906024356001600160401b0381116104d0576120f790369060040161082d565b61210036611f73565b610144356001600160401b0381116104d057612120903690600401611d64565b90610164356001600160401b0381116104d057612141903690600401612056565b9261018435956001600160401b0387116104d05761216661069a973690600401612056565b95613225565b346104d0575f3660031901126104d0576040517f00000000000000000000000000000000000000000000000000000000000000006001600160a01b03168152602090f35b346104d0575f3660031901126104d05760206040517f2bd82124057f0913bc3b772ce7b83e8057c1ad1f3510fc83778be20f10ec5de68152f35b346104d05760203660031901126104d057602061221e612208610adf565b6122106134ad565b60ff600192161c1660011490565b6040519015158152f35b346104d0576101603660031901126104d0576004356001600160401b0381116104d05761225990369060040161082d565b6024356001600160401b0381116104d05761227890369060040161082d565b61228136611f73565b610144356001600160401b0381116104d0576001926122a761232c923690600401612056565b946122b961057c600180606554161490565b6122d36122ce6113ff5f5460ff9060081c1690565b613101565b6122f56122f06122e283614575565b6122ea6134ad565b81161490565b613326565b335f908152603560205260409020612326906123169087905b015460ff1690565b9461232086611528565b33614623565b33614a45565b500361233457005b7f00000000000000000000000000000000000000000000000000000000000000006001600160a01b0316803b156104d057604051639926ee7d60e01b8152915f91839182908490829061238b90336004840161333c565b03925af18015610a415761239b57005b806112375f61069a93610467565b346104d05760203660031901126104d05761069a6004356123c9816104bf565b6123d161388d565b6141c4565b346104d0575f3660031901126104d0576020603c54604051908152f35b346104d05760203660031901126104d0576020600435612412816104bf565b603d546040516001600160a01b0392831691909216148152f35b60206040818301928281528451809452019201905f5b81811061244f5750505090565b825163ffffffff16845260209384019390920191600101612442565b346104d05760403660031901126104d057600435612488816106c6565b602435906001600160401b0382116104d057366023830112156104d0578160040135916124b4836104a8565b926124c26040519485610467565b8084526024602085019160051b830101913683116104d057602401905b8282106124ff576107786124f38686614f48565b6040519182918261242c565b81358152602091820191016124df565b346104d05760803660031901126104d05760043561252c816104bf565b602435612538816104bf565b6044356001600160401b0381116104d057612557903690600401610c64565b90606435916001600160401b0383116104d0576125bb6125d391612582610d4e9536906004016112ae565b95909461258d613a07565b61259e61057c600180606554161490565b603d546001600160a01b03166001600160a01b0390911614612c3e565b9282016125c88184613393565b879592949195614623565b926125dd816133d6565b8061266457505050916125f1928194614a45565b51905f5b815181101561069a578061265e61261461067561066760019587612b46565b63ffffffff61265561078a61264b61263961262f888c612ade565b5163ffffffff1690565b9460ff165f52603360205260405f2090565b5463ffffffff1690565b91161115613465565b016125f5565b806126766001929896959794986133d6565b036126945761069a95612688916133e0565b97935095915050614725565b63354bb8ab60e01b5f5260045ffd5b346104d0575f3660031901126104d05760206040517f4d404e3276e7ac2163d8ee476afa6a41d1f68fb71f2d8b6546b24e55ce01b72a8152f35b346104d05760203660031901126104d0576004356001600160401b0381116104d05761271061069a91369060040161082d565b61272161057c600280606554161490565b61273d61272d82614575565b6127356134ad565b811614613326565b33613ae0565b346104d0575f3660031901126104d0576040517f00000000000000000000000000000000000000000000000000000000000000006001600160a01b03168152602090f35b346104d0575f3660031901126104d057603d546040516001600160a01b039091168152602090f35b61049790929192606081019361ffff6040809263ffffffff8151168552826020820151166020860152015116910152565b346104d05760203660031901126104d05760ff6127fb610adf565b612803612bc5565b50165f52603360205261077860405f2061ffff604051916128238361042c565b5463ffffffff81168352818160201c16602084015260301c166040820152604051918291826127af565b346104d0575f3660031901126104d057602060ff5f5460081c166040519015158152f35b346104d0575f3660031901126104d0576040517f00000000000000000000000000000000000000000000000000000000000000006001600160a01b03168152602090f35b346104d0575f3660031901126104d05760206119036134ad565b346104d05760203660031901126104d0576004356128ec816104bf565b6128f461388d565b6001600160a01b0381161561290c5761069a9061417c565b60405162461bcd60e51b815260206004820152602660248201527f4f776e61626c653a206e6577206f776e657220697320746865207a65726f206160448201526564647265737360d01b6064820152608490fd5b346104d0575f3660031901126104d057602061190361578d565b346104d05760203660031901126104d05760043560405163755b36bd60e11b81526020816004817f00000000000000000000000000000000000000000000000000000000000000006001600160a01b03165afa908115610a41575f91612a3d575b506001600160a01b03163303612a2e576129fc606554198219811614612baf565b806065556040519081527f3582d1828e26bf56bd801502bc021ac0bc8afb57c826e4986b45593c8fad389c60203392a2005b63794821ff60e01b5f5260045ffd5b612a56915060203d602011610c0357610bf58183610467565b5f6129db565b346104d05760203660031901126104d057600435612a79816104bf565b60018060a01b03165f526035602052602060ff600160405f20015416610deb6040518092611532565b15612aa957565b63840a48d560e01b5f5260045ffd5b634e487b7160e01b5f52603260045260245ffd5b805115612ad95760200190565b612ab8565b8051821015612ad95760209160051b010190565b60408051909190612b038382610467565b6001815291601f1901366020840137565b90612b1e826104a8565b612b2b6040519182610467565b8281528092612b3c601f19916104a8565b0190602036910137565b908151811015612ad9570160200190565b15612b5e57565b63aba4733960e01b5f5260045ffd5b519081151582036104d057565b908160209103126104d05761084890612b6d565b6040513d5f823e3d90fd5b15612ba057565b631d77d47760e21b5f5260045ffd5b15612bb657565b63c61dca5d60e01b5f5260045ffd5b60405190612bd28261042c565b5f6040838281528260208201520152565b8054821015612ad9575f5260205f2001905f90565b90604051612c058161042c565b604081935463ffffffff8116835263ffffffff8160201c166020840152811c910152565b908160209103126104d05751610848816104bf565b15612c4557565b6366e565df60e01b5f5260045ffd5b60405190612c618261044c565b5f6020838281520152565b9190612c7f61057c600480606554161490565b612c9e612c8e60325460ff1690565b612c993685856107f7565b6140f1565b50612cab82845114612e78565b5f917f00000000000000000000000000000000000000000000000000000000000000006001600160a01b03165b818410612ce6575050505050565b612d0a610675612cfc86858798999a9697612e8e565b356001600160f81b03191690565b91612d158688612ade565b5180516040516379a0849160e11b815260ff8616600482015291939190602082602481865afa918215610a4157612d5b9263ffffffff915f91612e5a575b501614612eaf565b612d658351612b14565b955f985f995b85518b1015612de85788612de0600192612dcb612dc68f61221061063461062e8f938f6105ba82612d9b92612ade565b6001600160a01b0381165f908152603560205260409020909a9054612dc08383612ade565b52612ade565b612ec5565b838060a01b0316838060a01b03831611612edb565b9a0199612d6b565b509594809298939950612dfe91976001956136c0565b43612e148260ff165f52603760205260405f2090565b557f46077d55330763f16269fd75e5761663f4192d2791747c0189b16ad31db07db460ff60405192169180612e4e43829190602083019252565b0390a201929193612cd8565b612e72915060203d8111611293576112858183610467565b5f612d53565b15612e7f57565b63aaad13f760e01b5f5260045ffd5b90821015612ad9570190565b908160209103126104d05751610848816106c6565b15612eb657565b638e5aeee760e01b5f5260045ffd5b15612ecc57565b63d053aa2160e01b5f5260045ffd5b15612ee257565b63ba50f91160e01b5f5260045ffd5b15612ef857565b60405162461bcd60e51b815260206004820152602e60248201527f496e697469616c697a61626c653a20636f6e747261637420697320616c72656160448201526d191e481a5b9a5d1a585b1a5e995960921b6064820152608490fd5b60405190612f63604083610467565b600682526576302e302e3160d01b6020830152565b929192604051612f89604082610467565b601681527520ab29a932b3b4b9ba393ca1b7b7b93234b730ba37b960511b6020820152612fb4612f54565b90612fcf60ff60645460081c16612fca8161411c565b61411c565b8051906001600160401b03821161044757612ff482612fef60fc546143dd565b615215565b602090601f831160011461306657610c5f946130446123d1989561303c86610a0d976104979e9d9b97610c32975f9261305b575b50508160011b915f199060031b1c19161790565b60fc556152b4565b61304d5f60fa55565b6130565f60fb55565b61417c565b015190505f80613028565b60fc5f52601f19831691907f371f36870d18f32a11fea0f144b021c8b407bb50f8e0267c711123f454b963c0925f5b8181106130e957506123d198956001866104979d9c9a96610c3296610c5f9b96610a0d9a61304497106130d1575b505050811b0160fc556152b4565b01515f1960f88460031b161c191690555f80806130c3565b92936020600181928786015181550195019301613095565b1561310857565b6321fa91f360e01b5f5260045ffd5b6108489060405160208101917f2bd82124057f0913bc3b772ce7b83e8057c1ad1f3510fc83778be20f10ec5de6835260018060a01b0316604082015260408152613162606082610467565b5190206143b7565b919493909260405192602084019460e08501917f4d404e3276e7ac2163d8ee476afa6a41d1f68fb71f2d8b6546b24e55ce01b72a875260018060a01b03166040860152606085015260c060808501528651809152602061010085019701905f5b8181106131f757505050610848949561316292849260a084015260c083015203601f198101835282610467565b8251805160ff168a526020908101516001600160a01b0316818b0152604090990198909201916001016131ca565b916132a89394916132a16001979461324461057c600180606554161490565b6132596122ce6113ff5f5460ff9060081c1690565b6132726122f06122e261326d3687866107f7565b614575565b335f9081526035602052604090206132999061328f908b9061230e565b986123208a611528565b9236916107f7565b9033614725565b036132b05750565b7f00000000000000000000000000000000000000000000000000000000000000006001600160a01b0316803b156104d057604051639926ee7d60e01b8152915f91839182908490829061330790336004840161333c565b03925af18015610a41576133185750565b806112375f61049793610467565b1561332d57565b63afaa70ef60e01b5f5260045ffd5b9060018060a01b031681526040602082015260806040613367845160608386015260a08501906114c1565b9360208101516060850152015191015290565b610848906122106134ad565b359060028210156104d057565b9091610140828403126104d0576133a982613386565b926020830135906001600160401b0382116104d05760406133cf8261084894870161082d565b9401611fe8565b600211156108b957565b919091610180818403126104d0576133f781613386565b9260208201356001600160401b0381116104d0578161341791840161082d565b926134258260408501611fe8565b926101408101356001600160401b0381116104d05783613446918301611d64565b926101608201356001600160401b0381116104d0576108489201612056565b1561346c57565b63c6b9e76760e01b5f5260045ffd5b906040516134888161042c565b604061ffff82945463ffffffff81168452818160201c16602085015260301c16910152565b60ff5f54166134be57610848614fa7565b60015490565b906134ce826107dc565b6134db6040519182610467565b8281528092612b3c601f19916107dc565b634e487b7160e01b5f52601160045260245ffd5b5f19811461350e5760010190565b6134ec565b5f81805b61358d57506135299061ffff166134c4565b5f5f5b8251821080613582575b1561357b576001811b8416613554575b61354f90613500565b61352c565b90600161354f9160ff60f81b8460f81b165f1a6135718287612b46565b5301919050613546565b5050905090565b506101008110613536565b5f19810181811161350e5761ffff9116911661ffff811461350e576001019080613517565b6020818303126104d0578051906001600160401b0382116104d057019080601f830112156104d05781516135e5816104a8565b926135f36040519485610467565b81845260208085019260051b8201019283116104d057602001905b82821061361b5750505090565b6020809161362884612b6d565b81520191019061360e565b93929190606085016060865281518091526020608087019201905f5b8181106136a1575050508481036020860152602080835192838152019201905f5b81811061368b575050509060406104979294019060ff169052565b8251845260209384019390920191600101613670565b82516001600160a01b031684526020938401939092019160010161364f565b905f61370794936136cf612af2565b9260f882901b6001600160f81b031916831a6136ea85612acc565b53604051636c3fb4bf60e01b815296879283928760048501613633565b0381837f00000000000000000000000000000000000000000000000000000000000000006001600160a01b03165af1938415610a41575f94613793575b505f5b825181101561378c578061376661376060019388612ade565b51151590565b613771575b01613747565b613787836137826105ba8488612ade565b6142dd565b61376b565b5050509050565b6137b09194503d805f833e6137a88183610467565b8101906135b2565b925f613744565b156137be57565b63bbba60cb60e01b5f5260045ffd5b907f00000000000000000000000000000000000000000000000000000000000000006001600160a01b031690813b156104d0575f60405180936378219b3f60e11b82528560048301526040602483015281838161382d60448201886114c1565b03925af1908115610a41577fec2963ab21c1e50e1e582aa542af2e4bf7bf38e6e1403c27b42e1c5d6e621eaa926138789261387d575b506040519182916020835260208301906114c1565b0390a2565b5f61388791610467565b5f613863565b60c8546001600160a01b031633036138a157565b606460405162461bcd60e51b815260206004820152602060248201527f4f776e61626c653a2063616c6c6572206973206e6f7420746865206f776e65726044820152fd5b5f196065556040515f1981527fab40a374bc51de372200a8bc981af8c9ecdc08dfdaef0bb6e09f88f3c616ef3d60203392a2565b806065556040519081527fab40a374bc51de372200a8bc981af8c9ecdc08dfdaef0bb6e09f88f3c616ef3d60203392a2565b603954604080516001600160a01b038084168252841660208201529192917f315457d8a8fe60f04af17c16e2f5a5e1db612b31648e58030360759ef8f3528c9190a16001600160a01b03166001600160a01b03199190911617603955565b603a54604080516001600160a01b038084168252841660208201529192917f8f30ab09f43a6c157d7fce7e0a13c003042c1c95e8a72e7a146a21c0caa24dc99190a16001600160a01b03166001600160a01b03199190911617603a55565b7f00000000000000000000000000000000000000000000000000000000000000006001600160a01b03163303613a3957565b6323d871a560e01b5f5260045ffd5b90613a5382516134c4565b5f5b8351811015613a8c576001906001600160f81b0319613a748287612ade565b5160f81b165f1a613a858285612b46565b5301613a55565b509150565b15613a9857565b6368b6a87560e11b5f5260045ffd5b6001600160a01b039091168152604060208201819052610848929101906114c1565b6040906108489392815281602082015201906114c1565b6001600160a01b0381165f90815260356020526040902090613b74825492613b286001613b1981613b1088614fbe565b94015460ff1690565b613b2281611528565b14612b57565b613b43610634610634613b3d60325460ff1690565b886140f1565b90613b4f821515613a91565b613b658282166001600160c01b03168314612ec5565b9019166001600160c01b031690565b91613b7f8382615002565b6001600160c01b03831615613cfe575b7f00000000000000000000000000000000000000000000000000000000000000006001600160a01b0316803b156104d0575f604051809263f4e24fe560e01b8252818381613be18b8a60048401613aa7565b03925af18015610a4157613cea575b507f00000000000000000000000000000000000000000000000000000000000000006001600160a01b0316803b156104d0575f604051809263bd29b8cd60e01b8252818381613c438b8960048401613ac9565b03925af18015610a4157613cd6575b507f00000000000000000000000000000000000000000000000000000000000000006001600160a01b031693843b156104d057613ca8945f928360405180988195829463bd29b8cd60e01b845260048401613ac9565b03925af1928315610a415761049793613cc2575b5061511c565b806112375f613cd093610467565b5f613cbc565b806112375f613ce493610467565b5f613c52565b806112375f613cf893610467565b5f613bf0565b6001600160a01b0382165f908152603560205260409020613d2990600101805460ff19166002179055565b806001600160a01b0383167f396fdcb180cb0fea26928113fb0fd1c3549863f9cd563e6a184f1d578116c8e45f80a3613b8f565b634e487b7160e01b5f52601260045260245ffd5b5f516020615bb95f395f51905f5290613d88612c54565b505f919006602060c0835b613e88575f935f516020615bb95f395f51905f5260038186818180090908604051613dbe8582610467565b84368237848185604051613dd28282610467565b813682378381528360208201528360408201528560608201527f0c19139cb84c680a6e14116da060561765e05aa45a1c72a34f082305b61f3f5260808201525f516020615bb95f395f51905f5260a082015260056107cf195a01fa8015613e8d57613e3c90615867565b5191613e88575f516020615bb95f395f51905f5282800914613e7357505f516020615bb95f395f51905f5260015f94089293613d93565b92935050613e7f610488565b92835282015290565b613d5d565bfe5b15613e9657565b633cb89c9760e01b5f5260045ffd5b60ff60019116019060ff821161350e57565b60408051909190613ec88382610467565b6001815291601f1901825f5b828110613ee057505050565b602090604051613eef8161044c565b5f815260608382015282828501015201613ed4565b90604082019060018060a01b031682526040602083015282518091526060820191602060608360051b8301019401925f915b838310613f4557505050505090565b9091929394605f1982820301835285516020606081604085019363ffffffff81511686520151936040838201528451809452019201905f905b808210613f9d5750505060208060019297019301930191939290613f36565b82516001600160a01b0316845260209384019390920191600190910190613f7e565b15613fc657565b630bd441b960e21b5f5260045ffd5b90602080835192838152019201905f5b818110613ff25750505090565b825180516001600160a01b031685526020908101516001600160601b03168186015260409094019390920191600101613fe5565b9061084894936001600160601b0360809460ff63ffffffff941685521660208401521660408201528160608201520190613fd5565b6001600160601b03610848949360ff6060941683521660208201528160408201520190613fd5565b9395949060c0936001600160601b0363ffffffff946140c5886140dc9561ffff6040809263ffffffff8151168552826020820151166020860152015116910152565b16606087015260e0608087015260e0860190613fd5565b956140e6816133d6565b60a085015216910152565b9060016140ff60ff93614575565b928392161b111561410d5790565b63ca95733360e01b5f5260045ffd5b1561412357565b60405162461bcd60e51b815260206004820152602b60248201527f496e697469616c697a61626c653a20636f6e7472616374206973206e6f74206960448201526a6e697469616c697a696e6760a81b6064820152608490fd5b60c880546001600160a01b039283166001600160a01b0319821681179092559091167f8be0079c531659141344cd1fd0a4f28419497f9722a3daafe3b4186f6b6457e05f80a3565b603d54604080516001600160a01b038084168252841660208201529192917f9770f3cadfdcbb6f93af935e86047111590c3768271d237e4a2bc0b874bed6939190a16001600160a01b03166001600160a01b03199190911617603d55565b60ff7f3ee6fe8d54610244c3e9d3c066ae4aee997884aa28f10616ae821925401318ac911691825f52603360205260405f2061427563ffffffff835116829063ffffffff1663ffffffff19825416179055565b6020820151815465ffff0000000067ffff000000000000604086015160301b169260201b169067ffffffff00000000191617179055604051809161387882606081019261ffff6040809263ffffffff8151168552826020820151166020860152015116910152565b6001600160a01b0381165f908152603560205260409020919291600161431e8161431561063461430f60325460ff1690565b896140f1565b93015460ff1690565b61432781611528565b1490816143a4575b5061433957509050565b614341612af2565b5f5b845181101561378c578061435c61066760019388612b46565b5f1a61436784612acc565b5361438061437b610675610667848a612b46565b61337a565b156143955761438f8385613ae0565b01614343565b61439f838561538b565b61438f565b6001600160c01b0316151590505f61432f565b6042906143c261578d565b906040519161190160f01b8352600283015260228201522090565b90600182811c9216801561440b575b60208310146143f757565b634e487b7160e01b5f52602260045260245ffd5b91607f16916143ec565b604051905f8260fc5491614428836143dd565b80835292600181169081156144ab575060011461444c575b61049792500383610467565b5060fc5f90815290917f371f36870d18f32a11fea0f144b021c8b407bb50f8e0267c711123f454b963c05b81831061448f57505090602061049792820101614440565b6020919350806001915483858901015201910190918492614477565b6020925061049794915060ff191682840152151560051b820101614440565b604051905f8260fd54916144dd836143dd565b80835292600181169081156144ab57506001146145005761049792500383610467565b5060fd5f90815290917f9346ac6dd7de6b96975fec380d4d994c4c12e6a8897544f22915316cc6cca2805b81831061454357505090602061049792820101614440565b602091935080600191548385890101520191019091849261452b565b1561456657565b631019106960e31b5f5260045ffd5b906101008251116145de578151156145d957602082015160019060f81c81901b5b83518210156145d4576001906145bf6145b56106756106678689612b46565b60ff600191161b90565b906145cb81831161455f565b17910190614596565b925050565b5f9150565b637da54e4760e11b5f5260045ffd5b908160209103126104d0575190565b905f905b6002821061460d57505050565b6020806001928551815201930191019091614600565b906146b790614630612c54565b506146a360206040614644610dd087613117565b81516301e2d35b60e11b81526001600160a01b039097166004880152845180516024890152602001516044880152938083015180516064890152602001516084880152015161469760a4870182516145fc565b015160e48501906145fc565b805161012484015260200151610144830152565b602081610164815f7f00000000000000000000000000000000000000000000000000000000000000006001600160a01b03165af1908115610a41575f916146fc575090565b610848915060203d60201161471e575b6147168183610467565b8101906145ed565b503d61470c565b949180939161474661474c9461473e8851855114612e78565b87838a61544c565b86614d52565b5f5b8251811015614857578061478661478161477061067561066760019689612b46565b60ff165f52603360205260405f2090565b61347b565b61479461262f838651612ade565b63ffffffff6147aa61078a845163ffffffff1690565b9116116147b9575b500161474e565b61480f906147cd6106756106678589612b46565b6147eb6147de856040890151612ade565b516001600160601b031690565b896147fd6147de8760208b0151612ade565b91614808878c612ade565b519361552d565b61485161481a612af2565b6148276106678488612b46565b5f1a61483282612acc565b536137826020614842858a612ade565b5101516001600160a01b031690565b5f6147b2565b5050505050565b6040519061486b8261042c565b60606040838281528260208201520152565b1561488457565b6313ca465760e01b5f5260045ffd5b1561489a57565b630c6816cd60e01b5f5260045ffd5b9190820180921161350e57565b156148bd57565b631968677d60e11b5f5260045ffd5b6001602091835181550191015160038110156108b95760ff80198354169116179055565b9080601f830112156104d0578151614907816104a8565b926149156040519485610467565b81845260208085019260051b8201019283116104d057602001905b82821061493d5750505090565b60208091835161494c81610e3d565b815201910190614930565b9190916040818403126104d05780516001600160401b0381116104d057836149809183016148f0565b9260208201516001600160401b0381116104d05761084892016148f0565b610848939260609260018060a01b03168252602082015281604082015201906114c1565b6020818303126104d0578051906001600160401b0382116104d057019080601f830112156104d05781516149f5816104a8565b92614a036040519485610467565b81845260208085019260051b8201019283116104d057602001905b828210614a2b5750505090565b602080918351614a3a816106c6565b815201910190614a1e565b614add614a5061485e565b94614ad7614a66610634613b3d60325460ff1690565b614a6f86614fbe565b6001600160c01b0390911690614a8682151561487d565b60018060c01b0316614aa0614a9b8284161590565b614893565b6001600160a01b0386165f908152603b60205260409020614ad090614ac99054603c54906148a9565b42116148b6565b1785615002565b836137cd565b6001614afd8161230e8460018060a01b03165f52603560205260405f2090565b614b0681611528565b03614ced575b7f00000000000000000000000000000000000000000000000000000000000000006001600160a01b0316803b156104d0575f6040518092631fd93ca960e11b8252818381614b5e8a8960048401613aa7565b03925af18015610a415784925f928592614cd9575b50614b926040519485938493632550477760e01b85526004850161499e565b0381837f00000000000000000000000000000000000000000000000000000000000000006001600160a01b03165af18015610a4157614bfd925f92859284918591614cb5575b5060408801526020870152604051938492839262bff04d60e01b845260048401613ac9565b0381837f00000000000000000000000000000000000000000000000000000000000000006001600160a01b03165af1908115610a41575f91614c93575b5082525f5b8151811015614c8e5780614c88614c6461478161477061067561066760019789612b46565b63ffffffff61265561078a614c7d61262f878b51612ade565b935163ffffffff1690565b01614c3f565b505090565b614caf91503d805f833e614ca78183610467565b8101906149c2565b5f614c3a565b9050614cd391503d8086833e614ccb8183610467565b810190614957565b5f614bd8565b8061123785614ce793610467565b5f614b73565b614d1e614cf8610488565b838152600160208201526001600160a01b0383165f9081526035602052604090206148cc565b816001600160a01b0382167fe8e68cef1c3a761ed7be7e8463a375f27f7bc335e51824223cacce636ec5c3fe5f80a3614b0c565b614d5d614a5061485e565b6001614d7d8161230e8460018060a01b03165f52603560205260405f2090565b614d8681611528565b03614f09575b7f00000000000000000000000000000000000000000000000000000000000000006001600160a01b0316803b156104d0575f6040518092631fd93ca960e11b8252818381614dde8a8960048401613aa7565b03925af18015610a415784925f928592614ef5575b50614e126040519687938493632550477760e01b85526004850161499e565b0381837f00000000000000000000000000000000000000000000000000000000000000006001600160a01b03165af1918215610a4157614e7c935f9384918591614ed9575b5060408701526020860152604051938492839262bff04d60e01b845260048401613ac9565b0381837f00000000000000000000000000000000000000000000000000000000000000006001600160a01b03165af1908115610a41575f91614ebf575b50815290565b614ed391503d805f833e614ca78183610467565b5f614eb9565b9050614eef91503d8086833e614ccb8183610467565b5f614e57565b8061123785614f0393610467565b5f614df3565b614f14614cf8610488565b816001600160a01b0382167fe8e68cef1c3a761ed7be7e8463a375f27f7bc335e51824223cacce636ec5c3fe5f80a3614d8c565b9190614f548151612b14565b905f5b8151811015614f925780614f79614f7060019385612ade565b51876034615683565b63ffffffff614f888387612ade565b9116905201614f57565b5090925050565b5f1981019190821161350e57565b600160ff603254161b5f19810190811161350e5790565b805f52603460205260405f20549081155f14614fda5750505f90565b5f52603460205260405f20905f19810190811161350e57614ffa91612be3565b505460401c90565b90615015825f52603460205260405f2090565b54806150625750615031610497925f52603460205260405f2090565b61505d61503c610499565b4363ffffffff168152925b5f60208501526001600160c01b03166040840152565b6157f4565b9161508d63ffffffff93615087615081845f52603460205260405f2090565b91614f99565b90612be3565b509061509d825463ffffffff1690565b438516941684036150c857506104979250906001600160401b0382549181199060401b169116179055565b815467ffffffff000000001916602085901b67ffffffff00000000161790915561049792919061505d90615104905f52603460205260405f2090565b91615047615110610499565b63ffffffff9095168552565b90615125614fa7565b9061512e6134ad565b1990911619166001600160c01b0316156151455750565b7f00000000000000000000000000000000000000000000000000000000000000006001600160a01b0316803b156104d0576040516351b27a6d60e11b81526001600160a01b0390921660048301525f908290602490829084905af18015610a41576151ad5750565b5f61049791610467565b5f5460ff811615806151c7575050565b15615206576001906151d7614fa7565b825560ff1916175f557f0b88306ff4627121f5b3e5b1c5f88f6b1e42fd2c0478ef1c91662d49d1f077555f80a1565b63b2e18e0560e01b5f5260045ffd5b601f8111615221575050565b60fc5f5260205f20906020601f840160051c8301931061525b575b601f0160051c01905b818110615250575050565b5f8155600101615245565b909150819061523c565b601f821161527257505050565b5f5260205f20906020601f840160051c830193106152aa575b601f0160051c01905b81811061529f575050565b5f8155600101615294565b909150819061528b565b9081516001600160401b038111610447576152db816152d460fd546143dd565b60fd615265565b602092601f821160011461530f5761530a929382915f9261305b5750508160011b915f199060031b1c19161790565b60fd55565b60fd5f52601f198216937f9346ac6dd7de6b96975fec380d4d994c4c12e6a8897544f22915316cc6cca280915f5b868110615373575083600195961061535b575b505050811b0160fd55565b01515f1960f88460031b161c191690555f8080615350565b9192602060018192868501518155019401920161533d565b9061539590614575565b61539d6134ad565b1916806153a8575050565b6153b190613513565b603d546001600160a01b037f00000000000000000000000000000000000000000000000000000000000000008116929161541b916153f0911692615ad0565b9161540b6153fc610499565b6001600160a01b039096168652565b6001600160a01b03166020850152565b6040830152803b156104d057604051636e3492b560e01b8152915f918391829084908290613307906004830161587d565b919290602082019283515f52603660205260ff60405f2054166154c75760408301805142116154b857610497956154b09386515f52603660205261549a60405f20600160ff19825416179055565b6039546001600160a01b0316965192519361316a565b9051916158e7565b630819bdcd60e01b5f5260045ffd5b636fbefec360e11b5f5260045ffd5b156154dd57565b6356168b4160e11b5f5260045ffd5b908160209103126104d0575161084881610e3d565b1561550857565b634c44995d60e01b5f5260045ffd5b1561551e57565b63b187e86960e01b5f5260045ffd5b6020919261558a61557d6155b59896976155766155528783015160018060a01b031690565b6001600160a01b039081165f818152603560205260409020549690911614156154d6565b5160ff1690565b60ff808516911614612eaf565b604051635401ed2760e01b8152600481019190915260ff909116602482015294859081906044820190565b03817f00000000000000000000000000000000000000000000000000000000000000006001600160a01b03165afa928315610a4157610497945f94615639575b50826156319261562c615618936001600160601b0361562461561882998b615a1e565b6001600160601b031690565b911611615501565b615a41565b911610615517565b615618919450926156319261562c6156706001600160601b039660203d60201161567c575b6156688183610467565b8101906154ec565b969350509250926155f5565b503d61565e565b9190815f528260205260405f2054925f5b84811061572c5760405162461bcd60e51b815260206004820152605c60248201527f5265676973747279436f6f7264696e61746f722e67657451756f72756d42697460448201527f6d6170496e6465784174426c6f636b4e756d6265723a206e6f206269746d617060648201527f2075706461746520666f756e6420666f72206f70657261746f72496400000000608482015260a490fd5b80850385811161350e5761078a61574291614f99565b61576b6157608261575b8887905f5260205260405f2090565b612be3565b505463ffffffff1690565b63ffffffff808616911611156157845750600101615694565b94505050505090565b615795615a5f565b61579d615aaa565b6040519060208201927f8b73c3c69bb8fe3d512ecc4cf759cc79239f7b179b0ffacaa9a75d522b39400f8452604083015260608201524660808201523060a082015260a081526157ee60c082610467565b51902090565b8054680100000000000000008110156104475761581691600182018155612be3565b61585457815160208084015160409485015163ffffffff909316911b67ffffffff00000000161767ffffffffffffffff199190931b16919091179055565b634e487b7160e01b5f525f60045260245ffd5b1561586e57565b63d51edae360e01b5f5260045ffd5b602080825282516001600160a01b039081168284015281840151166040808401919091529092015160608083015280516080830181905260a09092019201905f5b8181106158cb5750505090565b825163ffffffff168452602093840193909201916001016158be565b9190916158f48284615b08565b93909260058510156108b95761591d941593846159e5575b508315615932575b50505015151590565b61592357565b638baa579f60e01b5f5260045ffd5b5f93509061595d61596b8594936040519283916020830195630b135d3f60e11b875260248401613ac9565b03601f198101835282610467565b51915afa3d156159de573d61597f816107dc565b9061598d6040519283610467565b81523d5f602083013e5b816159d0575b816159ac575b505f8080615914565b90506159c9630b135d3f60e11b91602080825183010191016145ed565b145f6159a3565b90506020815110159061599d565b6060615997565b6001600160a01b0384811691161493505f61590c565b906001600160601b03809116911602906001600160601b03821691820361350e57565b615a3c6001600160601b039161ffff602061271095015116906159fb565b160490565b615a3c6001600160601b039161ffff604061271095015116906159fb565b615a67614415565b8051908115615a77576020012090565b505060fa548015615a855790565b507fc5d2460186f7233c927e7db2dcc703c0e500b653ca82273b7bfad8045d85a47090565b615ab26144ca565b8051908115615ac2576020012090565b505060fb548015615a855790565b90615adb8251612b14565b5f5b8351811015613a8c5780615af360019286612b46565b5160f81c615b018285612ade565b5201615add565b9060418151145f14615b3457615b3091602082015190606060408401519301515f1a90615b3d565b9091565b50505f90600290565b7f7fffffffffffffffffffffffffffffff5d576e7357a4501ddfe92f46681b20a08411615bad576020935f9360ff60809460405194855216868401526040830152606082015282805260015afa15610a41575f516001600160a01b03811615615ba557905f90565b505f90600190565b505050505f9060039056fe30644e72e131a029b85045b68181585d97816a916871ca8d3c208c16d87cfd47a2646970667358221220e81f8150c6948ba33892bf8b7016beb157d39c2570671c5d527c926fc41ee91264736f6c634300081b0033","linkReferences":{}},"methodIdentifiers":{"OPERATOR_CHURN_APPROVAL_TYPEHASH()":"ca0de882","PUBKEY_REGISTRATION_TYPEHASH()":"9feab859","allocationManager()":"ca8aa7c7","avs()":"de1164bb","blsApkRegistry()":"5df45946","calculateOperatorChurnApprovalDigestHash(address,bytes32,(uint8,address)[],bytes32,uint256)":"84ca5213","calculatePubkeyRegistrationMessageHash(address)":"73447992","churnApprover()":"054310e6","createSlashableStakeQuorum((uint32,uint16,uint16),uint96,(address,uint96)[],uint32)":"3eef3a51","createTotalDelegatedStakeQuorum((uint32,uint16,uint16),uint96,(address,uint96)[])":"8281ab75","deregisterOperator(address,address,uint32[])":"303ca956","deregisterOperator(bytes)":"ca4f2d97","disableM2QuorumRegistration()":"733b7507","domainSeparator()":"f698da25","eip712Domain()":"84b0196e","ejectOperator(address,bytes)":"6e3b17db","ejectionCooldown()":"a96f783e","ejector()":"28f61b31","getCurrentQuorumBitmap(bytes32)":"871ef049","getOperator(address)":"5865c60c","getOperatorFromId(bytes32)":"296bb064","getOperatorId(address)":"13542a4e","getOperatorSetParams(uint8)":"e65797ad","getOperatorStatus(address)":"fd39105a","getQuorumBitmapAtBlockNumberByIndex(bytes32,uint32,uint256)":"04ec6351","getQuorumBitmapHistoryLength(bytes32)":"03fd3492","getQuorumBitmapIndicesAtBlockNumber(uint32,bytes32[])":"c391425e","getQuorumBitmapUpdateByIndex(bytes32,uint256)":"1eb812da","indexRegistry()":"9e9923c2","initialize(address,address,address,uint256,address)":"530b97a4","isChurnApproverSaltUsed(bytes32)":"1478851f","isM2Quorum(uint8)":"a4d7871f","isM2QuorumRegistrationDisabled()":"e814ca9d","lastEjectionTimestamp(address)":"125e0584","m2QuorumBitmap()":"ec8c3a1e","operatorSetsEnabled()":"81f936d2","owner()":"8da5cb5b","pause(uint256)":"136439dd","pauseAll()":"595c6a67","paused()":"5c975abb","paused(uint8)":"5ac86ab7","pauserRegistry()":"886f1195","pubkeyRegistrationMessageHash(address)":"3c2a7f4c","quorumCount()":"9aa1653d","quorumUpdateBlockNumber(uint8)":"249a0c42","registerOperator(address,address,uint32[],bytes)":"c63fd502","registerOperator(bytes,string,((uint256,uint256),(uint256,uint256),(uint256[2],uint256[2])),(bytes,bytes32,uint256))":"a50857bf","registerOperatorWithChurn(bytes,string,((uint256,uint256),(uint256,uint256),(uint256[2],uint256[2])),(uint8,address)[],(bytes,bytes32,uint256),(bytes,bytes32,uint256))":"9b5d177b","renounceOwnership()":"715018a6","serviceManager()":"3998fdd3","setAVS(address)":"a65497c6","setChurnApprover(address)":"29d1e0c3","setEjectionCooldown(uint256)":"0d3f2134","setEjector(address)":"2cdd1e86","setOperatorSetParams(uint8,(uint32,uint16,uint16))":"5b0b829f","socketRegistry()":"ea32afae","stakeRegistry()":"68304835","supportsAVS(address)":"b5265787","transferOwnership(address)":"f2fde38b","unpause(uint256)":"fabc1cbc","updateOperators(address[])":"00cf2ab5","updateOperatorsForQuorum(address[][],bytes)":"5140a548","updateSocket(string)":"0cf4b767","version()":"54fd4d50"},"id":103}