{"abi":[{"type":"constructor","inputs":[{"name":"_serviceManager","type":"address","internalType":"contract IServiceManager"},{"name":"_stakeRegistry","type":"address","internalType":"contract IStakeRegistry"},{"name":"_blsApkRegistry","type":"address","internalType":"contract IBLSApkRegistry"},{"name":"_indexRegistry","type":"address","internalType":"contract IIndexRegistry"},{"name":"_socketRegistry","type":"address","internalType":"contract ISocketRegistry"},{"name":"_allocationManager","type":"address","internalType":"contract IAllocationManager"},{"name":"_pauserRegistry","type":"address","internalType":"contract IPauserRegistry"}],"stateMutability":"nonpayable"},{"type":"function","name":"OPERATOR_CHURN_APPROVAL_TYPEHASH","inputs":[],"outputs":[{"name":"","type":"bytes32","internalType":"bytes32"}],"stateMutability":"view"},{"type":"function","name":"PUBKEY_REGISTRATION_TYPEHASH","inputs":[],"outputs":[{"name":"","type":"bytes32","internalType":"bytes32"}],"stateMutability":"view"},{"type":"function","name":"allocationManager","inputs":[],"outputs":[{"name":"","type":"address","internalType":"contract IAllocationManager"}],"stateMutability":"view"},{"type":"function","name":"avs","inputs":[],"outputs":[{"name":"","type":"address","internalType":"address"}],"stateMutability":"view"},{"type":"function","name":"blsApkRegistry","inputs":[],"outputs":[{"name":"","type":"address","internalType":"contract IBLSApkRegistry"}],"stateMutability":"view"},{"type":"function","name":"calculateOperatorChurnApprovalDigestHash","inputs":[{"name":"registeringOperator","type":"address","internalType":"address"},{"name":"registeringOperatorId","type":"bytes32","internalType":"bytes32"},{"name":"operatorKickParams","type":"tuple[]","internalType":"struct ISlashingRegistryCoordinatorTypes.OperatorKickParam[]","components":[{"name":"quorumNumber","type":"uint8","internalType":"uint8"},{"name":"operator","type":"address","internalType":"address"}]},{"name":"salt","type":"bytes32","internalType":"bytes32"},{"name":"expiry","type":"uint256","internalType":"uint256"}],"outputs":[{"name":"","type":"bytes32","internalType":"bytes32"}],"stateMutability":"view"},{"type":"function","name":"calculatePubkeyRegistrationMessageHash","inputs":[{"name":"operator","type":"address","internalType":"address"}],"outputs":[{"name":"","type":"bytes32","internalType":"bytes32"}],"stateMutability":"view"},{"type":"function","name":"churnApprover","inputs":[],"outputs":[{"name":"","type":"address","internalType":"address"}],"stateMutability":"view"},{"type":"function","name":"createSlashableStakeQuorum","inputs":[{"name":"operatorSetParams","type":"tuple","internalType":"struct ISlashingRegistryCoordinatorTypes.OperatorSetParam","components":[{"name":"maxOperatorCount","type":"uint32","internalType":"uint32"},{"name":"kickBIPsOfOperatorStake","type":"uint16","internalType":"uint16"},{"name":"kickBIPsOfTotalStake","type":"uint16","internalType":"uint16"}]},{"name":"minimumStake","type":"uint96","internalType":"uint96"},{"name":"strategyParams","type":"tuple[]","internalType":"struct IStakeRegistryTypes.StrategyParams[]","components":[{"name":"strategy","type":"address","internalType":"contract IStrategy"},{"name":"multiplier","type":"uint96","internalType":"uint96"}]},{"name":"lookAheadPeriod","type":"uint32","internalType":"uint32"}],"outputs":[],"stateMutability":"nonpayable"},{"type":"function","name":"createTotalDelegatedStakeQuorum","inputs":[{"name":"operatorSetParams","type":"tuple","internalType":"struct ISlashingRegistryCoordinatorTypes.OperatorSetParam","components":[{"name":"maxOperatorCount","type":"uint32","internalType":"uint32"},{"name":"kickBIPsOfOperatorStake","type":"uint16","internalType":"uint16"},{"name":"kickBIPsOfTotalStake","type":"uint16","internalType":"uint16"}]},{"name":"minimumStake","type":"uint96","internalType":"uint96"},{"name":"strategyParams","type":"tuple[]","internalType":"struct IStakeRegistryTypes.StrategyParams[]","components":[{"name":"strategy","type":"address","internalType":"contract IStrategy"},{"name":"multiplier","type":"uint96","internalType":"uint96"}]}],"outputs":[],"stateMutability":"nonpayable"},{"type":"function","name":"deregisterOperator","inputs":[{"name":"operator","type":"address","internalType":"address"},{"name":"avs","type":"address","internalType":"address"},{"name":"operatorSetIds","type":"uint32[]","internalType":"uint32[]"}],"outputs":[],"stateMutability":"nonpayable"},{"type":"function","name":"deregisterOperator","inputs":[{"name":"quorumNumbers","type":"bytes","internalType":"bytes"}],"outputs":[],"stateMutability":"nonpayable"},{"type":"function","name":"disableM2QuorumRegistration","inputs":[],"outputs":[],"stateMutability":"nonpayable"},{"type":"function","name":"ejectOperator","inputs":[{"name":"operator","type":"address","internalType":"address"},{"name":"quorumNumbers","type":"bytes","internalType":"bytes"}],"outputs":[],"stateMutability":"nonpayable"},{"type":"function","name":"ejectionCooldown","inputs":[],"outputs":[{"name":"","type":"uint256","internalType":"uint256"}],"stateMutability":"view"},{"type":"function","name":"ejector","inputs":[],"outputs":[{"name":"","type":"address","internalType":"address"}],"stateMutability":"view"},{"type":"function","name":"getCurrentQuorumBitmap","inputs":[{"name":"operatorId","type":"bytes32","internalType":"bytes32"}],"outputs":[{"name":"","type":"uint192","internalType":"uint192"}],"stateMutability":"view"},{"type":"function","name":"getOperator","inputs":[{"name":"operator","type":"address","internalType":"address"}],"outputs":[{"name":"","type":"tuple","internalType":"struct ISlashingRegistryCoordinatorTypes.OperatorInfo","components":[{"name":"operatorId","type":"bytes32","internalType":"bytes32"},{"name":"status","type":"uint8","internalType":"enum ISlashingRegistryCoordinatorTypes.OperatorStatus"}]}],"stateMutability":"view"},{"type":"function","name":"getOperatorFromId","inputs":[{"name":"operatorId","type":"bytes32","internalType":"bytes32"}],"outputs":[{"name":"","type":"address","internalType":"address"}],"stateMutability":"view"},{"type":"function","name":"getOperatorId","inputs":[{"name":"operator","type":"address","internalType":"address"}],"outputs":[{"name":"","type":"bytes32","internalType":"bytes32"}],"stateMutability":"view"},{"type":"function","name":"getOperatorSetParams","inputs":[{"name":"quorumNumber","type":"uint8","internalType":"uint8"}],"outputs":[{"name":"","type":"tuple","internalType":"struct ISlashingRegistryCoordinatorTypes.OperatorSetParam","components":[{"name":"maxOperatorCount","type":"uint32","internalType":"uint32"},{"name":"kickBIPsOfOperatorStake","type":"uint16","internalType":"uint16"},{"name":"kickBIPsOfTotalStake","type":"uint16","internalType":"uint16"}]}],"stateMutability":"view"},{"type":"function","name":"getOperatorStatus","inputs":[{"name":"operator","type":"address","internalType":"address"}],"outputs":[{"name":"","type":"uint8","internalType":"enum ISlashingRegistryCoordinatorTypes.OperatorStatus"}],"stateMutability":"view"},{"type":"function","name":"getQuorumBitmapAtBlockNumberByIndex","inputs":[{"name":"operatorId","type":"bytes32","internalType":"bytes32"},{"name":"blockNumber","type":"uint32","internalType":"uint32"},{"name":"index","type":"uint256","internalType":"uint256"}],"outputs":[{"name":"","type":"uint192","internalType":"uint192"}],"stateMutability":"view"},{"type":"function","name":"getQuorumBitmapHistoryLength","inputs":[{"name":"operatorId","type":"bytes32","internalType":"bytes32"}],"outputs":[{"name":"","type":"uint256","internalType":"uint256"}],"stateMutability":"view"},{"type":"function","name":"getQuorumBitmapIndicesAtBlockNumber","inputs":[{"name":"blockNumber","type":"uint32","internalType":"uint32"},{"name":"operatorIds","type":"bytes32[]","internalType":"bytes32[]"}],"outputs":[{"name":"","type":"uint32[]","internalType":"uint32[]"}],"stateMutability":"view"},{"type":"function","name":"getQuorumBitmapUpdateByIndex","inputs":[{"name":"operatorId","type":"bytes32","internalType":"bytes32"},{"name":"index","type":"uint256","internalType":"uint256"}],"outputs":[{"name":"","type":"tuple","internalType":"struct ISlashingRegistryCoordinatorTypes.QuorumBitmapUpdate","components":[{"name":"updateBlockNumber","type":"uint32","internalType":"uint32"},{"name":"nextUpdateBlockNumber","type":"uint32","internalType":"uint32"},{"name":"quorumBitmap","type":"uint192","internalType":"uint192"}]}],"stateMutability":"view"},{"type":"function","name":"indexRegistry","inputs":[],"outputs":[{"name":"","type":"address","internalType":"contract IIndexRegistry"}],"stateMutability":"view"},{"type":"function","name":"initialize","inputs":[{"name":"_initialOwner","type":"address","internalType":"address"},{"name":"_churnApprover","type":"address","internalType":"address"},{"name":"_ejector","type":"address","internalType":"address"},{"name":"_initialPausedStatus","type":"uint256","internalType":"uint256"},{"name":"_avs","type":"address","internalType":"address"}],"outputs":[],"stateMutability":"nonpayable"},{"type":"function","name":"isChurnApproverSaltUsed","inputs":[{"name":"","type":"bytes32","internalType":"bytes32"}],"outputs":[{"name":"","type":"bool","internalType":"bool"}],"stateMutability":"view"},{"type":"function","name":"isM2Quorum","inputs":[{"name":"quorumNumber","type":"uint8","internalType":"uint8"}],"outputs":[{"name":"","type":"bool","internalType":"bool"}],"stateMutability":"view"},{"type":"function","name":"isM2QuorumRegistrationDisabled","inputs":[],"outputs":[{"name":"","type":"bool","internalType":"bool"}],"stateMutability":"view"},{"type":"function","name":"lastEjectionTimestamp","inputs":[{"name":"","type":"address","internalType":"address"}],"outputs":[{"name":"","type":"uint256","internalType":"uint256"}],"stateMutability":"view"},{"type":"function","name":"m2QuorumBitmap","inputs":[],"outputs":[{"name":"","type":"uint256","internalType":"uint256"}],"stateMutability":"view"},{"type":"function","name":"numRegistries","inputs":[],"outputs":[{"name":"","type":"uint256","internalType":"uint256"}],"stateMutability":"view"},{"type":"function","name":"operatorSetsEnabled","inputs":[],"outputs":[{"name":"","type":"bool","internalType":"bool"}],"stateMutability":"view"},{"type":"function","name":"owner","inputs":[],"outputs":[{"name":"","type":"address","internalType":"address"}],"stateMutability":"view"},{"type":"function","name":"pause","inputs":[{"name":"newPausedStatus","type":"uint256","internalType":"uint256"}],"outputs":[],"stateMutability":"nonpayable"},{"type":"function","name":"pauseAll","inputs":[],"outputs":[],"stateMutability":"nonpayable"},{"type":"function","name":"paused","inputs":[{"name":"index","type":"uint8","internalType":"uint8"}],"outputs":[{"name":"","type":"bool","internalType":"bool"}],"stateMutability":"view"},{"type":"function","name":"paused","inputs":[],"outputs":[{"name":"","type":"uint256","internalType":"uint256"}],"stateMutability":"view"},{"type":"function","name":"pauserRegistry","inputs":[],"outputs":[{"name":"","type":"address","internalType":"contract IPauserRegistry"}],"stateMutability":"view"},{"type":"function","name":"pubkeyRegistrationMessageHash","inputs":[{"name":"operator","type":"address","internalType":"address"}],"outputs":[{"name":"","type":"tuple","internalType":"struct BN254.G1Point","components":[{"name":"X","type":"uint256","internalType":"uint256"},{"name":"Y","type":"uint256","internalType":"uint256"}]}],"stateMutability":"view"},{"type":"function","name":"quorumCount","inputs":[],"outputs":[{"name":"","type":"uint8","internalType":"uint8"}],"stateMutability":"view"},{"type":"function","name":"quorumUpdateBlockNumber","inputs":[{"name":"","type":"uint8","internalType":"uint8"}],"outputs":[{"name":"","type":"uint256","internalType":"uint256"}],"stateMutability":"view"},{"type":"function","name":"registerOperator","inputs":[{"name":"quorumNumbers","type":"bytes","internalType":"bytes"},{"name":"socket","type":"string","internalType":"string"},{"name":"params","type":"tuple","internalType":"struct IBLSApkRegistryTypes.PubkeyRegistrationParams","components":[{"name":"pubkeyRegistrationSignature","type":"tuple","internalType":"struct BN254.G1Point","components":[{"name":"X","type":"uint256","internalType":"uint256"},{"name":"Y","type":"uint256","internalType":"uint256"}]},{"name":"pubkeyG1","type":"tuple","internalType":"struct BN254.G1Point","components":[{"name":"X","type":"uint256","internalType":"uint256"},{"name":"Y","type":"uint256","internalType":"uint256"}]},{"name":"pubkeyG2","type":"tuple","internalType":"struct BN254.G2Point","components":[{"name":"X","type":"uint256[2]","internalType":"uint256[2]"},{"name":"Y","type":"uint256[2]","internalType":"uint256[2]"}]}]},{"name":"operatorSignature","type":"tuple","internalType":"struct ISignatureUtils.SignatureWithSaltAndExpiry","components":[{"name":"signature","type":"bytes","internalType":"bytes"},{"name":"salt","type":"bytes32","internalType":"bytes32"},{"name":"expiry","type":"uint256","internalType":"uint256"}]}],"outputs":[],"stateMutability":"nonpayable"},{"type":"function","name":"registerOperator","inputs":[{"name":"operator","type":"address","internalType":"address"},{"name":"avs","type":"address","internalType":"address"},{"name":"operatorSetIds","type":"uint32[]","internalType":"uint32[]"},{"name":"data","type":"bytes","internalType":"bytes"}],"outputs":[],"stateMutability":"nonpayable"},{"type":"function","name":"registerOperatorWithChurn","inputs":[{"name":"quorumNumbers","type":"bytes","internalType":"bytes"},{"name":"socket","type":"string","internalType":"string"},{"name":"params","type":"tuple","internalType":"struct IBLSApkRegistryTypes.PubkeyRegistrationParams","components":[{"name":"pubkeyRegistrationSignature","type":"tuple","internalType":"struct BN254.G1Point","components":[{"name":"X","type":"uint256","internalType":"uint256"},{"name":"Y","type":"uint256","internalType":"uint256"}]},{"name":"pubkeyG1","type":"tuple","internalType":"struct BN254.G1Point","components":[{"name":"X","type":"uint256","internalType":"uint256"},{"name":"Y","type":"uint256","internalType":"uint256"}]},{"name":"pubkeyG2","type":"tuple","internalType":"struct BN254.G2Point","components":[{"name":"X","type":"uint256[2]","internalType":"uint256[2]"},{"name":"Y","type":"uint256[2]","internalType":"uint256[2]"}]}]},{"name":"operatorKickParams","type":"tuple[]","internalType":"struct ISlashingRegistryCoordinatorTypes.OperatorKickParam[]","components":[{"name":"quorumNumber","type":"uint8","internalType":"uint8"},{"name":"operator","type":"address","internalType":"address"}]},{"name":"churnApproverSignature","type":"tuple","internalType":"struct ISignatureUtils.SignatureWithSaltAndExpiry","components":[{"name":"signature","type":"bytes","internalType":"bytes"},{"name":"salt","type":"bytes32","internalType":"bytes32"},{"name":"expiry","type":"uint256","internalType":"uint256"}]},{"name":"operatorSignature","type":"tuple","internalType":"struct ISignatureUtils.SignatureWithSaltAndExpiry","components":[{"name":"signature","type":"bytes","internalType":"bytes"},{"name":"salt","type":"bytes32","internalType":"bytes32"},{"name":"expiry","type":"uint256","internalType":"uint256"}]}],"outputs":[],"stateMutability":"nonpayable"},{"type":"function","name":"registries","inputs":[{"name":"","type":"uint256","internalType":"uint256"}],"outputs":[{"name":"","type":"address","internalType":"address"}],"stateMutability":"view"},{"type":"function","name":"renounceOwnership","inputs":[],"outputs":[],"stateMutability":"nonpayable"},{"type":"function","name":"serviceManager","inputs":[],"outputs":[{"name":"","type":"address","internalType":"contract IServiceManager"}],"stateMutability":"view"},{"type":"function","name":"setAVS","inputs":[{"name":"_avs","type":"address","internalType":"address"}],"outputs":[],"stateMutability":"nonpayable"},{"type":"function","name":"setChurnApprover","inputs":[{"name":"_churnApprover","type":"address","internalType":"address"}],"outputs":[],"stateMutability":"nonpayable"},{"type":"function","name":"setEjectionCooldown","inputs":[{"name":"_ejectionCooldown","type":"uint256","internalType":"uint256"}],"outputs":[],"stateMutability":"nonpayable"},{"type":"function","name":"setEjector","inputs":[{"name":"_ejector","type":"address","internalType":"address"}],"outputs":[],"stateMutability":"nonpayable"},{"type":"function","name":"setOperatorSetParams","inputs":[{"name":"quorumNumber","type":"uint8","internalType":"uint8"},{"name":"operatorSetParams","type":"tuple","internalType":"struct ISlashingRegistryCoordinatorTypes.OperatorSetParam","components":[{"name":"maxOperatorCount","type":"uint32","internalType":"uint32"},{"name":"kickBIPsOfOperatorStake","type":"uint16","internalType":"uint16"},{"name":"kickBIPsOfTotalStake","type":"uint16","internalType":"uint16"}]}],"outputs":[],"stateMutability":"nonpayable"},{"type":"function","name":"socketRegistry","inputs":[],"outputs":[{"name":"","type":"address","internalType":"contract ISocketRegistry"}],"stateMutability":"view"},{"type":"function","name":"stakeRegistry","inputs":[],"outputs":[{"name":"","type":"address","internalType":"contract IStakeRegistry"}],"stateMutability":"view"},{"type":"function","name":"supportsAVS","inputs":[{"name":"_avs","type":"address","internalType":"address"}],"outputs":[{"name":"","type":"bool","internalType":"bool"}],"stateMutability":"view"},{"type":"function","name":"transferOwnership","inputs":[{"name":"newOwner","type":"address","internalType":"address"}],"outputs":[],"stateMutability":"nonpayable"},{"type":"function","name":"unpause","inputs":[{"name":"newPausedStatus","type":"uint256","internalType":"uint256"}],"outputs":[],"stateMutability":"nonpayable"},{"type":"function","name":"updateOperators","inputs":[{"name":"operators","type":"address[]","internalType":"address[]"}],"outputs":[],"stateMutability":"nonpayable"},{"type":"function","name":"updateOperatorsForQuorum","inputs":[{"name":"operatorsPerQuorum","type":"address[][]","internalType":"address[][]"},{"name":"quorumNumbers","type":"bytes","internalType":"bytes"}],"outputs":[],"stateMutability":"nonpayable"},{"type":"function","name":"updateSocket","inputs":[{"name":"socket","type":"string","internalType":"string"}],"outputs":[],"stateMutability":"nonpayable"},{"type":"event","name":"ChurnApproverUpdated","inputs":[{"name":"prevChurnApprover","type":"address","indexed":false,"internalType":"address"},{"name":"newChurnApprover","type":"address","indexed":false,"internalType":"address"}],"anonymous":false},{"type":"event","name":"EjectorUpdated","inputs":[{"name":"prevEjector","type":"address","indexed":false,"internalType":"address"},{"name":"newEjector","type":"address","indexed":false,"internalType":"address"}],"anonymous":false},{"type":"event","name":"Initialized","inputs":[{"name":"version","type":"uint8","indexed":false,"internalType":"uint8"}],"anonymous":false},{"type":"event","name":"M2QuorumRegistrationDisabled","inputs":[],"anonymous":false},{"type":"event","name":"OperatorDeregistered","inputs":[{"name":"operator","type":"address","indexed":true,"internalType":"address"},{"name":"operatorId","type":"bytes32","indexed":true,"internalType":"bytes32"}],"anonymous":false},{"type":"event","name":"OperatorRegistered","inputs":[{"name":"operator","type":"address","indexed":true,"internalType":"address"},{"name":"operatorId","type":"bytes32","indexed":true,"internalType":"bytes32"}],"anonymous":false},{"type":"event","name":"OperatorSetParamsUpdated","inputs":[{"name":"quorumNumber","type":"uint8","indexed":true,"internalType":"uint8"},{"name":"operatorSetParams","type":"tuple","indexed":false,"internalType":"struct ISlashingRegistryCoordinatorTypes.OperatorSetParam","components":[{"name":"maxOperatorCount","type":"uint32","internalType":"uint32"},{"name":"kickBIPsOfOperatorStake","type":"uint16","internalType":"uint16"},{"name":"kickBIPsOfTotalStake","type":"uint16","internalType":"uint16"}]}],"anonymous":false},{"type":"event","name":"OperatorSetsEnabled","inputs":[],"anonymous":false},{"type":"event","name":"OperatorSocketUpdate","inputs":[{"name":"operatorId","type":"bytes32","indexed":true,"internalType":"bytes32"},{"name":"socket","type":"string","indexed":false,"internalType":"string"}],"anonymous":false},{"type":"event","name":"OwnershipTransferred","inputs":[{"name":"previousOwner","type":"address","indexed":true,"internalType":"address"},{"name":"newOwner","type":"address","indexed":true,"internalType":"address"}],"anonymous":false},{"type":"event","name":"Paused","inputs":[{"name":"account","type":"address","indexed":true,"internalType":"address"},{"name":"newPausedStatus","type":"uint256","indexed":false,"internalType":"uint256"}],"anonymous":false},{"type":"event","name":"QuorumBlockNumberUpdated","inputs":[{"name":"quorumNumber","type":"uint8","indexed":true,"internalType":"uint8"},{"name":"blocknumber","type":"uint256","indexed":false,"internalType":"uint256"}],"anonymous":false},{"type":"event","name":"Unpaused","inputs":[{"name":"account","type":"address","indexed":true,"internalType":"address"},{"name":"newPausedStatus","type":"uint256","indexed":false,"internalType":"uint256"}],"anonymous":false},{"type":"error","name":"AlreadyRegisteredForQuorums","inputs":[]},{"type":"error","name":"BitmapCannotBeZero","inputs":[]},{"type":"error","name":"BitmapEmpty","inputs":[]},{"type":"error","name":"BitmapUpdateIsAfterBlockNumber","inputs":[]},{"type":"error","name":"BitmapValueTooLarge","inputs":[]},{"type":"error","name":"BytesArrayLengthTooLong","inputs":[]},{"type":"error","name":"BytesArrayNotOrdered","inputs":[]},{"type":"error","name":"CannotChurnSelf","inputs":[]},{"type":"error","name":"CannotKickOperatorAboveThreshold","inputs":[]},{"type":"error","name":"CannotReregisterYet","inputs":[]},{"type":"error","name":"ChurnApproverSaltUsed","inputs":[]},{"type":"error","name":"CurrentlyPaused","inputs":[]},{"type":"error","name":"ExpModFailed","inputs":[]},{"type":"error","name":"InputAddressZero","inputs":[]},{"type":"error","name":"InputLengthMismatch","inputs":[]},{"type":"error","name":"InsufficientStakeForChurn","inputs":[]},{"type":"error","name":"InvalidAVS","inputs":[]},{"type":"error","name":"InvalidNewPausedStatus","inputs":[]},{"type":"error","name":"InvalidRegistrationType","inputs":[]},{"type":"error","name":"InvalidSignature","inputs":[]},{"type":"error","name":"InvalidSignature","inputs":[]},{"type":"error","name":"M2QuorumRegistrationIsDisabled","inputs":[]},{"type":"error","name":"MaxQuorumsReached","inputs":[]},{"type":"error","name":"NextBitmapUpdateIsBeforeBlockNumber","inputs":[]},{"type":"error","name":"NotRegistered","inputs":[]},{"type":"error","name":"NotRegisteredForQuorum","inputs":[]},{"type":"error","name":"NotSorted","inputs":[]},{"type":"error","name":"OnlyAllocationManager","inputs":[]},{"type":"error","name":"OnlyEjector","inputs":[]},{"type":"error","name":"OnlyM2QuorumsAllowed","inputs":[]},{"type":"error","name":"OnlyPauser","inputs":[]},{"type":"error","name":"OnlyUnpauser","inputs":[]},{"type":"error","name":"OperatorSetQuorum","inputs":[]},{"type":"error","name":"OperatorSetsAlreadyEnabled","inputs":[]},{"type":"error","name":"OperatorSetsNotEnabled","inputs":[]},{"type":"error","name":"QuorumDoesNotExist","inputs":[]},{"type":"error","name":"QuorumOperatorCountMismatch","inputs":[]},{"type":"error","name":"SignatureExpired","inputs":[]}],"bytecode":{"object":"0x610220604052348015610010575f5ffd5b5060405161614a38038061614a83398101604081905261002f9161028d565b604080518082018252601681527f4156535265676973747279436f6f7264696e61746f7200000000000000000000602080830191825283518085018552600681526576302e302e3160d01b908201529151902060e08190527f6bda7e3f385e48841048390444cced5cc795af87758af67622e5f4f0882c4a996101008190524660a081815285517f8b73c3c69bb8fe3d512ecc4cf759cc79239f7b179b0ffacaa9a75d522b39400f818701819052818801959095526060810193909352608080840192909252308382018190528651808503909201825260c0938401909652805194019390932090925291905261012052868686868686868585858585858585858585856001600160a01b03811661015a576040516339b190bb60e11b815260040160405180910390fd5b6001600160a01b03908116610140529485166101a052928416610180529083166101c052821661016052166101e0526101916101b9565b5050506001600160a01b0390991661020052506103249e505050505050505050505050505050565b5f54610100900460ff16156102245760405162461bcd60e51b815260206004820152602760248201527f496e697469616c697a61626c653a20636f6e747261637420697320696e697469604482015266616c697a696e6760c81b606482015260840160405180910390fd5b5f5460ff9081161015610274575f805460ff191660ff9081179091556040519081527f7f26b83ff96e1f2b6a682f133852f6798a09c465da95921460cefb38474024989060200160405180910390a15b565b6001600160a01b038116811461028a575f5ffd5b50565b5f5f5f5f5f5f5f60e0888a0312156102a3575f5ffd5b87516102ae81610276565b60208901519097506102bf81610276565b60408901519096506102d081610276565b60608901519095506102e181610276565b60808901519094506102f281610276565b60a089015190935061030381610276565b60c089015190925061031481610276565b8091505092959891949750929550565b60805160a05160c05160e05161010051610120516101405161016051610180516101a0516101c0516101e05161020051615cc76104835f395f81816105d20152818161196501528181611ac0015261398601525f818161091a0152818161241301528181612a3a015261416301525f81816107fb015281816110df015281816114aa0152818161274701528181612bf4015261368001525f81816106ee015281816114380152818161203e015281816126cc01528181612ad801528181612b73015281816135de0152613d0d01525f81816106b401528181610e3e015281816114760152818161265301528181612c690152818161306a015281816130e1015261356501525f8181610a10015281816114df015261220b01525f818161079101528181610cd8015281816115dc0152611def01525f613a6201525f613ab101525f613a8c01525f6139e501525f613a0f01525f613a390152615cc75ff3fe608060405234801561000f575f5ffd5b50600436106103b3575f3560e01c8063715018a6116101f5578063a96f783e11610114578063de1164bb116100a9578063ec8c3a1e11610079578063ec8c3a1e14610a32578063f2fde38b14610a3a578063fabc1cbc14610a4d578063fd39105a14610a60575f5ffd5b8063de1164bb14610944578063e65797ad14610957578063e814ca9d146109f9578063ea32afae14610a0b575f5ffd5b8063ca0de882116100e4578063ca0de882146108db578063ca4f2d9714610902578063ca8aa7c714610915578063d72d8dd61461093c575f5ffd5b8063a96f783e1461087d578063b526578714610886578063c391425e146108a8578063c63fd502146108c8575f5ffd5b80638da5cb5b1161018a5780639feab8591161015a5780639feab8591461081d578063a4d7871f14610844578063a50857bf14610857578063a65497c61461086a575f5ffd5b80638da5cb5b146107b35780639aa1653d146107c45780639b5d177b146107e35780639e9923c2146107f6575f5ffd5b80638281ab75116101c55780638281ab751461075357806384ca521314610766578063871ef04914610779578063886f11951461078c575f5ffd5b8063715018a614610723578063733b75071461072b578063734479921461073357806381f936d214610746575f5ffd5b80632cdd1e86116102e1578063595c6a67116102765780635df45946116102465780635df45946146106af5780636347c900146106d657806368304835146106e95780636e3b17db14610710575f5ffd5b8063595c6a671461066d5780635ac86ab7146106755780635b0b829f146106945780635c975abb146106a7575f5ffd5b80633eef3a51116102b15780633eef3a51146106145780635140a54814610627578063530b97a41461063a5780635865c60c1461064d575f5ffd5b80632cdd1e86146105a7578063303ca956146105ba5780633998fdd3146105cd5780633c2a7f4c146105f4575f5ffd5b806313542a4e11610357578063249a0c4211610327578063249a0c421461054f57806328f61b311461056e578063296bb0641461058157806329d1e0c314610594575f5ffd5b806313542a4e14610499578063136439dd146104c15780631478851f146104d45780631eb812da14610506575f5ffd5b8063054310e611610392578063054310e6146104295780630cf4b767146104545780630d3f213414610467578063125e05841461047a575f5ffd5b8062cf2ab5146103b757806303fd3492146103cc57806304ec6351146103fe575b5f5ffd5b6103ca6103c5366004614727565b610a9b565b005b6103eb6103da366004614758565b5f9081526098602052604090205490565b6040519081526020015b60405180910390f35b61041161040c366004614780565b610c3c565b6040516001600160c01b0390911681526020016103f5565b609d5461043c906001600160a01b031681565b6040516001600160a01b0390911681526020016103f5565b6103ca610462366004614826565b610c54565b6103ca610475366004614758565b610cb6565b6103eb610488366004614857565b609f6020525f908152604090205481565b6103eb6104a7366004614857565b6001600160a01b03165f9081526099602052604090205490565b6103ca6104cf366004614758565b610cc3565b6104f66104e2366004614758565b609a6020525f908152604090205460ff1681565b60405190151581526020016103f5565b610519610514366004614872565b610d98565b60408051825163ffffffff908116825260208085015190911690820152918101516001600160c01b0316908201526060016103f5565b6103eb61055d3660046148a7565b609b6020525f908152604090205481565b609e5461043c906001600160a01b031681565b61043c61058f366004614758565b610e26565b6103ca6105a2366004614857565b610eaf565b6103ca6105b5366004614857565b610ec0565b6103ca6105c8366004614924565b610ed1565b61043c7f000000000000000000000000000000000000000000000000000000000000000081565b610607610602366004614857565b610f4b565b6040516103f59190614981565b6103ca610622366004614aa2565b610fc9565b6103ca610635366004614b4e565b610fe5565b6103ca610648366004614c2b565b61130c565b61066061065b366004614857565b611555565b6040516103f59190614cc3565b6103ca6115c7565b6104f66106833660046148a7565b6001805460ff9092161b9081161490565b6103ca6106a2366004614cde565b611676565b6001546103eb565b61043c7f000000000000000000000000000000000000000000000000000000000000000081565b61043c6106e4366004614758565b611692565b61043c7f000000000000000000000000000000000000000000000000000000000000000081565b6103ca61071e366004614d10565b6116ba565b6103ca6116e6565b6103ca6116f7565b6103eb610741366004614857565b611761565b60c8546104f69060ff1681565b6103ca610761366004614d5c565b6117aa565b6103eb610774366004614e42565b6117bf565b610411610787366004614758565b611808565b61043c7f000000000000000000000000000000000000000000000000000000000000000081565b6064546001600160a01b031661043c565b6096546107d19060ff1681565b60405160ff90911681526020016103f5565b6103ca6107f1366004614ffd565b611812565b61043c7f000000000000000000000000000000000000000000000000000000000000000081565b6103eb7f2bd82124057f0913bc3b772ce7b83e8057c1ad1f3510fc83778be20f10ec5de681565b6104f66108523660046148a7565b6119d5565b6103ca6108653660046150f5565b6119df565b6103ca610878366004614857565b611b2c565b6103eb60a05481565b6104f6610894366004614857565b60a1546001600160a01b0391821691161490565b6108bb6108b6366004615194565b611b3d565b6040516103f59190615239565b6103ca6108d6366004615276565b611b4b565b6103eb7f4d404e3276e7ac2163d8ee476afa6a41d1f68fb71f2d8b6546b24e55ce01b72a81565b6103ca610910366004614826565b611cf4565b61043c7f000000000000000000000000000000000000000000000000000000000000000081565b609c546103eb565b60a15461043c906001600160a01b031681565b6109c56109653660046148a7565b60408051606080820183525f808352602080840182905292840181905260ff9490941684526097825292829020825193840183525463ffffffff8116845261ffff600160201b8204811692850192909252600160301b9004169082015290565b60408051825163ffffffff16815260208084015161ffff9081169183019190915292820151909216908201526060016103f5565b60c8546104f690610100900460ff1681565b61043c7f000000000000000000000000000000000000000000000000000000000000000081565b6103eb611d56565b6103ca610a48366004614857565b611d77565b6103ca610a5b366004614758565b611ded565b610a8e610a6e366004614857565b6001600160a01b03165f9081526099602052604090206001015460ff1690565b6040516103f59190615303565b600154600290600490811603610ac45760405163840a48d560e01b815260040160405180910390fd5b5f5b8251811015610c37576040805160018082528183019092525f9160208083019080368337019050509050838281518110610b0257610b02615311565b6020026020010151815f81518110610b1c57610b1c615311565b6001600160a01b0392909216602092830291909101909101526040805160018082528183019092525f9181602001602082028036833701905050905060995f868581518110610b6d57610b6d615311565b60200260200101516001600160a01b03166001600160a01b031681526020019081526020015f205f0154815f81518110610ba957610ba9615311565b6020026020010181815250505f610bd8825f81518110610bcb57610bcb615311565b6020026020010151611f04565b90505f610bed826001600160c01b0316611f10565b90505f5b8151811015610c2657610c1e8585848481518110610c1157610c11615311565b016020015160f81c611fd9565b600101610bf1565b505060019093019250610ac6915050565b505050565b5f610c4a6098858585612110565b90505b9392505050565b6001335f9081526099602052604090206001015460ff166002811115610c7c57610c7c614c8f565b14610c9a5760405163aba4733960e01b815260040160405180910390fd5b335f90815260996020526040902054610cb390826121f4565b50565b610cbe61229f565b60a055565b60405163237dfb4760e11b81523360048201527f00000000000000000000000000000000000000000000000000000000000000006001600160a01b0316906346fbf68e90602401602060405180830381865afa158015610d25573d5f5f3e3d5ffd5b505050506040513d601f19601f82011682018060405250810190610d499190615334565b610d6657604051631d77d47760e21b815260040160405180910390fd5b6001548181168114610d8b5760405163c61dca5d60e01b815260040160405180910390fd5b610d94826122f9565b5050565b604080516060810182525f80825260208201819052918101919091525f838152609860205260409020805483908110610dd357610dd3615311565b5f91825260209182902060408051606081018252919092015463ffffffff8082168352600160201b820416938201939093526001600160c01b03600160401b909304929092169082015290505b92915050565b6040516308f6629d60e31b8152600481018290525f907f00000000000000000000000000000000000000000000000000000000000000006001600160a01b0316906347b314e890602401602060405180830381865afa158015610e8b573d5f5f3e3d5ffd5b505050506040513d601f19601f82011682018060405250810190610e20919061534d565b610eb761229f565b610cb381612336565b610ec861229f565b610cb38161239f565b610ed9612408565b60018054600290811603610f005760405163840a48d560e01b815260040160405180910390fd5b60a1546001600160a01b03848116911614610f2e576040516366e565df60e01b815260040160405180910390fd5b5f610f3883612451565b9050610f4485826124f9565b5050505050565b604080518082019091525f8082526020820152610e20610fc47f2bd82124057f0913bc3b772ce7b83e8057c1ad1f3510fc83778be20f10ec5de684604051602001610fa99291909182526001600160a01b0316602082015260400190565b604051602081830303815290604052805190602001206127c2565b61280e565b610fd161229f565b610fdf848484600185612898565b50505050565b60015460029060049081160361100e5760405163840a48d560e01b815260040160405180910390fd5b61105383838080601f0160208091040260200160405190810160405280939291908181526020018383808284375f920191909152505060965460ff169150612cd59050565b50835182146110755760405163aaad13f760e01b815260040160405180910390fd5b5f5b82811015610f44575f84848381811061109257611092615311565b885192013560f81c92505f91889150849081106110b1576110b1615311565b60209081029190910101516040516379a0849160e11b815260ff841660048201529091506001600160a01b037f0000000000000000000000000000000000000000000000000000000000000000169063f341092290602401602060405180830381865afa158015611124573d5f5f3e3d5ffd5b505050506040513d601f19601f820116820180604052508101906111489190615368565b63ffffffff1681511461116e57604051638e5aeee760e01b815260040160405180910390fd5b5f81516001600160401b03811115611188576111886145f0565b6040519080825280602002602001820160405280156111b1578160200160208202803683370190505b5090505f805b83518110156112a7575f8482815181106111d3576111d3615311565b6020026020010151905060995f826001600160a01b03166001600160a01b031681526020019081526020015f205f015484838151811061121557611215615311565b6020026020010181815250505f611237858481518110610bcb57610bcb615311565b905060016001600160c01b03821660ff89161c81161461126a5760405163d053aa2160e01b815260040160405180910390fd5b836001600160a01b0316826001600160a01b03161161129c5760405163ba50f91160e01b815260040160405180910390fd5b5091506001016111b7565b506112b3838386611fd9565b60ff84165f818152609b6020908152604091829020439081905591519182527f46077d55330763f16269fd75e5761663f4192d2791747c0189b16ad31db07db4910160405180910390a250505050806001019050611077565b5f54610100900460ff161580801561132a57505f54600160ff909116105b806113435750303b15801561134357505f5460ff166001145b6113ab5760405162461bcd60e51b815260206004820152602e60248201527f496e697469616c697a61626c653a20636f6e747261637420697320616c72656160448201526d191e481a5b9a5d1a585b1a5e995960921b60648201526084015b60405180910390fd5b5f805460ff1916600117905580156113cc575f805461ff0019166101001790555b6113d586612d09565b6113de85612336565b6113e7836122f9565b6113f08461239f565b6113f982612d5a565b609c8054600181810183555f8390527faf85b9071dfafeac1409d3f1d19bafc9bc7c37974cde8df0ee6168f0086e539c91820180546001600160a01b037f000000000000000000000000000000000000000000000000000000000000000081166001600160a01b03199283161790925584548084018655840180547f0000000000000000000000000000000000000000000000000000000000000000841690831617905584548084018655840180547f000000000000000000000000000000000000000000000000000000000000000084169083161790558454928301909455910180547f000000000000000000000000000000000000000000000000000000000000000090921691909216179055801561154d575f805461ff0019169055604051600181527f7f26b83ff96e1f2b6a682f133852f6798a09c465da95921460cefb38474024989060200160405180910390a15b505050505050565b604080518082019091525f80825260208201526001600160a01b0382165f908152609960209081526040918290208251808401909352805483526001810154909183019060ff1660028111156115ad576115ad614c8f565b60028111156115be576115be614c8f565b90525092915050565b60405163237dfb4760e11b81523360048201527f00000000000000000000000000000000000000000000000000000000000000006001600160a01b0316906346fbf68e90602401602060405180830381865afa158015611629573d5f5f3e3d5ffd5b505050506040513d601f19601f8201168201806040525081019061164d9190615334565b61166a57604051631d77d47760e21b815260040160405180910390fd5b6116745f196122f9565b565b61167e61229f565b8161168881612d7c565b610c378383612da5565b609c81815481106116a1575f80fd5b5f918252602090912001546001600160a01b0316905081565b6116c2612e4a565b6001600160a01b0382165f908152609f60205260409020429055610d948282612e75565b6116ee61229f565b6116745f612d09565b6116ff61229f565b60c854610100900460ff1615611728576040516321fa91f360e01b815260040160405180910390fd5b60c8805461ff0019166101001790556040517f0fc3c0e6f8b4795f371e19de7f4c5733dd9e549fa8c39e5842eb66c31572d99e905f90a1565b5f610e207f2bd82124057f0913bc3b772ce7b83e8057c1ad1f3510fc83778be20f10ec5de683604051602001610fa99291909182526001600160a01b0316602082015260400190565b6117b261229f565b610c378383835f5f612898565b5f6117fe7f4d404e3276e7ac2163d8ee476afa6a41d1f68fb71f2d8b6546b24e55ce01b72a8787878787604051602001610fa996959493929190615383565b9695505050505050565b5f610e2082611f04565b600180545f91908116036118395760405163840a48d560e01b815260040160405180910390fd5b60c854610100900460ff1615611862576040516321fa91f360e01b815260040160405180910390fd5b6118b261186d611d56565b6118ab8a8a8080601f0160208091040260200160405190810160405280939291908181526020018383808284375f92019190915250612f8e92505050565b9081161490565b6118cf5760405163afaa70ef60e01b815260040160405180910390fd5b5f6001335f9081526099602052604090206001015460ff1660028111156118f8576118f8614c8f565b149050611949336119093389613049565b8b8b8080601f0160208091040260200160405190810160405280939291908181526020018383808284375f920191909152508d92508b91508a9050613177565b806119ca57604051639926ee7d60e01b81526001600160a01b037f00000000000000000000000000000000000000000000000000000000000000001690639926ee7d9061199c9033908790600401615436565b5f604051808303815f87803b1580156119b3575f5ffd5b505af11580156119c5573d5f5f3e3d5ffd5b505050505b505050505050505050565b5f610e208261336c565b600180545f9190811603611a065760405163840a48d560e01b815260040160405180910390fd5b60c854610100900460ff1615611a2f576040516321fa91f360e01b815260040160405180910390fd5b611a43611a3a611d56565b6118ab87612f8e565b611a605760405163afaa70ef60e01b815260040160405180910390fd5b5f6001335f9081526099602052604090206001015460ff166002811115611a8957611a89614c8f565b149050611aa333611a9a3387613049565b88886001613387565b508061154d57604051639926ee7d60e01b81526001600160a01b037f00000000000000000000000000000000000000000000000000000000000000001690639926ee7d90611af79033908790600401615436565b5f604051808303815f87803b158015611b0e575f5ffd5b505af1158015611b20573d5f5f3e3d5ffd5b50505050505050505050565b611b3461229f565b610cb381612d5a565b6060610c4d609884846137d0565b611b53612408565b600180545f9190811603611b7a5760405163840a48d560e01b815260040160405180910390fd5b60a1546001600160a01b03868116911614611ba8576040516366e565df60e01b815260040160405180910390fd5b5f611bb285612451565b90505f8080611bc38688018861548e565b9250925092505f611bd48b83613049565b90505f846001811115611be957611be9614c8f565b03611c92575f611bfd8c8388876001613387565b5190505f5b8651811015611c8b575f878281518110611c1e57611c1e615311565b0160209081015160f81c5f8181526097909252604090912054845191925063ffffffff1690849084908110611c5557611c55615311565b602002602001015163ffffffff161115611c8257604051633cb89c9760e01b815260040160405180910390fd5b50600101611c02565b5050611ce7565b6001846001811115611ca657611ca6614c8f565b03611cce575f80611cb9898b018b6154e9565b94509450505050611c8b8d8489888686613177565b60405163354bb8ab60e01b815260040160405180910390fd5b5050505050505050505050565b60018054600290811603611d1b5760405163840a48d560e01b815260040160405180910390fd5b611d2f611d26611d56565b6118ab84612f8e565b611d4c5760405163afaa70ef60e01b815260040160405180910390fd5b610d9433836124f9565b60c8545f9060ff1615611d6a575060c95490565b611d7261387f565b905090565b611d7f61229f565b6001600160a01b038116611de45760405162461bcd60e51b815260206004820152602660248201527f4f776e61626c653a206e6577206f776e657220697320746865207a65726f206160448201526564647265737360d01b60648201526084016113a2565b610cb381612d09565b7f00000000000000000000000000000000000000000000000000000000000000006001600160a01b031663eab66d7a6040518163ffffffff1660e01b8152600401602060405180830381865afa158015611e49573d5f5f3e3d5ffd5b505050506040513d601f19601f82011682018060405250810190611e6d919061534d565b6001600160a01b0316336001600160a01b031614611e9e5760405163794821ff60e01b815260040160405180910390fd5b60015480198219811614611ec55760405163c61dca5d60e01b815260040160405180910390fd5b600182905560405182815233907f3582d1828e26bf56bd801502bc021ac0bc8afb57c826e4986b45593c8fad389c906020015b60405180910390a25050565b5f610e20609883613896565b60605f5f611f1d84613900565b61ffff166001600160401b03811115611f3857611f386145f0565b6040519080825280601f01601f191660200182016040528015611f62576020820181803683370190505b5090505f805b825182108015611f79575061010081105b15611fcf576001811b935085841615611fbf578060f81b838381518110611fa257611fa2615311565b60200101906001600160f81b03191690815f1a9053508160010191505b611fc8816155ad565b9050611f68565b5090949350505050565b6040805160018082528183019092525f916020820181803683370190505090508160f81b815f8151811061200f5761200f615311565b60200101906001600160f81b03191690815f1a905350604051636c3fb4bf60e01b81525f906001600160a01b037f00000000000000000000000000000000000000000000000000000000000000001690636c3fb4bf90612077908890889088906004016155c5565b5f604051808303815f875af1158015612092573d5f5f3e3d5ffd5b505050506040513d5f823e601f3d908101601f191682016040526120b99190810190615655565b90505f5b855181101561154d578181815181106120d8576120d8615311565b602002602001015115612108576121088682815181106120fa576120fa615311565b602002602001015184612e75565b6001016120bd565b5f83815260208590526040812080548291908490811061213257612132615311565b5f91825260209182902060408051606081018252929091015463ffffffff808216808552600160201b8304821695850195909552600160401b9091046001600160c01b031691830191909152909250851610156121a257604051636cb19aff60e01b815260040160405180910390fd5b602081015163ffffffff1615806121c85750806020015163ffffffff168463ffffffff16105b6121e55760405163bbba60cb60e01b815260040160405180910390fd5b6040015190505b949350505050565b6040516378219b3f60e11b81526001600160a01b037f0000000000000000000000000000000000000000000000000000000000000000169063f043367e9061224290859085906004016156e2565b5f604051808303815f87803b158015612259575f5ffd5b505af115801561226b573d5f5f3e3d5ffd5b50505050817fec2963ab21c1e50e1e582aa542af2e4bf7bf38e6e1403c27b42e1c5d6e621eaa82604051611ef891906156fa565b6064546001600160a01b031633146116745760405162461bcd60e51b815260206004820181905260248201527f4f776e61626c653a2063616c6c6572206973206e6f7420746865206f776e657260448201526064016113a2565b600181905560405181815233907fab40a374bc51de372200a8bc981af8c9ecdc08dfdaef0bb6e09f88f3c616ef3d9060200160405180910390a250565b609d54604080516001600160a01b03928316815291831660208301527f315457d8a8fe60f04af17c16e2f5a5e1db612b31648e58030360759ef8f3528c910160405180910390a1609d80546001600160a01b0319166001600160a01b0392909216919091179055565b609e54604080516001600160a01b03928316815291831660208301527f8f30ab09f43a6c157d7fce7e0a13c003042c1c95e8a72e7a146a21c0caa24dc9910160405180910390a1609e80546001600160a01b0319166001600160a01b0392909216919091179055565b336001600160a01b037f00000000000000000000000000000000000000000000000000000000000000001614611674576040516323d871a560e01b815260040160405180910390fd5b60605f82516001600160401b0381111561246d5761246d6145f0565b6040519080825280601f01601f191660200182016040528015612497576020820181803683370190505b5090505f5b83518110156124f2578381815181106124b7576124b7615311565b602002602001015160f81b8282815181106124d4576124d4615311565b60200101906001600160f81b03191690815f1a90535060010161249c565b5092915050565b6001600160a01b0382165f9081526099602052604081208054909161251d82611f04565b905060018084015460ff16600281111561253957612539614c8f565b146125575760405163aba4733960e01b815260040160405180910390fd5b6096545f9061256a90869060ff16612cd5565b90506001600160c01b038116612593576040516368b6a87560e11b815260040160405180910390fd5b6125aa6001600160c01b0382811690841681161490565b6125c75760405163d053aa2160e01b815260040160405180910390fd5b6001600160c01b03818116198316166125e0848261392a565b6001600160c01b03811661263c576001600160a01b0387165f81815260996020526040808220600101805460ff19166002179055518692917f396fdcb180cb0fea26928113fb0fd1c3549863f9cd563e6a184f1d578116c8e491a35b60405163f4e24fe560e01b81526001600160a01b037f0000000000000000000000000000000000000000000000000000000000000000169063f4e24fe59061268a908a908a9060040161570c565b5f604051808303815f87803b1580156126a1575f5ffd5b505af11580156126b3573d5f5f3e3d5ffd5b505060405163bd29b8cd60e01b81526001600160a01b037f000000000000000000000000000000000000000000000000000000000000000016925063bd29b8cd91506127059087908a906004016156e2565b5f604051808303815f87803b15801561271c575f5ffd5b505af115801561272e573d5f5f3e3d5ffd5b505060405163bd29b8cd60e01b81526001600160a01b037f000000000000000000000000000000000000000000000000000000000000000016925063bd29b8cd91506127809087908a906004016156e2565b5f604051808303815f87803b158015612797575f5ffd5b505af11580156127a9573d5f5f3e3d5ffd5b505050506127b987858884613936565b50505050505050565b5f610e206127ce6139d9565b8360405161190160f01b602082015260228101839052604281018290525f9060620160405160208183030381529060405280519060200120905092915050565b604080518082019091525f80825260208201525f808061283b5f516020615c725f395f51905f5286615743565b90505b61284781613aff565b90935091505f516020615c725f395f51905f52828309830361287f576040805180820190915290815260208101919091529392505050565b5f516020615c725f395f51905f5260018208905061283e565b60965460ff166128a781613b7b565b60c060ff8216106128cb57604051633cb89c9760e01b815260040160405180910390fd5b60968054600191905f906128e390849060ff16615756565b92506101000a81548160ff021916908360ff1602179055506129058187612da5565b6040805160018082528183019092525f91816020015b604080518082019091525f81526060602082015281526020019060019003908161291b5790505090505f85516001600160401b0381111561295e5761295e6145f0565b604051908082528060200260200182016040528015612987578160200160208202803683370190505b5090505f5b86518110156129e4578681815181106129a7576129a7615311565b60200260200101515f01518282815181106129c4576129c4615311565b6001600160a01b039092166020928302919091019091015260010161298c565b5060405180604001604052808460ff1663ffffffff16815260200182815250825f81518110612a1557612a15615311565b602090810291909101015260a154604051630130fc2760e51b81526001600160a01b037f000000000000000000000000000000000000000000000000000000000000000081169263261f84e092612a75929190911690869060040161576f565b5f604051808303815f87803b158015612a8c575f5ffd5b505af1158015612a9e573d5f5f3e3d5ffd5b505f9250612aaa915050565b856001811115612abc57612abc614c8f565b03612b4357604051633aea0b9d60e11b81526001600160a01b037f000000000000000000000000000000000000000000000000000000000000000016906375d4173a90612b119086908b908b90600401615889565b5f604051808303815f87803b158015612b28575f5ffd5b505af1158015612b3a573d5f5f3e3d5ffd5b50505050612bdc565b6001856001811115612b5757612b57614c8f565b03612bdc57604051630662d3e160e51b81526001600160a01b037f0000000000000000000000000000000000000000000000000000000000000000169063cc5a7c2090612bae9086908b9089908c906004016158bc565b5f604051808303815f87803b158015612bc5575f5ffd5b505af1158015612bd7573d5f5f3e3d5ffd5b505050505b60405163136ca0f960e11b815260ff841660048201527f00000000000000000000000000000000000000000000000000000000000000006001600160a01b0316906326d941f2906024015f604051808303815f87803b158015612c3d575f5ffd5b505af1158015612c4f573d5f5f3e3d5ffd5b505060405163136ca0f960e11b815260ff861660048201527f00000000000000000000000000000000000000000000000000000000000000006001600160a01b031692506326d941f291506024015f604051808303815f87803b158015612cb4575f5ffd5b505af1158015612cc6573d5f5f3e3d5ffd5b505050505b5050505050505050565b5f5f612ce084612f8e565b9050808360ff166001901b11610c4d5760405163ca95733360e01b815260040160405180910390fd5b606480546001600160a01b038381166001600160a01b0319831681179093556040519116919082907f8be0079c531659141344cd1fd0a4f28419497f9722a3daafe3b4186f6b6457e0905f90a35050565b60a180546001600160a01b0319166001600160a01b0392909216919091179055565b60965460ff90811690821610610cb357604051637310cff560e11b815260040160405180910390fd5b60ff82165f81815260976020908152604091829020845181548684018051888701805163ffffffff90951665ffffffffffff199094168417600160201b61ffff938416021767ffff0000000000001916600160301b95831695909502949094179094558551918252518316938101939093525116918101919091527f3ee6fe8d54610244c3e9d3c066ae4aee997884aa28f10616ae821925401318ac90606001611ef8565b609e546001600160a01b03163314611674576040516376d8ab1760e11b815260040160405180910390fd5b6001600160a01b0382165f908152609960205260408120609654909190612ea090849060ff16612cd5565b905060018083015460ff166002811115612ebc57612ebc614c8f565b148015612ed157506001600160c01b03811615155b15610fdf576040805160018082528183019092525f916020820181803683370190505090505f5b845181101561154d57848181518110612f1357612f13615311565b602001015160f81c60f81b825f81518110612f3057612f30615311565b60200101906001600160f81b03191690815f1a905350612f68858281518110612f5b57612f5b615311565b016020015160f81c61336c565b15612f7c57612f7786836124f9565b612f86565b612f868683613ba0565b600101612ef8565b5f61010082511115612fb357604051637da54e4760e11b815260040160405180910390fd5b81515f03612fc257505f919050565b5f5f835f81518110612fd657612fd6615311565b0160200151600160f89190911c81901b92505b84518110156130405784818151811061300457613004615311565b0160200151600160f89190911c1b915082821161303457604051631019106960e31b815260040160405180910390fd5b91811791600101612fe9565b50909392505050565b6040516309aa152760e11b81526001600160a01b0383811660048301525f917f0000000000000000000000000000000000000000000000000000000000000000909116906313542a4e90602401602060405180830381865afa1580156130b1573d5f5f3e3d5ffd5b505050506040513d601f19601f820116820180604052508101906130d591906158f2565b90505f819003610e20577f00000000000000000000000000000000000000000000000000000000000000006001600160a01b031663bf79ce58848461311987610f4b565b6040518463ffffffff1660e01b81526004016131379392919061592b565b6020604051808303815f875af1158015613153573d5f5f3e3d5ffd5b505050506040513d601f19601f82011682018060405250810190610c4d91906158f2565b83518251146131995760405163aaad13f760e01b815260040160405180910390fd5b6131a586868484613bd5565b5f6131b3878787875f613387565b90505f5b8551811015612ccb575f60975f8884815181106131d6576131d6615311565b0160209081015160f81c82528181019290925260409081015f208151606081018352905463ffffffff811680835261ffff600160201b8304811695840195909552600160301b9091049093169181019190915284518051919350908490811061324157613241615311565b602002602001015163ffffffff161115613363576132d587838151811061326a5761326a615311565b602001015160f81c60f81b60f81c8460400151848151811061328e5761328e615311565b60200260200101518b866020015186815181106132ad576132ad615311565b60200260200101518987815181106132c7576132c7615311565b602002602001015186613c80565b6040805160018082528183019092525f9160208201818036833701905050905087838151811061330757613307615311565b602001015160f81c60f81b815f8151811061332457613324615311565b60200101906001600160f81b03191690815f1a90535061336186848151811061334f5761334f615311565b60200260200101516020015182612e75565b505b506001016131b7565b5f610e2082613379611d56565b9060ff161c60019081161490565b6133ab60405180606001604052806060815260200160608152602001606081525090565b6096545f906133be90869060ff16612cd5565b90505f6133ca87611f04565b90506001600160c01b0382166133f3576040516313ca465760e01b815260040160405180910390fd5b8082166001600160c01b03161561341d57604051630c6816cd60e01b815260040160405180910390fd5b60a0546001600160a01b0389165f908152609f60205260409020546001600160c01b038381169085161791429161345491906159a4565b1061347257604051631968677d60e11b815260040160405180910390fd5b61347c888261392a565b61348688876121f4565b60016001600160a01b038a165f9081526099602052604090206001015460ff1660028111156134b7576134b7614c8f565b1461354e57604080518082018252898152600160208083018281526001600160a01b038e165f908152609990925293902082518155925183820180549394939192909160ff19169083600281111561351157613511614c8f565b0217905550506040518991506001600160a01b038b16907fe8e68cef1c3a761ed7be7e8463a375f27f7bc335e51824223cacce636ec5c3fe905f90a35b604051631fd93ca960e11b81526001600160a01b037f00000000000000000000000000000000000000000000000000000000000000001690633fb279529061359c908c908b9060040161570c565b5f604051808303815f87803b1580156135b3575f5ffd5b505af11580156135c5573d5f5f3e3d5ffd5b5050604051632550477760e01b81526001600160a01b037f000000000000000000000000000000000000000000000000000000000000000016925063255047779150613619908c908c908c906004016159b7565b5f604051808303815f875af1158015613634573d5f5f3e3d5ffd5b505050506040513d5f823e601f3d908101601f1916820160405261365b9190810190615a41565b60408087019190915260208601919091525162bff04d60e01b81526001600160a01b037f0000000000000000000000000000000000000000000000000000000000000000169062bff04d906136b6908b908b906004016156e2565b5f604051808303815f875af11580156136d1573d5f5f3e3d5ffd5b505050506040513d5f823e601f3d908101601f191682016040526136f89190810190615a9a565b845284156137c4575f5b87518110156137c2575f60975f8a848151811061372157613721615311565b0160209081015160f81c82528181019290925260409081015f208151606081018352905463ffffffff811680835261ffff600160201b8304811695840195909552600160301b9091049093169181019190915287518051919350908490811061378c5761378c615311565b602002602001015163ffffffff1611156137b957604051633cb89c9760e01b815260040160405180910390fd5b50600101613702565b505b50505095945050505050565b60605f82516001600160401b038111156137ec576137ec6145f0565b604051908082528060200260200182016040528015613815578160200160208202803683370190505b5090505f5b835181101561387657613847868686848151811061383a5761383a615311565b6020026020010151613df6565b82828151811061385957613859615311565b63ffffffff9092166020928302919091019091015260010161381a565b50949350505050565b6096545f90611d729060019060ff1681901b615b29565b5f818152602083905260408120548082036138b4575f915050610e20565b5f8381526020859052604090206138cc600183615b29565b815481106138dc576138dc615311565b5f91825260209091200154600160401b90046001600160c01b03169150610e209050565b5f805b8215610e2057613914600184615b29565b909216918061392281615b3c565b915050613903565b610d9460988383613f0e565b5f61393f61387f565b90505f61395361394d611d56565b19831690565b90506001600160c01b038119841616806127b9576040516351b27a6d60e11b81526001600160a01b0388811660048301527f0000000000000000000000000000000000000000000000000000000000000000169063a364f4da906024015f604051808303815f87803b1580156139c7575f5ffd5b505af1158015611ce7573d5f5f3e3d5ffd5b5f306001600160a01b037f000000000000000000000000000000000000000000000000000000000000000016148015613a3157507f000000000000000000000000000000000000000000000000000000000000000046145b15613a5b57507f000000000000000000000000000000000000000000000000000000000000000090565b50604080517f00000000000000000000000000000000000000000000000000000000000000006020808301919091527f0000000000000000000000000000000000000000000000000000000000000000828401527f000000000000000000000000000000000000000000000000000000000000000060608301524660808301523060a0808401919091528351808403909101815260c0909201909252805191012090565b5f80805f516020615c725f395f51905f5260035f516020615c725f395f51905f52865f516020615c725f395f51905f52888909090890505f613b6f827f0c19139cb84c680a6e14116da060561765e05aa45a1c72a34f082305b61f3f525f516020615c725f395f51905f526140c7565b91959194509092505050565b60c85460ff16610cb357613b8d611d56565b60c95560c8805460ff1916600117905550565b5f613bbb613bac611d56565b613bb584612f8e565b90191690565b90508015610c3757610c3783613bd083611f10565b614140565b6020808201515f908152609a909152604090205460ff1615613c0a57604051636fbefec360e11b815260040160405180910390fd5b4281604001511015613c2f57604051630819bdcd60e01b815260040160405180910390fd5b602080820180515f908152609a909252604091829020805460ff19166001179055609d54905191830151610fdf926001600160a01b0390921691613c7991889188918891906117bf565b83516141de565b6020808301516001600160a01b038082165f8181526099909452604090932054919290871603613cc3576040516356168b4160e11b815260040160405180910390fd5b8760ff16845f015160ff1614613cec57604051638e5aeee760e01b815260040160405180910390fd5b604051635401ed2760e01b81526004810182905260ff891660248201525f907f00000000000000000000000000000000000000000000000000000000000000006001600160a01b031690635401ed2790604401602060405180830381865afa158015613d5a573d5f5f3e3d5ffd5b505050506040513d601f19601f82011682018060405250810190613d7e9190615b5c565b9050613d8a8185614206565b6001600160601b0316866001600160601b031611613dbb57604051634c44995d60e01b815260040160405180910390fd5b613dc58885614229565b6001600160601b0316816001600160601b0316106119ca5760405163b187e86960e01b815260040160405180910390fd5b5f81815260208490526040812054815b81811015613e79576001613e1a8284615b29565b613e249190615b29565b92508463ffffffff16865f8681526020019081526020015f208463ffffffff1681548110613e5457613e54615311565b5f9182526020909120015463ffffffff1611613e71575050610c4d565b600101613e06565b5060405162461bcd60e51b815260206004820152605c60248201527f5265676973747279436f6f7264696e61746f722e67657451756f72756d42697460448201527f6d6170496e6465784174426c6f636b4e756d6265723a206e6f206269746d617060648201527f2075706461746520666f756e6420666f72206f70657261746f72496400000000608482015260a4016113a2565b5f8281526020849052604081205490819003613fb2575f83815260208581526040808320815160608101835263ffffffff43811682528185018681526001600160c01b03808a16958401958652845460018101865594885295909620915191909201805495519351909416600160401b026001600160401b03938316600160201b0267ffffffffffffffff1990961691909216179390931716919091179055610fdf565b5f838152602085905260408120613fca600184615b29565b81548110613fda57613fda615311565b5f918252602090912001805490915063ffffffff43811691160361401b5780546001600160401b0316600160401b6001600160c01b03851602178155610f44565b805463ffffffff438116600160201b81810267ffffffff00000000199094169390931784555f8781526020898152604080832081516060810183529485528483018481526001600160c01b03808c1693870193845282546001810184559286529390942094519401805493519151909216600160401b026001600160401b0391861690960267ffffffffffffffff19909316939094169290921717919091169190911790555050505050565b5f5f6140d16145b4565b6140d96145d2565b602080825281810181905260408201819052606082018890526080820187905260a082018690528260c08360056107d05a03fa9250828061411657fe5b50826141355760405163d51edae360e01b815260040160405180910390fd5b505195945050505050565b604080516060810182526001600160a01b03848116825260a154811660208301527f00000000000000000000000000000000000000000000000000000000000000001691636e3492b59190810161419685614242565b8152506040518263ffffffff1660e01b81526004016141b59190615b77565b5f604051808303815f87803b1580156141cc575f5ffd5b505af115801561154d573d5f5f3e3d5ffd5b6141e98383836142e7565b610c3757604051638baa579f60e01b815260040160405180910390fd5b60208101515f906127109061421f9061ffff1685615be5565b610c4d9190615c07565b60408101515f906127109061421f9061ffff1685615be5565b60605f82516001600160401b0381111561425e5761425e6145f0565b604051908082528060200260200182016040528015614287578160200160208202803683370190505b5090505f5b83518110156124f2578381815181106142a7576142a7615311565b602001015160f81c60f81b60f81c60ff168282815181106142ca576142ca615311565b63ffffffff9092166020928302919091019091015260010161428c565b5f5f5f6142f4858561442c565b90925090505f81600481111561430c5761430c614c8f565b14801561432a5750856001600160a01b0316826001600160a01b0316145b1561433a57600192505050610c4d565b5f5f876001600160a01b0316631626ba7e60e01b88886040516024016143619291906156e2565b60408051601f198184030181529181526020820180516001600160e01b03166001600160e01b031990941693909317909252905161439f9190615c34565b5f60405180830381855afa9150503d805f81146143d7576040519150601f19603f3d011682016040523d82523d5f602084013e6143dc565b606091505b50915091508180156143ef575080516020145b801561442057508051630b135d3f60e11b906144149083016020908101908401615c4a565b6001600160e01b031916145b98975050505050505050565b5f5f8251604103614460576020830151604084015160608501515f1a61445487828585614497565b94509450505050614490565b8251604003614489576020830151604084015161447e86838361457c565b935093505050614490565b505f905060025b9250929050565b5f807f7fffffffffffffffffffffffffffffff5d576e7357a4501ddfe92f46681b20a08311156144cc57505f90506003614573565b8460ff16601b141580156144e457508460ff16601c14155b156144f457505f90506004614573565b604080515f8082526020820180845289905260ff881692820192909252606081018690526080810185905260019060a0016020604051602081039080840390855afa158015614545573d5f5f3e3d5ffd5b5050604051601f1901519150506001600160a01b03811661456d575f60019250925050614573565b91505f90505b94509492505050565b5f806001600160ff1b0383168161459860ff86901c601b6159a4565b90506145a687828885614497565b935093505050935093915050565b60405180602001604052806001906020820280368337509192915050565b6040518060c001604052806006906020820280368337509192915050565b634e487b7160e01b5f52604160045260245ffd5b604051606081016001600160401b0381118282101715614626576146266145f0565b60405290565b604080519081016001600160401b0381118282101715614626576146266145f0565b604051601f8201601f191681016001600160401b0381118282101715614676576146766145f0565b604052919050565b5f6001600160401b03821115614696576146966145f0565b5060051b60200190565b6001600160a01b0381168114610cb3575f5ffd5b5f82601f8301126146c3575f5ffd5b81356146d66146d18261467e565b61464e565b8082825260208201915060208360051b8601019250858311156146f7575f5ffd5b602085015b8381101561471d57803561470f816146a0565b8352602092830192016146fc565b5095945050505050565b5f60208284031215614737575f5ffd5b81356001600160401b0381111561474c575f5ffd5b6121ec848285016146b4565b5f60208284031215614768575f5ffd5b5035919050565b63ffffffff81168114610cb3575f5ffd5b5f5f5f60608486031215614792575f5ffd5b8335925060208401356147a48161476f565b929592945050506040919091013590565b5f82601f8301126147c4575f5ffd5b8135602083015f5f6001600160401b038411156147e3576147e36145f0565b50601f8301601f19166020016147f88161464e565b91505082815285838301111561480c575f5ffd5b828260208301375f92810160200192909252509392505050565b5f60208284031215614836575f5ffd5b81356001600160401b0381111561484b575f5ffd5b6121ec848285016147b5565b5f60208284031215614867575f5ffd5b8135610c4d816146a0565b5f5f60408385031215614883575f5ffd5b50508035926020909101359150565b803560ff811681146148a2575f5ffd5b919050565b5f602082840312156148b7575f5ffd5b610c4d82614892565b5f82601f8301126148cf575f5ffd5b81356148dd6146d18261467e565b8082825260208201915060208360051b8601019250858311156148fe575f5ffd5b602085015b8381101561471d5780356149168161476f565b835260209283019201614903565b5f5f5f60608486031215614936575f5ffd5b8335614941816146a0565b92506020840135614951816146a0565b915060408401356001600160401b0381111561496b575f5ffd5b614977868287016148c0565b9150509250925092565b815181526020808301519082015260408101610e20565b803561ffff811681146148a2575f5ffd5b5f606082840312156149b9575f5ffd5b6149c1614604565b905081356149ce8161476f565b81526149dc60208301614998565b60208201526149ed60408301614998565b604082015292915050565b6001600160601b0381168114610cb3575f5ffd5b5f82601f830112614a1b575f5ffd5b8135614a296146d18261467e565b8082825260208201915060208360061b860101925085831115614a4a575f5ffd5b602085015b8381101561471d5760408188031215614a66575f5ffd5b614a6e61462c565b8135614a79816146a0565b81526020820135614a89816149f8565b6020828101919091529084529290920191604001614a4f565b5f5f5f5f60c08587031215614ab5575f5ffd5b614abf86866149a9565b93506060850135614acf816149f8565b925060808501356001600160401b03811115614ae9575f5ffd5b614af587828801614a0c565b92505060a0850135614b068161476f565b939692955090935050565b5f5f83601f840112614b21575f5ffd5b5081356001600160401b03811115614b37575f5ffd5b602083019150836020828501011115614490575f5ffd5b5f5f5f60408486031215614b60575f5ffd5b83356001600160401b03811115614b75575f5ffd5b8401601f81018613614b85575f5ffd5b8035614b936146d18261467e565b8082825260208201915060208360051b850101925088831115614bb4575f5ffd5b602084015b83811015614bf45780356001600160401b03811115614bd6575f5ffd5b614be58b6020838901016146b4565b84525060209283019201614bb9565b50955050505060208401356001600160401b03811115614c12575f5ffd5b614c1e86828701614b11565b9497909650939450505050565b5f5f5f5f5f60a08688031215614c3f575f5ffd5b8535614c4a816146a0565b94506020860135614c5a816146a0565b93506040860135614c6a816146a0565b9250606086013591506080860135614c81816146a0565b809150509295509295909350565b634e487b7160e01b5f52602160045260245ffd5b60038110614cbf57634e487b7160e01b5f52602160045260245ffd5b9052565b8151815260208083015160408301916124f290840182614ca3565b5f5f60808385031215614cef575f5ffd5b614cf883614892565b9150614d0784602085016149a9565b90509250929050565b5f5f60408385031215614d21575f5ffd5b8235614d2c816146a0565b915060208301356001600160401b03811115614d46575f5ffd5b614d52858286016147b5565b9150509250929050565b5f5f5f60a08486031215614d6e575f5ffd5b614d7885856149a9565b92506060840135614d88816149f8565b915060808401356001600160401b03811115614da2575f5ffd5b61497786828701614a0c565b5f82601f830112614dbd575f5ffd5b8135614dcb6146d18261467e565b8082825260208201915060208360061b860101925085831115614dec575f5ffd5b602085015b8381101561471d5760408188031215614e08575f5ffd5b614e1061462c565b614e1982614892565b81526020820135614e29816146a0565b6020828101919091529084529290920191604001614df1565b5f5f5f5f5f60a08688031215614e56575f5ffd5b8535614e61816146a0565b94506020860135935060408601356001600160401b03811115614e82575f5ffd5b614e8e88828901614dae565b9598949750949560608101359550608001359392505050565b5f60408284031215614eb7575f5ffd5b614ebf61462c565b823581526020928301359281019290925250919050565b5f82601f830112614ee5575f5ffd5b614eed61462c565b806040840185811115614efe575f5ffd5b845b81811015614f18578035845260209384019301614f00565b509095945050505050565b5f818303610100811215614f35575f5ffd5b614f3d614604565b9150614f498484614ea7565b8252614f588460408501614ea7565b60208301526080607f1982011215614f6e575f5ffd5b50614f7761462c565b614f848460808501614ed6565b8152614f938460c08501614ed6565b6020820152604082015292915050565b5f60608284031215614fb3575f5ffd5b614fbb614604565b905081356001600160401b03811115614fd2575f5ffd5b614fde848285016147b5565b8252506020828101359082015260409182013591810191909152919050565b5f5f5f5f5f5f5f6101a0888a031215615014575f5ffd5b87356001600160401b03811115615029575f5ffd5b6150358a828b01614b11565b90985096505060208801356001600160401b03811115615053575f5ffd5b61505f8a828b016147b5565b95505061506f8960408a01614f23565b93506101408801356001600160401b0381111561508a575f5ffd5b6150968a828b01614dae565b9350506101608801356001600160401b038111156150b2575f5ffd5b6150be8a828b01614fa3565b9250506101808801356001600160401b038111156150da575f5ffd5b6150e68a828b01614fa3565b91505092959891949750929550565b5f5f5f5f6101608587031215615109575f5ffd5b84356001600160401b0381111561511e575f5ffd5b61512a878288016147b5565b94505060208501356001600160401b03811115615145575f5ffd5b615151878288016147b5565b9350506151618660408701614f23565b91506101408501356001600160401b0381111561517c575f5ffd5b61518887828801614fa3565b91505092959194509250565b5f5f604083850312156151a5575f5ffd5b82356151b08161476f565b915060208301356001600160401b038111156151ca575f5ffd5b8301601f810185136151da575f5ffd5b80356151e86146d18261467e565b8082825260208201915060208360051b850101925087831115615209575f5ffd5b6020840193505b8284101561522b578335825260209384019390910190615210565b809450505050509250929050565b602080825282518282018190525f918401906040840190835b81811015614f1857835163ffffffff16835260209384019390920191600101615252565b5f5f5f5f5f6080868803121561528a575f5ffd5b8535615295816146a0565b945060208601356152a5816146a0565b935060408601356001600160401b038111156152bf575f5ffd5b6152cb888289016148c0565b93505060608601356001600160401b038111156152e6575f5ffd5b6152f288828901614b11565b969995985093965092949392505050565b60208101610e208284614ca3565b634e487b7160e01b5f52603260045260245ffd5b805180151581146148a2575f5ffd5b5f60208284031215615344575f5ffd5b610c4d82615325565b5f6020828403121561535d575f5ffd5b8151610c4d816146a0565b5f60208284031215615378575f5ffd5b8151610c4d8161476f565b5f60c0820188835260018060a01b038816602084015286604084015260c0606084015280865180835260e0850191506020880192505f5b818110156153f0578351805160ff1684526020908101516001600160a01b031681850152909301926040909201916001016153ba565b50506080840195909552505060a00152949350505050565b5f81518084528060208401602086015e5f602082860101526020601f19601f83011685010191505092915050565b60018060a01b0383168152604060208201525f82516060604084015261545f60a0840182615408565b90506020840151606084015260408401516080840152809150509392505050565b8035600281106148a2575f5ffd5b5f5f5f61014084860312156154a1575f5ffd5b6154aa84615480565b925060208401356001600160401b038111156154c4575f5ffd5b6154d0868287016147b5565b9250506154e08560408601614f23565b90509250925092565b5f5f5f5f5f61018086880312156154fe575f5ffd5b61550786615480565b945060208601356001600160401b03811115615521575f5ffd5b61552d888289016147b5565b94505061553d8760408801614f23565b92506101408601356001600160401b03811115615558575f5ffd5b61556488828901614dae565b9250506101608601356001600160401b03811115615580575f5ffd5b61558c88828901614fa3565b9150509295509295909350565b634e487b7160e01b5f52601160045260245ffd5b5f600182016155be576155be615599565b5060010190565b606080825284519082018190525f9060208601906080840190835b818110156156075783516001600160a01b03168352602093840193909201916001016155e0565b5050838103602080860191909152865180835291810192508601905f5b81811015615642578251845260209384019390920191600101615624565b50505060ff8416604084015290506121ec565b5f60208284031215615665575f5ffd5b81516001600160401b0381111561567a575f5ffd5b8201601f8101841361568a575f5ffd5b80516156986146d18261467e565b8082825260208201915060208360051b8501019250868311156156b9575f5ffd5b6020840193505b828410156117fe576156d184615325565b8252602093840193909101906156c0565b828152604060208201525f610c4a6040830184615408565b602081525f610c4d6020830184615408565b6001600160a01b03831681526040602082018190525f90610c4a90830184615408565b634e487b7160e01b5f52601260045260245ffd5b5f826157515761575161572f565b500690565b60ff8181168382160190811115610e2057610e20615599565b5f6040820160018060a01b03851683526040602084015280845180835260608501915060608160051b8601019250602086015f5b8281101561582457868503605f190184528151805163ffffffff168652602090810151604082880181905281519088018190529101905f9060608801905b8083101561580c5783516001600160a01b0316825260209384019360019390930192909101906157e1565b509650505060209384019391909101906001016157a3565b5092979650505050505050565b5f8151808452602084019350602083015f5b8281101561587f57815180516001600160a01b031687526020908101516001600160601b03168188015260409096019590910190600101615843565b5093949350505050565b60ff841681526001600160601b0383166020820152606060408201525f6158b36060830184615831565b95945050505050565b60ff851681526001600160601b038416602082015263ffffffff83166040820152608060608201525f6117fe6080830184615831565b5f60208284031215615902575f5ffd5b5051919050565b805f5b6002811015610fdf57815184526020938401939091019060010161590c565b6001600160a01b0384168152825180516020808401919091520151604082015261016081016020848101518051606085015290810151608084015250604084015161597a60a084018251615909565b6020015161598b60e0840182615909565b50825161012083015260208301516101408301526121ec565b80820180821115610e2057610e20615599565b60018060a01b0384168152826020820152606060408201525f6158b36060830184615408565b5f82601f8301126159ec575f5ffd5b81516159fa6146d18261467e565b8082825260208201915060208360051b860101925085831115615a1b575f5ffd5b602085015b8381101561471d578051615a33816149f8565b835260209283019201615a20565b5f5f60408385031215615a52575f5ffd5b82516001600160401b03811115615a67575f5ffd5b615a73858286016159dd565b92505060208301516001600160401b03811115615a8e575f5ffd5b614d52858286016159dd565b5f60208284031215615aaa575f5ffd5b81516001600160401b03811115615abf575f5ffd5b8201601f81018413615acf575f5ffd5b8051615add6146d18261467e565b8082825260208201915060208360051b850101925086831115615afe575f5ffd5b6020840193505b828410156117fe578351615b188161476f565b825260209384019390910190615b05565b81810381811115610e2057610e20615599565b5f61ffff821661ffff8103615b5357615b53615599565b60010192915050565b5f60208284031215615b6c575f5ffd5b8151610c4d816149f8565b602080825282516001600160a01b039081168383015283820151166040808401919091528301516060808401528051608084018190525f929190910190829060a08501905b8083101561471d5763ffffffff8451168252602082019150602084019350600183019250615bbc565b6001600160601b0381811683821602908116908181146124f2576124f2615599565b5f6001600160601b03831680615c1f57615c1f61572f565b806001600160601b0384160491505092915050565b5f82518060208501845e5f920191825250919050565b5f60208284031215615c5a575f5ffd5b81516001600160e01b031981168114610c4d575f5ffdfe30644e72e131a029b85045b68181585d97816a916871ca8d3c208c16d87cfd47a2646970667358221220bf5debd4a7321dbe1578bcf53d5c76d5a5b7142bbff5f8b3ad1a68a8c322909964736f6c634300081b0033","linkReferences":{}},"methodIdentifiers":{"OPERATOR_CHURN_APPROVAL_TYPEHASH()":"ca0de882","PUBKEY_REGISTRATION_TYPEHASH()":"9feab859","allocationManager()":"ca8aa7c7","avs()":"de1164bb","blsApkRegistry()":"5df45946","calculateOperatorChurnApprovalDigestHash(address,bytes32,(uint8,address)[],bytes32,uint256)":"84ca5213","calculatePubkeyRegistrationMessageHash(address)":"73447992","churnApprover()":"054310e6","createSlashableStakeQuorum((uint32,uint16,uint16),uint96,(address,uint96)[],uint32)":"3eef3a51","createTotalDelegatedStakeQuorum((uint32,uint16,uint16),uint96,(address,uint96)[])":"8281ab75","deregisterOperator(address,address,uint32[])":"303ca956","deregisterOperator(bytes)":"ca4f2d97","disableM2QuorumRegistration()":"733b7507","ejectOperator(address,bytes)":"6e3b17db","ejectionCooldown()":"a96f783e","ejector()":"28f61b31","getCurrentQuorumBitmap(bytes32)":"871ef049","getOperator(address)":"5865c60c","getOperatorFromId(bytes32)":"296bb064","getOperatorId(address)":"13542a4e","getOperatorSetParams(uint8)":"e65797ad","getOperatorStatus(address)":"fd39105a","getQuorumBitmapAtBlockNumberByIndex(bytes32,uint32,uint256)":"04ec6351","getQuorumBitmapHistoryLength(bytes32)":"03fd3492","getQuorumBitmapIndicesAtBlockNumber(uint32,bytes32[])":"c391425e","getQuorumBitmapUpdateByIndex(bytes32,uint256)":"1eb812da","indexRegistry()":"9e9923c2","initialize(address,address,address,uint256,address)":"530b97a4","isChurnApproverSaltUsed(bytes32)":"1478851f","isM2Quorum(uint8)":"a4d7871f","isM2QuorumRegistrationDisabled()":"e814ca9d","lastEjectionTimestamp(address)":"125e0584","m2QuorumBitmap()":"ec8c3a1e","numRegistries()":"d72d8dd6","operatorSetsEnabled()":"81f936d2","owner()":"8da5cb5b","pause(uint256)":"136439dd","pauseAll()":"595c6a67","paused()":"5c975abb","paused(uint8)":"5ac86ab7","pauserRegistry()":"886f1195","pubkeyRegistrationMessageHash(address)":"3c2a7f4c","quorumCount()":"9aa1653d","quorumUpdateBlockNumber(uint8)":"249a0c42","registerOperator(address,address,uint32[],bytes)":"c63fd502","registerOperator(bytes,string,((uint256,uint256),(uint256,uint256),(uint256[2],uint256[2])),(bytes,bytes32,uint256))":"a50857bf","registerOperatorWithChurn(bytes,string,((uint256,uint256),(uint256,uint256),(uint256[2],uint256[2])),(uint8,address)[],(bytes,bytes32,uint256),(bytes,bytes32,uint256))":"9b5d177b","registries(uint256)":"6347c900","renounceOwnership()":"715018a6","serviceManager()":"3998fdd3","setAVS(address)":"a65497c6","setChurnApprover(address)":"29d1e0c3","setEjectionCooldown(uint256)":"0d3f2134","setEjector(address)":"2cdd1e86","setOperatorSetParams(uint8,(uint32,uint16,uint16))":"5b0b829f","socketRegistry()":"ea32afae","stakeRegistry()":"68304835","supportsAVS(address)":"b5265787","transferOwnership(address)":"f2fde38b","unpause(uint256)":"fabc1cbc","updateOperators(address[])":"00cf2ab5","updateOperatorsForQuorum(address[][],bytes)":"5140a548","updateSocket(string)":"0cf4b767"},"id":127}