{"abi":[{"type":"constructor","inputs":[{"name":"params","type":"tuple","internalType":"struct IRewardsCoordinatorTypes.RewardsCoordinatorConstructorParams","components":[{"name":"delegationManager","type":"address","internalType":"contract IDelegationManager"},{"name":"strategyManager","type":"address","internalType":"contract IStrategyManager"},{"name":"allocationManager","type":"address","internalType":"contract IAllocationManager"},{"name":"pauserRegistry","type":"address","internalType":"contract IPauserRegistry"},{"name":"permissionController","type":"address","internalType":"contract IPermissionController"},{"name":"CALCULATION_INTERVAL_SECONDS","type":"uint32","internalType":"uint32"},{"name":"MAX_REWARDS_DURATION","type":"uint32","internalType":"uint32"},{"name":"MAX_RETROACTIVE_LENGTH","type":"uint32","internalType":"uint32"},{"name":"MAX_FUTURE_LENGTH","type":"uint32","internalType":"uint32"},{"name":"GENESIS_REWARDS_TIMESTAMP","type":"uint32","internalType":"uint32"},{"name":"version","type":"string","internalType":"string"}]}],"stateMutability":"nonpayable"},{"type":"function","name":"CALCULATION_INTERVAL_SECONDS","inputs":[],"outputs":[{"name":"","type":"uint32","internalType":"uint32"}],"stateMutability":"view"},{"type":"function","name":"GENESIS_REWARDS_TIMESTAMP","inputs":[],"outputs":[{"name":"","type":"uint32","internalType":"uint32"}],"stateMutability":"view"},{"type":"function","name":"MAX_FUTURE_LENGTH","inputs":[],"outputs":[{"name":"","type":"uint32","internalType":"uint32"}],"stateMutability":"view"},{"type":"function","name":"MAX_RETROACTIVE_LENGTH","inputs":[],"outputs":[{"name":"","type":"uint32","internalType":"uint32"}],"stateMutability":"view"},{"type":"function","name":"MAX_REWARDS_DURATION","inputs":[],"outputs":[{"name":"","type":"uint32","internalType":"uint32"}],"stateMutability":"view"},{"type":"function","name":"activationDelay","inputs":[],"outputs":[{"name":"","type":"uint32","internalType":"uint32"}],"stateMutability":"view"},{"type":"function","name":"allocationManager","inputs":[],"outputs":[{"name":"","type":"address","internalType":"contract IAllocationManager"}],"stateMutability":"view"},{"type":"function","name":"beaconChainETHStrategy","inputs":[],"outputs":[{"name":"","type":"address","internalType":"contract IStrategy"}],"stateMutability":"view"},{"type":"function","name":"calculateEarnerLeafHash","inputs":[{"name":"leaf","type":"tuple","internalType":"struct IRewardsCoordinatorTypes.EarnerTreeMerkleLeaf","components":[{"name":"earner","type":"address","internalType":"address"},{"name":"earnerTokenRoot","type":"bytes32","internalType":"bytes32"}]}],"outputs":[{"name":"","type":"bytes32","internalType":"bytes32"}],"stateMutability":"pure"},{"type":"function","name":"calculateTokenLeafHash","inputs":[{"name":"leaf","type":"tuple","internalType":"struct IRewardsCoordinatorTypes.TokenTreeMerkleLeaf","components":[{"name":"token","type":"address","internalType":"contract IERC20"},{"name":"cumulativeEarnings","type":"uint256","internalType":"uint256"}]}],"outputs":[{"name":"","type":"bytes32","internalType":"bytes32"}],"stateMutability":"pure"},{"type":"function","name":"checkClaim","inputs":[{"name":"claim","type":"tuple","internalType":"struct IRewardsCoordinatorTypes.RewardsMerkleClaim","components":[{"name":"rootIndex","type":"uint32","internalType":"uint32"},{"name":"earnerIndex","type":"uint32","internalType":"uint32"},{"name":"earnerTreeProof","type":"bytes","internalType":"bytes"},{"name":"earnerLeaf","type":"tuple","internalType":"struct IRewardsCoordinatorTypes.EarnerTreeMerkleLeaf","components":[{"name":"earner","type":"address","internalType":"address"},{"name":"earnerTokenRoot","type":"bytes32","internalType":"bytes32"}]},{"name":"tokenIndices","type":"uint32[]","internalType":"uint32[]"},{"name":"tokenTreeProofs","type":"bytes[]","internalType":"bytes[]"},{"name":"tokenLeaves","type":"tuple[]","internalType":"struct IRewardsCoordinatorTypes.TokenTreeMerkleLeaf[]","components":[{"name":"token","type":"address","internalType":"contract IERC20"},{"name":"cumulativeEarnings","type":"uint256","internalType":"uint256"}]}]}],"outputs":[{"name":"","type":"bool","internalType":"bool"}],"stateMutability":"view"},{"type":"function","name":"claimerFor","inputs":[{"name":"earner","type":"address","internalType":"address"}],"outputs":[{"name":"claimer","type":"address","internalType":"address"}],"stateMutability":"view"},{"type":"function","name":"createAVSRewardsSubmission","inputs":[{"name":"rewardsSubmissions","type":"tuple[]","internalType":"struct IRewardsCoordinatorTypes.RewardsSubmission[]","components":[{"name":"strategiesAndMultipliers","type":"tuple[]","internalType":"struct IRewardsCoordinatorTypes.StrategyAndMultiplier[]","components":[{"name":"strategy","type":"address","internalType":"contract IStrategy"},{"name":"multiplier","type":"uint96","internalType":"uint96"}]},{"name":"token","type":"address","internalType":"contract IERC20"},{"name":"amount","type":"uint256","internalType":"uint256"},{"name":"startTimestamp","type":"uint32","internalType":"uint32"},{"name":"duration","type":"uint32","internalType":"uint32"}]}],"outputs":[],"stateMutability":"nonpayable"},{"type":"function","name":"createOperatorDirectedAVSRewardsSubmission","inputs":[{"name":"avs","type":"address","internalType":"address"},{"name":"operatorDirectedRewardsSubmissions","type":"tuple[]","internalType":"struct IRewardsCoordinatorTypes.OperatorDirectedRewardsSubmission[]","components":[{"name":"strategiesAndMultipliers","type":"tuple[]","internalType":"struct IRewardsCoordinatorTypes.StrategyAndMultiplier[]","components":[{"name":"strategy","type":"address","internalType":"contract IStrategy"},{"name":"multiplier","type":"uint96","internalType":"uint96"}]},{"name":"token","type":"address","internalType":"contract IERC20"},{"name":"operatorRewards","type":"tuple[]","internalType":"struct IRewardsCoordinatorTypes.OperatorReward[]","components":[{"name":"operator","type":"address","internalType":"address"},{"name":"amount","type":"uint256","internalType":"uint256"}]},{"name":"startTimestamp","type":"uint32","internalType":"uint32"},{"name":"duration","type":"uint32","internalType":"uint32"},{"name":"description","type":"string","internalType":"string"}]}],"outputs":[],"stateMutability":"nonpayable"},{"type":"function","name":"createOperatorDirectedOperatorSetRewardsSubmission","inputs":[{"name":"operatorSet","type":"tuple","internalType":"struct OperatorSet","components":[{"name":"avs","type":"address","internalType":"address"},{"name":"id","type":"uint32","internalType":"uint32"}]},{"name":"operatorDirectedRewardsSubmissions","type":"tuple[]","internalType":"struct IRewardsCoordinatorTypes.OperatorDirectedRewardsSubmission[]","components":[{"name":"strategiesAndMultipliers","type":"tuple[]","internalType":"struct IRewardsCoordinatorTypes.StrategyAndMultiplier[]","components":[{"name":"strategy","type":"address","internalType":"contract IStrategy"},{"name":"multiplier","type":"uint96","internalType":"uint96"}]},{"name":"token","type":"address","internalType":"contract IERC20"},{"name":"operatorRewards","type":"tuple[]","internalType":"struct IRewardsCoordinatorTypes.OperatorReward[]","components":[{"name":"operator","type":"address","internalType":"address"},{"name":"amount","type":"uint256","internalType":"uint256"}]},{"name":"startTimestamp","type":"uint32","internalType":"uint32"},{"name":"duration","type":"uint32","internalType":"uint32"},{"name":"description","type":"string","internalType":"string"}]}],"outputs":[],"stateMutability":"nonpayable"},{"type":"function","name":"createRewardsForAllEarners","inputs":[{"name":"rewardsSubmissions","type":"tuple[]","internalType":"struct IRewardsCoordinatorTypes.RewardsSubmission[]","components":[{"name":"strategiesAndMultipliers","type":"tuple[]","internalType":"struct IRewardsCoordinatorTypes.StrategyAndMultiplier[]","components":[{"name":"strategy","type":"address","internalType":"contract IStrategy"},{"name":"multiplier","type":"uint96","internalType":"uint96"}]},{"name":"token","type":"address","internalType":"contract IERC20"},{"name":"amount","type":"uint256","internalType":"uint256"},{"name":"startTimestamp","type":"uint32","internalType":"uint32"},{"name":"duration","type":"uint32","internalType":"uint32"}]}],"outputs":[],"stateMutability":"nonpayable"},{"type":"function","name":"createRewardsForAllSubmission","inputs":[{"name":"rewardsSubmissions","type":"tuple[]","internalType":"struct IRewardsCoordinatorTypes.RewardsSubmission[]","components":[{"name":"strategiesAndMultipliers","type":"tuple[]","internalType":"struct IRewardsCoordinatorTypes.StrategyAndMultiplier[]","components":[{"name":"strategy","type":"address","internalType":"contract IStrategy"},{"name":"multiplier","type":"uint96","internalType":"uint96"}]},{"name":"token","type":"address","internalType":"contract IERC20"},{"name":"amount","type":"uint256","internalType":"uint256"},{"name":"startTimestamp","type":"uint32","internalType":"uint32"},{"name":"duration","type":"uint32","internalType":"uint32"}]}],"outputs":[],"stateMutability":"nonpayable"},{"type":"function","name":"cumulativeClaimed","inputs":[{"name":"earner","type":"address","internalType":"address"},{"name":"token","type":"address","internalType":"contract IERC20"}],"outputs":[{"name":"totalClaimed","type":"uint256","internalType":"uint256"}],"stateMutability":"view"},{"type":"function","name":"currRewardsCalculationEndTimestamp","inputs":[],"outputs":[{"name":"","type":"uint32","internalType":"uint32"}],"stateMutability":"view"},{"type":"function","name":"defaultOperatorSplitBips","inputs":[],"outputs":[{"name":"","type":"uint16","internalType":"uint16"}],"stateMutability":"view"},{"type":"function","name":"delegationManager","inputs":[],"outputs":[{"name":"","type":"address","internalType":"contract IDelegationManager"}],"stateMutability":"view"},{"type":"function","name":"disableRoot","inputs":[{"name":"rootIndex","type":"uint32","internalType":"uint32"}],"outputs":[],"stateMutability":"nonpayable"},{"type":"function","name":"getCurrentClaimableDistributionRoot","inputs":[],"outputs":[{"name":"","type":"tuple","internalType":"struct IRewardsCoordinatorTypes.DistributionRoot","components":[{"name":"root","type":"bytes32","internalType":"bytes32"},{"name":"rewardsCalculationEndTimestamp","type":"uint32","internalType":"uint32"},{"name":"activatedAt","type":"uint32","internalType":"uint32"},{"name":"disabled","type":"bool","internalType":"bool"}]}],"stateMutability":"view"},{"type":"function","name":"getCurrentDistributionRoot","inputs":[],"outputs":[{"name":"","type":"tuple","internalType":"struct IRewardsCoordinatorTypes.DistributionRoot","components":[{"name":"root","type":"bytes32","internalType":"bytes32"},{"name":"rewardsCalculationEndTimestamp","type":"uint32","internalType":"uint32"},{"name":"activatedAt","type":"uint32","internalType":"uint32"},{"name":"disabled","type":"bool","internalType":"bool"}]}],"stateMutability":"view"},{"type":"function","name":"getDistributionRootAtIndex","inputs":[{"name":"index","type":"uint256","internalType":"uint256"}],"outputs":[{"name":"","type":"tuple","internalType":"struct IRewardsCoordinatorTypes.DistributionRoot","components":[{"name":"root","type":"bytes32","internalType":"bytes32"},{"name":"rewardsCalculationEndTimestamp","type":"uint32","internalType":"uint32"},{"name":"activatedAt","type":"uint32","internalType":"uint32"},{"name":"disabled","type":"bool","internalType":"bool"}]}],"stateMutability":"view"},{"type":"function","name":"getDistributionRootsLength","inputs":[],"outputs":[{"name":"","type":"uint256","internalType":"uint256"}],"stateMutability":"view"},{"type":"function","name":"getOperatorAVSSplit","inputs":[{"name":"operator","type":"address","internalType":"address"},{"name":"avs","type":"address","internalType":"address"}],"outputs":[{"name":"","type":"uint16","internalType":"uint16"}],"stateMutability":"view"},{"type":"function","name":"getOperatorPISplit","inputs":[{"name":"operator","type":"address","internalType":"address"}],"outputs":[{"name":"","type":"uint16","internalType":"uint16"}],"stateMutability":"view"},{"type":"function","name":"getOperatorSetSplit","inputs":[{"name":"operator","type":"address","internalType":"address"},{"name":"operatorSet","type":"tuple","internalType":"struct OperatorSet","components":[{"name":"avs","type":"address","internalType":"address"},{"name":"id","type":"uint32","internalType":"uint32"}]}],"outputs":[{"name":"","type":"uint16","internalType":"uint16"}],"stateMutability":"view"},{"type":"function","name":"getRootIndexFromHash","inputs":[{"name":"rootHash","type":"bytes32","internalType":"bytes32"}],"outputs":[{"name":"","type":"uint32","internalType":"uint32"}],"stateMutability":"view"},{"type":"function","name":"initialize","inputs":[{"name":"initialOwner","type":"address","internalType":"address"},{"name":"initialPausedStatus","type":"uint256","internalType":"uint256"},{"name":"_rewardsUpdater","type":"address","internalType":"address"},{"name":"_activationDelay","type":"uint32","internalType":"uint32"},{"name":"_defaultSplitBips","type":"uint16","internalType":"uint16"}],"outputs":[],"stateMutability":"nonpayable"},{"type":"function","name":"isAVSRewardsSubmissionHash","inputs":[{"name":"avs","type":"address","internalType":"address"},{"name":"hash","type":"bytes32","internalType":"bytes32"}],"outputs":[{"name":"valid","type":"bool","internalType":"bool"}],"stateMutability":"view"},{"type":"function","name":"isOperatorDirectedAVSRewardsSubmissionHash","inputs":[{"name":"avs","type":"address","internalType":"address"},{"name":"hash","type":"bytes32","internalType":"bytes32"}],"outputs":[{"name":"valid","type":"bool","internalType":"bool"}],"stateMutability":"view"},{"type":"function","name":"isOperatorDirectedOperatorSetRewardsSubmissionHash","inputs":[{"name":"avs","type":"address","internalType":"address"},{"name":"hash","type":"bytes32","internalType":"bytes32"}],"outputs":[{"name":"valid","type":"bool","internalType":"bool"}],"stateMutability":"view"},{"type":"function","name":"isRewardsForAllSubmitter","inputs":[{"name":"submitter","type":"address","internalType":"address"}],"outputs":[{"name":"valid","type":"bool","internalType":"bool"}],"stateMutability":"view"},{"type":"function","name":"isRewardsSubmissionForAllEarnersHash","inputs":[{"name":"avs","type":"address","internalType":"address"},{"name":"hash","type":"bytes32","internalType":"bytes32"}],"outputs":[{"name":"valid","type":"bool","internalType":"bool"}],"stateMutability":"view"},{"type":"function","name":"isRewardsSubmissionForAllHash","inputs":[{"name":"avs","type":"address","internalType":"address"},{"name":"hash","type":"bytes32","internalType":"bytes32"}],"outputs":[{"name":"valid","type":"bool","internalType":"bool"}],"stateMutability":"view"},{"type":"function","name":"owner","inputs":[],"outputs":[{"name":"","type":"address","internalType":"address"}],"stateMutability":"view"},{"type":"function","name":"pause","inputs":[{"name":"newPausedStatus","type":"uint256","internalType":"uint256"}],"outputs":[],"stateMutability":"nonpayable"},{"type":"function","name":"pauseAll","inputs":[],"outputs":[],"stateMutability":"nonpayable"},{"type":"function","name":"paused","inputs":[{"name":"index","type":"uint8","internalType":"uint8"}],"outputs":[{"name":"","type":"bool","internalType":"bool"}],"stateMutability":"view"},{"type":"function","name":"paused","inputs":[],"outputs":[{"name":"","type":"uint256","internalType":"uint256"}],"stateMutability":"view"},{"type":"function","name":"pauserRegistry","inputs":[],"outputs":[{"name":"","type":"address","internalType":"contract IPauserRegistry"}],"stateMutability":"view"},{"type":"function","name":"permissionController","inputs":[],"outputs":[{"name":"","type":"address","internalType":"contract IPermissionController"}],"stateMutability":"view"},{"type":"function","name":"processClaim","inputs":[{"name":"claim","type":"tuple","internalType":"struct IRewardsCoordinatorTypes.RewardsMerkleClaim","components":[{"name":"rootIndex","type":"uint32","internalType":"uint32"},{"name":"earnerIndex","type":"uint32","internalType":"uint32"},{"name":"earnerTreeProof","type":"bytes","internalType":"bytes"},{"name":"earnerLeaf","type":"tuple","internalType":"struct IRewardsCoordinatorTypes.EarnerTreeMerkleLeaf","components":[{"name":"earner","type":"address","internalType":"address"},{"name":"earnerTokenRoot","type":"bytes32","internalType":"bytes32"}]},{"name":"tokenIndices","type":"uint32[]","internalType":"uint32[]"},{"name":"tokenTreeProofs","type":"bytes[]","internalType":"bytes[]"},{"name":"tokenLeaves","type":"tuple[]","internalType":"struct IRewardsCoordinatorTypes.TokenTreeMerkleLeaf[]","components":[{"name":"token","type":"address","internalType":"contract IERC20"},{"name":"cumulativeEarnings","type":"uint256","internalType":"uint256"}]}]},{"name":"recipient","type":"address","internalType":"address"}],"outputs":[],"stateMutability":"nonpayable"},{"type":"function","name":"processClaims","inputs":[{"name":"claims","type":"tuple[]","internalType":"struct IRewardsCoordinatorTypes.RewardsMerkleClaim[]","components":[{"name":"rootIndex","type":"uint32","internalType":"uint32"},{"name":"earnerIndex","type":"uint32","internalType":"uint32"},{"name":"earnerTreeProof","type":"bytes","internalType":"bytes"},{"name":"earnerLeaf","type":"tuple","internalType":"struct IRewardsCoordinatorTypes.EarnerTreeMerkleLeaf","components":[{"name":"earner","type":"address","internalType":"address"},{"name":"earnerTokenRoot","type":"bytes32","internalType":"bytes32"}]},{"name":"tokenIndices","type":"uint32[]","internalType":"uint32[]"},{"name":"tokenTreeProofs","type":"bytes[]","internalType":"bytes[]"},{"name":"tokenLeaves","type":"tuple[]","internalType":"struct IRewardsCoordinatorTypes.TokenTreeMerkleLeaf[]","components":[{"name":"token","type":"address","internalType":"contract IERC20"},{"name":"cumulativeEarnings","type":"uint256","internalType":"uint256"}]}]},{"name":"recipient","type":"address","internalType":"address"}],"outputs":[],"stateMutability":"nonpayable"},{"type":"function","name":"renounceOwnership","inputs":[],"outputs":[],"stateMutability":"nonpayable"},{"type":"function","name":"rewardsUpdater","inputs":[],"outputs":[{"name":"","type":"address","internalType":"address"}],"stateMutability":"view"},{"type":"function","name":"setActivationDelay","inputs":[{"name":"_activationDelay","type":"uint32","internalType":"uint32"}],"outputs":[],"stateMutability":"nonpayable"},{"type":"function","name":"setClaimerFor","inputs":[{"name":"claimer","type":"address","internalType":"address"}],"outputs":[],"stateMutability":"nonpayable"},{"type":"function","name":"setClaimerFor","inputs":[{"name":"earner","type":"address","internalType":"address"},{"name":"claimer","type":"address","internalType":"address"}],"outputs":[],"stateMutability":"nonpayable"},{"type":"function","name":"setDefaultOperatorSplit","inputs":[{"name":"split","type":"uint16","internalType":"uint16"}],"outputs":[],"stateMutability":"nonpayable"},{"type":"function","name":"setOperatorAVSSplit","inputs":[{"name":"operator","type":"address","internalType":"address"},{"name":"avs","type":"address","internalType":"address"},{"name":"split","type":"uint16","internalType":"uint16"}],"outputs":[],"stateMutability":"nonpayable"},{"type":"function","name":"setOperatorPISplit","inputs":[{"name":"operator","type":"address","internalType":"address"},{"name":"split","type":"uint16","internalType":"uint16"}],"outputs":[],"stateMutability":"nonpayable"},{"type":"function","name":"setOperatorSetSplit","inputs":[{"name":"operator","type":"address","internalType":"address"},{"name":"operatorSet","type":"tuple","internalType":"struct OperatorSet","components":[{"name":"avs","type":"address","internalType":"address"},{"name":"id","type":"uint32","internalType":"uint32"}]},{"name":"split","type":"uint16","internalType":"uint16"}],"outputs":[],"stateMutability":"nonpayable"},{"type":"function","name":"setRewardsForAllSubmitter","inputs":[{"name":"_submitter","type":"address","internalType":"address"},{"name":"_newValue","type":"bool","internalType":"bool"}],"outputs":[],"stateMutability":"nonpayable"},{"type":"function","name":"setRewardsUpdater","inputs":[{"name":"_rewardsUpdater","type":"address","internalType":"address"}],"outputs":[],"stateMutability":"nonpayable"},{"type":"function","name":"strategyManager","inputs":[],"outputs":[{"name":"","type":"address","internalType":"contract IStrategyManager"}],"stateMutability":"view"},{"type":"function","name":"submissionNonce","inputs":[{"name":"avs","type":"address","internalType":"address"}],"outputs":[{"name":"nonce","type":"uint256","internalType":"uint256"}],"stateMutability":"view"},{"type":"function","name":"submitRoot","inputs":[{"name":"root","type":"bytes32","internalType":"bytes32"},{"name":"rewardsCalculationEndTimestamp","type":"uint32","internalType":"uint32"}],"outputs":[],"stateMutability":"nonpayable"},{"type":"function","name":"transferOwnership","inputs":[{"name":"newOwner","type":"address","internalType":"address"}],"outputs":[],"stateMutability":"nonpayable"},{"type":"function","name":"unpause","inputs":[{"name":"newPausedStatus","type":"uint256","internalType":"uint256"}],"outputs":[],"stateMutability":"nonpayable"},{"type":"function","name":"version","inputs":[],"outputs":[{"name":"","type":"string","internalType":"string"}],"stateMutability":"view"},{"type":"event","name":"AVSRewardsSubmissionCreated","inputs":[{"name":"avs","type":"address","indexed":true,"internalType":"address"},{"name":"submissionNonce","type":"uint256","indexed":true,"internalType":"uint256"},{"name":"rewardsSubmissionHash","type":"bytes32","indexed":true,"internalType":"bytes32"},{"name":"rewardsSubmission","type":"tuple","indexed":false,"internalType":"struct IRewardsCoordinatorTypes.RewardsSubmission","components":[{"name":"strategiesAndMultipliers","type":"tuple[]","internalType":"struct IRewardsCoordinatorTypes.StrategyAndMultiplier[]","components":[{"name":"strategy","type":"address","internalType":"contract IStrategy"},{"name":"multiplier","type":"uint96","internalType":"uint96"}]},{"name":"token","type":"address","internalType":"contract IERC20"},{"name":"amount","type":"uint256","internalType":"uint256"},{"name":"startTimestamp","type":"uint32","internalType":"uint32"},{"name":"duration","type":"uint32","internalType":"uint32"}]}],"anonymous":false},{"type":"event","name":"ActivationDelaySet","inputs":[{"name":"oldActivationDelay","type":"uint32","indexed":false,"internalType":"uint32"},{"name":"newActivationDelay","type":"uint32","indexed":false,"internalType":"uint32"}],"anonymous":false},{"type":"event","name":"ClaimerForSet","inputs":[{"name":"earner","type":"address","indexed":true,"internalType":"address"},{"name":"oldClaimer","type":"address","indexed":true,"internalType":"address"},{"name":"claimer","type":"address","indexed":true,"internalType":"address"}],"anonymous":false},{"type":"event","name":"DefaultOperatorSplitBipsSet","inputs":[{"name":"oldDefaultOperatorSplitBips","type":"uint16","indexed":false,"internalType":"uint16"},{"name":"newDefaultOperatorSplitBips","type":"uint16","indexed":false,"internalType":"uint16"}],"anonymous":false},{"type":"event","name":"DistributionRootDisabled","inputs":[{"name":"rootIndex","type":"uint32","indexed":true,"internalType":"uint32"}],"anonymous":false},{"type":"event","name":"DistributionRootSubmitted","inputs":[{"name":"rootIndex","type":"uint32","indexed":true,"internalType":"uint32"},{"name":"root","type":"bytes32","indexed":true,"internalType":"bytes32"},{"name":"rewardsCalculationEndTimestamp","type":"uint32","indexed":true,"internalType":"uint32"},{"name":"activatedAt","type":"uint32","indexed":false,"internalType":"uint32"}],"anonymous":false},{"type":"event","name":"Initialized","inputs":[{"name":"version","type":"uint8","indexed":false,"internalType":"uint8"}],"anonymous":false},{"type":"event","name":"OperatorAVSSplitBipsSet","inputs":[{"name":"caller","type":"address","indexed":true,"internalType":"address"},{"name":"operator","type":"address","indexed":true,"internalType":"address"},{"name":"avs","type":"address","indexed":true,"internalType":"address"},{"name":"activatedAt","type":"uint32","indexed":false,"internalType":"uint32"},{"name":"oldOperatorAVSSplitBips","type":"uint16","indexed":false,"internalType":"uint16"},{"name":"newOperatorAVSSplitBips","type":"uint16","indexed":false,"internalType":"uint16"}],"anonymous":false},{"type":"event","name":"OperatorDirectedAVSRewardsSubmissionCreated","inputs":[{"name":"caller","type":"address","indexed":true,"internalType":"address"},{"name":"avs","type":"address","indexed":true,"internalType":"address"},{"name":"operatorDirectedRewardsSubmissionHash","type":"bytes32","indexed":true,"internalType":"bytes32"},{"name":"submissionNonce","type":"uint256","indexed":false,"internalType":"uint256"},{"name":"operatorDirectedRewardsSubmission","type":"tuple","indexed":false,"internalType":"struct IRewardsCoordinatorTypes.OperatorDirectedRewardsSubmission","components":[{"name":"strategiesAndMultipliers","type":"tuple[]","internalType":"struct IRewardsCoordinatorTypes.StrategyAndMultiplier[]","components":[{"name":"strategy","type":"address","internalType":"contract IStrategy"},{"name":"multiplier","type":"uint96","internalType":"uint96"}]},{"name":"token","type":"address","internalType":"contract IERC20"},{"name":"operatorRewards","type":"tuple[]","internalType":"struct IRewardsCoordinatorTypes.OperatorReward[]","components":[{"name":"operator","type":"address","internalType":"address"},{"name":"amount","type":"uint256","internalType":"uint256"}]},{"name":"startTimestamp","type":"uint32","internalType":"uint32"},{"name":"duration","type":"uint32","internalType":"uint32"},{"name":"description","type":"string","internalType":"string"}]}],"anonymous":false},{"type":"event","name":"OperatorDirectedOperatorSetRewardsSubmissionCreated","inputs":[{"name":"caller","type":"address","indexed":true,"internalType":"address"},{"name":"operatorDirectedRewardsSubmissionHash","type":"bytes32","indexed":true,"internalType":"bytes32"},{"name":"operatorSet","type":"tuple","indexed":false,"internalType":"struct OperatorSet","components":[{"name":"avs","type":"address","internalType":"address"},{"name":"id","type":"uint32","internalType":"uint32"}]},{"name":"submissionNonce","type":"uint256","indexed":false,"internalType":"uint256"},{"name":"operatorDirectedRewardsSubmission","type":"tuple","indexed":false,"internalType":"struct IRewardsCoordinatorTypes.OperatorDirectedRewardsSubmission","components":[{"name":"strategiesAndMultipliers","type":"tuple[]","internalType":"struct IRewardsCoordinatorTypes.StrategyAndMultiplier[]","components":[{"name":"strategy","type":"address","internalType":"contract IStrategy"},{"name":"multiplier","type":"uint96","internalType":"uint96"}]},{"name":"token","type":"address","internalType":"contract IERC20"},{"name":"operatorRewards","type":"tuple[]","internalType":"struct IRewardsCoordinatorTypes.OperatorReward[]","components":[{"name":"operator","type":"address","internalType":"address"},{"name":"amount","type":"uint256","internalType":"uint256"}]},{"name":"startTimestamp","type":"uint32","internalType":"uint32"},{"name":"duration","type":"uint32","internalType":"uint32"},{"name":"description","type":"string","internalType":"string"}]}],"anonymous":false},{"type":"event","name":"OperatorPISplitBipsSet","inputs":[{"name":"caller","type":"address","indexed":true,"internalType":"address"},{"name":"operator","type":"address","indexed":true,"internalType":"address"},{"name":"activatedAt","type":"uint32","indexed":false,"internalType":"uint32"},{"name":"oldOperatorPISplitBips","type":"uint16","indexed":false,"internalType":"uint16"},{"name":"newOperatorPISplitBips","type":"uint16","indexed":false,"internalType":"uint16"}],"anonymous":false},{"type":"event","name":"OperatorSetSplitBipsSet","inputs":[{"name":"caller","type":"address","indexed":true,"internalType":"address"},{"name":"operator","type":"address","indexed":true,"internalType":"address"},{"name":"operatorSet","type":"tuple","indexed":false,"internalType":"struct OperatorSet","components":[{"name":"avs","type":"address","internalType":"address"},{"name":"id","type":"uint32","internalType":"uint32"}]},{"name":"activatedAt","type":"uint32","indexed":false,"internalType":"uint32"},{"name":"oldOperatorSetSplitBips","type":"uint16","indexed":false,"internalType":"uint16"},{"name":"newOperatorSetSplitBips","type":"uint16","indexed":false,"internalType":"uint16"}],"anonymous":false},{"type":"event","name":"OwnershipTransferred","inputs":[{"name":"previousOwner","type":"address","indexed":true,"internalType":"address"},{"name":"newOwner","type":"address","indexed":true,"internalType":"address"}],"anonymous":false},{"type":"event","name":"Paused","inputs":[{"name":"account","type":"address","indexed":true,"internalType":"address"},{"name":"newPausedStatus","type":"uint256","indexed":false,"internalType":"uint256"}],"anonymous":false},{"type":"event","name":"RewardsClaimed","inputs":[{"name":"root","type":"bytes32","indexed":false,"internalType":"bytes32"},{"name":"earner","type":"address","indexed":true,"internalType":"address"},{"name":"claimer","type":"address","indexed":true,"internalType":"address"},{"name":"recipient","type":"address","indexed":true,"internalType":"address"},{"name":"token","type":"address","indexed":false,"internalType":"contract IERC20"},{"name":"claimedAmount","type":"uint256","indexed":false,"internalType":"uint256"}],"anonymous":false},{"type":"event","name":"RewardsForAllSubmitterSet","inputs":[{"name":"rewardsForAllSubmitter","type":"address","indexed":true,"internalType":"address"},{"name":"oldValue","type":"bool","indexed":true,"internalType":"bool"},{"name":"newValue","type":"bool","indexed":true,"internalType":"bool"}],"anonymous":false},{"type":"event","name":"RewardsSubmissionForAllCreated","inputs":[{"name":"submitter","type":"address","indexed":true,"internalType":"address"},{"name":"submissionNonce","type":"uint256","indexed":true,"internalType":"uint256"},{"name":"rewardsSubmissionHash","type":"bytes32","indexed":true,"internalType":"bytes32"},{"name":"rewardsSubmission","type":"tuple","indexed":false,"internalType":"struct IRewardsCoordinatorTypes.RewardsSubmission","components":[{"name":"strategiesAndMultipliers","type":"tuple[]","internalType":"struct IRewardsCoordinatorTypes.StrategyAndMultiplier[]","components":[{"name":"strategy","type":"address","internalType":"contract IStrategy"},{"name":"multiplier","type":"uint96","internalType":"uint96"}]},{"name":"token","type":"address","internalType":"contract IERC20"},{"name":"amount","type":"uint256","internalType":"uint256"},{"name":"startTimestamp","type":"uint32","internalType":"uint32"},{"name":"duration","type":"uint32","internalType":"uint32"}]}],"anonymous":false},{"type":"event","name":"RewardsSubmissionForAllEarnersCreated","inputs":[{"name":"tokenHopper","type":"address","indexed":true,"internalType":"address"},{"name":"submissionNonce","type":"uint256","indexed":true,"internalType":"uint256"},{"name":"rewardsSubmissionHash","type":"bytes32","indexed":true,"internalType":"bytes32"},{"name":"rewardsSubmission","type":"tuple","indexed":false,"internalType":"struct IRewardsCoordinatorTypes.RewardsSubmission","components":[{"name":"strategiesAndMultipliers","type":"tuple[]","internalType":"struct IRewardsCoordinatorTypes.StrategyAndMultiplier[]","components":[{"name":"strategy","type":"address","internalType":"contract IStrategy"},{"name":"multiplier","type":"uint96","internalType":"uint96"}]},{"name":"token","type":"address","internalType":"contract IERC20"},{"name":"amount","type":"uint256","internalType":"uint256"},{"name":"startTimestamp","type":"uint32","internalType":"uint32"},{"name":"duration","type":"uint32","internalType":"uint32"}]}],"anonymous":false},{"type":"event","name":"RewardsUpdaterSet","inputs":[{"name":"oldRewardsUpdater","type":"address","indexed":true,"internalType":"address"},{"name":"newRewardsUpdater","type":"address","indexed":true,"internalType":"address"}],"anonymous":false},{"type":"event","name":"Unpaused","inputs":[{"name":"account","type":"address","indexed":true,"internalType":"address"},{"name":"newPausedStatus","type":"uint256","indexed":false,"internalType":"uint256"}],"anonymous":false},{"type":"error","name":"AmountExceedsMax","inputs":[]},{"type":"error","name":"AmountIsZero","inputs":[]},{"type":"error","name":"CurrentlyPaused","inputs":[]},{"type":"error","name":"DurationExceedsMax","inputs":[]},{"type":"error","name":"DurationIsZero","inputs":[]},{"type":"error","name":"EarningsNotGreaterThanClaimed","inputs":[]},{"type":"error","name":"InputAddressZero","inputs":[]},{"type":"error","name":"InputArrayLengthMismatch","inputs":[]},{"type":"error","name":"InputArrayLengthZero","inputs":[]},{"type":"error","name":"InvalidAddressZero","inputs":[]},{"type":"error","name":"InvalidCalculationIntervalSecondsRemainder","inputs":[]},{"type":"error","name":"InvalidClaimProof","inputs":[]},{"type":"error","name":"InvalidDurationRemainder","inputs":[]},{"type":"error","name":"InvalidEarner","inputs":[]},{"type":"error","name":"InvalidEarnerLeafIndex","inputs":[]},{"type":"error","name":"InvalidGenesisRewardsTimestampRemainder","inputs":[]},{"type":"error","name":"InvalidNewPausedStatus","inputs":[]},{"type":"error","name":"InvalidOperatorSet","inputs":[]},{"type":"error","name":"InvalidPermissions","inputs":[]},{"type":"error","name":"InvalidProofLength","inputs":[]},{"type":"error","name":"InvalidRoot","inputs":[]},{"type":"error","name":"InvalidRootIndex","inputs":[]},{"type":"error","name":"InvalidShortString","inputs":[]},{"type":"error","name":"InvalidStartTimestampRemainder","inputs":[]},{"type":"error","name":"InvalidTokenLeafIndex","inputs":[]},{"type":"error","name":"NewRootMustBeForNewCalculatedPeriod","inputs":[]},{"type":"error","name":"OnlyPauser","inputs":[]},{"type":"error","name":"OnlyUnpauser","inputs":[]},{"type":"error","name":"OperatorsNotInAscendingOrder","inputs":[]},{"type":"error","name":"PreviousSplitPending","inputs":[]},{"type":"error","name":"RewardsEndTimestampNotElapsed","inputs":[]},{"type":"error","name":"RootAlreadyActivated","inputs":[]},{"type":"error","name":"RootDisabled","inputs":[]},{"type":"error","name":"RootNotActivated","inputs":[]},{"type":"error","name":"SplitExceedsMax","inputs":[]},{"type":"error","name":"StartTimestampTooFarInFuture","inputs":[]},{"type":"error","name":"StartTimestampTooFarInPast","inputs":[]},{"type":"error","name":"StrategiesNotInAscendingOrder","inputs":[]},{"type":"error","name":"StrategyNotWhitelisted","inputs":[]},{"type":"error","name":"StringTooLong","inputs":[{"name":"str","type":"string","internalType":"string"}]},{"type":"error","name":"SubmissionNotRetroactive","inputs":[]},{"type":"error","name":"UnauthorizedCaller","inputs":[]}],"bytecode":{"object":"0x6101e060405234610489576143d48038038061001a816104a1565b928339810190602081830312610489578051906001600160401b0382116104895701610160818303126104895760405161016081016001600160401b0381118282101761048d5760405281516001600160a01b038116810361048957815260208201516001600160a01b038116810361048957602082019081526040830151926001600160a01b038416840361048957604083019384526060810151916001600160a01b038316830361048957606084019283526080820151946001600160a01b038616860361048957608085019586526100f760a084016104c6565b60a0860190815261010a60c085016104c6565b9060c0870191825261011e60e086016104c6565b9260e0880193845261013361010087016104c6565b94610100890195865261014961012088016104c6565b6101208a0190815261014088015190976001600160401b03821161048957018b601f820112156104895780516001600160401b03811161048d57610196601f8201601f19166020016104a1565b9b818d5260208d019d602083850101116104895763ffffffff808f928f8f610140905f602089879b9a889b9a838a9c01905e85010152015260018060a01b039051169d60018060a01b039051169560018060a01b039051169660018060a01b039051169751169751169751169751169751169760018060a01b03905116801561047a5760805283156104665763ffffffff848906166104575763ffffffff620151808506166104485760a05260c05260e05261010052610120526101405261016052610180526101a052601f81511161040c57519051602082106103fc575b176101c0525f5460ff8160081c166103a75760ff8082160361036d575b604051613efc90816104d8823960805181818161089c01528181610fc201528181611245015261209a015260a051818181611a280152611ae7015260c051818181610b290152613a6e015260e051818181610587015281816117d301528181611b630152611e6301526101005181818161147d01526139e501526101205181818161174c01526139b0015261014051818181610af00152613a3001526101605181818161047901526131810152610180518181816108480152613b7001526101a051818181610df00152612d6c01526101c05181610f010152f35b60ff90811916175f557f7f26b83ff96e1f2b6a682f133852f6798a09c465da95921460cefb3847402498602060405160ff8152a15f610292565b60405162461bcd60e51b815260206004820152602760248201527f496e697469616c697a61626c653a20636f6e747261637420697320696e697469604482015266616c697a696e6760c81b6064820152608490fd5b5f198260200360031b1b16610275565b60449060405192839163305a27a960e01b8352602060048401525180918160248501528484015e5f828201840152601f01601f19168101030190fd5b63223c7b3960e11b5f5260045ffd5b630e06bd3160e01b5f5260045ffd5b634e487b7160e01b5f52601260045260245ffd5b6339b190bb60e11b5f5260045ffd5b5f80fd5b634e487b7160e01b5f52604160045260245ffd5b6040519190601f01601f191682016001600160401b0381118382101761048d57604052565b519063ffffffff821682036104895756fe60806040526004361015610011575f80fd5b5f3560e01c806218572c1461040357806304a0c502146103fe5780630ca29899146103f95780630e9a53cf146103f45780630eb38345146103ef578063131433b4146103ea578063136439dd146103e5578063149bc872146103e05780632b9f64a4146103db57806336af41fa146103d657806337838ed0146103d157806339b70e38146103cc5780633a8c0786146103c75780633ccc861d146103c25780633efe1db6146103bd5780634596021c146103b85780634657e26a146103b35780634b943960146103ae5780634d18cc35146103a957806354fd4d50146103a457806358baaa3e1461039f578063595c6a671461039a5780635ac86ab7146103955780635c975abb146103905780635e9d83481461038b57806363f6a798146103865780636d21117e14610381578063715018a61461037c5780637b8f8b0514610377578063863cb9a914610372578063865c69531461036d578063886f1195146103685780638da5cb5b146103635780639104c3191461035e5780639be3d4e4146103595780639cb9a5fa146103545780639d45c2811461034f5780639de4b35f1461034a578063a0169ddd14610345578063a50a1d9c14610340578063aebd8bae1461033b578063b3dbb0e014610336578063bb7e451f14610331578063bf21a8aa1461032c578063c46db60614610327578063ca8aa7c714610322578063dcbb03b31461031d578063de02e50314610318578063e063f81f14610313578063e810ce211461030e578063ea4d3c9b14610309578063ed71e6a214610304578063f22cef85146102ff578063f2f07ab4146102fa578063f2fde38b146102f5578063f6efbb59146102f0578063f74e8eac146102eb578063f8cd8448146102e6578063f96abf2e146102e1578063fabc1cbc146102dc578063fbf1e2c1146102d7578063fce36c7d146102d25763ff9f6cce146102cd575f80fd5b612249565b61215d565b612135565b612071565b611f97565b611f73565b611df4565b611cdc565b611c4b565b611bfd565b611aa5565b611a57565b611a13565b6119e7565b61199a565b611947565b611802565b6117be565b611770565b611730565b6116f5565b6115f7565b6115a9565b611579565b61150f565b6114a1565b611461565b611305565b6112ca565b61129c565b611274565b611230565b6111d1565b6111a4565b611187565b61112c565b6110de565b6110ba565b61105a565b61103d565b61100a565b610f97565b610f6a565b610eef565b610e9f565b610e1f565b610ddb565b610d4e565b610c0d565b610b8d565b610b58565b610b14565b610ad4565b6109b2565b610941565b610915565b61086c565b61082c565b610799565b610731565b6104ef565b61045d565b61041d565b6001600160a01b0381160361041957565b5f80fd5b346104195760203660031901126104195760043561043a81610408565b60018060a01b03165f5260d1602052602060ff60405f2054166040519015158152f35b34610419575f36600319011261041957602060405163ffffffff7f0000000000000000000000000000000000000000000000000000000000000000168152f35b604090600319011261041957600490565b604090602319011261041957602490565b9181601f84011215610419578235916001600160401b038311610419576020808501948460051b01011161041957565b34610419576060366003190112610419576105093661049d565b6044356001600160401b038111610419576105289036906004016104bf565b919061054261053c61020080606654161490565b1561234d565b61055d610558833561055381610408565b612d23565b61236d565b610565612db8565b6040516304c1b8eb60e31b8152602081806105838660048301612438565b03817f00000000000000000000000000000000000000000000000000000000000000006001600160a01b03165afa801561072c576105c8915f916106fd575b50612453565b5f5b8381106105dd576105db6001609755565b005b806106f76105ee600193878661247d565b6106136105fa87612363565b6001600160a01b03165f90815260ce6020526040902090565b549061061e87612363565b60405161064381610635858760208401968761267e565b03601f1981018352826123d2565b519020877ffff0759ccb371dfb5691798724e70b4fa61cb3bfe730a33ac19fb86a48efc7568361067281612ed7565b956106b96106ac8661069f61068688612363565b6001600160a01b03165f90815260d76020526040902090565b905f5260205260405f2090565b805460ff19166001179055565b6106c2816126b6565b6106ce6105fa86612363565b556106e06040519283923396846126df565b0390a330906106f26020339201612363565b61300c565b016105ca565b61071f915060203d602011610725575b61071781836123d2565b8101906123f3565b5f6105c2565b503d61070d565b612448565b34610419575f3660031901126104195761078b61074c6127d2565b6040519182918291909160608060808301948051845263ffffffff602082015116602085015263ffffffff604082015116604085015201511515910152565b0390f35b8015150361041957565b34610419576040366003190112610419576004356107b681610408565b602435906107c38261078f565b6107cb613055565b60018060a01b0316805f5260d160205260ff60405f205416151582151590827f4de6293e668df1398422e1def12118052c1539a03cbfedc145895d48d7685f1c5f80a45f5260d160205260405f209060ff8019835416911515161790555f80f35b34610419575f36600319011261041957602060405163ffffffff7f0000000000000000000000000000000000000000000000000000000000000000168152f35b346104195760203660031901126104195760043560405163237dfb4760e11b8152336004820152906020826024817f00000000000000000000000000000000000000000000000000000000000000006001600160a01b03165afa91821561072c576105db926108e2915f916108f6575b50612869565b6108f16066548281161461287f565b6130e1565b61090f915060203d6020116107255761071781836123d2565b5f6108dc565b346104195760403660031901126104195760206109396109343661049d565b612895565b604051908152f35b346104195760203660031901126104195760043561095e81610408565b60018060a01b03165f5260cc602052602060018060a01b0360405f205416604051908152f35b602060031982011261041957600435906001600160401b038211610419576109ae916004016104bf565b9091565b34610419576109c036610984565b906109d261053c600280606654161490565b335f5260d16020526109ea60ff60405f2054166128de565b6109f2612db8565b5f5b828110610a05576105db6001609755565b80610ace610a1660019386866128f4565b335f90815260ce60205260409020546040516020810190610a3d8161063586863387612988565b51902090610a4a83613113565b335f90815260d060205260409020610a67906106ac90849061069f565b610a70816126b6565b335f90815260ce60205260409020556040517f51088b8c89628df3a8174002c2a034d0152fce6af8415d651b2a4734bf270482339180610ab087826129ac565b0390a46040610ac160208301612363565b910135903090339061300c565b016109f4565b34610419575f36600319011261041957602060405163ffffffff7f0000000000000000000000000000000000000000000000000000000000000000168152f35b34610419575f366003190112610419576040517f00000000000000000000000000000000000000000000000000000000000000006001600160a01b03168152602090f35b34610419575f36600319011261041957602063ffffffff60cb5460a01c16604051908152f35b90816101009103126104195790565b34610419576040366003190112610419576004356001600160401b03811161041957610bc0610beb913690600401610b7e565b60243590610bcd82610408565b610bde61053c600480606654161490565b610be6612db8565b613212565b6001609755005b63ffffffff81160361041957565b3590610c0b82610bf2565b565b3461041957604036600319011261041957602435600435610c2d82610bf2565b610c3e61053c600880606654161490565b60cb5491610c56336001600160a01b038516146128de565b63ffffffff81169263ffffffff8160c01c16841115610d3f5763ffffffff7fecd866c3c158fa00bf34d803d5f6023000b57080bcb48af004c2b4b46b3afd0891610ca14287106129bd565b610d25610cce610cc6610cb960ca5463ffffffff1690565b9360a01c63ffffffff1690565b8442166129d3565b94610d00610cda612702565b88815263ffffffff8316602082015263ffffffff881660408201525f60608201526129ed565b60cb805463ffffffff60c01b191660c09290921b63ffffffff60c01b16919091179055565b60405163ffffffff9094168452169180602081015b0390a4005b631ca7e50b60e21b5f5260045ffd5b34610419576040366003190112610419576004356001600160401b03811161041957610d7e9036906004016104bf565b60243591610d8b83610408565b610d9c61053c600480606654161490565b610da4612db8565b3681900360fe1901925f5b83811015610beb578060051b830135908582121561041957610dd5836001938601613212565b01610daf565b34610419575f366003190112610419576040517f00000000000000000000000000000000000000000000000000000000000000006001600160a01b03168152602090f35b3461041957602036600319011261041957600435610e3c81610408565b60018060a01b03165f5260d560205261078b610e8a60405f2063ffffffff60405191610e6783612397565b5461ffff8116835261ffff8160101c16602084015260201c1660408201526133c7565b60405161ffff90911681529081906020820190565b34610419575f36600319011261041957602063ffffffff60cb5460c01c16604051908152f35b602060409281835280519182918282860152018484015e5f828201840152601f01601f1916010190565b34610419575f366003190112610419577f000000000000000000000000000000000000000000000000000000000000000060ff8116601f8111610f5b5761078b9160405191610f3f6040846123d2565b6020808452838101919036833783525260405191829182610ec5565b632cd44ac360e21b5f5260045ffd5b34610419576020366003190112610419576105db600435610f8a81610bf2565b610f92613055565b613451565b34610419575f3660031901126104195760405163237dfb4760e11b81523360048201526020816024817f00000000000000000000000000000000000000000000000000000000000000006001600160a01b03165afa801561072c57611002915f916108f65750612869565b6105db6130ad565b346104195760203660031901126104195760043560ff81168091036104195760016020911b806066541614604051908152f35b34610419575f366003190112610419576020606654604051908152f35b34610419576020366003190112610419576004356001600160401b0381116104195761108d6110af913690600401610b7e565b6110a96110a3823561109e81610bf2565b61275c565b50612791565b90613539565b602060405160018152f35b34610419575f36600319011261041957602061ffff60cb5460e01c16604051908152f35b34610419576040366003190112610419576004356110fb81610408565b6024359060018060a01b03165f5260cf60205260405f20905f52602052602060ff60405f2054166040519015158152f35b34610419575f36600319011261041957611144613055565b603380546001600160a01b031981169091555f906001600160a01b03167f8be0079c531659141344cd1fd0a4f28419497f9722a3daafe3b4186f6b6457e08280a3005b34610419575f36600319011261041957602060ca54604051908152f35b34610419576020366003190112610419576105db6004356111c481610408565b6111cc613055565b6136a6565b346104195760403660031901126104195760206112276004356111f381610408565b6024359061120082610408565b60018060a01b03165f5260cd835260405f209060018060a01b03165f5260205260405f2090565b54604051908152f35b34610419575f366003190112610419576040517f00000000000000000000000000000000000000000000000000000000000000006001600160a01b03168152602090f35b34610419575f366003190112610419576033546040516001600160a01b039091168152602090f35b34610419575f36600319011261041957602060405173beac0eeeeeeeeeeeeeeeeeeeeeeeeeeeeeebeac08152f35b34610419575f366003190112610419576112e2612711565b5060ca545f1981019081116113005761074c6110a361078b9261275c565b6126a2565b346104195760403660031901126104195760043561132281610408565b6024356001600160401b038111610419576113419036906004016104bf565b919061135461053c602080606654161490565b61136061055883612d23565b611368612db8565b6001600160a01b038216915f5b848110611386576105db6001609755565b8061145b611397600193888761247d565b6001600160a01b0385165f90815260ce60205260409020549060405160208101906113c88161063585878c8761267e565b519020886113d583612ed7565b936113f76106ac8461069f8c60018060a01b03165f5260d360205260405f2090565b611400816126b6565b6001600160a01b038a165f90815260ce60205260409020557ffc8888bffd711da60bc5092b33f677d81896fe80ecc677b84cfab8184462b6e06040518061144987339583612add565b0390a430906106f26020339201612363565b01611375565b34610419575f36600319011261041957602060405163ffffffff7f0000000000000000000000000000000000000000000000000000000000000000168152f35b34610419576060366003190112610419576004356114be81610408565b6114c7366104ae565b9060018060a01b03165f5260d66020526114ee6114e960405f20923690612af4565b6136ed565b5f5260205261078b610e8a60405f2063ffffffff60405191610e6783612397565b34610419576020366003190112610419576105db60043561152f81610408565b3361374c565b6024359061ffff8216820361041957565b6044359061ffff8216820361041957565b6084359061ffff8216820361041957565b6064359061ffff8216820361041957565b346104195760203660031901126104195760043561ffff81168103610419576105db906115a4613055565b6137a4565b34610419576040366003190112610419576004356115c681610408565b6024359060018060a01b03165f5260d260205260405f20905f52602052602060ff60405f2054166040519015158152f35b346104195760403660031901126104195760043561161481610408565b61161c611535565b61162d61053c608080606654161490565b61163961055883612d23565b7fd1e028bd664486a46ad26040e999cd2d22e1e9a094ee6afe19fcf64678f16f7461167563ffffffff60cb5460a01c1663ffffffff42166129d3565b9160018060a01b03841693845f5260d56020526116c984836116c46116a960405f2063ffffffff60405191610e6783612397565b6001600160a01b039095165f90815260d56020526040902090565b6137ff565b6040805163ffffffff909516855261ffff9182166020860152911690830152339180606081015b0390a3005b346104195760203660031901126104195760043561171281610408565b60018060a01b03165f5260ce602052602060405f2054604051908152f35b34610419575f36600319011261041957602060405163ffffffff7f0000000000000000000000000000000000000000000000000000000000000000168152f35b346104195760403660031901126104195760043561178d81610408565b6024359060018060a01b03165f5260d060205260405f20905f52602052602060ff60405f2054166040519015158152f35b34610419575f366003190112610419576040517f00000000000000000000000000000000000000000000000000000000000000006001600160a01b03168152602090f35b346104195760603660031901126104195760043561181f81610408565b60243561182b81610408565b611833611546565b61184461053c604080606654161490565b61185061055884612d23565b7f48e198b6ae357e529204ee53a8e514c470ff77d9cc8e4f7207f8b5d490ae693461188c63ffffffff60cb5460a01c1663ffffffff42166129d3565b9160018060a01b03851693845f5260d460205261190d84836116c4846118f86118dd6118cb8360405f209060018060a01b03165f5260205260405f2090565b63ffffffff60405191610e6783612397565b6001600160a01b03909c165f90815260d46020526040902090565b9060018060a01b03165f5260205260405f2090565b6040805163ffffffff95909516855261ffff968716602086015291909516908301526001600160a01b039093169233918060608101610d3a565b346104195760203660031901126104195761078b61074c6110a360043561196c612711565b5061275c565b60409060031901126104195760043561198a81610408565b9060243561199781610408565b90565b34610419576119d76118cb6119ae36611972565b9060018060a01b03165f5260d460205260405f209060018060a01b03165f5260205260405f2090565b60405161ffff9091168152602090f35b34610419576020366003190112610419576020611a05600435612b56565b63ffffffff60405191168152f35b34610419575f366003190112610419576040517f00000000000000000000000000000000000000000000000000000000000000006001600160a01b03168152602090f35b3461041957604036600319011261041957600435611a7481610408565b6024359060018060a01b03165f5260d360205260405f20905f52602052602060ff60405f2054166040519015158152f35b3461041957611ab336611972565b611abf61055883612d23565b6040516336b87bd760e11b81526001600160a01b0383166004820152602081806024810103817f00000000000000000000000000000000000000000000000000000000000000006001600160a01b03165afa90811561072c575f91611bde575b508015611b39575b91611b346105db93612bbb565b61374c565b5060405163ba1a84e560e01b81526001600160a01b038316600482015291602083806024810103817f00000000000000000000000000000000000000000000000000000000000000006001600160a01b03165afa92831561072c576105db93611b34915f91611baf575b50151591935050611b27565b611bd1915060203d602011611bd7575b611bc981836123d2565b810190612bac565b5f611ba3565b503d611bbf565b611bf7915060203d6020116107255761071781836123d2565b5f611b1f565b3461041957604036600319011261041957600435611c1a81610408565b6024359060018060a01b03165f5260d760205260405f20905f52602052602060ff60405f2054166040519015158152f35b3461041957602036600319011261041957600435611c6881610408565b611c70613055565b6001600160a01b03811615611c88576105db9061365e565b60405162461bcd60e51b815260206004820152602660248201527f4f776e61626c653a206e6577206f776e657220697320746865207a65726f206160448201526564647265737360d01b6064820152608490fd5b346104195760a036600319011261041957600435611cf981610408565b611d6c602435604435611d0b81610408565b60643590611d1882610bf2565b611d20611557565b925f5495611d52611d3c611d388960ff9060081c1690565b1590565b80988199611de6575b8115611dc6575b50612bd1565b86611d63600160ff195f5416175f55565b611daf57612c34565b611d7257005b611d8061ff00195f54165f55565b604051600181527f7f26b83ff96e1f2b6a682f133852f6798a09c465da95921460cefb384740249890602090a1005b611dc161010061ff00195f5416175f55565b612c34565b303b15915081611dd8575b505f611d4c565b60ff1660011490505f611dd1565b600160ff8216109150611d45565b3461041957608036600319011261041957600435611e1181610408565b611e1a366104ae565b611e22611568565b611e3461053c61010080606654161490565b611e4061055884612d23565b6040516304c1b8eb60e31b81529060208280611e5f8660048301612438565b03817f00000000000000000000000000000000000000000000000000000000000000006001600160a01b03165afa91821561072c577f14918b3834ab6752eb2e1b489b6663a67810efb5f56f3944a97ede8ecf1fd9f192611ec6915f916106fd5750612453565b60cb54611ee29060a01c63ffffffff1663ffffffff42166129d3565b936116f0611f2c611f27611f22611f098560018060a01b03165f5260d660205260405f2090565b611f166114e9368b612af4565b5f5260205260405f2090565b612a9f565b6133c7565b92611f5c87826116c4611f4f8760018060a01b03165f5260d660205260405f2090565b611f166114e9368d612af4565b60405193849360018060a01b031697339785612c52565b34610419576040366003190112610419576020610939611f923661049d565b612c83565b3461041957602036600319011261041957600435611fb481610bf2565b611fc561053c600880606654161490565b611fda60018060a01b0360cb541633146128de565b60ca549063ffffffff81169182101561206257611ff860019161275c565b500163ffffffff815461201160ff8260401c1615612cca565b60201c1642101561205357805460ff60401b1916600160401b1790557fd850e6e5dfa497b72661fa73df2923464eaed9dc2ff1d3cb82bccbfeabe5c41e5f80a2005b630c36f66560e21b5f5260045ffd5b6394a8d38960e01b5f5260045ffd5b346104195760203660031901126104195760043560405163755b36bd60e11b81526020816004817f00000000000000000000000000000000000000000000000000000000000000006001600160a01b03165afa90811561072c575f916120fa575b506001600160a01b031633036120eb576105db90612ce0565b63794821ff60e01b5f5260045ffd5b90506020813d60201161212d575b81612115602093836123d2565b81010312610419575161212781610408565b5f6120d2565b3d9150612108565b34610419575f3660031901126104195760cb546040516001600160a01b039091168152602090f35b346104195761216b36610984565b9061217d61053c600180606654161490565b612185612db8565b5f5b828110612198576105db6001609755565b806122436121a960019386866128f4565b335f90815260ce602052604090205460405160208101906121d08161063586863387612988565b519020906121dd83613113565b335f90815260cf602052604090206121fa906106ac90849061069f565b612203816126b6565b335f90815260ce60205260409020556040517f450a367a380c4e339e5ae7340c8464ef27af7781ad9945cfe8abd828f89e6281339180610ab087826129ac565b01612187565b346104195761225736610984565b9061226961053c601080606654161490565b335f5260d160205261228160ff60405f2054166128de565b612289612db8565b5f5b82811061229c576105db6001609755565b806123476122ad60019386866128f4565b335f90815260ce602052604090205460405160208101906122d48161063586863387612988565b519020906122e183613113565b335f90815260d2602052604090206122fe906106ac90849061069f565b612307816126b6565b335f90815260ce60205260409020556040517f5251b6fdefcb5d81144e735f69ea4c695fd43b0289ca53dc075033f5fc80068b339180610ab087826129ac565b0161228b565b1561235457565b63840a48d560e01b5f5260045ffd5b3561199781610408565b1561237457565b63932d94f760e01b5f5260045ffd5b634e487b7160e01b5f52604160045260245ffd5b606081019081106001600160401b038211176123b257604052565b612383565b608081019081106001600160401b038211176123b257604052565b90601f801991011681019081106001600160401b038211176123b257604052565b9081602091031261041957516119978161078f565b63ffffffff60208092803561241c81610408565b6001600160a01b03168552013561243281610bf2565b16910152565b604081019291610c0b9190612408565b6040513d5f823e3d90fd5b1561245a57565b631fb1705560e21b5f5260045ffd5b634e487b7160e01b5f52603260045260245ffd5b919081101561249f5760051b8101359060be1981360301821215610419570190565b612469565b9035601e19823603018112156104195701602081359101916001600160401b038211610419578160061b3603831361041957565b916020908281520191905f905b8082106124f25750505090565b909192833561250081610408565b6001600160a01b0316815260208401356001600160601b0381169190829003610419576040816001936020839401520194019201906124e5565b9035601e19823603018112156104195701602081359101916001600160401b03821161041957813603831361041957565b908060209392818452848401375f828201840152601f01601f1916010190565b91906125a861259a84806124a4565b60c0845260c08401916124d8565b9060208401356125b781610408565b6001600160a01b03166020828101919091526125d660408601866124a4565b838503604085015280855293909101925f5b81811061264a5750505061263c846126166126096060611997979801610c00565b63ffffffff166060850152565b61263261262560808301610c00565b63ffffffff166080850152565b60a081019061253a565b9160a081850391015261256b565b909193604080600192873561265e81610408565b848060a01b031681526020880135602082015201950191019190916125e8565b611997939260609260018060a01b031682526020820152816040820152019061258b565b634e487b7160e01b5f52601160045260245ffd5b906001820180921161130057565b906020820180921161130057565b9190820180921161130057565b61199793926126f082608094612408565b6040820152816060820152019061258b565b60405190610c0b6080836123d2565b6040519061271e826123b7565b5f6060838281528260208201528260408201520152565b8015611300575f190190565b5f1981019190821161130057565b9190820391821161130057565b60ca5481101561249f5760ca5f5260205f209060011b01905f90565b805482101561249f575f5260205f209060011b01905f90565b9060405161279e816123b7565b606060ff6001839580548552015463ffffffff8116602085015263ffffffff8160201c16604085015260401c161515910152565b6127da612711565b5060ca54805b61280557506127ed612702565b5f81525f60208201525f60408201525f606082015290565b6128146110a361109e83612741565b90612825611d386060840151151590565b80612843575b61283f576128399150612735565b806127e0565b5090565b50612861612858604084015163ffffffff1690565b63ffffffff1690565b42101561282b565b1561287057565b631d77d47760e21b5f5260045ffd5b1561288657565b63c61dca5d60e01b5f5260045ffd5b60208135916128a383610408565b01356040519060208201925f84526001600160601b03199060601b1660218301526035820152603581526128d86055826123d2565b51902090565b156128e557565b635c427cd960e01b5f5260045ffd5b919081101561249f5760051b81013590609e1981360301821215610419570190565b90608063ffffffff8161293a61292c86806124a4565b60a0875260a08701916124d8565b94602081013561294981610408565b6001600160a01b031660208601526040818101359086015282606082013561297081610bf2565b166060860152013561298181610bf2565b1691015290565b611997939260609260018060a01b0316825260208201528160408201520190612916565b906020611997928181520190612916565b156129c457565b6306957c9160e11b5f5260045ffd5b9063ffffffff8091169116019063ffffffff821161130057565b60ca54600160401b8110156123b257806001612a0e920160ca5560ca612778565b919091612a8c5760606001610c0b9383518155019163ffffffff60208201511663ffffffff19845416178355612a6b63ffffffff604083015116849067ffffffff0000000082549160201b169067ffffffff000000001916179055565b0151815460ff60401b191690151560401b68ff000000000000000016179055565b634e487b7160e01b5f525f60045260245ffd5b90604051612aac81612397565b604063ffffffff82945461ffff8116845261ffff8160101c16602085015260201c16910152565b3561199781610bf2565b60409061199793928152816020820152019061258b565b919082604091031261041957604051604081018181106001600160401b038211176123b25760405260208082948035612b2c81610408565b8452013591612b3a83610bf2565b0152565b63ffffffff5f199116019063ffffffff821161130057565b63ffffffff60ca54165b63ffffffff8116612b7a5763504570e360e01b5f5260045ffd5b81612b8761109e83612b3e565b505414612ba25763ffffffff168015611300575f1901612b60565b6119979150612b3e565b90816020910312610419575190565b15612bc257565b63fb494ea160e01b5f5260045ffd5b15612bd857565b60405162461bcd60e51b815260206004820152602e60248201527f496e697469616c697a61626c653a20636f6e747261637420697320616c72656160448201526d191e481a5b9a5d1a585b1a5e995960921b6064820152608490fd5b6115a4926111cc610f9292612c4d610c0b9897956130e1565b61365e565b929361ffff8092969563ffffffff608095612c718860a081019b612408565b16604087015216606085015216910152565b6020813591612c9183610408565b0135604051906020820192600160f81b84526001600160601b03199060601b1660218301526035820152603581526128d86055826123d2565b15612cd157565b631b14174b60e01b5f5260045ffd5b612cf160665419821981161461287f565b806066556040519081527f3582d1828e26bf56bd801502bc021ac0bc8afb57c826e4986b45593c8fad389c60203392a2565b604051631beb2b9760e31b81526001600160a01b0391821660048201523360248201523060448201525f80356001600160e01b03191660648301529091602091839160849183917f0000000000000000000000000000000000000000000000000000000000000000165af190811561072c575f91612d9f575090565b611997915060203d6020116107255761071781836123d2565b600260975414612dc9576002609755565b60405162461bcd60e51b815260206004820152601f60248201527f5265656e7472616e637947756172643a207265656e7472616e742063616c6c006044820152606490fd5b903590601e198136030182121561041957018035906001600160401b03821161041957602001918160061b3603831361041957565b15612e4a57565b63796cc52560e01b5f5260045ffd5b15612e6057565b63150358a160e21b5f5260045ffd5b919081101561249f5760061b0190565b15612e8657565b630863a45360e11b5f5260045ffd5b15612e9c57565b6310fb47f160e31b5f5260045ffd5b15612eb257565b6310eb483f60e21b5f5260045ffd5b15612ec857565b63070b5a6f60e21b5f5260045ffd5b90612f4291612f50612ee98280612e0e565b606084019591612f1090612efc88612ad3565b6080870193612f0a85612ad3565b92613981565b612f3c612f366040860197612f31612f288a89612e0e565b90501515612e43565b612ad3565b91612ad3565b906129d3565b63ffffffff42911610612e59565b5f928391825b612f608383612e0e565b9050841015612feb57612fe2600191612fc3612f8687612f808888612e0e565b90612e6f565b91612fa9612fa2612f9685612363565b6001600160a01b031690565b1515612e7f565b612fb5612f9684612363565b90858060a01b031610612e95565b612fdc602082013591612fd7831515612eab565b612363565b976126d2565b93019294612f56565b50505050906119976f4b3b4ca85a86c47a098a223fffffffff821115612ec1565b6040516323b872dd60e01b60208201526001600160a01b039283166024820152929091166044830152606480830193909352918152610c0b916130506084836123d2565b613bf7565b6033546001600160a01b0316330361306957565b606460405162461bcd60e51b815260206004820152602060248201527f4f776e61626c653a2063616c6c6572206973206e6f7420746865206f776e65726044820152fd5b5f196066556040515f1981527fab40a374bc51de372200a8bc981af8c9ecdc08dfdaef0bb6e09f88f3c616ef3d60203392a2565b806066556040519081527fab40a374bc51de372200a8bc981af8c9ecdc08dfdaef0bb6e09f88f3c616ef3d60203392a2565b6131716f4b3b4ca85a86c47a098a223fffffffff604061315d936131378180612e0e565b95906060830135809761314982610bf2565b60808501359261315884610bf2565b613981565b013561316a811515612eab565b1115612ec1565b61317a81610bf2565b63ffffffff7f0000000000000000000000000000000000000000000000000000000000000000164201908142116113005763ffffffff16116131b857565b637ee2b44360e01b5f5260045ffd5b903590601e198136030182121561041957018035906001600160401b03821161041957602001918160051b3603831361041957565b1561320357565b63aa385e8160e01b5f5260045ffd5b906132226110a361109e84612ad3565b9061322d8284613539565b61323960608401612363565b936132646132578660018060a01b03165f5260cc60205260405f2090565b546001600160a01b031690565b6001600160a01b038116156133c0575b90936001600160a01b039091169161328d3384146128de565b6001600160a01b038616915f5b6132a760a08301836131c7565b90508110156133b657806132c4600192612f8060e0860186612e0e565b86867f9543dbd55580842586a951f0386e24d68a5df99ae29e3b216588b45fd684ce318c6133226133058260018060a01b03165f5260cd60205260405f2090565b61330e87612363565b60018060a01b03165f5260205260405f2090565b5461336761335e61334360208901359361333d8186116131fc565b8461274f565b6001600160a01b039094165f90815260cd6020526040902090565b61330e88612363565b5561337b818a61337688612363565b613caf565b6133868c5195612363565b604080519687526001600160a01b0391909116602087015285015260a086901b869003881693606090a40161329a565b5050505050509050565b5084613274565b604081015163ffffffff168015801561340e575b156133ef57505060cb5460e01c61ffff1690565b63ffffffff164210613406576020015161ffff1690565b5161ffff1690565b5061ffff8061341f845161ffff1690565b161480156133db575063ffffffff811642106133db565b6001600160401b0381116123b257601f01601f191660200190565b60cb54907faf557c6c02c208794817a705609cfa935f827312a1adfdd26494b6b95dd2b4b36040805163ffffffff8560a01c16815263ffffffff84166020820152a163ffffffff60a01b1990911660a09190911b63ffffffff60a01b161760cb55565b156134bb57565b631437a2bb60e31b5f5260045ffd5b156134d157565b6343714afd60e01b5f5260045ffd5b903590601e198136030182121561041957018035906001600160401b0382116104195760200191813603831361041957565b919081101561249f5760051b0190565b9082101561249f576109ae9160051b8101906134e0565b91909161355461354f611d386060860151151590565b612cca565b61357361356b612858604086015163ffffffff1690565b4210156134b4565b60a081019061358282826131c7565b905061359f60c083019161359683856131c7565b919050146134ca565b6135e66135ac82846131c7565b9690506135c160e08501976135968987612e0e565b516135ce60208501612ad3565b6135db60408601866134e0565b916060870193613d36565b6080820135925f5b6135f882856131c7565b9050811015613655578061364f85612f808a6136488561363f816136398c8f612f3160019d8f61362d9061363394508d6131c7565b90613512565b986131c7565b90613522565b9490938c612e0e565b928a613d81565b016135ee565b50505050509050565b603380546001600160a01b039283166001600160a01b0319821681179092559091167f8be0079c531659141344cd1fd0a4f28419497f9722a3daafe3b4186f6b6457e05f80a3565b60cb546001600160a01b0391821691829082167f237b82f438d75fc568ebab484b75b01d9287b9e98b490b7c23221623b6705dbb5f80a36001600160a01b0319161760cb55565b602081519101516040519060208201926001600160601b03199060601b16835263ffffffff60a01b9060a01b1660348201526020815261372e6040826123d2565b519051906020811061373e575090565b5f199060200360031b1b1690565b6001600160a01b039081165f81815260cc6020526040812080546001600160a01b03198116958516958617909155909216917fbab947934d42e0ad206f25c9cab18b5bb6ae144acfb00f40b4e3aa59590ca3129080a4565b60cb54907fe6cd4edfdcc1f6d130ab35f73d72378f3a642944fb4ee5bd84b7807a81ea1c4e6040805161ffff8560e01c16815261ffff84166020820152a161ffff60e01b1990911660e09190911b61ffff60e01b161760cb55565b91909161271061ffff8416116138ac57805463ffffffff8160201c1642111561389d57610c0b9361386291602081901c63ffffffff166138845750825461ffff191661ffff1783555b825463ffff0000191660109190911b63ffff000016178255565b9067ffffffff0000000082549160201b169067ffffffff000000001916179055565b835461ffff191660109190911c61ffff16178355613848565b637b1e25c560e01b5f5260045ffd5b63891c63df60e01b5f5260045ffd5b156138c257565b630dd0b9f560e21b5f5260045ffd5b9063ffffffff169081156138e95763ffffffff160690565b634e487b7160e01b5f52601260045260245ffd5b1561390457565b63ee66470560e01b5f5260045ffd5b1561391a57565b63cb3f434d60e01b5f5260045ffd5b1561393057565b633c1a94f160e21b5f5260045ffd5b1561394657565b63041aa75760e11b5f5260045ffd5b1561395c57565b632efd965160e11b5f5260045ffd5b1561397257565b63dfad9ca160e01b5f5260045ffd5b9291613a25613a1f612858613a6c949561399c871515612e43565b613a1963ffffffff82166139d863ffffffff7f0000000000000000000000000000000000000000000000000000000000000000168211156138bb565b613a1263ffffffff613a0b7f000000000000000000000000000000000000000000000000000000000000000080966138d1565b16156138fd565b1515613913565b846138d1565b15613929565b63ffffffff613a56817f0000000000000000000000000000000000000000000000000000000000000000164261274f565b9116809111159081613b67575b5092919261393f565b7f00000000000000000000000000000000000000000000000000000000000000006001600160a01b0316915f90815b818310613aa9575050505050565b613ab7612fd7848487612e6f565b60405163198f077960e21b81526001600160a01b03821660048201529091906020816024818a5afa92831561072c57600193613b1b925f91613b49575b508015613b23575b613b0590613955565b838060a01b03168092848060a01b03161061396b565b920191613a9b565b5060a084901b849003811673beac0eeeeeeeeeeeeeeeeeeeeeeeeeeeeeebeac014613afc565b613b61915060203d81116107255761071781836123d2565b5f613af4565b905063ffffffff7f00000000000000000000000000000000000000000000000000000000000000001611155f613a63565b15613b9f57565b60405162461bcd60e51b815260206004820152602a60248201527f5361666545524332303a204552433230206f7065726174696f6e20646964206e6044820152691bdd081cdd58d8d9595960b21b6064820152608490fd5b610c0b91613c799160018060a01b03165f8060405193613c186040866123d2565b602085527f5361666545524332303a206c6f772d6c6576656c2063616c6c206661696c6564602086015260208151910182855af13d15613ca7573d91613c5d83613436565b92613c6b60405194856123d2565b83523d5f602085013e613e31565b8051908115918215613c8d575b5050613b98565b613ca092506020809183010191016123f3565b5f80613c86565b606091613e31565b60405163a9059cbb60e01b60208201526001600160a01b039092166024830152604480830193909352918152610c0b916130506064836123d2565b929192613cf682613436565b91613d0460405193846123d2565b829481845281830111610419578281602093845f960137010152565b15613d2757565b6369ca16c960e01b5f5260045ffd5b91929063ffffffff169160018260051c1b831015613d7357613d69613d6e94613d61610c0b97612895565b933691613cea565b613dbb565b613d20565b62c6c39d60e71b5f5260045ffd5b91929063ffffffff169160018260051c1b831015613dac57613d69613d6e94613d61610c0b97612c83565b63054ff4df60e51b5f5260045ffd5b93909291601f855116613e225791906020925b85518411613e195760018316613dff575f5282850151602052613df860405f209260011c936126c4565b9291613dce565b838601515f52602052613df860405f209260011c936126c4565b92509350501490565b6313717da960e21b5f5260045ffd5b91929015613e935750815115613e45575090565b3b15613e4e5790565b60405162461bcd60e51b815260206004820152601d60248201527f416464726573733a2063616c6c20746f206e6f6e2d636f6e74726163740000006044820152606490fd5b825190915015613ea65750805190602001fd5b60405162461bcd60e51b8152908190613ec29060048301610ec5565b0390fdfea2646970667358221220e2062486725ed1d5cdfbe09f5960c869117bc1158ff35ba74b705479e0f3084b64736f6c634300081b0033","linkReferences":{}},"methodIdentifiers":{"CALCULATION_INTERVAL_SECONDS()":"9d45c281","GENESIS_REWARDS_TIMESTAMP()":"131433b4","MAX_FUTURE_LENGTH()":"04a0c502","MAX_RETROACTIVE_LENGTH()":"37838ed0","MAX_REWARDS_DURATION()":"bf21a8aa","activationDelay()":"3a8c0786","allocationManager()":"ca8aa7c7","beaconChainETHStrategy()":"9104c319","calculateEarnerLeafHash((address,bytes32))":"149bc872","calculateTokenLeafHash((address,uint256))":"f8cd8448","checkClaim((uint32,uint32,bytes,(address,bytes32),uint32[],bytes[],(address,uint256)[]))":"5e9d8348","claimerFor(address)":"2b9f64a4","createAVSRewardsSubmission(((address,uint96)[],address,uint256,uint32,uint32)[])":"fce36c7d","createOperatorDirectedAVSRewardsSubmission(address,((address,uint96)[],address,(address,uint256)[],uint32,uint32,string)[])":"9cb9a5fa","createOperatorDirectedOperatorSetRewardsSubmission((address,uint32),((address,uint96)[],address,(address,uint256)[],uint32,uint32,string)[])":"0ca29899","createRewardsForAllEarners(((address,uint96)[],address,uint256,uint32,uint32)[])":"ff9f6cce","createRewardsForAllSubmission(((address,uint96)[],address,uint256,uint32,uint32)[])":"36af41fa","cumulativeClaimed(address,address)":"865c6953","currRewardsCalculationEndTimestamp()":"4d18cc35","defaultOperatorSplitBips()":"63f6a798","delegationManager()":"ea4d3c9b","disableRoot(uint32)":"f96abf2e","getCurrentClaimableDistributionRoot()":"0e9a53cf","getCurrentDistributionRoot()":"9be3d4e4","getDistributionRootAtIndex(uint256)":"de02e503","getDistributionRootsLength()":"7b8f8b05","getOperatorAVSSplit(address,address)":"e063f81f","getOperatorPISplit(address)":"4b943960","getOperatorSetSplit(address,(address,uint32))":"9de4b35f","getRootIndexFromHash(bytes32)":"e810ce21","initialize(address,uint256,address,uint32,uint16)":"f6efbb59","isAVSRewardsSubmissionHash(address,bytes32)":"6d21117e","isOperatorDirectedAVSRewardsSubmissionHash(address,bytes32)":"ed71e6a2","isOperatorDirectedOperatorSetRewardsSubmissionHash(address,bytes32)":"f2f07ab4","isRewardsForAllSubmitter(address)":"0018572c","isRewardsSubmissionForAllEarnersHash(address,bytes32)":"aebd8bae","isRewardsSubmissionForAllHash(address,bytes32)":"c46db606","owner()":"8da5cb5b","pause(uint256)":"136439dd","pauseAll()":"595c6a67","paused()":"5c975abb","paused(uint8)":"5ac86ab7","pauserRegistry()":"886f1195","permissionController()":"4657e26a","processClaim((uint32,uint32,bytes,(address,bytes32),uint32[],bytes[],(address,uint256)[]),address)":"3ccc861d","processClaims((uint32,uint32,bytes,(address,bytes32),uint32[],bytes[],(address,uint256)[])[],address)":"4596021c","renounceOwnership()":"715018a6","rewardsUpdater()":"fbf1e2c1","setActivationDelay(uint32)":"58baaa3e","setClaimerFor(address)":"a0169ddd","setClaimerFor(address,address)":"f22cef85","setDefaultOperatorSplit(uint16)":"a50a1d9c","setOperatorAVSSplit(address,address,uint16)":"dcbb03b3","setOperatorPISplit(address,uint16)":"b3dbb0e0","setOperatorSetSplit(address,(address,uint32),uint16)":"f74e8eac","setRewardsForAllSubmitter(address,bool)":"0eb38345","setRewardsUpdater(address)":"863cb9a9","strategyManager()":"39b70e38","submissionNonce(address)":"bb7e451f","submitRoot(bytes32,uint32)":"3efe1db6","transferOwnership(address)":"f2fde38b","unpause(uint256)":"fabc1cbc","version()":"54fd4d50"},"id":6}