{"abi":[{"type":"constructor","inputs":[{"name":"_slashingRegistryCoordinator","type":"address","internalType":"contract ISlashingRegistryCoordinator"},{"name":"_delegationManager","type":"address","internalType":"contract IDelegationManager"},{"name":"_avsDirectory","type":"address","internalType":"contract IAVSDirectory"},{"name":"_allocationManager","type":"address","internalType":"contract IAllocationManager"}],"stateMutability":"nonpayable"},{"type":"function","name":"MAX_WEIGHING_FUNCTION_LENGTH","inputs":[],"outputs":[{"name":"","type":"uint8","internalType":"uint8"}],"stateMutability":"view"},{"type":"function","name":"WEIGHTING_DIVISOR","inputs":[],"outputs":[{"name":"","type":"uint256","internalType":"uint256"}],"stateMutability":"view"},{"type":"function","name":"addStrategies","inputs":[{"name":"quorumNumber","type":"uint8","internalType":"uint8"},{"name":"_strategyParams","type":"tuple[]","internalType":"struct IStakeRegistryTypes.StrategyParams[]","components":[{"name":"strategy","type":"address","internalType":"contract IStrategy"},{"name":"multiplier","type":"uint96","internalType":"uint96"}]}],"outputs":[],"stateMutability":"nonpayable"},{"type":"function","name":"allocationManager","inputs":[],"outputs":[{"name":"","type":"address","internalType":"contract IAllocationManager"}],"stateMutability":"view"},{"type":"function","name":"avsDirectory","inputs":[],"outputs":[{"name":"","type":"address","internalType":"contract IAVSDirectory"}],"stateMutability":"view"},{"type":"function","name":"delegation","inputs":[],"outputs":[{"name":"","type":"address","internalType":"contract IDelegationManager"}],"stateMutability":"view"},{"type":"function","name":"deregisterOperator","inputs":[{"name":"operatorId","type":"bytes32","internalType":"bytes32"},{"name":"quorumNumbers","type":"bytes","internalType":"bytes"}],"outputs":[],"stateMutability":"nonpayable"},{"type":"function","name":"getCurrentStake","inputs":[{"name":"operatorId","type":"bytes32","internalType":"bytes32"},{"name":"quorumNumber","type":"uint8","internalType":"uint8"}],"outputs":[{"name":"","type":"uint96","internalType":"uint96"}],"stateMutability":"view"},{"type":"function","name":"getCurrentTotalStake","inputs":[{"name":"quorumNumber","type":"uint8","internalType":"uint8"}],"outputs":[{"name":"","type":"uint96","internalType":"uint96"}],"stateMutability":"view"},{"type":"function","name":"getLatestStakeUpdate","inputs":[{"name":"operatorId","type":"bytes32","internalType":"bytes32"},{"name":"quorumNumber","type":"uint8","internalType":"uint8"}],"outputs":[{"name":"","type":"tuple","internalType":"struct IStakeRegistryTypes.StakeUpdate","components":[{"name":"updateBlockNumber","type":"uint32","internalType":"uint32"},{"name":"nextUpdateBlockNumber","type":"uint32","internalType":"uint32"},{"name":"stake","type":"uint96","internalType":"uint96"}]}],"stateMutability":"view"},{"type":"function","name":"getStakeAtBlockNumber","inputs":[{"name":"operatorId","type":"bytes32","internalType":"bytes32"},{"name":"quorumNumber","type":"uint8","internalType":"uint8"},{"name":"blockNumber","type":"uint32","internalType":"uint32"}],"outputs":[{"name":"","type":"uint96","internalType":"uint96"}],"stateMutability":"view"},{"type":"function","name":"getStakeAtBlockNumberAndIndex","inputs":[{"name":"quorumNumber","type":"uint8","internalType":"uint8"},{"name":"blockNumber","type":"uint32","internalType":"uint32"},{"name":"operatorId","type":"bytes32","internalType":"bytes32"},{"name":"index","type":"uint256","internalType":"uint256"}],"outputs":[{"name":"","type":"uint96","internalType":"uint96"}],"stateMutability":"view"},{"type":"function","name":"getStakeHistory","inputs":[{"name":"operatorId","type":"bytes32","internalType":"bytes32"},{"name":"quorumNumber","type":"uint8","internalType":"uint8"}],"outputs":[{"name":"","type":"tuple[]","internalType":"struct IStakeRegistryTypes.StakeUpdate[]","components":[{"name":"updateBlockNumber","type":"uint32","internalType":"uint32"},{"name":"nextUpdateBlockNumber","type":"uint32","internalType":"uint32"},{"name":"stake","type":"uint96","internalType":"uint96"}]}],"stateMutability":"view"},{"type":"function","name":"getStakeHistoryLength","inputs":[{"name":"operatorId","type":"bytes32","internalType":"bytes32"},{"name":"quorumNumber","type":"uint8","internalType":"uint8"}],"outputs":[{"name":"","type":"uint256","internalType":"uint256"}],"stateMutability":"view"},{"type":"function","name":"getStakeUpdateAtIndex","inputs":[{"name":"quorumNumber","type":"uint8","internalType":"uint8"},{"name":"operatorId","type":"bytes32","internalType":"bytes32"},{"name":"index","type":"uint256","internalType":"uint256"}],"outputs":[{"name":"","type":"tuple","internalType":"struct IStakeRegistryTypes.StakeUpdate","components":[{"name":"updateBlockNumber","type":"uint32","internalType":"uint32"},{"name":"nextUpdateBlockNumber","type":"uint32","internalType":"uint32"},{"name":"stake","type":"uint96","internalType":"uint96"}]}],"stateMutability":"view"},{"type":"function","name":"getStakeUpdateIndexAtBlockNumber","inputs":[{"name":"operatorId","type":"bytes32","internalType":"bytes32"},{"name":"quorumNumber","type":"uint8","internalType":"uint8"},{"name":"blockNumber","type":"uint32","internalType":"uint32"}],"outputs":[{"name":"","type":"uint32","internalType":"uint32"}],"stateMutability":"view"},{"type":"function","name":"getTotalStakeAtBlockNumberFromIndex","inputs":[{"name":"quorumNumber","type":"uint8","internalType":"uint8"},{"name":"blockNumber","type":"uint32","internalType":"uint32"},{"name":"index","type":"uint256","internalType":"uint256"}],"outputs":[{"name":"","type":"uint96","internalType":"uint96"}],"stateMutability":"view"},{"type":"function","name":"getTotalStakeHistoryLength","inputs":[{"name":"quorumNumber","type":"uint8","internalType":"uint8"}],"outputs":[{"name":"","type":"uint256","internalType":"uint256"}],"stateMutability":"view"},{"type":"function","name":"getTotalStakeIndicesAtBlockNumber","inputs":[{"name":"blockNumber","type":"uint32","internalType":"uint32"},{"name":"quorumNumbers","type":"bytes","internalType":"bytes"}],"outputs":[{"name":"","type":"uint32[]","internalType":"uint32[]"}],"stateMutability":"view"},{"type":"function","name":"getTotalStakeUpdateAtIndex","inputs":[{"name":"quorumNumber","type":"uint8","internalType":"uint8"},{"name":"index","type":"uint256","internalType":"uint256"}],"outputs":[{"name":"","type":"tuple","internalType":"struct IStakeRegistryTypes.StakeUpdate","components":[{"name":"updateBlockNumber","type":"uint32","internalType":"uint32"},{"name":"nextUpdateBlockNumber","type":"uint32","internalType":"uint32"},{"name":"stake","type":"uint96","internalType":"uint96"}]}],"stateMutability":"view"},{"type":"function","name":"initializeDelegatedStakeQuorum","inputs":[{"name":"quorumNumber","type":"uint8","internalType":"uint8"},{"name":"minimumStake","type":"uint96","internalType":"uint96"},{"name":"_strategyParams","type":"tuple[]","internalType":"struct IStakeRegistryTypes.StrategyParams[]","components":[{"name":"strategy","type":"address","internalType":"contract IStrategy"},{"name":"multiplier","type":"uint96","internalType":"uint96"}]}],"outputs":[],"stateMutability":"nonpayable"},{"type":"function","name":"initializeSlashableStakeQuorum","inputs":[{"name":"quorumNumber","type":"uint8","internalType":"uint8"},{"name":"minimumStake","type":"uint96","internalType":"uint96"},{"name":"lookAheadPeriod","type":"uint32","internalType":"uint32"},{"name":"_strategyParams","type":"tuple[]","internalType":"struct IStakeRegistryTypes.StrategyParams[]","components":[{"name":"strategy","type":"address","internalType":"contract IStrategy"},{"name":"multiplier","type":"uint96","internalType":"uint96"}]}],"outputs":[],"stateMutability":"nonpayable"},{"type":"function","name":"minimumStakeForQuorum","inputs":[{"name":"","type":"uint8","internalType":"uint8"}],"outputs":[{"name":"","type":"uint96","internalType":"uint96"}],"stateMutability":"view"},{"type":"function","name":"modifyStrategyParams","inputs":[{"name":"quorumNumber","type":"uint8","internalType":"uint8"},{"name":"strategyIndices","type":"uint256[]","internalType":"uint256[]"},{"name":"newMultipliers","type":"uint96[]","internalType":"uint96[]"}],"outputs":[],"stateMutability":"nonpayable"},{"type":"function","name":"registerOperator","inputs":[{"name":"operator","type":"address","internalType":"address"},{"name":"operatorId","type":"bytes32","internalType":"bytes32"},{"name":"quorumNumbers","type":"bytes","internalType":"bytes"}],"outputs":[{"name":"","type":"uint96[]","internalType":"uint96[]"},{"name":"","type":"uint96[]","internalType":"uint96[]"}],"stateMutability":"nonpayable"},{"type":"function","name":"registryCoordinator","inputs":[],"outputs":[{"name":"","type":"address","internalType":"contract ISlashingRegistryCoordinator"}],"stateMutability":"view"},{"type":"function","name":"removeStrategies","inputs":[{"name":"quorumNumber","type":"uint8","internalType":"uint8"},{"name":"indicesToRemove","type":"uint256[]","internalType":"uint256[]"}],"outputs":[],"stateMutability":"nonpayable"},{"type":"function","name":"setMinimumStakeForQuorum","inputs":[{"name":"quorumNumber","type":"uint8","internalType":"uint8"},{"name":"minimumStake","type":"uint96","internalType":"uint96"}],"outputs":[],"stateMutability":"nonpayable"},{"type":"function","name":"setSlashableStakeLookahead","inputs":[{"name":"quorumNumber","type":"uint8","internalType":"uint8"},{"name":"_lookAheadBlocks","type":"uint32","internalType":"uint32"}],"outputs":[],"stateMutability":"nonpayable"},{"type":"function","name":"slashableStakeLookAheadPerQuorum","inputs":[{"name":"quorumNumber","type":"uint8","internalType":"uint8"}],"outputs":[{"name":"","type":"uint32","internalType":"uint32"}],"stateMutability":"view"},{"type":"function","name":"stakeTypePerQuorum","inputs":[{"name":"quorumNumber","type":"uint8","internalType":"uint8"}],"outputs":[{"name":"","type":"uint8","internalType":"enum IStakeRegistryTypes.StakeType"}],"stateMutability":"view"},{"type":"function","name":"strategiesPerQuorum","inputs":[{"name":"quorumNumber","type":"uint8","internalType":"uint8"},{"name":"","type":"uint256","internalType":"uint256"}],"outputs":[{"name":"","type":"address","internalType":"contract IStrategy"}],"stateMutability":"view"},{"type":"function","name":"strategyParams","inputs":[{"name":"quorumNumber","type":"uint8","internalType":"uint8"},{"name":"","type":"uint256","internalType":"uint256"}],"outputs":[{"name":"strategy","type":"address","internalType":"contract IStrategy"},{"name":"multiplier","type":"uint96","internalType":"uint96"}],"stateMutability":"view"},{"type":"function","name":"strategyParamsByIndex","inputs":[{"name":"quorumNumber","type":"uint8","internalType":"uint8"},{"name":"index","type":"uint256","internalType":"uint256"}],"outputs":[{"name":"","type":"tuple","internalType":"struct IStakeRegistryTypes.StrategyParams","components":[{"name":"strategy","type":"address","internalType":"contract IStrategy"},{"name":"multiplier","type":"uint96","internalType":"uint96"}]}],"stateMutability":"view"},{"type":"function","name":"strategyParamsLength","inputs":[{"name":"quorumNumber","type":"uint8","internalType":"uint8"}],"outputs":[{"name":"","type":"uint256","internalType":"uint256"}],"stateMutability":"view"},{"type":"function","name":"updateOperatorsStake","inputs":[{"name":"operators","type":"address[]","internalType":"address[]"},{"name":"operatorIds","type":"bytes32[]","internalType":"bytes32[]"},{"name":"quorumNumber","type":"uint8","internalType":"uint8"}],"outputs":[{"name":"","type":"bool[]","internalType":"bool[]"}],"stateMutability":"nonpayable"},{"type":"function","name":"weightOfOperatorForQuorum","inputs":[{"name":"quorumNumber","type":"uint8","internalType":"uint8"},{"name":"operator","type":"address","internalType":"address"}],"outputs":[{"name":"","type":"uint96","internalType":"uint96"}],"stateMutability":"view"},{"type":"event","name":"LookAheadPeriodChanged","inputs":[{"name":"oldLookAheadBlocks","type":"uint32","indexed":false,"internalType":"uint32"},{"name":"newLookAheadBlocks","type":"uint32","indexed":false,"internalType":"uint32"}],"anonymous":false},{"type":"event","name":"MinimumStakeForQuorumUpdated","inputs":[{"name":"quorumNumber","type":"uint8","indexed":true,"internalType":"uint8"},{"name":"minimumStake","type":"uint96","indexed":false,"internalType":"uint96"}],"anonymous":false},{"type":"event","name":"OperatorStakeUpdate","inputs":[{"name":"operatorId","type":"bytes32","indexed":true,"internalType":"bytes32"},{"name":"quorumNumber","type":"uint8","indexed":false,"internalType":"uint8"},{"name":"stake","type":"uint96","indexed":false,"internalType":"uint96"}],"anonymous":false},{"type":"event","name":"QuorumCreated","inputs":[{"name":"quorumNumber","type":"uint8","indexed":true,"internalType":"uint8"}],"anonymous":false},{"type":"event","name":"StakeTypeSet","inputs":[{"name":"newStakeType","type":"uint8","indexed":false,"internalType":"enum IStakeRegistryTypes.StakeType"}],"anonymous":false},{"type":"event","name":"StrategyAddedToQuorum","inputs":[{"name":"quorumNumber","type":"uint8","indexed":true,"internalType":"uint8"},{"name":"strategy","type":"address","indexed":false,"internalType":"contract IStrategy"}],"anonymous":false},{"type":"event","name":"StrategyMultiplierUpdated","inputs":[{"name":"quorumNumber","type":"uint8","indexed":true,"internalType":"uint8"},{"name":"strategy","type":"address","indexed":false,"internalType":"contract IStrategy"},{"name":"multiplier","type":"uint256","indexed":false,"internalType":"uint256"}],"anonymous":false},{"type":"event","name":"StrategyRemovedFromQuorum","inputs":[{"name":"quorumNumber","type":"uint8","indexed":true,"internalType":"uint8"},{"name":"strategy","type":"address","indexed":false,"internalType":"contract IStrategy"}],"anonymous":false},{"type":"error","name":"BelowMinimumStakeRequirement","inputs":[]},{"type":"error","name":"EmptyStakeHistory","inputs":[]},{"type":"error","name":"InputArrayLengthMismatch","inputs":[]},{"type":"error","name":"InputArrayLengthZero","inputs":[]},{"type":"error","name":"InputDuplicateStrategy","inputs":[]},{"type":"error","name":"InputMultiplierZero","inputs":[]},{"type":"error","name":"InvalidBlockNumber","inputs":[]},{"type":"error","name":"OnlySlashingRegistryCoordinator","inputs":[]},{"type":"error","name":"OnlySlashingRegistryCoordinatorOwner","inputs":[]},{"type":"error","name":"QuorumAlreadyExists","inputs":[]},{"type":"error","name":"QuorumDoesNotExist","inputs":[]},{"type":"error","name":"QuorumNotSlashable","inputs":[]}],"bytecode":{"object":"0x610100604052348015610010575f5ffd5b50604051613d75380380613d7583398101604081905261002f91610068565b6001600160a01b0393841660e052918316608052821660a0521660c0526100c4565b6001600160a01b0381168114610065575f5ffd5b50565b5f5f5f5f6080858703121561007b575f5ffd5b845161008681610051565b602086015190945061009781610051565b60408601519093506100a881610051565b60608601519092506100b981610051565b939692955090935050565b60805160a05160c05160e051613c316101445f395f818161041201528181610e590152818161166501528181611d5f01528181611e1b0152612ce701525f81816105ba01528181610f0701528181610f9701528181611713015281816118420152612cad01525f6103b301525f818161061a01526123eb0152613c315ff3fe608060405234801561000f575f5ffd5b506004361061021e575f3560e01c80639ab4d6ff1161012a578063c8294c56116100b4578063df5cf72311610079578063df5cf72314610615578063e086adb31461063c578063f2be94ae1461064f578063f851e19814610662578063fa28c62714610675575f5ffd5b8063c8294c56146105a2578063ca8aa7c7146105b5578063cc5a7c20146105dc578063d5eccc05146105ef578063dd9846b914610602575f5ffd5b8063b6904b78116100fa578063b6904b781461052e578063bc9a40c314610541578063bd29b8cd14610554578063c46778a514610567578063c601527d1461058f575f5ffd5b80639ab4d6ff146104815780639f3ccf65146104bb578063ac6bfb03146104ce578063adc804da146104ee575f5ffd5b80635e5a6775116101ab5780636c3fb4bf1161017b5780636c3fb4bf146103ed5780636d14a9871461040d57806375d4173a146104345780637c1723471461044757806381c0750214610461575f5ffd5b80635e5a67751461035d5780635f1f2d771461036c578063697fbd931461037f5780636b3aa72e146103ae575f5ffd5b806325504777116101f157806325504777146102b85780632cd95940146102d95780633ca5a5f5146102f95780634bd26e091461031b5780635401ed271461034a575f5ffd5b80630491b41c1461022257806308732461146102575780631f9b74e01461027857806320b66298146102a3575b5f5ffd5b610244610230366004612e05565b60ff165f9081526001602052604090205490565b6040519081526020015b60405180910390f35b61026a610265366004612e1e565b610688565b60405161024e929190612e46565b61028b610286366004612e7c565b6106cd565b6040516001600160601b03909116815260200161024e565b6102b66102b1366004612ef1565b6106ef565b005b6102cb6102c6366004612fac565b61088d565b60405161024e929190613046565b6102ec6102e736600461306a565b610a15565b60405161024e9190613094565b610244610307366004612e05565b60ff165f9081526003602052604090205490565b61024461032936600461306a565b5f91825260026020908152604080842060ff93909316845291905290205490565b61028b61035836600461306a565b610ab2565b610244670de0b6b3a764000081565b6102b661037a36600461319b565b610aca565b6103a161038d366004612e05565b60056020525f908152604090205460ff1681565b60405161024e9190613257565b6103d57f000000000000000000000000000000000000000000000000000000000000000081565b6040516001600160a01b03909116815260200161024e565b6104006103fb3660046132e2565b611008565b60405161024e91906133b4565b6103d57f000000000000000000000000000000000000000000000000000000000000000081565b6102b6610442366004613498565b611163565b61044f602081565b60405160ff909116815260200161024e565b61047461046f366004613504565b611249565b60405161024e9190613552565b6104a661048f366004612e05565b60066020525f908152604090205463ffffffff1681565b60405163ffffffff909116815260200161024e565b6103d56104c9366004612e1e565b6113ef565b6104e16104dc36600461358f565b611423565b60405161024e91906135bf565b6105016104fc366004612e1e565b6114b9565b6040805182516001600160a01b031681526020928301516001600160601b0316928101929092520161024e565b6104e161053c366004612e1e565b611530565b6102b661054f3660046135f9565b6115bd565b6102b6610562366004613621565b6115de565b61028b610575366004612e05565b5f602081905290815260409020546001600160601b031681565b6102b661059d36600461364f565b611641565b61028b6105b0366004613699565b6118b1565b6103d57f000000000000000000000000000000000000000000000000000000000000000081565b6102b66105ea3660046136d3565b61192d565b61028b6105fd366004612e05565b611a1f565b6104a661061036600461373d565b611a70565b6103d57f000000000000000000000000000000000000000000000000000000000000000081565b6102b661064a36600461376d565b611a84565b61028b61065d366004613795565b611aa0565b6104e161067036600461306a565b611b33565b61028b61068336600461373d565b611c21565b6003602052815f5260405f2081815481106106a1575f80fd5b5f918252602090912001546001600160a01b0381169250600160a01b90046001600160601b0316905082565b5f826106d881611c80565b5f6106e38585611cb2565b509250505b5092915050565b6106f7611d5d565b8461070181611c80565b83806107205760405163796cc52560e01b815260040160405180910390fd5b828114610740576040516343714afd60e01b815260040160405180910390fd5b60ff87165f908152600360205260408120905b828110156108825785858281811061076d5761076d6137d4565b905060200201602081019061078291906137e8565b82898984818110610795576107956137d4565b90506020020135815481106107ac576107ac6137d4565b905f5260205f20015f0160146101000a8154816001600160601b0302191690836001600160601b031602179055508860ff167f11a5641322da1dff56a4b66eaac31ffa465295ece907cd163437793b4d009a75838a8a85818110610812576108126137d4565b9050602002013581548110610829576108296137d4565b5f918252602090912001546001600160a01b031688888581811061084f5761084f6137d4565b905060200201602081019061086491906137e8565b604051610872929190612e46565b60405180910390a2600101610753565b505050505050505050565b606080610898611e10565b5f836001600160401b038111156108b1576108b161310d565b6040519080825280602002602001820160405280156108da578160200160208202803683370190505b5090505f846001600160401b038111156108f6576108f661310d565b60405190808252806020026020018201604052801561091f578160200160208202803683370190505b5090505f5b85811015610a07575f87878381811061093f5761093f6137d4565b919091013560f81c9150610954905081611c80565b5f5f610960838d611cb2565b91509150806109825760405163207f13e360e11b815260040160405180910390fd5b5f61098e8c8585611e59565b9050828786815181106109a3576109a36137d4565b60200260200101906001600160601b031690816001600160601b0316815250506109cd84826120d2565b8686815181106109df576109df6137d4565b6001600160601b03909216602092830291909101909101525050600190920191506109249050565b509097909650945050505050565b5f82815260026020908152604080832060ff851684528252808320805482518185028101850190935280835260609492939192909184015b82821015610aa5575f848152602090819020604080516060810182529185015463ffffffff8082168452600160201b82041683850152600160401b90046001600160601b031690820152825260019092019101610a4d565b5050505090505b92915050565b5f5f610abe8484611b33565b60400151949350505050565b610ad2611d5d565b81610adc81611c80565b815180610afc5760405163796cc52560e01b815260040160405180910390fd5b60ff84165f908152600360209081526040808320600490925282209091836001600160401b03811115610b3157610b3161310d565b604051908082528060200260200182016040528015610b5a578160200160208202803683370190505b5090505f5b84811015610e555783878281518110610b7a57610b7a6137d4565b602002602001015181548110610b9257610b926137d4565b5f9182526020909120015482516001600160a01b0390911690839083908110610bbd57610bbd6137d4565b60200260200101906001600160a01b031690816001600160a01b0316815250508760ff167f31fa2e2cd280c9375e13ffcf3d81e2378100186e4058f8d3ddb690b82dcd31f785898481518110610c1557610c156137d4565b602002602001015181548110610c2d57610c2d6137d4565b5f91825260209182902001546040516001600160a01b0390911681520160405180910390a28760ff167f11a5641322da1dff56a4b66eaac31ffa465295ece907cd163437793b4d009a7585898481518110610c8a57610c8a6137d4565b602002602001015181548110610ca257610ca26137d4565b5f91825260208083209190910154604080516001600160a01b039092168252918101929092520160405180910390a283548490610ce190600190613815565b81548110610cf157610cf16137d4565b905f5260205f200184888381518110610d0c57610d0c6137d4565b602002602001015181548110610d2457610d246137d4565b5f91825260209091208254910180546001600160a01b0319166001600160a01b03909216918217815591546001600160601b03600160a01b9182900416021790558354849080610d7657610d76613828565b5f8281526020812082015f199081019190915501905582548390610d9c90600190613815565b81548110610dac57610dac6137d4565b905f5260205f20015f9054906101000a90046001600160a01b031683888381518110610dda57610dda6137d4565b602002602001015181548110610df257610df26137d4565b905f5260205f20015f6101000a8154816001600160a01b0302191690836001600160a01b0316021790555082805480610e2d57610e2d613828565b5f8281526020902081015f1990810180546001600160a01b0319169055019055600101610b5f565b505f7f00000000000000000000000000000000000000000000000000000000000000006001600160a01b031663de1164bb6040518163ffffffff1660e01b8152600401602060405180830381865afa158015610eb3573d5f5f3e3d5ffd5b505050506040513d601f19601f82011682018060405250810190610ed7919061383c565b6040805180820182526001600160a01b03838116825260ff8c16602083015291516304c1b8eb60e31b81529293507f00000000000000000000000000000000000000000000000000000000000000009091169163260dc75891610f3c91600401613857565b602060405180830381865afa158015610f57573d5f5f3e3d5ffd5b505050506040513d601f19601f82011682018060405250810190610f7b919061387d565b15610ffe5760405163b66bd98960e01b81526001600160a01b037f0000000000000000000000000000000000000000000000000000000000000000169063b66bd98990610fd09084908c90879060040161389c565b5f604051808303815f87803b158015610fe7575f5ffd5b505af1158015610ff9573d5f5f3e3d5ffd5b505050505b5050505050505050565b6060611012611e10565b5f84516001600160401b0381111561102c5761102c61310d565b604051908082528060200260200182016040528015611055578160200160208202803683370190505b50905061106183611c80565b5f5f61106d8588612243565b90925090505f805b885181101561114957828181518110611090576110906137d4565b60200260200101516110f4575f8482815181106110af576110af6137d4565b60200260200101906001600160601b031690816001600160601b03168152505060018582815181106110e3576110e36137d4565b911515602092830291909101909101525b5f61113289838151811061110a5761110a6137d4565b602002602001015189878581518110611125576111256137d4565b6020026020010151611e59565b905061113e8184613906565b925050600101611075565b5061115486826120d2565b509293505050505b9392505050565b61116b611e10565b60ff83165f908152600160205260409020541561119b576040516310cda51760e21b815260040160405180910390fd5b6111a583826125e9565b6111af83836128da565b6111b9835f612942565b505060ff165f908152600160208181526040808420815160608101835263ffffffff438116825281850187815293820187815283549687018455928752939095209451949093018054915193516001600160601b0316600160401b02600160401b600160a01b0319948416600160201b0267ffffffffffffffff1990931695909316949094171791909116179055565b60605f826001600160401b038111156112645761126461310d565b60405190808252806020026020018201604052801561128d578160200160208202803683370190505b5090505f5b838110156113e6575f8585838181106112ad576112ad6137d4565b919091013560f81c91506112c2905081611c80565b60ff81165f908152600160205260408120805463ffffffff8a1692906112ea576112ea6137d4565b5f9182526020909120015463ffffffff16111561131a5760405163cc64657360e01b815260040160405180910390fd5b60ff81165f90815260016020526040812054905b818110156113db5760ff83165f90815260016020819052604090912063ffffffff8b169161135c8486613815565b6113669190613815565b81548110611376576113766137d4565b5f9182526020909120015463ffffffff16116113d35760016113988284613815565b6113a29190613815565b8585815181106113b4576113b46137d4565b602002602001019063ffffffff16908163ffffffff16815250506113db565b60010161132e565b505050600101611292565b50949350505050565b6004602052815f5260405f208181548110611408575f80fd5b5f918252602090912001546001600160a01b03169150829050565b604080516060810182525f80825260208083018290528284018290528582526002815283822060ff88168352905291909120805483908110611467576114676137d4565b5f91825260209182902060408051606081018252929091015463ffffffff8082168452600160201b82041693830193909352600160401b9092046001600160601b031691810191909152949350505050565b604080518082019091525f808252602082015260ff83165f9081526003602052604090208054839081106114ef576114ef6137d4565b5f918252602091829020604080518082019091529101546001600160a01b0381168252600160a01b90046001600160601b0316918101919091529392505050565b604080516060810182525f808252602080830182905282840182905260ff86168252600190529190912080548390811061156c5761156c6137d4565b5f91825260209182902060408051606081018252929091015463ffffffff8082168452600160201b82041693830193909352600160401b9092046001600160601b0316918101919091529392505050565b6115c5611d5d565b816115cf81611c80565b6115d983836128da565b505050565b6115e6611e10565b5f5b8181101561163b575f838383818110611603576116036137d4565b919091013560f81c9150611618905081611c80565b5f61162486835f611e59565b905061163082826120d2565b5050506001016115e8565b50505050565b611649611d5d565b8161165381611c80565b61165d83836125e9565b5f825190505f7f00000000000000000000000000000000000000000000000000000000000000006001600160a01b031663de1164bb6040518163ffffffff1660e01b8152600401602060405180830381865afa1580156116bf573d5f5f3e3d5ffd5b505050506040513d601f19601f820116820180604052508101906116e3919061383c565b6040805180820182526001600160a01b03838116825260ff8916602083015291516304c1b8eb60e31b81529293507f00000000000000000000000000000000000000000000000000000000000000009091169163260dc7589161174891600401613857565b602060405180830381865afa158015611763573d5f5f3e3d5ffd5b505050506040513d601f19601f82011682018060405250810190611787919061387d565b156118aa575f826001600160401b038111156117a5576117a561310d565b6040519080825280602002602001820160405280156117ce578160200160208202803683370190505b5090505f5b8381101561182a578581815181106117ed576117ed6137d4565b60200260200101515f015182828151811061180a5761180a6137d4565b6001600160a01b03909216602092830291909101909101526001016117d3565b50604051630287f75160e51b81526001600160a01b037f000000000000000000000000000000000000000000000000000000000000000016906350feea209061187b9085908a90869060040161389c565b5f604051808303815f87803b158015611892575f5ffd5b505af11580156118a4573d5f5f3e3d5ffd5b50505050505b5050505050565b60ff83165f9081526001602052604081208054829190849081106118d7576118d76137d4565b5f91825260209182902060408051606081018252919092015463ffffffff8082168352600160201b820416938201939093526001600160601b03600160401b90930492909216908201529050610abe81856129af565b611935611e10565b60ff84165f9081526001602052604090205415611965576040516310cda51760e21b815260040160405180910390fd5b61196f84826125e9565b61197984846128da565b611984846001612942565b61198e8483612a26565b50505060ff165f908152600160208181526040808420815160608101835263ffffffff438116825281850187815293820187815283549687018455928752939095209451949093018054915193516001600160601b0316600160401b02600160401b600160a01b0319948416600160201b0267ffffffffffffffff1990931695909316949094171791909116179055565b60ff81165f908152600160208190526040822080549091611a3f91613815565b81548110611a4f57611a4f6137d4565b5f91825260209091200154600160401b90046001600160601b031692915050565b5f611a7c848484612ad7565b949350505050565b611a8c611d5d565b81611a9681611c80565b6115d98383612a26565b5f82815260026020908152604080832060ff881684529091528120805482919084908110611ad057611ad06137d4565b5f91825260209182902060408051606081018252919092015463ffffffff8082168352600160201b820416938201939093526001600160601b03600160401b90930492909216908201529050611b2681866129af565b6040015195945050505050565b60408051606080820183525f80835260208084018290528385018290528682526002815284822060ff8716835281528482205485519384018652828452908301829052938201819052919291829003611b8f579150610aac9050565b5f85815260026020908152604080832060ff881684529091529020611bb5600184613815565b81548110611bc557611bc56137d4565b5f91825260209182902060408051606081018252919092015463ffffffff8082168352600160201b820416938201939093526001600160601b03600160401b90930492909216908201529250610aac915050565b505092915050565b5f83815260026020908152604080832060ff861684529091528120611c47858585612ad7565b63ffffffff1681548110611c5d57611c5d6137d4565b5f91825260209091200154600160401b90046001600160601b0316949350505050565b60ff81165f90815260016020526040902054611caf57604051637310cff560e11b815260040160405180910390fd5b50565b6040805160018082528183019092525f91829182916020808301908036833701905050905083815f81518110611cea57611cea6137d4565b60200260200101906001600160a01b031690816001600160a01b0316815250505f5f611d168784612243565b91509150815f81518110611d2c57611d2c6137d4565b6020026020010151815f81518110611d4657611d466137d4565b6020026020010151945094505050505b9250929050565b7f00000000000000000000000000000000000000000000000000000000000000006001600160a01b0316638da5cb5b6040518163ffffffff1660e01b8152600401602060405180830381865afa158015611db9573d5f5f3e3d5ffd5b505050506040513d601f19601f82011682018060405250810190611ddd919061383c565b6001600160a01b0316336001600160a01b031614611e0e5760405163ce98c24b60e01b815260040160405180910390fd5b565b336001600160a01b037f00000000000000000000000000000000000000000000000000000000000000001614611e0e57604051632c01b20560e21b815260040160405180910390fd5b5f83815260026020908152604080832060ff861684529091528120548190808203611f1d575f86815260026020908152604080832060ff891684528252808320815160608101835263ffffffff43811682528185018681526001600160601b03808c16958401958652845460018101865594885295909620915191909201805495519351909416600160401b02600160401b600160a01b0319938316600160201b0267ffffffffffffffff1990961691909216179390931716919091179055612078565b5f86815260026020908152604080832060ff891684529091528120611f43600184613815565b81548110611f5357611f536137d4565b5f91825260209091200180546001600160601b03600160401b9091048116945090915085168303611f89575f935050505061115c565b805463ffffffff438116911603611fc1578054600160401b600160a01b031916600160401b6001600160601b03871602178155612076565b805467ffffffff000000001916600160201b4363ffffffff9081168281029390931784555f8a815260026020908152604080832060ff8d168452825280832081516060810183529687528683018481526001600160601b038d81169389019384528254600181018455928652939094209651960180549351915196851667ffffffffffffffff1990941693909317931690930291909117600160401b600160a01b031916600160401b93909216929092021790555b505b6040805160ff871681526001600160601b038616602082015287917f2f527d527e95d8fe40aec55377743bb779087da3f6d0d08f12e36444da62327d910160405180910390a26120c88285612c3e565b9695505050505050565b60ff82165f90815260016020819052604082208054918391906120f59084613815565b81548110612105576121056137d4565b905f5260205f20019050835f036121305754600160401b90046001600160601b03169150610aac9050565b80545f9061214e90600160401b90046001600160601b031686612c55565b825490915063ffffffff438116911603612189578154600160401b600160a01b031916600160401b6001600160601b0383160217825561223a565b815463ffffffff438116600160201b81810267ffffffff000000001990941693909317855560ff89165f90815260016020818152604080842081516060810183529586528583018581526001600160601b03808b169388019384528254958601835591865292909420945194909201805491519251909316600160401b02600160401b600160a01b031992861690960267ffffffffffffffff19909116939094169290921792909217169190911790555b95945050505050565b6060805f83516001600160401b038111156122605761226061310d565b604051908082528060200260200182016040528015612289578160200160208202803683370190505b5090505f84516001600160401b038111156122a6576122a661310d565b6040519080825280602002602001820160405280156122cf578160200160208202803683370190505b5090505f6122eb8760ff165f9081526003602052604090205490565b60ff88165f90815260036020908152604080832080548251818502810185019093528083529495509293909291849084015b8282101561236b575f84815260209081902060408051808201909152908401546001600160a01b0381168252600160a01b90046001600160601b03168183015282526001909201910161231d565b505050509050606060018081111561238557612385613243565b60ff808b165f908152600560205260409020541660018111156123aa576123aa613243565b036123c0576123b98989612c82565b9050612463565b60ff89165f908152600460208190526040918290209151637870733b60e11b81526001600160a01b037f0000000000000000000000000000000000000000000000000000000000000000169263f0e0e6769261241f928d92910161399a565b5f60405180830381865afa158015612439573d5f5f3e3d5ffd5b505050506040513d5f823e601f3d908101601f1916820160405261246091908101906139be565b90505b5f5b88518110156125d9575f5b84811015612569575f84828151811061248b5761248b6137d4565b602002602001015190505f8484815181106124a8576124a86137d4565b602002602001015183815181106124c1576124c16137d4565b6020026020010151111561256057670de0b6b3a764000081602001516001600160601b03168585815181106124f8576124f86137d4565b60200260200101518481518110612511576125116137d4565b60200260200101516125239190613aca565b61252d9190613ae1565b88848151811061253f5761253f6137d4565b602002602001018181516125539190613b00565b6001600160601b03169052505b50600101612470565b5060ff8a165f9081526020819052604090205486516001600160601b039091169087908390811061259c5761259c6137d4565b60200260200101516001600160601b031610158582815181106125c1576125c16137d4565b91151560209283029190910190910152600101612465565b5093989297509195505050505050565b5f81511161260a5760405163796cc52560e01b815260040160405180910390fd5b805160ff83165f908152600360209081526040909120549061262c8383613b1f565b111561264b576040516343714afd60e01b815260040160405180910390fd5b5f5b828110156118aa575f5b6126618284613b1f565b8110156126f05784828151811061267a5761267a6137d4565b60200260200101515f01516001600160a01b031660035f8860ff1660ff1681526020019081526020015f2082815481106126b6576126b66137d4565b5f918252602090912001546001600160a01b0316036126e857604051637b74340b60e01b815260040160405180910390fd5b600101612657565b505f848281518110612704576127046137d4565b6020026020010151602001516001600160601b03161161273757604051637257125160e01b815260040160405180910390fd5b60ff85165f908152600360205260409020845185908390811061275c5761275c6137d4565b60209081029190910181015182546001810184555f9384528284208251928401516001600160601b0316600160a01b026001600160a01b039093169290921791015560ff87168252600490526040902084518590839081106127c0576127c06137d4565b6020908102919091018101515182546001810184555f938452919092200180546001600160a01b0319166001600160a01b03909216919091179055835160ff8616907f10565e56cacbf32eca267945f054fec02e59750032d113d3302182ad967f540490869084908110612836576128366137d4565b602090810291909101810151516040516001600160a01b0390911681520160405180910390a28460ff167f11a5641322da1dff56a4b66eaac31ffa465295ece907cd163437793b4d009a75858381518110612893576128936137d4565b60200260200101515f01518684815181106128b0576128b06137d4565b6020026020010151602001516040516128ca929190612e46565b60405180910390a260010161264d565b60ff82165f818152602081815260409182902080546bffffffffffffffffffffffff19166001600160601b03861690811790915591519182527f26eecff2b70b0a71104ff4d940ba7162d23a95c248771fc487a7be17a596b3cf910160405180910390a25050565b60ff82165f908152600560205260409020805482919060ff19166001838181111561296f5761296f613243565b02179055507f7c112e863ccf007862e2c9e25819c933fedbc9350a6443423b4a8599c2e8a52d816040516129a39190613257565b60405180910390a15050565b815f015163ffffffff168163ffffffff1610156129df57604051631391e11b60e21b815260040160405180910390fd5b602082015163ffffffff161580612a055750816020015163ffffffff168163ffffffff16105b612a2257604051631391e11b60e21b815260040160405180910390fd5b5050565b600160ff8084165f90815260056020526040902054166001811115612a4d57612a4d613243565b14612a6b5760405163a3be258360e01b815260040160405180910390fd5b60ff82165f90815260066020908152604091829020805463ffffffff19811663ffffffff8681169182179093558451929091168083529282015290917f28d7358b79f02d21b8b7e17aefc4185a64308aa37406fa5befc05b91932c39c7910160405180910390a1505050565b5f83815260026020908152604080832060ff86168452909152812054805b8015612b75575f86815260026020908152604080832060ff89168452909152902063ffffffff851690612b29600184613815565b81548110612b3957612b396137d4565b5f9182526020909120015463ffffffff1611612b6357612b5a600182613815565b9250505061115c565b80612b6d81613b32565b915050612af5565b5060405162461bcd60e51b815260206004820152608160248201527f5374616b6552656769737472792e5f6765745374616b65557064617465496e6460448201527f6578466f724f70657261746f724174426c6f636b4e756d6265723a206e6f207360648201527f74616b652075706461746520666f756e6420666f72206f70657261746f72496460848201527f20616e642071756f72756d4e756d62657220617420626c6f636b206e756d626560a4820152603960f91b60c482015260e40160405180910390fd5b5f61115c6001600160601b03808516908416613b47565b5f5f821215612c7857612c6782613b66565b612c719084613b80565b9050610aac565b612c718284613b00565b60ff82165f9081526006602052604081205460609190612ca89063ffffffff1643613b1f565b90505f7f00000000000000000000000000000000000000000000000000000000000000006001600160a01b0316632bab2c4a60405180604001604052807f00000000000000000000000000000000000000000000000000000000000000006001600160a01b031663de1164bb6040518163ffffffff1660e01b8152600401602060405180830381865afa158015612d41573d5f5f3e3d5ffd5b505050506040513d601f19601f82011682018060405250810190612d65919061383c565b6001600160a01b0316815260ff891660209182018190525f90815260049182905260409081902090516001600160e01b031960e086901b168152612daf93928a9291899101613b9f565b5f60405180830381865afa158015612dc9573d5f5f3e3d5ffd5b505050506040513d5f823e601f3d908101601f1916820160405261223a91908101906139be565b803560ff81168114612e00575f5ffd5b919050565b5f60208284031215612e15575f5ffd5b61115c82612df0565b5f5f60408385031215612e2f575f5ffd5b612e3883612df0565b946020939093013593505050565b6001600160a01b039290921682526001600160601b0316602082015260400190565b6001600160a01b0381168114611caf575f5ffd5b5f5f60408385031215612e8d575f5ffd5b612e9683612df0565b91506020830135612ea681612e68565b809150509250929050565b5f5f83601f840112612ec1575f5ffd5b5081356001600160401b03811115612ed7575f5ffd5b6020830191508360208260051b8501011115611d56575f5ffd5b5f5f5f5f5f60608688031215612f05575f5ffd5b612f0e86612df0565b945060208601356001600160401b03811115612f28575f5ffd5b612f3488828901612eb1565b90955093505060408601356001600160401b03811115612f52575f5ffd5b612f5e88828901612eb1565b969995985093965092949392505050565b5f5f83601f840112612f7f575f5ffd5b5081356001600160401b03811115612f95575f5ffd5b602083019150836020828501011115611d56575f5ffd5b5f5f5f5f60608587031215612fbf575f5ffd5b8435612fca81612e68565b93506020850135925060408501356001600160401b03811115612feb575f5ffd5b612ff787828801612f6f565b95989497509550505050565b5f8151808452602084019350602083015f5b8281101561303c5781516001600160601b0316865260209586019590910190600101613015565b5093949350505050565b604081525f6130586040830185613003565b828103602084015261223a8185613003565b5f5f6040838503121561307b575f5ffd5b8235915061308b60208401612df0565b90509250929050565b602080825282518282018190525f918401906040840190835b81811015613102576130ec83855163ffffffff815116825263ffffffff60208201511660208301526001600160601b0360408201511660408301525050565b60209390930192606092909201916001016130ad565b509095945050505050565b634e487b7160e01b5f52604160045260245ffd5b604080519081016001600160401b03811182821017156131435761314361310d565b60405290565b604051601f8201601f191681016001600160401b03811182821017156131715761317161310d565b604052919050565b5f6001600160401b038211156131915761319161310d565b5060051b60200190565b5f5f604083850312156131ac575f5ffd5b6131b583612df0565b915060208301356001600160401b038111156131cf575f5ffd5b8301601f810185136131df575f5ffd5b80356131f26131ed82613179565b613149565b8082825260208201915060208360051b850101925087831115613213575f5ffd5b6020840193505b8284101561323557833582526020938401939091019061321a565b809450505050509250929050565b634e487b7160e01b5f52602160045260245ffd5b602081016002831061327757634e487b7160e01b5f52602160045260245ffd5b91905290565b5f82601f83011261328c575f5ffd5b813561329a6131ed82613179565b8082825260208201915060208360051b8601019250858311156132bb575f5ffd5b602085015b838110156132d85780358352602092830192016132c0565b5095945050505050565b5f5f5f606084860312156132f4575f5ffd5b83356001600160401b03811115613309575f5ffd5b8401601f81018613613319575f5ffd5b80356133276131ed82613179565b8082825260208201915060208360051b850101925088831115613348575f5ffd5b6020840193505b8284101561337357833561336281612e68565b82526020938401939091019061334f565b955050505060208401356001600160401b03811115613390575f5ffd5b61339c8682870161327d565b9250506133ab60408501612df0565b90509250925092565b602080825282518282018190525f918401906040840190835b8181101561310257835115158352602093840193909201916001016133cd565b80356001600160601b0381168114612e00575f5ffd5b5f82601f830112613412575f5ffd5b81356134206131ed82613179565b8082825260208201915060208360061b860101925085831115613441575f5ffd5b602085015b838110156132d8576040818803121561345d575f5ffd5b613465613121565b813561347081612e68565b815261347e602083016133ed565b602082015280845250602083019250604081019050613446565b5f5f5f606084860312156134aa575f5ffd5b6134b384612df0565b92506134c1602085016133ed565b915060408401356001600160401b038111156134db575f5ffd5b6134e786828701613403565b9150509250925092565b803563ffffffff81168114612e00575f5ffd5b5f5f5f60408486031215613516575f5ffd5b61351f846134f1565b925060208401356001600160401b03811115613539575f5ffd5b61354586828701612f6f565b9497909650939450505050565b602080825282518282018190525f918401906040840190835b8181101561310257835163ffffffff1683526020938401939092019160010161356b565b5f5f5f606084860312156135a1575f5ffd5b6135aa84612df0565b95602085013595506040909401359392505050565b60608101610aac828463ffffffff815116825263ffffffff60208201511660208301526001600160601b0360408201511660408301525050565b5f5f6040838503121561360a575f5ffd5b61361383612df0565b915061308b602084016133ed565b5f5f5f60408486031215613633575f5ffd5b8335925060208401356001600160401b03811115613539575f5ffd5b5f5f60408385031215613660575f5ffd5b61366983612df0565b915060208301356001600160401b03811115613683575f5ffd5b61368f85828601613403565b9150509250929050565b5f5f5f606084860312156136ab575f5ffd5b6136b484612df0565b92506136c2602085016134f1565b929592945050506040919091013590565b5f5f5f5f608085870312156136e6575f5ffd5b6136ef85612df0565b93506136fd602086016133ed565b925061370b604086016134f1565b915060608501356001600160401b03811115613725575f5ffd5b61373187828801613403565b91505092959194509250565b5f5f5f6060848603121561374f575f5ffd5b8335925061375f60208501612df0565b91506133ab604085016134f1565b5f5f6040838503121561377e575f5ffd5b61378783612df0565b915061308b602084016134f1565b5f5f5f5f608085870312156137a8575f5ffd5b6137b185612df0565b93506137bf602086016134f1565b93969395505050506040820135916060013590565b634e487b7160e01b5f52603260045260245ffd5b5f602082840312156137f8575f5ffd5b61115c826133ed565b634e487b7160e01b5f52601160045260245ffd5b81810381811115610aac57610aac613801565b634e487b7160e01b5f52603160045260245ffd5b5f6020828403121561384c575f5ffd5b815161115c81612e68565b81516001600160a01b0316815260208083015163ffffffff169082015260408101610aac565b5f6020828403121561388d575f5ffd5b8151801515811461115c575f5ffd5b6001600160a01b038416815260ff831660208083019190915260606040830181905283519083018190525f918401906080840190835b818110156138f95783516001600160a01b03168352602093840193909201916001016138d2565b5090979650505050505050565b8082018281125f831280158216821582161715611c1957611c19613801565b5f8151808452602084019350602083015f5b8281101561303c5781516001600160a01b0316865260209586019590910190600101613937565b5f8154808452602084019350825f5260205f205f5b8281101561303c5781546001600160a01b0316865260209095019460019182019101613973565b604081525f6139ac6040830185613925565b828103602084015261223a818561395e565b5f602082840312156139ce575f5ffd5b81516001600160401b038111156139e3575f5ffd5b8201601f810184136139f3575f5ffd5b8051613a016131ed82613179565b8082825260208201915060208360051b850101925086831115613a22575f5ffd5b602084015b83811015613abf5780516001600160401b03811115613a44575f5ffd5b8501603f81018913613a54575f5ffd5b6020810151613a656131ed82613179565b808282526020820191506020808460051b8601010192508b831115613a88575f5ffd5b6040840193505b82841015613aaa578351825260209384019390910190613a8f565b86525050602093840193919091019050613a27565b509695505050505050565b8082028115828204841417610aac57610aac613801565b5f82613afb57634e487b7160e01b5f52601260045260245ffd5b500490565b6001600160601b038181168382160190811115610aac57610aac613801565b80820180821115610aac57610aac613801565b5f81613b4057613b40613801565b505f190190565b8181035f8312801583831316838312821617156106e8576106e8613801565b5f600160ff1b8201613b7a57613b7a613801565b505f0390565b6001600160601b038281168282160390811115610aac57610aac613801565b84516001600160a01b0316815260208086015163ffffffff169082015260a060408201525f613bd160a0830186613925565b8281036060840152613be3818661395e565b91505063ffffffff831660808301529594505050505056fea26469706673582212202b0a19c33d3c55a3ae6288d7f55fbec0ea64f5ccaf5a76847ccf84b4f80c632a64736f6c634300081b0033","linkReferences":{}},"methodIdentifiers":{"MAX_WEIGHING_FUNCTION_LENGTH()":"7c172347","WEIGHTING_DIVISOR()":"5e5a6775","addStrategies(uint8,(address,uint96)[])":"c601527d","allocationManager()":"ca8aa7c7","avsDirectory()":"6b3aa72e","delegation()":"df5cf723","deregisterOperator(bytes32,bytes)":"bd29b8cd","getCurrentStake(bytes32,uint8)":"5401ed27","getCurrentTotalStake(uint8)":"d5eccc05","getLatestStakeUpdate(bytes32,uint8)":"f851e198","getStakeAtBlockNumber(bytes32,uint8,uint32)":"fa28c627","getStakeAtBlockNumberAndIndex(uint8,uint32,bytes32,uint256)":"f2be94ae","getStakeHistory(bytes32,uint8)":"2cd95940","getStakeHistoryLength(bytes32,uint8)":"4bd26e09","getStakeUpdateAtIndex(uint8,bytes32,uint256)":"ac6bfb03","getStakeUpdateIndexAtBlockNumber(bytes32,uint8,uint32)":"dd9846b9","getTotalStakeAtBlockNumberFromIndex(uint8,uint32,uint256)":"c8294c56","getTotalStakeHistoryLength(uint8)":"0491b41c","getTotalStakeIndicesAtBlockNumber(uint32,bytes)":"81c07502","getTotalStakeUpdateAtIndex(uint8,uint256)":"b6904b78","initializeDelegatedStakeQuorum(uint8,uint96,(address,uint96)[])":"75d4173a","initializeSlashableStakeQuorum(uint8,uint96,uint32,(address,uint96)[])":"cc5a7c20","minimumStakeForQuorum(uint8)":"c46778a5","modifyStrategyParams(uint8,uint256[],uint96[])":"20b66298","registerOperator(address,bytes32,bytes)":"25504777","registryCoordinator()":"6d14a987","removeStrategies(uint8,uint256[])":"5f1f2d77","setMinimumStakeForQuorum(uint8,uint96)":"bc9a40c3","setSlashableStakeLookahead(uint8,uint32)":"e086adb3","slashableStakeLookAheadPerQuorum(uint8)":"9ab4d6ff","stakeTypePerQuorum(uint8)":"697fbd93","strategiesPerQuorum(uint8,uint256)":"9f3ccf65","strategyParams(uint8,uint256)":"08732461","strategyParamsByIndex(uint8,uint256)":"adc804da","strategyParamsLength(uint8)":"3ca5a5f5","updateOperatorsStake(address[],bytes32[],uint8)":"6c3fb4bf","weightOfOperatorForQuorum(uint8,address)":"1f9b74e0"},"id":136}