{"abi":[{"type":"constructor","inputs":[{"name":"_delegation","type":"address","internalType":"contract IDelegationManager"},{"name":"_pauserRegistry","type":"address","internalType":"contract IPauserRegistry"},{"name":"_version","type":"string","internalType":"string"}],"stateMutability":"nonpayable"},{"type":"function","name":"DEFAULT_BURN_ADDRESS","inputs":[],"outputs":[{"name":"","type":"address","internalType":"address"}],"stateMutability":"view"},{"type":"function","name":"DEPOSIT_TYPEHASH","inputs":[],"outputs":[{"name":"","type":"bytes32","internalType":"bytes32"}],"stateMutability":"view"},{"type":"function","name":"addShares","inputs":[{"name":"staker","type":"address","internalType":"address"},{"name":"strategy","type":"address","internalType":"contract IStrategy"},{"name":"shares","type":"uint256","internalType":"uint256"}],"outputs":[{"name":"","type":"uint256","internalType":"uint256"},{"name":"","type":"uint256","internalType":"uint256"}],"stateMutability":"nonpayable"},{"type":"function","name":"addStrategiesToDepositWhitelist","inputs":[{"name":"strategiesToWhitelist","type":"address[]","internalType":"contract IStrategy[]"}],"outputs":[],"stateMutability":"nonpayable"},{"type":"function","name":"burnShares","inputs":[{"name":"strategy","type":"address","internalType":"contract IStrategy"}],"outputs":[],"stateMutability":"nonpayable"},{"type":"function","name":"calculateStrategyDepositDigestHash","inputs":[{"name":"staker","type":"address","internalType":"address"},{"name":"strategy","type":"address","internalType":"contract IStrategy"},{"name":"token","type":"address","internalType":"contract IERC20"},{"name":"amount","type":"uint256","internalType":"uint256"},{"name":"nonce","type":"uint256","internalType":"uint256"},{"name":"expiry","type":"uint256","internalType":"uint256"}],"outputs":[{"name":"","type":"bytes32","internalType":"bytes32"}],"stateMutability":"view"},{"type":"function","name":"delegation","inputs":[],"outputs":[{"name":"","type":"address","internalType":"contract IDelegationManager"}],"stateMutability":"view"},{"type":"function","name":"depositIntoStrategy","inputs":[{"name":"strategy","type":"address","internalType":"contract IStrategy"},{"name":"token","type":"address","internalType":"contract IERC20"},{"name":"amount","type":"uint256","internalType":"uint256"}],"outputs":[{"name":"depositShares","type":"uint256","internalType":"uint256"}],"stateMutability":"nonpayable"},{"type":"function","name":"depositIntoStrategyWithSignature","inputs":[{"name":"strategy","type":"address","internalType":"contract IStrategy"},{"name":"token","type":"address","internalType":"contract IERC20"},{"name":"amount","type":"uint256","internalType":"uint256"},{"name":"staker","type":"address","internalType":"address"},{"name":"expiry","type":"uint256","internalType":"uint256"},{"name":"signature","type":"bytes","internalType":"bytes"}],"outputs":[{"name":"depositShares","type":"uint256","internalType":"uint256"}],"stateMutability":"nonpayable"},{"type":"function","name":"domainSeparator","inputs":[],"outputs":[{"name":"","type":"bytes32","internalType":"bytes32"}],"stateMutability":"view"},{"type":"function","name":"getBurnableShares","inputs":[{"name":"strategy","type":"address","internalType":"contract IStrategy"}],"outputs":[{"name":"","type":"uint256","internalType":"uint256"}],"stateMutability":"view"},{"type":"function","name":"getDeposits","inputs":[{"name":"staker","type":"address","internalType":"address"}],"outputs":[{"name":"","type":"address[]","internalType":"contract IStrategy[]"},{"name":"","type":"uint256[]","internalType":"uint256[]"}],"stateMutability":"view"},{"type":"function","name":"getStakerStrategyList","inputs":[{"name":"staker","type":"address","internalType":"address"}],"outputs":[{"name":"","type":"address[]","internalType":"contract IStrategy[]"}],"stateMutability":"view"},{"type":"function","name":"getStrategiesWithBurnableShares","inputs":[],"outputs":[{"name":"","type":"address[]","internalType":"address[]"},{"name":"","type":"uint256[]","internalType":"uint256[]"}],"stateMutability":"view"},{"type":"function","name":"increaseBurnableShares","inputs":[{"name":"strategy","type":"address","internalType":"contract IStrategy"},{"name":"addedSharesToBurn","type":"uint256","internalType":"uint256"}],"outputs":[],"stateMutability":"nonpayable"},{"type":"function","name":"initialize","inputs":[{"name":"initialOwner","type":"address","internalType":"address"},{"name":"initialStrategyWhitelister","type":"address","internalType":"address"},{"name":"initialPausedStatus","type":"uint256","internalType":"uint256"}],"outputs":[],"stateMutability":"nonpayable"},{"type":"function","name":"nonces","inputs":[{"name":"signer","type":"address","internalType":"address"}],"outputs":[{"name":"nonce","type":"uint256","internalType":"uint256"}],"stateMutability":"view"},{"type":"function","name":"owner","inputs":[],"outputs":[{"name":"","type":"address","internalType":"address"}],"stateMutability":"view"},{"type":"function","name":"pause","inputs":[{"name":"newPausedStatus","type":"uint256","internalType":"uint256"}],"outputs":[],"stateMutability":"nonpayable"},{"type":"function","name":"pauseAll","inputs":[],"outputs":[],"stateMutability":"nonpayable"},{"type":"function","name":"paused","inputs":[{"name":"index","type":"uint8","internalType":"uint8"}],"outputs":[{"name":"","type":"bool","internalType":"bool"}],"stateMutability":"view"},{"type":"function","name":"paused","inputs":[],"outputs":[{"name":"","type":"uint256","internalType":"uint256"}],"stateMutability":"view"},{"type":"function","name":"pauserRegistry","inputs":[],"outputs":[{"name":"","type":"address","internalType":"contract IPauserRegistry"}],"stateMutability":"view"},{"type":"function","name":"removeDepositShares","inputs":[{"name":"staker","type":"address","internalType":"address"},{"name":"strategy","type":"address","internalType":"contract IStrategy"},{"name":"depositSharesToRemove","type":"uint256","internalType":"uint256"}],"outputs":[{"name":"","type":"uint256","internalType":"uint256"}],"stateMutability":"nonpayable"},{"type":"function","name":"removeStrategiesFromDepositWhitelist","inputs":[{"name":"strategiesToRemoveFromWhitelist","type":"address[]","internalType":"contract IStrategy[]"}],"outputs":[],"stateMutability":"nonpayable"},{"type":"function","name":"renounceOwnership","inputs":[],"outputs":[],"stateMutability":"nonpayable"},{"type":"function","name":"setStrategyWhitelister","inputs":[{"name":"newStrategyWhitelister","type":"address","internalType":"address"}],"outputs":[],"stateMutability":"nonpayable"},{"type":"function","name":"stakerDepositShares","inputs":[{"name":"staker","type":"address","internalType":"address"},{"name":"strategy","type":"address","internalType":"contract IStrategy"}],"outputs":[{"name":"shares","type":"uint256","internalType":"uint256"}],"stateMutability":"view"},{"type":"function","name":"stakerStrategyList","inputs":[{"name":"staker","type":"address","internalType":"address"},{"name":"","type":"uint256","internalType":"uint256"}],"outputs":[{"name":"strategies","type":"address","internalType":"contract IStrategy"}],"stateMutability":"view"},{"type":"function","name":"stakerStrategyListLength","inputs":[{"name":"staker","type":"address","internalType":"address"}],"outputs":[{"name":"","type":"uint256","internalType":"uint256"}],"stateMutability":"view"},{"type":"function","name":"strategyIsWhitelistedForDeposit","inputs":[{"name":"strategy","type":"address","internalType":"contract IStrategy"}],"outputs":[{"name":"whitelisted","type":"bool","internalType":"bool"}],"stateMutability":"view"},{"type":"function","name":"strategyWhitelister","inputs":[],"outputs":[{"name":"","type":"address","internalType":"address"}],"stateMutability":"view"},{"type":"function","name":"transferOwnership","inputs":[{"name":"newOwner","type":"address","internalType":"address"}],"outputs":[],"stateMutability":"nonpayable"},{"type":"function","name":"unpause","inputs":[{"name":"newPausedStatus","type":"uint256","internalType":"uint256"}],"outputs":[],"stateMutability":"nonpayable"},{"type":"function","name":"version","inputs":[],"outputs":[{"name":"","type":"string","internalType":"string"}],"stateMutability":"view"},{"type":"function","name":"withdrawSharesAsTokens","inputs":[{"name":"staker","type":"address","internalType":"address"},{"name":"strategy","type":"address","internalType":"contract IStrategy"},{"name":"token","type":"address","internalType":"contract IERC20"},{"name":"shares","type":"uint256","internalType":"uint256"}],"outputs":[],"stateMutability":"nonpayable"},{"type":"event","name":"BurnableSharesDecreased","inputs":[{"name":"strategy","type":"address","indexed":false,"internalType":"contract IStrategy"},{"name":"shares","type":"uint256","indexed":false,"internalType":"uint256"}],"anonymous":false},{"type":"event","name":"BurnableSharesIncreased","inputs":[{"name":"strategy","type":"address","indexed":false,"internalType":"contract IStrategy"},{"name":"shares","type":"uint256","indexed":false,"internalType":"uint256"}],"anonymous":false},{"type":"event","name":"Deposit","inputs":[{"name":"staker","type":"address","indexed":false,"internalType":"address"},{"name":"strategy","type":"address","indexed":false,"internalType":"contract IStrategy"},{"name":"shares","type":"uint256","indexed":false,"internalType":"uint256"}],"anonymous":false},{"type":"event","name":"Initialized","inputs":[{"name":"version","type":"uint8","indexed":false,"internalType":"uint8"}],"anonymous":false},{"type":"event","name":"OwnershipTransferred","inputs":[{"name":"previousOwner","type":"address","indexed":true,"internalType":"address"},{"name":"newOwner","type":"address","indexed":true,"internalType":"address"}],"anonymous":false},{"type":"event","name":"Paused","inputs":[{"name":"account","type":"address","indexed":true,"internalType":"address"},{"name":"newPausedStatus","type":"uint256","indexed":false,"internalType":"uint256"}],"anonymous":false},{"type":"event","name":"StrategyAddedToDepositWhitelist","inputs":[{"name":"strategy","type":"address","indexed":false,"internalType":"contract IStrategy"}],"anonymous":false},{"type":"event","name":"StrategyRemovedFromDepositWhitelist","inputs":[{"name":"strategy","type":"address","indexed":false,"internalType":"contract IStrategy"}],"anonymous":false},{"type":"event","name":"StrategyWhitelisterChanged","inputs":[{"name":"previousAddress","type":"address","indexed":false,"internalType":"address"},{"name":"newAddress","type":"address","indexed":false,"internalType":"address"}],"anonymous":false},{"type":"event","name":"Unpaused","inputs":[{"name":"account","type":"address","indexed":true,"internalType":"address"},{"name":"newPausedStatus","type":"uint256","indexed":false,"internalType":"uint256"}],"anonymous":false},{"type":"error","name":"CurrentlyPaused","inputs":[]},{"type":"error","name":"InputAddressZero","inputs":[]},{"type":"error","name":"InvalidNewPausedStatus","inputs":[]},{"type":"error","name":"InvalidShortString","inputs":[]},{"type":"error","name":"InvalidSignature","inputs":[]},{"type":"error","name":"MaxStrategiesExceeded","inputs":[]},{"type":"error","name":"OnlyDelegationManager","inputs":[]},{"type":"error","name":"OnlyPauser","inputs":[]},{"type":"error","name":"OnlyStrategyWhitelister","inputs":[]},{"type":"error","name":"OnlyUnpauser","inputs":[]},{"type":"error","name":"SharesAmountTooHigh","inputs":[]},{"type":"error","name":"SharesAmountZero","inputs":[]},{"type":"error","name":"SignatureExpired","inputs":[]},{"type":"error","name":"StakerAddressZero","inputs":[]},{"type":"error","name":"StrategyNotFound","inputs":[]},{"type":"error","name":"StrategyNotWhitelisted","inputs":[]},{"type":"error","name":"StringTooLong","inputs":[{"name":"str","type":"string","internalType":"string"}]}],"bytecode":{"object":"0x60e060405234610247576126da803803806100198161025f565b9283398101906060818303126102475780516001600160a01b03811681036102475760208201516001600160a01b03811692838203610247576040810151906001600160401b03821161024757019284601f850112156102475783516001600160401b03811161024b57610096601f8201601f191660200161025f565b9481865260208601966020838301011161024757815f926020809301895e86010152156102385760805260a052601f8151116101fc57519051602082106101ec575b1760c0525f5460ff8160081c166101975760ff8082160361015d575b60405161245590816102858239608051818181610263015281816109cd01528181610ca90152611575015260a0518181816104a7015281816104f601528181610a4a01528181610dcb0152818161134a0152611c68015260c051818181610d7e015261197e0152f35b60ff90811916175f557f7f26b83ff96e1f2b6a682f133852f6798a09c465da95921460cefb3847402498602060405160ff8152a15f6100f4565b60405162461bcd60e51b815260206004820152602760248201527f496e697469616c697a61626c653a20636f6e747261637420697320696e697469604482015266616c697a696e6760c81b6064820152608490fd5b5f198260200360031b1b166100d8565b60449060405192839163305a27a960e01b8352602060048401525180918160248501528484015e5f828201840152601f01601f19168101030190fd5b6339b190bb60e11b5f5260045ffd5b5f80fd5b634e487b7160e01b5f52604160045260245ffd5b6040519190601f01601f191682016001600160401b0381118382101761024b5760405256fe6080806040526004361015610012575f80fd5b5f905f3560e01c908163136439dd14611546575080631794bb3c1461140e5780632eae418c1461131c57806332e89ace1461110a57806336a8c50014610fd857806348825e9414610f9d5780634b6d5d6e14610e1f57806350ff722514610db657806354fd4d5014610d65578063595c6a6714610c7d5780635ac86ab714610c435780635c975abb14610c255780635de08ff214610b47578063663c1de414610b08578063715018a614610aab578063724af42314610a355780637ecebe00146109fc578063886f1195146109b75780638b8aac3c1461097e5780638da5cb5b1461095557806394f649dd1461083c578063967fc0d2146108135780639ac01d61146107d2578063b5d8b5b8146106e3578063c6656702146106a9578063cbc2bd6214610648578063de44acb6146105b5578063debe1eab146104d6578063df5cf72314610491578063e7a050aa1461042c578063f2fde38b1461039b578063f3b4a0001461037d578063f698da251461035a578063fabc1cbc14610236578063fd980423146101ff5763fe243a17146101aa575f80fd5b346101fc5760403660031901126101fc5760406101c5611606565b916101ce61161c565b9260018060a01b0316815260cd602052209060018060a01b03165f52602052602060405f2054604051908152f35b80fd5b50346101fc5760203660031901126101fc57602061022c6001600160a01b03610226611606565b16612156565b9050604051908152f35b50346101fc5760203660031901126101fc5760405163755b36bd60e11b81526004803591906020908290817f00000000000000000000000000000000000000000000000000000000000000006001600160a01b03165afa90811561034f578391610309575b506001600160a01b031633036102fa576098541981198116036102eb57806098556040519081527f3582d1828e26bf56bd801502bc021ac0bc8afb57c826e4986b45593c8fad389c60203392a280f35b63c61dca5d60e01b8252600482fd5b63794821ff60e01b8252600482fd5b90506020813d602011610347575b8161032460209383611648565b8101031261034357516001600160a01b0381168103610343575f61029b565b8280fd5b3d9150610317565b6040513d85823e3d90fd5b50346101fc57806003193601126101fc576020610375611952565b604051908152f35b50346101fc57806003193601126101fc576020604051620e16e48152f35b50346101fc5760203660031901126101fc576103b5611606565b6103bd611f5e565b6001600160a01b038116156103d8576103d590611a6b565b80f35b60405162461bcd60e51b815260206004820152602660248201527f4f776e61626c653a206e6577206f776e657220697320746865207a65726f206160448201526564647265737360d01b6064820152608490fd5b50346101fc5760603660031901126101fc57610446611606565b9061044f61161c565b906001806098541614610482576020610475848461046b611b06565b6044359133611b5c565b6001606555604051908152f35b63840a48d560e01b8152600490fd5b50346101fc57806003193601126101fc576040517f00000000000000000000000000000000000000000000000000000000000000006001600160a01b03168152602090f35b50346101fc5760403660031901126101fc576104f0611606565b602435907f00000000000000000000000000000000000000000000000000000000000000006001600160a01b031633036105a657907fca3e02a4ab7ad3c47a8e36e5a624c30170791726ab720f1babfef21046d953ff9161054f611b06565b6105826001600160a01b0382166105708461056983612156565b9050611931565b81875260d6602052604087205561232d565b50604080516001600160a01b039290921682526020820192909252a1600160655580f35b63f739589b60e01b8352600483fd5b50346101fc5760203660031901126101fc576001600160a01b036105d7611606565b16815260ce60205260408120604051918260208354918281520192825260208220915b818110610629576106258561061181870382611648565b60405191829160208352602083019061177f565b0390f35b82546001600160a01b03168452602090930192600192830192016105fa565b50346101fc5760403660031901126101fc57610662611606565b6001600160a01b0316815260ce60205260408120805460243592908310156101fc57602061069084846117bb565b905460405160039290921b1c6001600160a01b03168152f35b50346101fc5760203660031901126101fc576106db6106c6611606565b6106ce611f5e565b6106d6611b06565b611ab3565b600160655580f35b50346101fc576106f23661172b565b60cb546001600160a01b031633036107c35761070c611b06565b825b81811061071e5783600160655580f35b6001906001600160a01b0361073c61073783868861185a565b61186a565b16855260d160205260ff604086205416610757575b0161070e565b818060a01b0361076b61073783868861185a565b16855260d16020526040852060ff1981541690557f4074413b4b443e4e58019f2855a8765113358c7c72e39509c6af45fc0f5ba03060206107b061073784878961185a565b60405190858060a01b03168152a1610751565b6320ba3ff960e21b8352600483fd5b50346101fc5760c03660031901126101fc5760206103756107f1611606565b6107f961161c565b610801611632565b9160a43592608435926064359261187e565b50346101fc57806003193601126101fc5760cb546040516001600160a01b039091168152602090f35b50346101fc5760203660031901126101fc576001600160a01b0361085e611606565b169081815260ce60205260408120549161087783611814565b92825b818110610901575050815260ce60205260408120604051918260208354918281520192825260208220915b8181106108e2576108d485610625886108c083890384611648565b60405193849360408552604085019061177f565b90838203602085015261169a565b82546001600160a01b03168452602090930192600192830192016108a5565b60019083855260cd6020526040852084865260ce60205261092582604088206117bb565b848060a01b0391549060031b1c16838060a01b03165f5260205260405f205461094e8288611846565b520161087a565b50346101fc57806003193601126101fc576033546040516001600160a01b039091168152602090f35b50346101fc5760203660031901126101fc576020906040906001600160a01b036109a6611606565b16815260ce83522054604051908152f35b50346101fc57806003193601126101fc576040517f00000000000000000000000000000000000000000000000000000000000000006001600160a01b03168152602090f35b50346101fc5760203660031901126101fc576020906040906001600160a01b03610a24611606565b16815260ca83522054604051908152f35b50346101fc57610a44366116cd565b929091907f00000000000000000000000000000000000000000000000000000000000000006001600160a01b03163303610a9c576020610a8d858585610a88611b06565b611fb6565b90506001606555604051908152f35b63f739589b60e01b8152600490fd5b50346101fc57806003193601126101fc57610ac4611f5e565b603380546001600160a01b0319811690915581906001600160a01b03167f8be0079c531659141344cd1fd0a4f28419497f9722a3daafe3b4186f6b6457e08280a380f35b50346101fc5760203660031901126101fc5760209060ff906040906001600160a01b03610b33611606565b16815260d184522054166040519015158152f35b50346101fc57610b563661172b565b60cb546001600160a01b031633036107c357610b70611b06565b825b818110610b825783600160655580f35b6001906001600160a01b03610b9b61073783868861185a565b16855260d160205260ff60408620541615610bb7575b01610b72565b818060a01b03610bcb61073783868861185a565b16855260d1602052604085208260ff198254161790557f0c35b17d91c96eb2751cd456e1252f42a386e524ef9ff26ecc9950859fdc04fe6020610c1261073784878961185a565b60405190858060a01b03168152a1610bb1565b50346101fc57806003193601126101fc576020609854604051908152f35b50346101fc5760203660031901126101fc5760043560ff8116809103610c7957600190602092501b806098541614604051908152f35b5080fd5b50346101fc57806003193601126101fc5760405163237dfb4760e11b81523360048201526020816024817f00000000000000000000000000000000000000000000000000000000000000006001600160a01b03165afa908115610d5a578291610d2b575b5015610d1c575f196098556040515f1981527fab40a374bc51de372200a8bc981af8c9ecdc08dfdaef0bb6e09f88f3c616ef3d60203392a280f35b631d77d47760e21b8152600490fd5b610d4d915060203d602011610d53575b610d458183611648565b8101906117e4565b5f610ce1565b503d610d3b565b6040513d84823e3d90fd5b50346101fc57806003193601126101fc57610625610da27f0000000000000000000000000000000000000000000000000000000000000000611f20565b604051918291602083526020830190611707565b50346101fc57610dc5366116cd565b929091907f00000000000000000000000000000000000000000000000000000000000000006001600160a01b03163303610a9c576040610e0e858585610e09611b06565b611db3565b600160655582519182526020820152f35b50346101fc5760203660031901126101fc5780610e3a611606565b610e42611b06565b6001600160a01b038116907fd9d082c3ec4f3a3ffa55c324939a06407f5fbcb87d5e0ce3b9508c92c84ed839610e7783612156565b9283915084865260d6602052856040812055610e9285612266565b50604080516001600160a01b039290921682526020820192909252a180610ebd575b82600160655580f35b604051632495a59960e01b815290602082600481865afa918215610f92578492610f4e575b50823b15610f4957604051636ce5768960e11b8152620e16e460048201526001600160a01b03909216602483015260448201529082908290606490829084905af18015610d5a57610f34575b80610eb4565b81610f3e91611648565b6101fc57805f610f2e565b505050fd5b9091506020813d602011610f8a575b81610f6a60209383611648565b81010312610f4957516001600160a01b0381168103610f4957905f610ee2565b3d9150610f5d565b6040513d86823e3d90fd5b50346101fc57806003193601126101fc5760206040517f4337f82d142e41f2a8c10547cd8c859bddb92262a61058e77842e24d9dea92248152f35b50346101fc57806003193601126101fc5760d454610ff5816117fc565b906110036040519283611648565b80825261100f816117fc565b602083019390601f190136853761102582611814565b918160d454905b8281106110885750505060405192604084019060408552518091526060840194915b8181106110695784806106258887838203602085015261169a565b82516001600160a01b031686526020958601959092019160010161104e565b929492818110156110f6577f9780e26d96b1f2a9a18ef8fc72d589dbf03ef788137b64f43897e83a91e7feec810154600387901b1c80875260d66020526040872054600192916001600160a01b03166110e18388611846565b526110ec8288611846565b520194929461102c565b634e487b7160e01b86526032600452602486fd5b50346101fc5760c03660031901126101fc57611124611606565b61112c61161c565b604435916064356001600160a01b038116808203611318576084359060a43567ffffffffffffffff81116112c157366023820112156112c157878160040135916111758361167e565b926111836040519485611648565b8084523660248284010111610343578060246020930183860137830101526001806098541614611309576111b5611b06565b81885260ca6020526040882054926111d181858a8a8a8a61187e565b9042116112fa576111e28282612187565b60058194929410156112e65790848b93921594856112d3575b5050831561123a575b5050501561122b5795604060016104759796959493602099845260ca8a5201912055611b5c565b638baa579f60e01b8752600487fd5b82935061127d61126f916040519283916020830195630b135d3f60e11b87526024840152604060448401526064830190611707565b03601f198101835282611648565b5190865afa61128a6121bc565b816112c5575b8161129f575b50875f80611204565b90506020818051810103126112c15760200151630b135d3f60e11b145f611296565b8780fd5b905060208151101590611290565b6001600160a01b0316149350845f6111fb565b634e487b7160e01b8b52602160045260248bfd5b630819bdcd60e01b8952600489fd5b63840a48d560e01b8852600488fd5b8580fd5b50346113fb5760803660031901126113fb57611336611606565b61133e61161c565b90611347611632565b917f00000000000000000000000000000000000000000000000000000000000000006001600160a01b031633036113ff57611380611b06565b6001600160a01b031690813b156113fb57604051636ce5768960e11b81526001600160a01b039182166004820152921660248301526064803560448401525f91839190829084905af180156113f0576113dd575b50600160655580f35b6113e991505f90611648565b5f5f6113d4565b6040513d5f823e3d90fd5b5f80fd5b63f739589b60e01b5f5260045ffd5b346113fb5760603660031901126113fb57611427611606565b61142f61161c565b905f549160ff8360081c161592838094611539575b8015611522575b156114c65760ff1981166001175f55611479926106d691856114b5575b50611474604435611a39565b611a6b565b61147f57005b61ff00195f54165f557f7f26b83ff96e1f2b6a682f133852f6798a09c465da95921460cefb3847402498602060405160018152a1005b61ffff1916610101175f5585611468565b60405162461bcd60e51b815260206004820152602e60248201527f496e697469616c697a61626c653a20636f6e747261637420697320616c72656160448201526d191e481a5b9a5d1a585b1a5e995960921b6064820152608490fd5b50303b15801561144b5750600160ff82161461144b565b50600160ff821610611444565b346113fb5760203660031901126113fb5763237dfb4760e11b81523360048281019190915235906020816024817f00000000000000000000000000000000000000000000000000000000000000006001600160a01b03165afa9081156113f0575f916115e7575b50156115d857609854818116036115c9576115c790611a39565b005b63c61dca5d60e01b5f5260045ffd5b631d77d47760e21b5f5260045ffd5b611600915060203d602011610d5357610d458183611648565b826115ad565b600435906001600160a01b03821682036113fb57565b602435906001600160a01b03821682036113fb57565b604435906001600160a01b03821682036113fb57565b90601f8019910116810190811067ffffffffffffffff82111761166a57604052565b634e487b7160e01b5f52604160045260245ffd5b67ffffffffffffffff811161166a57601f01601f191660200190565b90602080835192838152019201905f5b8181106116b75750505090565b82518452602093840193909201916001016116aa565b60609060031901126113fb576004356001600160a01b03811681036113fb57906024356001600160a01b03811681036113fb579060443590565b805180835260209291819084018484015e5f828201840152601f01601f1916010190565b9060206003198301126113fb5760043567ffffffffffffffff81116113fb57826023820112156113fb5780600401359267ffffffffffffffff84116113fb5760248460051b830101116113fb576024019190565b90602080835192838152019201905f5b81811061179c5750505090565b82516001600160a01b031684526020938401939092019160010161178f565b80548210156117d0575f5260205f2001905f90565b634e487b7160e01b5f52603260045260245ffd5b908160209103126113fb575180151581036113fb5790565b67ffffffffffffffff811161166a5760051b60200190565b9061181e826117fc565b61182b6040519182611648565b828152809261183c601f19916117fc565b0190602036910137565b80518210156117d05760209160051b010190565b91908110156117d05760051b0190565b356001600160a01b03811681036113fb5790565b94929093916040519460208601967f4337f82d142e41f2a8c10547cd8c859bddb92262a61058e77842e24d9dea9224885260018060a01b0316604087015260018060a01b0316606086015260018060a01b0316608085015260a084015260c083015260e082015260e081526118f561010082611648565b519020611900611952565b9060405190602082019261190160f01b8452602283015260428201526042815261192b606282611648565b51902090565b9190820180921161193e57565b634e487b7160e01b5f52601160045260245ffd5b6040600a602082516119648482611648565b828152016922b4b3b2b72630bcb2b960b11b8152206119a27f0000000000000000000000000000000000000000000000000000000000000000611f20565b8051156117d05760ff60f81b602082015116908051600110156117d057602160ff60f81b91015116835190602082019283526021820152600281526119e8602282611648565b51902082519160208301937f8b73c3c69bb8fe3d512ecc4cf759cc79239f7b179b0ffacaa9a75d522b39400f855283015260608201524660808201523060a082015260a0815261192b60c082611648565b806098556040519081527fab40a374bc51de372200a8bc981af8c9ecdc08dfdaef0bb6e09f88f3c616ef3d60203392a2565b603380546001600160a01b039283166001600160a01b0319821681179092559091167f8be0079c531659141344cd1fd0a4f28419497f9722a3daafe3b4186f6b6457e05f80a3565b60cb54604080516001600160a01b03808416825290931660208401819052927f4264275e593955ff9d6146a51a4525f6ddace2e81db9391abcc9d1ca48047d299190a16001600160a01b0319161760cb55565b600260655414611b17576002606555565b60405162461bcd60e51b815260206004820152601f60248201527f5265656e7472616e637947756172643a207265656e7472616e742063616c6c006044820152606490fd5b6001600160a01b0382165f81815260d16020526040902054919392909160ff1615611da45760405194611c1260208701946323b872dd60e01b865233602489015284604489015282606489015260648852611bb8608489611648565b60018060a01b0316965f80604097885193611bd38a86611648565b602085527f5361666545524332303a206c6f772d6c6576656c2063616c6c206661696c656460208601525190828c5af1611c0b6121bc565b9089612382565b8051908115918215611d8a575b505015611d33578351956311f9fbc960e21b8752600487015260248601526020856044815f865af1948515611d29575f95611cf3575b5084611c619185611db3565b90939091907f00000000000000000000000000000000000000000000000000000000000000006001600160a01b031690813b156113fb575f608492819587519889968795631e328e7960e11b875260018060a01b031660048701526024860152604485015260648401525af1908115611cea5750611cdd575090565b5f611ce791611648565b90565b513d5f823e3d90fd5b9094506020813d602011611d21575b81611d0f60209383611648565b810103126113fb575193611c61611c55565b3d9150611d02565b83513d5f823e3d90fd5b835162461bcd60e51b815260206004820152602a60248201527f5361666545524332303a204552433230206f7065726174696f6e20646964206e6044820152691bdd081cdd58d8d9595960b21b6064820152608490fd5b611d9d92506020809183010191016117e4565b5f80611c1f565b632efd965160e11b5f5260045ffd5b9192916001600160a01b03168015611f11578315611f0257805f5260cd60205260405f2060018060a01b0383165f5260205260405f2054918215611e5e575b7f5548c837ab068cf56a2c2479df0882a4922fd203edb7517321831d95078c5f6291606091611e218786611931565b825f5260cd60205260405f2060018060a01b0383165f5260205260405f205560405191825260018060a01b03166020820152856040820152a19190565b815f5260ce602052602060405f20541015611ef357815f5260ce60205260405f2091825491600160401b83101561166a57611eea81611ec6857f5548c837ab068cf56a2c2479df0882a4922fd203edb7517321831d95078c5f629760016060980181556117bb565b81546001600160a01b0393841660039290921b91821b9390911b1916919091179055565b91509150611df2565b6301a1443960e31b5f5260045ffd5b6342061b2560e11b5f5260045ffd5b6316f2ccc960e01b5f5260045ffd5b60ff811690601f8211611f4f5760405191611f3c604084611648565b6020808452838101919036833783525290565b632cd44ac360e21b5f5260045ffd5b6033546001600160a01b03163303611f7257565b606460405162461bcd60e51b815260206004820152602060248201527f4f776e61626c653a2063616c6c6572206973206e6f7420746865206f776e65726044820152fd5b929091928315611f025760018060a01b0316805f5260cd60205260405f2060018060a01b0384165f5260205260405f205493848111612147578085039480861161193e57825f5260cd60205260405f2060018060a01b0386165f526020528560405f20551461202657505f929150565b5f81815260ce602052604081205492939192916001600160a01b03165b8282106120af575b50146120a0575f5260ce60205260405f208054801561208c575f19019061207282826117bb565b81549060018060a01b039060031b1b191690555560019190565b634e487b7160e01b5f52603160045260245ffd5b632df15a4160e11b5f5260045ffd5b93929190825f5260ce602052846120c98260405f206117bb565b905460039190911b1c6001600160a01b0316146120ec5760010190919293612043565b5f83815260ce6020526040902080549495509293919290915f1981019190821161193e576121419161211d916117bb565b60018060a01b0391549060031b1c16845f5260ce602052611ec68360405f206117bb565b5f61204b565b634b18b19360e01b5f5260045ffd5b805f5260d660205260405f205480155f1461217f57505f5260d560205260405f20541515905f90565b600192909150565b9060418151145f146121b3576121af91602082015190606060408401519301515f1a906121eb565b9091565b50505f90600290565b3d156121e6573d906121cd8261167e565b916121db6040519384611648565b82523d5f602084013e565b606090565b7f7fffffffffffffffffffffffffffffff5d576e7357a4501ddfe92f46681b20a0841161225b576020935f9360ff60809460405194855216868401526040830152606082015282805260015afa156113f0575f516001600160a01b0381161561225357905f90565b505f90600190565b505050505f90600390565b5f81815260d560205260409020548015612327575f19810181811161193e5760d4545f1981019190821161193e578082036122d9575b50505060d454801561208c575f19016122b68160d46117bb565b8154905f199060031b1b1916905560d4555f5260d56020525f6040812055600190565b6123116122ea6122fb9360d46117bb565b90549060031b1c92839260d46117bb565b819391549060031b91821b915f19901b19161790565b90555f5260d560205260405f20555f808061229c565b50505f90565b805f5260d560205260405f2054155f1461237d5760d454600160401b81101561166a576123666122fb82600185940160d45560d46117bb565b905560d454905f5260d560205260405f2055600190565b505f90565b919290156123e45750815115612396575090565b3b1561239f5790565b60405162461bcd60e51b815260206004820152601d60248201527f416464726573733a2063616c6c20746f206e6f6e2d636f6e74726163740000006044820152606490fd5b8251909150156123f75750805190602001fd5b60405162461bcd60e51b81526020600482015290819061241b906024830190611707565b0390fdfea2646970667358221220f7de6439fd9e437d8dffd7b3d61f4516f69836efb38fa6f1d4f590b87dac6c9464736f6c634300081b0033","linkReferences":{}},"methodIdentifiers":{"DEFAULT_BURN_ADDRESS()":"f3b4a000","DEPOSIT_TYPEHASH()":"48825e94","addShares(address,address,uint256)":"50ff7225","addStrategiesToDepositWhitelist(address[])":"5de08ff2","burnShares(address)":"4b6d5d6e","calculateStrategyDepositDigestHash(address,address,address,uint256,uint256,uint256)":"9ac01d61","delegation()":"df5cf723","depositIntoStrategy(address,address,uint256)":"e7a050aa","depositIntoStrategyWithSignature(address,address,uint256,address,uint256,bytes)":"32e89ace","domainSeparator()":"f698da25","getBurnableShares(address)":"fd980423","getDeposits(address)":"94f649dd","getStakerStrategyList(address)":"de44acb6","getStrategiesWithBurnableShares()":"36a8c500","increaseBurnableShares(address,uint256)":"debe1eab","initialize(address,address,uint256)":"1794bb3c","nonces(address)":"7ecebe00","owner()":"8da5cb5b","pause(uint256)":"136439dd","pauseAll()":"595c6a67","paused()":"5c975abb","paused(uint8)":"5ac86ab7","pauserRegistry()":"886f1195","removeDepositShares(address,address,uint256)":"724af423","removeStrategiesFromDepositWhitelist(address[])":"b5d8b5b8","renounceOwnership()":"715018a6","setStrategyWhitelister(address)":"c6656702","stakerDepositShares(address,address)":"fe243a17","stakerStrategyList(address,uint256)":"cbc2bd62","stakerStrategyListLength(address)":"8b8aac3c","strategyIsWhitelistedForDeposit(address)":"663c1de4","strategyWhitelister()":"967fc0d2","transferOwnership(address)":"f2fde38b","unpause(uint256)":"fabc1cbc","version()":"54fd4d50","withdrawSharesAsTokens(address,address,address,uint256)":"2eae418c"},"id":8}