{"abi":[{"type":"fallback","stateMutability":"nonpayable"},{"type":"function","name":"supportsAVS","inputs":[{"name":"","type":"address","internalType":"address"}],"outputs":[{"name":"","type":"bool","internalType":"bool"}],"stateMutability":"pure"}],"bytecode":{"object":"0x6080604052348015600e575f5ffd5b5060ae80601a5f395ff3fe6080604052348015600e575f5ffd5b50600436106026575f3560e01c8063b5265787146028575b005b60396033366004604d565b50600190565b604051901515815260200160405180910390f35b5f60208284031215605c575f5ffd5b81356001600160a01b03811681146071575f5ffd5b939250505056fea264697066735822122092f13dade6632a6e085be3b3d40ae24036f15255c876c7225f9df693081adaa364736f6c634300081b0033","linkReferences":{}},"methodIdentifiers":{"supportsAVS(address)":"b5265787"},"id":239}