{"abi":[{"type":"constructor","inputs":[{"name":"_pauserRegistry","type":"address","internalType":"contract IPauserRegistry"}],"stateMutability":"nonpayable"},{"type":"function","name":"initializePauser","inputs":[{"name":"initPausedStatus","type":"uint256","internalType":"uint256"}],"outputs":[],"stateMutability":"nonpayable"},{"type":"function","name":"pause","inputs":[{"name":"newPausedStatus","type":"uint256","internalType":"uint256"}],"outputs":[],"stateMutability":"nonpayable"},{"type":"function","name":"pauseAll","inputs":[],"outputs":[],"stateMutability":"nonpayable"},{"type":"function","name":"paused","inputs":[{"name":"index","type":"uint8","internalType":"uint8"}],"outputs":[{"name":"","type":"bool","internalType":"bool"}],"stateMutability":"view"},{"type":"function","name":"paused","inputs":[],"outputs":[{"name":"","type":"uint256","internalType":"uint256"}],"stateMutability":"view"},{"type":"function","name":"pauserRegistry","inputs":[],"outputs":[{"name":"","type":"address","internalType":"contract IPauserRegistry"}],"stateMutability":"view"},{"type":"function","name":"unpause","inputs":[{"name":"newPausedStatus","type":"uint256","internalType":"uint256"}],"outputs":[],"stateMutability":"nonpayable"},{"type":"event","name":"Paused","inputs":[{"name":"account","type":"address","indexed":true,"internalType":"address"},{"name":"newPausedStatus","type":"uint256","indexed":false,"internalType":"uint256"}],"anonymous":false},{"type":"event","name":"Unpaused","inputs":[{"name":"account","type":"address","indexed":true,"internalType":"address"},{"name":"newPausedStatus","type":"uint256","indexed":false,"internalType":"uint256"}],"anonymous":false},{"type":"error","name":"CurrentlyPaused","inputs":[]},{"type":"error","name":"InputAddressZero","inputs":[]},{"type":"error","name":"InvalidNewPausedStatus","inputs":[]},{"type":"error","name":"OnlyPauser","inputs":[]},{"type":"error","name":"OnlyUnpauser","inputs":[]}],"bytecode":{"object":"0x60a060405234801561000f575f5ffd5b506040516105a23803806105a283398101604081905261002e91610068565b806001600160a01b038116610056576040516339b190bb60e11b815260040160405180910390fd5b6001600160a01b031660805250610095565b5f60208284031215610078575f5ffd5b81516001600160a01b038116811461008e575f5ffd5b9392505050565b6080516104e16100c15f395f818160e50152818161015a0152818161022f01526102d701526104e15ff3fe608060405234801561000f575f5ffd5b506004361061007a575f3560e01c80635c975abb116100585780635c975abb146100cf578063886f1195146100e0578063cd985e9c1461011f578063fabc1cbc14610132575f5ffd5b8063136439dd1461007e578063595c6a67146100935780635ac86ab71461009b575b5f5ffd5b61009161008c366004610428565b610145565b005b61009161021a565b6100ba6100a936600461043f565b6001805460ff9092161b9081161490565b60405190151581526020015b60405180910390f35b6001546040519081526020016100c6565b6101077f000000000000000000000000000000000000000000000000000000000000000081565b6040516001600160a01b0390911681526020016100c6565b61009161012d366004610428565b6102c9565b610091610140366004610428565b6102d5565b60405163237dfb4760e11b81523360048201527f00000000000000000000000000000000000000000000000000000000000000006001600160a01b0316906346fbf68e90602401602060405180830381865afa1580156101a7573d5f5f3e3d5ffd5b505050506040513d601f19601f820116820180604052508101906101cb9190610466565b6101e857604051631d77d47760e21b815260040160405180910390fd5b600154818116811461020d5760405163c61dca5d60e01b815260040160405180910390fd5b610216826103eb565b5050565b60405163237dfb4760e11b81523360048201527f00000000000000000000000000000000000000000000000000000000000000006001600160a01b0316906346fbf68e90602401602060405180830381865afa15801561027c573d5f5f3e3d5ffd5b505050506040513d601f19601f820116820180604052508101906102a09190610466565b6102bd57604051631d77d47760e21b815260040160405180910390fd5b6102c75f196103eb565b565b6102d2816103eb565b50565b7f00000000000000000000000000000000000000000000000000000000000000006001600160a01b031663eab66d7a6040518163ffffffff1660e01b8152600401602060405180830381865afa158015610331573d5f5f3e3d5ffd5b505050506040513d601f19601f820116820180604052508101906103559190610485565b6001600160a01b0316336001600160a01b0316146103865760405163794821ff60e01b815260040160405180910390fd5b600154801982198116146103ad5760405163c61dca5d60e01b815260040160405180910390fd5b600182905560405182815233907f3582d1828e26bf56bd801502bc021ac0bc8afb57c826e4986b45593c8fad389c9060200160405180910390a25050565b600181905560405181815233907fab40a374bc51de372200a8bc981af8c9ecdc08dfdaef0bb6e09f88f3c616ef3d9060200160405180910390a250565b5f60208284031215610438575f5ffd5b5035919050565b5f6020828403121561044f575f5ffd5b813560ff8116811461045f575f5ffd5b9392505050565b5f60208284031215610476575f5ffd5b8151801515811461045f575f5ffd5b5f60208284031215610495575f5ffd5b81516001600160a01b038116811461045f575f5ffdfea2646970667358221220b15d700859f75bed1b7c7772b4b460acdfc20ac4578e0217ea53a0207fa9812564736f6c634300081b0033","linkReferences":{}},"methodIdentifiers":{"initializePauser(uint256)":"cd985e9c","pause(uint256)":"136439dd","pauseAll()":"595c6a67","paused()":"5c975abb","paused(uint8)":"5ac86ab7","pauserRegistry()":"886f1195","unpause(uint256)":"fabc1cbc"},"id":179}