{"abi":[{"type":"constructor","inputs":[{"name":"_pausers","type":"address[]","internalType":"address[]"},{"name":"_unpauser","type":"address","internalType":"address"}],"stateMutability":"nonpayable"},{"type":"function","name":"isPauser","inputs":[{"name":"","type":"address","internalType":"address"}],"outputs":[{"name":"","type":"bool","internalType":"bool"}],"stateMutability":"view"},{"type":"function","name":"setIsPauser","inputs":[{"name":"newPauser","type":"address","internalType":"address"},{"name":"canPause","type":"bool","internalType":"bool"}],"outputs":[],"stateMutability":"nonpayable"},{"type":"function","name":"setUnpauser","inputs":[{"name":"newUnpauser","type":"address","internalType":"address"}],"outputs":[],"stateMutability":"nonpayable"},{"type":"function","name":"unpauser","inputs":[],"outputs":[{"name":"","type":"address","internalType":"address"}],"stateMutability":"view"},{"type":"event","name":"PauserStatusChanged","inputs":[{"name":"pauser","type":"address","indexed":false,"internalType":"address"},{"name":"canPause","type":"bool","indexed":false,"internalType":"bool"}],"anonymous":false},{"type":"event","name":"UnpauserChanged","inputs":[{"name":"previousUnpauser","type":"address","indexed":false,"internalType":"address"},{"name":"newUnpauser","type":"address","indexed":false,"internalType":"address"}],"anonymous":false},{"type":"error","name":"InputAddressZero","inputs":[]},{"type":"error","name":"OnlyUnpauser","inputs":[]}],"bytecode":{"object":"0x608060405234801561000f575f5ffd5b506040516105c83803806105c883398101604081905261002e916101c2565b5f5b825181101561006b5761006383828151811061004e5761004e61029e565b6020026020010151600161007c60201b60201c565b600101610030565b5061007581610103565b50506102b2565b6001600160a01b0382166100a3576040516339b190bb60e11b815260040160405180910390fd5b6001600160a01b0382165f8181526020818152604091829020805460ff19168515159081179091558251938452908301527f65d3a1fd4c13f05cba164f80d03ce90fb4b5e21946bfc3ab7dbd434c2d0b9152910160405180910390a15050565b6001600160a01b03811661012a576040516339b190bb60e11b815260040160405180910390fd5b600154604080516001600160a01b03928316815291831660208301527f06b4167a2528887a1e97a366eefe8549bfbf1ea3e6ac81cb2564a934d20e8892910160405180910390a1600180546001600160a01b0319166001600160a01b0392909216919091179055565b634e487b7160e01b5f52604160045260245ffd5b80516001600160a01b03811681146101bd575f5ffd5b919050565b5f5f604083850312156101d3575f5ffd5b82516001600160401b038111156101e8575f5ffd5b8301601f810185136101f8575f5ffd5b80516001600160401b0381111561021157610211610193565b604051600582901b90603f8201601f191681016001600160401b038111828210171561023f5761023f610193565b60405291825260208184018101929081018884111561025c575f5ffd5b6020850194505b8385101561028257610274856101a7565b815260209485019401610263565b50945061029592505050602084016101a7565b90509250929050565b634e487b7160e01b5f52603260045260245ffd5b610309806102bf5f395ff3fe608060405234801561000f575f5ffd5b506004361061004a575f3560e01c806346fbf68e1461004e5780638568520614610085578063ce5484281461009a578063eab66d7a146100ad575b5f5ffd5b61007061005c36600461027a565b5f6020819052908152604090205460ff1681565b60405190151581526020015b60405180910390f35b61009861009336600461029a565b6100d8565b005b6100986100a836600461027a565b610111565b6001546100c0906001600160a01b031681565b6040516001600160a01b03909116815260200161007c565b6001546001600160a01b031633146101035760405163794821ff60e01b815260040160405180910390fd5b61010d8282610148565b5050565b6001546001600160a01b0316331461013c5760405163794821ff60e01b815260040160405180910390fd5b610145816101cf565b50565b6001600160a01b03821661016f576040516339b190bb60e11b815260040160405180910390fd5b6001600160a01b0382165f8181526020818152604091829020805460ff19168515159081179091558251938452908301527f65d3a1fd4c13f05cba164f80d03ce90fb4b5e21946bfc3ab7dbd434c2d0b9152910160405180910390a15050565b6001600160a01b0381166101f6576040516339b190bb60e11b815260040160405180910390fd5b600154604080516001600160a01b03928316815291831660208301527f06b4167a2528887a1e97a366eefe8549bfbf1ea3e6ac81cb2564a934d20e8892910160405180910390a1600180546001600160a01b0319166001600160a01b0392909216919091179055565b80356001600160a01b0381168114610275575f5ffd5b919050565b5f6020828403121561028a575f5ffd5b6102938261025f565b9392505050565b5f5f604083850312156102ab575f5ffd5b6102b48361025f565b9150602083013580151581146102c8575f5ffd5b80915050925092905056fea2646970667358221220db74dd8a1c2636fc45fee53a0fefff90f86f0498901cb732dc4c0ce26247557164736f6c634300081b0033","linkReferences":{}},"methodIdentifiers":{"isPauser(address)":"46fbf68e","setIsPauser(address,bool)":"85685206","setUnpauser(address)":"ce548428","unpauser()":"eab66d7a"},"id":158}