{"abi":[{"type":"constructor","inputs":[{"name":"_EIGEN","type":"address","internalType":"contract IERC20"}],"stateMutability":"nonpayable"},{"type":"function","name":"CLOCK_MODE","inputs":[],"outputs":[{"name":"","type":"string","internalType":"string"}],"stateMutability":"pure"},{"type":"function","name":"DOMAIN_SEPARATOR","inputs":[],"outputs":[{"name":"","type":"bytes32","internalType":"bytes32"}],"stateMutability":"view"},{"type":"function","name":"EIGEN","inputs":[],"outputs":[{"name":"","type":"address","internalType":"contract IERC20"}],"stateMutability":"view"},{"type":"function","name":"allowance","inputs":[{"name":"owner","type":"address","internalType":"address"},{"name":"spender","type":"address","internalType":"address"}],"outputs":[{"name":"","type":"uint256","internalType":"uint256"}],"stateMutability":"view"},{"type":"function","name":"allowedFrom","inputs":[{"name":"","type":"address","internalType":"address"}],"outputs":[{"name":"","type":"bool","internalType":"bool"}],"stateMutability":"view"},{"type":"function","name":"allowedTo","inputs":[{"name":"","type":"address","internalType":"address"}],"outputs":[{"name":"","type":"bool","internalType":"bool"}],"stateMutability":"view"},{"type":"function","name":"approve","inputs":[{"name":"spender","type":"address","internalType":"address"},{"name":"amount","type":"uint256","internalType":"uint256"}],"outputs":[{"name":"","type":"bool","internalType":"bool"}],"stateMutability":"nonpayable"},{"type":"function","name":"balanceOf","inputs":[{"name":"account","type":"address","internalType":"address"}],"outputs":[{"name":"","type":"uint256","internalType":"uint256"}],"stateMutability":"view"},{"type":"function","name":"burn","inputs":[{"name":"amount","type":"uint256","internalType":"uint256"}],"outputs":[],"stateMutability":"nonpayable"},{"type":"function","name":"checkpoints","inputs":[{"name":"account","type":"address","internalType":"address"},{"name":"pos","type":"uint32","internalType":"uint32"}],"outputs":[{"name":"","type":"tuple","internalType":"struct ERC20VotesUpgradeable.Checkpoint","components":[{"name":"fromBlock","type":"uint32","internalType":"uint32"},{"name":"votes","type":"uint224","internalType":"uint224"}]}],"stateMutability":"view"},{"type":"function","name":"clock","inputs":[],"outputs":[{"name":"","type":"uint48","internalType":"uint48"}],"stateMutability":"view"},{"type":"function","name":"decimals","inputs":[],"outputs":[{"name":"","type":"uint8","internalType":"uint8"}],"stateMutability":"view"},{"type":"function","name":"decreaseAllowance","inputs":[{"name":"spender","type":"address","internalType":"address"},{"name":"subtractedValue","type":"uint256","internalType":"uint256"}],"outputs":[{"name":"","type":"bool","internalType":"bool"}],"stateMutability":"nonpayable"},{"type":"function","name":"delegate","inputs":[{"name":"delegatee","type":"address","internalType":"address"}],"outputs":[],"stateMutability":"nonpayable"},{"type":"function","name":"delegateBySig","inputs":[{"name":"delegatee","type":"address","internalType":"address"},{"name":"nonce","type":"uint256","internalType":"uint256"},{"name":"expiry","type":"uint256","internalType":"uint256"},{"name":"v","type":"uint8","internalType":"uint8"},{"name":"r","type":"bytes32","internalType":"bytes32"},{"name":"s","type":"bytes32","internalType":"bytes32"}],"outputs":[],"stateMutability":"nonpayable"},{"type":"function","name":"delegates","inputs":[{"name":"account","type":"address","internalType":"address"}],"outputs":[{"name":"","type":"address","internalType":"address"}],"stateMutability":"view"},{"type":"function","name":"disableTransferRestrictions","inputs":[],"outputs":[],"stateMutability":"nonpayable"},{"type":"function","name":"eip712Domain","inputs":[],"outputs":[{"name":"fields","type":"bytes1","internalType":"bytes1"},{"name":"name","type":"string","internalType":"string"},{"name":"version","type":"string","internalType":"string"},{"name":"chainId","type":"uint256","internalType":"uint256"},{"name":"verifyingContract","type":"address","internalType":"address"},{"name":"salt","type":"bytes32","internalType":"bytes32"},{"name":"extensions","type":"uint256[]","internalType":"uint256[]"}],"stateMutability":"view"},{"type":"function","name":"getPastTotalSupply","inputs":[{"name":"timepoint","type":"uint256","internalType":"uint256"}],"outputs":[{"name":"","type":"uint256","internalType":"uint256"}],"stateMutability":"view"},{"type":"function","name":"getPastVotes","inputs":[{"name":"account","type":"address","internalType":"address"},{"name":"timepoint","type":"uint256","internalType":"uint256"}],"outputs":[{"name":"","type":"uint256","internalType":"uint256"}],"stateMutability":"view"},{"type":"function","name":"getVotes","inputs":[{"name":"account","type":"address","internalType":"address"}],"outputs":[{"name":"","type":"uint256","internalType":"uint256"}],"stateMutability":"view"},{"type":"function","name":"increaseAllowance","inputs":[{"name":"spender","type":"address","internalType":"address"},{"name":"addedValue","type":"uint256","internalType":"uint256"}],"outputs":[{"name":"","type":"bool","internalType":"bool"}],"stateMutability":"nonpayable"},{"type":"function","name":"initialize","inputs":[{"name":"initialOwner","type":"address","internalType":"address"}],"outputs":[],"stateMutability":"nonpayable"},{"type":"function","name":"isMinter","inputs":[{"name":"","type":"address","internalType":"address"}],"outputs":[{"name":"","type":"bool","internalType":"bool"}],"stateMutability":"view"},{"type":"function","name":"mint","inputs":[{"name":"to","type":"address","internalType":"address"},{"name":"amount","type":"uint256","internalType":"uint256"}],"outputs":[],"stateMutability":"nonpayable"},{"type":"function","name":"name","inputs":[],"outputs":[{"name":"","type":"string","internalType":"string"}],"stateMutability":"view"},{"type":"function","name":"nonces","inputs":[{"name":"owner","type":"address","internalType":"address"}],"outputs":[{"name":"","type":"uint256","internalType":"uint256"}],"stateMutability":"view"},{"type":"function","name":"numCheckpoints","inputs":[{"name":"account","type":"address","internalType":"address"}],"outputs":[{"name":"","type":"uint32","internalType":"uint32"}],"stateMutability":"view"},{"type":"function","name":"owner","inputs":[],"outputs":[{"name":"","type":"address","internalType":"address"}],"stateMutability":"view"},{"type":"function","name":"permit","inputs":[{"name":"owner","type":"address","internalType":"address"},{"name":"spender","type":"address","internalType":"address"},{"name":"value","type":"uint256","internalType":"uint256"},{"name":"deadline","type":"uint256","internalType":"uint256"},{"name":"v","type":"uint8","internalType":"uint8"},{"name":"r","type":"bytes32","internalType":"bytes32"},{"name":"s","type":"bytes32","internalType":"bytes32"}],"outputs":[],"stateMutability":"nonpayable"},{"type":"function","name":"renounceOwnership","inputs":[],"outputs":[],"stateMutability":"nonpayable"},{"type":"function","name":"setAllowedFrom","inputs":[{"name":"from","type":"address","internalType":"address"},{"name":"isAllowedFrom","type":"bool","internalType":"bool"}],"outputs":[],"stateMutability":"nonpayable"},{"type":"function","name":"setAllowedTo","inputs":[{"name":"to","type":"address","internalType":"address"},{"name":"isAllowedTo","type":"bool","internalType":"bool"}],"outputs":[],"stateMutability":"nonpayable"},{"type":"function","name":"setIsMinter","inputs":[{"name":"minterAddress","type":"address","internalType":"address"},{"name":"newStatus","type":"bool","internalType":"bool"}],"outputs":[],"stateMutability":"nonpayable"},{"type":"function","name":"symbol","inputs":[],"outputs":[{"name":"","type":"string","internalType":"string"}],"stateMutability":"view"},{"type":"function","name":"totalSupply","inputs":[],"outputs":[{"name":"","type":"uint256","internalType":"uint256"}],"stateMutability":"view"},{"type":"function","name":"transfer","inputs":[{"name":"to","type":"address","internalType":"address"},{"name":"amount","type":"uint256","internalType":"uint256"}],"outputs":[{"name":"","type":"bool","internalType":"bool"}],"stateMutability":"nonpayable"},{"type":"function","name":"transferFrom","inputs":[{"name":"from","type":"address","internalType":"address"},{"name":"to","type":"address","internalType":"address"},{"name":"amount","type":"uint256","internalType":"uint256"}],"outputs":[{"name":"","type":"bool","internalType":"bool"}],"stateMutability":"nonpayable"},{"type":"function","name":"transferOwnership","inputs":[{"name":"newOwner","type":"address","internalType":"address"}],"outputs":[],"stateMutability":"nonpayable"},{"type":"function","name":"transferRestrictionsDisabledAfter","inputs":[],"outputs":[{"name":"","type":"uint256","internalType":"uint256"}],"stateMutability":"view"},{"type":"event","name":"Approval","inputs":[{"name":"owner","type":"address","indexed":true,"internalType":"address"},{"name":"spender","type":"address","indexed":true,"internalType":"address"},{"name":"value","type":"uint256","indexed":false,"internalType":"uint256"}],"anonymous":false},{"type":"event","name":"Backed","inputs":[],"anonymous":false},{"type":"event","name":"DelegateChanged","inputs":[{"name":"delegator","type":"address","indexed":true,"internalType":"address"},{"name":"fromDelegate","type":"address","indexed":true,"internalType":"address"},{"name":"toDelegate","type":"address","indexed":true,"internalType":"address"}],"anonymous":false},{"type":"event","name":"DelegateVotesChanged","inputs":[{"name":"delegate","type":"address","indexed":true,"internalType":"address"},{"name":"previousBalance","type":"uint256","indexed":false,"internalType":"uint256"},{"name":"newBalance","type":"uint256","indexed":false,"internalType":"uint256"}],"anonymous":false},{"type":"event","name":"EIP712DomainChanged","inputs":[],"anonymous":false},{"type":"event","name":"Initialized","inputs":[{"name":"version","type":"uint8","indexed":false,"internalType":"uint8"}],"anonymous":false},{"type":"event","name":"IsMinterModified","inputs":[{"name":"minterAddress","type":"address","indexed":true,"internalType":"address"},{"name":"newStatus","type":"bool","indexed":false,"internalType":"bool"}],"anonymous":false},{"type":"event","name":"OwnershipTransferred","inputs":[{"name":"previousOwner","type":"address","indexed":true,"internalType":"address"},{"name":"newOwner","type":"address","indexed":true,"internalType":"address"}],"anonymous":false},{"type":"event","name":"SetAllowedFrom","inputs":[{"name":"from","type":"address","indexed":true,"internalType":"address"},{"name":"isAllowedFrom","type":"bool","indexed":false,"internalType":"bool"}],"anonymous":false},{"type":"event","name":"SetAllowedTo","inputs":[{"name":"to","type":"address","indexed":true,"internalType":"address"},{"name":"isAllowedTo","type":"bool","indexed":false,"internalType":"bool"}],"anonymous":false},{"type":"event","name":"Transfer","inputs":[{"name":"from","type":"address","indexed":true,"internalType":"address"},{"name":"to","type":"address","indexed":true,"internalType":"address"},{"name":"value","type":"uint256","indexed":false,"internalType":"uint256"}],"anonymous":false},{"type":"event","name":"TransferRestrictionsDisabled","inputs":[],"anonymous":false}],"bytecode":{"object":"0x60a060405234801561000f575f5ffd5b50604051612d11380380612d1183398101604081905261002e91610105565b6001600160a01b038116608052610043610049565b50610132565b5f54610100900460ff16156100b45760405162461bcd60e51b815260206004820152602760248201527f496e697469616c697a61626c653a20636f6e747261637420697320696e697469604482015266616c697a696e6760c81b606482015260840160405180910390fd5b5f5460ff90811614610103575f805460ff191660ff9081179091556040519081527f7f26b83ff96e1f2b6a682f133852f6798a09c465da95921460cefb38474024989060200160405180910390a15b565b5f60208284031215610115575f5ffd5b81516001600160a01b038116811461012b575f5ffd5b9392505050565b608051612bb261015f5f395f81816105e901528181610dae01528181610dd90152610e040152612bb25ff3fe608060405234801561000f575f5ffd5b506004361061023f575f3560e01c80637ecebe0011610135578063aa271e1a116100b4578063dd62ed3e11610079578063dd62ed3e14610579578063eb415f451461058c578063f1127ed814610594578063f2fde38b146105d1578063fdc371ce146105e4575f5ffd5b8063aa271e1a1461050a578063b8c255941461052d578063c3cda52014610540578063c4d66de814610553578063d505accf14610566575f5ffd5b806395d89b41116100fa57806395d89b41146104bf5780639ab24eb0146104c75780639aec4bae146104da578063a457c2d7146104e4578063a9059cbb146104f7575f5ffd5b80637ecebe001461044e57806384b0196e146104615780638da5cb5b1461047c5780638e539e8c1461048d57806391ddadf4146104a0575f5ffd5b806340c10f19116101c157806366eb399f1161018657806366eb399f146103c05780636fcfff45146103d357806370a08231146103fb578063715018a61461042357806378aa33ba1461042b575f5ffd5b806340c10f191461031a57806342966c681461032d5780634bf5d7e914610340578063587cde1e1461036a5780635c19a95c146103ad575f5ffd5b806323b872dd1161020757806323b872dd146102ca578063313ce567146102dd5780633644e515146102ec57806339509351146102f45780633a46b1a814610307575f5ffd5b80630455e6941461024357806306fdde031461027b578063095ea7b31461029057806318160ddd146102a35780631ffacdef146102b5575b5f5ffd5b610266610251366004612682565b6101316020525f908152604090205460ff1681565b60405190151581526020015b60405180910390f35b61028361060b565b60405161027291906126c9565b61026661029e3660046126db565b61069b565b6067545b604051908152602001610272565b6102c86102c3366004612703565b6106b4565b005b6102666102d836600461273c565b6106ca565b60405160128152602001610272565b6102a76106ed565b6102666103023660046126db565b6106fb565b6102a76103153660046126db565b61071c565b6102c86103283660046126db565b6107a4565b6102c861033b366004612776565b61081f565b60408051808201909152600e81526d06d6f64653d74696d657374616d760941b6020820152610283565b610395610378366004612682565b6001600160a01b039081165f90815260fe60205260409020541690565b6040516001600160a01b039091168152602001610272565b6102c86103bb366004612682565b61082c565b6102c86103ce366004612703565b610836565b6103e66103e1366004612682565b6108ae565b60405163ffffffff9091168152602001610272565b6102a7610409366004612682565b6001600160a01b03165f9081526065602052604090205490565b6102c86108cf565b610266610439366004612682565b6101326020525f908152604090205460ff1681565b6102a761045c366004612682565b6108e2565b6104696108ff565b604051610272979695949392919061278d565b6033546001600160a01b0316610395565b6102a761049b366004612776565b610998565b6104a86109ff565b60405165ffffffffffff9091168152602001610272565b610283610a09565b6102a76104d5366004612682565b610a18565b6102a76101305481565b6102666104f23660046126db565b610a95565b6102666105053660046126db565b610b0f565b610266610518366004612682565b6101336020525f908152604090205460ff1681565b6102c861053b366004612703565b610b1c565b6102c861054e366004612833565b610b2e565b6102c8610561366004612682565b610c63565b6102c8610574366004612887565b610ea5565b6102a76105873660046128ed565b611006565b6102c8611030565b6105a76105a236600461291e565b6110fe565b60408051825163ffffffff1681526020928301516001600160e01b03169281019290925201610272565b6102c86105df366004612682565b61117f565b6103957f000000000000000000000000000000000000000000000000000000000000000081565b60606068805461061a90612950565b80601f016020809104026020016040519081016040528092919081815260200182805461064690612950565b80156106915780601f1061066857610100808354040283529160200191610691565b820191905f5260205f20905b81548152906001019060200180831161067457829003601f168201915b5050505050905090565b5f336106a88185856111f5565b60019150505b92915050565b6106bc611318565b6106c68282611372565b5050565b5f336106d78582856113d2565b6106e285858561144a565b506001949350505050565b5f6106f6611604565b905090565b5f336106a881858561070d8383611006565b6107179190612996565b6111f5565b5f6107256109ff565b65ffffffffffff16821061077c5760405162461bcd60e51b815260206004820152601960248201527804552433230566f7465733a20667574757265206c6f6f6b757603c1b60448201526064015b60405180910390fd5b6001600160a01b0383165f90815260ff6020526040902061079d908361160d565b9392505050565b335f908152610133602052604090205460ff166108155760405162461bcd60e51b815260206004820152602960248201527f4261636b696e67456967656e2e6d696e743a2063616c6c6572206973206e6f7460448201526810309036b4b73a32b960b91b6064820152608401610773565b6106c682826116ee565b6108293382611779565b50565b6108293382611792565b61083e611318565b816001600160a01b03167f0124b12503bddc2616c0f3f54fd23ed283f5ef0c1483a75409e42612176b8bde8260405161087b911515815260200190565b60405180910390a26001600160a01b03919091165f90815261013360205260409020805460ff1916911515919091179055565b6001600160a01b0381165f90815260ff60205260408120546106ae9061180b565b6108d7611318565b6108e05f611873565b565b6001600160a01b0381165f90815260cb60205260408120546106ae565b5f6060805f5f5f60606097545f5f1b14801561091b5750609854155b61095f5760405162461bcd60e51b81526020600482015260156024820152741152540dcc4c8e88155b9a5b9a5d1a585b1a5e9959605a1b6044820152606401610773565b6109676118c4565b61096f6118d3565b604080515f80825260208201909252600f60f81b9b939a50919850469750309650945092509050565b5f6109a16109ff565b65ffffffffffff1682106109f35760405162461bcd60e51b815260206004820152601960248201527804552433230566f7465733a20667574757265206c6f6f6b757603c1b6044820152606401610773565b6106ae6101008361160d565b5f6106f6426118e2565b60606069805461061a90612950565b6001600160a01b0381165f90815260ff60205260408120548015610a83576001600160a01b0383165f90815260ff6020526040902080545f198301908110610a6257610a626129bd565b5f9182526020909120015464010000000090046001600160e01b0316610a85565b5f5b6001600160e01b03169392505050565b5f3381610aa28286611006565b905083811015610b025760405162461bcd60e51b815260206004820152602560248201527f45524332303a2064656372656173656420616c6c6f77616e63652062656c6f77604482015264207a65726f60d81b6064820152608401610773565b6106e282868684036111f5565b5f336106a881858561144a565b610b24611318565b6106c68282611948565b83421115610b7e5760405162461bcd60e51b815260206004820152601d60248201527f4552433230566f7465733a207369676e617475726520657870697265640000006044820152606401610773565b604080517fe48329057bfd03d55e49b547132e39cffd9c1820ad7b9d4c5307691425d15adf60208201526001600160a01b0388169181019190915260608101869052608081018590525f90610bf790610bef9060a001604051602081830303815290604052805190602001206119a0565b8585856119cc565b9050610c02816119f2565b8614610c505760405162461bcd60e51b815260206004820152601960248201527f4552433230566f7465733a20696e76616c6964206e6f6e6365000000000000006044820152606401610773565b610c5a8188611792565b50505050505050565b5f54610100900460ff1615808015610c8157505f54600160ff909116105b80610c9a5750303b158015610c9a57505f5460ff166001145b610cfd5760405162461bcd60e51b815260206004820152602e60248201527f496e697469616c697a61626c653a20636f6e747261637420697320616c72656160448201526d191e481a5b9a5d1a585b1a5e995960921b6064820152608401610773565b5f805460ff191660011790558015610d1e575f805461ff0019166101001790555b610d26611a19565b610d736040518060400160405280600d81526020016c2130b1b5b4b7339022b4b3b2b760991b815250604051806040016040528060068152602001653122a4a3a2a760d11b815250611a47565b610d7c82611873565b610da3604051806040016040528060068152602001653122a4a3a2a760d11b815250611a77565b5f1961013055610dd47f00000000000000000000000000000000000000000000000000000000000000006001611372565b610dff7f00000000000000000000000000000000000000000000000000000000000000006001611948565b610e357f00000000000000000000000000000000000000000000000000000000000000006b05686877afb5cbccbf7340006116ee565b6040517fb7c23c1e2e36f298e9879a88ecfcd07e28fbb439bcfa9c78ca1363ca14370d26905f90a180156106c6575f805461ff0019169055604051600181527f7f26b83ff96e1f2b6a682f133852f6798a09c465da95921460cefb38474024989060200160405180910390a15050565b83421115610ef55760405162461bcd60e51b815260206004820152601d60248201527f45524332305065726d69743a206578706972656420646561646c696e650000006044820152606401610773565b5f7f6e71edae12b1b97f4d1f60370fef10105fa2faae0126114a169c64845d6126c9888888610f238c6119f2565b6040805160208101969096526001600160a01b0394851690860152929091166060840152608083015260a082015260c0810186905260e0016040516020818303038152906040528051906020012090505f610f7d826119a0565b90505f610f8c828787876119cc565b9050896001600160a01b0316816001600160a01b031614610fef5760405162461bcd60e51b815260206004820152601e60248201527f45524332305065726d69743a20696e76616c6964207369676e617475726500006044820152606401610773565b610ffa8a8a8a6111f5565b50505050505050505050565b6001600160a01b039182165f90815260666020908152604080832093909416825291909152205490565b611038611318565b5f1961013054146110ce5760405162461bcd60e51b815260206004820152605460248201527f4261636b696e67456967656e2e64697361626c655472616e736665725265737460448201527f72696374696f6e733a207472616e73666572207265737472696374696f6e7320606482015273185c9948185b1c9958591e48191a5cd8589b195960621b608482015260a401610773565b5f6101308190556040517f2b18986d3ba809db2f13a5d7bf17f60d357b37d9cbb55dd71cbbac8dc4060f649190a1565b604080518082019091525f80825260208201526001600160a01b0383165f90815260ff60205260409020805463ffffffff8416908110611140576111406129bd565b5f9182526020918290206040805180820190915291015463ffffffff8116825264010000000090046001600160e01b0316918101919091529392505050565b611187611318565b6001600160a01b0381166111ec5760405162461bcd60e51b815260206004820152602660248201527f4f776e61626c653a206e6577206f776e657220697320746865207a65726f206160448201526564647265737360d01b6064820152608401610773565b61082981611873565b6001600160a01b0383166112575760405162461bcd60e51b8152602060048201526024808201527f45524332303a20617070726f76652066726f6d20746865207a65726f206164646044820152637265737360e01b6064820152608401610773565b6001600160a01b0382166112b85760405162461bcd60e51b815260206004820152602260248201527f45524332303a20617070726f766520746f20746865207a65726f206164647265604482015261737360f01b6064820152608401610773565b6001600160a01b038381165f8181526066602090815260408083209487168084529482529182902085905590518481527f8c5be1e5ebec7d5bd14f71427d1e84f3dd0314c0f7b2291e5b200ac8c7c3b925910160405180910390a3505050565b6033546001600160a01b031633146108e05760405162461bcd60e51b815260206004820181905260248201527f4f776e61626c653a2063616c6c6572206973206e6f7420746865206f776e65726044820152606401610773565b6001600160a01b0382165f8181526101316020908152604091829020805460ff191685151590811790915591519182527fcf20b1ecb604b0e8888d579c64e8a3b10e590d45c1c2dddb393bed284362227191015b60405180910390a25050565b5f6113dd8484611006565b90505f19811461144457818110156114375760405162461bcd60e51b815260206004820152601d60248201527f45524332303a20696e73756666696369656e7420616c6c6f77616e63650000006044820152606401610773565b61144484848484036111f5565b50505050565b6001600160a01b0383166114ae5760405162461bcd60e51b815260206004820152602560248201527f45524332303a207472616e736665722066726f6d20746865207a65726f206164604482015264647265737360d81b6064820152608401610773565b6001600160a01b0382166115105760405162461bcd60e51b815260206004820152602360248201527f45524332303a207472616e7366657220746f20746865207a65726f206164647260448201526265737360e81b6064820152608401610773565b61151b838383611ac0565b6001600160a01b0383165f90815260656020526040902054818110156115925760405162461bcd60e51b815260206004820152602660248201527f45524332303a207472616e7366657220616d6f756e7420657863656564732062604482015265616c616e636560d01b6064820152608401610773565b6001600160a01b038085165f8181526065602052604080822086860390559286168082529083902080548601905591517fddf252ad1be2c89b69c2b068fc378daa952ba7f163c4a11628f55a4df523b3ef906115f19086815260200190565b60405180910390a3611444848484611b9c565b5f6106f6611bcd565b81545f9081816005811115611664575f61162684611c40565b61163090856129d1565b5f88815260209020909150869082015463ffffffff16111561165457809150611662565b61165f816001612996565b92505b505b808210156116af575f6116778383611d24565b5f88815260209020909150869082015463ffffffff16111561169b578091506116a9565b6116a6816001612996565b92505b50611664565b80156116d9575f8681526020902081015f19015464010000000090046001600160e01b03166116db565b5f5b6001600160e01b03169695505050505050565b6116f88282611d3e565b6067546001600160e01b03101561176a5760405162461bcd60e51b815260206004820152603060248201527f4552433230566f7465733a20746f74616c20737570706c79207269736b73206f60448201526f766572666c6f77696e6720766f74657360801b6064820152608401610773565b611444610100611e0f83611e1a565b6117838282611f86565b6114446101006120c983611e1a565b6001600160a01b038281165f81815260fe6020818152604080842080546065845282862054949093528787166001600160a01b03198416811790915590519190951694919391928592917f3134e8a2e6d97e929a7e54011ea5485d7d196dd5f0ba4d4ef95803e8e3fc257f9190a46114448284836120d4565b5f63ffffffff82111561186f5760405162461bcd60e51b815260206004820152602660248201527f53616665436173743a2076616c756520646f65736e27742066697420696e203360448201526532206269747360d01b6064820152608401610773565b5090565b603380546001600160a01b038381166001600160a01b0319831681179093556040519116919082907f8be0079c531659141344cd1fd0a4f28419497f9722a3daafe3b4186f6b6457e0905f90a35050565b60606099805461061a90612950565b6060609a805461061a90612950565b5f65ffffffffffff82111561186f5760405162461bcd60e51b815260206004820152602660248201527f53616665436173743a2076616c756520646f65736e27742066697420696e203460448201526538206269747360d01b6064820152608401610773565b6001600160a01b0382165f8181526101326020908152604091829020805460ff191685151590811790915591519182527f72a561d1af7409467dae4f1e9fc52590a9335a1dda17727e2b6aa8c4db35109b91016113c6565b5f6106ae6119ac611604565b8360405161190160f01b8152600281019290925260228201526042902090565b5f5f5f6119db8787878761220e565b915091506119e8816122cb565b5095945050505050565b6001600160a01b0381165f90815260cb602052604090208054600181018255905b50919050565b5f54610100900460ff16611a3f5760405162461bcd60e51b8152600401610773906129e4565b6108e0612414565b5f54610100900460ff16611a6d5760405162461bcd60e51b8152600401610773906129e4565b6106c68282612443565b5f54610100900460ff16611a9d5760405162461bcd60e51b8152600401610773906129e4565b61082981604051806040016040528060018152602001603160f81b815250612482565b610130544211611b97576001600160a01b0383165f908152610131602052604090205460ff1680611b0957506001600160a01b0382165f908152610132602052604090205460ff165b80611b1b57506001600160a01b038316155b611b975760405162461bcd60e51b815260206004820152604160248201527f4261636b696e67456967656e2e5f6265666f7265546f6b656e5472616e73666560448201527f723a2066726f6d206f7220746f206d7573742062652077686974656c697374656064820152601960fa1b608482015260a401610773565b505050565b6001600160a01b038381165f90815260fe6020526040808220548584168352912054611b97929182169116836120d4565b5f7f8b73c3c69bb8fe3d512ecc4cf759cc79239f7b179b0ffacaa9a75d522b39400f611bf76124cf565b611bff612527565b60408051602081019490945283019190915260608201524660808201523060a082015260c00160405160208183030381529060405280519060200120905090565b5f815f03611c4f57505f919050565b5f6001611c5b84612557565b901c6001901b90506001818481611c7457611c74612a2f565b048201901c90506001818481611c8c57611c8c612a2f565b048201901c90506001818481611ca457611ca4612a2f565b048201901c90506001818481611cbc57611cbc612a2f565b048201901c90506001818481611cd457611cd4612a2f565b048201901c90506001818481611cec57611cec612a2f565b048201901c90506001818481611d0457611d04612a2f565b048201901c905061079d81828581611d1e57611d1e612a2f565b046125ea565b5f611d326002848418612a43565b61079d90848416612996565b6001600160a01b038216611d945760405162461bcd60e51b815260206004820152601f60248201527f45524332303a206d696e7420746f20746865207a65726f2061646472657373006044820152606401610773565b611d9f5f8383611ac0565b8060675f828254611db09190612996565b90915550506001600160a01b0382165f818152606560209081526040808320805486019055518481527fddf252ad1be2c89b69c2b068fc378daa952ba7f163c4a11628f55a4df523b3ef910160405180910390a36106c65f8383611b9c565b5f61079d8284612996565b82545f908190818115611e64575f8781526020902082015f190160408051808201909152905463ffffffff8116825264010000000090046001600160e01b03166020820152611e78565b604080518082019091525f80825260208201525b905080602001516001600160e01b03169350611e9884868863ffffffff16565b92505f82118015611ec05750611eac6109ff565b65ffffffffffff16815f015163ffffffff16145b15611f0357611ece836125ff565b5f8881526020902083015f190180546001600160e01b03929092166401000000000263ffffffff909216919091179055611f7c565b866040518060400160405280611f27611f1a6109ff565b65ffffffffffff1661180b565b63ffffffff168152602001611f3b866125ff565b6001600160e01b0390811690915282546001810184555f938452602093849020835194909301519091166401000000000263ffffffff909316929092179101555b5050935093915050565b6001600160a01b038216611fe65760405162461bcd60e51b815260206004820152602160248201527f45524332303a206275726e2066726f6d20746865207a65726f206164647265736044820152607360f81b6064820152608401610773565b611ff1825f83611ac0565b6001600160a01b0382165f90815260656020526040902054818110156120645760405162461bcd60e51b815260206004820152602260248201527f45524332303a206275726e20616d6f756e7420657863656564732062616c616e604482015261636560f01b6064820152608401610773565b6001600160a01b0383165f8181526065602090815260408083208686039055606780548790039055518581529192917fddf252ad1be2c89b69c2b068fc378daa952ba7f163c4a11628f55a4df523b3ef910160405180910390a3611b97835f84611b9c565b5f61079d82846129d1565b816001600160a01b0316836001600160a01b0316141580156120f557505f81115b15611b97576001600160a01b03831615612182576001600160a01b0383165f90815260ff60205260408120819061212f906120c985611e1a565b91509150846001600160a01b03167fdec2bacdd2f05b59de34da9b523dff8be42e5e38e818c82fdb0bae774387a7248383604051612177929190918252602082015260400190565b60405180910390a250505b6001600160a01b03821615611b97576001600160a01b0382165f90815260ff6020526040812081906121b790611e0f85611e1a565b91509150836001600160a01b03167fdec2bacdd2f05b59de34da9b523dff8be42e5e38e818c82fdb0bae774387a72483836040516121ff929190918252602082015260400190565b60405180910390a25050505050565b5f807f7fffffffffffffffffffffffffffffff5d576e7357a4501ddfe92f46681b20a083111561224357505f905060036122c2565b604080515f8082526020820180845289905260ff881692820192909252606081018690526080810185905260019060a0016020604051602081039080840390855afa158015612294573d5f5f3e3d5ffd5b5050604051601f1901519150506001600160a01b0381166122bc575f600192509250506122c2565b91505f90505b94509492505050565b5f8160048111156122de576122de612a62565b036122e65750565b60018160048111156122fa576122fa612a62565b036123475760405162461bcd60e51b815260206004820152601860248201527f45434453413a20696e76616c6964207369676e617475726500000000000000006044820152606401610773565b600281600481111561235b5761235b612a62565b036123a85760405162461bcd60e51b815260206004820152601f60248201527f45434453413a20696e76616c6964207369676e6174757265206c656e677468006044820152606401610773565b60038160048111156123bc576123bc612a62565b036108295760405162461bcd60e51b815260206004820152602260248201527f45434453413a20696e76616c6964207369676e6174757265202773272076616c604482015261756560f01b6064820152608401610773565b5f54610100900460ff1661243a5760405162461bcd60e51b8152600401610773906129e4565b6108e033611873565b5f54610100900460ff166124695760405162461bcd60e51b8152600401610773906129e4565b60686124758382612ac1565b506069611b978282612ac1565b5f54610100900460ff166124a85760405162461bcd60e51b8152600401610773906129e4565b60996124b48382612ac1565b50609a6124c18282612ac1565b50505f609781905560985550565b5f5f6124d96118c4565b8051909150156124f0578051602090910120919050565b60975480156124ff5792915050565b7fc5d2460186f7233c927e7db2dcc703c0e500b653ca82273b7bfad8045d85a4709250505090565b5f5f6125316118d3565b805190915015612548578051602090910120919050565b60985480156124ff5792915050565b5f80608083901c1561256b57608092831c92015b604083901c1561257d57604092831c92015b602083901c1561258f57602092831c92015b601083901c156125a157601092831c92015b600883901c156125b357600892831c92015b600483901c156125c557600492831c92015b600283901c156125d757600292831c92015b600183901c156106ae5760010192915050565b5f8183106125f8578161079d565b5090919050565b5f6001600160e01b0382111561186f5760405162461bcd60e51b815260206004820152602760248201527f53616665436173743a2076616c756520646f65736e27742066697420696e20326044820152663234206269747360c81b6064820152608401610773565b80356001600160a01b038116811461267d575f5ffd5b919050565b5f60208284031215612692575f5ffd5b61079d82612667565b5f81518084528060208401602086015e5f602082860101526020601f19601f83011685010191505092915050565b602081525f61079d602083018461269b565b5f5f604083850312156126ec575f5ffd5b6126f583612667565b946020939093013593505050565b5f5f60408385031215612714575f5ffd5b61271d83612667565b915060208301358015158114612731575f5ffd5b809150509250929050565b5f5f5f6060848603121561274e575f5ffd5b61275784612667565b925061276560208501612667565b929592945050506040919091013590565b5f60208284031215612786575f5ffd5b5035919050565b60ff60f81b8816815260e060208201525f6127ab60e083018961269b565b82810360408401526127bd818961269b565b606084018890526001600160a01b038716608085015260a0840186905283810360c0850152845180825260208087019350909101905f5b818110156128125783518352602093840193909201916001016127f4565b50909b9a5050505050505050505050565b803560ff8116811461267d575f5ffd5b5f5f5f5f5f5f60c08789031215612848575f5ffd5b61285187612667565b9550602087013594506040870135935061286d60608801612823565b9598949750929560808101359460a0909101359350915050565b5f5f5f5f5f5f5f60e0888a03121561289d575f5ffd5b6128a688612667565b96506128b460208901612667565b955060408801359450606088013593506128d060808901612823565b9699959850939692959460a0840135945060c09093013592915050565b5f5f604083850312156128fe575f5ffd5b61290783612667565b915061291560208401612667565b90509250929050565b5f5f6040838503121561292f575f5ffd5b61293883612667565b9150602083013563ffffffff81168114612731575f5ffd5b600181811c9082168061296457607f821691505b602082108103611a1357634e487b7160e01b5f52602260045260245ffd5b634e487b7160e01b5f52601160045260245ffd5b808201808211156106ae576106ae612982565b634e487b7160e01b5f52604160045260245ffd5b634e487b7160e01b5f52603260045260245ffd5b818103818111156106ae576106ae612982565b6020808252602b908201527f496e697469616c697a61626c653a20636f6e7472616374206973206e6f74206960408201526a6e697469616c697a696e6760a81b606082015260800190565b634e487b7160e01b5f52601260045260245ffd5b5f82612a5d57634e487b7160e01b5f52601260045260245ffd5b500490565b634e487b7160e01b5f52602160045260245ffd5b601f821115611b9757805f5260205f20601f840160051c81016020851015612a9b5750805b601f840160051c820191505b81811015612aba575f8155600101612aa7565b5050505050565b815167ffffffffffffffff811115612adb57612adb6129a9565b612aef81612ae98454612950565b84612a76565b6020601f821160018114612b21575f8315612b0a5750848201515b5f19600385901b1c1916600184901b178455612aba565b5f84815260208120601f198516915b82811015612b505787850151825560209485019460019092019101612b30565b5084821015612b6d57868401515f19600387901b60f8161c191681555b50505050600190811b0190555056fea2646970667358221220e867b134dc261d7025b320d04b24d156f209a884537e24f3f733872669a3444264736f6c634300081b0033","linkReferences":{}},"methodIdentifiers":{"CLOCK_MODE()":"4bf5d7e9","DOMAIN_SEPARATOR()":"3644e515","EIGEN()":"fdc371ce","allowance(address,address)":"dd62ed3e","allowedFrom(address)":"0455e694","allowedTo(address)":"78aa33ba","approve(address,uint256)":"095ea7b3","balanceOf(address)":"70a08231","burn(uint256)":"42966c68","checkpoints(address,uint32)":"f1127ed8","clock()":"91ddadf4","decimals()":"313ce567","decreaseAllowance(address,uint256)":"a457c2d7","delegate(address)":"5c19a95c","delegateBySig(address,uint256,uint256,uint8,bytes32,bytes32)":"c3cda520","delegates(address)":"587cde1e","disableTransferRestrictions()":"eb415f45","eip712Domain()":"84b0196e","getPastTotalSupply(uint256)":"8e539e8c","getPastVotes(address,uint256)":"3a46b1a8","getVotes(address)":"9ab24eb0","increaseAllowance(address,uint256)":"39509351","initialize(address)":"c4d66de8","isMinter(address)":"aa271e1a","mint(address,uint256)":"40c10f19","name()":"06fdde03","nonces(address)":"7ecebe00","numCheckpoints(address)":"6fcfff45","owner()":"8da5cb5b","permit(address,address,uint256,uint256,uint8,bytes32,bytes32)":"d505accf","renounceOwnership()":"715018a6","setAllowedFrom(address,bool)":"1ffacdef","setAllowedTo(address,bool)":"b8c25594","setIsMinter(address,bool)":"66eb399f","symbol()":"95d89b41","totalSupply()":"18160ddd","transfer(address,uint256)":"a9059cbb","transferFrom(address,address,uint256)":"23b872dd","transferOwnership(address)":"f2fde38b","transferRestrictionsDisabledAfter()":"9aec4bae"},"id":171}