{"abi":[{"type":"constructor","inputs":[{"name":"_bEIGEN","type":"address","internalType":"contract IERC20"}],"stateMutability":"nonpayable"},{"type":"function","name":"CLOCK_MODE","inputs":[],"outputs":[{"name":"","type":"string","internalType":"string"}],"stateMutability":"pure"},{"type":"function","name":"DOMAIN_SEPARATOR","inputs":[],"outputs":[{"name":"","type":"bytes32","internalType":"bytes32"}],"stateMutability":"view"},{"type":"function","name":"allowance","inputs":[{"name":"owner","type":"address","internalType":"address"},{"name":"spender","type":"address","internalType":"address"}],"outputs":[{"name":"","type":"uint256","internalType":"uint256"}],"stateMutability":"view"},{"type":"function","name":"allowedFrom","inputs":[{"name":"","type":"address","internalType":"address"}],"outputs":[{"name":"","type":"bool","internalType":"bool"}],"stateMutability":"view"},{"type":"function","name":"allowedTo","inputs":[{"name":"","type":"address","internalType":"address"}],"outputs":[{"name":"","type":"bool","internalType":"bool"}],"stateMutability":"view"},{"type":"function","name":"approve","inputs":[{"name":"spender","type":"address","internalType":"address"},{"name":"amount","type":"uint256","internalType":"uint256"}],"outputs":[{"name":"","type":"bool","internalType":"bool"}],"stateMutability":"nonpayable"},{"type":"function","name":"bEIGEN","inputs":[],"outputs":[{"name":"","type":"address","internalType":"contract IERC20"}],"stateMutability":"view"},{"type":"function","name":"balanceOf","inputs":[{"name":"account","type":"address","internalType":"address"}],"outputs":[{"name":"","type":"uint256","internalType":"uint256"}],"stateMutability":"view"},{"type":"function","name":"checkpoints","inputs":[{"name":"account","type":"address","internalType":"address"},{"name":"pos","type":"uint32","internalType":"uint32"}],"outputs":[{"name":"","type":"tuple","internalType":"struct ERC20VotesUpgradeable.Checkpoint","components":[{"name":"fromBlock","type":"uint32","internalType":"uint32"},{"name":"votes","type":"uint224","internalType":"uint224"}]}],"stateMutability":"view"},{"type":"function","name":"clock","inputs":[],"outputs":[{"name":"","type":"uint48","internalType":"uint48"}],"stateMutability":"view"},{"type":"function","name":"decimals","inputs":[],"outputs":[{"name":"","type":"uint8","internalType":"uint8"}],"stateMutability":"view"},{"type":"function","name":"decreaseAllowance","inputs":[{"name":"spender","type":"address","internalType":"address"},{"name":"subtractedValue","type":"uint256","internalType":"uint256"}],"outputs":[{"name":"","type":"bool","internalType":"bool"}],"stateMutability":"nonpayable"},{"type":"function","name":"delegate","inputs":[{"name":"delegatee","type":"address","internalType":"address"}],"outputs":[],"stateMutability":"nonpayable"},{"type":"function","name":"delegateBySig","inputs":[{"name":"delegatee","type":"address","internalType":"address"},{"name":"nonce","type":"uint256","internalType":"uint256"},{"name":"expiry","type":"uint256","internalType":"uint256"},{"name":"v","type":"uint8","internalType":"uint8"},{"name":"r","type":"bytes32","internalType":"bytes32"},{"name":"s","type":"bytes32","internalType":"bytes32"}],"outputs":[],"stateMutability":"nonpayable"},{"type":"function","name":"delegates","inputs":[{"name":"account","type":"address","internalType":"address"}],"outputs":[{"name":"","type":"address","internalType":"address"}],"stateMutability":"view"},{"type":"function","name":"disableTransferRestrictions","inputs":[],"outputs":[],"stateMutability":"nonpayable"},{"type":"function","name":"eip712Domain","inputs":[],"outputs":[{"name":"fields","type":"bytes1","internalType":"bytes1"},{"name":"name","type":"string","internalType":"string"},{"name":"version","type":"string","internalType":"string"},{"name":"chainId","type":"uint256","internalType":"uint256"},{"name":"verifyingContract","type":"address","internalType":"address"},{"name":"salt","type":"bytes32","internalType":"bytes32"},{"name":"extensions","type":"uint256[]","internalType":"uint256[]"}],"stateMutability":"view"},{"type":"function","name":"getPastTotalSupply","inputs":[{"name":"timepoint","type":"uint256","internalType":"uint256"}],"outputs":[{"name":"","type":"uint256","internalType":"uint256"}],"stateMutability":"view"},{"type":"function","name":"getPastVotes","inputs":[{"name":"account","type":"address","internalType":"address"},{"name":"timepoint","type":"uint256","internalType":"uint256"}],"outputs":[{"name":"","type":"uint256","internalType":"uint256"}],"stateMutability":"view"},{"type":"function","name":"getVotes","inputs":[{"name":"account","type":"address","internalType":"address"}],"outputs":[{"name":"","type":"uint256","internalType":"uint256"}],"stateMutability":"view"},{"type":"function","name":"increaseAllowance","inputs":[{"name":"spender","type":"address","internalType":"address"},{"name":"addedValue","type":"uint256","internalType":"uint256"}],"outputs":[{"name":"","type":"bool","internalType":"bool"}],"stateMutability":"nonpayable"},{"type":"function","name":"initialize","inputs":[{"name":"initialOwner","type":"address","internalType":"address"},{"name":"minters","type":"address[]","internalType":"address[]"},{"name":"mintingAllowances","type":"uint256[]","internalType":"uint256[]"},{"name":"mintAllowedAfters","type":"uint256[]","internalType":"uint256[]"}],"outputs":[],"stateMutability":"nonpayable"},{"type":"function","name":"mint","inputs":[],"outputs":[],"stateMutability":"nonpayable"},{"type":"function","name":"mint","inputs":[{"name":"to","type":"address","internalType":"address"},{"name":"amount","type":"uint256","internalType":"uint256"}],"outputs":[],"stateMutability":"nonpayable"},{"type":"function","name":"mintAllowedAfter","inputs":[{"name":"","type":"address","internalType":"address"}],"outputs":[{"name":"","type":"uint256","internalType":"uint256"}],"stateMutability":"view"},{"type":"function","name":"mintingAllowance","inputs":[{"name":"","type":"address","internalType":"address"}],"outputs":[{"name":"","type":"uint256","internalType":"uint256"}],"stateMutability":"view"},{"type":"function","name":"multisend","inputs":[{"name":"receivers","type":"address[]","internalType":"address[]"},{"name":"amounts","type":"uint256[]","internalType":"uint256[]"}],"outputs":[],"stateMutability":"nonpayable"},{"type":"function","name":"name","inputs":[],"outputs":[{"name":"","type":"string","internalType":"string"}],"stateMutability":"view"},{"type":"function","name":"nonces","inputs":[{"name":"owner","type":"address","internalType":"address"}],"outputs":[{"name":"","type":"uint256","internalType":"uint256"}],"stateMutability":"view"},{"type":"function","name":"numCheckpoints","inputs":[{"name":"account","type":"address","internalType":"address"}],"outputs":[{"name":"","type":"uint32","internalType":"uint32"}],"stateMutability":"view"},{"type":"function","name":"owner","inputs":[],"outputs":[{"name":"","type":"address","internalType":"address"}],"stateMutability":"view"},{"type":"function","name":"permit","inputs":[{"name":"owner","type":"address","internalType":"address"},{"name":"spender","type":"address","internalType":"address"},{"name":"value","type":"uint256","internalType":"uint256"},{"name":"deadline","type":"uint256","internalType":"uint256"},{"name":"v","type":"uint8","internalType":"uint8"},{"name":"r","type":"bytes32","internalType":"bytes32"},{"name":"s","type":"bytes32","internalType":"bytes32"}],"outputs":[],"stateMutability":"nonpayable"},{"type":"function","name":"renounceOwnership","inputs":[],"outputs":[],"stateMutability":"nonpayable"},{"type":"function","name":"setAllowedFrom","inputs":[{"name":"from","type":"address","internalType":"address"},{"name":"isAllowedFrom","type":"bool","internalType":"bool"}],"outputs":[],"stateMutability":"nonpayable"},{"type":"function","name":"setAllowedFromPermissionless","inputs":[{"name":"from","type":"address","internalType":"address"},{"name":"isAllowedFrom","type":"bool","internalType":"bool"}],"outputs":[],"stateMutability":"nonpayable"},{"type":"function","name":"setAllowedTo","inputs":[{"name":"to","type":"address","internalType":"address"},{"name":"isAllowedTo","type":"bool","internalType":"bool"}],"outputs":[],"stateMutability":"nonpayable"},{"type":"function","name":"setTransferRestrictionsDisabledAfterToMax","inputs":[],"outputs":[],"stateMutability":"nonpayable"},{"type":"function","name":"symbol","inputs":[],"outputs":[{"name":"","type":"string","internalType":"string"}],"stateMutability":"view"},{"type":"function","name":"totalSupply","inputs":[],"outputs":[{"name":"","type":"uint256","internalType":"uint256"}],"stateMutability":"view"},{"type":"function","name":"transfer","inputs":[{"name":"to","type":"address","internalType":"address"},{"name":"amount","type":"uint256","internalType":"uint256"}],"outputs":[{"name":"","type":"bool","internalType":"bool"}],"stateMutability":"nonpayable"},{"type":"function","name":"transferFrom","inputs":[{"name":"from","type":"address","internalType":"address"},{"name":"to","type":"address","internalType":"address"},{"name":"amount","type":"uint256","internalType":"uint256"}],"outputs":[{"name":"","type":"bool","internalType":"bool"}],"stateMutability":"nonpayable"},{"type":"function","name":"transferOwnership","inputs":[{"name":"newOwner","type":"address","internalType":"address"}],"outputs":[],"stateMutability":"nonpayable"},{"type":"function","name":"transferOwnershipPermissionless","inputs":[{"name":"newOwner","type":"address","internalType":"address"}],"outputs":[],"stateMutability":"nonpayable"},{"type":"function","name":"transferRestrictionsDisabledAfter","inputs":[],"outputs":[{"name":"","type":"uint256","internalType":"uint256"}],"stateMutability":"view"},{"type":"function","name":"unwrap","inputs":[{"name":"amount","type":"uint256","internalType":"uint256"}],"outputs":[],"stateMutability":"nonpayable"},{"type":"function","name":"wrap","inputs":[{"name":"amount","type":"uint256","internalType":"uint256"}],"outputs":[],"stateMutability":"nonpayable"},{"type":"event","name":"Approval","inputs":[{"name":"owner","type":"address","indexed":true,"internalType":"address"},{"name":"spender","type":"address","indexed":true,"internalType":"address"},{"name":"value","type":"uint256","indexed":false,"internalType":"uint256"}],"anonymous":false},{"type":"event","name":"DelegateChanged","inputs":[{"name":"delegator","type":"address","indexed":true,"internalType":"address"},{"name":"fromDelegate","type":"address","indexed":true,"internalType":"address"},{"name":"toDelegate","type":"address","indexed":true,"internalType":"address"}],"anonymous":false},{"type":"event","name":"DelegateVotesChanged","inputs":[{"name":"delegate","type":"address","indexed":true,"internalType":"address"},{"name":"previousBalance","type":"uint256","indexed":false,"internalType":"uint256"},{"name":"newBalance","type":"uint256","indexed":false,"internalType":"uint256"}],"anonymous":false},{"type":"event","name":"EIP712DomainChanged","inputs":[],"anonymous":false},{"type":"event","name":"Initialized","inputs":[{"name":"version","type":"uint8","indexed":false,"internalType":"uint8"}],"anonymous":false},{"type":"event","name":"Mint","inputs":[{"name":"minter","type":"address","indexed":true,"internalType":"address"},{"name":"amount","type":"uint256","indexed":false,"internalType":"uint256"}],"anonymous":false},{"type":"event","name":"OwnershipTransferred","inputs":[{"name":"previousOwner","type":"address","indexed":true,"internalType":"address"},{"name":"newOwner","type":"address","indexed":true,"internalType":"address"}],"anonymous":false},{"type":"event","name":"SetAllowedFrom","inputs":[{"name":"from","type":"address","indexed":true,"internalType":"address"},{"name":"isAllowedFrom","type":"bool","indexed":false,"internalType":"bool"}],"anonymous":false},{"type":"event","name":"SetAllowedTo","inputs":[{"name":"to","type":"address","indexed":true,"internalType":"address"},{"name":"isAllowedTo","type":"bool","indexed":false,"internalType":"bool"}],"anonymous":false},{"type":"event","name":"Transfer","inputs":[{"name":"from","type":"address","indexed":true,"internalType":"address"},{"name":"to","type":"address","indexed":true,"internalType":"address"},{"name":"value","type":"uint256","indexed":false,"internalType":"uint256"}],"anonymous":false},{"type":"event","name":"TransferRestrictionsDisabled","inputs":[],"anonymous":false}],"bytecode":{"object":"0x60a060405234801561000f575f5ffd5b506040516135a53803806135a583398101604081905261002e91610107565b6001600160a01b0381166080528061004461004b565b5050610134565b5f54610100900460ff16156100b65760405162461bcd60e51b815260206004820152602760248201527f496e697469616c697a61626c653a20636f6e747261637420697320696e697469604482015266616c697a696e6760c81b606482015260840160405180910390fd5b5f5460ff90811614610105575f805460ff191660ff9081179091556040519081527f7f26b83ff96e1f2b6a682f133852f6798a09c465da95921460cefb38474024989060200160405180910390a15b565b5f60208284031215610117575f5ffd5b81516001600160a01b038116811461012d575f5ffd5b9392505050565b6080516134446101615f395f818161036d015281816108ae0152818161151c015261160801526134445ff3fe608060405234801561000f575f5ffd5b5060043610610281575f3560e01c806384b0196e11610156578063aad41a41116100ca578063de0e9a3e11610084578063de0e9a3e14610629578063ea598cb01461063c578063eb415f451461064f578063ec08f9c414610657578063f1127ed81461066a578063f2fde38b146106a7575f5ffd5b8063aad41a41146105bf578063b3793585146105d2578063b8c25594146105dd578063c3cda520146105f0578063d505accf14610603578063dd62ed3e14610616575f5ffd5b806395d89b411161011b57806395d89b41146105615780639ab24eb0146105695780639aec4bae1461057c578063a457c2d714610586578063a7d1195d14610599578063a9059cbb146105ac575f5ffd5b806384b0196e146104f05780638da5cb5b1461050b5780638e539e8c1461051c57806391ddadf41461052f57806394b819dc1461054e575f5ffd5b80633f4da4c6116101f85780636fcfff45116101b25780636fcfff451461044257806370a082311461046a578063715018a61461049257806378aa33ba1461049a5780637ecebe00146104bd57806381b97161146104d0575f5ffd5b80633f4da4c61461036857806340c10f19146103a75780634bf5d7e9146103ba57806353957125146103e4578063587cde1e146104045780635c19a95c1461042f575f5ffd5b80631ffacdef116102495780631ffacdef1461030557806323b872dd14610318578063313ce5671461032b5780633644e5151461033a57806339509351146103425780633a46b1a814610355575f5ffd5b80630455e6941461028557806306fdde03146102bd578063095ea7b3146102d25780631249c58b146102e557806318160ddd146102ef575b5f5ffd5b6102a8610293366004612c7b565b6101336020525f908152604090205460ff1681565b60405190151581526020015b60405180910390f35b6102c56106ba565b6040516102b49190612cc2565b6102a86102e0366004612cd4565b61074a565b6102ed610763565b005b6102f76108ab565b6040519081526020016102b4565b6102ed610313366004612d09565b610931565b6102a8610326366004612d3e565b610999565b604051601281526020016102b4565b6102f76109bc565b6102a8610350366004612cd4565b6109c5565b6102f7610363366004612cd4565b6109e6565b61038f7f000000000000000000000000000000000000000000000000000000000000000081565b6040516001600160a01b0390911681526020016102b4565b6102ed6103b5366004612cd4565b610a69565b60408051808201909152600e81526d06d6f64653d74696d657374616d760941b60208201526102c5565b6102f76103f2366004612c7b565b6101306020525f908152604090205481565b61038f610412366004612c7b565b6001600160a01b039081165f90815260fe60205260409020541690565b6102ed61043d366004612c7b565b610a77565b610455610450366004612c7b565b610a84565b60405163ffffffff90911681526020016102b4565b6102f7610478366004612c7b565b6001600160a01b03165f9081526065602052604090205490565b6102ed610aa5565b6102a86104a8366004612c7b565b6101346020525f908152604090205460ff1681565b6102f76104cb366004612c7b565b610ab8565b6102f76104de366004612c7b565b6101316020525f908152604090205481565b6104f8610ad5565b6040516102b49796959493929190612d78565b6033546001600160a01b031661038f565b6102f761052a366004612e0e565b610b6e565b610537610bd5565b60405165ffffffffffff90911681526020016102b4565b6102ed61055c366004612d09565b610939565b6102c5610bdf565b6102f7610577366004612c7b565b610bee565b6102f76101325481565b6102a8610594366004612cd4565b610c6b565b6102ed6105a7366004612eed565b610ce5565b6102a86105ba366004612cd4565b6110f9565b6102ed6105cd366004613032565b611106565b6102ed5f1961013255565b6102ed6105eb366004612d09565b6111d6565b6102ed6105fe3660046130ae565b611236565b6102ed610611366004613102565b61136b565b6102f7610624366004613168565b6114cc565b6102ed610637366004612e0e565b6114f6565b6102ed61064a366004612e0e565b6115e6565b6102ed6116db565b6102ed610665366004612c7b565b6117a2565b61067d610678366004613199565b6117ab565b60408051825163ffffffff1681526020928301516001600160e01b031692810192909252016102b4565b6102ed6106b5366004612c7b565b61182c565b6060606880546106c9906131cb565b80601f01602080910402602001604051908101604052809291908181526020018280546106f5906131cb565b80156107405780601f1061071757610100808354040283529160200191610740565b820191905f5260205f20905b81548152906001019060200180831161072357829003601f168201915b5050505050905090565b5f33610757818585611899565b60019150505b92915050565b335f90815261013160205260409020546107dc5760405162461bcd60e51b815260206004820152602f60248201527f456967656e2e6d696e743a206d73672e73656e64657220686173206e6f206d6960448201526e6e74696e6720616c6c6f77616e636560881b60648201526084015b60405180910390fd5b335f908152610130602052604090205442116108545760405162461bcd60e51b815260206004820152603160248201527f456967656e2e6d696e743a206d73672e73656e646572206973206e6f7420616c6044820152701b1bddd959081d1bc81b5a5b9d081e595d607a1b60648201526084016107d3565b335f8181526101316020526040812080549190559061087390826119bc565b60405181815233907f0f6798a560793a54c3bcfe86a93cde1e73087d944c0ea20544137d41213968859060200160405180910390a250565b5f7f00000000000000000000000000000000000000000000000000000000000000006001600160a01b03166318160ddd6040518163ffffffff1660e01b8152600401602060405180830381865afa158015610908573d5f5f3e3d5ffd5b505050506040513d601f19601f8201168201806040525081019061092c91906131fd565b905090565b610939611a52565b6001600160a01b0382165f8181526101336020908152604091829020805460ff191685151590811790915591519182527fcf20b1ecb604b0e8888d579c64e8a3b10e590d45c1c2dddb393bed284362227191015b60405180910390a25050565b5f336109a6858285611aac565b6109b1858585611b1e565b506001949350505050565b5f61092c611cd8565b5f336107578185856109d783836114cc565b6109e19190613228565b611899565b5f6109ef610bd5565b65ffffffffffff168210610a415760405162461bcd60e51b815260206004820152601960248201527804552433230566f7465733a20667574757265206c6f6f6b757603c1b60448201526064016107d3565b6001600160a01b0383165f90815260ff60205260409020610a629083611ce1565b9392505050565b610a7382826119bc565b5050565b610a813382611dc2565b50565b6001600160a01b0381165f90815260ff602052604081205461075d90611e3b565b610aad611a52565b610ab65f611ea3565b565b6001600160a01b0381165f90815260cb602052604081205461075d565b5f6060805f5f5f60606097545f5f1b148015610af15750609854155b610b355760405162461bcd60e51b81526020600482015260156024820152741152540dcc4c8e88155b9a5b9a5d1a585b1a5e9959605a1b60448201526064016107d3565b610b3d611ef4565b610b45611f03565b604080515f80825260208201909252600f60f81b9b939a50919850469750309650945092509050565b5f610b77610bd5565b65ffffffffffff168210610bc95760405162461bcd60e51b815260206004820152601960248201527804552433230566f7465733a20667574757265206c6f6f6b757603c1b60448201526064016107d3565b61075d61010083611ce1565b5f61092c42611f12565b6060606980546106c9906131cb565b6001600160a01b0381165f90815260ff60205260408120548015610c59576001600160a01b0383165f90815260ff6020526040902080545f198301908110610c3857610c3861323b565b5f9182526020909120015464010000000090046001600160e01b0316610c5b565b5f5b6001600160e01b03169392505050565b5f3381610c7882866114cc565b905083811015610cd85760405162461bcd60e51b815260206004820152602560248201527f45524332303a2064656372656173656420616c6c6f77616e63652062656c6f77604482015264207a65726f60d81b60648201526084016107d3565b6109b18286868403611899565b5f54610100900460ff1615808015610d0357505f54600160ff909116105b80610d1c5750303b158015610d1c57505f5460ff166001145b610d7f5760405162461bcd60e51b815260206004820152602e60248201527f496e697469616c697a61626c653a20636f6e747261637420697320616c72656160448201526d191e481a5b9a5d1a585b1a5e995960921b60648201526084016107d3565b5f805460ff191660011790558015610da0575f805461ff0019166101001790555b610da8611f78565b610dec6040518060400160405280600581526020016422b4b3b2b760d91b8152506040518060400160405280600581526020016422a4a3a2a760d91b815250611fa6565b610df585611ea3565b610e1b6040518060400160405280600581526020016422a4a3a2a760d91b815250611fd6565b8251845114610ea25760405162461bcd60e51b815260206004820152604760248201527f456967656e2e696e697469616c697a653a206d696e7465727320616e64206d6960448201527f6e74696e67416c6c6f77616e636573206d757374206265207468652073616d65606482015266040d8cadccee8d60cb1b608482015260a4016107d3565b8151845114610f295760405162461bcd60e51b815260206004820152604760248201527f456967656e2e696e697469616c697a653a206d696e7465727320616e64206d6960448201527f6e74416c6c6f776564416674657273206d757374206265207468652073616d65606482015266040d8cadccee8d60cb1b608482015260a4016107d3565b5f5b84518110156110a657838181518110610f4657610f4661323b565b60200260200101516101315f878481518110610f6457610f6461323b565b60200260200101516001600160a01b03166001600160a01b031681526020019081526020015f2081905550828181518110610fa157610fa161323b565b60200260200101516101305f878481518110610fbf57610fbf61323b565b60200260200101516001600160a01b03166001600160a01b031681526020019081526020015f208190555060016101335f8784815181106110025761100261323b565b60200260200101516001600160a01b03166001600160a01b031681526020019081526020015f205f6101000a81548160ff0219169083151502179055508481815181106110515761105161323b565b60200260200101516001600160a01b03167fcf20b1ecb604b0e8888d579c64e8a3b10e590d45c1c2dddb393bed28436222716001604051611096911515815260200190565b60405180910390a2600101610f2b565b505f196101325580156110f2575f805461ff0019169055604051600181527f7f26b83ff96e1f2b6a682f133852f6798a09c465da95921460cefb38474024989060200160405180910390a15b5050505050565b5f33610757818585611b1e565b82811461117b5760405162461bcd60e51b815260206004820152603e60248201527f456967656e2e6d756c746973656e643a2072656365697665727320616e64206160448201527f6d6f756e7473206d757374206265207468652073616d65206c656e677468000060648201526084016107d3565b5f5b838110156110f2576111ce3386868481811061119b5761119b61323b565b90506020020160208101906111b09190612c7b565b8585858181106111c2576111c261323b565b90506020020135611b1e565b60010161117d565b6111de611a52565b6001600160a01b0382165f8181526101346020908152604091829020805460ff191685151590811790915591519182527f72a561d1af7409467dae4f1e9fc52590a9335a1dda17727e2b6aa8c4db35109b910161098d565b834211156112865760405162461bcd60e51b815260206004820152601d60248201527f4552433230566f7465733a207369676e6174757265206578706972656400000060448201526064016107d3565b604080517fe48329057bfd03d55e49b547132e39cffd9c1820ad7b9d4c5307691425d15adf60208201526001600160a01b0388169181019190915260608101869052608081018590525f906112ff906112f79060a0016040516020818303038152906040528051906020012061201f565b85858561204b565b905061130a81612071565b86146113585760405162461bcd60e51b815260206004820152601960248201527f4552433230566f7465733a20696e76616c6964206e6f6e63650000000000000060448201526064016107d3565b6113628188611dc2565b50505050505050565b834211156113bb5760405162461bcd60e51b815260206004820152601d60248201527f45524332305065726d69743a206578706972656420646561646c696e6500000060448201526064016107d3565b5f7f6e71edae12b1b97f4d1f60370fef10105fa2faae0126114a169c64845d6126c98888886113e98c612071565b6040805160208101969096526001600160a01b0394851690860152929091166060840152608083015260a082015260c0810186905260e0016040516020818303038152906040528051906020012090505f6114438261201f565b90505f6114528287878761204b565b9050896001600160a01b0316816001600160a01b0316146114b55760405162461bcd60e51b815260206004820152601e60248201527f45524332305065726d69743a20696e76616c6964207369676e6174757265000060448201526064016107d3565b6114c08a8a8a611899565b50505050505050505050565b6001600160a01b039182165f90815260666020908152604080832093909416825291909152205490565b6115003382612098565b60405163a9059cbb60e01b8152336004820152602481018290527f00000000000000000000000000000000000000000000000000000000000000006001600160a01b03169063a9059cbb906044016020604051808303815f875af115801561156a573d5f5f3e3d5ffd5b505050506040513d601f19601f8201168201806040525081019061158e919061324f565b610a815760405162461bcd60e51b8152602060048201526024808201527f456967656e2e756e777261703a2062454947454e207472616e736665722066616044820152631a5b195960e21b60648201526084016107d3565b6040516323b872dd60e01b8152336004820152306024820152604481018290527f00000000000000000000000000000000000000000000000000000000000000006001600160a01b0316906323b872dd906064016020604051808303815f875af1158015611656573d5f5f3e3d5ffd5b505050506040513d601f19601f8201168201806040525081019061167a919061324f565b6116d15760405162461bcd60e51b815260206004820152602260248201527f456967656e2e777261703a2062454947454e207472616e73666572206661696c604482015261195960f21b60648201526084016107d3565b610a8133826119bc565b6116e3611a52565b5f1961013254146117725760405162461bcd60e51b815260206004820152604d60248201527f456967656e2e64697361626c655472616e736665725265737472696374696f6e60448201527f733a207472616e73666572207265737472696374696f6e732061726520616c7260648201526c1958591e48191a5cd8589b1959609a1b608482015260a4016107d3565b5f6101328190556040517f2b18986d3ba809db2f13a5d7bf17f60d357b37d9cbb55dd71cbbac8dc4060f649190a1565b610a8181611ea3565b604080518082019091525f80825260208201526001600160a01b0383165f90815260ff60205260409020805463ffffffff84169081106117ed576117ed61323b565b5f9182526020918290206040805180820190915291015463ffffffff8116825264010000000090046001600160e01b0316918101919091529392505050565b611834611a52565b6001600160a01b0381166117a25760405162461bcd60e51b815260206004820152602660248201527f4f776e61626c653a206e6577206f776e657220697320746865207a65726f206160448201526564647265737360d01b60648201526084016107d3565b6001600160a01b0383166118fb5760405162461bcd60e51b8152602060048201526024808201527f45524332303a20617070726f76652066726f6d20746865207a65726f206164646044820152637265737360e01b60648201526084016107d3565b6001600160a01b03821661195c5760405162461bcd60e51b815260206004820152602260248201527f45524332303a20617070726f766520746f20746865207a65726f206164647265604482015261737360f01b60648201526084016107d3565b6001600160a01b038381165f8181526066602090815260408083209487168084529482529182902085905590518481527f8c5be1e5ebec7d5bd14f71427d1e84f3dd0314c0f7b2291e5b200ac8c7c3b925910160405180910390a3505050565b6119c682826120b1565b6001600160e01b036119d66108ab565b1115611a3d5760405162461bcd60e51b815260206004820152603060248201527f4552433230566f7465733a20746f74616c20737570706c79207269736b73206f60448201526f766572666c6f77696e6720766f74657360801b60648201526084016107d3565b611a4c6101006121828361218d565b50505050565b6033546001600160a01b03163314610ab65760405162461bcd60e51b815260206004820181905260248201527f4f776e61626c653a2063616c6c6572206973206e6f7420746865206f776e657260448201526064016107d3565b5f611ab784846114cc565b90505f198114611a4c5781811015611b115760405162461bcd60e51b815260206004820152601d60248201527f45524332303a20696e73756666696369656e7420616c6c6f77616e636500000060448201526064016107d3565b611a4c8484848403611899565b6001600160a01b038316611b825760405162461bcd60e51b815260206004820152602560248201527f45524332303a207472616e736665722066726f6d20746865207a65726f206164604482015264647265737360d81b60648201526084016107d3565b6001600160a01b038216611be45760405162461bcd60e51b815260206004820152602360248201527f45524332303a207472616e7366657220746f20746865207a65726f206164647260448201526265737360e81b60648201526084016107d3565b611bef8383836122f9565b6001600160a01b0383165f9081526065602052604090205481811015611c665760405162461bcd60e51b815260206004820152602660248201527f45524332303a207472616e7366657220616d6f756e7420657863656564732062604482015265616c616e636560d01b60648201526084016107d3565b6001600160a01b038085165f8181526065602052604080822086860390559286168082529083902080548601905591517fddf252ad1be2c89b69c2b068fc378daa952ba7f163c4a11628f55a4df523b3ef90611cc59086815260200190565b60405180910390a3611a4c8484846123dd565b5f61092c61240e565b81545f9081816005811115611d38575f611cfa84612481565b611d04908561326a565b5f88815260209020909150869082015463ffffffff161115611d2857809150611d36565b611d33816001613228565b92505b505b80821015611d83575f611d4b8383612565565b5f88815260209020909150869082015463ffffffff161115611d6f57809150611d7d565b611d7a816001613228565b92505b50611d38565b8015611dad575f8681526020902081015f19015464010000000090046001600160e01b0316611daf565b5f5b6001600160e01b03169695505050505050565b6001600160a01b038281165f81815260fe6020818152604080842080546065845282862054949093528787166001600160a01b03198416811790915590519190951694919391928592917f3134e8a2e6d97e929a7e54011ea5485d7d196dd5f0ba4d4ef95803e8e3fc257f9190a4611a4c82848361257f565b5f63ffffffff821115611e9f5760405162461bcd60e51b815260206004820152602660248201527f53616665436173743a2076616c756520646f65736e27742066697420696e203360448201526532206269747360d01b60648201526084016107d3565b5090565b603380546001600160a01b038381166001600160a01b0319831681179093556040519116919082907f8be0079c531659141344cd1fd0a4f28419497f9722a3daafe3b4186f6b6457e0905f90a35050565b6060609980546106c9906131cb565b6060609a80546106c9906131cb565b5f65ffffffffffff821115611e9f5760405162461bcd60e51b815260206004820152602660248201527f53616665436173743a2076616c756520646f65736e27742066697420696e203460448201526538206269747360d01b60648201526084016107d3565b5f54610100900460ff16611f9e5760405162461bcd60e51b81526004016107d39061327d565b610ab66126b9565b5f54610100900460ff16611fcc5760405162461bcd60e51b81526004016107d39061327d565b610a7382826126e8565b5f54610100900460ff16611ffc5760405162461bcd60e51b81526004016107d39061327d565b610a8181604051806040016040528060018152602001603160f81b815250612727565b5f61075d61202b611cd8565b8360405161190160f01b8152600281019290925260228201526042902090565b5f5f5f61205a87878787612774565b9150915061206781612831565b5095945050505050565b6001600160a01b0381165f90815260cb602052604090208054600181018255905b50919050565b6120a2828261297a565b611a4c610100612abd8361218d565b6001600160a01b0382166121075760405162461bcd60e51b815260206004820152601f60248201527f45524332303a206d696e7420746f20746865207a65726f20616464726573730060448201526064016107d3565b6121125f83836122f9565b8060675f8282546121239190613228565b90915550506001600160a01b0382165f818152606560209081526040808320805486019055518481527fddf252ad1be2c89b69c2b068fc378daa952ba7f163c4a11628f55a4df523b3ef910160405180910390a3610a735f83836123dd565b5f610a628284613228565b82545f9081908181156121d7575f8781526020902082015f190160408051808201909152905463ffffffff8116825264010000000090046001600160e01b031660208201526121eb565b604080518082019091525f80825260208201525b905080602001516001600160e01b0316935061220b84868863ffffffff16565b92505f82118015612233575061221f610bd5565b65ffffffffffff16815f015163ffffffff16145b156122765761224183612ac8565b5f8881526020902083015f190180546001600160e01b03929092166401000000000263ffffffff9092169190911790556122ef565b86604051806040016040528061229a61228d610bd5565b65ffffffffffff16611e3b565b63ffffffff1681526020016122ae86612ac8565b6001600160e01b0390811690915282546001810184555f938452602093849020835194909301519091166401000000000263ffffffff909316929092179101555b5050935093915050565b6101325442116123d8576001600160a01b038316158061232057506001600160a01b038216155b8061234357506001600160a01b0383165f908152610133602052604090205460ff165b8061236657506001600160a01b0382165f908152610134602052604090205460ff165b6123d85760405162461bcd60e51b815260206004820152603a60248201527f456967656e2e5f6265666f7265546f6b656e5472616e736665723a2066726f6d60448201527f206f7220746f206d7573742062652077686974656c697374656400000000000060648201526084016107d3565b505050565b6001600160a01b038381165f90815260fe60205260408082205485841683529120546123d89291821691168361257f565b5f7f8b73c3c69bb8fe3d512ecc4cf759cc79239f7b179b0ffacaa9a75d522b39400f612438612b30565b612440612b88565b60408051602081019490945283019190915260608201524660808201523060a082015260c00160405160208183030381529060405280519060200120905090565b5f815f0361249057505f919050565b5f600161249c84612bb8565b901c6001901b905060018184816124b5576124b56132c8565b048201901c905060018184816124cd576124cd6132c8565b048201901c905060018184816124e5576124e56132c8565b048201901c905060018184816124fd576124fd6132c8565b048201901c90506001818481612515576125156132c8565b048201901c9050600181848161252d5761252d6132c8565b048201901c90506001818481612545576125456132c8565b048201901c9050610a628182858161255f5761255f6132c8565b04612c4b565b5f61257360028484186132dc565b610a6290848416613228565b816001600160a01b0316836001600160a01b0316141580156125a057505f81115b156123d8576001600160a01b0383161561262d576001600160a01b0383165f90815260ff6020526040812081906125da90612abd8561218d565b91509150846001600160a01b03167fdec2bacdd2f05b59de34da9b523dff8be42e5e38e818c82fdb0bae774387a7248383604051612622929190918252602082015260400190565b60405180910390a250505b6001600160a01b038216156123d8576001600160a01b0382165f90815260ff602052604081208190612662906121828561218d565b91509150836001600160a01b03167fdec2bacdd2f05b59de34da9b523dff8be42e5e38e818c82fdb0bae774387a72483836040516126aa929190918252602082015260400190565b60405180910390a25050505050565b5f54610100900460ff166126df5760405162461bcd60e51b81526004016107d39061327d565b610ab633611ea3565b5f54610100900460ff1661270e5760405162461bcd60e51b81526004016107d39061327d565b606861271a838261333f565b5060696123d8828261333f565b5f54610100900460ff1661274d5760405162461bcd60e51b81526004016107d39061327d565b6099612759838261333f565b50609a612766828261333f565b50505f609781905560985550565b5f807f7fffffffffffffffffffffffffffffff5d576e7357a4501ddfe92f46681b20a08311156127a957505f90506003612828565b604080515f8082526020820180845289905260ff881692820192909252606081018690526080810185905260019060a0016020604051602081039080840390855afa1580156127fa573d5f5f3e3d5ffd5b5050604051601f1901519150506001600160a01b038116612822575f60019250925050612828565b91505f90505b94509492505050565b5f816004811115612844576128446133fa565b0361284c5750565b6001816004811115612860576128606133fa565b036128ad5760405162461bcd60e51b815260206004820152601860248201527f45434453413a20696e76616c6964207369676e6174757265000000000000000060448201526064016107d3565b60028160048111156128c1576128c16133fa565b0361290e5760405162461bcd60e51b815260206004820152601f60248201527f45434453413a20696e76616c6964207369676e6174757265206c656e6774680060448201526064016107d3565b6003816004811115612922576129226133fa565b03610a815760405162461bcd60e51b815260206004820152602260248201527f45434453413a20696e76616c6964207369676e6174757265202773272076616c604482015261756560f01b60648201526084016107d3565b6001600160a01b0382166129da5760405162461bcd60e51b815260206004820152602160248201527f45524332303a206275726e2066726f6d20746865207a65726f206164647265736044820152607360f81b60648201526084016107d3565b6129e5825f836122f9565b6001600160a01b0382165f9081526065602052604090205481811015612a585760405162461bcd60e51b815260206004820152602260248201527f45524332303a206275726e20616d6f756e7420657863656564732062616c616e604482015261636560f01b60648201526084016107d3565b6001600160a01b0383165f8181526065602090815260408083208686039055606780548790039055518581529192917fddf252ad1be2c89b69c2b068fc378daa952ba7f163c4a11628f55a4df523b3ef910160405180910390a36123d8835f846123dd565b5f610a62828461326a565b5f6001600160e01b03821115611e9f5760405162461bcd60e51b815260206004820152602760248201527f53616665436173743a2076616c756520646f65736e27742066697420696e20326044820152663234206269747360c81b60648201526084016107d3565b5f5f612b3a611ef4565b805190915015612b51578051602090910120919050565b6097548015612b605792915050565b7fc5d2460186f7233c927e7db2dcc703c0e500b653ca82273b7bfad8045d85a4709250505090565b5f5f612b92611f03565b805190915015612ba9578051602090910120919050565b6098548015612b605792915050565b5f80608083901c15612bcc57608092831c92015b604083901c15612bde57604092831c92015b602083901c15612bf057602092831c92015b601083901c15612c0257601092831c92015b600883901c15612c1457600892831c92015b600483901c15612c2657600492831c92015b600283901c15612c3857600292831c92015b600183901c1561075d5760010192915050565b5f818310612c595781610a62565b5090919050565b80356001600160a01b0381168114612c76575f5ffd5b919050565b5f60208284031215612c8b575f5ffd5b610a6282612c60565b5f81518084528060208401602086015e5f602082860101526020601f19601f83011685010191505092915050565b602081525f610a626020830184612c94565b5f5f60408385031215612ce5575f5ffd5b612cee83612c60565b946020939093013593505050565b8015158114610a81575f5ffd5b5f5f60408385031215612d1a575f5ffd5b612d2383612c60565b91506020830135612d3381612cfc565b809150509250929050565b5f5f5f60608486031215612d50575f5ffd5b612d5984612c60565b9250612d6760208501612c60565b929592945050506040919091013590565b60ff60f81b8816815260e060208201525f612d9660e0830189612c94565b8281036040840152612da88189612c94565b606084018890526001600160a01b038716608085015260a0840186905283810360c0850152845180825260208087019350909101905f5b81811015612dfd578351835260209384019390920191600101612ddf565b50909b9a5050505050505050505050565b5f60208284031215612e1e575f5ffd5b5035919050565b634e487b7160e01b5f52604160045260245ffd5b604051601f8201601f1916810167ffffffffffffffff81118282101715612e6257612e62612e25565b604052919050565b5f67ffffffffffffffff821115612e8357612e83612e25565b5060051b60200190565b5f82601f830112612e9c575f5ffd5b8135612eaf612eaa82612e6a565b612e39565b8082825260208201915060208360051b860101925085831115612ed0575f5ffd5b602085015b83811015612067578035835260209283019201612ed5565b5f5f5f5f60808587031215612f00575f5ffd5b612f0985612c60565b9350602085013567ffffffffffffffff811115612f24575f5ffd5b8501601f81018713612f34575f5ffd5b8035612f42612eaa82612e6a565b8082825260208201915060208360051b850101925089831115612f63575f5ffd5b6020840193505b82841015612f8c57612f7b84612c60565b825260209384019390910190612f6a565b9550505050604085013567ffffffffffffffff811115612faa575f5ffd5b612fb687828801612e8d565b925050606085013567ffffffffffffffff811115612fd2575f5ffd5b612fde87828801612e8d565b91505092959194509250565b5f5f83601f840112612ffa575f5ffd5b50813567ffffffffffffffff811115613011575f5ffd5b6020830191508360208260051b850101111561302b575f5ffd5b9250929050565b5f5f5f5f60408587031215613045575f5ffd5b843567ffffffffffffffff81111561305b575f5ffd5b61306787828801612fea565b909550935050602085013567ffffffffffffffff811115613086575f5ffd5b61309287828801612fea565b95989497509550505050565b803560ff81168114612c76575f5ffd5b5f5f5f5f5f5f60c087890312156130c3575f5ffd5b6130cc87612c60565b955060208701359450604087013593506130e86060880161309e565b9598949750929560808101359460a0909101359350915050565b5f5f5f5f5f5f5f60e0888a031215613118575f5ffd5b61312188612c60565b965061312f60208901612c60565b9550604088013594506060880135935061314b6080890161309e565b9699959850939692959460a0840135945060c09093013592915050565b5f5f60408385031215613179575f5ffd5b61318283612c60565b915061319060208401612c60565b90509250929050565b5f5f604083850312156131aa575f5ffd5b6131b383612c60565b9150602083013563ffffffff81168114612d33575f5ffd5b600181811c908216806131df57607f821691505b60208210810361209257634e487b7160e01b5f52602260045260245ffd5b5f6020828403121561320d575f5ffd5b5051919050565b634e487b7160e01b5f52601160045260245ffd5b8082018082111561075d5761075d613214565b634e487b7160e01b5f52603260045260245ffd5b5f6020828403121561325f575f5ffd5b8151610a6281612cfc565b8181038181111561075d5761075d613214565b6020808252602b908201527f496e697469616c697a61626c653a20636f6e7472616374206973206e6f74206960408201526a6e697469616c697a696e6760a81b606082015260800190565b634e487b7160e01b5f52601260045260245ffd5b5f826132f657634e487b7160e01b5f52601260045260245ffd5b500490565b601f8211156123d857805f5260205f20601f840160051c810160208510156133205750805b601f840160051c820191505b818110156110f2575f815560010161332c565b815167ffffffffffffffff81111561335957613359612e25565b61336d8161336784546131cb565b846132fb565b6020601f82116001811461339f575f83156133885750848201515b5f19600385901b1c1916600184901b1784556110f2565b5f84815260208120601f198516915b828110156133ce57878501518255602094850194600190920191016133ae565b50848210156133eb57868401515f19600387901b60f8161c191681555b50505050600190811b01905550565b634e487b7160e01b5f52602160045260245ffdfea2646970667358221220791cdcc1df7ea901dd87100dc5ec157d8e2b067dc2c62c4d734d3532d630800a64736f6c634300081b0033","linkReferences":{}},"methodIdentifiers":{"CLOCK_MODE()":"4bf5d7e9","DOMAIN_SEPARATOR()":"3644e515","allowance(address,address)":"dd62ed3e","allowedFrom(address)":"0455e694","allowedTo(address)":"78aa33ba","approve(address,uint256)":"095ea7b3","bEIGEN()":"3f4da4c6","balanceOf(address)":"70a08231","checkpoints(address,uint32)":"f1127ed8","clock()":"91ddadf4","decimals()":"313ce567","decreaseAllowance(address,uint256)":"a457c2d7","delegate(address)":"5c19a95c","delegateBySig(address,uint256,uint256,uint8,bytes32,bytes32)":"c3cda520","delegates(address)":"587cde1e","disableTransferRestrictions()":"eb415f45","eip712Domain()":"84b0196e","getPastTotalSupply(uint256)":"8e539e8c","getPastVotes(address,uint256)":"3a46b1a8","getVotes(address)":"9ab24eb0","increaseAllowance(address,uint256)":"39509351","initialize(address,address[],uint256[],uint256[])":"a7d1195d","mint()":"1249c58b","mint(address,uint256)":"40c10f19","mintAllowedAfter(address)":"53957125","mintingAllowance(address)":"81b97161","multisend(address[],uint256[])":"aad41a41","name()":"06fdde03","nonces(address)":"7ecebe00","numCheckpoints(address)":"6fcfff45","owner()":"8da5cb5b","permit(address,address,uint256,uint256,uint8,bytes32,bytes32)":"d505accf","renounceOwnership()":"715018a6","setAllowedFrom(address,bool)":"1ffacdef","setAllowedFromPermissionless(address,bool)":"94b819dc","setAllowedTo(address,bool)":"b8c25594","setTransferRestrictionsDisabledAfterToMax()":"b3793585","symbol()":"95d89b41","totalSupply()":"18160ddd","transfer(address,uint256)":"a9059cbb","transferFrom(address,address,uint256)":"23b872dd","transferOwnership(address)":"f2fde38b","transferOwnershipPermissionless(address)":"ec08f9c4","transferRestrictionsDisabledAfter()":"9aec4bae","unwrap(uint256)":"de0e9a3e","wrap(uint256)":"ea598cb0"},"id":176}