{"abi":[{"type":"constructor","inputs":[{"name":"_strategyManager","type":"address","internalType":"contract IStrategyManager"},{"name":"_pauserRegistry","type":"address","internalType":"contract IPauserRegistry"},{"name":"_version","type":"string","internalType":"string"}],"stateMutability":"nonpayable"},{"type":"function","name":"deposit","inputs":[{"name":"token","type":"address","internalType":"contract IERC20"},{"name":"amount","type":"uint256","internalType":"uint256"}],"outputs":[{"name":"newShares","type":"uint256","internalType":"uint256"}],"stateMutability":"nonpayable"},{"type":"function","name":"explanation","inputs":[],"outputs":[{"name":"","type":"string","internalType":"string"}],"stateMutability":"pure"},{"type":"function","name":"initialize","inputs":[{"name":"_underlyingToken","type":"address","internalType":"contract IERC20"}],"outputs":[],"stateMutability":"nonpayable"},{"type":"function","name":"pause","inputs":[{"name":"newPausedStatus","type":"uint256","internalType":"uint256"}],"outputs":[],"stateMutability":"nonpayable"},{"type":"function","name":"pauseAll","inputs":[],"outputs":[],"stateMutability":"nonpayable"},{"type":"function","name":"paused","inputs":[{"name":"index","type":"uint8","internalType":"uint8"}],"outputs":[{"name":"","type":"bool","internalType":"bool"}],"stateMutability":"view"},{"type":"function","name":"paused","inputs":[],"outputs":[{"name":"","type":"uint256","internalType":"uint256"}],"stateMutability":"view"},{"type":"function","name":"pauserRegistry","inputs":[],"outputs":[{"name":"","type":"address","internalType":"contract IPauserRegistry"}],"stateMutability":"view"},{"type":"function","name":"shares","inputs":[{"name":"user","type":"address","internalType":"address"}],"outputs":[{"name":"","type":"uint256","internalType":"uint256"}],"stateMutability":"view"},{"type":"function","name":"sharesToUnderlying","inputs":[{"name":"amountShares","type":"uint256","internalType":"uint256"}],"outputs":[{"name":"","type":"uint256","internalType":"uint256"}],"stateMutability":"view"},{"type":"function","name":"sharesToUnderlyingView","inputs":[{"name":"amountShares","type":"uint256","internalType":"uint256"}],"outputs":[{"name":"","type":"uint256","internalType":"uint256"}],"stateMutability":"view"},{"type":"function","name":"strategyManager","inputs":[],"outputs":[{"name":"","type":"address","internalType":"contract IStrategyManager"}],"stateMutability":"view"},{"type":"function","name":"totalShares","inputs":[],"outputs":[{"name":"","type":"uint256","internalType":"uint256"}],"stateMutability":"view"},{"type":"function","name":"underlyingToShares","inputs":[{"name":"amountUnderlying","type":"uint256","internalType":"uint256"}],"outputs":[{"name":"","type":"uint256","internalType":"uint256"}],"stateMutability":"view"},{"type":"function","name":"underlyingToSharesView","inputs":[{"name":"amountUnderlying","type":"uint256","internalType":"uint256"}],"outputs":[{"name":"","type":"uint256","internalType":"uint256"}],"stateMutability":"view"},{"type":"function","name":"underlyingToken","inputs":[],"outputs":[{"name":"","type":"address","internalType":"contract IERC20"}],"stateMutability":"view"},{"type":"function","name":"unpause","inputs":[{"name":"newPausedStatus","type":"uint256","internalType":"uint256"}],"outputs":[],"stateMutability":"nonpayable"},{"type":"function","name":"userUnderlying","inputs":[{"name":"user","type":"address","internalType":"address"}],"outputs":[{"name":"","type":"uint256","internalType":"uint256"}],"stateMutability":"nonpayable"},{"type":"function","name":"userUnderlyingView","inputs":[{"name":"user","type":"address","internalType":"address"}],"outputs":[{"name":"","type":"uint256","internalType":"uint256"}],"stateMutability":"view"},{"type":"function","name":"version","inputs":[],"outputs":[{"name":"","type":"string","internalType":"string"}],"stateMutability":"view"},{"type":"function","name":"withdraw","inputs":[{"name":"recipient","type":"address","internalType":"address"},{"name":"token","type":"address","internalType":"contract IERC20"},{"name":"amountShares","type":"uint256","internalType":"uint256"}],"outputs":[],"stateMutability":"nonpayable"},{"type":"event","name":"ExchangeRateEmitted","inputs":[{"name":"rate","type":"uint256","indexed":false,"internalType":"uint256"}],"anonymous":false},{"type":"event","name":"Initialized","inputs":[{"name":"version","type":"uint8","indexed":false,"internalType":"uint8"}],"anonymous":false},{"type":"event","name":"Paused","inputs":[{"name":"account","type":"address","indexed":true,"internalType":"address"},{"name":"newPausedStatus","type":"uint256","indexed":false,"internalType":"uint256"}],"anonymous":false},{"type":"event","name":"StrategyTokenSet","inputs":[{"name":"token","type":"address","indexed":false,"internalType":"contract IERC20"},{"name":"decimals","type":"uint8","indexed":false,"internalType":"uint8"}],"anonymous":false},{"type":"event","name":"Unpaused","inputs":[{"name":"account","type":"address","indexed":true,"internalType":"address"},{"name":"newPausedStatus","type":"uint256","indexed":false,"internalType":"uint256"}],"anonymous":false},{"type":"error","name":"BalanceExceedsMaxTotalDeposits","inputs":[]},{"type":"error","name":"CurrentlyPaused","inputs":[]},{"type":"error","name":"InputAddressZero","inputs":[]},{"type":"error","name":"InvalidNewPausedStatus","inputs":[]},{"type":"error","name":"InvalidShortString","inputs":[]},{"type":"error","name":"MaxPerDepositExceedsMax","inputs":[]},{"type":"error","name":"NewSharesZero","inputs":[]},{"type":"error","name":"OnlyPauser","inputs":[]},{"type":"error","name":"OnlyStrategyManager","inputs":[]},{"type":"error","name":"OnlyUnderlyingToken","inputs":[]},{"type":"error","name":"OnlyUnpauser","inputs":[]},{"type":"error","name":"StringTooLong","inputs":[{"name":"str","type":"string","internalType":"string"}]},{"type":"error","name":"TotalSharesExceedsMax","inputs":[]},{"type":"error","name":"WithdrawalAmountExceedsTotalDeposits","inputs":[]}],"bytecode":{"object":"0x60e060405234801561000f575f5ffd5b506040516115c03803806115c083398101604081905261002e916101b6565b80826001600160a01b038116610057576040516339b190bb60e11b815260040160405180910390fd5b6001600160a01b031660805261006c8161008d565b60a052506001600160a01b03831660c0526100856100d3565b5050506102e7565b5f5f829050601f815111156100c0578260405163305a27a960e01b81526004016100b7919061028c565b60405180910390fd5b80516100cb826102c1565b179392505050565b5f54610100900460ff161561013a5760405162461bcd60e51b815260206004820152602760248201527f496e697469616c697a61626c653a20636f6e747261637420697320696e697469604482015266616c697a696e6760c81b60648201526084016100b7565b5f5460ff90811614610189575f805460ff191660ff9081179091556040519081527f7f26b83ff96e1f2b6a682f133852f6798a09c465da95921460cefb38474024989060200160405180910390a15b565b6001600160a01b038116811461019f575f5ffd5b50565b634e487b7160e01b5f52604160045260245ffd5b5f5f5f606084860312156101c8575f5ffd5b83516101d38161018b565b60208501519093506101e48161018b565b60408501519092506001600160401b038111156101ff575f5ffd5b8401601f8101861361020f575f5ffd5b80516001600160401b03811115610228576102286101a2565b604051601f8201601f19908116603f011681016001600160401b0381118282101715610256576102566101a2565b60405281815282820160200188101561026d575f5ffd5b8160208401602083015e5f602083830101528093505050509250925092565b602081525f82518060208401528060208501604085015e5f604082850101526040601f19601f83011684010191505092915050565b805160208083015191908110156102e1575f198160200360031b1b821691505b50919050565b60805160a05160c05161128561033b5f395f818161018001528181610415015281816107d9015261087601525f61053501525f818161024b015281816103220152818161058601526109a401526112855ff3fe608060405234801561000f575f5ffd5b5060043610610132575f3560e01c80637a8b2637116100b4578063c4d66de811610079578063c4d66de81461029b578063ce7c2ac2146102ae578063d9caed12146102c1578063e3dae51c146102d4578063f3e73875146102e7578063fabc1cbc146102fa575f5ffd5b80637a8b263714610233578063886f1195146102465780638c8710191461026d5780638f6a624014610280578063ab5921e114610293575f5ffd5b806354fd4d50116100fa57806354fd4d50146101cc578063553ca5f8146101e1578063595c6a67146101f45780635ac86ab7146101fc5780635c975abb1461022b575f5ffd5b8063136439dd146101365780632495a5991461014b57806339b70e381461017b5780633a98ef39146101a257806347e7ef24146101b9575b5f5ffd5b610149610144366004610ffa565b61030d565b005b60325461015e906001600160a01b031681565b6040516001600160a01b0390911681526020015b60405180910390f35b61015e7f000000000000000000000000000000000000000000000000000000000000000081565b6101ab60335481565b604051908152602001610172565b6101ab6101c7366004611028565b6103e2565b6101d461052e565b6040516101729190611052565b6101ab6101ef366004611087565b61055e565b610149610571565b61021b61020a3660046110b7565b6001805460ff9092161b9081161490565b6040519015158152602001610172565b6001546101ab565b6101ab610241366004610ffa565b610620565b61015e7f000000000000000000000000000000000000000000000000000000000000000081565b6101ab61027b366004610ffa565b610669565b6101ab61028e366004611087565b610673565b6101d4610680565b6101496102a9366004611087565b6106a0565b6101ab6102bc366004611087565b6107b2565b6101496102cf3660046110d2565b610844565b6101ab6102e2366004610ffa565b610961565b6101ab6102f5366004610ffa565b610998565b610149610308366004610ffa565b6109a2565b60405163237dfb4760e11b81523360048201527f00000000000000000000000000000000000000000000000000000000000000006001600160a01b0316906346fbf68e90602401602060405180830381865afa15801561036f573d5f5f3e3d5ffd5b505050506040513d601f19601f820116820180604052508101906103939190611110565b6103b057604051631d77d47760e21b815260040160405180910390fd5b60015481811681146103d55760405163c61dca5d60e01b815260040160405180910390fd5b6103de82610ab8565b5050565b600180545f91829181160361040a5760405163840a48d560e01b815260040160405180910390fd5b336001600160a01b037f00000000000000000000000000000000000000000000000000000000000000001614610453576040516348da714f60e01b815260040160405180910390fd5b61045d8484610af5565b6033545f61046d6103e883611143565b90505f6103e861047b610b23565b6104859190611143565b90505f6104928783611156565b90508061049f8489611169565b6104a99190611180565b9550855f036104cb57604051630c392ed360e11b815260040160405180910390fd5b6104d58685611143565b60338190556f4b3b4ca85a86c47a098a223fffffffff101561050a57604051632f14e8a360e11b815260040160405180910390fd5b610523826103e860335461051e9190611143565b610b8d565b505050505092915050565b60606105597f0000000000000000000000000000000000000000000000000000000000000000610bd9565b905090565b5f61056b610241836107b2565b92915050565b60405163237dfb4760e11b81523360048201527f00000000000000000000000000000000000000000000000000000000000000006001600160a01b0316906346fbf68e90602401602060405180830381865afa1580156105d3573d5f5f3e3d5ffd5b505050506040513d601f19601f820116820180604052508101906105f79190611110565b61061457604051631d77d47760e21b815260040160405180910390fd5b61061e5f19610ab8565b565b5f5f6103e86033546106329190611143565b90505f6103e8610640610b23565b61064a9190611143565b9050816106578583611169565b6106619190611180565b949350505050565b5f61056b82610961565b5f61056b6102f5836107b2565b60606040518060800160405280604d8152602001611203604d9139905090565b5f54610100900460ff16158080156106be57505f54600160ff909116105b806106d75750303b1580156106d757505f5460ff166001145b61073f5760405162461bcd60e51b815260206004820152602e60248201527f496e697469616c697a61626c653a20636f6e747261637420697320616c72656160448201526d191e481a5b9a5d1a585b1a5e995960921b60648201526084015b60405180910390fd5b5f805460ff191660011790558015610760575f805461ff0019166101001790555b61076982610c16565b80156103de575f805461ff0019169055604051600181527f7f26b83ff96e1f2b6a682f133852f6798a09c465da95921460cefb3847402498906020015b60405180910390a15050565b60405163fe243a1760e01b81526001600160a01b0382811660048301523060248301525f917f00000000000000000000000000000000000000000000000000000000000000009091169063fe243a1790604401602060405180830381865afa158015610820573d5f5f3e3d5ffd5b505050506040513d601f19601f8201168201806040525081019061056b919061119f565b6001805460029081160361086b5760405163840a48d560e01b815260040160405180910390fd5b336001600160a01b037f000000000000000000000000000000000000000000000000000000000000000016146108b4576040516348da714f60e01b815260040160405180910390fd5b6108bf848484610d61565b603354808311156108e357604051630b469df360e41b815260040160405180910390fd5b5f6108f06103e883611143565b90505f6103e86108fe610b23565b6109089190611143565b90505f826109168784611169565b6109209190611180565b905061092c8685611156565b60335561094c61093c8284611156565b6103e860335461051e9190611143565b610957888883610d94565b5050505050505050565b5f5f6103e86033546109739190611143565b90505f6103e8610981610b23565b61098b9190611143565b9050806106578386611169565b5f61056b82610620565b7f00000000000000000000000000000000000000000000000000000000000000006001600160a01b031663eab66d7a6040518163ffffffff1660e01b8152600401602060405180830381865afa1580156109fe573d5f5f3e3d5ffd5b505050506040513d601f19601f82011682018060405250810190610a2291906111b6565b6001600160a01b0316336001600160a01b031614610a535760405163794821ff60e01b815260040160405180910390fd5b60015480198219811614610a7a5760405163c61dca5d60e01b815260040160405180910390fd5b600182905560405182815233907f3582d1828e26bf56bd801502bc021ac0bc8afb57c826e4986b45593c8fad389c9060200160405180910390a25050565b600181905560405181815233907fab40a374bc51de372200a8bc981af8c9ecdc08dfdaef0bb6e09f88f3c616ef3d9060200160405180910390a250565b6032546001600160a01b038381169116146103de57604051630312abdd60e61b815260040160405180910390fd5b6032546040516370a0823160e01b81523060048201525f916001600160a01b0316906370a0823190602401602060405180830381865afa158015610b69573d5f5f3e3d5ffd5b505050506040513d601f19601f82011682018060405250810190610559919061119f565b7fd2494f3479e5da49d386657c292c610b5b01df313d07c62eb0cfa49924a31be881610bc184670de0b6b3a7640000611169565b610bcb9190611180565b6040519081526020016107a6565b60605f610be583610da8565b6040805160208082528183019092529192505f91906020820181803683375050509182525060208101929092525090565b5f54610100900460ff16610c805760405162461bcd60e51b815260206004820152602b60248201527f496e697469616c697a61626c653a20636f6e7472616374206973206e6f74206960448201526a6e697469616c697a696e6760a81b6064820152608401610736565b603280546001600160a01b0319166001600160a01b038316179055610ca45f610ab8565b7f1c540707b00eb5427b6b774fc799d756516a54aee108b64b327acc55af55750760325f9054906101000a90046001600160a01b0316826001600160a01b031663313ce5676040518163ffffffff1660e01b8152600401602060405180830381865afa158015610d16573d5f5f3e3d5ffd5b505050506040513d601f19601f82011682018060405250810190610d3a91906111d1565b604080516001600160a01b03909316835260ff90911660208301520160405180910390a150565b6032546001600160a01b03838116911614610d8f57604051630312abdd60e61b815260040160405180910390fd5b505050565b610d8f6001600160a01b0383168483610dcf565b5f60ff8216601f81111561056b57604051632cd44ac360e21b815260040160405180910390fd5b604080516001600160a01b03848116602483015260448083018590528351808403909101815260649092018352602080830180516001600160e01b031663a9059cbb60e01b17905283518085019094528084527f5361666545524332303a206c6f772d6c6576656c2063616c6c206661696c656490840152610d8f928692915f91610e5e918516908490610edd565b905080515f1480610e7e575080806020019051810190610e7e9190611110565b610d8f5760405162461bcd60e51b815260206004820152602a60248201527f5361666545524332303a204552433230206f7065726174696f6e20646964206e6044820152691bdd081cdd58d8d9595960b21b6064820152608401610736565b606061066184845f85855f5f866001600160a01b03168587604051610f0291906111ec565b5f6040518083038185875af1925050503d805f8114610f3c576040519150601f19603f3d011682016040523d82523d5f602084013e610f41565b606091505b5091509150610f5287838387610f5d565b979650505050505050565b60608315610fcb5782515f03610fc4576001600160a01b0385163b610fc45760405162461bcd60e51b815260206004820152601d60248201527f416464726573733a2063616c6c20746f206e6f6e2d636f6e74726163740000006044820152606401610736565b5081610661565b6106618383815115610fe05781518083602001fd5b8060405162461bcd60e51b81526004016107369190611052565b5f6020828403121561100a575f5ffd5b5035919050565b6001600160a01b0381168114611025575f5ffd5b50565b5f5f60408385031215611039575f5ffd5b823561104481611011565b946020939093013593505050565b602081525f82518060208401528060208501604085015e5f604082850101526040601f19601f83011684010191505092915050565b5f60208284031215611097575f5ffd5b81356110a281611011565b9392505050565b60ff81168114611025575f5ffd5b5f602082840312156110c7575f5ffd5b81356110a2816110a9565b5f5f5f606084860312156110e4575f5ffd5b83356110ef81611011565b925060208401356110ff81611011565b929592945050506040919091013590565b5f60208284031215611120575f5ffd5b815180151581146110a2575f5ffd5b634e487b7160e01b5f52601160045260245ffd5b8082018082111561056b5761056b61112f565b8181038181111561056b5761056b61112f565b808202811582820484141761056b5761056b61112f565b5f8261119a57634e487b7160e01b5f52601260045260245ffd5b500490565b5f602082840312156111af575f5ffd5b5051919050565b5f602082840312156111c6575f5ffd5b81516110a281611011565b5f602082840312156111e1575f5ffd5b81516110a2816110a9565b5f82518060208501845e5f92019182525091905056fe4261736520537472617465677920696d706c656d656e746174696f6e20746f20696e68657269742066726f6d20666f72206d6f726520636f6d706c657820696d706c656d656e746174696f6e73a26469706673582212200f5602e45225708a3bcd40a1c6fdff7ece7a730a4ec1da45a81d3370df643d7364736f6c634300081b0033","linkReferences":{}},"methodIdentifiers":{"deposit(address,uint256)":"47e7ef24","explanation()":"ab5921e1","initialize(address)":"c4d66de8","pause(uint256)":"136439dd","pauseAll()":"595c6a67","paused()":"5c975abb","paused(uint8)":"5ac86ab7","pauserRegistry()":"886f1195","shares(address)":"ce7c2ac2","sharesToUnderlying(uint256)":"f3e73875","sharesToUnderlyingView(uint256)":"7a8b2637","strategyManager()":"39b70e38","totalShares()":"3a98ef39","underlyingToShares(uint256)":"8c871019","underlyingToSharesView(uint256)":"e3dae51c","underlyingToken()":"2495a599","unpause(uint256)":"fabc1cbc","userUnderlying(address)":"8f6a6240","userUnderlyingView(address)":"553ca5f8","version()":"54fd4d50","withdraw(address,address,uint256)":"d9caed12"},"id":167}