{"abi":[{"type":"constructor","inputs":[{"name":"_delegation","type":"address","internalType":"contract IDelegationManager"},{"name":"_pauserRegistry","type":"address","internalType":"contract IPauserRegistry"}],"stateMutability":"nonpayable"},{"type":"function","name":"OPERATOR_AVS_REGISTRATION_TYPEHASH","inputs":[],"outputs":[{"name":"","type":"bytes32","internalType":"bytes32"}],"stateMutability":"view"},{"type":"function","name":"OPERATOR_SET_FORCE_DEREGISTRATION_TYPEHASH","inputs":[],"outputs":[{"name":"","type":"bytes32","internalType":"bytes32"}],"stateMutability":"view"},{"type":"function","name":"OPERATOR_SET_REGISTRATION_TYPEHASH","inputs":[],"outputs":[{"name":"","type":"bytes32","internalType":"bytes32"}],"stateMutability":"view"},{"type":"function","name":"avsOperatorStatus","inputs":[{"name":"avs","type":"address","internalType":"address"},{"name":"operator","type":"address","internalType":"address"}],"outputs":[{"name":"","type":"uint8","internalType":"enum IAVSDirectoryTypes.OperatorAVSRegistrationStatus"}],"stateMutability":"view"},{"type":"function","name":"calculateOperatorAVSRegistrationDigestHash","inputs":[{"name":"operator","type":"address","internalType":"address"},{"name":"avs","type":"address","internalType":"address"},{"name":"salt","type":"bytes32","internalType":"bytes32"},{"name":"expiry","type":"uint256","internalType":"uint256"}],"outputs":[{"name":"","type":"bytes32","internalType":"bytes32"}],"stateMutability":"view"},{"type":"function","name":"cancelSalt","inputs":[{"name":"salt","type":"bytes32","internalType":"bytes32"}],"outputs":[],"stateMutability":"nonpayable"},{"type":"function","name":"delegation","inputs":[],"outputs":[{"name":"","type":"address","internalType":"contract IDelegationManager"}],"stateMutability":"view"},{"type":"function","name":"deregisterOperatorFromAVS","inputs":[{"name":"operator","type":"address","internalType":"address"}],"outputs":[],"stateMutability":"nonpayable"},{"type":"function","name":"domainSeparator","inputs":[],"outputs":[{"name":"","type":"bytes32","internalType":"bytes32"}],"stateMutability":"view"},{"type":"function","name":"initialize","inputs":[{"name":"initialOwner","type":"address","internalType":"address"},{"name":"initialPausedStatus","type":"uint256","internalType":"uint256"}],"outputs":[],"stateMutability":"nonpayable"},{"type":"function","name":"operatorSaltIsSpent","inputs":[{"name":"operator","type":"address","internalType":"address"},{"name":"salt","type":"bytes32","internalType":"bytes32"}],"outputs":[{"name":"isSpent","type":"bool","internalType":"bool"}],"stateMutability":"view"},{"type":"function","name":"owner","inputs":[],"outputs":[{"name":"","type":"address","internalType":"address"}],"stateMutability":"view"},{"type":"function","name":"pause","inputs":[{"name":"newPausedStatus","type":"uint256","internalType":"uint256"}],"outputs":[],"stateMutability":"nonpayable"},{"type":"function","name":"pauseAll","inputs":[],"outputs":[],"stateMutability":"nonpayable"},{"type":"function","name":"paused","inputs":[{"name":"index","type":"uint8","internalType":"uint8"}],"outputs":[{"name":"","type":"bool","internalType":"bool"}],"stateMutability":"view"},{"type":"function","name":"paused","inputs":[],"outputs":[{"name":"","type":"uint256","internalType":"uint256"}],"stateMutability":"view"},{"type":"function","name":"pauserRegistry","inputs":[],"outputs":[{"name":"","type":"address","internalType":"contract IPauserRegistry"}],"stateMutability":"view"},{"type":"function","name":"registerOperatorToAVS","inputs":[{"name":"operator","type":"address","internalType":"address"},{"name":"operatorSignature","type":"tuple","internalType":"struct ISignatureUtils.SignatureWithSaltAndExpiry","components":[{"name":"signature","type":"bytes","internalType":"bytes"},{"name":"salt","type":"bytes32","internalType":"bytes32"},{"name":"expiry","type":"uint256","internalType":"uint256"}]}],"outputs":[],"stateMutability":"nonpayable"},{"type":"function","name":"renounceOwnership","inputs":[],"outputs":[],"stateMutability":"nonpayable"},{"type":"function","name":"transferOwnership","inputs":[{"name":"newOwner","type":"address","internalType":"address"}],"outputs":[],"stateMutability":"nonpayable"},{"type":"function","name":"unpause","inputs":[{"name":"newPausedStatus","type":"uint256","internalType":"uint256"}],"outputs":[],"stateMutability":"nonpayable"},{"type":"function","name":"updateAVSMetadataURI","inputs":[{"name":"metadataURI","type":"string","internalType":"string"}],"outputs":[],"stateMutability":"nonpayable"},{"type":"event","name":"AVSMetadataURIUpdated","inputs":[{"name":"avs","type":"address","indexed":true,"internalType":"address"},{"name":"metadataURI","type":"string","indexed":false,"internalType":"string"}],"anonymous":false},{"type":"event","name":"Initialized","inputs":[{"name":"version","type":"uint8","indexed":false,"internalType":"uint8"}],"anonymous":false},{"type":"event","name":"OperatorAVSRegistrationStatusUpdated","inputs":[{"name":"operator","type":"address","indexed":true,"internalType":"address"},{"name":"avs","type":"address","indexed":true,"internalType":"address"},{"name":"status","type":"uint8","indexed":false,"internalType":"enum IAVSDirectoryTypes.OperatorAVSRegistrationStatus"}],"anonymous":false},{"type":"event","name":"OwnershipTransferred","inputs":[{"name":"previousOwner","type":"address","indexed":true,"internalType":"address"},{"name":"newOwner","type":"address","indexed":true,"internalType":"address"}],"anonymous":false},{"type":"event","name":"Paused","inputs":[{"name":"account","type":"address","indexed":true,"internalType":"address"},{"name":"newPausedStatus","type":"uint256","indexed":false,"internalType":"uint256"}],"anonymous":false},{"type":"event","name":"Unpaused","inputs":[{"name":"account","type":"address","indexed":true,"internalType":"address"},{"name":"newPausedStatus","type":"uint256","indexed":false,"internalType":"uint256"}],"anonymous":false},{"type":"error","name":"CurrentlyPaused","inputs":[]},{"type":"error","name":"InputAddressZero","inputs":[]},{"type":"error","name":"InvalidNewPausedStatus","inputs":[]},{"type":"error","name":"InvalidSignature","inputs":[]},{"type":"error","name":"OnlyPauser","inputs":[]},{"type":"error","name":"OnlyUnpauser","inputs":[]},{"type":"error","name":"OperatorAlreadyRegisteredToAVS","inputs":[]},{"type":"error","name":"OperatorNotRegisteredToAVS","inputs":[]},{"type":"error","name":"OperatorNotRegisteredToEigenLayer","inputs":[]},{"type":"error","name":"SaltSpent","inputs":[]},{"type":"error","name":"SignatureExpired","inputs":[]}],"bytecode":{"object":"0x610100604052348015610010575f5ffd5b5060405161170438038061170483398101604081905261002f916101ed565b81816001600160a01b038116610058576040516339b190bb60e11b815260040160405180910390fd5b6001600160a01b039081166080521660a0524660c052610108604080518082018252600a81526922b4b3b2b72630bcb2b960b11b60209182015281517f8cad95687ba82c2ce50e74f7b754645e5117c3a5bec8151c0726d5857980a866818301527f71b625cfad44bac63b13dba07f2e1d6084ee04b6f8752101ece6126d584ee6ea81840152466060820152306080808301919091528351808303909101815260a0909101909252815191012090565b60e05261011361011a565b5050610225565b5f54610100900460ff16156101855760405162461bcd60e51b815260206004820152602760248201527f496e697469616c697a61626c653a20636f6e747261637420697320696e697469604482015266616c697a696e6760c81b606482015260840160405180910390fd5b5f5460ff908116146101d4575f805460ff191660ff9081179091556040519081527f7f26b83ff96e1f2b6a682f133852f6798a09c465da95921460cefb38474024989060200160405180910390a15b565b6001600160a01b03811681146101ea575f5ffd5b50565b5f5f604083850312156101fe575f5ffd5b8251610209816101d6565b602084015190925061021a816101d6565b809150509250929050565b60805160a05160c05160e0516114906102745f395f610b7a01525f610aba01525f8181610340015261063d01525f818161021c015281816103d8015281816104ad0152610b9e01526114905ff3fe608060405234801561000f575f5ffd5b506004361061013d575f3560e01c8063a364f4da116100b4578063dce974b911610079578063dce974b914610314578063df5cf7231461033b578063ec76f44214610362578063f2fde38b14610395578063f698da25146103a8578063fabc1cbc146103b0575f5ffd5b8063a364f4da1461028d578063a98fb355146102a0578063c825fe68146102b3578063cd6dc687146102da578063d79aceab146102ed575f5ffd5b80635c975abb116101055780635c975abb146101fd578063715018a61461020f578063886f1195146102175780638da5cb5b146102565780639926ee7d14610267578063a1060c881461027a575f5ffd5b8063136439dd14610141578063374823b51461015657806349075da314610198578063595c6a67146101d25780635ac86ab7146101da575b5f5ffd5b61015461014f366004611075565b6103c3565b005b6101836101643660046110a0565b609960209081525f928352604080842090915290825290205460ff1681565b60405190151581526020015b60405180910390f35b6101c56101a63660046110ca565b609860209081525f928352604080842090915290825290205460ff1681565b60405161018f9190611115565b610154610498565b6101836101e836600461113b565b606654600160ff9092169190911b9081161490565b6066545b60405190815260200161018f565b610154610547565b61023e7f000000000000000000000000000000000000000000000000000000000000000081565b6040516001600160a01b03909116815260200161018f565b6033546001600160a01b031661023e565b6101546102753660046111d0565b610558565b6102016102883660046112bd565b610777565b61015461029b366004611300565b6107f6565b6101546102ae36600461131b565b6108db565b6102017f809c5ac049c45b7a7f050a20f00c16cf63797efbf8b1eb8d749fdfa39ff8f92981565b6101546102e83660046110a0565b610922565b6102017fda2c89bafdd34776a2b8bb9c83c82f419e20cc8c67207f70edd58249b92661bd81565b6102017f4ee65f64218c67b68da66fd0db16560040a6b973290b9e71912d661ee53fe49581565b61023e7f000000000000000000000000000000000000000000000000000000000000000081565b610154610370366004611075565b335f90815260996020908152604080832093835292905220805460ff19166001179055565b6101546103a3366004611300565b610a3e565b610201610ab7565b6101546103be366004611075565b610b9c565b60405163237dfb4760e11b81523360048201527f00000000000000000000000000000000000000000000000000000000000000006001600160a01b0316906346fbf68e90602401602060405180830381865afa158015610425573d5f5f3e3d5ffd5b505050506040513d601f19601f820116820180604052508101906104499190611389565b61046657604051631d77d47760e21b815260040160405180910390fd5b606654818116811461048b5760405163c61dca5d60e01b815260040160405180910390fd5b61049482610cab565b5050565b60405163237dfb4760e11b81523360048201527f00000000000000000000000000000000000000000000000000000000000000006001600160a01b0316906346fbf68e90602401602060405180830381865afa1580156104fa573d5f5f3e3d5ffd5b505050506040513d601f19601f8201168201806040525081019061051e9190611389565b61053b57604051631d77d47760e21b815260040160405180910390fd5b6105455f19610cab565b565b61054f610ce8565b6105455f610d42565b6066545f906001908116036105805760405163840a48d560e01b815260040160405180910390fd5b6001335f9081526098602090815260408083206001600160a01b038816845290915290205460ff1660018111156105b9576105b9611101565b036105d757604051631aa528bb60e11b815260040160405180910390fd5b6001600160a01b0383165f90815260996020908152604080832085830151845290915290205460ff161561061e57604051630d4c4c9160e21b815260040160405180910390fd5b6040516336b87bd760e11b81526001600160a01b0384811660048301527f00000000000000000000000000000000000000000000000000000000000000001690636d70f7ae90602401602060405180830381865afa158015610682573d5f5f3e3d5ffd5b505050506040513d601f19601f820116820180604052508101906106a69190611389565b6106c357604051639f88c8af60e01b815260040160405180910390fd5b6106e7836106db853386602001518760400151610777565b84516040860151610d93565b6001600160a01b0383165f81815260996020908152604080832086830151845282528083208054600160ff19918216811790925533808652609885528386208787529094529382902080549094168117909355519092917ff0952b1c65271d819d39983d2abb044b9cace59bcc4d4dd389f586ebdcb15b419161076a9190611115565b60405180910390a3505050565b604080517fda2c89bafdd34776a2b8bb9c83c82f419e20cc8c67207f70edd58249b92661bd60208201526001600160a01b038087169282019290925290841660608201526080810183905260a081018290525f906107ed9060c00160405160208183030381529060405280519060200120610deb565b95945050505050565b6066545f9060019081160361081e5760405163840a48d560e01b815260040160405180910390fd5b6001335f9081526098602090815260408083206001600160a01b038716845290915290205460ff16600181111561085757610857611101565b14610875576040516352df45c960e01b815260040160405180910390fd5b335f8181526098602090815260408083206001600160a01b0387168085529252808320805460ff191690555190917ff0952b1c65271d819d39983d2abb044b9cace59bcc4d4dd389f586ebdcb15b41916108cf9190611115565b60405180910390a35050565b336001600160a01b03167fa89c1dc243d8908a96dd84944bcc97d6bc6ac00dd78e20621576be6a3c94371383836040516109169291906113a8565b60405180910390a25050565b5f54610100900460ff161580801561094057505f54600160ff909116105b806109595750303b15801561095957505f5460ff166001145b6109c15760405162461bcd60e51b815260206004820152602e60248201527f496e697469616c697a61626c653a20636f6e747261637420697320616c72656160448201526d191e481a5b9a5d1a585b1a5e995960921b60648201526084015b60405180910390fd5b5f805460ff1916600117905580156109e2575f805461ff0019166101001790555b6109eb82610cab565b6109f483610d42565b8015610a39575f805461ff0019169055604051600181527f7f26b83ff96e1f2b6a682f133852f6798a09c465da95921460cefb38474024989060200160405180910390a15b505050565b610a46610ce8565b6001600160a01b038116610aab5760405162461bcd60e51b815260206004820152602660248201527f4f776e61626c653a206e6577206f776e657220697320746865207a65726f206160448201526564647265737360d01b60648201526084016109b8565b610ab481610d42565b50565b5f7f00000000000000000000000000000000000000000000000000000000000000004614610b775750604080518082018252600a81526922b4b3b2b72630bcb2b960b11b60209182015281517f8cad95687ba82c2ce50e74f7b754645e5117c3a5bec8151c0726d5857980a866818301527f71b625cfad44bac63b13dba07f2e1d6084ee04b6f8752101ece6126d584ee6ea81840152466060820152306080808301919091528351808303909101815260a0909101909252815191012090565b507f000000000000000000000000000000000000000000000000000000000000000090565b7f00000000000000000000000000000000000000000000000000000000000000006001600160a01b031663eab66d7a6040518163ffffffff1660e01b8152600401602060405180830381865afa158015610bf8573d5f5f3e3d5ffd5b505050506040513d601f19601f82011682018060405250810190610c1c91906113d6565b6001600160a01b0316336001600160a01b031614610c4d5760405163794821ff60e01b815260040160405180910390fd5b60665480198219811614610c745760405163c61dca5d60e01b815260040160405180910390fd5b606682905560405182815233907f3582d1828e26bf56bd801502bc021ac0bc8afb57c826e4986b45593c8fad389c90602001610916565b606681905560405181815233907fab40a374bc51de372200a8bc981af8c9ecdc08dfdaef0bb6e09f88f3c616ef3d9060200160405180910390a250565b6033546001600160a01b031633146105455760405162461bcd60e51b815260206004820181905260248201527f4f776e61626c653a2063616c6c6572206973206e6f7420746865206f776e657260448201526064016109b8565b603380546001600160a01b038381166001600160a01b0319831681179093556040519116919082907f8be0079c531659141344cd1fd0a4f28419497f9722a3daafe3b4186f6b6457e0905f90a35050565b42811015610db457604051630819bdcd60e01b815260040160405180910390fd5b610dc86001600160a01b0385168484610e31565b610de557604051638baa579f60e01b815260040160405180910390fd5b50505050565b5f610df4610ab7565b60405161190160f01b6020820152602281019190915260428101839052606201604051602081830303815290604052805190602001209050919050565b5f5f5f610e3e8585610e8f565b90925090505f816004811115610e5657610e56611101565b148015610e745750856001600160a01b0316826001600160a01b0316145b80610e855750610e85868686610ed1565b9695505050505050565b5f5f8251604103610ec3576020830151604084015160608501515f1a610eb787828585610fb8565b94509450505050610eca565b505f905060025b9250929050565b5f5f5f856001600160a01b0316631626ba7e60e01b8686604051602401610ef99291906113f1565b60408051601f198184030181529181526020820180516001600160e01b03166001600160e01b0319909416939093179092529051610f37919061142d565b5f60405180830381855afa9150503d805f8114610f6f576040519150601f19603f3d011682016040523d82523d5f602084013e610f74565b606091505b5091509150818015610f8857506020815110155b8015610e8557508051630b135d3f60e11b90610fad9083016020908101908401611443565b149695505050505050565b5f807f7fffffffffffffffffffffffffffffff5d576e7357a4501ddfe92f46681b20a0831115610fed57505f9050600361106c565b604080515f8082526020820180845289905260ff881692820192909252606081018690526080810185905260019060a0016020604051602081039080840390855afa15801561103e573d5f5f3e3d5ffd5b5050604051601f1901519150506001600160a01b038116611066575f6001925092505061106c565b91505f90505b94509492505050565b5f60208284031215611085575f5ffd5b5035919050565b6001600160a01b0381168114610ab4575f5ffd5b5f5f604083850312156110b1575f5ffd5b82356110bc8161108c565b946020939093013593505050565b5f5f604083850312156110db575f5ffd5b82356110e68161108c565b915060208301356110f68161108c565b809150509250929050565b634e487b7160e01b5f52602160045260245ffd5b602081016002831061113557634e487b7160e01b5f52602160045260245ffd5b91905290565b5f6020828403121561114b575f5ffd5b813560ff8116811461115b575f5ffd5b9392505050565b634e487b7160e01b5f52604160045260245ffd5b6040516060810167ffffffffffffffff8111828210171561119957611199611162565b60405290565b604051601f8201601f1916810167ffffffffffffffff811182821017156111c8576111c8611162565b604052919050565b5f5f604083850312156111e1575f5ffd5b82356111ec8161108c565b9150602083013567ffffffffffffffff811115611207575f5ffd5b830160608186031215611218575f5ffd5b611220611176565b813567ffffffffffffffff811115611236575f5ffd5b8201601f81018713611246575f5ffd5b803567ffffffffffffffff81111561126057611260611162565b611273601f8201601f191660200161119f565b818152886020838501011115611287575f5ffd5b816020840160208301375f6020928201830152835283810135908301525060409182013591810191909152919491935090915050565b5f5f5f5f608085870312156112d0575f5ffd5b84356112db8161108c565b935060208501356112eb8161108c565b93969395505050506040820135916060013590565b5f60208284031215611310575f5ffd5b813561115b8161108c565b5f5f6020838503121561132c575f5ffd5b823567ffffffffffffffff811115611342575f5ffd5b8301601f81018513611352575f5ffd5b803567ffffffffffffffff811115611368575f5ffd5b856020828401011115611379575f5ffd5b6020919091019590945092505050565b5f60208284031215611399575f5ffd5b8151801515811461115b575f5ffd5b60208152816020820152818360408301375f818301604090810191909152601f909201601f19160101919050565b5f602082840312156113e6575f5ffd5b815161115b8161108c565b828152604060208201525f82518060408401528060208501606085015e5f606082850101526060601f19601f8301168401019150509392505050565b5f82518060208501845e5f920191825250919050565b5f60208284031215611453575f5ffd5b505191905056fea26469706673582212200a97955bb84beb8a4111ee3678b1f3ce74f858f2641b836e2bc33f199e0e4b9264736f6c634300081b0033","linkReferences":{}},"methodIdentifiers":{"OPERATOR_AVS_REGISTRATION_TYPEHASH()":"d79aceab","OPERATOR_SET_FORCE_DEREGISTRATION_TYPEHASH()":"dce974b9","OPERATOR_SET_REGISTRATION_TYPEHASH()":"c825fe68","avsOperatorStatus(address,address)":"49075da3","calculateOperatorAVSRegistrationDigestHash(address,address,bytes32,uint256)":"a1060c88","cancelSalt(bytes32)":"ec76f442","delegation()":"df5cf723","deregisterOperatorFromAVS(address)":"a364f4da","domainSeparator()":"f698da25","initialize(address,uint256)":"cd6dc687","operatorSaltIsSpent(address,bytes32)":"374823b5","owner()":"8da5cb5b","pause(uint256)":"136439dd","pauseAll()":"595c6a67","paused()":"5c975abb","paused(uint8)":"5ac86ab7","pauserRegistry()":"886f1195","registerOperatorToAVS(address,(bytes,bytes32,uint256))":"9926ee7d","renounceOwnership()":"715018a6","transferOwnership(address)":"f2fde38b","unpause(uint256)":"fabc1cbc","updateAVSMetadataURI(string)":"a98fb355"},"id":119}