{"abi":[{"type":"constructor","inputs":[{"name":"_strategyManager","type":"address","internalType":"contract IStrategyManager"},{"name":"_eigenPodManager","type":"address","internalType":"contract IEigenPodManager"},{"name":"_allocationManager","type":"address","internalType":"contract IAllocationManager"},{"name":"_pauserRegistry","type":"address","internalType":"contract IPauserRegistry"},{"name":"_permissionController","type":"address","internalType":"contract IPermissionController"},{"name":"_MIN_WITHDRAWAL_DELAY","type":"uint32","internalType":"uint32"}],"stateMutability":"nonpayable"},{"type":"function","name":"DELEGATION_APPROVAL_TYPEHASH","inputs":[],"outputs":[{"name":"","type":"bytes32","internalType":"bytes32"}],"stateMutability":"view"},{"type":"function","name":"allocationManager","inputs":[],"outputs":[{"name":"","type":"address","internalType":"contract IAllocationManager"}],"stateMutability":"view"},{"type":"function","name":"beaconChainETHStrategy","inputs":[],"outputs":[{"name":"","type":"address","internalType":"contract IStrategy"}],"stateMutability":"view"},{"type":"function","name":"calculateDelegationApprovalDigestHash","inputs":[{"name":"staker","type":"address","internalType":"address"},{"name":"operator","type":"address","internalType":"address"},{"name":"approver","type":"address","internalType":"address"},{"name":"approverSalt","type":"bytes32","internalType":"bytes32"},{"name":"expiry","type":"uint256","internalType":"uint256"}],"outputs":[{"name":"","type":"bytes32","internalType":"bytes32"}],"stateMutability":"view"},{"type":"function","name":"calculateWithdrawalRoot","inputs":[{"name":"withdrawal","type":"tuple","internalType":"struct IDelegationManagerTypes.Withdrawal","components":[{"name":"staker","type":"address","internalType":"address"},{"name":"delegatedTo","type":"address","internalType":"address"},{"name":"withdrawer","type":"address","internalType":"address"},{"name":"nonce","type":"uint256","internalType":"uint256"},{"name":"startBlock","type":"uint32","internalType":"uint32"},{"name":"strategies","type":"address[]","internalType":"contract IStrategy[]"},{"name":"scaledShares","type":"uint256[]","internalType":"uint256[]"}]}],"outputs":[{"name":"","type":"bytes32","internalType":"bytes32"}],"stateMutability":"pure"},{"type":"function","name":"completeQueuedWithdrawal","inputs":[{"name":"withdrawal","type":"tuple","internalType":"struct IDelegationManagerTypes.Withdrawal","components":[{"name":"staker","type":"address","internalType":"address"},{"name":"delegatedTo","type":"address","internalType":"address"},{"name":"withdrawer","type":"address","internalType":"address"},{"name":"nonce","type":"uint256","internalType":"uint256"},{"name":"startBlock","type":"uint32","internalType":"uint32"},{"name":"strategies","type":"address[]","internalType":"contract IStrategy[]"},{"name":"scaledShares","type":"uint256[]","internalType":"uint256[]"}]},{"name":"tokens","type":"address[]","internalType":"contract IERC20[]"},{"name":"receiveAsTokens","type":"bool","internalType":"bool"}],"outputs":[],"stateMutability":"nonpayable"},{"type":"function","name":"completeQueuedWithdrawals","inputs":[{"name":"withdrawals","type":"tuple[]","internalType":"struct IDelegationManagerTypes.Withdrawal[]","components":[{"name":"staker","type":"address","internalType":"address"},{"name":"delegatedTo","type":"address","internalType":"address"},{"name":"withdrawer","type":"address","internalType":"address"},{"name":"nonce","type":"uint256","internalType":"uint256"},{"name":"startBlock","type":"uint32","internalType":"uint32"},{"name":"strategies","type":"address[]","internalType":"contract IStrategy[]"},{"name":"scaledShares","type":"uint256[]","internalType":"uint256[]"}]},{"name":"tokens","type":"address[][]","internalType":"contract IERC20[][]"},{"name":"receiveAsTokens","type":"bool[]","internalType":"bool[]"}],"outputs":[],"stateMutability":"nonpayable"},{"type":"function","name":"convertToDepositShares","inputs":[{"name":"staker","type":"address","internalType":"address"},{"name":"strategies","type":"address[]","internalType":"contract IStrategy[]"},{"name":"withdrawableShares","type":"uint256[]","internalType":"uint256[]"}],"outputs":[{"name":"","type":"uint256[]","internalType":"uint256[]"}],"stateMutability":"view"},{"type":"function","name":"cumulativeWithdrawalsQueued","inputs":[{"name":"staker","type":"address","internalType":"address"}],"outputs":[{"name":"totalQueued","type":"uint256","internalType":"uint256"}],"stateMutability":"view"},{"type":"function","name":"decreaseDelegatedShares","inputs":[{"name":"staker","type":"address","internalType":"address"},{"name":"curDepositShares","type":"uint256","internalType":"uint256"},{"name":"beaconChainSlashingFactorDecrease","type":"uint64","internalType":"uint64"}],"outputs":[],"stateMutability":"nonpayable"},{"type":"function","name":"delegateTo","inputs":[{"name":"operator","type":"address","internalType":"address"},{"name":"approverSignatureAndExpiry","type":"tuple","internalType":"struct ISignatureUtils.SignatureWithExpiry","components":[{"name":"signature","type":"bytes","internalType":"bytes"},{"name":"expiry","type":"uint256","internalType":"uint256"}]},{"name":"approverSalt","type":"bytes32","internalType":"bytes32"}],"outputs":[],"stateMutability":"nonpayable"},{"type":"function","name":"delegatedTo","inputs":[{"name":"staker","type":"address","internalType":"address"}],"outputs":[{"name":"operator","type":"address","internalType":"address"}],"stateMutability":"view"},{"type":"function","name":"delegationApprover","inputs":[{"name":"operator","type":"address","internalType":"address"}],"outputs":[{"name":"","type":"address","internalType":"address"}],"stateMutability":"view"},{"type":"function","name":"delegationApproverSaltIsSpent","inputs":[{"name":"delegationApprover","type":"address","internalType":"address"},{"name":"salt","type":"bytes32","internalType":"bytes32"}],"outputs":[{"name":"spent","type":"bool","internalType":"bool"}],"stateMutability":"view"},{"type":"function","name":"depositScalingFactor","inputs":[{"name":"staker","type":"address","internalType":"address"},{"name":"strategy","type":"address","internalType":"contract IStrategy"}],"outputs":[{"name":"","type":"uint256","internalType":"uint256"}],"stateMutability":"view"},{"type":"function","name":"domainSeparator","inputs":[],"outputs":[{"name":"","type":"bytes32","internalType":"bytes32"}],"stateMutability":"view"},{"type":"function","name":"eigenPodManager","inputs":[],"outputs":[{"name":"","type":"address","internalType":"contract IEigenPodManager"}],"stateMutability":"view"},{"type":"function","name":"getDepositedShares","inputs":[{"name":"staker","type":"address","internalType":"address"}],"outputs":[{"name":"","type":"address[]","internalType":"contract IStrategy[]"},{"name":"","type":"uint256[]","internalType":"uint256[]"}],"stateMutability":"view"},{"type":"function","name":"getOperatorShares","inputs":[{"name":"operator","type":"address","internalType":"address"},{"name":"strategies","type":"address[]","internalType":"contract IStrategy[]"}],"outputs":[{"name":"","type":"uint256[]","internalType":"uint256[]"}],"stateMutability":"view"},{"type":"function","name":"getOperatorsShares","inputs":[{"name":"operators","type":"address[]","internalType":"address[]"},{"name":"strategies","type":"address[]","internalType":"contract IStrategy[]"}],"outputs":[{"name":"","type":"uint256[][]","internalType":"uint256[][]"}],"stateMutability":"view"},{"type":"function","name":"getQueuedWithdrawal","inputs":[{"name":"withdrawalRoot","type":"bytes32","internalType":"bytes32"}],"outputs":[{"name":"","type":"tuple","internalType":"struct IDelegationManagerTypes.Withdrawal","components":[{"name":"staker","type":"address","internalType":"address"},{"name":"delegatedTo","type":"address","internalType":"address"},{"name":"withdrawer","type":"address","internalType":"address"},{"name":"nonce","type":"uint256","internalType":"uint256"},{"name":"startBlock","type":"uint32","internalType":"uint32"},{"name":"strategies","type":"address[]","internalType":"contract IStrategy[]"},{"name":"scaledShares","type":"uint256[]","internalType":"uint256[]"}]}],"stateMutability":"view"},{"type":"function","name":"getQueuedWithdrawalRoots","inputs":[{"name":"staker","type":"address","internalType":"address"}],"outputs":[{"name":"","type":"bytes32[]","internalType":"bytes32[]"}],"stateMutability":"view"},{"type":"function","name":"getQueuedWithdrawals","inputs":[{"name":"staker","type":"address","internalType":"address"}],"outputs":[{"name":"withdrawals","type":"tuple[]","internalType":"struct IDelegationManagerTypes.Withdrawal[]","components":[{"name":"staker","type":"address","internalType":"address"},{"name":"delegatedTo","type":"address","internalType":"address"},{"name":"withdrawer","type":"address","internalType":"address"},{"name":"nonce","type":"uint256","internalType":"uint256"},{"name":"startBlock","type":"uint32","internalType":"uint32"},{"name":"strategies","type":"address[]","internalType":"contract IStrategy[]"},{"name":"scaledShares","type":"uint256[]","internalType":"uint256[]"}]},{"name":"shares","type":"uint256[][]","internalType":"uint256[][]"}],"stateMutability":"view"},{"type":"function","name":"getSlashableSharesInQueue","inputs":[{"name":"operator","type":"address","internalType":"address"},{"name":"strategy","type":"address","internalType":"contract IStrategy"}],"outputs":[{"name":"","type":"uint256","internalType":"uint256"}],"stateMutability":"view"},{"type":"function","name":"getWithdrawableShares","inputs":[{"name":"staker","type":"address","internalType":"address"},{"name":"strategies","type":"address[]","internalType":"contract IStrategy[]"}],"outputs":[{"name":"withdrawableShares","type":"uint256[]","internalType":"uint256[]"},{"name":"depositShares","type":"uint256[]","internalType":"uint256[]"}],"stateMutability":"view"},{"type":"function","name":"increaseDelegatedShares","inputs":[{"name":"staker","type":"address","internalType":"address"},{"name":"strategy","type":"address","internalType":"contract IStrategy"},{"name":"prevDepositShares","type":"uint256","internalType":"uint256"},{"name":"addedShares","type":"uint256","internalType":"uint256"}],"outputs":[],"stateMutability":"nonpayable"},{"type":"function","name":"initialize","inputs":[{"name":"initialOwner","type":"address","internalType":"address"},{"name":"initialPausedStatus","type":"uint256","internalType":"uint256"}],"outputs":[],"stateMutability":"nonpayable"},{"type":"function","name":"isDelegated","inputs":[{"name":"staker","type":"address","internalType":"address"}],"outputs":[{"name":"","type":"bool","internalType":"bool"}],"stateMutability":"view"},{"type":"function","name":"isOperator","inputs":[{"name":"operator","type":"address","internalType":"address"}],"outputs":[{"name":"","type":"bool","internalType":"bool"}],"stateMutability":"view"},{"type":"function","name":"minWithdrawalDelayBlocks","inputs":[],"outputs":[{"name":"","type":"uint32","internalType":"uint32"}],"stateMutability":"view"},{"type":"function","name":"modifyOperatorDetails","inputs":[{"name":"operator","type":"address","internalType":"address"},{"name":"newDelegationApprover","type":"address","internalType":"address"}],"outputs":[],"stateMutability":"nonpayable"},{"type":"function","name":"operatorShares","inputs":[{"name":"operator","type":"address","internalType":"address"},{"name":"strategy","type":"address","internalType":"contract IStrategy"}],"outputs":[{"name":"shares","type":"uint256","internalType":"uint256"}],"stateMutability":"view"},{"type":"function","name":"owner","inputs":[],"outputs":[{"name":"","type":"address","internalType":"address"}],"stateMutability":"view"},{"type":"function","name":"pause","inputs":[{"name":"newPausedStatus","type":"uint256","internalType":"uint256"}],"outputs":[],"stateMutability":"nonpayable"},{"type":"function","name":"pauseAll","inputs":[],"outputs":[],"stateMutability":"nonpayable"},{"type":"function","name":"paused","inputs":[{"name":"index","type":"uint8","internalType":"uint8"}],"outputs":[{"name":"","type":"bool","internalType":"bool"}],"stateMutability":"view"},{"type":"function","name":"paused","inputs":[],"outputs":[{"name":"","type":"uint256","internalType":"uint256"}],"stateMutability":"view"},{"type":"function","name":"pauserRegistry","inputs":[],"outputs":[{"name":"","type":"address","internalType":"contract IPauserRegistry"}],"stateMutability":"view"},{"type":"function","name":"pendingWithdrawals","inputs":[{"name":"withdrawalRoot","type":"bytes32","internalType":"bytes32"}],"outputs":[{"name":"pending","type":"bool","internalType":"bool"}],"stateMutability":"view"},{"type":"function","name":"permissionController","inputs":[],"outputs":[{"name":"","type":"address","internalType":"contract IPermissionController"}],"stateMutability":"view"},{"type":"function","name":"queueWithdrawals","inputs":[{"name":"params","type":"tuple[]","internalType":"struct IDelegationManagerTypes.QueuedWithdrawalParams[]","components":[{"name":"strategies","type":"address[]","internalType":"contract IStrategy[]"},{"name":"depositShares","type":"uint256[]","internalType":"uint256[]"},{"name":"__deprecated_withdrawer","type":"address","internalType":"address"}]}],"outputs":[{"name":"","type":"bytes32[]","internalType":"bytes32[]"}],"stateMutability":"nonpayable"},{"type":"function","name":"redelegate","inputs":[{"name":"newOperator","type":"address","internalType":"address"},{"name":"newOperatorApproverSig","type":"tuple","internalType":"struct ISignatureUtils.SignatureWithExpiry","components":[{"name":"signature","type":"bytes","internalType":"bytes"},{"name":"expiry","type":"uint256","internalType":"uint256"}]},{"name":"approverSalt","type":"bytes32","internalType":"bytes32"}],"outputs":[{"name":"withdrawalRoots","type":"bytes32[]","internalType":"bytes32[]"}],"stateMutability":"nonpayable"},{"type":"function","name":"registerAsOperator","inputs":[{"name":"initDelegationApprover","type":"address","internalType":"address"},{"name":"allocationDelay","type":"uint32","internalType":"uint32"},{"name":"metadataURI","type":"string","internalType":"string"}],"outputs":[],"stateMutability":"nonpayable"},{"type":"function","name":"renounceOwnership","inputs":[],"outputs":[],"stateMutability":"nonpayable"},{"type":"function","name":"slashOperatorShares","inputs":[{"name":"operator","type":"address","internalType":"address"},{"name":"strategy","type":"address","internalType":"contract IStrategy"},{"name":"prevMaxMagnitude","type":"uint64","internalType":"uint64"},{"name":"newMaxMagnitude","type":"uint64","internalType":"uint64"}],"outputs":[],"stateMutability":"nonpayable"},{"type":"function","name":"strategyManager","inputs":[],"outputs":[{"name":"","type":"address","internalType":"contract IStrategyManager"}],"stateMutability":"view"},{"type":"function","name":"transferOwnership","inputs":[{"name":"newOwner","type":"address","internalType":"address"}],"outputs":[],"stateMutability":"nonpayable"},{"type":"function","name":"undelegate","inputs":[{"name":"staker","type":"address","internalType":"address"}],"outputs":[{"name":"withdrawalRoots","type":"bytes32[]","internalType":"bytes32[]"}],"stateMutability":"nonpayable"},{"type":"function","name":"unpause","inputs":[{"name":"newPausedStatus","type":"uint256","internalType":"uint256"}],"outputs":[],"stateMutability":"nonpayable"},{"type":"function","name":"updateOperatorMetadataURI","inputs":[{"name":"operator","type":"address","internalType":"address"},{"name":"metadataURI","type":"string","internalType":"string"}],"outputs":[],"stateMutability":"nonpayable"},{"type":"event","name":"DelegationApproverUpdated","inputs":[{"name":"operator","type":"address","indexed":true,"internalType":"address"},{"name":"newDelegationApprover","type":"address","indexed":false,"internalType":"address"}],"anonymous":false},{"type":"event","name":"DepositScalingFactorUpdated","inputs":[{"name":"staker","type":"address","indexed":false,"internalType":"address"},{"name":"strategy","type":"address","indexed":false,"internalType":"contract IStrategy"},{"name":"newDepositScalingFactor","type":"uint256","indexed":false,"internalType":"uint256"}],"anonymous":false},{"type":"event","name":"Initialized","inputs":[{"name":"version","type":"uint8","indexed":false,"internalType":"uint8"}],"anonymous":false},{"type":"event","name":"OperatorMetadataURIUpdated","inputs":[{"name":"operator","type":"address","indexed":true,"internalType":"address"},{"name":"metadataURI","type":"string","indexed":false,"internalType":"string"}],"anonymous":false},{"type":"event","name":"OperatorRegistered","inputs":[{"name":"operator","type":"address","indexed":true,"internalType":"address"},{"name":"delegationApprover","type":"address","indexed":false,"internalType":"address"}],"anonymous":false},{"type":"event","name":"OperatorSharesDecreased","inputs":[{"name":"operator","type":"address","indexed":true,"internalType":"address"},{"name":"staker","type":"address","indexed":false,"internalType":"address"},{"name":"strategy","type":"address","indexed":false,"internalType":"contract IStrategy"},{"name":"shares","type":"uint256","indexed":false,"internalType":"uint256"}],"anonymous":false},{"type":"event","name":"OperatorSharesIncreased","inputs":[{"name":"operator","type":"address","indexed":true,"internalType":"address"},{"name":"staker","type":"address","indexed":false,"internalType":"address"},{"name":"strategy","type":"address","indexed":false,"internalType":"contract IStrategy"},{"name":"shares","type":"uint256","indexed":false,"internalType":"uint256"}],"anonymous":false},{"type":"event","name":"OwnershipTransferred","inputs":[{"name":"previousOwner","type":"address","indexed":true,"internalType":"address"},{"name":"newOwner","type":"address","indexed":true,"internalType":"address"}],"anonymous":false},{"type":"event","name":"Paused","inputs":[{"name":"account","type":"address","indexed":true,"internalType":"address"},{"name":"newPausedStatus","type":"uint256","indexed":false,"internalType":"uint256"}],"anonymous":false},{"type":"event","name":"SlashingWithdrawalCompleted","inputs":[{"name":"withdrawalRoot","type":"bytes32","indexed":false,"internalType":"bytes32"}],"anonymous":false},{"type":"event","name":"SlashingWithdrawalQueued","inputs":[{"name":"withdrawalRoot","type":"bytes32","indexed":false,"internalType":"bytes32"},{"name":"withdrawal","type":"tuple","indexed":false,"internalType":"struct IDelegationManagerTypes.Withdrawal","components":[{"name":"staker","type":"address","internalType":"address"},{"name":"delegatedTo","type":"address","internalType":"address"},{"name":"withdrawer","type":"address","internalType":"address"},{"name":"nonce","type":"uint256","internalType":"uint256"},{"name":"startBlock","type":"uint32","internalType":"uint32"},{"name":"strategies","type":"address[]","internalType":"contract IStrategy[]"},{"name":"scaledShares","type":"uint256[]","internalType":"uint256[]"}]},{"name":"sharesToWithdraw","type":"uint256[]","indexed":false,"internalType":"uint256[]"}],"anonymous":false},{"type":"event","name":"StakerDelegated","inputs":[{"name":"staker","type":"address","indexed":true,"internalType":"address"},{"name":"operator","type":"address","indexed":true,"internalType":"address"}],"anonymous":false},{"type":"event","name":"StakerForceUndelegated","inputs":[{"name":"staker","type":"address","indexed":true,"internalType":"address"},{"name":"operator","type":"address","indexed":true,"internalType":"address"}],"anonymous":false},{"type":"event","name":"StakerUndelegated","inputs":[{"name":"staker","type":"address","indexed":true,"internalType":"address"},{"name":"operator","type":"address","indexed":true,"internalType":"address"}],"anonymous":false},{"type":"event","name":"Unpaused","inputs":[{"name":"account","type":"address","indexed":true,"internalType":"address"},{"name":"newPausedStatus","type":"uint256","indexed":false,"internalType":"uint256"}],"anonymous":false},{"type":"error","name":"ActivelyDelegated","inputs":[]},{"type":"error","name":"CallerCannotUndelegate","inputs":[]},{"type":"error","name":"CurrentlyPaused","inputs":[]},{"type":"error","name":"FullySlashed","inputs":[]},{"type":"error","name":"InputAddressZero","inputs":[]},{"type":"error","name":"InputArrayLengthMismatch","inputs":[]},{"type":"error","name":"InputArrayLengthZero","inputs":[]},{"type":"error","name":"InvalidNewPausedStatus","inputs":[]},{"type":"error","name":"InvalidPermissions","inputs":[]},{"type":"error","name":"InvalidSignature","inputs":[]},{"type":"error","name":"InvalidSnapshotOrdering","inputs":[]},{"type":"error","name":"NotActivelyDelegated","inputs":[]},{"type":"error","name":"OnlyAllocationManager","inputs":[]},{"type":"error","name":"OnlyEigenPodManager","inputs":[]},{"type":"error","name":"OnlyPauser","inputs":[]},{"type":"error","name":"OnlyStrategyManagerOrEigenPodManager","inputs":[]},{"type":"error","name":"OnlyUnpauser","inputs":[]},{"type":"error","name":"OperatorNotRegistered","inputs":[]},{"type":"error","name":"OperatorsCannotUndelegate","inputs":[]},{"type":"error","name":"SaltSpent","inputs":[]},{"type":"error","name":"SignatureExpired","inputs":[]},{"type":"error","name":"WithdrawalDelayNotElapsed","inputs":[]},{"type":"error","name":"WithdrawalNotQueued","inputs":[]},{"type":"error","name":"WithdrawerNotCaller","inputs":[]}],"bytecode":{"object":"0x610180604052348015610010575f5ffd5b50604051615e0d380380615e0d83398101604081905261002f9161021c565b8186868684876001600160a01b03811661005c576040516339b190bb60e11b815260040160405180910390fd5b6001600160a01b0390811660805293841660a05291831660c05290911660e05263ffffffff16610100524661012052610125604080518082018252600a81526922b4b3b2b72630bcb2b960b11b60209182015281517f8cad95687ba82c2ce50e74f7b754645e5117c3a5bec8151c0726d5857980a866818301527f71b625cfad44bac63b13dba07f2e1d6084ee04b6f8752101ece6126d584ee6ea81840152466060820152306080808301919091528351808303909101815260a0909101909252815191012090565b610140526001600160a01b03166101605261013e610149565b5050505050506102a7565b5f54610100900460ff16156101b45760405162461bcd60e51b815260206004820152602760248201527f496e697469616c697a61626c653a20636f6e747261637420697320696e697469604482015266616c697a696e6760c81b606482015260840160405180910390fd5b5f5460ff90811614610203575f805460ff191660ff9081179091556040519081527f7f26b83ff96e1f2b6a682f133852f6798a09c465da95921460cefb38474024989060200160405180910390a15b565b6001600160a01b0381168114610219575f5ffd5b50565b5f5f5f5f5f5f60c08789031215610231575f5ffd5b865161023c81610205565b602088015190965061024d81610205565b604088015190955061025e81610205565b606088015190945061026f81610205565b608088015190935061028081610205565b60a088015190925063ffffffff81168114610299575f5ffd5b809150509295509295509295565b60805160a05160c05160e05161010051610120516101405161016051615a7161039c5f395f818161042c01526132fa01525f61271601525f61265601525f818161070001528181611504015281816134f5015261383101525f818161075001528181610da901528181610f5a0152818161169f0152818161185e01528181611cb2015281816128eb01526133b101525f818161045301528181610ee0015281816117c501528181611a23015281816130e3015261363b01525f818161038901528181610eae01528181611977015261361501525f81816105ee01528181610b410152818161107a015261273a0152615a715ff3fe608060405234801561000f575f5ffd5b50600436106102cb575f3560e01c8063715018a61161017b578063bfae3fd2116100e4578063e4cc3f901161009e578063f2fde38b11610079578063f2fde38b146107de578063f698da25146107f1578063fabc1cbc146107f9578063fd8aa88d1461080c575f5ffd5b8063e4cc3f9014610798578063eea9064b146107ab578063f0e0e676146107be575f5ffd5b8063bfae3fd2146106e3578063c448feb8146106f6578063c978f7ac1461072a578063ca8aa7c71461074b578063cd6dc68714610772578063da8be86414610785575f5ffd5b80639104c319116101355780639104c319146106345780639435bb431461064f578063a178848414610662578063a33a343314610681578063b7f06ebe14610694578063bb45fef2146106b6575f5ffd5b8063715018a6146105a4578063778e55f3146105ac57806378296ec5146105d6578063886f1195146105e95780638da5cb5b146106105780639004134714610621575f5ffd5b806354b7c96c116102375780635dd68579116101f157806365da1264116101cc57806365da12641461053557806366d5ba931461055d5780636d70f7ae1461057e5780636e17444814610591575f5ffd5b80635dd68579146104ee578063601bb36f1461050f57806360a0d1ce14610522575f5ffd5b806354b7c96c14610475578063595c6a6714610488578063597b36da146104905780635ac86ab7146104a35780635c975abb146104c65780635d975e88146104ce575f5ffd5b806339b70e381161028857806339b70e38146103845780633c651cf2146103c35780633cdeb5e0146103d65780633e28391d146104045780634657e26a146104275780634665bcda1461044e575f5ffd5b806304a4f979146102cf5780630b9f487a146103095780630dd8dd021461031c578063136439dd1461033c57806325df922e146103515780632aa6d88814610371575b5f5ffd5b6102f67f14bde674c9f64b2ad00eaaee4a8bed1fabef35c7507e3c5b9cfc9436909a2dad81565b6040519081526020015b60405180910390f35b6102f661031736600461498e565b61081f565b61032f61032a366004614a25565b6108a7565b6040516103009190614a63565b61034f61034a366004614a9a565b610b2c565b005b61036461035f366004614c2f565b610c01565b6040516103009190614cdd565b61034f61037f366004614d3f565b610d61565b6103ab7f000000000000000000000000000000000000000000000000000000000000000081565b6040516001600160a01b039091168152602001610300565b61034f6103d1366004614d9d565b610ea3565b6103ab6103e4366004614de0565b6001600160a01b039081165f908152609960205260409020600101541690565b610417610412366004614de0565b610fea565b6040519015158152602001610300565b6103ab7f000000000000000000000000000000000000000000000000000000000000000081565b6103ab7f000000000000000000000000000000000000000000000000000000000000000081565b61034f610483366004614dfb565b611009565b61034f611065565b6102f661049e366004614eee565b611114565b6104176104b1366004614f1f565b606654600160ff9092169190911b9081161490565b6066546102f6565b6104e16104dc366004614a9a565b611143565b6040516103009190614ff6565b6105016104fc366004614de0565b61125f565b604051610300929190615056565b61034f61051d3660046150d7565b611694565b61034f610530366004615130565b6117ba565b6103ab610543366004614de0565b609a6020525f90815260409020546001600160a01b031681565b61057061056b366004614de0565b61194f565b60405161030092919061516f565b61041761058c366004614de0565b611c4f565b6102f661059f366004614dfb565b611c87565b61034f611d31565b6102f66105ba366004614dfb565b609860209081525f928352604080842090915290825290205481565b61034f6105e4366004615193565b611d42565b6103ab7f000000000000000000000000000000000000000000000000000000000000000081565b6033546001600160a01b03166103ab565b61036461062f3660046151e3565b611dca565b6103ab73beac0eeeeeeeeeeeeeeeeeeeeeeeeeeeeeebeac081565b61034f61065d36600461522f565b611ea0565b6102f6610670366004614de0565b609f6020525f908152604090205481565b61032f61068f3660046152cb565b611f70565b6104176106a2366004614a9a565b609e6020525f908152604090205460ff1681565b6104176106c43660046153b2565b609c60209081525f928352604080842090915290825290205460ff1681565b6102f66106f1366004614dfb565b611f88565b60405163ffffffff7f0000000000000000000000000000000000000000000000000000000000000000168152602001610300565b61073d6107383660046151e3565b611fc4565b6040516103009291906153dc565b6103ab7f000000000000000000000000000000000000000000000000000000000000000081565b61034f6107803660046153b2565b612251565b61032f610793366004614de0565b61236c565b61034f6107a63660046153fb565b61247c565b61034f6107b93660046152cb565b6124d2565b6107d16107cc36600461546e565b612535565b604051610300919061551b565b61034f6107ec366004614de0565b6125da565b6102f6612653565b61034f610807366004614a9a565b612738565b61032f61081a366004614de0565b61284f565b604080517f14bde674c9f64b2ad00eaaee4a8bed1fabef35c7507e3c5b9cfc9436909a2dad60208201526001600160a01b03808616928201929092528187166060820152908516608082015260a0810183905260c081018290525f9061089d9060e00160405160208183030381529060405280519060200120612872565b9695505050505050565b6066546060906001906002908116036108d35760405163840a48d560e01b815260040160405180910390fd5b5f836001600160401b038111156108ec576108ec614ab1565b604051908082528060200260200182016040528015610915578160200160208202803683370190505b50335f908152609a60205260408120549192506001600160a01b03909116905b85811015610b215786868281811061094f5761094f61552d565b90506020028101906109619190615541565b61096f90602081019061555f565b90508787838181106109835761098361552d565b90506020028101906109959190615541565b61099f908061555f565b9050146109bf576040516343714afd60e01b815260040160405180910390fd5b5f610a2933848a8a868181106109d7576109d761552d565b90506020028101906109e99190615541565b6109f3908061555f565b808060200260200160405190810160405280939291908181526020018383602002808284375f920191909152506128a092505050565b9050610afb33848a8a86818110610a4257610a4261552d565b9050602002810190610a549190615541565b610a5e908061555f565b808060200260200160405190810160405280939291908181526020018383602002808284375f920191909152508e92508d9150889050818110610aa357610aa361552d565b9050602002810190610ab59190615541565b610ac390602081019061555f565b808060200260200160405190810160405280939291908181526020018383602002808284375f920191909152508892506129e7915050565b848381518110610b0d57610b0d61552d565b602090810291909101015250600101610935565b509095945050505050565b60405163237dfb4760e11b81523360048201527f00000000000000000000000000000000000000000000000000000000000000006001600160a01b0316906346fbf68e90602401602060405180830381865afa158015610b8e573d5f5f3e3d5ffd5b505050506040513d601f19601f82011682018060405250810190610bb291906155a4565b610bcf57604051631d77d47760e21b815260040160405180910390fd5b6066548181168114610bf45760405163c61dca5d60e01b815260040160405180910390fd5b610bfd82612edc565b5050565b6001600160a01b038084165f908152609a60205260408120546060921690610c2a8683876128a0565b90505f85516001600160401b03811115610c4657610c46614ab1565b604051908082528060200260200182016040528015610c6f578160200160208202803683370190505b5090505f5b8651811015610d54576001600160a01b0388165f90815260a260205260408120885182908a9085908110610caa57610caa61552d565b60200260200101516001600160a01b03166001600160a01b031681526020019081526020015f206040518060200160405290815f820154815250509050610d2e878381518110610cfc57610cfc61552d565b6020026020010151858481518110610d1657610d1661552d565b602002602001015183612f199092919063ffffffff16565b838381518110610d4057610d4061552d565b602090810291909101015250600101610c74565b50925050505b9392505050565b610d6a33610fea565b15610d8857604051633bf2b50360e11b815260040160405180910390fd5b604051632b6241f360e11b815233600482015263ffffffff841660248201527f00000000000000000000000000000000000000000000000000000000000000006001600160a01b0316906356c483e6906044015f604051808303815f87803b158015610df2575f5ffd5b505af1158015610e04573d5f5f3e3d5ffd5b50505050610e123385612f37565b610e1c3333612f99565b6040516001600160a01b038516815233907fa453db612af59e5521d6ab9284dc3e2d06af286eb1b1b7b771fce4716c19f2c19060200160405180910390a2336001600160a01b03167f02a919ed0e2acad1dd90f17ef2fa4ae5462ee1339170034a8531cca4b67080908383604051610e959291906155bf565b60405180910390a250505050565b336001600160a01b037f0000000000000000000000000000000000000000000000000000000000000000161480610f025750336001600160a01b037f000000000000000000000000000000000000000000000000000000000000000016145b610f1f5760405163045206a560e21b815260040160405180910390fd5b6001600160a01b038481165f908152609a602052604080822054905163152667d960e31b8152908316600482018190528684166024830152927f0000000000000000000000000000000000000000000000000000000000000000169063a9333ec890604401602060405180830381865afa158015610f9f573d5f5f3e3d5ffd5b505050506040513d601f19601f82011682018060405250810190610fc391906155ed565b90505f610fd187878461309c565b9050610fe183888888888661317e565b50505050505050565b6001600160a01b039081165f908152609a602052604090205416151590565b81611013816132bc565b6110305760405163932d94f760e01b815260040160405180910390fd5b61103983611c4f565b611056576040516325ec6c1f60e01b815260040160405180910390fd5b6110608383612f37565b505050565b60405163237dfb4760e11b81523360048201527f00000000000000000000000000000000000000000000000000000000000000006001600160a01b0316906346fbf68e90602401602060405180830381865afa1580156110c7573d5f5f3e3d5ffd5b505050506040513d601f19601f820116820180604052508101906110eb91906155a4565b61110857604051631d77d47760e21b815260040160405180910390fd5b6111125f19612edc565b565b5f816040516020016111269190614ff6565b604051602081830303815290604052805190602001209050919050565b61114b61484a565b5f82815260a46020908152604091829020825160e08101845281546001600160a01b03908116825260018301548116828501526002830154168185015260038201546060820152600482015463ffffffff1660808201526005820180548551818602810186019096528086529194929360a086019392908301828280156111f957602002820191905f5260205f20905b81546001600160a01b031681526001909101906020018083116111db575b505050505081526020016006820180548060200260200160405190810160405280929190818152602001828054801561124f57602002820191905f5260205f20905b81548152602001906001019080831161123b575b5050505050815250509050919050565b6060805f61126c8461284f565b8051909150806001600160401b0381111561128957611289614ab1565b6040519080825280602002602001820160405280156112c257816020015b6112af61484a565b8152602001906001900390816112a75790505b509350806001600160401b038111156112dd576112dd614ab1565b60405190808252806020026020018201604052801561131057816020015b60608152602001906001900390816112fb5790505b506001600160a01b038087165f908152609a60205260408120549295509116905b8281101561168b5760a45f85838151811061134e5761134e61552d565b60209081029190910181015182528181019290925260409081015f20815160e08101835281546001600160a01b03908116825260018301548116828601526002830154168184015260038201546060820152600482015463ffffffff1660808201526005820180548451818702810187019095528085529194929360a086019390929083018282801561140857602002820191905f5260205f20905b81546001600160a01b031681526001909101906020018083116113ea575b505050505081526020016006820180548060200260200160405190810160405280929190818152602001828054801561145e57602002820191905f5260205f20905b81548152602001906001019080831161144a575b5050505050815250508682815181106114795761147961552d565b60200260200101819052508581815181106114965761149661552d565b602002602001015160a00151516001600160401b038111156114ba576114ba614ab1565b6040519080825280602002602001820160405280156114e3578160200160208202803683370190505b508582815181106114f6576114f661552d565b60200260200101819052505f7f00000000000000000000000000000000000000000000000000000000000000008783815181106115355761153561552d565b60200260200101516080015161154b919061561c565b905060604363ffffffff168263ffffffff1610156115935761158c89858a868151811061157a5761157a61552d565b602002602001015160a0015185613366565b90506115be565b6115bb89858a86815181106115aa576115aa61552d565b602002602001015160a001516128a0565b90505b5f5b8884815181106115d2576115d261552d565b602002602001015160a001515181101561167d5761163f8985815181106115fb576115fb61552d565b602002602001015160c0015182815181106116185761161861552d565b60200260200101518383815181106116325761163261552d565b6020026020010151613494565b8885815181106116515761165161552d565b6020026020010151828151811061166a5761166a61552d565b60209081029190910101526001016115c0565b505050806001019050611331565b50505050915091565b336001600160a01b037f000000000000000000000000000000000000000000000000000000000000000016146116dd576040516323d871a560e01b815260040160405180910390fd5b6001600160a01b038085165f90815260986020908152604080832093871683529290529081205461171b906001600160401b0380861690851661349f565b90505f61172a868686866134b7565b90505f6117378284615638565b9050611745875f8886613574565b5f61174f876135ee565b60405163debe1eab60e01b81526001600160a01b038981166004830152602482018590529192509082169063debe1eab906044015f604051808303815f87803b15801561179a575f5ffd5b505af11580156117ac573d5f5f3e3d5ffd5b505050505050505050505050565b336001600160a01b037f0000000000000000000000000000000000000000000000000000000000000000161461180357604051633213a66160e21b815260040160405180910390fd5b61180c83610fea565b15611060576001600160a01b038381165f908152609a602052604080822054905163152667d960e31b81529083166004820181905273beac0eeeeeeeeeeeeeeeeeeeeeeeeeeeeeebeac06024830152927f0000000000000000000000000000000000000000000000000000000000000000169063a9333ec890604401602060405180830381865afa1580156118a3573d5f5f3e3d5ffd5b505050506040513d601f19601f820116820180604052508101906118c791906155ed565b6001600160a01b0386165f90815260a26020908152604080832073beac0eeeeeeeeeeeeeeeeeeeeeeeeeeeeeebeac084528252808320815192830190915254815291925061192d866119256001600160401b03808716908916613660565b849190613674565b9050610fe1848873beac0eeeeeeeeeeeeeeeeeeeeeeeeeeeeeebeac084613574565b6040516394f649dd60e01b81526001600160a01b03828116600483015260609182915f9182917f000000000000000000000000000000000000000000000000000000000000000016906394f649dd906024015f60405180830381865afa1580156119bb573d5f5f3e3d5ffd5b505050506040513d5f823e601f3d908101601f191682016040526119e291908101906156a6565b60405163fe243a1760e01b81526001600160a01b03888116600483015273beac0eeeeeeeeeeeeeeeeeeeeeeeeeeeeeebeac060248301529294509092505f917f0000000000000000000000000000000000000000000000000000000000000000169063fe243a1790604401602060405180830381865afa158015611a68573d5f5f3e3d5ffd5b505050506040513d601f19601f82011682018060405250810190611a8c9190615761565b9050805f03611aa057509094909350915050565b5f83516001611aaf9190615638565b6001600160401b03811115611ac657611ac6614ab1565b604051908082528060200260200182016040528015611aef578160200160208202803683370190505b5090505f84516001611b019190615638565b6001600160401b03811115611b1857611b18614ab1565b604051908082528060200260200182016040528015611b41578160200160208202803683370190505b50905073beac0eeeeeeeeeeeeeeeeeeeeeeeeeeeeeebeac082865181518110611b6c57611b6c61552d565b60200260200101906001600160a01b031690816001600160a01b0316815250508281865181518110611ba057611ba061552d565b60209081029190910101525f5b8551811015611c4157858181518110611bc857611bc861552d565b6020026020010151838281518110611be257611be261552d565b60200260200101906001600160a01b031690816001600160a01b031681525050848181518110611c1457611c1461552d565b6020026020010151828281518110611c2e57611c2e61552d565b6020908102919091010152600101611bad565b509097909650945050505050565b5f6001600160a01b03821615801590611c8157506001600160a01b038083165f818152609a6020526040902054909116145b92915050565b60405163152667d960e31b81526001600160a01b03838116600483015282811660248301525f9182917f0000000000000000000000000000000000000000000000000000000000000000169063a9333ec890604401602060405180830381865afa158015611cf7573d5f5f3e3d5ffd5b505050506040513d601f19601f82011682018060405250810190611d1b91906155ed565b9050611d298484835f6134b7565b949350505050565b611d39613692565b6111125f6136ec565b82611d4c816132bc565b611d695760405163932d94f760e01b815260040160405180910390fd5b611d7284611c4f565b611d8f576040516325ec6c1f60e01b815260040160405180910390fd5b836001600160a01b03167f02a919ed0e2acad1dd90f17ef2fa4ae5462ee1339170034a8531cca4b67080908484604051610e959291906155bf565b60605f82516001600160401b03811115611de657611de6614ab1565b604051908082528060200260200182016040528015611e0f578160200160208202803683370190505b5090505f5b8351811015611e98576001600160a01b0385165f9081526098602052604081208551909190869084908110611e4b57611e4b61552d565b60200260200101516001600160a01b03166001600160a01b031681526020019081526020015f2054828281518110611e8557611e8561552d565b6020908102919091010152600101611e14565b509392505050565b606654600290600490811603611ec95760405163840a48d560e01b815260040160405180910390fd5b611ed161373d565b855f5b81811015611f6457611f5c898983818110611ef157611ef161552d565b9050602002810190611f039190615778565b611f0c9061578c565b888884818110611f1e57611f1e61552d565b9050602002810190611f30919061555f565b888886818110611f4257611f4261552d565b9050602002016020810190611f579190615797565b613796565b600101611ed4565b5050610fe1600160c955565b6060611f7b3361236c565b9050610d5a8484846124d2565b6001600160a01b038083165f90815260a260209081526040808320938516835292815282822083519182019093529154825290610d5a90613c0f565b60608082516001600160401b03811115611fe057611fe0614ab1565b604051908082528060200260200182016040528015612009578160200160208202803683370190505b50915082516001600160401b0381111561202557612025614ab1565b60405190808252806020026020018201604052801561204e578160200160208202803683370190505b506001600160a01b038086165f908152609a60205260408120549293509116906120798683876128a0565b90505f5b8551811015612246575f6120a987838151811061209c5761209c61552d565b60200260200101516135ee565b9050806001600160a01b031663fe243a17898985815181106120cd576120cd61552d565b60200260200101516040518363ffffffff1660e01b81526004016121079291906001600160a01b0392831681529116602082015260400190565b602060405180830381865afa158015612122573d5f5f3e3d5ffd5b505050506040513d601f19601f820116820180604052508101906121469190615761565b8583815181106121585761215861552d565b6020026020010181815250505f60a25f8a6001600160a01b03166001600160a01b031681526020019081526020015f205f89858151811061219b5761219b61552d565b60200260200101516001600160a01b03166001600160a01b031681526020019081526020015f206040518060200160405290815f82015481525050905061221f8684815181106121ed576121ed61552d565b60200260200101518585815181106122075761220761552d565b6020026020010151836136749092919063ffffffff16565b8784815181106122315761223161552d565b6020908102919091010152505060010161207d565b5050505b9250929050565b5f54610100900460ff161580801561226f57505f54600160ff909116105b806122885750303b15801561228857505f5460ff166001145b6122f05760405162461bcd60e51b815260206004820152602e60248201527f496e697469616c697a61626c653a20636f6e747261637420697320616c72656160448201526d191e481a5b9a5d1a585b1a5e995960921b60648201526084015b60405180910390fd5b5f805460ff191660011790558015612311575f805461ff0019166101001790555b61231a82612edc565b612323836136ec565b8015611060575f805461ff0019169055604051600181527f7f26b83ff96e1f2b6a682f133852f6798a09c465da95921460cefb38474024989060200160405180910390a1505050565b606061237782610fea565b6123945760405163a5c7c44560e01b815260040160405180910390fd5b61239d82611c4f565b156123bb576040516311ca333560e31b815260040160405180910390fd5b336001600160a01b03831614612473576001600160a01b038083165f908152609a6020526040902054166123ee816132bc565b8061241457506001600160a01b038181165f908152609960205260409020600101541633145b61243157604051631e499a2360e11b815260040160405180910390fd5b806001600160a01b0316836001600160a01b03167ff0eddf07e6ea14f388b47e1e94a0f464ecbd9eed4171130e0fc0e99fb4030a8a60405160405180910390a3505b611c8182613c2e565b6066546002906004908116036124a55760405163840a48d560e01b815260040160405180910390fd5b6124ad61373d565b6124c16124b98661578c565b858585613796565b6124cb600160c955565b5050505050565b6124db33610fea565b156124f957604051633bf2b50360e11b815260040160405180910390fd5b61250283611c4f565b61251f576040516325ec6c1f60e01b815260040160405180910390fd5b61252b33848484613e8d565b6110603384612f99565b60605f83516001600160401b0381111561255157612551614ab1565b60405190808252806020026020018201604052801561258457816020015b606081526020019060019003908161256f5790505b5090505f5b8451811015611e98576125b58582815181106125a7576125a761552d565b602002602001015185611dca565b8282815181106125c7576125c761552d565b6020908102919091010152600101612589565b6125e2613692565b6001600160a01b0381166126475760405162461bcd60e51b815260206004820152602660248201527f4f776e61626c653a206e6577206f776e657220697320746865207a65726f206160448201526564647265737360d01b60648201526084016122e7565b612650816136ec565b50565b5f7f000000000000000000000000000000000000000000000000000000000000000046146127135750604080518082018252600a81526922b4b3b2b72630bcb2b960b11b60209182015281517f8cad95687ba82c2ce50e74f7b754645e5117c3a5bec8151c0726d5857980a866818301527f71b625cfad44bac63b13dba07f2e1d6084ee04b6f8752101ece6126d584ee6ea81840152466060820152306080808301919091528351808303909101815260a0909101909252815191012090565b507f000000000000000000000000000000000000000000000000000000000000000090565b7f00000000000000000000000000000000000000000000000000000000000000006001600160a01b031663eab66d7a6040518163ffffffff1660e01b8152600401602060405180830381865afa158015612794573d5f5f3e3d5ffd5b505050506040513d601f19601f820116820180604052508101906127b891906157b2565b6001600160a01b0316336001600160a01b0316146127e95760405163794821ff60e01b815260040160405180910390fd5b606654801982198116146128105760405163c61dca5d60e01b815260040160405180910390fd5b606682905560405182815233907f3582d1828e26bf56bd801502bc021ac0bc8afb57c826e4986b45593c8fad389c906020015b60405180910390a25050565b6001600160a01b0381165f90815260a360205260409020606090611c8190613f52565b5f61287b612653565b60405161190160f01b6020820152602281019190915260428101839052606201611126565b60605f82516001600160401b038111156128bc576128bc614ab1565b6040519080825280602002602001820160405280156128e5578160200160208202803683370190505b5090505f7f00000000000000000000000000000000000000000000000000000000000000006001600160a01b031663547afb8786866040518363ffffffff1660e01b81526004016129379291906157cd565b5f60405180830381865afa158015612951573d5f5f3e3d5ffd5b505050506040513d5f823e601f3d908101601f1916820160405261297891908101906157f0565b90505f5b8451811015610b21576129c28786838151811061299b5761299b61552d565b60200260200101518484815181106129b5576129b561552d565b602002602001015161309c565b8382815181106129d4576129d461552d565b602090810291909101015260010161297c565b5f6001600160a01b038616612a0f576040516339b190bb60e11b815260040160405180910390fd5b83515f03612a305760405163796cc52560e01b815260040160405180910390fd5b5f84516001600160401b03811115612a4a57612a4a614ab1565b604051908082528060200260200182016040528015612a73578160200160208202803683370190505b5090505f85516001600160401b03811115612a9057612a90614ab1565b604051908082528060200260200182016040528015612ab9578160200160208202803683370190505b5090505f5b8651811015612d0f575f612add88838151811061209c5761209c61552d565b90505f60a25f8c6001600160a01b03166001600160a01b031681526020019081526020015f205f8a8581518110612b1657612b1661552d565b60200260200101516001600160a01b03166001600160a01b031681526020019081526020015f206040518060200160405290815f820154815250509050612b82888481518110612b6857612b6861552d565b60200260200101518885815181106122075761220761552d565b848481518110612b9457612b9461552d565b602002602001018181525050612bcc888481518110612bb557612bb561552d565b602002602001015182613f5e90919063ffffffff16565b858481518110612bde57612bde61552d565b60209081029190910101526001600160a01b038a1615612c7357612c358a8a8581518110612c0e57612c0e61552d565b6020026020010151878681518110612c2857612c2861552d565b6020026020010151613f72565b612c738a8c8b8681518110612c4c57612c4c61552d565b6020026020010151878781518110612c6657612c6661552d565b6020026020010151613574565b816001600160a01b031663724af4238c8b8681518110612c9557612c9561552d565b60200260200101518b8781518110612caf57612caf61552d565b60200260200101516040518463ffffffff1660e01b8152600401612cd59392919061587f565b5f604051808303815f87803b158015612cec575f5ffd5b505af1158015612cfe573d5f5f3e3d5ffd5b505050505050806001019050612abe565b506001600160a01b0388165f908152609f60205260408120805491829190612d36836158a3565b91905055505f6040518060e001604052808b6001600160a01b031681526020018a6001600160a01b031681526020018b6001600160a01b031681526020018381526020014363ffffffff1681526020018981526020018581525090505f612d9c82611114565b5f818152609e602090815260408083208054600160ff19909116811790915560a4835292819020865181546001600160a01b03199081166001600160a01b039283161783558885015195830180548216968316969096179095559187015160028201805490951692169190911790925560608501516003830155608085015160048301805463ffffffff191663ffffffff90921691909117905560a085015180519394508593612e5292600585019201906148a3565b5060c08201518051612e6e916006840191602090910190614906565b5050506001600160a01b038b165f90815260a360205260409020612e929082614000565b507f26b2aae26516e8719ef50ea2f6831a2efbd4e37dccdf0f6936b27bc08e793e30818386604051612ec6939291906158bb565b60405180910390a19a9950505050505050505050565b606681905560405181815233907fab40a374bc51de372200a8bc981af8c9ecdc08dfdaef0bb6e09f88f3c616ef3d9060200160405180910390a250565b5f611d2982612f31612f2a87613c0f565b869061400b565b9061400b565b6001600160a01b038281165f8181526099602090815260409182902060010180546001600160a01b0319169486169485179055905192835290917f773b54c04d756fcc5e678111f7d730de3be98192000799eee3d63716055a87c69101612843565b6066545f90600190811603612fc15760405163840a48d560e01b815260040160405180910390fd5b6001600160a01b038381165f818152609a602052604080822080546001600160a01b0319169487169485179055517fc3ee9f2e5fda98e8066a1f745b2df9285f416fe98cf2559cd21484b3d87433049190a35f5f61301e8561194f565b915091505f61302e8686856128a0565b90505f5b8351811015610fe15761309486888684815181106130525761305261552d565b60200260200101515f87868151811061306d5761306d61552d565b60200260200101518787815181106130875761308761552d565b602002602001015161317e565b600101613032565b5f73beac0eeeeeeeeeeeeeeeeeeeeeeeeeeeeeebeabf196001600160a01b0384160161316e5760405163a3d75e0960e01b81526001600160a01b0385811660048301525f917f00000000000000000000000000000000000000000000000000000000000000009091169063a3d75e0990602401602060405180830381865afa15801561312a573d5f5f3e3d5ffd5b505050506040513d601f19601f8201168201806040525081019061314e91906155ed565b90506131666001600160401b03848116908316613660565b915050610d5a565b506001600160401b031692915050565b805f0361319e57604051630a33bc6960e21b815260040160405180910390fd5b6001600160a01b038086165f90815260a2602090815260408083209388168352929052206131ce8185858561401f565b6040805160208101909152815481527f8be932bac54561f27260f95463d9b8ab37e06b2842e5ee2404157cc13df6eb8f908790879061320c90613c0f565b60405161321b9392919061587f565b60405180910390a161322c86610fea565b15610fe1576001600160a01b038088165f90815260986020908152604080832093891683529290529081208054859290613267908490615638565b92505081905550866001600160a01b03167f1ec042c965e2edd7107b51188ee0f383e22e76179041ab3a9d18ff151405166c8787866040516132ab9392919061587f565b60405180910390a250505050505050565b604051631beb2b9760e31b81526001600160a01b0382811660048301523360248301523060448301525f80356001600160e01b0319166064840152917f00000000000000000000000000000000000000000000000000000000000000009091169063df595cb8906084016020604051808303815f875af1158015613342573d5f5f3e3d5ffd5b505050506040513d601f19601f82011682018060405250810190611c8191906155a4565b60605f83516001600160401b0381111561338257613382614ab1565b6040519080825280602002602001820160405280156133ab578160200160208202803683370190505b5090505f7f00000000000000000000000000000000000000000000000000000000000000006001600160a01b03166394d7d00c8787876040518463ffffffff1660e01b81526004016133ff939291906158e5565b5f60405180830381865afa158015613419573d5f5f3e3d5ffd5b505050506040513d5f823e601f3d908101601f1916820160405261344091908101906157f0565b90505f5b8551811015613488576134638887838151811061299b5761299b61552d565b8382815181106134755761347561552d565b6020908102919091010152600101613444565b50909695505050505050565b5f610d5a8383613660565b5f6134ad848385600161408e565b611d29908561591e565b6001600160a01b038085165f90815260a560209081526040808320938716835292905290812081906134e8906140e9565b90505f61354e600161351a7f000000000000000000000000000000000000000000000000000000000000000043615931565b6135249190615931565b6001600160a01b03808a165f90815260a560209081526040808320938c1683529290522090614103565b90505f61355b828461591e565b905061356881878761411f565b98975050505050505050565b6001600160a01b038085165f908152609860209081526040808320938616835292905290812080548392906135aa90849061591e565b92505081905550836001600160a01b03167f6909600037b75d7b4733aedd815442b5ec018a827751c832aaff64eba5d6d2dd848484604051610e959392919061587f565b5f6001600160a01b03821673beac0eeeeeeeeeeeeeeeeeeeeeeeeeeeeeebeac014613639577f0000000000000000000000000000000000000000000000000000000000000000611c81565b7f000000000000000000000000000000000000000000000000000000000000000092915050565b5f610d5a8383670de0b6b3a764000061413d565b5f611d298261368c61368587613c0f565b8690613660565b90613660565b6033546001600160a01b031633146111125760405162461bcd60e51b815260206004820181905260248201527f4f776e61626c653a2063616c6c6572206973206e6f7420746865206f776e657260448201526064016122e7565b603380546001600160a01b038381166001600160a01b0319831681179093556040519116919082907f8be0079c531659141344cd1fd0a4f28419497f9722a3daafe3b4186f6b6457e0905f90a35050565b600260c9540361378f5760405162461bcd60e51b815260206004820152601f60248201527f5265656e7472616e637947756172643a207265656e7472616e742063616c6c0060448201526064016122e7565b600260c955565b60a08401515182146137bb576040516343714afd60e01b815260040160405180910390fd5b83604001516001600160a01b0316336001600160a01b0316146137f1576040516316110d3560e21b815260040160405180910390fd5b5f6137fb85611114565b5f818152609e602052604090205490915060ff1661382c576040516387c9d21960e01b815260040160405180910390fd5b60605f7f0000000000000000000000000000000000000000000000000000000000000000876080015161385f919061561c565b90508063ffffffff164363ffffffff161161388d576040516378f67ae160e11b815260040160405180910390fd5b6138a4875f015188602001518960a0015184613366565b87516001600160a01b03165f90815260a3602052604090209092506138ca915083614222565b505f82815260a46020526040812080546001600160a01b031990811682556001820180548216905560028201805490911690556003810182905560048101805463ffffffff1916905590613921600583018261493f565b61392e600683015f61493f565b50505f828152609e602052604090819020805460ff19169055517f1f40400889274ed07b24845e5054a87a0cab969eb1277aafe61ae352e7c32a00906139779084815260200190565b60405180910390a185516001600160a01b039081165f908152609a6020526040812054885160a08a015191909316926139b19184906128a0565b90505f5b8860a0015151811015613c04575f6139dc8a60a00151838151811061209c5761209c61552d565b90505f613a128b60c0015184815181106139f8576139f861552d565b60200260200101518785815181106116325761163261552d565b90508715613ae257816001600160a01b0316632eae418c8c5f01518d60a001518681518110613a4357613a4361552d565b60200260200101518d8d88818110613a5d57613a5d61552d565b9050602002016020810190613a729190614de0565b60405160e085901b6001600160e01b03191681526001600160a01b03938416600482015291831660248301529091166044820152606481018490526084015f604051808303815f87803b158015613ac7575f5ffd5b505af1158015613ad9573d5f5f3e3d5ffd5b50505050613bfa565b5f5f836001600160a01b031663c4623ea18e5f01518f60a001518881518110613b0d57613b0d61552d565b60200260200101518f8f8a818110613b2757613b2761552d565b9050602002016020810190613b3c9190614de0565b60405160e085901b6001600160e01b03191681526001600160a01b039384166004820152918316602483015290911660448201526064810186905260840160408051808303815f875af1158015613b95573d5f5f3e3d5ffd5b505050506040513d601f19601f82011682018060405250810190613bb9919061594d565b91509150613bf7878e5f01518f60a001518881518110613bdb57613bdb61552d565b602002602001015185858b8b815181106130875761308761552d565b50505b50506001016139b5565b505050505050505050565b80515f9015613c1f578151611c81565b670de0b6b3a764000092915050565b606654606090600190600290811603613c5a5760405163840a48d560e01b815260040160405180910390fd5b6001600160a01b038084165f818152609a602052604080822080546001600160a01b0319811690915590519316928392917ffee30966a256b71e14bc0ebfc94315e28ef4a97a7131a9e2b7a310a73af4467691a35f5f613cb98661194f565b9150915081515f03613ccd57505050613e87565b81516001600160401b03811115613ce657613ce6614ab1565b604051908082528060200260200182016040528015613d0f578160200160208202803683370190505b5094505f613d1e8785856128a0565b90505f5b8351811015613e81576040805160018082528183019092525f916020808301908036833750506040805160018082528183019092529293505f9291506020808301908036833750506040805160018082528183019092529293505f92915060208083019080368337019050509050868481518110613da257613da261552d565b6020026020010151835f81518110613dbc57613dbc61552d565b60200260200101906001600160a01b031690816001600160a01b031681525050858481518110613dee57613dee61552d565b6020026020010151825f81518110613e0857613e0861552d565b602002602001018181525050848481518110613e2657613e2661552d565b6020026020010151815f81518110613e4057613e4061552d565b602002602001018181525050613e598b898585856129e7565b8a8581518110613e6b57613e6b61552d565b6020908102919091010152505050600101613d22565b50505050505b50919050565b6001600160a01b038084165f908152609960205260409020600101541680613eb55750613f4c565b6001600160a01b0381165f908152609c6020908152604080832085845290915290205460ff1615613ef957604051630d4c4c9160e21b815260040160405180910390fd5b6001600160a01b0381165f908152609c602090815260408083208584528252909120805460ff191660011790558301516124cb908290613f4090889088908490889061081f565b8551602087015161422d565b50505050565b60605f610d5a8361427f565b5f610d5a613f6b84613c0f565b8390613660565b6001600160a01b03821673beac0eeeeeeeeeeeeeeeeeeeeeeeeeeeeeebeac014611060576001600160a01b038084165f90815260a5602090815260408083209386168352929052908120613fc5906140e9565b9050613f4c43613fd58484615638565b6001600160a01b038088165f90815260a560209081526040808320938a1683529290522091906142d8565b5f610d5a83836142e3565b5f610d5a83670de0b6b3a76400008461413d565b825f0361403f57614038670de0b6b3a76400008261400b565b8455613f4c565b6040805160208101909152845481525f9061405b908584613674565b90505f6140688483615638565b90505f61408384612f3161407c888a615638565b859061400b565b875550505050505050565b5f5f61409b86868661413d565b905060018360028111156140b1576140b161596f565b1480156140cd57505f84806140c8576140c8615983565b868809115b156140e0576140dd600182615638565b90505b95945050505050565b5f6140f4828261432f565b6001600160e01b031692915050565b5f61410f838383614374565b6001600160e01b03169392505050565b5f611d2961412d8385615997565b85906001600160401b0316613660565b5f80805f19858709858702925082811083820303915050805f036141745783828161416a5761416a615983565b0492505050610d5a565b8084116141bb5760405162461bcd60e51b81526020600482015260156024820152744d6174683a206d756c446976206f766572666c6f7760581b60448201526064016122e7565b5f8486880960026001871981018816978890046003810283188082028403028082028403028082028403028082028403028082028403029081029092039091025f889003889004909101858311909403939093029303949094049190911702949350505050565b5f610d5a83836143bd565b4281101561424e57604051630819bdcd60e01b815260040160405180910390fd5b6142626001600160a01b03851684846144a0565b613f4c57604051638baa579f60e01b815260040160405180910390fd5b6060815f018054806020026020016040519081016040528092919081815260200182805480156142cc57602002820191905f5260205f20905b8154815260200190600101908083116142b8575b50505050509050919050565b6110608383836144f4565b5f81815260018301602052604081205461432857508154600181810184555f848152602080822090930184905584548482528286019093526040902091909155611c81565b505f611c81565b81545f90801561436c576143558461434860018461591e565b5f91825260209091200190565b5464010000000090046001600160e01b0316611d29565b509092915050565b82545f9081614385868683856145fa565b905080156143b35761439c8661434860018461591e565b5464010000000090046001600160e01b031661089d565b5091949350505050565b5f8181526001830160205260408120548015614497575f6143df60018361591e565b85549091505f906143f29060019061591e565b9050818114614451575f865f0182815481106144105761441061552d565b905f5260205f200154905080875f0184815481106144305761443061552d565b5f918252602080832090910192909255918252600188019052604090208390555b8554869080614462576144626159b6565b600190038181905f5260205f20015f90559055856001015f8681526020019081526020015f205f905560019350505050611c81565b5f915050611c81565b5f5f5f6144ad858561464d565b90925090505f8160048111156144c5576144c561596f565b1480156144e35750856001600160a01b0316826001600160a01b0316145b8061089d575061089d86868661468c565b825480156145ac575f61450c8561434860018561591e565b60408051808201909152905463ffffffff8082168084526401000000009092046001600160e01b03166020840152919250908516101561455f5760405163151b8e3f60e11b815260040160405180910390fd5b805163ffffffff8086169116036145aa57826145808661434860018661591e565b80546001600160e01b03929092166401000000000263ffffffff9092169190911790555050505050565b505b506040805180820190915263ffffffff92831681526001600160e01b03918216602080830191825285546001810187555f968752952091519051909216640100000000029190921617910155565b5f5b81831015611e98575f61460f8484614773565b5f8781526020902090915063ffffffff86169082015463ffffffff16111561463957809250614647565b614644816001615638565b93505b506145fc565b5f5f8251604103614681576020830151604084015160608501515f1a6146758782858561478d565b9450945050505061224a565b505f9050600261224a565b5f5f5f856001600160a01b0316631626ba7e60e01b86866040516024016146b49291906159ca565b60408051601f198184030181529181526020820180516001600160e01b03166001600160e01b03199094169390931790925290516146f29190615a06565b5f60405180830381855afa9150503d805f811461472a576040519150601f19603f3d011682016040523d82523d5f602084013e61472f565b606091505b509150915081801561474357506020815110155b801561089d57508051630b135d3f60e11b906147689083016020908101908401615761565b149695505050505050565b5f6147816002848418615a1c565b610d5a90848416615638565b5f807f7fffffffffffffffffffffffffffffff5d576e7357a4501ddfe92f46681b20a08311156147c257505f90506003614841565b604080515f8082526020820180845289905260ff881692820192909252606081018690526080810185905260019060a0016020604051602081039080840390855afa158015614813573d5f5f3e3d5ffd5b5050604051601f1901519150506001600160a01b03811661483b575f60019250925050614841565b91505f90505b94509492505050565b6040518060e001604052805f6001600160a01b031681526020015f6001600160a01b031681526020015f6001600160a01b031681526020015f81526020015f63ffffffff16815260200160608152602001606081525090565b828054828255905f5260205f209081019282156148f6579160200282015b828111156148f657825182546001600160a01b0319166001600160a01b039091161782556020909201916001909101906148c1565b50614902929150614956565b5090565b828054828255905f5260205f209081019282156148f6579160200282015b828111156148f6578251825591602001919060010190614924565b5080545f8255905f5260205f209081019061265091905b5b80821115614902575f8155600101614957565b6001600160a01b0381168114612650575f5ffd5b80356149898161496a565b919050565b5f5f5f5f5f60a086880312156149a2575f5ffd5b85356149ad8161496a565b945060208601356149bd8161496a565b935060408601356149cd8161496a565b94979396509394606081013594506080013592915050565b5f5f83601f8401126149f5575f5ffd5b5081356001600160401b03811115614a0b575f5ffd5b6020830191508360208260051b850101111561224a575f5ffd5b5f5f60208385031215614a36575f5ffd5b82356001600160401b03811115614a4b575f5ffd5b614a57858286016149e5565b90969095509350505050565b602080825282518282018190525f918401906040840190835b81811015610b21578351835260209384019390920191600101614a7c565b5f60208284031215614aaa575f5ffd5b5035919050565b634e487b7160e01b5f52604160045260245ffd5b60405160e081016001600160401b0381118282101715614ae757614ae7614ab1565b60405290565b604080519081016001600160401b0381118282101715614ae757614ae7614ab1565b604051601f8201601f191681016001600160401b0381118282101715614b3757614b37614ab1565b604052919050565b5f6001600160401b03821115614b5757614b57614ab1565b5060051b60200190565b5f82601f830112614b70575f5ffd5b8135614b83614b7e82614b3f565b614b0f565b8082825260208201915060208360051b860101925085831115614ba4575f5ffd5b602085015b83811015614bca578035614bbc8161496a565b835260209283019201614ba9565b5095945050505050565b5f82601f830112614be3575f5ffd5b8135614bf1614b7e82614b3f565b8082825260208201915060208360051b860101925085831115614c12575f5ffd5b602085015b83811015614bca578035835260209283019201614c17565b5f5f5f60608486031215614c41575f5ffd5b8335614c4c8161496a565b925060208401356001600160401b03811115614c66575f5ffd5b614c7286828701614b61565b92505060408401356001600160401b03811115614c8d575f5ffd5b614c9986828701614bd4565b9150509250925092565b5f8151808452602084019350602083015f5b82811015614cd3578151865260209586019590910190600101614cb5565b5093949350505050565b602081525f610d5a6020830184614ca3565b803563ffffffff81168114614989575f5ffd5b5f5f83601f840112614d12575f5ffd5b5081356001600160401b03811115614d28575f5ffd5b60208301915083602082850101111561224a575f5ffd5b5f5f5f5f60608587031215614d52575f5ffd5b8435614d5d8161496a565b9350614d6b60208601614cef565b925060408501356001600160401b03811115614d85575f5ffd5b614d9187828801614d02565b95989497509550505050565b5f5f5f5f60808587031215614db0575f5ffd5b8435614dbb8161496a565b93506020850135614dcb8161496a565b93969395505050506040820135916060013590565b5f60208284031215614df0575f5ffd5b8135610d5a8161496a565b5f5f60408385031215614e0c575f5ffd5b8235614e178161496a565b91506020830135614e278161496a565b809150509250929050565b5f60e08284031215614e42575f5ffd5b614e4a614ac5565b9050614e558261497e565b8152614e636020830161497e565b6020820152614e746040830161497e565b604082015260608281013590820152614e8f60808301614cef565b608082015260a08201356001600160401b03811115614eac575f5ffd5b614eb884828501614b61565b60a08301525060c08201356001600160401b03811115614ed6575f5ffd5b614ee284828501614bd4565b60c08301525092915050565b5f60208284031215614efe575f5ffd5b81356001600160401b03811115614f13575f5ffd5b611d2984828501614e32565b5f60208284031215614f2f575f5ffd5b813560ff81168114610d5a575f5ffd5b5f8151808452602084019350602083015f5b82811015614cd35781516001600160a01b0316865260209586019590910190600101614f51565b80516001600160a01b03908116835260208083015182169084015260408083015190911690830152606080820151908301526080808201515f91614fc39085018263ffffffff169052565b5060a082015160e060a0850152614fdd60e0850182614f3f565b905060c083015184820360c08601526140e08282614ca3565b602081525f610d5a6020830184614f78565b5f82825180855260208501945060208160051b830101602085015f5b8381101561348857601f19858403018852615040838351614ca3565b6020988901989093509190910190600101615024565b5f604082016040835280855180835260608501915060608160051b8601019250602087015f5b828110156150ad57605f19878603018452615098858351614f78565b9450602093840193919091019060010161507c565b5050505082810360208401526140e08185615008565b6001600160401b0381168114612650575f5ffd5b5f5f5f5f608085870312156150ea575f5ffd5b84356150f58161496a565b935060208501356151058161496a565b92506040850135615115816150c3565b91506060850135615125816150c3565b939692955090935050565b5f5f5f60608486031215615142575f5ffd5b833561514d8161496a565b9250602084013591506040840135615164816150c3565b809150509250925092565b604081525f6151816040830185614f3f565b82810360208401526140e08185614ca3565b5f5f5f604084860312156151a5575f5ffd5b83356151b08161496a565b925060208401356001600160401b038111156151ca575f5ffd5b6151d686828701614d02565b9497909650939450505050565b5f5f604083850312156151f4575f5ffd5b82356151ff8161496a565b915060208301356001600160401b03811115615219575f5ffd5b61522585828601614b61565b9150509250929050565b5f5f5f5f5f5f60608789031215615244575f5ffd5b86356001600160401b03811115615259575f5ffd5b61526589828a016149e5565b90975095505060208701356001600160401b03811115615283575f5ffd5b61528f89828a016149e5565b90955093505060408701356001600160401b038111156152ad575f5ffd5b6152b989828a016149e5565b979a9699509497509295939492505050565b5f5f5f606084860312156152dd575f5ffd5b83356152e88161496a565b925060208401356001600160401b03811115615302575f5ffd5b840160408187031215615313575f5ffd5b61531b614aed565b81356001600160401b03811115615330575f5ffd5b8201601f81018813615340575f5ffd5b80356001600160401b0381111561535957615359614ab1565b61536c601f8201601f1916602001614b0f565b818152896020838501011115615380575f5ffd5b816020840160208301375f60209282018301528352928301359282019290925293969395505050506040919091013590565b5f5f604083850312156153c3575f5ffd5b82356153ce8161496a565b946020939093013593505050565b604081525f6151816040830185614ca3565b8015158114612650575f5ffd5b5f5f5f5f6060858703121561540e575f5ffd5b84356001600160401b03811115615423575f5ffd5b850160e08188031215615434575f5ffd5b935060208501356001600160401b0381111561544e575f5ffd5b61545a878288016149e5565b9094509250506040850135615125816153ee565b5f5f6040838503121561547f575f5ffd5b82356001600160401b03811115615494575f5ffd5b8301601f810185136154a4575f5ffd5b80356154b2614b7e82614b3f565b8082825260208201915060208360051b8501019250878311156154d3575f5ffd5b6020840193505b828410156154fe5783356154ed8161496a565b8252602093840193909101906154da565b945050505060208301356001600160401b03811115615219575f5ffd5b602081525f610d5a6020830184615008565b634e487b7160e01b5f52603260045260245ffd5b5f8235605e19833603018112615555575f5ffd5b9190910192915050565b5f5f8335601e19843603018112615574575f5ffd5b8301803591506001600160401b0382111561558d575f5ffd5b6020019150600581901b360382131561224a575f5ffd5b5f602082840312156155b4575f5ffd5b8151610d5a816153ee565b60208152816020820152818360408301375f818301604090810191909152601f909201601f19160101919050565b5f602082840312156155fd575f5ffd5b8151610d5a816150c3565b634e487b7160e01b5f52601160045260245ffd5b63ffffffff8181168382160190811115611c8157611c81615608565b80820180821115611c8157611c81615608565b5f82601f83011261565a575f5ffd5b8151615668614b7e82614b3f565b8082825260208201915060208360051b860101925085831115615689575f5ffd5b602085015b83811015614bca57805183526020928301920161568e565b5f5f604083850312156156b7575f5ffd5b82516001600160401b038111156156cc575f5ffd5b8301601f810185136156dc575f5ffd5b80516156ea614b7e82614b3f565b8082825260208201915060208360051b85010192508783111561570b575f5ffd5b6020840193505b828410156157365783516157258161496a565b825260209384019390910190615712565b8095505050505060208301516001600160401b03811115615755575f5ffd5b6152258582860161564b565b5f60208284031215615771575f5ffd5b5051919050565b5f823560de19833603018112615555575f5ffd5b5f611c813683614e32565b5f602082840312156157a7575f5ffd5b8135610d5a816153ee565b5f602082840312156157c2575f5ffd5b8151610d5a8161496a565b6001600160a01b03831681526040602082018190525f90611d2990830184614f3f565b5f60208284031215615800575f5ffd5b81516001600160401b03811115615815575f5ffd5b8201601f81018413615825575f5ffd5b8051615833614b7e82614b3f565b8082825260208201915060208360051b850101925086831115615854575f5ffd5b6020840193505b8284101561089d57835161586e816150c3565b82526020938401939091019061585b565b6001600160a01b039384168152919092166020820152604081019190915260600190565b5f600182016158b4576158b4615608565b5060010190565b838152606060208201525f6158d36060830185614f78565b828103604084015261089d8185614ca3565b6001600160a01b03841681526060602082018190525f9061590890830185614f3f565b905063ffffffff83166040830152949350505050565b81810381811115611c8157611c81615608565b63ffffffff8281168282160390811115611c8157611c81615608565b5f5f6040838503121561595e575f5ffd5b505080516020909101519092909150565b634e487b7160e01b5f52602160045260245ffd5b634e487b7160e01b5f52601260045260245ffd5b6001600160401b038281168282160390811115611c8157611c81615608565b634e487b7160e01b5f52603160045260245ffd5b828152604060208201525f82518060408401528060208501606085015e5f606082850101526060601f19601f8301168401019150509392505050565b5f82518060208501845e5f920191825250919050565b5f82615a3657634e487b7160e01b5f52601260045260245ffd5b50049056fea264697066735822122022eb17be1cdbea21cf63d26b59094158ad9f106df5db0947b1013fbd186b6ba064736f6c634300081b0033","linkReferences":{}},"methodIdentifiers":{"DELEGATION_APPROVAL_TYPEHASH()":"04a4f979","allocationManager()":"ca8aa7c7","beaconChainETHStrategy()":"9104c319","calculateDelegationApprovalDigestHash(address,address,address,bytes32,uint256)":"0b9f487a","calculateWithdrawalRoot((address,address,address,uint256,uint32,address[],uint256[]))":"597b36da","completeQueuedWithdrawal((address,address,address,uint256,uint32,address[],uint256[]),address[],bool)":"e4cc3f90","completeQueuedWithdrawals((address,address,address,uint256,uint32,address[],uint256[])[],address[][],bool[])":"9435bb43","convertToDepositShares(address,address[],uint256[])":"25df922e","cumulativeWithdrawalsQueued(address)":"a1788484","decreaseDelegatedShares(address,uint256,uint64)":"60a0d1ce","delegateTo(address,(bytes,uint256),bytes32)":"eea9064b","delegatedTo(address)":"65da1264","delegationApprover(address)":"3cdeb5e0","delegationApproverSaltIsSpent(address,bytes32)":"bb45fef2","depositScalingFactor(address,address)":"bfae3fd2","domainSeparator()":"f698da25","eigenPodManager()":"4665bcda","getDepositedShares(address)":"66d5ba93","getOperatorShares(address,address[])":"90041347","getOperatorsShares(address[],address[])":"f0e0e676","getQueuedWithdrawal(bytes32)":"5d975e88","getQueuedWithdrawalRoots(address)":"fd8aa88d","getQueuedWithdrawals(address)":"5dd68579","getSlashableSharesInQueue(address,address)":"6e174448","getWithdrawableShares(address,address[])":"c978f7ac","increaseDelegatedShares(address,address,uint256,uint256)":"3c651cf2","initialize(address,uint256)":"cd6dc687","isDelegated(address)":"3e28391d","isOperator(address)":"6d70f7ae","minWithdrawalDelayBlocks()":"c448feb8","modifyOperatorDetails(address,address)":"54b7c96c","operatorShares(address,address)":"778e55f3","owner()":"8da5cb5b","pause(uint256)":"136439dd","pauseAll()":"595c6a67","paused()":"5c975abb","paused(uint8)":"5ac86ab7","pauserRegistry()":"886f1195","pendingWithdrawals(bytes32)":"b7f06ebe","permissionController()":"4657e26a","queueWithdrawals((address[],uint256[],address)[])":"0dd8dd02","redelegate(address,(bytes,uint256),bytes32)":"a33a3433","registerAsOperator(address,uint32,string)":"2aa6d888","renounceOwnership()":"715018a6","slashOperatorShares(address,address,uint64,uint64)":"601bb36f","strategyManager()":"39b70e38","transferOwnership(address)":"f2fde38b","undelegate(address)":"da8be864","unpause(uint256)":"fabc1cbc","updateOperatorMetadataURI(address,string)":"78296ec5"},"id":123}