{"abi":[{"type":"constructor","inputs":[{"name":"_delegation","type":"address","internalType":"contract IDelegationManager"},{"name":"_pauserRegistry","type":"address","internalType":"contract IPauserRegistry"}],"stateMutability":"nonpayable"},{"type":"function","name":"DEFAULT_BURN_ADDRESS","inputs":[],"outputs":[{"name":"","type":"address","internalType":"address"}],"stateMutability":"view"},{"type":"function","name":"DEPOSIT_TYPEHASH","inputs":[],"outputs":[{"name":"","type":"bytes32","internalType":"bytes32"}],"stateMutability":"view"},{"type":"function","name":"addShares","inputs":[{"name":"staker","type":"address","internalType":"address"},{"name":"strategy","type":"address","internalType":"contract IStrategy"},{"name":"token","type":"address","internalType":"contract IERC20"},{"name":"shares","type":"uint256","internalType":"uint256"}],"outputs":[{"name":"","type":"uint256","internalType":"uint256"},{"name":"","type":"uint256","internalType":"uint256"}],"stateMutability":"nonpayable"},{"type":"function","name":"addStrategiesToDepositWhitelist","inputs":[{"name":"strategiesToWhitelist","type":"address[]","internalType":"contract IStrategy[]"}],"outputs":[],"stateMutability":"nonpayable"},{"type":"function","name":"burnShares","inputs":[{"name":"strategy","type":"address","internalType":"contract IStrategy"}],"outputs":[],"stateMutability":"nonpayable"},{"type":"function","name":"burnableShares","inputs":[{"name":"strategy","type":"address","internalType":"contract IStrategy"}],"outputs":[{"name":"","type":"uint256","internalType":"uint256"}],"stateMutability":"view"},{"type":"function","name":"calculateStrategyDepositDigestHash","inputs":[{"name":"staker","type":"address","internalType":"address"},{"name":"strategy","type":"address","internalType":"contract IStrategy"},{"name":"token","type":"address","internalType":"contract IERC20"},{"name":"amount","type":"uint256","internalType":"uint256"},{"name":"nonce","type":"uint256","internalType":"uint256"},{"name":"expiry","type":"uint256","internalType":"uint256"}],"outputs":[{"name":"","type":"bytes32","internalType":"bytes32"}],"stateMutability":"view"},{"type":"function","name":"delegation","inputs":[],"outputs":[{"name":"","type":"address","internalType":"contract IDelegationManager"}],"stateMutability":"view"},{"type":"function","name":"depositIntoStrategy","inputs":[{"name":"strategy","type":"address","internalType":"contract IStrategy"},{"name":"token","type":"address","internalType":"contract IERC20"},{"name":"amount","type":"uint256","internalType":"uint256"}],"outputs":[{"name":"depositShares","type":"uint256","internalType":"uint256"}],"stateMutability":"nonpayable"},{"type":"function","name":"depositIntoStrategyWithSignature","inputs":[{"name":"strategy","type":"address","internalType":"contract IStrategy"},{"name":"token","type":"address","internalType":"contract IERC20"},{"name":"amount","type":"uint256","internalType":"uint256"},{"name":"staker","type":"address","internalType":"address"},{"name":"expiry","type":"uint256","internalType":"uint256"},{"name":"signature","type":"bytes","internalType":"bytes"}],"outputs":[{"name":"depositShares","type":"uint256","internalType":"uint256"}],"stateMutability":"nonpayable"},{"type":"function","name":"domainSeparator","inputs":[],"outputs":[{"name":"","type":"bytes32","internalType":"bytes32"}],"stateMutability":"view"},{"type":"function","name":"getDeposits","inputs":[{"name":"staker","type":"address","internalType":"address"}],"outputs":[{"name":"","type":"address[]","internalType":"contract IStrategy[]"},{"name":"","type":"uint256[]","internalType":"uint256[]"}],"stateMutability":"view"},{"type":"function","name":"getStakerStrategyList","inputs":[{"name":"staker","type":"address","internalType":"address"}],"outputs":[{"name":"","type":"address[]","internalType":"contract IStrategy[]"}],"stateMutability":"view"},{"type":"function","name":"increaseBurnableShares","inputs":[{"name":"strategy","type":"address","internalType":"contract IStrategy"},{"name":"addedSharesToBurn","type":"uint256","internalType":"uint256"}],"outputs":[],"stateMutability":"nonpayable"},{"type":"function","name":"initialize","inputs":[{"name":"initialOwner","type":"address","internalType":"address"},{"name":"initialStrategyWhitelister","type":"address","internalType":"address"},{"name":"initialPausedStatus","type":"uint256","internalType":"uint256"}],"outputs":[],"stateMutability":"nonpayable"},{"type":"function","name":"nonces","inputs":[{"name":"signer","type":"address","internalType":"address"}],"outputs":[{"name":"nonce","type":"uint256","internalType":"uint256"}],"stateMutability":"view"},{"type":"function","name":"owner","inputs":[],"outputs":[{"name":"","type":"address","internalType":"address"}],"stateMutability":"view"},{"type":"function","name":"pause","inputs":[{"name":"newPausedStatus","type":"uint256","internalType":"uint256"}],"outputs":[],"stateMutability":"nonpayable"},{"type":"function","name":"pauseAll","inputs":[],"outputs":[],"stateMutability":"nonpayable"},{"type":"function","name":"paused","inputs":[{"name":"index","type":"uint8","internalType":"uint8"}],"outputs":[{"name":"","type":"bool","internalType":"bool"}],"stateMutability":"view"},{"type":"function","name":"paused","inputs":[],"outputs":[{"name":"","type":"uint256","internalType":"uint256"}],"stateMutability":"view"},{"type":"function","name":"pauserRegistry","inputs":[],"outputs":[{"name":"","type":"address","internalType":"contract IPauserRegistry"}],"stateMutability":"view"},{"type":"function","name":"removeDepositShares","inputs":[{"name":"staker","type":"address","internalType":"address"},{"name":"strategy","type":"address","internalType":"contract IStrategy"},{"name":"depositSharesToRemove","type":"uint256","internalType":"uint256"}],"outputs":[],"stateMutability":"nonpayable"},{"type":"function","name":"removeStrategiesFromDepositWhitelist","inputs":[{"name":"strategiesToRemoveFromWhitelist","type":"address[]","internalType":"contract IStrategy[]"}],"outputs":[],"stateMutability":"nonpayable"},{"type":"function","name":"renounceOwnership","inputs":[],"outputs":[],"stateMutability":"nonpayable"},{"type":"function","name":"setStrategyWhitelister","inputs":[{"name":"newStrategyWhitelister","type":"address","internalType":"address"}],"outputs":[],"stateMutability":"nonpayable"},{"type":"function","name":"stakerDepositShares","inputs":[{"name":"staker","type":"address","internalType":"address"},{"name":"strategy","type":"address","internalType":"contract IStrategy"}],"outputs":[{"name":"shares","type":"uint256","internalType":"uint256"}],"stateMutability":"view"},{"type":"function","name":"stakerStrategyList","inputs":[{"name":"staker","type":"address","internalType":"address"},{"name":"","type":"uint256","internalType":"uint256"}],"outputs":[{"name":"strategies","type":"address","internalType":"contract IStrategy"}],"stateMutability":"view"},{"type":"function","name":"stakerStrategyListLength","inputs":[{"name":"staker","type":"address","internalType":"address"}],"outputs":[{"name":"","type":"uint256","internalType":"uint256"}],"stateMutability":"view"},{"type":"function","name":"strategyIsWhitelistedForDeposit","inputs":[{"name":"strategy","type":"address","internalType":"contract IStrategy"}],"outputs":[{"name":"whitelisted","type":"bool","internalType":"bool"}],"stateMutability":"view"},{"type":"function","name":"strategyWhitelister","inputs":[],"outputs":[{"name":"","type":"address","internalType":"address"}],"stateMutability":"view"},{"type":"function","name":"transferOwnership","inputs":[{"name":"newOwner","type":"address","internalType":"address"}],"outputs":[],"stateMutability":"nonpayable"},{"type":"function","name":"unpause","inputs":[{"name":"newPausedStatus","type":"uint256","internalType":"uint256"}],"outputs":[],"stateMutability":"nonpayable"},{"type":"function","name":"withdrawSharesAsTokens","inputs":[{"name":"staker","type":"address","internalType":"address"},{"name":"strategy","type":"address","internalType":"contract IStrategy"},{"name":"token","type":"address","internalType":"contract IERC20"},{"name":"shares","type":"uint256","internalType":"uint256"}],"outputs":[],"stateMutability":"nonpayable"},{"type":"event","name":"BurnableSharesDecreased","inputs":[{"name":"strategy","type":"address","indexed":false,"internalType":"contract IStrategy"},{"name":"shares","type":"uint256","indexed":false,"internalType":"uint256"}],"anonymous":false},{"type":"event","name":"BurnableSharesIncreased","inputs":[{"name":"strategy","type":"address","indexed":false,"internalType":"contract IStrategy"},{"name":"shares","type":"uint256","indexed":false,"internalType":"uint256"}],"anonymous":false},{"type":"event","name":"Deposit","inputs":[{"name":"staker","type":"address","indexed":false,"internalType":"address"},{"name":"token","type":"address","indexed":false,"internalType":"contract IERC20"},{"name":"strategy","type":"address","indexed":false,"internalType":"contract IStrategy"},{"name":"shares","type":"uint256","indexed":false,"internalType":"uint256"}],"anonymous":false},{"type":"event","name":"Initialized","inputs":[{"name":"version","type":"uint8","indexed":false,"internalType":"uint8"}],"anonymous":false},{"type":"event","name":"OwnershipTransferred","inputs":[{"name":"previousOwner","type":"address","indexed":true,"internalType":"address"},{"name":"newOwner","type":"address","indexed":true,"internalType":"address"}],"anonymous":false},{"type":"event","name":"Paused","inputs":[{"name":"account","type":"address","indexed":true,"internalType":"address"},{"name":"newPausedStatus","type":"uint256","indexed":false,"internalType":"uint256"}],"anonymous":false},{"type":"event","name":"StrategyAddedToDepositWhitelist","inputs":[{"name":"strategy","type":"address","indexed":false,"internalType":"contract IStrategy"}],"anonymous":false},{"type":"event","name":"StrategyRemovedFromDepositWhitelist","inputs":[{"name":"strategy","type":"address","indexed":false,"internalType":"contract IStrategy"}],"anonymous":false},{"type":"event","name":"StrategyWhitelisterChanged","inputs":[{"name":"previousAddress","type":"address","indexed":false,"internalType":"address"},{"name":"newAddress","type":"address","indexed":false,"internalType":"address"}],"anonymous":false},{"type":"event","name":"Unpaused","inputs":[{"name":"account","type":"address","indexed":true,"internalType":"address"},{"name":"newPausedStatus","type":"uint256","indexed":false,"internalType":"uint256"}],"anonymous":false},{"type":"error","name":"CurrentlyPaused","inputs":[]},{"type":"error","name":"InputAddressZero","inputs":[]},{"type":"error","name":"InvalidNewPausedStatus","inputs":[]},{"type":"error","name":"InvalidSignature","inputs":[]},{"type":"error","name":"MaxStrategiesExceeded","inputs":[]},{"type":"error","name":"OnlyDelegationManager","inputs":[]},{"type":"error","name":"OnlyPauser","inputs":[]},{"type":"error","name":"OnlyStrategyWhitelister","inputs":[]},{"type":"error","name":"OnlyUnpauser","inputs":[]},{"type":"error","name":"SharesAmountTooHigh","inputs":[]},{"type":"error","name":"SharesAmountZero","inputs":[]},{"type":"error","name":"SignatureExpired","inputs":[]},{"type":"error","name":"StakerAddressZero","inputs":[]},{"type":"error","name":"StrategyNotFound","inputs":[]},{"type":"error","name":"StrategyNotWhitelisted","inputs":[]}],"bytecode":{"object":"0x610100604052348015610010575f5ffd5b5060405161286038038061286083398101604081905261002f916101ed565b81816001600160a01b038116610058576040516339b190bb60e11b815260040160405180910390fd5b6001600160a01b039081166080521660a0524660c052610108604080518082018252600a81526922b4b3b2b72630bcb2b960b11b60209182015281517f8cad95687ba82c2ce50e74f7b754645e5117c3a5bec8151c0726d5857980a866818301527f71b625cfad44bac63b13dba07f2e1d6084ee04b6f8752101ece6126d584ee6ea81840152466060820152306080808301919091528351808303909101815260a0909101909252815191012090565b60e05261011361011a565b5050610225565b5f54610100900460ff16156101855760405162461bcd60e51b815260206004820152602760248201527f496e697469616c697a61626c653a20636f6e747261637420697320696e697469604482015266616c697a696e6760c81b606482015260840160405180910390fd5b5f5460ff908116146101d4575f805460ff191660ff9081179091556040519081527f7f26b83ff96e1f2b6a682f133852f6798a09c465da95921460cefb38474024989060200160405180910390a15b565b6001600160a01b03811681146101ea575f5ffd5b50565b5f5f604083850312156101fe575f5ffd5b8251610209816101d6565b602084015190925061021a816101d6565b809150509250929050565b60805160a05160c05160e0516125d06102905f395f6112ef01525f61122f01525f81816104c50152818161076201528181610bfb01528181610f99015281816110b401526116d301525f81816103720152818161057101528181610a06015261131301526125d05ff3fe608060405234801561000f575f5ffd5b50600436106101fd575f3560e01c80638da5cb5b11610114578063de44acb6116100a9578063f2fde38b11610079578063f2fde38b146104fa578063f3b4a0001461050d578063f698da2514610517578063fabc1cbc1461051f578063fe243a1714610532575f5ffd5b8063de44acb61461048d578063debe1eab146104ad578063df5cf723146104c0578063e7a050aa146104e7575f5ffd5b8063b5d8b5b8116100e4578063b5d8b5b81461042c578063c4623ea11461043f578063c665670214610467578063cbc2bd621461047a575f5ffd5b80638da5cb5b146103d457806394f649dd146103e5578063967fc0d2146104065780639ac01d6114610419575f5ffd5b80635ac86ab711610195578063715018a611610165578063715018a614610333578063724af4231461033b5780637ecebe001461034e578063886f11951461036d5780638b8aac3c146103ac575f5ffd5b80635ac86ab7146102c35780635c975abb146102f65780635de08ff2146102fe578063663c1de414610311575f5ffd5b806332e89ace116101d057806332e89ace1461026e57806348825e94146102815780634b6d5d6e146102a8578063595c6a67146102bb575f5ffd5b8063136439dd146102015780631794bb3c146102165780631b3cbdc1146102295780632eae418c1461025b575b5f5ffd5b61021461020f36600461207e565b61055c565b005b6102146102243660046120a9565b610631565b6102486102373660046120e7565b60d46020525f908152604090205481565b6040519081526020015b60405180910390f35b610214610269366004612102565b610757565b61024861027c366004612164565b61080b565b6102487f4337f82d142e41f2a8c10547cd8c859bddb92262a61058e77842e24d9dea922481565b6102146102b63660046120e7565b6108af565b6102146109f1565b6102e66102d136600461225f565b609854600160ff9092169190911b9081161490565b6040519015158152602001610252565b609854610248565b61021461030c36600461227f565b610aa0565b6102e661031f3660046120e7565b60d16020525f908152604090205460ff1681565b610214610bdf565b6102146103493660046120a9565b610bf0565b61024861035c3660046120e7565b60ca6020525f908152604090205481565b6103947f000000000000000000000000000000000000000000000000000000000000000081565b6040516001600160a01b039091168152602001610252565b6102486103ba3660046120e7565b6001600160a01b03165f90815260ce602052604090205490565b6033546001600160a01b0316610394565b6103f86103f33660046120e7565b610c44565b604051610252929190612333565b60cb54610394906001600160a01b031681565b61024861042736600461238b565b610dbc565b61021461043a36600461227f565b610e4d565b61045261044d366004612102565b610f8c565b60408051928352602083019190915201610252565b6102146104753660046120e7565b610ff1565b6103946104883660046123ec565b611002565b6104a061049b3660046120e7565b611036565b6040516102529190612416565b6102146104bb3660046123ec565b6110a9565b6103947f000000000000000000000000000000000000000000000000000000000000000081565b6102486104f53660046120a9565b611164565b6102146105083660046120e7565b6111b6565b610394620e16e481565b61024861122c565b61021461052d36600461207e565b611311565b610248610540366004612428565b60cd60209081525f928352604080842090915290825290205481565b60405163237dfb4760e11b81523360048201527f00000000000000000000000000000000000000000000000000000000000000006001600160a01b0316906346fbf68e90602401602060405180830381865afa1580156105be573d5f5f3e3d5ffd5b505050506040513d601f19601f820116820180604052508101906105e2919061245f565b6105ff57604051631d77d47760e21b815260040160405180910390fd5b60985481811681146106245760405163c61dca5d60e01b815260040160405180910390fd5b61062d82611427565b5050565b5f54610100900460ff161580801561064f57505f54600160ff909116105b806106685750303b15801561066857505f5460ff166001145b6106d05760405162461bcd60e51b815260206004820152602e60248201527f496e697469616c697a61626c653a20636f6e747261637420697320616c72656160448201526d191e481a5b9a5d1a585b1a5e995960921b60648201526084015b60405180910390fd5b5f805460ff1916600117905580156106f1575f805461ff0019166101001790555b6106fa82611427565b61070384611464565b61070c836114b5565b8015610751575f805461ff0019169055604051600181527f7f26b83ff96e1f2b6a682f133852f6798a09c465da95921460cefb38474024989060200160405180910390a15b50505050565b336001600160a01b037f000000000000000000000000000000000000000000000000000000000000000016146107a05760405163f739589b60e01b815260040160405180910390fd5b604051636ce5768960e11b81526001600160a01b03858116600483015283811660248301526044820183905284169063d9caed12906064015f604051808303815f87803b1580156107ef575f5ffd5b505af1158015610801573d5f5f3e3d5ffd5b5050505050505050565b6098545f9081906001908116036108355760405163840a48d560e01b815260040160405180910390fd5b61083d61151e565b6001600160a01b0385165f90815260ca602052604090205461086e86610867818c8c8c878c610dbc565b8688611577565b6001600160a01b0386165f90815260ca60205260409020600182019055610897868a8a8a6115c9565b9250506108a46001606555565b509695505050505050565b6108b761151e565b6001600160a01b0381165f81815260d4602090815260408083208054939055805193845290830182905290917fd9d082c3ec4f3a3ffa55c324939a06407f5fbcb87d5e0ce3b9508c92c84ed839910160405180910390a1816001600160a01b031663d9caed12620e16e4846001600160a01b0316632495a5996040518163ffffffff1660e01b8152600401602060405180830381865afa15801561095d573d5f5f3e3d5ffd5b505050506040513d601f19601f82011682018060405250810190610981919061247e565b6040516001600160e01b031960e085901b1681526001600160a01b03928316600482015291166024820152604481018490526064015f604051808303815f87803b1580156109cd575f5ffd5b505af11580156109df573d5f5f3e3d5ffd5b50505050506109ee6001606555565b50565b60405163237dfb4760e11b81523360048201527f00000000000000000000000000000000000000000000000000000000000000006001600160a01b0316906346fbf68e90602401602060405180830381865afa158015610a53573d5f5f3e3d5ffd5b505050506040513d601f19601f82011682018060405250810190610a77919061245f565b610a9457604051631d77d47760e21b815260040160405180910390fd5b610a9e5f19611427565b565b60cb546001600160a01b03163314610acb576040516320ba3ff960e21b815260040160405180910390fd5b805f5b818110156107515760d15f858584818110610aeb57610aeb612499565b9050602002016020810190610b0091906120e7565b6001600160a01b0316815260208101919091526040015f205460ff16610bd757600160d15f868685818110610b3757610b37612499565b9050602002016020810190610b4c91906120e7565b6001600160a01b0316815260208101919091526040015f20805460ff19169115159190911790557f0c35b17d91c96eb2751cd456e1252f42a386e524ef9ff26ecc9950859fdc04fe848483818110610ba657610ba6612499565b9050602002016020810190610bbb91906120e7565b6040516001600160a01b03909116815260200160405180910390a15b600101610ace565b610be7611737565b610a9e5f611464565b336001600160a01b037f00000000000000000000000000000000000000000000000000000000000000001614610c395760405163f739589b60e01b815260040160405180910390fd5b610751838383611791565b6001600160a01b0381165f90815260ce60205260408120546060918291908167ffffffffffffffff811115610c7b57610c7b612150565b604051908082528060200260200182016040528015610ca4578160200160208202803683370190505b5090505f5b82811015610d32576001600160a01b0386165f90815260cd6020908152604080832060ce9092528220805491929184908110610ce757610ce7612499565b5f9182526020808320909101546001600160a01b031683528201929092526040019020548251839083908110610d1f57610d1f612499565b6020908102919091010152600101610ca9565b5060ce5f866001600160a01b03166001600160a01b031681526020019081526020015f208181805480602002602001604051908101604052809291908181526020018280548015610daa57602002820191905f5260205f20905b81546001600160a01b03168152600190910190602001808311610d8c575b50505050509150935093505050915091565b604080517f4337f82d142e41f2a8c10547cd8c859bddb92262a61058e77842e24d9dea922460208201526001600160a01b03808916928201929092528187166060820152908516608082015260a0810184905260c0810183905260e081018290525f90610e42906101000160405160208183030381529060405280519060200120611855565b979650505050505050565b60cb546001600160a01b03163314610e78576040516320ba3ff960e21b815260040160405180910390fd5b805f5b818110156107515760d15f858584818110610e9857610e98612499565b9050602002016020810190610ead91906120e7565b6001600160a01b0316815260208101919091526040015f205460ff1615610f84575f60d15f868685818110610ee457610ee4612499565b9050602002016020810190610ef991906120e7565b6001600160a01b0316815260208101919091526040015f20805460ff19169115159190911790557f4074413b4b443e4e58019f2855a8765113358c7c72e39509c6af45fc0f5ba030848483818110610f5357610f53612499565b9050602002016020810190610f6891906120e7565b6040516001600160a01b03909116815260200160405180910390a15b600101610e7b565b5f80336001600160a01b037f00000000000000000000000000000000000000000000000000000000000000001614610fd75760405163f739589b60e01b815260040160405180910390fd5b610fe38685878661189b565b915091505b94509492505050565b610ff9611737565b6109ee816114b5565b60ce602052815f5260405f20818154811061101b575f80fd5b5f918252602090912001546001600160a01b03169150829050565b6001600160a01b0381165f90815260ce602090815260409182902080548351818402810184019094528084526060939283018282801561109d57602002820191905f5260205f20905b81546001600160a01b0316815260019091019060200180831161107f575b50505050509050919050565b336001600160a01b037f000000000000000000000000000000000000000000000000000000000000000016146110f25760405163f739589b60e01b815260040160405180910390fd5b6001600160a01b0382165f90815260d46020526040812080548392906111199084906124c1565b9091555050604080516001600160a01b0384168152602081018390527fca3e02a4ab7ad3c47a8e36e5a624c30170791726ab720f1babfef21046d953ff910160405180910390a15050565b6098545f90819060019081160361118e5760405163840a48d560e01b815260040160405180910390fd5b61119661151e565b6111a2338686866115c9565b91506111ae6001606555565b509392505050565b6111be611737565b6001600160a01b0381166112235760405162461bcd60e51b815260206004820152602660248201527f4f776e61626c653a206e6577206f776e657220697320746865207a65726f206160448201526564647265737360d01b60648201526084016106c7565b6109ee81611464565b5f7f000000000000000000000000000000000000000000000000000000000000000046146112ec5750604080518082018252600a81526922b4b3b2b72630bcb2b960b11b60209182015281517f8cad95687ba82c2ce50e74f7b754645e5117c3a5bec8151c0726d5857980a866818301527f71b625cfad44bac63b13dba07f2e1d6084ee04b6f8752101ece6126d584ee6ea81840152466060820152306080808301919091528351808303909101815260a0909101909252815191012090565b507f000000000000000000000000000000000000000000000000000000000000000090565b7f00000000000000000000000000000000000000000000000000000000000000006001600160a01b031663eab66d7a6040518163ffffffff1660e01b8152600401602060405180830381865afa15801561136d573d5f5f3e3d5ffd5b505050506040513d601f19601f82011682018060405250810190611391919061247e565b6001600160a01b0316336001600160a01b0316146113c25760405163794821ff60e01b815260040160405180910390fd5b609854801982198116146113e95760405163c61dca5d60e01b815260040160405180910390fd5b609882905560405182815233907f3582d1828e26bf56bd801502bc021ac0bc8afb57c826e4986b45593c8fad389c9060200160405180910390a25050565b609881905560405181815233907fab40a374bc51de372200a8bc981af8c9ecdc08dfdaef0bb6e09f88f3c616ef3d9060200160405180910390a250565b603380546001600160a01b038381166001600160a01b0319831681179093556040519116919082907f8be0079c531659141344cd1fd0a4f28419497f9722a3daafe3b4186f6b6457e0905f90a35050565b60cb54604080516001600160a01b03928316815291831660208301527f4264275e593955ff9d6146a51a4525f6ddace2e81db9391abcc9d1ca48047d29910160405180910390a160cb80546001600160a01b0319166001600160a01b0392909216919091179055565b6002606554036115705760405162461bcd60e51b815260206004820152601f60248201527f5265656e7472616e637947756172643a207265656e7472616e742063616c6c0060448201526064016106c7565b6002606555565b4281101561159857604051630819bdcd60e01b815260040160405180910390fd5b6115ac6001600160a01b0385168484611a13565b61075157604051638baa579f60e01b815260040160405180910390fd5b6001600160a01b0383165f90815260d16020526040812054849060ff1661160357604051632efd965160e11b815260040160405180910390fd5b6116186001600160a01b038516338786611a71565b6040516311f9fbc960e21b81526001600160a01b038581166004830152602482018590528616906347e7ef24906044016020604051808303815f875af1158015611664573d5f5f3e3d5ffd5b505050506040513d601f19601f8201168201806040525081019061168891906124da565b91505f5f6116988887898761189b565b604051631e328e7960e11b81526001600160a01b038b811660048301528a8116602483015260448201849052606482018390529294509092507f000000000000000000000000000000000000000000000000000000000000000090911690633c651cf2906084015f604051808303815f87803b158015611716575f5ffd5b505af1158015611728573d5f5f3e3d5ffd5b50505050505050949350505050565b6033546001600160a01b03163314610a9e5760405162461bcd60e51b815260206004820181905260248201527f4f776e61626c653a2063616c6c6572206973206e6f7420746865206f776e657260448201526064016106c7565b5f815f036117b2576040516342061b2560e11b815260040160405180910390fd5b6001600160a01b038085165f90815260cd6020908152604080832093871683529290522054808311156117f857604051634b18b19360e01b815260040160405180910390fd5b61180283826124f1565b6001600160a01b038087165f90815260cd6020908152604080832093891683529290529081208290559091508190036118495761183f8585611acb565b600191505061184e565b5f9150505b9392505050565b5f61185e61122c565b60405161190160f01b6020820152602281019190915260428101839052606201604051602081830303815290604052805190602001209050919050565b5f806001600160a01b0386166118c4576040516316f2ccc960e01b815260040160405180910390fd5b825f036118e4576040516342061b2560e11b815260040160405180910390fd5b6001600160a01b038087165f90815260cd602090815260408083209388168352929052908120549081900361198a576001600160a01b0387165f90815260ce60209081526040909120541061194c576040516301a1443960e31b815260040160405180910390fd5b6001600160a01b038781165f90815260ce602090815260408220805460018101825590835291200180546001600160a01b0319169187169190911790555b61199484826124c1565b6001600160a01b038881165f81815260cd602090815260408083208b861680855290835292819020959095558451928352928a169282019290925291820152606081018590527f7cfff908a4b583f36430b25d75964c458d8ede8a99bd61be750e97ee1b2f3a969060800160405180910390a196929550919350505050565b5f5f5f611a208585611c49565b90925090505f816004811115611a3857611a38612504565b148015611a565750856001600160a01b0316826001600160a01b0316145b80611a675750611a67868686611c8b565b9695505050505050565b604080516001600160a01b0385811660248301528416604482015260648082018490528251808303909101815260849091019091526020810180516001600160e01b03166323b872dd60e01b179052610751908590611d72565b6001600160a01b0382165f90815260ce6020526040812054905b81811015611bdd576001600160a01b038481165f90815260ce6020526040902080549185169183908110611b1b57611b1b612499565b5f918252602090912001546001600160a01b031603611bd5576001600160a01b0384165f90815260ce602052604090208054611b59906001906124f1565b81548110611b6957611b69612499565b5f9182526020808320909101546001600160a01b03878116845260ce9092526040909220805491909216919083908110611ba557611ba5612499565b905f5260205f20015f6101000a8154816001600160a01b0302191690836001600160a01b03160217905550611bdd565b600101611ae5565b818103611bfd57604051632df15a4160e11b815260040160405180910390fd5b6001600160a01b0384165f90815260ce60205260409020805480611c2357611c23612518565b5f8281526020902081015f1990810180546001600160a01b031916905501905550505050565b5f5f8251604103611c7d576020830151604084015160608501515f1a611c7187828585611e4a565b94509450505050611c84565b505f905060025b9250929050565b5f5f5f856001600160a01b0316631626ba7e60e01b8686604051602401611cb392919061255a565b60408051601f198184030181529181526020820180516001600160e01b03166001600160e01b0319909416939093179092529051611cf19190612572565b5f60405180830381855afa9150503d805f8114611d29576040519150601f19603f3d011682016040523d82523d5f602084013e611d2e565b606091505b5091509150818015611d4257506020815110155b8015611a6757508051630b135d3f60e11b90611d6790830160209081019084016124da565b149695505050505050565b5f611dc6826040518060400160405280602081526020017f5361666545524332303a206c6f772d6c6576656c2063616c6c206661696c6564815250856001600160a01b0316611f049092919063ffffffff16565b905080515f1480611de6575080806020019051810190611de6919061245f565b611e455760405162461bcd60e51b815260206004820152602a60248201527f5361666545524332303a204552433230206f7065726174696f6e20646964206e6044820152691bdd081cdd58d8d9595960b21b60648201526084016106c7565b505050565b5f807f7fffffffffffffffffffffffffffffff5d576e7357a4501ddfe92f46681b20a0831115611e7f57505f90506003610fe8565b604080515f8082526020820180845289905260ff881692820192909252606081018690526080810185905260019060a0016020604051602081039080840390855afa158015611ed0573d5f5f3e3d5ffd5b5050604051601f1901519150506001600160a01b038116611ef8575f60019250925050610fe8565b965f9650945050505050565b6060611f1284845f85611f1a565b949350505050565b606082471015611f7b5760405162461bcd60e51b815260206004820152602660248201527f416464726573733a20696e73756666696369656e742062616c616e636520666f6044820152651c8818d85b1b60d21b60648201526084016106c7565b5f5f866001600160a01b03168587604051611f969190612572565b5f6040518083038185875af1925050503d805f8114611fd0576040519150601f19603f3d011682016040523d82523d5f602084013e611fd5565b606091505b5091509150610e42878383876060831561204f5782515f03612048576001600160a01b0385163b6120485760405162461bcd60e51b815260206004820152601d60248201527f416464726573733a2063616c6c20746f206e6f6e2d636f6e747261637400000060448201526064016106c7565b5081611f12565b611f1283838151156120645781518083602001fd5b8060405162461bcd60e51b81526004016106c79190612588565b5f6020828403121561208e575f5ffd5b5035919050565b6001600160a01b03811681146109ee575f5ffd5b5f5f5f606084860312156120bb575f5ffd5b83356120c681612095565b925060208401356120d681612095565b929592945050506040919091013590565b5f602082840312156120f7575f5ffd5b813561184e81612095565b5f5f5f5f60808587031215612115575f5ffd5b843561212081612095565b9350602085013561213081612095565b9250604085013561214081612095565b9396929550929360600135925050565b634e487b7160e01b5f52604160045260245ffd5b5f5f5f5f5f5f60c08789031215612179575f5ffd5b863561218481612095565b9550602087013561219481612095565b94506040870135935060608701356121ab81612095565b92506080870135915060a087013567ffffffffffffffff8111156121cd575f5ffd5b8701601f810189136121dd575f5ffd5b803567ffffffffffffffff8111156121f7576121f7612150565b604051601f8201601f19908116603f0116810167ffffffffffffffff8111828210171561222657612226612150565b6040528181528282016020018b101561223d575f5ffd5b816020840160208301375f602083830101528093505050509295509295509295565b5f6020828403121561226f575f5ffd5b813560ff8116811461184e575f5ffd5b5f5f60208385031215612290575f5ffd5b823567ffffffffffffffff8111156122a6575f5ffd5b8301601f810185136122b6575f5ffd5b803567ffffffffffffffff8111156122cc575f5ffd5b8560208260051b84010111156122e0575f5ffd5b6020919091019590945092505050565b5f8151808452602084019350602083015f5b828110156123295781516001600160a01b0316865260209586019590910190600101612302565b5093949350505050565b604081525f61234560408301856122f0565b82810360208401528084518083526020830191506020860192505f5b8181101561237f578351835260209384019390920191600101612361565b50909695505050505050565b5f5f5f5f5f5f60c087890312156123a0575f5ffd5b86356123ab81612095565b955060208701356123bb81612095565b945060408701356123cb81612095565b959894975094956060810135955060808101359460a0909101359350915050565b5f5f604083850312156123fd575f5ffd5b823561240881612095565b946020939093013593505050565b602081525f61184e60208301846122f0565b5f5f60408385031215612439575f5ffd5b823561244481612095565b9150602083013561245481612095565b809150509250929050565b5f6020828403121561246f575f5ffd5b8151801515811461184e575f5ffd5b5f6020828403121561248e575f5ffd5b815161184e81612095565b634e487b7160e01b5f52603260045260245ffd5b634e487b7160e01b5f52601160045260245ffd5b808201808211156124d4576124d46124ad565b92915050565b5f602082840312156124ea575f5ffd5b5051919050565b818103818111156124d4576124d46124ad565b634e487b7160e01b5f52602160045260245ffd5b634e487b7160e01b5f52603160045260245ffd5b5f81518084528060208401602086015e5f602082860101526020601f19601f83011685010191505092915050565b828152604060208201525f611f12604083018461252c565b5f82518060208501845e5f920191825250919050565b602081525f61184e602083018461252c56fea264697066735822122083cf288086e6618c6db784e710ab5f95b874639d19b989b9c2dde7adbd1690dc64736f6c634300081b0033","linkReferences":{}},"methodIdentifiers":{"DEFAULT_BURN_ADDRESS()":"f3b4a000","DEPOSIT_TYPEHASH()":"48825e94","addShares(address,address,address,uint256)":"c4623ea1","addStrategiesToDepositWhitelist(address[])":"5de08ff2","burnShares(address)":"4b6d5d6e","burnableShares(address)":"1b3cbdc1","calculateStrategyDepositDigestHash(address,address,address,uint256,uint256,uint256)":"9ac01d61","delegation()":"df5cf723","depositIntoStrategy(address,address,uint256)":"e7a050aa","depositIntoStrategyWithSignature(address,address,uint256,address,uint256,bytes)":"32e89ace","domainSeparator()":"f698da25","getDeposits(address)":"94f649dd","getStakerStrategyList(address)":"de44acb6","increaseBurnableShares(address,uint256)":"debe1eab","initialize(address,address,uint256)":"1794bb3c","nonces(address)":"7ecebe00","owner()":"8da5cb5b","pause(uint256)":"136439dd","pauseAll()":"595c6a67","paused()":"5c975abb","paused(uint8)":"5ac86ab7","pauserRegistry()":"886f1195","removeDepositShares(address,address,uint256)":"724af423","removeStrategiesFromDepositWhitelist(address[])":"b5d8b5b8","renounceOwnership()":"715018a6","setStrategyWhitelister(address)":"c6656702","stakerDepositShares(address,address)":"fe243a17","stakerStrategyList(address,uint256)":"cbc2bd62","stakerStrategyListLength(address)":"8b8aac3c","strategyIsWhitelistedForDeposit(address)":"663c1de4","strategyWhitelister()":"967fc0d2","transferOwnership(address)":"f2fde38b","unpause(uint256)":"fabc1cbc","withdrawSharesAsTokens(address,address,address,uint256)":"2eae418c"},"id":127}