{"abi":[{"type":"constructor","inputs":[{"name":"_delegation","type":"address","internalType":"contract IDelegationManager"},{"name":"_pauserRegistry","type":"address","internalType":"contract IPauserRegistry"},{"name":"_permissionController","type":"address","internalType":"contract IPermissionController"},{"name":"_DEALLOCATION_DELAY","type":"uint32","internalType":"uint32"},{"name":"_ALLOCATION_CONFIGURATION_DELAY","type":"uint32","internalType":"uint32"}],"stateMutability":"nonpayable"},{"type":"function","name":"ALLOCATION_CONFIGURATION_DELAY","inputs":[],"outputs":[{"name":"","type":"uint32","internalType":"uint32"}],"stateMutability":"view"},{"type":"function","name":"DEALLOCATION_DELAY","inputs":[],"outputs":[{"name":"","type":"uint32","internalType":"uint32"}],"stateMutability":"view"},{"type":"function","name":"addStrategiesToOperatorSet","inputs":[{"name":"avs","type":"address","internalType":"address"},{"name":"operatorSetId","type":"uint32","internalType":"uint32"},{"name":"strategies","type":"address[]","internalType":"contract IStrategy[]"}],"outputs":[],"stateMutability":"nonpayable"},{"type":"function","name":"clearDeallocationQueue","inputs":[{"name":"operator","type":"address","internalType":"address"},{"name":"strategies","type":"address[]","internalType":"contract IStrategy[]"},{"name":"numToClear","type":"uint16[]","internalType":"uint16[]"}],"outputs":[],"stateMutability":"nonpayable"},{"type":"function","name":"createOperatorSets","inputs":[{"name":"avs","type":"address","internalType":"address"},{"name":"params","type":"tuple[]","internalType":"struct IAllocationManagerTypes.CreateSetParams[]","components":[{"name":"operatorSetId","type":"uint32","internalType":"uint32"},{"name":"strategies","type":"address[]","internalType":"contract IStrategy[]"}]}],"outputs":[],"stateMutability":"nonpayable"},{"type":"function","name":"deallocationQueueAtIndex","inputs":[{"name":"operator","type":"address","internalType":"address"},{"name":"strategy","type":"address","internalType":"contract IStrategy"},{"name":"index","type":"uint256","internalType":"uint256"}],"outputs":[{"name":"","type":"bytes32","internalType":"bytes32"}],"stateMutability":"view"},{"type":"function","name":"delegation","inputs":[],"outputs":[{"name":"","type":"address","internalType":"contract IDelegationManager"}],"stateMutability":"view"},{"type":"function","name":"deregisterFromOperatorSets","inputs":[{"name":"params","type":"tuple","internalType":"struct IAllocationManagerTypes.DeregisterParams","components":[{"name":"operator","type":"address","internalType":"address"},{"name":"avs","type":"address","internalType":"address"},{"name":"operatorSetIds","type":"uint32[]","internalType":"uint32[]"}]}],"outputs":[],"stateMutability":"nonpayable"},{"type":"function","name":"getAVSRegistrar","inputs":[{"name":"avs","type":"address","internalType":"address"}],"outputs":[{"name":"","type":"address","internalType":"contract IAVSRegistrar"}],"stateMutability":"view"},{"type":"function","name":"getAllocatableMagnitude","inputs":[{"name":"operator","type":"address","internalType":"address"},{"name":"strategy","type":"address","internalType":"contract IStrategy"}],"outputs":[{"name":"","type":"uint64","internalType":"uint64"}],"stateMutability":"view"},{"type":"function","name":"getAllocatedSets","inputs":[{"name":"operator","type":"address","internalType":"address"}],"outputs":[{"name":"","type":"tuple[]","internalType":"struct OperatorSet[]","components":[{"name":"avs","type":"address","internalType":"address"},{"name":"id","type":"uint32","internalType":"uint32"}]}],"stateMutability":"view"},{"type":"function","name":"getAllocatedStake","inputs":[{"name":"operatorSet","type":"tuple","internalType":"struct OperatorSet","components":[{"name":"avs","type":"address","internalType":"address"},{"name":"id","type":"uint32","internalType":"uint32"}]},{"name":"operators","type":"address[]","internalType":"address[]"},{"name":"strategies","type":"address[]","internalType":"contract IStrategy[]"}],"outputs":[{"name":"","type":"uint256[][]","internalType":"uint256[][]"}],"stateMutability":"view"},{"type":"function","name":"getAllocatedStrategies","inputs":[{"name":"operator","type":"address","internalType":"address"},{"name":"operatorSet","type":"tuple","internalType":"struct OperatorSet","components":[{"name":"avs","type":"address","internalType":"address"},{"name":"id","type":"uint32","internalType":"uint32"}]}],"outputs":[{"name":"","type":"address[]","internalType":"contract IStrategy[]"}],"stateMutability":"view"},{"type":"function","name":"getAllocation","inputs":[{"name":"operator","type":"address","internalType":"address"},{"name":"operatorSet","type":"tuple","internalType":"struct OperatorSet","components":[{"name":"avs","type":"address","internalType":"address"},{"name":"id","type":"uint32","internalType":"uint32"}]},{"name":"strategy","type":"address","internalType":"contract IStrategy"}],"outputs":[{"name":"","type":"tuple","internalType":"struct IAllocationManagerTypes.Allocation","components":[{"name":"currentMagnitude","type":"uint64","internalType":"uint64"},{"name":"pendingDiff","type":"int128","internalType":"int128"},{"name":"effectBlock","type":"uint32","internalType":"uint32"}]}],"stateMutability":"view"},{"type":"function","name":"getAllocationDelay","inputs":[{"name":"operator","type":"address","internalType":"address"}],"outputs":[{"name":"","type":"bool","internalType":"bool"},{"name":"","type":"uint32","internalType":"uint32"}],"stateMutability":"view"},{"type":"function","name":"getAllocations","inputs":[{"name":"operators","type":"address[]","internalType":"address[]"},{"name":"operatorSet","type":"tuple","internalType":"struct OperatorSet","components":[{"name":"avs","type":"address","internalType":"address"},{"name":"id","type":"uint32","internalType":"uint32"}]},{"name":"strategy","type":"address","internalType":"contract IStrategy"}],"outputs":[{"name":"","type":"tuple[]","internalType":"struct IAllocationManagerTypes.Allocation[]","components":[{"name":"currentMagnitude","type":"uint64","internalType":"uint64"},{"name":"pendingDiff","type":"int128","internalType":"int128"},{"name":"effectBlock","type":"uint32","internalType":"uint32"}]}],"stateMutability":"view"},{"type":"function","name":"getEncumberedMagnitude","inputs":[{"name":"operator","type":"address","internalType":"address"},{"name":"strategy","type":"address","internalType":"contract IStrategy"}],"outputs":[{"name":"","type":"uint64","internalType":"uint64"}],"stateMutability":"view"},{"type":"function","name":"getMaxMagnitude","inputs":[{"name":"operator","type":"address","internalType":"address"},{"name":"strategy","type":"address","internalType":"contract IStrategy"}],"outputs":[{"name":"","type":"uint64","internalType":"uint64"}],"stateMutability":"view"},{"type":"function","name":"getMaxMagnitudes","inputs":[{"name":"operators","type":"address[]","internalType":"address[]"},{"name":"strategy","type":"address","internalType":"contract IStrategy"}],"outputs":[{"name":"","type":"uint64[]","internalType":"uint64[]"}],"stateMutability":"view"},{"type":"function","name":"getMaxMagnitudes","inputs":[{"name":"operator","type":"address","internalType":"address"},{"name":"strategies","type":"address[]","internalType":"contract IStrategy[]"}],"outputs":[{"name":"","type":"uint64[]","internalType":"uint64[]"}],"stateMutability":"view"},{"type":"function","name":"getMaxMagnitudesAtBlock","inputs":[{"name":"operator","type":"address","internalType":"address"},{"name":"strategies","type":"address[]","internalType":"contract IStrategy[]"},{"name":"blockNumber","type":"uint32","internalType":"uint32"}],"outputs":[{"name":"","type":"uint64[]","internalType":"uint64[]"}],"stateMutability":"view"},{"type":"function","name":"getMemberCount","inputs":[{"name":"operatorSet","type":"tuple","internalType":"struct OperatorSet","components":[{"name":"avs","type":"address","internalType":"address"},{"name":"id","type":"uint32","internalType":"uint32"}]}],"outputs":[{"name":"","type":"uint256","internalType":"uint256"}],"stateMutability":"view"},{"type":"function","name":"getMembers","inputs":[{"name":"operatorSet","type":"tuple","internalType":"struct OperatorSet","components":[{"name":"avs","type":"address","internalType":"address"},{"name":"id","type":"uint32","internalType":"uint32"}]}],"outputs":[{"name":"","type":"address[]","internalType":"address[]"}],"stateMutability":"view"},{"type":"function","name":"getMinimumSlashableStake","inputs":[{"name":"operatorSet","type":"tuple","internalType":"struct OperatorSet","components":[{"name":"avs","type":"address","internalType":"address"},{"name":"id","type":"uint32","internalType":"uint32"}]},{"name":"operators","type":"address[]","internalType":"address[]"},{"name":"strategies","type":"address[]","internalType":"contract IStrategy[]"},{"name":"futureBlock","type":"uint32","internalType":"uint32"}],"outputs":[{"name":"slashableStake","type":"uint256[][]","internalType":"uint256[][]"}],"stateMutability":"view"},{"type":"function","name":"getOperatorSetCount","inputs":[{"name":"avs","type":"address","internalType":"address"}],"outputs":[{"name":"","type":"uint256","internalType":"uint256"}],"stateMutability":"view"},{"type":"function","name":"getRegisteredSets","inputs":[{"name":"operator","type":"address","internalType":"address"}],"outputs":[{"name":"","type":"tuple[]","internalType":"struct OperatorSet[]","components":[{"name":"avs","type":"address","internalType":"address"},{"name":"id","type":"uint32","internalType":"uint32"}]}],"stateMutability":"view"},{"type":"function","name":"getStrategiesInOperatorSet","inputs":[{"name":"operatorSet","type":"tuple","internalType":"struct OperatorSet","components":[{"name":"avs","type":"address","internalType":"address"},{"name":"id","type":"uint32","internalType":"uint32"}]}],"outputs":[{"name":"","type":"address[]","internalType":"contract IStrategy[]"}],"stateMutability":"view"},{"type":"function","name":"getStrategyAllocations","inputs":[{"name":"operator","type":"address","internalType":"address"},{"name":"strategy","type":"address","internalType":"contract IStrategy"}],"outputs":[{"name":"","type":"tuple[]","internalType":"struct OperatorSet[]","components":[{"name":"avs","type":"address","internalType":"address"},{"name":"id","type":"uint32","internalType":"uint32"}]},{"name":"","type":"tuple[]","internalType":"struct IAllocationManagerTypes.Allocation[]","components":[{"name":"currentMagnitude","type":"uint64","internalType":"uint64"},{"name":"pendingDiff","type":"int128","internalType":"int128"},{"name":"effectBlock","type":"uint32","internalType":"uint32"}]}],"stateMutability":"view"},{"type":"function","name":"initialize","inputs":[{"name":"initialOwner","type":"address","internalType":"address"},{"name":"initialPausedStatus","type":"uint256","internalType":"uint256"}],"outputs":[],"stateMutability":"nonpayable"},{"type":"function","name":"isMemberOfOperatorSet","inputs":[{"name":"operator","type":"address","internalType":"address"},{"name":"operatorSet","type":"tuple","internalType":"struct OperatorSet","components":[{"name":"avs","type":"address","internalType":"address"},{"name":"id","type":"uint32","internalType":"uint32"}]}],"outputs":[{"name":"","type":"bool","internalType":"bool"}],"stateMutability":"view"},{"type":"function","name":"isOperatorSet","inputs":[{"name":"operatorSet","type":"tuple","internalType":"struct OperatorSet","components":[{"name":"avs","type":"address","internalType":"address"},{"name":"id","type":"uint32","internalType":"uint32"}]}],"outputs":[{"name":"","type":"bool","internalType":"bool"}],"stateMutability":"view"},{"type":"function","name":"isOperatorSlashable","inputs":[{"name":"operator","type":"address","internalType":"address"},{"name":"operatorSet","type":"tuple","internalType":"struct OperatorSet","components":[{"name":"avs","type":"address","internalType":"address"},{"name":"id","type":"uint32","internalType":"uint32"}]}],"outputs":[{"name":"","type":"bool","internalType":"bool"}],"stateMutability":"view"},{"type":"function","name":"modifyAllocations","inputs":[{"name":"operator","type":"address","internalType":"address"},{"name":"params","type":"tuple[]","internalType":"struct IAllocationManagerTypes.AllocateParams[]","components":[{"name":"operatorSet","type":"tuple","internalType":"struct OperatorSet","components":[{"name":"avs","type":"address","internalType":"address"},{"name":"id","type":"uint32","internalType":"uint32"}]},{"name":"strategies","type":"address[]","internalType":"contract IStrategy[]"},{"name":"newMagnitudes","type":"uint64[]","internalType":"uint64[]"}]}],"outputs":[],"stateMutability":"nonpayable"},{"type":"function","name":"owner","inputs":[],"outputs":[{"name":"","type":"address","internalType":"address"}],"stateMutability":"view"},{"type":"function","name":"pause","inputs":[{"name":"newPausedStatus","type":"uint256","internalType":"uint256"}],"outputs":[],"stateMutability":"nonpayable"},{"type":"function","name":"pauseAll","inputs":[],"outputs":[],"stateMutability":"nonpayable"},{"type":"function","name":"paused","inputs":[{"name":"index","type":"uint8","internalType":"uint8"}],"outputs":[{"name":"","type":"bool","internalType":"bool"}],"stateMutability":"view"},{"type":"function","name":"paused","inputs":[],"outputs":[{"name":"","type":"uint256","internalType":"uint256"}],"stateMutability":"view"},{"type":"function","name":"pauserRegistry","inputs":[],"outputs":[{"name":"","type":"address","internalType":"contract IPauserRegistry"}],"stateMutability":"view"},{"type":"function","name":"permissionController","inputs":[],"outputs":[{"name":"","type":"address","internalType":"contract IPermissionController"}],"stateMutability":"view"},{"type":"function","name":"registerForOperatorSets","inputs":[{"name":"operator","type":"address","internalType":"address"},{"name":"params","type":"tuple","internalType":"struct IAllocationManagerTypes.RegisterParams","components":[{"name":"avs","type":"address","internalType":"address"},{"name":"operatorSetIds","type":"uint32[]","internalType":"uint32[]"},{"name":"data","type":"bytes","internalType":"bytes"}]}],"outputs":[],"stateMutability":"nonpayable"},{"type":"function","name":"removeStrategiesFromOperatorSet","inputs":[{"name":"avs","type":"address","internalType":"address"},{"name":"operatorSetId","type":"uint32","internalType":"uint32"},{"name":"strategies","type":"address[]","internalType":"contract IStrategy[]"}],"outputs":[],"stateMutability":"nonpayable"},{"type":"function","name":"renounceOwnership","inputs":[],"outputs":[],"stateMutability":"nonpayable"},{"type":"function","name":"setAVSRegistrar","inputs":[{"name":"avs","type":"address","internalType":"address"},{"name":"registrar","type":"address","internalType":"contract IAVSRegistrar"}],"outputs":[],"stateMutability":"nonpayable"},{"type":"function","name":"setAllocationDelay","inputs":[{"name":"operator","type":"address","internalType":"address"},{"name":"delay","type":"uint32","internalType":"uint32"}],"outputs":[],"stateMutability":"nonpayable"},{"type":"function","name":"slashOperator","inputs":[{"name":"avs","type":"address","internalType":"address"},{"name":"params","type":"tuple","internalType":"struct IAllocationManagerTypes.SlashingParams","components":[{"name":"operator","type":"address","internalType":"address"},{"name":"operatorSetId","type":"uint32","internalType":"uint32"},{"name":"strategies","type":"address[]","internalType":"contract IStrategy[]"},{"name":"wadsToSlash","type":"uint256[]","internalType":"uint256[]"},{"name":"description","type":"string","internalType":"string"}]}],"outputs":[],"stateMutability":"nonpayable"},{"type":"function","name":"transferOwnership","inputs":[{"name":"newOwner","type":"address","internalType":"address"}],"outputs":[],"stateMutability":"nonpayable"},{"type":"function","name":"unpause","inputs":[{"name":"newPausedStatus","type":"uint256","internalType":"uint256"}],"outputs":[],"stateMutability":"nonpayable"},{"type":"function","name":"updateAVSMetadataURI","inputs":[{"name":"avs","type":"address","internalType":"address"},{"name":"metadataURI","type":"string","internalType":"string"}],"outputs":[],"stateMutability":"nonpayable"},{"type":"function","name":"version","inputs":[],"outputs":[{"name":"","type":"string","internalType":"string"}],"stateMutability":"view"},{"type":"event","name":"AVSMetadataURIUpdated","inputs":[{"name":"avs","type":"address","indexed":true,"internalType":"address"},{"name":"metadataURI","type":"string","indexed":false,"internalType":"string"}],"anonymous":false},{"type":"event","name":"AVSRegistrarSet","inputs":[{"name":"avs","type":"address","indexed":false,"internalType":"address"},{"name":"registrar","type":"address","indexed":false,"internalType":"contract IAVSRegistrar"}],"anonymous":false},{"type":"event","name":"AllocationDelaySet","inputs":[{"name":"operator","type":"address","indexed":false,"internalType":"address"},{"name":"delay","type":"uint32","indexed":false,"internalType":"uint32"},{"name":"effectBlock","type":"uint32","indexed":false,"internalType":"uint32"}],"anonymous":false},{"type":"event","name":"AllocationUpdated","inputs":[{"name":"operator","type":"address","indexed":false,"internalType":"address"},{"name":"operatorSet","type":"tuple","indexed":false,"internalType":"struct OperatorSet","components":[{"name":"avs","type":"address","internalType":"address"},{"name":"id","type":"uint32","internalType":"uint32"}]},{"name":"strategy","type":"address","indexed":false,"internalType":"contract IStrategy"},{"name":"magnitude","type":"uint64","indexed":false,"internalType":"uint64"},{"name":"effectBlock","type":"uint32","indexed":false,"internalType":"uint32"}],"anonymous":false},{"type":"event","name":"EncumberedMagnitudeUpdated","inputs":[{"name":"operator","type":"address","indexed":false,"internalType":"address"},{"name":"strategy","type":"address","indexed":false,"internalType":"contract IStrategy"},{"name":"encumberedMagnitude","type":"uint64","indexed":false,"internalType":"uint64"}],"anonymous":false},{"type":"event","name":"Initialized","inputs":[{"name":"version","type":"uint8","indexed":false,"internalType":"uint8"}],"anonymous":false},{"type":"event","name":"MaxMagnitudeUpdated","inputs":[{"name":"operator","type":"address","indexed":false,"internalType":"address"},{"name":"strategy","type":"address","indexed":false,"internalType":"contract IStrategy"},{"name":"maxMagnitude","type":"uint64","indexed":false,"internalType":"uint64"}],"anonymous":false},{"type":"event","name":"OperatorAddedToOperatorSet","inputs":[{"name":"operator","type":"address","indexed":true,"internalType":"address"},{"name":"operatorSet","type":"tuple","indexed":false,"internalType":"struct OperatorSet","components":[{"name":"avs","type":"address","internalType":"address"},{"name":"id","type":"uint32","internalType":"uint32"}]}],"anonymous":false},{"type":"event","name":"OperatorRemovedFromOperatorSet","inputs":[{"name":"operator","type":"address","indexed":true,"internalType":"address"},{"name":"operatorSet","type":"tuple","indexed":false,"internalType":"struct OperatorSet","components":[{"name":"avs","type":"address","internalType":"address"},{"name":"id","type":"uint32","internalType":"uint32"}]}],"anonymous":false},{"type":"event","name":"OperatorSetCreated","inputs":[{"name":"operatorSet","type":"tuple","indexed":false,"internalType":"struct OperatorSet","components":[{"name":"avs","type":"address","internalType":"address"},{"name":"id","type":"uint32","internalType":"uint32"}]}],"anonymous":false},{"type":"event","name":"OperatorSlashed","inputs":[{"name":"operator","type":"address","indexed":false,"internalType":"address"},{"name":"operatorSet","type":"tuple","indexed":false,"internalType":"struct OperatorSet","components":[{"name":"avs","type":"address","internalType":"address"},{"name":"id","type":"uint32","internalType":"uint32"}]},{"name":"strategies","type":"address[]","indexed":false,"internalType":"contract IStrategy[]"},{"name":"wadSlashed","type":"uint256[]","indexed":false,"internalType":"uint256[]"},{"name":"description","type":"string","indexed":false,"internalType":"string"}],"anonymous":false},{"type":"event","name":"OwnershipTransferred","inputs":[{"name":"previousOwner","type":"address","indexed":true,"internalType":"address"},{"name":"newOwner","type":"address","indexed":true,"internalType":"address"}],"anonymous":false},{"type":"event","name":"Paused","inputs":[{"name":"account","type":"address","indexed":true,"internalType":"address"},{"name":"newPausedStatus","type":"uint256","indexed":false,"internalType":"uint256"}],"anonymous":false},{"type":"event","name":"StrategyAddedToOperatorSet","inputs":[{"name":"operatorSet","type":"tuple","indexed":false,"internalType":"struct OperatorSet","components":[{"name":"avs","type":"address","internalType":"address"},{"name":"id","type":"uint32","internalType":"uint32"}]},{"name":"strategy","type":"address","indexed":false,"internalType":"contract IStrategy"}],"anonymous":false},{"type":"event","name":"StrategyRemovedFromOperatorSet","inputs":[{"name":"operatorSet","type":"tuple","indexed":false,"internalType":"struct OperatorSet","components":[{"name":"avs","type":"address","internalType":"address"},{"name":"id","type":"uint32","internalType":"uint32"}]},{"name":"strategy","type":"address","indexed":false,"internalType":"contract IStrategy"}],"anonymous":false},{"type":"event","name":"Unpaused","inputs":[{"name":"account","type":"address","indexed":true,"internalType":"address"},{"name":"newPausedStatus","type":"uint256","indexed":false,"internalType":"uint256"}],"anonymous":false},{"type":"error","name":"AlreadyMemberOfSet","inputs":[]},{"type":"error","name":"CurrentlyPaused","inputs":[]},{"type":"error","name":"Empty","inputs":[]},{"type":"error","name":"InputAddressZero","inputs":[]},{"type":"error","name":"InputArrayLengthMismatch","inputs":[]},{"type":"error","name":"InsufficientMagnitude","inputs":[]},{"type":"error","name":"InvalidAVSRegistrar","inputs":[]},{"type":"error","name":"InvalidCaller","inputs":[]},{"type":"error","name":"InvalidNewPausedStatus","inputs":[]},{"type":"error","name":"InvalidOperator","inputs":[]},{"type":"error","name":"InvalidOperatorSet","inputs":[]},{"type":"error","name":"InvalidPermissions","inputs":[]},{"type":"error","name":"InvalidShortString","inputs":[]},{"type":"error","name":"InvalidSnapshotOrdering","inputs":[]},{"type":"error","name":"InvalidWadToSlash","inputs":[]},{"type":"error","name":"ModificationAlreadyPending","inputs":[]},{"type":"error","name":"NonexistentAVSMetadata","inputs":[]},{"type":"error","name":"NotMemberOfSet","inputs":[]},{"type":"error","name":"OnlyPauser","inputs":[]},{"type":"error","name":"OnlyUnpauser","inputs":[]},{"type":"error","name":"OperatorNotSlashable","inputs":[]},{"type":"error","name":"OutOfBounds","inputs":[]},{"type":"error","name":"SameMagnitude","inputs":[]},{"type":"error","name":"StrategiesMustBeInAscendingOrder","inputs":[]},{"type":"error","name":"StrategyAlreadyInOperatorSet","inputs":[]},{"type":"error","name":"StrategyNotInOperatorSet","inputs":[]},{"type":"error","name":"StringTooLong","inputs":[{"name":"str","type":"string","internalType":"string"}]},{"type":"error","name":"UninitializedAllocationDelay","inputs":[]}],"bytecode":{"object":"0x610140604052348015610010575f5ffd5b50604051615fd2380380615fd283398101604081905261002f91610206565b84848484846040518060400160405280600681526020016576392e392e3960d01b8152508084878585895f6001600160a01b0316816001600160a01b03160361008b576040516339b190bb60e11b815260040160405180910390fd5b6001600160a01b0390811660805292831660a05263ffffffff91821660c0521660e05216610100526100bc816100d9565b61012052506100c961011f565b50505050505050505050506102ca565b5f5f829050601f8151111561010c578260405163305a27a960e01b8152600401610103919061026f565b60405180910390fd5b8051610117826102a4565b179392505050565b5f54610100900460ff16156101865760405162461bcd60e51b815260206004820152602760248201527f496e697469616c697a61626c653a20636f6e747261637420697320696e697469604482015266616c697a696e6760c81b6064820152608401610103565b5f5460ff908116146101d5575f805460ff191660ff9081179091556040519081527f7f26b83ff96e1f2b6a682f133852f6798a09c465da95921460cefb38474024989060200160405180910390a15b565b6001600160a01b03811681146101eb575f5ffd5b50565b805163ffffffff81168114610201575f5ffd5b919050565b5f5f5f5f5f60a0868803121561021a575f5ffd5b8551610225816101d7565b6020870151909550610236816101d7565b6040870151909450610247816101d7565b9250610255606087016101ee565b9150610263608087016101ee565b90509295509295909350565b602081525f82518060208401528060208501604085015e5f604082850101526040601f19601f83011684010191505092915050565b805160208083015191908110156102c4575f198160200360031b1b821691505b50919050565b60805160a05160c05160e0516101005161012051615c6d6103655f395f611b6401525f818161046901526135c901525f81816105cd0152613e5901525f818161037b01528181611ffb015261272d01525f818161075f0152818161150201528181611b9801528181611c0201528181612a2b01526136a801525f81816105f40152818161088501528181611ca701526132400152615c6d5ff3fe608060405234801561000f575f5ffd5b50600436106102cb575f3560e01c80636e3492b51161017b578063a9821821116100e4578063c221d8ae1161009e578063df5cf72311610079578063df5cf7231461075a578063f2fde38b14610781578063f605ce0814610794578063fabc1cbc146107a7575f5ffd5b8063c221d8ae14610721578063cd6dc68714610734578063d3d96ff414610747575f5ffd5b8063a982182114610693578063adc2e3d9146106a6578063b2447af7146106b9578063b66bd989146106cc578063b9fbaed1146106df578063ba1a84e51461070e575f5ffd5b80638ce64854116101355780638ce64854146106165780638da5cb5b1461063657806393bfefbf1461064757806394d7d00c1461065a578063952899ee1461066d578063a9333ec814610680575f5ffd5b80636e3492b5146105875780636e875dba1461059a578063715018a6146105ad57806379ae50cd146105b55780637bc1ef61146105c8578063886f1195146105ef575f5ffd5b80634177a87c1161023757806354fd4d50116101f15780635ac86ab7116101cc5780635ac86ab7146105145780635c975abb14610537578063670d3ba2146105495780636cfb44811461055c575f5ffd5b806354fd4d50146104e457806356c483e6146104f9578063595c6a671461050c575f5ffd5b80634177a87c146104445780634657e26a146104645780634a10ffe51461048b5780634b5046ef146104ab57806350feea20146104be578063547afb87146104d1575f5ffd5b80632981eb77116102885780632981eb77146103765780632b453a9a146103b25780632bab2c4a146103d2578063304c10cd146103e5578063363520571461041057806340120dab14610423575f5ffd5b806310e1b9b8146102cf5780631352c3e6146102f8578063136439dd1461031b57806315fe502814610330578063260dc75814610350578063261f84e014610363575b5f5ffd5b6102e26102dd366004614aad565b6107ba565b6040516102ef9190614af4565b60405180910390f35b61030b610306366004614b27565b6107f5565b60405190151581526020016102ef565b61032e610329366004614b5b565b610870565b005b61034361033e366004614b72565b610945565b6040516102ef9190614bf0565b61030b61035e366004614c02565b610a5c565b61032e610371366004614c5c565b610a8d565b61039d7f000000000000000000000000000000000000000000000000000000000000000081565b60405163ffffffff90911681526020016102ef565b6103c56103c0366004614d41565b610d68565b6040516102ef9190614de4565b6103c56103e0366004614e47565b610d7e565b6103f86103f3366004614b72565b610e1d565b6040516001600160a01b0390911681526020016102ef565b61032e61041e366004614ecb565b610e4c565b610436610431366004614f1d565b611656565b6040516102ef929190614faa565b610457610452366004614c02565b6117d1565b6040516102ef9190615007565b6103f87f000000000000000000000000000000000000000000000000000000000000000081565b61049e610499366004615019565b6117f5565b6040516102ef919061505c565b61032e6104b93660046150a7565b61189d565b61032e6104cc366004615127565b611957565b61049e6104df366004615185565b611ab5565b6104ec611b5d565b6040516102ef91906151c7565b61032e6105073660046151fc565b611b8d565b61032e611c92565b61030b610522366004615226565b606654600160ff9092169190911b9081161490565b6066545b6040519081526020016102ef565b61030b610557366004614b27565b611d41565b61056f61056a366004614f1d565b611d52565b6040516001600160401b0390911681526020016102ef565b61032e61059536600461525c565b611d67565b6104576105a8366004614c02565b612148565b61032e612159565b6103436105c3366004614b72565b61216a565b61039d7f000000000000000000000000000000000000000000000000000000000000000081565b6103f87f000000000000000000000000000000000000000000000000000000000000000081565b61062961062436600461528d565b612244565b6040516102ef91906152d0565b6033546001600160a01b03166103f8565b61053b6106553660046152e2565b612300565b61049e610668366004615320565b612330565b61032e61067b36600461537b565b61241c565b61056f61068e366004614f1d565b6128db565b61032e6106a1366004615524565b61290a565b61032e6106b43660046155a2565b6129bc565b61053b6106c7366004614c02565b612d19565b61032e6106da366004615127565b612d3b565b6106f26106ed366004614b72565b612e95565b60408051921515835263ffffffff9091166020830152016102ef565b61053b61071c366004614b72565b612f2f565b61045761072f366004614b27565b612f4f565b61032e6107423660046155e4565b612f78565b61032e610755366004614f1d565b613095565b6103f87f000000000000000000000000000000000000000000000000000000000000000081565b61032e61078f366004614b72565b6131b9565b61056f6107a2366004614f1d565b613232565b61032e6107b5366004614b5b565b61323e565b604080516060810182525f80825260208201819052918101829052906107e9856107e386613354565b856133b7565b925050505b9392505050565b6001600160a01b0382165f908152609e6020526040812081908161081885613354565b815260208082019290925260409081015f2081518083019092525460ff8116151580835261010090910463ffffffff16928201929092529150806108665750806020015163ffffffff164311155b9150505b92915050565b60405163237dfb4760e11b81523360048201527f00000000000000000000000000000000000000000000000000000000000000006001600160a01b0316906346fbf68e90602401602060405180830381865afa1580156108d2573d5f5f3e3d5ffd5b505050506040513d601f19601f820116820180604052508101906108f6919061560e565b61091357604051631d77d47760e21b815260040160405180910390fd5b60665481811681146109385760405163c61dca5d60e01b815260040160405180910390fd5b61094182613523565b5050565b6001600160a01b0381165f908152609d602052604081206060919061096990613560565b90505f816001600160401b03811115610984576109846149d1565b6040519080825280602002602001820160405280156109c857816020015b604080518082019091525f80825260208201528152602001906001900390816109a25790505b5090505f5b82811015610a54576001600160a01b0385165f908152609d60205260409020610a2f906109fa9083613569565b604080518082019091525f80825260208201525060408051808201909152606082901c815263ffffffff909116602082015290565b828281518110610a4157610a4161562d565b60209081029190910101526001016109cd565b509392505050565b60208082015182516001600160a01b03165f90815260989092526040822061086a9163ffffffff9081169061357416565b82610a978161358b565b610ab45760405163932d94f760e01b815260040160405180910390fd5b6001600160a01b0384165f90815260a4602052604090205460ff16610aec576040516348f7dbb960e01b815260040160405180910390fd5b5f5b82811015610d61575f6040518060400160405280876001600160a01b03168152602001868685818110610b2357610b2361562d565b9050602002810190610b359190615641565b610b4390602081019061565f565b63ffffffff168152509050610b8d816020015163ffffffff1660985f896001600160a01b03166001600160a01b031681526020019081526020015f2061363590919063ffffffff16565b610baa57604051631fb1705560e21b815260040160405180910390fd5b7f31629285ead2335ae0933f86ed2ae63321f7af77b4e6eaabc42c057880977e6c6040518060400160405280886001600160a01b03168152602001836020015163ffffffff16815250604051610c009190615678565b60405180910390a15f610c1282613354565b90505f5b868685818110610c2857610c2861562d565b9050602002810190610c3a9190615641565b610c48906020810190615686565b9050811015610d5657610cbe878786818110610c6657610c6661562d565b9050602002810190610c789190615641565b610c86906020810190615686565b83818110610c9657610c9661562d565b9050602002016020810190610cab9190614b72565b5f84815260996020526040902090613640565b507f7ab260fe0af193db5f4986770d831bda4ea46099dc817e8b6716dcae8af8e88b83888887818110610cf357610cf361562d565b9050602002810190610d059190615641565b610d13906020810190615686565b84818110610d2357610d2361562d565b9050602002016020810190610d389190614b72565b604051610d469291906156cb565b60405180910390a1600101610c16565b505050600101610aee565b5050505050565b6060610d7684848443613654565b949350505050565b6060610d8c85858585613654565b90505f5b8451811015610e1457610dbc858281518110610dae57610dae61562d565b6020026020010151876107f5565b610e0c575f5b8451811015610e0a575f838381518110610dde57610dde61562d565b60200260200101518281518110610df757610df761562d565b6020908102919091010152600101610dc2565b505b600101610d90565b50949350505050565b6001600160a01b038082165f908152609760205260408120549091168015610e4557806107ee565b5090919050565b606654600190600290811603610e755760405163840a48d560e01b815260040160405180910390fd5b82610e7f8161358b565b610e9c5760405163932d94f760e01b815260040160405180910390fd5b5f6040518060400160405280866001600160a01b03168152602001856020016020810190610eca919061565f565b63ffffffff1690529050610ee16060850185615686565b9050610ef06040860186615686565b905014610f10576040516343714afd60e01b815260040160405180910390fd5b60208082015182516001600160a01b03165f90815260989092526040909120610f429163ffffffff9081169061357416565b610f5f57604051631fb1705560e21b815260040160405180910390fd5b610f75610f6f6020860186614b72565b826107f5565b610f925760405163ebbff49760e01b815260040160405180910390fd5b5f610fa06040860186615686565b90506001600160401b03811115610fb957610fb96149d1565b604051908082528060200260200182016040528015610fe2578160200160208202803683370190505b5090505f5b610ff46040870187615686565b90508110156115e85780158061108757506110126040870187615686565b61101d600184615705565b81811061102c5761102c61562d565b90506020020160208101906110419190614b72565b6001600160a01b03166110576040880188615686565b838181106110675761106761562d565b905060200201602081019061107c9190614b72565b6001600160a01b0316115b6110a457604051639f1c805360e01b815260040160405180910390fd5b6110b16060870187615686565b828181106110c1576110c161562d565b905060200201355f1080156111015750670de0b6b3a76400006110e76060880188615686565b838181106110f7576110f761562d565b9050602002013511155b61111e57604051631353603160e01b815260040160405180910390fd5b61117a61112e6040880188615686565b8381811061113e5761113e61562d565b90506020020160208101906111539190614b72565b60995f61115f87613354565b81526020019081526020015f2061394190919063ffffffff16565b611197576040516331bc342760e11b815260040160405180910390fd5b5f806111e96111a960208a018a614b72565b6111b287613354565b6111bf60408c018c615686565b878181106111cf576111cf61562d565b90506020020160208101906111e49190614b72565b6133b7565b805191935091506001600160401b03165f036112065750506115e0565b5f61124161121760608b018b615686565b868181106112275761122761562d565b85516001600160401b031692602090910201359050613962565b835190915061125c6001600160401b03808416908316613978565b86868151811061126e5761126e61562d565b60200260200101818152505081835f0181815161128b9190615718565b6001600160401b03169052508351829085906112a8908390615718565b6001600160401b03169052506020840180518391906112c8908390615718565b6001600160401b031690525060208301515f600f9190910b12156113e0575f61132b6112f760608d018d615686565b888181106113075761130761562d565b90506020020135856020015161131c90615737565b6001600160801b031690613962565b9050806001600160401b031684602001818151611348919061575b565b600f0b9052507f1487af5418c47ee5ea45ef4a93398668120890774a9e13487e61e9dc3baf76dd61137c60208d018d614b72565b8961138a60408f018f615686565b8a81811061139a5761139a61562d565b90506020020160208101906113af9190614b72565b6113c0885f0151896020015161398c565b88604001516040516113d6959493929190615788565b60405180910390a1505b6114326113f060208c018c614b72565b6113f989613354565b61140660408e018e615686565b898181106114165761141661562d565b905060200201602081019061142b9190614b72565b87876139ab565b7f1487af5418c47ee5ea45ef4a93398668120890774a9e13487e61e9dc3baf76dd61146060208c018c614b72565b8861146e60408e018e615686565b8981811061147e5761147e61562d565b90506020020160208101906114939190614b72565b86516040516114a794939291904390615788565b60405180910390a16114f86114bf60208c018c614b72565b6114cc60408d018d615686565b888181106114dc576114dc61562d565b90506020020160208101906114f19190614b72565b8651613be3565b6001600160a01b037f00000000000000000000000000000000000000000000000000000000000000001663601bb36f61153460208d018d614b72565b61154160408e018e615686565b898181106115515761155161562d565b90506020020160208101906115669190614b72565b875160405160e085901b6001600160e01b03191681526001600160a01b0393841660048201529290911660248301526001600160401b0380861660448401521660648201526084015f604051808303815f87803b1580156115c5575f5ffd5b505af11580156115d7573d5f5f3e3d5ffd5b50505050505050505b600101610fe7565b507f80969ad29428d6797ee7aad084f9e4a42a82fc506dcd2ca3b6fb431f85ccebe56116176020870187614b72565b836116256040890189615686565b8561163360808c018c6157d9565b6040516116469796959493929190615843565b60405180910390a1505050505050565b6001600160a01b0382165f908152609d60205260408120606091829161167b90613560565b90505f816001600160401b03811115611696576116966149d1565b6040519080825280602002602001820160405280156116da57816020015b604080518082019091525f80825260208201528152602001906001900390816116b45790505b5090505f826001600160401b038111156116f6576116f66149d1565b60405190808252806020026020018201604052801561173f57816020015b604080516060810182525f80825260208083018290529282015282525f199092019101816117145790505b5090505f5b838110156117c2576001600160a01b0388165f908152609d60205260408120611771906109fa9084613569565b9050808483815181106117865761178661562d565b602002602001018190525061179c89828a6107ba565b8383815181106117ae576117ae61562d565b602090810291909101015250600101611744565b509093509150505b9250929050565b60605f6107ee60995f6117e386613354565b81526020019081526020015f20613c65565b60605f83516001600160401b03811115611811576118116149d1565b60405190808252806020026020018201604052801561183a578160200160208202803683370190505b5090505f5b8451811015610a545761186b85828151811061185d5761185d61562d565b6020026020010151856128db565b82828151811061187d5761187d61562d565b6001600160401b039092166020928302919091019091015260010161183f565b6066545f906001908116036118c55760405163840a48d560e01b815260040160405180910390fd5b8382146118e5576040516343714afd60e01b815260040160405180910390fd5b5f5b8481101561194e57611946878787848181106119055761190561562d565b905060200201602081019061191a9190614b72565b86868581811061192c5761192c61562d565b905060200201602081019061194191906158d9565b613c71565b6001016118e7565b50505050505050565b836119618161358b565b61197e5760405163932d94f760e01b815260040160405180910390fd5b604080518082019091526001600160a01b038616815263ffffffff851660208201525f6119aa82613354565b90506119eb826020015163ffffffff1660985f8a6001600160a01b03166001600160a01b031681526020019081526020015f2061357490919063ffffffff16565b611a0857604051631fb1705560e21b815260040160405180910390fd5b5f5b84811015611aab57611a27868683818110610c9657610c9661562d565b611a445760405163585cfb2f60e01b815260040160405180910390fd5b7f7ab260fe0af193db5f4986770d831bda4ea46099dc817e8b6716dcae8af8e88b83878784818110611a7857611a7861562d565b9050602002016020810190611a8d9190614b72565b604051611a9b9291906156cb565b60405180910390a1600101611a0a565b5050505050505050565b60605f82516001600160401b03811115611ad157611ad16149d1565b604051908082528060200260200182016040528015611afa578160200160208202803683370190505b5090505f5b8351811015610a5457611b2b85858381518110611b1e57611b1e61562d565b60200260200101516128db565b828281518110611b3d57611b3d61562d565b6001600160401b0390921660209283029190910190910152600101611aff565b6060611b887f0000000000000000000000000000000000000000000000000000000000000000613d75565b905090565b336001600160a01b037f00000000000000000000000000000000000000000000000000000000000000001614611c8857611bc68261358b565b611be3576040516348f5c3ed60e01b815260040160405180910390fd5b6040516336b87bd760e11b81526001600160a01b0383811660048301527f00000000000000000000000000000000000000000000000000000000000000001690636d70f7ae90602401602060405180830381865afa158015611c47573d5f5f3e3d5ffd5b505050506040513d601f19601f82011682018060405250810190611c6b919061560e565b611c885760405163ccea9e6f60e01b815260040160405180910390fd5b6109418282613db2565b60405163237dfb4760e11b81523360048201527f00000000000000000000000000000000000000000000000000000000000000006001600160a01b0316906346fbf68e90602401602060405180830381865afa158015611cf4573d5f5f3e3d5ffd5b505050506040513d601f19601f82011682018060405250810190611d18919061560e565b611d3557604051631d77d47760e21b815260040160405180910390fd5b611d3f5f19613523565b565b5f6107ee83609a5f61115f86613354565b5f5f611d5e8484613f5e565b95945050505050565b606654600290600490811603611d905760405163840a48d560e01b815260040160405180910390fd5b611da5611da06020840184614b72565b61358b565b80611dbe5750611dbe611da06040840160208501614b72565b611ddb576040516348f5c3ed60e01b815260040160405180910390fd5b5f5b611dea6040840184615686565b90508110156120ac575f6040518060400160405280856020016020810190611e129190614b72565b6001600160a01b03168152602001611e2d6040870187615686565b85818110611e3d57611e3d61562d565b9050602002016020810190611e52919061565f565b63ffffffff168152509050611e9f816020015163ffffffff1660985f876020016020810190611e819190614b72565b6001600160a01b0316815260208101919091526040015f2090613574565b611ebc57604051631fb1705560e21b815260040160405180910390fd5b609e5f611ecc6020870187614b72565b6001600160a01b03166001600160a01b031681526020019081526020015f205f611ef583613354565b815260208101919091526040015f205460ff16611f25576040516325131d4f60e01b815260040160405180910390fd5b611f5f611f3182613354565b609c5f611f416020890189614b72565b6001600160a01b0316815260208101919091526040015f20906140cd565b50611f97611f706020860186614b72565b609a5f611f7c85613354565b81526020019081526020015f206140d890919063ffffffff16565b50611fa56020850185614b72565b6001600160a01b03167fad34c3070be1dffbcaa499d000ba2b8d9848aefcac3059df245dd95c4ece14fe82604051611fdd9190615678565b60405180910390a2604080518082019091525f8152602081016120207f0000000000000000000000000000000000000000000000000000000000000000436158fa565b63ffffffff169052609e5f6120386020880188614b72565b6001600160a01b03166001600160a01b031681526020019081526020015f205f61206184613354565b81526020808201929092526040015f2082518154939092015163ffffffff166101000264ffffffff00199215159290921664ffffffffff199093169290921717905550600101611ddd565b506120c06103f36040840160208501614b72565b6001600160a01b031663303ca9566120db6020850185614b72565b6120eb6040860160208701614b72565b6120f86040870187615686565b6040518563ffffffff1660e01b8152600401612117949392919061594f565b5f604051808303815f87803b15801561212e575f5ffd5b505af1158015612140573d5f5f3e3d5ffd5b505050505050565b606061086a609a5f6117e385613354565b6121616140ec565b611d3f5f614146565b6001600160a01b0381165f908152609c602052604081206060919061218e90613560565b90505f816001600160401b038111156121a9576121a96149d1565b6040519080825280602002602001820160405280156121ed57816020015b604080518082019091525f80825260208201528152602001906001900390816121c75790505b5090505f5b82811015610a54576001600160a01b0385165f908152609c6020526040902061221f906109fa9083613569565b8282815181106122315761223161562d565b60209081029190910101526001016121f2565b60605f84516001600160401b03811115612260576122606149d1565b6040519080825280602002602001820160405280156122a957816020015b604080516060810182525f80825260208083018290529282015282525f1990920191018161227e5790505b5090505f5b8551811015610e14576122db8682815181106122cc576122cc61562d565b602002602001015186866107ba565b8282815181106122ed576122ed61562d565b60209081029190910101526001016122ae565b6001600160a01b038084165f90815260a3602090815260408083209386168352929052908120610d769083614197565b60605f83516001600160401b0381111561234c5761234c6149d1565b604051908082528060200260200182016040528015612375578160200160208202803683370190505b5090505f5b8451811015610e14576001600160a01b0386165f90815260a16020526040812086516123ea928792918990869081106123b5576123b561562d565b60200260200101516001600160a01b03166001600160a01b031681526020019081526020015f2061420690919063ffffffff16565b8282815181106123fc576123fc61562d565b6001600160401b039092166020928302919091019091015260010161237a565b6066545f906001908116036124445760405163840a48d560e01b815260040160405180910390fd5b61244d8361358b565b61246a576040516348f5c3ed60e01b815260040160405180910390fd5b5f5f5f61247686612e95565b91509150816124985760405163fa55fc8160e01b815260040160405180910390fd5b91505f90505b8351811015610d61578381815181106124b9576124b961562d565b602002602001015160400151518482815181106124d8576124d861562d565b6020026020010151602001515114612503576040516343714afd60e01b815260040160405180910390fd5b5f8482815181106125165761251661562d565b602090810291909101810151518082015181516001600160a01b03165f908152609890935260409092209092506125569163ffffffff9081169061357416565b61257357604051631fb1705560e21b815260040160405180910390fd5b5f61257e87836107f5565b90505f5b8684815181106125945761259461562d565b602002602001015160200151518110156128d0575f8785815181106125bb576125bb61562d565b60200260200101516020015182815181106125d8576125d861562d565b602002602001015190506125ef898261ffff613c71565b5f5f6125fe8b6107e388613354565b91509150806040015163ffffffff165f1461262c57604051630d8fcbe360e41b815260040160405180910390fd5b5f6126398785848961421a565b905061267e825f01518c8a815181106126545761265461562d565b60200260200101516040015187815181106126715761267161562d565b6020026020010151614250565b600f0b602083018190525f036126a757604051634606179360e11b815260040160405180910390fd5b5f8260200151600f0b12156127eb57801561276d576127286126c888613354565b6001600160a01b03808f165f90815260a360209081526040808320938a16835292905220908154600160801b90819004600f0b5f818152600180860160205260409091209390935583546001600160801b03908116939091011602179055565b6127527f0000000000000000000000000000000000000000000000000000000000000000436158fa565b61275d9060016158fa565b63ffffffff166040830152612858565b61277f8360200151836020015161398c565b6001600160401b031660208401528a518b90899081106127a1576127a161562d565b60200260200101516040015185815181106127be576127be61562d565b6020908102919091018101516001600160401b031683525f9083015263ffffffff43166040830152612858565b5f8260200151600f0b13156128585761280c8360200151836020015161398c565b6001600160401b03908116602085018190528451909116101561284257604051636c9be0bf60e01b815260040160405180910390fd5b61284c89436158fa565b63ffffffff1660408301525b61286d8c61286589613354565b8686866139ab565b7f1487af5418c47ee5ea45ef4a93398668120890774a9e13487e61e9dc3baf76dd8c88866128a2865f0151876020015161398c565b86604001516040516128b8959493929190615788565b60405180910390a15050600190920191506125829050565b50505060010161249e565b6001600160a01b038083165f90815260a16020908152604080832093851683529290529081206107ee90614267565b826129148161358b565b6129315760405163932d94f760e01b815260040160405180910390fd5b6001600160a01b0384165f90815260a4602052604090205460ff16612973576001600160a01b0384165f90815260a460205260409020805460ff191660011790555b836001600160a01b03167fa89c1dc243d8908a96dd84944bcc97d6bc6ac00dd78e20621576be6a3c94371384846040516129ae92919061597b565b60405180910390a250505050565b6066546002906004908116036129e55760405163840a48d560e01b815260040160405180910390fd5b826129ef8161358b565b612a0c5760405163932d94f760e01b815260040160405180910390fd5b6040516336b87bd760e11b81526001600160a01b0385811660048301527f00000000000000000000000000000000000000000000000000000000000000001690636d70f7ae90602401602060405180830381865afa158015612a70573d5f5f3e3d5ffd5b505050506040513d601f19601f82011682018060405250810190612a94919061560e565b612ab15760405163ccea9e6f60e01b815260040160405180910390fd5b5f5b612ac06020850185615686565b9050811015612c8857604080518082019091525f9080612ae36020880188614b72565b6001600160a01b03168152602001868060200190612b019190615686565b85818110612b1157612b1161562d565b9050602002016020810190612b26919061565f565b63ffffffff90811690915260208083015183516001600160a01b03165f90815260989092526040909120929350612b6292919081169061357416565b612b7f57604051631fb1705560e21b815260040160405180910390fd5b612b8986826107f5565b15612ba757604051636c6c6e2760e11b815260040160405180910390fd5b612bd0612bb382613354565b6001600160a01b0388165f908152609c6020526040902090613635565b50612bfc86609a5f612be185613354565b81526020019081526020015f2061364090919063ffffffff16565b50856001600160a01b03167f43232edf9071753d2321e5fa7e018363ee248e5f2142e6c08edd3265bfb4895e82604051612c369190615678565b60405180910390a26001600160a01b0386165f908152609e60205260408120600191612c6184613354565b815260208101919091526040015f20805460ff191691151591909117905550600101612ab3565b50612c996103f36020850185614b72565b6001600160a01b031663c63fd50285612cb56020870187614b72565b612cc26020880188615686565b612ccf60408a018a6157d9565b6040518763ffffffff1660e01b8152600401612cf09695949392919061598e565b5f604051808303815f87803b158015612d07575f5ffd5b505af1158015611aab573d5f5f3e3d5ffd5b5f61086a609a5f612d2985613354565b81526020019081526020015f20613560565b83612d458161358b565b612d625760405163932d94f760e01b815260040160405180910390fd5b6040805180820182526001600160a01b03871680825263ffffffff80881660208085018290525f93845260989052939091209192612da1929161357416565b612dbe57604051631fb1705560e21b815260040160405180910390fd5b5f612dc882613354565b90505f5b84811015611aab57612e11868683818110612de957612de961562d565b9050602002016020810190612dfe9190614b72565b5f848152609960205260409020906140d8565b612e2e576040516331bc342760e11b815260040160405180910390fd5b7f7b4b073d80dcac55a11177d8459ad9f664ceeb91f71f27167bb14f8152a7eeee83878784818110612e6257612e6261562d565b9050602002016020810190612e779190614b72565b604051612e859291906156cb565b60405180910390a1600101612dcc565b6001600160a01b0381165f908152609b602090815260408083208151608081018352905463ffffffff80821680845260ff600160201b8404161515958401869052650100000000008304821694840194909452600160481b909104166060820181905284939192919015801590612f165750826060015163ffffffff164310155b15612f25575050604081015160015b9590945092505050565b6001600160a01b0381165f90815260986020526040812061086a90613560565b6001600160a01b0382165f908152609f602052604081206060919061086690826117e386613354565b5f54610100900460ff1615808015612f9657505f54600160ff909116105b80612faf5750303b158015612faf57505f5460ff166001145b6130175760405162461bcd60e51b815260206004820152602e60248201527f496e697469616c697a61626c653a20636f6e747261637420697320616c72656160448201526d191e481a5b9a5d1a585b1a5e995960921b60648201526084015b60405180910390fd5b5f805460ff191660011790558015613038575f805461ff0019166101001790555b61304182613523565b61304a83614146565b8015613090575f805461ff0019169055604051600181527f7f26b83ff96e1f2b6a682f133852f6798a09c465da95921460cefb3847402498906020015b60405180910390a15b505050565b8161309f8161358b565b6130bc5760405163932d94f760e01b815260040160405180910390fd5b60405163b526578760e01b81526001600160a01b03848116600483015283169063b526578790602401602060405180830381865afa158015613100573d5f5f3e3d5ffd5b505050506040513d601f19601f82011682018060405250810190613124919061560e565b61314157604051631d0b13c160e31b815260040160405180910390fd5b6001600160a01b038381165f90815260976020526040902080546001600160a01b0319169184169190911790557f2ae945c40c44dc0ec263f95609c3fdc6952e0aefa22d6374e44f2c997acedf858361319981610e1d565b604080516001600160a01b03938416815292909116602083015201613087565b6131c16140ec565b6001600160a01b0381166132265760405162461bcd60e51b815260206004820152602660248201527f4f776e61626c653a206e6577206f776e657220697320746865207a65726f206160448201526564647265737360d01b606482015260840161300e565b61322f81614146565b50565b5f5f610e148484613f5e565b7f00000000000000000000000000000000000000000000000000000000000000006001600160a01b031663eab66d7a6040518163ffffffff1660e01b8152600401602060405180830381865afa15801561329a573d5f5f3e3d5ffd5b505050506040513d601f19601f820116820180604052508101906132be91906159da565b6001600160a01b0316336001600160a01b0316146132ef5760405163794821ff60e01b815260040160405180910390fd5b606654801982198116146133165760405163c61dca5d60e01b815260040160405180910390fd5b606682905560405182815233907f3582d1828e26bf56bd801502bc021ac0bc8afb57c826e4986b45593c8fad389c9060200160405180910390a25050565b5f815f0151826020015163ffffffff1660405160200161339f92919060609290921b6bffffffffffffffffffffffff1916825260a01b6001600160a01b031916601482015260200190565b60405160208183030381529060405261086a906159f5565b6040805180820182525f80825260208083018290528351606081018552828152808201839052808501839052845180860186526001600160a01b03898116855260a184528685209088168552909252938220929392819061341790614267565b6001600160401b0390811682526001600160a01b038981165f81815260a260209081526040808320948c168084529482528083205486169682019690965291815260a082528481208b8252825284812092815291815290839020835160608101855290549283168152600160401b8304600f0b91810191909152600160c01b90910463ffffffff169181018290529192504310156134b957909250905061351b565b6134ca815f0151826020015161398c565b6001600160401b0316815260208101515f600f9190910b1215613508576134f98260200151826020015161398c565b6001600160401b031660208301525b5f60408201819052602082015290925090505b935093915050565b606681905560405181815233907fab40a374bc51de372200a8bc981af8c9ecdc08dfdaef0bb6e09f88f3c616ef3d9060200160405180910390a250565b5f61086a825490565b5f6107ee838361427a565b5f81815260018301602052604081205415156107ee565b604051631beb2b9760e31b81526001600160a01b0382811660048301523360248301523060448301525f80356001600160e01b0319166064840152917f00000000000000000000000000000000000000000000000000000000000000009091169063df595cb8906084016020604051808303815f875af1158015613611573d5f5f3e3d5ffd5b505050506040513d601f19601f8201168201806040525081019061086a919061560e565b5f6107ee83836142a0565b5f6107ee836001600160a01b0384166142a0565b606083516001600160401b0381111561366f5761366f6149d1565b6040519080825280602002602001820160405280156136a257816020015b606081526020019060019003908161368d5790505b5090505f7f00000000000000000000000000000000000000000000000000000000000000006001600160a01b031663f0e0e67686866040518363ffffffff1660e01b81526004016136f4929190615a18565b5f60405180830381865afa15801561370e573d5f5f3e3d5ffd5b505050506040513d5f823e601f3d908101601f191682016040526137359190810190615a3c565b90505f5b8551811015613937575f8682815181106137555761375561562d565b6020026020010151905085516001600160401b03811115613778576137786149d1565b6040519080825280602002602001820160405280156137a1578160200160208202803683370190505b508483815181106137b4576137b461562d565b60209081029190910101525f5b865181101561392d575f8782815181106137dd576137dd61562d565b6020908102919091018101516001600160a01b038086165f90815260a184526040808220928416825291909352822090925061381890614267565b9050806001600160401b03165f03613831575050613925565b5f61383d858d856107ba565b90508863ffffffff16816040015163ffffffff161115801561386557505f8160200151600f0b125b156138875761387b815f0151826020015161398c565b6001600160401b031681525b80515f906138a2906001600160401b03908116908516613978565b90506138e9818989815181106138ba576138ba61562d565b602002602001015187815181106138d3576138d361562d565b60200260200101516142ec90919063ffffffff16565b8988815181106138fb576138fb61562d565b602002602001015186815181106139145761391461562d565b602002602001018181525050505050505b6001016137c1565b5050600101613739565b5050949350505050565b6001600160a01b0381165f90815260018301602052604081205415156107ee565b5f6107ee8383670de0b6b3a76400006001614300565b5f6107ee83670de0b6b3a764000084614359565b5f6107ee6139a3836001600160401b03861661575b565b600f0b61443e565b6020808301516001600160a01b038088165f90815260a284526040808220928816825291909352909120546001600160401b03908116911614613a7157602082810180516001600160a01b038881165f81815260a286526040808220938a1680835293875290819020805467ffffffffffffffff19166001600160401b0395861617905593518451918252948101919091529216908201527facf9095feb3a370c9cf692421c69ef320d4db5c66e6a7d29c7694eb02364fc559060600160405180910390a15b6001600160a01b038086165f90815260a060209081526040808320888452825280832093871683529281529082902083518154928501519385015163ffffffff16600160c01b0263ffffffff60c01b196001600160801b038616600160401b026001600160c01b03199095166001600160401b03909316929092179390931716919091179055600f0b15613b53576001600160a01b0385165f908152609f602090815260408083208784529091529020613b2b9084613640565b506001600160a01b0385165f908152609d60205260409020613b4d9085613635565b50610d61565b80516001600160401b03165f03610d61576001600160a01b0385165f908152609f602090815260408083208784529091529020613b9090846140d8565b506001600160a01b0385165f908152609f602090815260408083208784529091529020613bbc90613560565b5f03610d61576001600160a01b0385165f908152609d6020526040902061214090856140cd565b6001600160a01b038084165f90815260a160209081526040808320938616835292905220613c129043836144a9565b604080516001600160a01b038086168252841660208201526001600160401b038316918101919091527f1c6458079a41077d003c11faf9bf097e693bd67979e4e6500bac7b29db779b5c90606001613087565b60605f6107ee836144bd565b6001600160a01b038381165f90815260a360209081526040808320938616835292905290812054600f81810b600160801b909204900b035b5f81118015613cbb57508261ffff1682105b15610d61576001600160a01b038086165f90815260a3602090815260408083209388168352929052908120613cef90614516565b90505f5f613cfe8884896133b7565b91509150806040015163ffffffff16431015613d1c57505050610d61565b613d2988848985856139ab565b6001600160a01b038089165f90815260a360209081526040808320938b16835292905220613d5690614568565b50613d6085615b48565b9450613d6b84615b60565b9350505050613ca9565b60605f613d81836145e5565b6040805160208082528183019092529192505f91906020820181803683375050509182525060208101929092525090565b6001600160a01b0382165f908152609b60209081526040918290208251608081018452905463ffffffff808216835260ff600160201b830416151593830193909352650100000000008104831693820193909352600160481b909204166060820181905215801590613e2e5750806060015163ffffffff164310155b15613e4857604081015163ffffffff168152600160208201525b63ffffffff82166040820152613e7e7f0000000000000000000000000000000000000000000000000000000000000000436158fa565b613e899060016158fa565b63ffffffff90811660608381019182526001600160a01b0386165f818152609b602090815260409182902087518154838a0151858b01519851928a1664ffffffffff1990921691909117600160201b91151591909102176cffffffffffffffff0000000000191665010000000000978916979097026cffffffff000000000000000000191696909617600160481b968816968702179055815192835294871694820194909452928301919091527f4e85751d6331506c6c62335f207eb31f12a61e570f34f5c17640308785c6d4db9101613087565b6001600160a01b038281165f81815260a2602090815260408083209486168084529482528083205493835260a38252808320948352939052918220546001600160401b039091169190600f81810b600160801b909204900b03815b81811015614089576001600160a01b038087165f90815260a3602090815260408083209389168352929052908120613ff19083614197565b6001600160a01b038881165f90815260a0602090815260408083208584528252808320938b16835292815290829020825160608101845290546001600160401b0381168252600160401b8104600f0b92820192909252600160c01b90910463ffffffff1691810182905291925043101561406c575050614089565b61407a86826020015161398c565b95505050806001019050613fb9565b506001600160a01b038086165f90815260a16020908152604080832093881683529290522083906140b990614267565b6140c39190615718565b9150509250929050565b5f6107ee838361460c565b5f6107ee836001600160a01b03841661460c565b6033546001600160a01b03163314611d3f5760405162461bcd60e51b815260206004820181905260248201527f4f776e61626c653a2063616c6c6572206973206e6f7420746865206f776e6572604482015260640161300e565b603380546001600160a01b038381166001600160a01b0319831681179093556040519116919082907f8be0079c531659141344cd1fd0a4f28419497f9722a3daafe3b4186f6b6457e0905f90a35050565b5f5f6141b96141a5846146ef565b85546141b49190600f0b615b75565b614758565b8454909150600160801b9004600f90810b9082900b126141ec57604051632d0483c560e21b815260040160405180910390fd5b600f0b5f9081526001939093016020525050604090205490565b5f6107ee8383670de0b6b3a76400006147c1565b5f61422b8460995f61115f89613354565b80156142345750815b8015611d5e57505090516001600160401b031615159392505050565b5f6107ee6001600160401b03808516908416615b9c565b5f61086a82670de0b6b3a7640000614816565b5f825f01828154811061428f5761428f61562d565b905f5260205f200154905092915050565b5f8181526001830160205260408120546142e557508154600181810184555f84815260208082209093018490558454848252828601909352604090209190915561086a565b505f61086a565b5f6107ee8383670de0b6b3a7640000614359565b5f5f61430d868686614359565b9050600183600281111561432357614323615bc9565b14801561433f57505f848061433a5761433a615bdd565b868809115b15611d5e5761434f600182615bf1565b9695505050505050565b5f80805f19858709858702925082811083820303915050805f036143905783828161438657614386615bdd565b04925050506107ee565b8084116143d75760405162461bcd60e51b81526020600482015260156024820152744d6174683a206d756c446976206f766572666c6f7760581b604482015260640161300e565b5f8486880960026001871981018816978890046003810283188082028403028082028403028082028403028082028403028082028403029081029092039091025f889003889004909101858311909403939093029303949094049190911702949350505050565b5f6001600160401b038211156144a55760405162461bcd60e51b815260206004820152602660248201527f53616665436173743a2076616c756520646f65736e27742066697420696e203660448201526534206269747360d01b606482015260840161300e565b5090565b61309083836001600160401b03841661484d565b6060815f0180548060200260200160405190810160405280929190818152602001828054801561450a57602002820191905f5260205f20905b8154815260200190600101908083116144f6575b50505050509050919050565b5f6145308254600f81810b600160801b909204900b131590565b1561454e57604051631ed9509560e11b815260040160405180910390fd5b508054600f0b5f9081526001909101602052604090205490565b5f6145828254600f81810b600160801b909204900b131590565b156145a057604051631ed9509560e11b815260040160405180910390fd5b508054600f0b5f818152600180840160205260408220805492905583546fffffffffffffffffffffffffffffffff191692016001600160801b03169190911790915590565b5f60ff8216601f81111561086a57604051632cd44ac360e21b815260040160405180910390fd5b5f81815260018301602052604081205480156146e6575f61462e600183615705565b85549091505f9061464190600190615705565b90508181146146a0575f865f01828154811061465f5761465f61562d565b905f5260205f200154905080875f01848154811061467f5761467f61562d565b5f918252602080832090910192909255918252600188019052604090208390555b85548690806146b1576146b1615c04565b600190038181905f5260205f20015f90559055856001015f8681526020019081526020015f205f90556001935050505061086a565b5f91505061086a565b5f6001600160ff1b038211156144a55760405162461bcd60e51b815260206004820152602860248201527f53616665436173743a2076616c756520646f65736e27742066697420696e2061604482015267371034b73a191a9b60c11b606482015260840161300e565b80600f81900b81146147bc5760405162461bcd60e51b815260206004820152602760248201527f53616665436173743a2076616c756520646f65736e27742066697420696e20316044820152663238206269747360c81b606482015260840161300e565b919050565b82545f90816147d286868385614950565b9050801561480c576147f6866147e9600184615705565b5f91825260209091200190565b54600160201b90046001600160e01b03166107e9565b5091949350505050565b81545f9080156148455761482f846147e9600184615705565b54600160201b90046001600160e01b0316610866565b509092915050565b82548015614903575f614865856147e9600185615705565b60408051808201909152905463ffffffff808216808452600160201b9092046001600160e01b0316602084015291925090851610156148b75760405163151b8e3f60e11b815260040160405180910390fd5b805163ffffffff80861691160361490157826148d8866147e9600186615705565b80546001600160e01b0392909216600160201b0263ffffffff9092169190911790555050505050565b505b506040805180820190915263ffffffff92831681526001600160e01b03918216602080830191825285546001810187555f968752952091519051909216600160201b029190921617910155565b5f5b81831015610a54575f61496584846149a3565b5f8781526020902090915063ffffffff86169082015463ffffffff16111561498f5780925061499d565b61499a816001615bf1565b93505b50614952565b5f6149b16002848418615c18565b6107ee90848416615bf1565b6001600160a01b038116811461322f575f5ffd5b634e487b7160e01b5f52604160045260245ffd5b604051606081016001600160401b0381118282101715614a0757614a076149d1565b60405290565b604051601f8201601f191681016001600160401b0381118282101715614a3557614a356149d1565b604052919050565b803563ffffffff811681146147bc575f5ffd5b5f60408284031215614a60575f5ffd5b604080519081016001600160401b0381118282101715614a8257614a826149d1565b6040529050808235614a93816149bd565b8152614aa160208401614a3d565b60208201525092915050565b5f5f5f60808486031215614abf575f5ffd5b8335614aca816149bd565b9250614ad98560208601614a50565b91506060840135614ae9816149bd565b809150509250925092565b81516001600160401b03168152602080830151600f0b9082015260408083015163ffffffff16908201526060810161086a565b5f5f60608385031215614b38575f5ffd5b8235614b43816149bd565b9150614b528460208501614a50565b90509250929050565b5f60208284031215614b6b575f5ffd5b5035919050565b5f60208284031215614b82575f5ffd5b81356107ee816149bd565b80516001600160a01b0316825260209081015163ffffffff16910152565b5f8151808452602084019350602083015f5b82811015614be657614bd0868351614b8d565b6040959095019460209190910190600101614bbd565b5093949350505050565b602081525f6107ee6020830184614bab565b5f60408284031215614c12575f5ffd5b6107ee8383614a50565b5f5f83601f840112614c2c575f5ffd5b5081356001600160401b03811115614c42575f5ffd5b6020830191508360208260051b85010111156117ca575f5ffd5b5f5f5f60408486031215614c6e575f5ffd5b8335614c79816149bd565b925060208401356001600160401b03811115614c93575f5ffd5b614c9f86828701614c1c565b9497909650939450505050565b5f6001600160401b03821115614cc457614cc46149d1565b5060051b60200190565b5f82601f830112614cdd575f5ffd5b8135614cf0614ceb82614cac565b614a0d565b8082825260208201915060208360051b860101925085831115614d11575f5ffd5b602085015b83811015614d37578035614d29816149bd565b835260209283019201614d16565b5095945050505050565b5f5f5f60808486031215614d53575f5ffd5b614d5d8585614a50565b925060408401356001600160401b03811115614d77575f5ffd5b614d8386828701614cce565b92505060608401356001600160401b03811115614d9e575f5ffd5b614daa86828701614cce565b9150509250925092565b5f8151808452602084019350602083015f5b82811015614be6578151865260209586019590910190600101614dc6565b5f602082016020835280845180835260408501915060408160051b8601019250602086015f5b82811015614e3b57603f19878603018452614e26858351614db4565b94506020938401939190910190600101614e0a565b50929695505050505050565b5f5f5f5f60a08587031215614e5a575f5ffd5b614e648686614a50565b935060408501356001600160401b03811115614e7e575f5ffd5b614e8a87828801614cce565b93505060608501356001600160401b03811115614ea5575f5ffd5b614eb187828801614cce565b925050614ec060808601614a3d565b905092959194509250565b5f5f60408385031215614edc575f5ffd5b8235614ee7816149bd565b915060208301356001600160401b03811115614f01575f5ffd5b830160a08186031215614f12575f5ffd5b809150509250929050565b5f5f60408385031215614f2e575f5ffd5b8235614f39816149bd565b91506020830135614f12816149bd565b5f8151808452602084019350602083015f5b82811015614be657614f9486835180516001600160401b03168252602080820151600f0b9083015260409081015163ffffffff16910152565b6060959095019460209190910190600101614f5b565b604081525f614fbc6040830185614bab565b8281036020840152611d5e8185614f49565b5f8151808452602084019350602083015f5b82811015614be65781516001600160a01b0316865260209586019590910190600101614fe0565b602081525f6107ee6020830184614fce565b5f5f6040838503121561502a575f5ffd5b82356001600160401b0381111561503f575f5ffd5b61504b85828601614cce565b9250506020830135614f12816149bd565b602080825282518282018190525f918401906040840190835b8181101561509c5783516001600160401b0316835260209384019390920191600101615075565b509095945050505050565b5f5f5f5f5f606086880312156150bb575f5ffd5b85356150c6816149bd565b945060208601356001600160401b038111156150e0575f5ffd5b6150ec88828901614c1c565b90955093505060408601356001600160401b0381111561510a575f5ffd5b61511688828901614c1c565b969995985093965092949392505050565b5f5f5f5f6060858703121561513a575f5ffd5b8435615145816149bd565b935061515360208601614a3d565b925060408501356001600160401b0381111561516d575f5ffd5b61517987828801614c1c565b95989497509550505050565b5f5f60408385031215615196575f5ffd5b82356151a1816149bd565b915060208301356001600160401b038111156151bb575f5ffd5b6140c385828601614cce565b602081525f82518060208401528060208501604085015e5f604082850101526040601f19601f83011684010191505092915050565b5f5f6040838503121561520d575f5ffd5b8235615218816149bd565b9150614b5260208401614a3d565b5f60208284031215615236575f5ffd5b813560ff811681146107ee575f5ffd5b5f60608284031215615256575f5ffd5b50919050565b5f6020828403121561526c575f5ffd5b81356001600160401b03811115615281575f5ffd5b61086684828501615246565b5f5f5f6080848603121561529f575f5ffd5b83356001600160401b038111156152b4575f5ffd5b6152c086828701614cce565b935050614ad98560208601614a50565b602081525f6107ee6020830184614f49565b5f5f5f606084860312156152f4575f5ffd5b83356152ff816149bd565b9250602084013561530f816149bd565b929592945050506040919091013590565b5f5f5f60608486031215615332575f5ffd5b833561533d816149bd565b925060208401356001600160401b03811115615357575f5ffd5b61536386828701614cce565b92505061537260408501614a3d565b90509250925092565b5f5f6040838503121561538c575f5ffd5b8235615397816149bd565b915060208301356001600160401b038111156153b1575f5ffd5b8301601f810185136153c1575f5ffd5b80356153cf614ceb82614cac565b8082825260208201915060208360051b8501019250878311156153f0575f5ffd5b602084015b838110156155155780356001600160401b03811115615412575f5ffd5b85016080818b03601f19011215615427575f5ffd5b61542f6149e5565b61543c8b60208401614a50565b815260608201356001600160401b03811115615456575f5ffd5b6154658c602083860101614cce565b60208301525060808201356001600160401b03811115615483575f5ffd5b6020818401019250508a601f83011261549a575f5ffd5b81356154a8614ceb82614cac565b8082825260208201915060208360051b86010192508d8311156154c9575f5ffd5b6020850194505b828510156154ff5784356001600160401b03811681146154ee575f5ffd5b8252602094850194909101906154d0565b60408401525050845250602092830192016153f5565b50809450505050509250929050565b5f5f5f60408486031215615536575f5ffd5b8335615541816149bd565b925060208401356001600160401b0381111561555b575f5ffd5b8401601f8101861361556b575f5ffd5b80356001600160401b03811115615580575f5ffd5b866020828401011115615591575f5ffd5b939660209190910195509293505050565b5f5f604083850312156155b3575f5ffd5b82356155be816149bd565b915060208301356001600160401b038111156155d8575f5ffd5b6140c385828601615246565b5f5f604083850312156155f5575f5ffd5b8235615600816149bd565b946020939093013593505050565b5f6020828403121561561e575f5ffd5b815180151581146107ee575f5ffd5b634e487b7160e01b5f52603260045260245ffd5b5f8235603e19833603018112615655575f5ffd5b9190910192915050565b5f6020828403121561566f575f5ffd5b6107ee82614a3d565b6040810161086a8284614b8d565b5f5f8335601e1984360301811261569b575f5ffd5b8301803591506001600160401b038211156156b4575f5ffd5b6020019150600581901b36038213156117ca575f5ffd5b606081016156d98285614b8d565b6001600160a01b039290921660409190910152919050565b634e487b7160e01b5f52601160045260245ffd5b8181038181111561086a5761086a6156f1565b6001600160401b03828116828216039081111561086a5761086a6156f1565b5f81600f0b60016001607f1b03198103615753576157536156f1565b5f0392915050565b600f81810b9083900b0160016001607f1b03811360016001607f1b03198212171561086a5761086a6156f1565b6001600160a01b038616815260c081016157a56020830187614b8d565b6001600160a01b039490941660608201526001600160401b0392909216608083015263ffffffff1660a09091015292915050565b5f5f8335601e198436030181126157ee575f5ffd5b8301803591506001600160401b03821115615807575f5ffd5b6020019150368190038213156117ca575f5ffd5b81835281816020850137505f828201602090810191909152601f909101601f19169091010190565b6001600160a01b03881681525f60c08201615861602084018a614b8d565b60c060608401528690528660e083015f5b888110156158a2578235615885816149bd565b6001600160a01b0316825260209283019290910190600101615872565b5083810360808501526158b58188614db4565b91505082810360a08401526158cb81858761581b565b9a9950505050505050505050565b5f602082840312156158e9575f5ffd5b813561ffff811681146107ee575f5ffd5b63ffffffff818116838216019081111561086a5761086a6156f1565b8183526020830192505f815f5b84811015614be65763ffffffff61593983614a3d565b1686526020958601959190910190600101615923565b6001600160a01b038581168252841660208201526060604082018190525f9061434f9083018486615916565b602081525f610d7660208301848661581b565b6001600160a01b038781168252861660208201526080604082018190525f906159ba9083018688615916565b82810360608401526159cd81858761581b565b9998505050505050505050565b5f602082840312156159ea575f5ffd5b81516107ee816149bd565b80516020808301519190811015615256575f1960209190910360031b1b16919050565b604081525f615a2a6040830185614fce565b8281036020840152611d5e8185614fce565b5f60208284031215615a4c575f5ffd5b81516001600160401b03811115615a61575f5ffd5b8201601f81018413615a71575f5ffd5b8051615a7f614ceb82614cac565b8082825260208201915060208360051b850101925086831115615aa0575f5ffd5b602084015b83811015615b3d5780516001600160401b03811115615ac2575f5ffd5b8501603f81018913615ad2575f5ffd5b6020810151615ae3614ceb82614cac565b808282526020820191506020808460051b8601010192508b831115615b06575f5ffd5b6040840193505b82841015615b28578351825260209384019390910190615b0d565b86525050602093840193919091019050615aa5565b509695505050505050565b5f60018201615b5957615b596156f1565b5060010190565b5f81615b6e57615b6e6156f1565b505f190190565b8082018281125f831280158216821582161715615b9457615b946156f1565b505092915050565b600f82810b9082900b0360016001607f1b0319811260016001607f1b038213171561086a5761086a6156f1565b634e487b7160e01b5f52602160045260245ffd5b634e487b7160e01b5f52601260045260245ffd5b8082018082111561086a5761086a6156f1565b634e487b7160e01b5f52603160045260245ffd5b5f82615c3257634e487b7160e01b5f52601260045260245ffd5b50049056fea2646970667358221220cb43d642a2df4e41326d18761afabffc734133630a0af312e0001269266a1b3464736f6c634300081b0033","linkReferences":{}},"methodIdentifiers":{"ALLOCATION_CONFIGURATION_DELAY()":"7bc1ef61","DEALLOCATION_DELAY()":"2981eb77","addStrategiesToOperatorSet(address,uint32,address[])":"50feea20","clearDeallocationQueue(address,address[],uint16[])":"4b5046ef","createOperatorSets(address,(uint32,address[])[])":"261f84e0","deallocationQueueAtIndex(address,address,uint256)":"93bfefbf","delegation()":"df5cf723","deregisterFromOperatorSets((address,address,uint32[]))":"6e3492b5","getAVSRegistrar(address)":"304c10cd","getAllocatableMagnitude(address,address)":"6cfb4481","getAllocatedSets(address)":"15fe5028","getAllocatedStake((address,uint32),address[],address[])":"2b453a9a","getAllocatedStrategies(address,(address,uint32))":"c221d8ae","getAllocation(address,(address,uint32),address)":"10e1b9b8","getAllocationDelay(address)":"b9fbaed1","getAllocations(address[],(address,uint32),address)":"8ce64854","getEncumberedMagnitude(address,address)":"f605ce08","getMaxMagnitude(address,address)":"a9333ec8","getMaxMagnitudes(address,address[])":"547afb87","getMaxMagnitudes(address[],address)":"4a10ffe5","getMaxMagnitudesAtBlock(address,address[],uint32)":"94d7d00c","getMemberCount((address,uint32))":"b2447af7","getMembers((address,uint32))":"6e875dba","getMinimumSlashableStake((address,uint32),address[],address[],uint32)":"2bab2c4a","getOperatorSetCount(address)":"ba1a84e5","getRegisteredSets(address)":"79ae50cd","getStrategiesInOperatorSet((address,uint32))":"4177a87c","getStrategyAllocations(address,address)":"40120dab","initialize(address,uint256)":"cd6dc687","isMemberOfOperatorSet(address,(address,uint32))":"670d3ba2","isOperatorSet((address,uint32))":"260dc758","isOperatorSlashable(address,(address,uint32))":"1352c3e6","modifyAllocations(address,((address,uint32),address[],uint64[])[])":"952899ee","owner()":"8da5cb5b","pause(uint256)":"136439dd","pauseAll()":"595c6a67","paused()":"5c975abb","paused(uint8)":"5ac86ab7","pauserRegistry()":"886f1195","permissionController()":"4657e26a","registerForOperatorSets(address,(address,uint32[],bytes))":"adc2e3d9","removeStrategiesFromOperatorSet(address,uint32,address[])":"b66bd989","renounceOwnership()":"715018a6","setAVSRegistrar(address,address)":"d3d96ff4","setAllocationDelay(address,uint32)":"56c483e6","slashOperator(address,(address,uint32,address[],uint256[],string))":"36352057","transferOwnership(address)":"f2fde38b","unpause(uint256)":"fabc1cbc","updateAVSMetadataURI(address,string)":"a9821821","version()":"54fd4d50"},"id":174}