{"abi":[{"type":"function","name":"isValidSignature","inputs":[{"name":"","type":"bytes32","internalType":"bytes32"},{"name":"","type":"bytes","internalType":"bytes"}],"outputs":[{"name":"","type":"bytes4","internalType":"bytes4"}],"stateMutability":"pure"}],"bytecode":{"object":"0x6080604052348015600e575f5ffd5b5061016e8061001c5f395ff3fe608060405234801561000f575f5ffd5b5060043610610029575f3560e01c80631626ba7e1461002d575b5f5ffd5b61004061003b36600461007b565b61005d565b6040516001600160e01b0319909116815260200160405180910390f35b5f5f195f5260205ff35b634e487b7160e01b5f52604160045260245ffd5b5f5f6040838503121561008c575f5ffd5b82359150602083013567ffffffffffffffff8111156100a9575f5ffd5b8301601f810185136100b9575f5ffd5b803567ffffffffffffffff8111156100d3576100d3610067565b604051601f8201601f19908116603f0116810167ffffffffffffffff8111828210171561010257610102610067565b604052818152828201602001871015610119575f5ffd5b816020840160208301375f60208383010152809350505050925092905056fea26469706673582212204cc58dec9e9cac6a113a2903f87d1fb8918e8c7c80dd52923f26b55bbcea036d64736f6c634300081b0033","linkReferences":{}},"methodIdentifiers":{"isValidSignature(bytes32,bytes)":"1626ba7e"},"id":58}