{"abi":[{"type":"constructor","inputs":[{"name":"originalOwner","type":"address","internalType":"address"}],"stateMutability":"nonpayable"},{"type":"function","name":"isValidSignature","inputs":[{"name":"hash","type":"bytes32","internalType":"bytes32"},{"name":"signature","type":"bytes","internalType":"bytes"}],"outputs":[{"name":"magicValue","type":"bytes4","internalType":"bytes4"}],"stateMutability":"view"},{"type":"function","name":"owner","inputs":[],"outputs":[{"name":"","type":"address","internalType":"address"}],"stateMutability":"view"},{"type":"function","name":"renounceOwnership","inputs":[],"outputs":[],"stateMutability":"nonpayable"},{"type":"function","name":"transferOwnership","inputs":[{"name":"newOwner","type":"address","internalType":"address"}],"outputs":[],"stateMutability":"nonpayable"},{"type":"event","name":"OwnershipTransferred","inputs":[{"name":"previousOwner","type":"address","indexed":true,"internalType":"address"},{"name":"newOwner","type":"address","indexed":true,"internalType":"address"}],"anonymous":false}],"bytecode":{"object":"0x608060405234801561000f575f5ffd5b5060405161077c38038061077c83398101604081905261002e9161016e565b61003733610046565b61004081610095565b5061019b565b5f80546001600160a01b038381166001600160a01b0319831681178455604051919092169283917f8be0079c531659141344cd1fd0a4f28419497f9722a3daafe3b4186f6b6457e09190a35050565b61009d610113565b6001600160a01b0381166101075760405162461bcd60e51b815260206004820152602660248201527f4f776e61626c653a206e6577206f776e657220697320746865207a65726f206160448201526564647265737360d01b60648201526084015b60405180910390fd5b61011081610046565b50565b5f546001600160a01b0316331461016c5760405162461bcd60e51b815260206004820181905260248201527f4f776e61626c653a2063616c6c6572206973206e6f7420746865206f776e657260448201526064016100fe565b565b5f6020828403121561017e575f5ffd5b81516001600160a01b0381168114610194575f5ffd5b9392505050565b6105d4806101a85f395ff3fe608060405234801561000f575f5ffd5b506004361061004a575f3560e01c80631626ba7e1461004e578063715018a61461007f5780638da5cb5b14610089578063f2fde38b146100a3575b5f5ffd5b61006161005c3660046104a7565b6100b6565b6040516001600160e01b031990911681526020015b60405180910390f35b6100876100f0565b005b5f546040516001600160a01b039091168152602001610076565b6100876100b1366004610564565b610103565b5f80546001600160a01b03166100cc8484610181565b6001600160a01b0316146100e0575f6100e9565b630b135d3f60e11b5b9392505050565b6100f86101a3565b6101015f6101fc565b565b61010b6101a3565b6001600160a01b0381166101755760405162461bcd60e51b815260206004820152602660248201527f4f776e61626c653a206e6577206f776e657220697320746865207a65726f206160448201526564647265737360d01b60648201526084015b60405180910390fd5b61017e816101fc565b50565b5f5f5f61018e858561024b565b9150915061019b8161028d565b509392505050565b5f546001600160a01b031633146101015760405162461bcd60e51b815260206004820181905260248201527f4f776e61626c653a2063616c6c6572206973206e6f7420746865206f776e6572604482015260640161016c565b5f80546001600160a01b038381166001600160a01b0319831681178455604051919092169283917f8be0079c531659141344cd1fd0a4f28419497f9722a3daafe3b4186f6b6457e09190a35050565b5f5f825160410361027f576020830151604084015160608501515f1a610273878285856103d6565b94509450505050610286565b505f905060025b9250929050565b5f8160048111156102a0576102a061058a565b036102a85750565b60018160048111156102bc576102bc61058a565b036103095760405162461bcd60e51b815260206004820152601860248201527f45434453413a20696e76616c6964207369676e61747572650000000000000000604482015260640161016c565b600281600481111561031d5761031d61058a565b0361036a5760405162461bcd60e51b815260206004820152601f60248201527f45434453413a20696e76616c6964207369676e6174757265206c656e67746800604482015260640161016c565b600381600481111561037e5761037e61058a565b0361017e5760405162461bcd60e51b815260206004820152602260248201527f45434453413a20696e76616c6964207369676e6174757265202773272076616c604482015261756560f01b606482015260840161016c565b5f807f7fffffffffffffffffffffffffffffff5d576e7357a4501ddfe92f46681b20a083111561040b57505f9050600361048a565b604080515f8082526020820180845289905260ff881692820192909252606081018690526080810185905260019060a0016020604051602081039080840390855afa15801561045c573d5f5f3e3d5ffd5b5050604051601f1901519150506001600160a01b038116610484575f6001925092505061048a565b91505f90505b94509492505050565b634e487b7160e01b5f52604160045260245ffd5b5f5f604083850312156104b8575f5ffd5b82359150602083013567ffffffffffffffff8111156104d5575f5ffd5b8301601f810185136104e5575f5ffd5b803567ffffffffffffffff8111156104ff576104ff610493565b604051601f8201601f19908116603f0116810167ffffffffffffffff8111828210171561052e5761052e610493565b604052818152828201602001871015610545575f5ffd5b816020840160208301375f602083830101528093505050509250929050565b5f60208284031215610574575f5ffd5b81356001600160a01b03811681146100e9575f5ffd5b634e487b7160e01b5f52602160045260245ffdfea26469706673582212209ba8eb7bfeb4a9212b6824f379834e3a1424ac1f91b83fa639a76617258a0ddb64736f6c634300081b0033","linkReferences":{}},"methodIdentifiers":{"isValidSignature(bytes32,bytes)":"1626ba7e","owner()":"8da5cb5b","renounceOwnership()":"715018a6","transferOwnership(address)":"f2fde38b"},"id":58}