{"abi":[{"type":"constructor","inputs":[{"name":"_strategyManager","type":"address","internalType":"contract IStrategyManager"},{"name":"_eigenPodManager","type":"address","internalType":"contract IEigenPodManager"},{"name":"_allocationManager","type":"address","internalType":"contract IAllocationManager"},{"name":"_pauserRegistry","type":"address","internalType":"contract IPauserRegistry"},{"name":"_permissionController","type":"address","internalType":"contract IPermissionController"},{"name":"_MIN_WITHDRAWAL_DELAY","type":"uint32","internalType":"uint32"}],"stateMutability":"nonpayable"},{"type":"function","name":"DELEGATION_APPROVAL_TYPEHASH","inputs":[],"outputs":[{"name":"","type":"bytes32","internalType":"bytes32"}],"stateMutability":"view"},{"type":"function","name":"allocationManager","inputs":[],"outputs":[{"name":"","type":"address","internalType":"contract IAllocationManager"}],"stateMutability":"view"},{"type":"function","name":"beaconChainETHStrategy","inputs":[],"outputs":[{"name":"","type":"address","internalType":"contract IStrategy"}],"stateMutability":"view"},{"type":"function","name":"calculateDelegationApprovalDigestHash","inputs":[{"name":"staker","type":"address","internalType":"address"},{"name":"operator","type":"address","internalType":"address"},{"name":"approver","type":"address","internalType":"address"},{"name":"approverSalt","type":"bytes32","internalType":"bytes32"},{"name":"expiry","type":"uint256","internalType":"uint256"}],"outputs":[{"name":"","type":"bytes32","internalType":"bytes32"}],"stateMutability":"view"},{"type":"function","name":"calculateWithdrawalRoot","inputs":[{"name":"withdrawal","type":"tuple","internalType":"struct IDelegationManagerTypes.Withdrawal","components":[{"name":"staker","type":"address","internalType":"address"},{"name":"delegatedTo","type":"address","internalType":"address"},{"name":"withdrawer","type":"address","internalType":"address"},{"name":"nonce","type":"uint256","internalType":"uint256"},{"name":"startBlock","type":"uint32","internalType":"uint32"},{"name":"strategies","type":"address[]","internalType":"contract IStrategy[]"},{"name":"scaledShares","type":"uint256[]","internalType":"uint256[]"}]}],"outputs":[{"name":"","type":"bytes32","internalType":"bytes32"}],"stateMutability":"pure"},{"type":"function","name":"completeQueuedWithdrawal","inputs":[{"name":"withdrawal","type":"tuple","internalType":"struct IDelegationManagerTypes.Withdrawal","components":[{"name":"staker","type":"address","internalType":"address"},{"name":"delegatedTo","type":"address","internalType":"address"},{"name":"withdrawer","type":"address","internalType":"address"},{"name":"nonce","type":"uint256","internalType":"uint256"},{"name":"startBlock","type":"uint32","internalType":"uint32"},{"name":"strategies","type":"address[]","internalType":"contract IStrategy[]"},{"name":"scaledShares","type":"uint256[]","internalType":"uint256[]"}]},{"name":"tokens","type":"address[]","internalType":"contract IERC20[]"},{"name":"receiveAsTokens","type":"bool","internalType":"bool"}],"outputs":[],"stateMutability":"nonpayable"},{"type":"function","name":"completeQueuedWithdrawals","inputs":[{"name":"withdrawals","type":"tuple[]","internalType":"struct IDelegationManagerTypes.Withdrawal[]","components":[{"name":"staker","type":"address","internalType":"address"},{"name":"delegatedTo","type":"address","internalType":"address"},{"name":"withdrawer","type":"address","internalType":"address"},{"name":"nonce","type":"uint256","internalType":"uint256"},{"name":"startBlock","type":"uint32","internalType":"uint32"},{"name":"strategies","type":"address[]","internalType":"contract IStrategy[]"},{"name":"scaledShares","type":"uint256[]","internalType":"uint256[]"}]},{"name":"tokens","type":"address[][]","internalType":"contract IERC20[][]"},{"name":"receiveAsTokens","type":"bool[]","internalType":"bool[]"}],"outputs":[],"stateMutability":"nonpayable"},{"type":"function","name":"convertToDepositShares","inputs":[{"name":"staker","type":"address","internalType":"address"},{"name":"strategies","type":"address[]","internalType":"contract IStrategy[]"},{"name":"withdrawableShares","type":"uint256[]","internalType":"uint256[]"}],"outputs":[{"name":"","type":"uint256[]","internalType":"uint256[]"}],"stateMutability":"view"},{"type":"function","name":"cumulativeWithdrawalsQueued","inputs":[{"name":"staker","type":"address","internalType":"address"}],"outputs":[{"name":"totalQueued","type":"uint256","internalType":"uint256"}],"stateMutability":"view"},{"type":"function","name":"decreaseDelegatedShares","inputs":[{"name":"staker","type":"address","internalType":"address"},{"name":"curDepositShares","type":"uint256","internalType":"uint256"},{"name":"beaconChainSlashingFactorDecrease","type":"uint64","internalType":"uint64"}],"outputs":[],"stateMutability":"nonpayable"},{"type":"function","name":"delegateTo","inputs":[{"name":"operator","type":"address","internalType":"address"},{"name":"approverSignatureAndExpiry","type":"tuple","internalType":"struct ISignatureUtilsMixinTypes.SignatureWithExpiry","components":[{"name":"signature","type":"bytes","internalType":"bytes"},{"name":"expiry","type":"uint256","internalType":"uint256"}]},{"name":"approverSalt","type":"bytes32","internalType":"bytes32"}],"outputs":[],"stateMutability":"nonpayable"},{"type":"function","name":"delegatedTo","inputs":[{"name":"staker","type":"address","internalType":"address"}],"outputs":[{"name":"operator","type":"address","internalType":"address"}],"stateMutability":"view"},{"type":"function","name":"delegationApprover","inputs":[{"name":"operator","type":"address","internalType":"address"}],"outputs":[{"name":"","type":"address","internalType":"address"}],"stateMutability":"view"},{"type":"function","name":"delegationApproverSaltIsSpent","inputs":[{"name":"delegationApprover","type":"address","internalType":"address"},{"name":"salt","type":"bytes32","internalType":"bytes32"}],"outputs":[{"name":"spent","type":"bool","internalType":"bool"}],"stateMutability":"view"},{"type":"function","name":"depositScalingFactor","inputs":[{"name":"staker","type":"address","internalType":"address"},{"name":"strategy","type":"address","internalType":"contract IStrategy"}],"outputs":[{"name":"","type":"uint256","internalType":"uint256"}],"stateMutability":"view"},{"type":"function","name":"domainSeparator","inputs":[],"outputs":[{"name":"","type":"bytes32","internalType":"bytes32"}],"stateMutability":"view"},{"type":"function","name":"eigenPodManager","inputs":[],"outputs":[{"name":"","type":"address","internalType":"contract IEigenPodManager"}],"stateMutability":"view"},{"type":"function","name":"getDepositedShares","inputs":[{"name":"staker","type":"address","internalType":"address"}],"outputs":[{"name":"","type":"address[]","internalType":"contract IStrategy[]"},{"name":"","type":"uint256[]","internalType":"uint256[]"}],"stateMutability":"view"},{"type":"function","name":"getOperatorShares","inputs":[{"name":"operator","type":"address","internalType":"address"},{"name":"strategies","type":"address[]","internalType":"contract IStrategy[]"}],"outputs":[{"name":"","type":"uint256[]","internalType":"uint256[]"}],"stateMutability":"view"},{"type":"function","name":"getOperatorsShares","inputs":[{"name":"operators","type":"address[]","internalType":"address[]"},{"name":"strategies","type":"address[]","internalType":"contract IStrategy[]"}],"outputs":[{"name":"","type":"uint256[][]","internalType":"uint256[][]"}],"stateMutability":"view"},{"type":"function","name":"getQueuedWithdrawal","inputs":[{"name":"withdrawalRoot","type":"bytes32","internalType":"bytes32"}],"outputs":[{"name":"withdrawal","type":"tuple","internalType":"struct IDelegationManagerTypes.Withdrawal","components":[{"name":"staker","type":"address","internalType":"address"},{"name":"delegatedTo","type":"address","internalType":"address"},{"name":"withdrawer","type":"address","internalType":"address"},{"name":"nonce","type":"uint256","internalType":"uint256"},{"name":"startBlock","type":"uint32","internalType":"uint32"},{"name":"strategies","type":"address[]","internalType":"contract IStrategy[]"},{"name":"scaledShares","type":"uint256[]","internalType":"uint256[]"}]},{"name":"shares","type":"uint256[]","internalType":"uint256[]"}],"stateMutability":"view"},{"type":"function","name":"getQueuedWithdrawalRoots","inputs":[{"name":"staker","type":"address","internalType":"address"}],"outputs":[{"name":"","type":"bytes32[]","internalType":"bytes32[]"}],"stateMutability":"view"},{"type":"function","name":"getQueuedWithdrawals","inputs":[{"name":"staker","type":"address","internalType":"address"}],"outputs":[{"name":"withdrawals","type":"tuple[]","internalType":"struct IDelegationManagerTypes.Withdrawal[]","components":[{"name":"staker","type":"address","internalType":"address"},{"name":"delegatedTo","type":"address","internalType":"address"},{"name":"withdrawer","type":"address","internalType":"address"},{"name":"nonce","type":"uint256","internalType":"uint256"},{"name":"startBlock","type":"uint32","internalType":"uint32"},{"name":"strategies","type":"address[]","internalType":"contract IStrategy[]"},{"name":"scaledShares","type":"uint256[]","internalType":"uint256[]"}]},{"name":"shares","type":"uint256[][]","internalType":"uint256[][]"}],"stateMutability":"view"},{"type":"function","name":"getSlashableSharesInQueue","inputs":[{"name":"operator","type":"address","internalType":"address"},{"name":"strategy","type":"address","internalType":"contract IStrategy"}],"outputs":[{"name":"","type":"uint256","internalType":"uint256"}],"stateMutability":"view"},{"type":"function","name":"getSlashingFactor","inputs":[{"name":"staker","type":"address","internalType":"address"},{"name":"strategy","type":"address","internalType":"contract IStrategy"},{"name":"operatorMaxMagnitude","type":"uint64","internalType":"uint64"}],"outputs":[{"name":"","type":"uint256","internalType":"uint256"}],"stateMutability":"view"},{"type":"function","name":"getSlashingFactors","inputs":[{"name":"staker","type":"address","internalType":"address"},{"name":"operator","type":"address","internalType":"address"},{"name":"strategies","type":"address[]","internalType":"contract IStrategy[]"}],"outputs":[{"name":"","type":"uint256[]","internalType":"uint256[]"}],"stateMutability":"view"},{"type":"function","name":"getSlashingFactorsAtBlock","inputs":[{"name":"staker","type":"address","internalType":"address"},{"name":"operator","type":"address","internalType":"address"},{"name":"strategies","type":"address[]","internalType":"contract IStrategy[]"},{"name":"blockNumber","type":"uint32","internalType":"uint32"}],"outputs":[{"name":"","type":"uint256[]","internalType":"uint256[]"}],"stateMutability":"view"},{"type":"function","name":"getWithdrawableShares","inputs":[{"name":"staker","type":"address","internalType":"address"},{"name":"strategies","type":"address[]","internalType":"contract IStrategy[]"}],"outputs":[{"name":"withdrawableShares","type":"uint256[]","internalType":"uint256[]"},{"name":"depositShares","type":"uint256[]","internalType":"uint256[]"}],"stateMutability":"view"},{"type":"function","name":"increaseDelegatedShares","inputs":[{"name":"staker","type":"address","internalType":"address"},{"name":"strategy","type":"address","internalType":"contract IStrategy"},{"name":"prevDepositShares","type":"uint256","internalType":"uint256"},{"name":"addedShares","type":"uint256","internalType":"uint256"}],"outputs":[],"stateMutability":"nonpayable"},{"type":"function","name":"initialize","inputs":[{"name":"initialOwner","type":"address","internalType":"address"},{"name":"initialPausedStatus","type":"uint256","internalType":"uint256"}],"outputs":[],"stateMutability":"nonpayable"},{"type":"function","name":"isDelegated","inputs":[{"name":"staker","type":"address","internalType":"address"}],"outputs":[{"name":"","type":"bool","internalType":"bool"}],"stateMutability":"view"},{"type":"function","name":"isOperator","inputs":[{"name":"operator","type":"address","internalType":"address"}],"outputs":[{"name":"","type":"bool","internalType":"bool"}],"stateMutability":"view"},{"type":"function","name":"minWithdrawalDelayBlocks","inputs":[],"outputs":[{"name":"","type":"uint32","internalType":"uint32"}],"stateMutability":"view"},{"type":"function","name":"modifyOperatorDetails","inputs":[{"name":"operator","type":"address","internalType":"address"},{"name":"newDelegationApprover","type":"address","internalType":"address"}],"outputs":[],"stateMutability":"nonpayable"},{"type":"function","name":"operatorShares","inputs":[{"name":"operator","type":"address","internalType":"address"},{"name":"strategy","type":"address","internalType":"contract IStrategy"}],"outputs":[{"name":"shares","type":"uint256","internalType":"uint256"}],"stateMutability":"view"},{"type":"function","name":"owner","inputs":[],"outputs":[{"name":"","type":"address","internalType":"address"}],"stateMutability":"view"},{"type":"function","name":"pause","inputs":[{"name":"newPausedStatus","type":"uint256","internalType":"uint256"}],"outputs":[],"stateMutability":"nonpayable"},{"type":"function","name":"pauseAll","inputs":[],"outputs":[],"stateMutability":"nonpayable"},{"type":"function","name":"paused","inputs":[{"name":"index","type":"uint8","internalType":"uint8"}],"outputs":[{"name":"","type":"bool","internalType":"bool"}],"stateMutability":"view"},{"type":"function","name":"paused","inputs":[],"outputs":[{"name":"","type":"uint256","internalType":"uint256"}],"stateMutability":"view"},{"type":"function","name":"pauserRegistry","inputs":[],"outputs":[{"name":"","type":"address","internalType":"contract IPauserRegistry"}],"stateMutability":"view"},{"type":"function","name":"pendingWithdrawals","inputs":[{"name":"withdrawalRoot","type":"bytes32","internalType":"bytes32"}],"outputs":[{"name":"pending","type":"bool","internalType":"bool"}],"stateMutability":"view"},{"type":"function","name":"permissionController","inputs":[],"outputs":[{"name":"","type":"address","internalType":"contract IPermissionController"}],"stateMutability":"view"},{"type":"function","name":"queueWithdrawals","inputs":[{"name":"params","type":"tuple[]","internalType":"struct IDelegationManagerTypes.QueuedWithdrawalParams[]","components":[{"name":"strategies","type":"address[]","internalType":"contract IStrategy[]"},{"name":"depositShares","type":"uint256[]","internalType":"uint256[]"},{"name":"__deprecated_withdrawer","type":"address","internalType":"address"}]}],"outputs":[{"name":"","type":"bytes32[]","internalType":"bytes32[]"}],"stateMutability":"nonpayable"},{"type":"function","name":"queuedWithdrawals","inputs":[{"name":"withdrawalRoot","type":"bytes32","internalType":"bytes32"}],"outputs":[{"name":"withdrawal","type":"tuple","internalType":"struct IDelegationManagerTypes.Withdrawal","components":[{"name":"staker","type":"address","internalType":"address"},{"name":"delegatedTo","type":"address","internalType":"address"},{"name":"withdrawer","type":"address","internalType":"address"},{"name":"nonce","type":"uint256","internalType":"uint256"},{"name":"startBlock","type":"uint32","internalType":"uint32"},{"name":"strategies","type":"address[]","internalType":"contract IStrategy[]"},{"name":"scaledShares","type":"uint256[]","internalType":"uint256[]"}]}],"stateMutability":"view"},{"type":"function","name":"redelegate","inputs":[{"name":"newOperator","type":"address","internalType":"address"},{"name":"newOperatorApproverSig","type":"tuple","internalType":"struct ISignatureUtilsMixinTypes.SignatureWithExpiry","components":[{"name":"signature","type":"bytes","internalType":"bytes"},{"name":"expiry","type":"uint256","internalType":"uint256"}]},{"name":"approverSalt","type":"bytes32","internalType":"bytes32"}],"outputs":[{"name":"withdrawalRoots","type":"bytes32[]","internalType":"bytes32[]"}],"stateMutability":"nonpayable"},{"type":"function","name":"registerAsOperator","inputs":[{"name":"initDelegationApprover","type":"address","internalType":"address"},{"name":"allocationDelay","type":"uint32","internalType":"uint32"},{"name":"metadataURI","type":"string","internalType":"string"}],"outputs":[],"stateMutability":"nonpayable"},{"type":"function","name":"renounceOwnership","inputs":[],"outputs":[],"stateMutability":"nonpayable"},{"type":"function","name":"slashOperatorShares","inputs":[{"name":"operator","type":"address","internalType":"address"},{"name":"strategy","type":"address","internalType":"contract IStrategy"},{"name":"prevMaxMagnitude","type":"uint64","internalType":"uint64"},{"name":"newMaxMagnitude","type":"uint64","internalType":"uint64"}],"outputs":[],"stateMutability":"nonpayable"},{"type":"function","name":"strategyManager","inputs":[],"outputs":[{"name":"","type":"address","internalType":"contract IStrategyManager"}],"stateMutability":"view"},{"type":"function","name":"transferOwnership","inputs":[{"name":"newOwner","type":"address","internalType":"address"}],"outputs":[],"stateMutability":"nonpayable"},{"type":"function","name":"undelegate","inputs":[{"name":"staker","type":"address","internalType":"address"}],"outputs":[{"name":"withdrawalRoots","type":"bytes32[]","internalType":"bytes32[]"}],"stateMutability":"nonpayable"},{"type":"function","name":"unpause","inputs":[{"name":"newPausedStatus","type":"uint256","internalType":"uint256"}],"outputs":[],"stateMutability":"nonpayable"},{"type":"function","name":"updateOperatorMetadataURI","inputs":[{"name":"operator","type":"address","internalType":"address"},{"name":"metadataURI","type":"string","internalType":"string"}],"outputs":[],"stateMutability":"nonpayable"},{"type":"function","name":"version","inputs":[],"outputs":[{"name":"","type":"string","internalType":"string"}],"stateMutability":"view"},{"type":"event","name":"DelegationApproverUpdated","inputs":[{"name":"operator","type":"address","indexed":true,"internalType":"address"},{"name":"newDelegationApprover","type":"address","indexed":false,"internalType":"address"}],"anonymous":false},{"type":"event","name":"DepositScalingFactorUpdated","inputs":[{"name":"staker","type":"address","indexed":false,"internalType":"address"},{"name":"strategy","type":"address","indexed":false,"internalType":"contract IStrategy"},{"name":"newDepositScalingFactor","type":"uint256","indexed":false,"internalType":"uint256"}],"anonymous":false},{"type":"event","name":"Initialized","inputs":[{"name":"version","type":"uint8","indexed":false,"internalType":"uint8"}],"anonymous":false},{"type":"event","name":"OperatorMetadataURIUpdated","inputs":[{"name":"operator","type":"address","indexed":true,"internalType":"address"},{"name":"metadataURI","type":"string","indexed":false,"internalType":"string"}],"anonymous":false},{"type":"event","name":"OperatorRegistered","inputs":[{"name":"operator","type":"address","indexed":true,"internalType":"address"},{"name":"delegationApprover","type":"address","indexed":false,"internalType":"address"}],"anonymous":false},{"type":"event","name":"OperatorSharesDecreased","inputs":[{"name":"operator","type":"address","indexed":true,"internalType":"address"},{"name":"staker","type":"address","indexed":false,"internalType":"address"},{"name":"strategy","type":"address","indexed":false,"internalType":"contract IStrategy"},{"name":"shares","type":"uint256","indexed":false,"internalType":"uint256"}],"anonymous":false},{"type":"event","name":"OperatorSharesIncreased","inputs":[{"name":"operator","type":"address","indexed":true,"internalType":"address"},{"name":"staker","type":"address","indexed":false,"internalType":"address"},{"name":"strategy","type":"address","indexed":false,"internalType":"contract IStrategy"},{"name":"shares","type":"uint256","indexed":false,"internalType":"uint256"}],"anonymous":false},{"type":"event","name":"OperatorSharesSlashed","inputs":[{"name":"operator","type":"address","indexed":true,"internalType":"address"},{"name":"strategy","type":"address","indexed":false,"internalType":"contract IStrategy"},{"name":"totalSlashedShares","type":"uint256","indexed":false,"internalType":"uint256"}],"anonymous":false},{"type":"event","name":"OwnershipTransferred","inputs":[{"name":"previousOwner","type":"address","indexed":true,"internalType":"address"},{"name":"newOwner","type":"address","indexed":true,"internalType":"address"}],"anonymous":false},{"type":"event","name":"Paused","inputs":[{"name":"account","type":"address","indexed":true,"internalType":"address"},{"name":"newPausedStatus","type":"uint256","indexed":false,"internalType":"uint256"}],"anonymous":false},{"type":"event","name":"SlashingWithdrawalCompleted","inputs":[{"name":"withdrawalRoot","type":"bytes32","indexed":false,"internalType":"bytes32"}],"anonymous":false},{"type":"event","name":"SlashingWithdrawalQueued","inputs":[{"name":"withdrawalRoot","type":"bytes32","indexed":false,"internalType":"bytes32"},{"name":"withdrawal","type":"tuple","indexed":false,"internalType":"struct IDelegationManagerTypes.Withdrawal","components":[{"name":"staker","type":"address","internalType":"address"},{"name":"delegatedTo","type":"address","internalType":"address"},{"name":"withdrawer","type":"address","internalType":"address"},{"name":"nonce","type":"uint256","internalType":"uint256"},{"name":"startBlock","type":"uint32","internalType":"uint32"},{"name":"strategies","type":"address[]","internalType":"contract IStrategy[]"},{"name":"scaledShares","type":"uint256[]","internalType":"uint256[]"}]},{"name":"sharesToWithdraw","type":"uint256[]","indexed":false,"internalType":"uint256[]"}],"anonymous":false},{"type":"event","name":"StakerDelegated","inputs":[{"name":"staker","type":"address","indexed":true,"internalType":"address"},{"name":"operator","type":"address","indexed":true,"internalType":"address"}],"anonymous":false},{"type":"event","name":"StakerForceUndelegated","inputs":[{"name":"staker","type":"address","indexed":true,"internalType":"address"},{"name":"operator","type":"address","indexed":true,"internalType":"address"}],"anonymous":false},{"type":"event","name":"StakerUndelegated","inputs":[{"name":"staker","type":"address","indexed":true,"internalType":"address"},{"name":"operator","type":"address","indexed":true,"internalType":"address"}],"anonymous":false},{"type":"event","name":"Unpaused","inputs":[{"name":"account","type":"address","indexed":true,"internalType":"address"},{"name":"newPausedStatus","type":"uint256","indexed":false,"internalType":"uint256"}],"anonymous":false},{"type":"error","name":"ActivelyDelegated","inputs":[]},{"type":"error","name":"CallerCannotUndelegate","inputs":[]},{"type":"error","name":"CurrentlyPaused","inputs":[]},{"type":"error","name":"FullySlashed","inputs":[]},{"type":"error","name":"InputAddressZero","inputs":[]},{"type":"error","name":"InputArrayLengthMismatch","inputs":[]},{"type":"error","name":"InputArrayLengthZero","inputs":[]},{"type":"error","name":"InvalidNewPausedStatus","inputs":[]},{"type":"error","name":"InvalidPermissions","inputs":[]},{"type":"error","name":"InvalidShortString","inputs":[]},{"type":"error","name":"InvalidSignature","inputs":[]},{"type":"error","name":"InvalidSnapshotOrdering","inputs":[]},{"type":"error","name":"NotActivelyDelegated","inputs":[]},{"type":"error","name":"OnlyAllocationManager","inputs":[]},{"type":"error","name":"OnlyEigenPodManager","inputs":[]},{"type":"error","name":"OnlyPauser","inputs":[]},{"type":"error","name":"OnlyStrategyManagerOrEigenPodManager","inputs":[]},{"type":"error","name":"OnlyUnpauser","inputs":[]},{"type":"error","name":"OperatorNotRegistered","inputs":[]},{"type":"error","name":"OperatorsCannotUndelegate","inputs":[]},{"type":"error","name":"SaltSpent","inputs":[]},{"type":"error","name":"SignatureExpired","inputs":[]},{"type":"error","name":"StringTooLong","inputs":[{"name":"str","type":"string","internalType":"string"}]},{"type":"error","name":"WithdrawalDelayNotElapsed","inputs":[]},{"type":"error","name":"WithdrawalNotQueued","inputs":[]},{"type":"error","name":"WithdrawerNotCaller","inputs":[]}],"bytecode":{"object":"0x610160604052348015610010575f5ffd5b506040516163a73803806163a783398101604081905261002f916101fb565b8585858585856040518060400160405280600681526020016576392e392e3960d01b815250808084898989878a5f6001600160a01b0316816001600160a01b03160361008e576040516339b190bb60e11b815260040160405180910390fd5b6001600160a01b0390811660805293841660a05291831660c052821660e05263ffffffff166101005216610120526100c5816100e6565b61014052506100d4905061012c565b505050505050505050505050506102e1565b5f5f829050601f81511115610119578260405163305a27a960e01b81526004016101109190610286565b60405180910390fd5b8051610124826102bb565b179392505050565b5f54610100900460ff16156101935760405162461bcd60e51b815260206004820152602760248201527f496e697469616c697a61626c653a20636f6e747261637420697320696e697469604482015266616c697a696e6760c81b6064820152608401610110565b5f5460ff908116146101e2575f805460ff191660ff9081179091556040519081527f7f26b83ff96e1f2b6a682f133852f6798a09c465da95921460cefb38474024989060200160405180910390a15b565b6001600160a01b03811681146101f8575f5ffd5b50565b5f5f5f5f5f5f60c08789031215610210575f5ffd5b865161021b816101e4565b602088015190965061022c816101e4565b604088015190955061023d816101e4565b606088015190945061024e816101e4565b608088015190935061025f816101e4565b60a088015190925063ffffffff81168114610278575f5ffd5b809150509295509295509295565b602081525f82518060208401528060208501604085015e5f604082850101526040601f19601f83011684010191505092915050565b805160208083015191908110156102db575f198160200360031b1b821691505b50919050565b60805160a05160c05160e051610100516101205161014051615fcd6103da5f395f81816111b001526142e501525f81816104c101526135c401525f81816107de015281816137d4015281816139160152613bf901525f818161082e01528181610ec501528181611088015281816114090152818161162201528181611a84015281816127fe01526129ac01525f81816104e80152818161100601528181611581015281816117f5015281816131c5015281816133a60152613a5c01525f818161041e01528181610fd4015281816117490152613a3601525f81816106ac01528181610c55015281816111ee015261264d0152615fcd5ff3fe608060405234801561000f575f5ffd5b506004361061034d575f3560e01c8063715018a6116101c9578063bfae3fd2116100fe578063e4cc3f901161009e578063f2fde38b11610079578063f2fde38b146108cf578063f698da25146108e2578063fabc1cbc146108ea578063fd8aa88d146108fd575f5ffd5b8063e4cc3f9014610889578063eea9064b1461089c578063f0e0e676146108af575f5ffd5b8063ca8aa7c7116100d9578063ca8aa7c714610829578063cc97a84c14610850578063cd6dc68714610863578063da8be86414610876575f5ffd5b8063bfae3fd2146107c1578063c448feb8146107d4578063c978f7ac14610808575f5ffd5b80639104c31911610169578063a178848411610144578063a178848414610740578063a33a34331461075f578063b7f06ebe14610772578063bb45fef214610794575f5ffd5b80639104c319146106f25780639435bb431461070d57806399f5371b14610720575f5ffd5b8063843fb522116101a4578063843fb52214610694578063886f1195146106a75780638da5cb5b146106ce57806390041347146106df575f5ffd5b8063715018a61461064f578063778e55f31461065757806378296ec514610681575f5ffd5b806354b7c96c1161029f5780635dd685791161023f57806365da12641161021a57806365da1264146105e057806366d5ba93146106085780636d70f7ae146106295780636e1744481461063c575f5ffd5b80635dd6857914610599578063601bb36f146105ba57806360a0d1ce146105cd575f5ffd5b8063597b36da1161027a578063597b36da1461053a5780635ac86ab71461054d5780635c975abb146105705780635d975e8814610578575f5ffd5b806354b7c96c1461050a57806354fd4d501461051d578063595c6a6714610532575f5ffd5b80632aa6d8881161030a5780633cdeb5e0116102e55780633cdeb5e01461046b5780633e28391d146104995780634657e26a146104bc5780634665bcda146104e3575f5ffd5b80632aa6d8881461040657806339b70e38146104195780633c651cf214610458575f5ffd5b806304a4f979146103515780630b9f487a1461038b5780630dcd38b51461039e5780630dd8dd02146103be578063136439dd146103de57806325df922e146103f3575b5f5ffd5b6103787f14bde674c9f64b2ad00eaaee4a8bed1fabef35c7507e3c5b9cfc9436909a2dad81565b6040519081526020015b60405180910390f35b610378610399366004614dbe565b610910565b6103b16103ac366004614f4b565b610998565b6040516103829190614ff3565b6103d16103cc366004615045565b6109af565b6040516103829190615083565b6103f16103ec3660046150ba565b610c40565b005b6103b161040136600461512c565b610d15565b6103f16104143660046151dd565b610e75565b6104407f000000000000000000000000000000000000000000000000000000000000000081565b6040516001600160a01b039091168152602001610382565b6103f161046636600461523b565b610fc9565b61044061047936600461527e565b6001600160a01b039081165f908152609960205260409020600101541690565b6104ac6104a736600461527e565b61111c565b6040519015158152602001610382565b6104407f000000000000000000000000000000000000000000000000000000000000000081565b6104407f000000000000000000000000000000000000000000000000000000000000000081565b6103f1610518366004615299565b61113b565b6105256111a9565b60405161038291906152fe565b6103f16111d9565b6103786105483660046153cc565b611288565b6104ac61055b3660046153fd565b606654600160ff9092169190911b9081161490565b606654610378565b61058b6105863660046150ba565b6112b7565b6040516103829291906154d4565b6105ac6105a736600461527e565b6112d4565b604051610382929190615546565b6103f16105c83660046155c7565b6113fe565b6103f16105db366004615620565b611576565b6104406105ee36600461527e565b609a6020525f90815260409020546001600160a01b031681565b61061b61061636600461527e565b611721565b60405161038292919061565f565b6104ac61063736600461527e565b611a21565b61037861064a366004615299565b611a59565b6103f1611b03565b610378610665366004615299565b609860209081525f928352604080842090915290825290205481565b6103f161068f366004615671565b611b14565b6103786106a23660046156c1565b611baa565b6104407f000000000000000000000000000000000000000000000000000000000000000081565b6033546001600160a01b0316610440565b6103b16106ed3660046156fe565b611bb6565b61044073beac0eeeeeeeeeeeeeeeeeeeeeeeeeeeeeebeac081565b6103f161071b36600461574a565b611c8c565b61073361072e3660046150ba565b611d65565b60405161038291906157e6565b61037861074e36600461527e565b609f6020525f908152604090205481565b6103d161076d3660046157f8565b611e81565b6104ac6107803660046150ba565b609e6020525f908152604090205460ff1681565b6104ac6107a23660046158df565b609c60209081525f928352604080842090915290825290205460ff1681565b6103786107cf366004615299565b611e99565b60405163ffffffff7f0000000000000000000000000000000000000000000000000000000000000000168152602001610382565b61081b6108163660046156fe565b611ed5565b604051610382929190615909565b6104407f000000000000000000000000000000000000000000000000000000000000000081565b6103b161085e36600461591b565b612162565b6103f16108713660046158df565b61216f565b6103d161088436600461527e565b61228a565b6103f161089736600461597b565b6123b3565b6103f16108aa3660046157f8565b612409565b6108c26108bd3660046159ee565b612474565b6040516103829190615a9b565b6103f16108dd36600461527e565b612519565b610378612592565b6103f16108f83660046150ba565b61264b565b6103d161090b36600461527e565b612762565b604080517f14bde674c9f64b2ad00eaaee4a8bed1fabef35c7507e3c5b9cfc9436909a2dad60208201526001600160a01b03808616928201929092528187166060820152908516608082015260a0810183905260c081018290525f9061098e9060e00160405160208183030381529060405280519060200120612785565b9695505050505050565b60606109a6858585856127b3565b95945050505050565b6066546060906001906002908116036109db5760405163840a48d560e01b815260040160405180910390fd5b6109e3612908565b5f836001600160401b038111156109fc576109fc614e15565b604051908082528060200260200182016040528015610a25578160200160208202803683370190505b50335f908152609a60205260408120549192506001600160a01b03909116905b85811015610c3157868682818110610a5f57610a5f615aad565b9050602002810190610a719190615ac1565b610a7f906020810190615adf565b9050878783818110610a9357610a93615aad565b9050602002810190610aa59190615ac1565b610aaf9080615adf565b905014610acf576040516343714afd60e01b815260040160405180910390fd5b5f610b3933848a8a86818110610ae757610ae7615aad565b9050602002810190610af99190615ac1565b610b039080615adf565b808060200260200160405190810160405280939291908181526020018383602002808284375f9201919091525061296192505050565b9050610c0b33848a8a86818110610b5257610b52615aad565b9050602002810190610b649190615ac1565b610b6e9080615adf565b808060200260200160405190810160405280939291908181526020018383602002808284375f920191909152508e92508d9150889050818110610bb357610bb3615aad565b9050602002810190610bc59190615ac1565b610bd3906020810190615adf565b808060200260200160405190810160405280939291908181526020018383602002808284375f92019190915250889250612a8c915050565b848381518110610c1d57610c1d615aad565b602090810291909101015250600101610a45565b5050600160c955949350505050565b60405163237dfb4760e11b81523360048201527f00000000000000000000000000000000000000000000000000000000000000006001600160a01b0316906346fbf68e90602401602060405180830381865afa158015610ca2573d5f5f3e3d5ffd5b505050506040513d601f19601f82011682018060405250810190610cc69190615b24565b610ce357604051631d77d47760e21b815260040160405180910390fd5b6066548181168114610d085760405163c61dca5d60e01b815260040160405180910390fd5b610d1182612ffb565b5050565b6001600160a01b038084165f908152609a60205260408120546060921690610d3e868387612961565b90505f85516001600160401b03811115610d5a57610d5a614e15565b604051908082528060200260200182016040528015610d83578160200160208202803683370190505b5090505f5b8651811015610e68576001600160a01b0388165f90815260a260205260408120885182908a9085908110610dbe57610dbe615aad565b60200260200101516001600160a01b03166001600160a01b031681526020019081526020015f206040518060200160405290815f820154815250509050610e42878381518110610e1057610e10615aad565b6020026020010151858481518110610e2a57610e2a615aad565b6020026020010151836130389092919063ffffffff16565b838381518110610e5457610e54615aad565b602090810291909101015250600101610d88565b50925050505b9392505050565b610e7d612908565b610e863361111c565b15610ea457604051633bf2b50360e11b815260040160405180910390fd5b604051632b6241f360e11b815233600482015263ffffffff841660248201527f00000000000000000000000000000000000000000000000000000000000000006001600160a01b0316906356c483e6906044015f604051808303815f87803b158015610f0e575f5ffd5b505af1158015610f20573d5f5f3e3d5ffd5b50505050610f2e3385613056565b610f3833336130b8565b6040516001600160a01b038516815233907fa453db612af59e5521d6ab9284dc3e2d06af286eb1b1b7b771fce4716c19f2c19060200160405180910390a2336001600160a01b03167f02a919ed0e2acad1dd90f17ef2fa4ae5462ee1339170034a8531cca4b67080908383604051610fb1929190615b3f565b60405180910390a2610fc3600160c955565b50505050565b336001600160a01b037f00000000000000000000000000000000000000000000000000000000000000001614806110285750336001600160a01b037f000000000000000000000000000000000000000000000000000000000000000016145b6110455760405163045206a560e21b815260040160405180910390fd5b61104d612908565b6001600160a01b038481165f908152609a602052604080822054905163152667d960e31b8152908316600482018190528684166024830152927f0000000000000000000000000000000000000000000000000000000000000000169063a9333ec890604401602060405180830381865afa1580156110cd573d5f5f3e3d5ffd5b505050506040513d601f19601f820116820180604052508101906110f19190615b6d565b90505f6110ff87878461335f565b905061110f838888888886613441565b505050610fc3600160c955565b6001600160a01b039081165f908152609a602052604090205416151590565b8161114581613586565b6111625760405163932d94f760e01b815260040160405180910390fd5b61116a612908565b61117383611a21565b611190576040516325ec6c1f60e01b815260040160405180910390fd5b61119a8383613056565b6111a4600160c955565b505050565b60606111d47f0000000000000000000000000000000000000000000000000000000000000000613630565b905090565b60405163237dfb4760e11b81523360048201527f00000000000000000000000000000000000000000000000000000000000000006001600160a01b0316906346fbf68e90602401602060405180830381865afa15801561123b573d5f5f3e3d5ffd5b505050506040513d601f19601f8201168201806040525081019061125f9190615b24565b61127c57604051631d77d47760e21b815260040160405180910390fd5b6112865f19612ffb565b565b5f8160405160200161129a91906157e6565b604051602081830303815290604052805190602001209050919050565b6112bf614c7f565b60606112ca8361366d565b9094909350915050565b6060805f6112e184612762565b8051909150806001600160401b038111156112fe576112fe614e15565b60405190808252806020026020018201604052801561133757816020015b611324614c7f565b81526020019060019003908161131c5790505b509350806001600160401b0381111561135257611352614e15565b60405190808252806020026020018201604052801561138557816020015b60608152602001906001900390816113705790505b5092505f5b818110156113f6576113b48382815181106113a7576113a7615aad565b602002602001015161366d565b8683815181106113c6576113c6615aad565b602002602001018684815181106113df576113df615aad565b60209081029190910101919091525260010161138a565b505050915091565b336001600160a01b037f00000000000000000000000000000000000000000000000000000000000000001614611447576040516323d871a560e01b815260040160405180910390fd5b61144f612908565b6001600160a01b038085165f90815260986020908152604080832093871683529290529081205461148d906001600160401b038086169085166138c0565b90505f61149c868686866138d8565b90505f6114a98284615b9c565b90506114b7875f8886613995565b604080516001600160a01b038881168252602082018490528916917fdd611f4ef63f4385f1756c86ce1f1f389a9013ba6fa07daba8528291bc2d3c30910160405180910390a25f61150787613a0f565b60405163debe1eab60e01b81526001600160a01b038981166004830152602482018590529192509082169063debe1eab906044015f604051808303815f87803b158015611552575f5ffd5b505af1158015611564573d5f5f3e3d5ffd5b5050505050505050610fc3600160c955565b336001600160a01b037f000000000000000000000000000000000000000000000000000000000000000016146115bf57604051633213a66160e21b815260040160405180910390fd5b6115c7612908565b6115d08361111c565b1561119a576001600160a01b038381165f908152609a602052604080822054905163152667d960e31b81529083166004820181905273beac0eeeeeeeeeeeeeeeeeeeeeeeeeeeeeebeac06024830152927f0000000000000000000000000000000000000000000000000000000000000000169063a9333ec890604401602060405180830381865afa158015611667573d5f5f3e3d5ffd5b505050506040513d601f19601f8201168201806040525081019061168b9190615b6d565b6001600160a01b0386165f90815260a26020908152604080832073beac0eeeeeeeeeeeeeeeeeeeeeeeeeeeeeebeac08452825280832081519283019091525481529192506116f1866116e96001600160401b03808716908916613a81565b849190613a95565b9050611713848873beac0eeeeeeeeeeeeeeeeeeeeeeeeeeeeeebeac084613995565b505050506111a4600160c955565b6040516394f649dd60e01b81526001600160a01b03828116600483015260609182915f9182917f000000000000000000000000000000000000000000000000000000000000000016906394f649dd906024015f60405180830381865afa15801561178d573d5f5f3e3d5ffd5b505050506040513d5f823e601f3d908101601f191682016040526117b49190810190615c0a565b60405163fe243a1760e01b81526001600160a01b03888116600483015273beac0eeeeeeeeeeeeeeeeeeeeeeeeeeeeeebeac060248301529294509092505f917f0000000000000000000000000000000000000000000000000000000000000000169063fe243a1790604401602060405180830381865afa15801561183a573d5f5f3e3d5ffd5b505050506040513d601f19601f8201168201806040525081019061185e9190615cc5565b9050805f0361187257509094909350915050565b5f835160016118819190615b9c565b6001600160401b0381111561189857611898614e15565b6040519080825280602002602001820160405280156118c1578160200160208202803683370190505b5090505f845160016118d39190615b9c565b6001600160401b038111156118ea576118ea614e15565b604051908082528060200260200182016040528015611913578160200160208202803683370190505b50905073beac0eeeeeeeeeeeeeeeeeeeeeeeeeeeeeebeac08286518151811061193e5761193e615aad565b60200260200101906001600160a01b031690816001600160a01b031681525050828186518151811061197257611972615aad565b60209081029190910101525f5b8551811015611a135785818151811061199a5761199a615aad565b60200260200101518382815181106119b4576119b4615aad565b60200260200101906001600160a01b031690816001600160a01b0316815250508481815181106119e6576119e6615aad565b6020026020010151828281518110611a0057611a00615aad565b602090810291909101015260010161197f565b509097909650945050505050565b5f6001600160a01b03821615801590611a5357506001600160a01b038083165f818152609a6020526040902054909116145b92915050565b60405163152667d960e31b81526001600160a01b03838116600483015282811660248301525f9182917f0000000000000000000000000000000000000000000000000000000000000000169063a9333ec890604401602060405180830381865afa158015611ac9573d5f5f3e3d5ffd5b505050506040513d601f19601f82011682018060405250810190611aed9190615b6d565b9050611afb8484835f6138d8565b949350505050565b611b0b613ab3565b6112865f613b0d565b82611b1e81613586565b611b3b5760405163932d94f760e01b815260040160405180910390fd5b611b4484611a21565b611b61576040516325ec6c1f60e01b815260040160405180910390fd5b836001600160a01b03167f02a919ed0e2acad1dd90f17ef2fa4ae5462ee1339170034a8531cca4b67080908484604051611b9c929190615b3f565b60405180910390a250505050565b5f611afb84848461335f565b60605f82516001600160401b03811115611bd257611bd2614e15565b604051908082528060200260200182016040528015611bfb578160200160208202803683370190505b5090505f5b8351811015611c84576001600160a01b0385165f9081526098602052604081208551909190869084908110611c3757611c37615aad565b60200260200101516001600160a01b03166001600160a01b031681526020019081526020015f2054828281518110611c7157611c71615aad565b6020908102919091010152600101611c00565b509392505050565b606654600290600490811603611cb55760405163840a48d560e01b815260040160405180910390fd5b611cbd612908565b855f5b81811015611d5057611d48898983818110611cdd57611cdd615aad565b9050602002810190611cef9190615cdc565b611cf890615cf0565b888884818110611d0a57611d0a615aad565b9050602002810190611d1c9190615adf565b888886818110611d2e57611d2e615aad565b9050602002016020810190611d439190615cfb565b613b5e565b600101611cc0565b5050611d5c600160c955565b50505050505050565b611d6d614c7f565b5f82815260a46020908152604091829020825160e08101845281546001600160a01b03908116825260018301548116828501526002830154168185015260038201546060820152600482015463ffffffff1660808201526005820180548551818602810186019096528086529194929360a08601939290830182828015611e1b57602002820191905f5260205f20905b81546001600160a01b03168152600190910190602001808311611dfd575b5050505050815260200160068201805480602002602001604051908101604052809291908181526020018280548015611e7157602002820191905f5260205f20905b815481526020019060010190808311611e5d575b5050505050815250509050919050565b6060611e8c3361228a565b9050610e6e848484612409565b6001600160a01b038083165f90815260a260209081526040808320938516835292815282822083519182019093529154825290610e6e90613fa0565b60608082516001600160401b03811115611ef157611ef1614e15565b604051908082528060200260200182016040528015611f1a578160200160208202803683370190505b50915082516001600160401b03811115611f3657611f36614e15565b604051908082528060200260200182016040528015611f5f578160200160208202803683370190505b506001600160a01b038086165f908152609a6020526040812054929350911690611f8a868387612961565b90505f5b8551811015612157575f611fba878381518110611fad57611fad615aad565b6020026020010151613a0f565b9050806001600160a01b031663fe243a1789898581518110611fde57611fde615aad565b60200260200101516040518363ffffffff1660e01b81526004016120189291906001600160a01b0392831681529116602082015260400190565b602060405180830381865afa158015612033573d5f5f3e3d5ffd5b505050506040513d601f19601f820116820180604052508101906120579190615cc5565b85838151811061206957612069615aad565b6020026020010181815250505f60a25f8a6001600160a01b03166001600160a01b031681526020019081526020015f205f8985815181106120ac576120ac615aad565b60200260200101516001600160a01b03166001600160a01b031681526020019081526020015f206040518060200160405290815f8201548152505090506121308684815181106120fe576120fe615aad565b602002602001015185858151811061211857612118615aad565b602002602001015183613a959092919063ffffffff16565b87848151811061214257612142615aad565b60209081029190910101525050600101611f8e565b5050505b9250929050565b6060611afb848484612961565b5f54610100900460ff161580801561218d57505f54600160ff909116105b806121a65750303b1580156121a657505f5460ff166001145b61220e5760405162461bcd60e51b815260206004820152602e60248201527f496e697469616c697a61626c653a20636f6e747261637420697320616c72656160448201526d191e481a5b9a5d1a585b1a5e995960921b60648201526084015b60405180910390fd5b5f805460ff19166001179055801561222f575f805461ff0019166101001790555b61223882612ffb565b61224183613b0d565b80156111a4575f805461ff0019169055604051600181527f7f26b83ff96e1f2b6a682f133852f6798a09c465da95921460cefb38474024989060200160405180910390a1505050565b6060612294612908565b61229d8261111c565b6122ba5760405163a5c7c44560e01b815260040160405180910390fd5b6122c382611a21565b156122e1576040516311ca333560e31b815260040160405180910390fd5b336001600160a01b03831614612399576001600160a01b038083165f908152609a60205260409020541661231481613586565b8061233a57506001600160a01b038181165f908152609960205260409020600101541633145b61235757604051631e499a2360e11b815260040160405180910390fd5b806001600160a01b0316836001600160a01b03167ff0eddf07e6ea14f388b47e1e94a0f464ecbd9eed4171130e0fc0e99fb4030a8a60405160405180910390a3505b6123a282613fbf565b90506123ae600160c955565b919050565b6066546002906004908116036123dc5760405163840a48d560e01b815260040160405180910390fd5b6123e4612908565b6123f86123f086615cf0565b858585613b5e565b612402600160c955565b5050505050565b612411612908565b61241a3361111c565b1561243857604051633bf2b50360e11b815260040160405180910390fd5b61244183611a21565b61245e576040516325ec6c1f60e01b815260040160405180910390fd5b61246a3384848461421e565b61119a33846130b8565b60605f83516001600160401b0381111561249057612490614e15565b6040519080825280602002602001820160405280156124c357816020015b60608152602001906001900390816124ae5790505b5090505f5b8451811015611c84576124f48582815181106124e6576124e6615aad565b602002602001015185611bb6565b82828151811061250657612506615aad565b60209081029190910101526001016124c8565b612521613ab3565b6001600160a01b0381166125865760405162461bcd60e51b815260206004820152602660248201527f4f776e61626c653a206e6577206f776e657220697320746865207a65726f206160448201526564647265737360d01b6064820152608401612205565b61258f81613b0d565b50565b60408051808201909152600a81526922b4b3b2b72630bcb2b960b11b6020909101525f7f8b73c3c69bb8fe3d512ecc4cf759cc79239f7b179b0ffacaa9a75d522b39400f7f71b625cfad44bac63b13dba07f2e1d6084ee04b6f8752101ece6126d584ee6ea6125ff6142dd565b805160209182012060408051928301949094529281019190915260608101919091524660808201523060a082015260c00160405160208183030381529060405280519060200120905090565b7f00000000000000000000000000000000000000000000000000000000000000006001600160a01b031663eab66d7a6040518163ffffffff1660e01b8152600401602060405180830381865afa1580156126a7573d5f5f3e3d5ffd5b505050506040513d601f19601f820116820180604052508101906126cb9190615d16565b6001600160a01b0316336001600160a01b0316146126fc5760405163794821ff60e01b815260040160405180910390fd5b606654801982198116146127235760405163c61dca5d60e01b815260040160405180910390fd5b606682905560405182815233907f3582d1828e26bf56bd801502bc021ac0bc8afb57c826e4986b45593c8fad389c906020015b60405180910390a25050565b6001600160a01b0381165f90815260a360205260409020606090611a5390614379565b5f61278e612592565b60405161190160f01b602082015260228101919091526042810183905260620161129a565b60605f83516001600160401b038111156127cf576127cf614e15565b6040519080825280602002602001820160405280156127f8578160200160208202803683370190505b5090505f7f00000000000000000000000000000000000000000000000000000000000000006001600160a01b03166394d7d00c8787876040518463ffffffff1660e01b815260040161284c93929190615d31565b5f60405180830381865afa158015612866573d5f5f3e3d5ffd5b505050506040513d5f823e601f3d908101601f1916820160405261288d9190810190615d6a565b90505f5b85518110156128fc576128d7888783815181106128b0576128b0615aad565b60200260200101518484815181106128ca576128ca615aad565b602002602001015161335f565b8382815181106128e9576128e9615aad565b6020908102919091010152600101612891565b50909695505050505050565b600260c9540361295a5760405162461bcd60e51b815260206004820152601f60248201527f5265656e7472616e637947756172643a207265656e7472616e742063616c6c006044820152606401612205565b600260c955565b60605f82516001600160401b0381111561297d5761297d614e15565b6040519080825280602002602001820160405280156129a6578160200160208202803683370190505b5090505f7f00000000000000000000000000000000000000000000000000000000000000006001600160a01b031663547afb8786866040518363ffffffff1660e01b81526004016129f8929190615df9565b5f60405180830381865afa158015612a12573d5f5f3e3d5ffd5b505050506040513d5f823e601f3d908101601f19168201604052612a399190810190615d6a565b90505f5b8451811015612a8157612a5c878683815181106128b0576128b0615aad565b838281518110612a6e57612a6e615aad565b6020908102919091010152600101612a3d565b509095945050505050565b5f6001600160a01b038616612ab4576040516339b190bb60e11b815260040160405180910390fd5b83515f03612ad55760405163796cc52560e01b815260040160405180910390fd5b5f84516001600160401b03811115612aef57612aef614e15565b604051908082528060200260200182016040528015612b18578160200160208202803683370190505b5090505f85516001600160401b03811115612b3557612b35614e15565b604051908082528060200260200182016040528015612b5e578160200160208202803683370190505b5090505f5b8651811015612e2e575f612b82888381518110611fad57611fad615aad565b90505f60a25f8c6001600160a01b03166001600160a01b031681526020019081526020015f205f8a8581518110612bbb57612bbb615aad565b60200260200101516001600160a01b03166001600160a01b031681526020019081526020015f206040518060200160405290815f820154815250509050612c27888481518110612c0d57612c0d615aad565b602002602001015188858151811061211857612118615aad565b848481518110612c3957612c39615aad565b602002602001018181525050612c71888481518110612c5a57612c5a615aad565b60200260200101518261438590919063ffffffff16565b858481518110612c8357612c83615aad565b60209081029190910101526001600160a01b038a1615612d1857612cda8a8a8581518110612cb357612cb3615aad565b6020026020010151878681518110612ccd57612ccd615aad565b6020026020010151614399565b612d188a8c8b8681518110612cf157612cf1615aad565b6020026020010151878781518110612d0b57612d0b615aad565b6020026020010151613995565b5f826001600160a01b031663724af4238d8c8781518110612d3b57612d3b615aad565b60200260200101518c8881518110612d5557612d55615aad565b60200260200101516040518463ffffffff1660e01b8152600401612d7b93929190615e1c565b6020604051808303815f875af1158015612d97573d5f5f3e3d5ffd5b505050506040513d601f19601f82011682018060405250810190612dbb9190615cc5565b9050805f03612e20576001600160a01b038c165f90815260a2602052604081208b51612e2092908d9088908110612df457612df4615aad565b60200260200101516001600160a01b03166001600160a01b031681526020019081526020015f205f9055565b505050806001019050612b63565b506001600160a01b0388165f908152609f60205260408120805491829190612e5583615e40565b91905055505f6040518060e001604052808b6001600160a01b031681526020018a6001600160a01b031681526020018b6001600160a01b031681526020018381526020014363ffffffff1681526020018981526020018581525090505f612ebb82611288565b5f818152609e602090815260408083208054600160ff19909116811790915560a4835292819020865181546001600160a01b03199081166001600160a01b039283161783558885015195830180548216968316969096179095559187015160028201805490951692169190911790925560608501516003830155608085015160048301805463ffffffff191663ffffffff90921691909117905560a085015180519394508593612f719260058501920190614cd8565b5060c08201518051612f8d916006840191602090910190614d3b565b5050506001600160a01b038b165f90815260a360205260409020612fb19082614403565b507f26b2aae26516e8719ef50ea2f6831a2efbd4e37dccdf0f6936b27bc08e793e30818386604051612fe593929190615e58565b60405180910390a19a9950505050505050505050565b606681905560405181815233907fab40a374bc51de372200a8bc981af8c9ecdc08dfdaef0bb6e09f88f3c616ef3d9060200160405180910390a250565b5f611afb8261305061304987613fa0565b869061440e565b9061440e565b6001600160a01b038281165f8181526099602090815260409182902060010180546001600160a01b0319169486169485179055905192835290917f773b54c04d756fcc5e678111f7d730de3be98192000799eee3d63716055a87c69101612756565b6066545f906001908116036130e05760405163840a48d560e01b815260040160405180910390fd5b5f5f6130eb85611721565b915091505f6130fb5f8685612961565b6001600160a01b038781165f818152609a602052604080822080546001600160a01b031916948b16948517905551939450919290917fc3ee9f2e5fda98e8066a1f745b2df9285f416fe98cf2559cd21484b3d874330491a35f5b8351811015611d5c5773beac0eeeeeeeeeeeeeeeeeeeeeeeeeeeeeebeac06001600160a01b031684828151811061318e5761318e615aad565b60200260200101516001600160a01b0316036132fe5760405163a3d75e0960e01b81526001600160a01b0388811660048301525f917f00000000000000000000000000000000000000000000000000000000000000009091169063a3d75e0990602401602060405180830381865afa15801561320c573d5f5f3e3d5ffd5b505050506040513d601f19601f820116820180604052508101906132309190615b6d565b90505f60a25f8a6001600160a01b03166001600160a01b031681526020019081526020015f205f87858151811061326957613269615aad565b60200260200101516001600160a01b03166001600160a01b031681526020019081526020015f206040518060200160405290815f8201548152505090506132dd8584815181106132bb576132bb615aad565b6020026020010151836001600160401b031683613a959092919063ffffffff16565b8584815181106132ef576132ef615aad565b60200260200101818152505050505b613357868886848151811061331557613315615aad565b60200260200101515f87868151811061333057613330615aad565b602002602001015187878151811061334a5761334a615aad565b6020026020010151613441565b600101613155565b5f73beac0eeeeeeeeeeeeeeeeeeeeeeeeeeeeeebeabf196001600160a01b038416016134315760405163a3d75e0960e01b81526001600160a01b0385811660048301525f917f00000000000000000000000000000000000000000000000000000000000000009091169063a3d75e0990602401602060405180830381865afa1580156133ed573d5f5f3e3d5ffd5b505050506040513d601f19601f820116820180604052508101906134119190615b6d565b90506134296001600160401b03848116908316613a81565b915050610e6e565b506001600160401b031692915050565b805f0361346157604051630a33bc6960e21b815260040160405180910390fd5b811561357e576001600160a01b038086165f90815260a26020908152604080832093881683529290522061349781858585614422565b6040805160208101909152815481527f8be932bac54561f27260f95463d9b8ab37e06b2842e5ee2404157cc13df6eb8f90879087906134d590613fa0565b6040516134e493929190615e1c565b60405180910390a16134f58661111c565b15611d5c576001600160a01b038088165f90815260986020908152604080832093891683529290529081208054859290613530908490615b9c565b92505081905550866001600160a01b03167f1ec042c965e2edd7107b51188ee0f383e22e76179041ab3a9d18ff151405166c87878660405161357493929190615e1c565b60405180910390a2505b505050505050565b604051631beb2b9760e31b81526001600160a01b0382811660048301523360248301523060448301525f80356001600160e01b0319166064840152917f00000000000000000000000000000000000000000000000000000000000000009091169063df595cb8906084016020604051808303815f875af115801561360c573d5f5f3e3d5ffd5b505050506040513d601f19601f82011682018060405250810190611a539190615b24565b60605f61363c8361449d565b6040805160208082528183019092529192505f91906020820181803683375050509182525060208101929092525090565b613675614c7f565b5f82815260a46020908152604091829020825160e08101845281546001600160a01b0390811682526001830154811682850152600283015416818501526003820154606082810191909152600483015463ffffffff1660808301526005830180548651818702810187019097528087529195929460a0860193929083018282801561372757602002820191905f5260205f20905b81546001600160a01b03168152600190910190602001808311613709575b505050505081526020016006820180548060200260200160405190810160405280929190818152602001828054801561377d57602002820191905f5260205f20905b815481526020019060010190808311613769575b50505050508152505091508160a00151516001600160401b038111156137a5576137a5614e15565b6040519080825280602002602001820160405280156137ce578160200160208202803683370190505b5090505f7f000000000000000000000000000000000000000000000000000000000000000083608001516138029190615e82565b90505f4363ffffffff168263ffffffff16106138335761382e845f015185602001518660a00151612961565b61384a565b61384a845f015185602001518660a00151856127b3565b90505f5b8460a00151518110156113f65761389b8560c00151828151811061387457613874615aad565b602002602001015183838151811061388e5761388e615aad565b60200260200101516144c4565b8482815181106138ad576138ad615aad565b602090810291909101015260010161384e565b5f6138ce84838560016144cf565b611afb9085615e9e565b6001600160a01b038085165f90815260a560209081526040808320938716835292905290812081906139099061451e565b90505f61396f600161393b7f000000000000000000000000000000000000000000000000000000000000000043615eb1565b6139459190615eb1565b6001600160a01b03808a165f90815260a560209081526040808320938c1683529290522090614538565b90505f61397c8284615e9e565b9050613989818787614554565b98975050505050505050565b6001600160a01b038085165f908152609860209081526040808320938616835292905290812080548392906139cb908490615e9e565b92505081905550836001600160a01b03167f6909600037b75d7b4733aedd815442b5ec018a827751c832aaff64eba5d6d2dd848484604051611b9c93929190615e1c565b5f6001600160a01b03821673beac0eeeeeeeeeeeeeeeeeeeeeeeeeeeeeebeac014613a5a577f0000000000000000000000000000000000000000000000000000000000000000611a53565b7f000000000000000000000000000000000000000000000000000000000000000092915050565b5f610e6e8383670de0b6b3a7640000614572565b5f611afb82613aad613aa687613fa0565b8690613a81565b90613a81565b6033546001600160a01b031633146112865760405162461bcd60e51b815260206004820181905260248201527f4f776e61626c653a2063616c6c6572206973206e6f7420746865206f776e65726044820152606401612205565b603380546001600160a01b038381166001600160a01b0319831681179093556040519116919082907f8be0079c531659141344cd1fd0a4f28419497f9722a3daafe3b4186f6b6457e0905f90a35050565b60a0840151518214613b83576040516343714afd60e01b815260040160405180910390fd5b83604001516001600160a01b0316336001600160a01b031614613bb9576040516316110d3560e21b815260040160405180910390fd5b5f613bc385611288565b5f818152609e602052604090205490915060ff16613bf4576040516387c9d21960e01b815260040160405180910390fd5b60605f7f00000000000000000000000000000000000000000000000000000000000000008760800151613c279190615e82565b90508063ffffffff164363ffffffff1611613c55576040516378f67ae160e11b815260040160405180910390fd5b613c6c875f015188602001518960a00151846127b3565b87516001600160a01b03165f90815260a360205260409020909250613c92915083614657565b505f82815260a46020526040812080546001600160a01b031990811682556001820180548216905560028201805490911690556003810182905560048101805463ffffffff1916905590613ce96005830182614d74565b613cf6600683015f614d74565b50505f828152609e602052604090819020805460ff19169055517f1f40400889274ed07b24845e5054a87a0cab969eb1277aafe61ae352e7c32a0090613d3f9084815260200190565b60405180910390a185516001600160a01b039081165f908152609a6020526040812054885160a08a01519190931692613d79918490612961565b90505f5b8860a0015151811015613f95575f613da48a60a001518381518110611fad57611fad615aad565b90505f613dda8b60c001518481518110613dc057613dc0615aad565b602002602001015187858151811061388e5761388e615aad565b9050805f03613dea575050613f8d565b8715613eb857816001600160a01b0316632eae418c8c5f01518d60a001518681518110613e1957613e19615aad565b60200260200101518d8d88818110613e3357613e33615aad565b9050602002016020810190613e48919061527e565b60405160e085901b6001600160e01b03191681526001600160a01b03938416600482015291831660248301529091166044820152606481018490526084015f604051808303815f87803b158015613e9d575f5ffd5b505af1158015613eaf573d5f5f3e3d5ffd5b50505050613f8a565b5f5f836001600160a01b03166350ff72258e5f01518f60a001518881518110613ee357613ee3615aad565b6020026020010151866040518463ffffffff1660e01b8152600401613f0a93929190615e1c565b60408051808303815f875af1158015613f25573d5f5f3e3d5ffd5b505050506040513d601f19601f82011682018060405250810190613f499190615ecd565b91509150613f87878e5f01518f60a001518881518110613f6b57613f6b615aad565b602002602001015185858b8b8151811061334a5761334a615aad565b50505b50505b600101613d7d565b505050505050505050565b80515f9015613fb0578151611a53565b670de0b6b3a764000092915050565b606654606090600190600290811603613feb5760405163840a48d560e01b815260040160405180910390fd5b6001600160a01b038084165f818152609a602052604080822080546001600160a01b0319811690915590519316928392917ffee30966a256b71e14bc0ebfc94315e28ef4a97a7131a9e2b7a310a73af4467691a35f5f61404a86611721565b9150915081515f0361405e57505050614218565b81516001600160401b0381111561407757614077614e15565b6040519080825280602002602001820160405280156140a0578160200160208202803683370190505b5094505f6140af878585612961565b90505f5b8351811015614212576040805160018082528183019092525f916020808301908036833750506040805160018082528183019092529293505f9291506020808301908036833750506040805160018082528183019092529293505f9291506020808301908036833701905050905086848151811061413357614133615aad565b6020026020010151835f8151811061414d5761414d615aad565b60200260200101906001600160a01b031690816001600160a01b03168152505085848151811061417f5761417f615aad565b6020026020010151825f8151811061419957614199615aad565b6020026020010181815250508484815181106141b7576141b7615aad565b6020026020010151815f815181106141d1576141d1615aad565b6020026020010181815250506141ea8b89858585612a8c565b8a85815181106141fc576141fc615aad565b60209081029190910101525050506001016140b3565b50505050505b50919050565b6001600160a01b038084165f9081526099602052604090206001015416806142465750610fc3565b6001600160a01b0381165f908152609c6020908152604080832085845290915290205460ff161561428a57604051630d4c4c9160e21b815260040160405180910390fd5b6001600160a01b0381165f908152609c602090815260408083208584528252909120805460ff191660011790558301516124029082906142d1908890889084908890610910565b85516020870151614662565b60605f6143097f0000000000000000000000000000000000000000000000000000000000000000613630565b9050805f8151811061431d5761431d615aad565b602001015160f81c60f81b8160018151811061433b5761433b615aad565b016020908101516040516001600160f81b03199384169281019290925291909116602182015260220160405160208183030381529060405291505090565b60605f610e6e836146b4565b5f610e6e61439284613fa0565b8390613a81565b6001600160a01b038084165f90815260a56020908152604080832093861683529290529081206143c89061451e565b9050610fc3436143d88484615b9c565b6001600160a01b038088165f90815260a560209081526040808320938a16835292905220919061470d565b5f610e6e8383614718565b5f610e6e83670de0b6b3a764000084614572565b825f0361444e5760408051602081019091528454815261444790829061305090613fa0565b8455610fc3565b6040805160208101909152845481525f9061446a908584613a95565b90505f6144778483615b9c565b90505f6144928461305061448b888a615b9c565b859061440e565b875550505050505050565b5f60ff8216601f811115611a5357604051632cd44ac360e21b815260040160405180910390fd5b5f610e6e8383613a81565b5f5f6144dc868686614572565b905060018360028111156144f2576144f2615eef565b14801561450e57505f848061450957614509615f03565b868809115b156109a65761098e600182615b9c565b5f6145298282614764565b6001600160e01b031692915050565b5f6145448383836147a9565b6001600160e01b03169392505050565b5f611afb6145628385615f17565b85906001600160401b0316613a81565b5f80805f19858709858702925082811083820303915050805f036145a95783828161459f5761459f615f03565b0492505050610e6e565b8084116145f05760405162461bcd60e51b81526020600482015260156024820152744d6174683a206d756c446976206f766572666c6f7760581b6044820152606401612205565b5f8486880960026001871981018816978890046003810283188082028403028082028403028082028403028082028403028082028403029081029092039091025f889003889004909101858311909403939093029303949094049190911702949350505050565b5f610e6e83836147f2565b4281101561468357604051630819bdcd60e01b815260040160405180910390fd5b6146976001600160a01b03851684846148d5565b610fc357604051638baa579f60e01b815260040160405180910390fd5b6060815f0180548060200260200160405190810160405280929190818152602001828054801561470157602002820191905f5260205f20905b8154815260200190600101908083116146ed575b50505050509050919050565b6111a4838383614929565b5f81815260018301602052604081205461475d57508154600181810184555f848152602080822090930184905584548482528286019093526040902091909155611a53565b505f611a53565b81545f9080156147a15761478a8461477d600184615e9e565b5f91825260209091200190565b5464010000000090046001600160e01b0316611afb565b509092915050565b82545f90816147ba86868385614a2f565b905080156147e8576147d18661477d600184615e9e565b5464010000000090046001600160e01b031661098e565b5091949350505050565b5f81815260018301602052604081205480156148cc575f614814600183615e9e565b85549091505f9061482790600190615e9e565b9050818114614886575f865f01828154811061484557614845615aad565b905f5260205f200154905080875f01848154811061486557614865615aad565b5f918252602080832090910192909255918252600188019052604090208390555b855486908061489757614897615f36565b600190038181905f5260205f20015f90559055856001015f8681526020019081526020015f205f905560019350505050611a53565b5f915050611a53565b5f5f5f6148e28585614a82565b90925090505f8160048111156148fa576148fa615eef565b1480156149185750856001600160a01b0316826001600160a01b0316145b8061098e575061098e868686614ac1565b825480156149e1575f6149418561477d600185615e9e565b60408051808201909152905463ffffffff8082168084526401000000009092046001600160e01b0316602084015291925090851610156149945760405163151b8e3f60e11b815260040160405180910390fd5b805163ffffffff8086169116036149df57826149b58661477d600186615e9e565b80546001600160e01b03929092166401000000000263ffffffff9092169190911790555050505050565b505b506040805180820190915263ffffffff92831681526001600160e01b03918216602080830191825285546001810187555f968752952091519051909216640100000000029190921617910155565b5f5b81831015611c84575f614a448484614ba8565b5f8781526020902090915063ffffffff86169082015463ffffffff161115614a6e57809250614a7c565b614a79816001615b9c565b93505b50614a31565b5f5f8251604103614ab6576020830151604084015160608501515f1a614aaa87828585614bc2565b9450945050505061215b565b505f9050600261215b565b5f5f5f856001600160a01b0316631626ba7e60e01b8686604051602401614ae9929190615f4a565b60408051601f198184030181529181526020820180516001600160e01b03166001600160e01b0319909416939093179092529051614b279190615f62565b5f60405180830381855afa9150503d805f8114614b5f576040519150601f19603f3d011682016040523d82523d5f602084013e614b64565b606091505b5091509150818015614b7857506020815110155b801561098e57508051630b135d3f60e11b90614b9d9083016020908101908401615cc5565b149695505050505050565b5f614bb66002848418615f78565b610e6e90848416615b9c565b5f807f7fffffffffffffffffffffffffffffff5d576e7357a4501ddfe92f46681b20a0831115614bf757505f90506003614c76565b604080515f8082526020820180845289905260ff881692820192909252606081018690526080810185905260019060a0016020604051602081039080840390855afa158015614c48573d5f5f3e3d5ffd5b5050604051601f1901519150506001600160a01b038116614c70575f60019250925050614c76565b91505f90505b94509492505050565b6040518060e001604052805f6001600160a01b031681526020015f6001600160a01b031681526020015f6001600160a01b031681526020015f81526020015f63ffffffff16815260200160608152602001606081525090565b828054828255905f5260205f20908101928215614d2b579160200282015b82811115614d2b57825182546001600160a01b0319166001600160a01b03909116178255602090920191600190910190614cf6565b50614d37929150614d8b565b5090565b828054828255905f5260205f20908101928215614d2b579160200282015b82811115614d2b578251825591602001919060010190614d59565b5080545f8255905f5260205f209081019061258f91905b5b80821115614d37575f8155600101614d8c565b6001600160a01b038116811461258f575f5ffd5b80356123ae81614d9f565b5f5f5f5f5f60a08688031215614dd2575f5ffd5b8535614ddd81614d9f565b94506020860135614ded81614d9f565b93506040860135614dfd81614d9f565b94979396509394606081013594506080013592915050565b634e487b7160e01b5f52604160045260245ffd5b60405160e081016001600160401b0381118282101715614e4b57614e4b614e15565b60405290565b604080519081016001600160401b0381118282101715614e4b57614e4b614e15565b604051601f8201601f191681016001600160401b0381118282101715614e9b57614e9b614e15565b604052919050565b5f6001600160401b03821115614ebb57614ebb614e15565b5060051b60200190565b5f82601f830112614ed4575f5ffd5b8135614ee7614ee282614ea3565b614e73565b8082825260208201915060208360051b860101925085831115614f08575f5ffd5b602085015b83811015614f2e578035614f2081614d9f565b835260209283019201614f0d565b5095945050505050565b803563ffffffff811681146123ae575f5ffd5b5f5f5f5f60808587031215614f5e575f5ffd5b8435614f6981614d9f565b93506020850135614f7981614d9f565b925060408501356001600160401b03811115614f93575f5ffd5b614f9f87828801614ec5565b925050614fae60608601614f38565b905092959194509250565b5f8151808452602084019350602083015f5b82811015614fe9578151865260209586019590910190600101614fcb565b5093949350505050565b602081525f610e6e6020830184614fb9565b5f5f83601f840112615015575f5ffd5b5081356001600160401b0381111561502b575f5ffd5b6020830191508360208260051b850101111561215b575f5ffd5b5f5f60208385031215615056575f5ffd5b82356001600160401b0381111561506b575f5ffd5b61507785828601615005565b90969095509350505050565b602080825282518282018190525f918401906040840190835b81811015612a8157835183526020938401939092019160010161509c565b5f602082840312156150ca575f5ffd5b5035919050565b5f82601f8301126150e0575f5ffd5b81356150ee614ee282614ea3565b8082825260208201915060208360051b86010192508583111561510f575f5ffd5b602085015b83811015614f2e578035835260209283019201615114565b5f5f5f6060848603121561513e575f5ffd5b833561514981614d9f565b925060208401356001600160401b03811115615163575f5ffd5b61516f86828701614ec5565b92505060408401356001600160401b0381111561518a575f5ffd5b615196868287016150d1565b9150509250925092565b5f5f83601f8401126151b0575f5ffd5b5081356001600160401b038111156151c6575f5ffd5b60208301915083602082850101111561215b575f5ffd5b5f5f5f5f606085870312156151f0575f5ffd5b84356151fb81614d9f565b935061520960208601614f38565b925060408501356001600160401b03811115615223575f5ffd5b61522f878288016151a0565b95989497509550505050565b5f5f5f5f6080858703121561524e575f5ffd5b843561525981614d9f565b9350602085013561526981614d9f565b93969395505050506040820135916060013590565b5f6020828403121561528e575f5ffd5b8135610e6e81614d9f565b5f5f604083850312156152aa575f5ffd5b82356152b581614d9f565b915060208301356152c581614d9f565b809150509250929050565b5f81518084528060208401602086015e5f602082860101526020601f19601f83011685010191505092915050565b602081525f610e6e60208301846152d0565b5f60e08284031215615320575f5ffd5b615328614e29565b905061533382614db3565b815261534160208301614db3565b602082015261535260408301614db3565b60408201526060828101359082015261536d60808301614f38565b608082015260a08201356001600160401b0381111561538a575f5ffd5b61539684828501614ec5565b60a08301525060c08201356001600160401b038111156153b4575f5ffd5b6153c0848285016150d1565b60c08301525092915050565b5f602082840312156153dc575f5ffd5b81356001600160401b038111156153f1575f5ffd5b611afb84828501615310565b5f6020828403121561540d575f5ffd5b813560ff81168114610e6e575f5ffd5b5f8151808452602084019350602083015f5b82811015614fe95781516001600160a01b031686526020958601959091019060010161542f565b80516001600160a01b03908116835260208083015182169084015260408083015190911690830152606080820151908301526080808201515f916154a19085018263ffffffff169052565b5060a082015160e060a08501526154bb60e085018261541d565b905060c083015184820360c08601526109a68282614fb9565b604081525f6154e66040830185615456565b82810360208401526109a68185614fb9565b5f82825180855260208501945060208160051b830101602085015f5b838110156128fc57601f19858403018852615530838351614fb9565b6020988901989093509190910190600101615514565b5f604082016040835280855180835260608501915060608160051b8601019250602087015f5b8281101561559d57605f19878603018452615588858351615456565b9450602093840193919091019060010161556c565b5050505082810360208401526109a681856154f8565b6001600160401b038116811461258f575f5ffd5b5f5f5f5f608085870312156155da575f5ffd5b84356155e581614d9f565b935060208501356155f581614d9f565b92506040850135615605816155b3565b91506060850135615615816155b3565b939692955090935050565b5f5f5f60608486031215615632575f5ffd5b833561563d81614d9f565b9250602084013591506040840135615654816155b3565b809150509250925092565b604081525f6154e6604083018561541d565b5f5f5f60408486031215615683575f5ffd5b833561568e81614d9f565b925060208401356001600160401b038111156156a8575f5ffd5b6156b4868287016151a0565b9497909650939450505050565b5f5f5f606084860312156156d3575f5ffd5b83356156de81614d9f565b925060208401356156ee81614d9f565b91506040840135615654816155b3565b5f5f6040838503121561570f575f5ffd5b823561571a81614d9f565b915060208301356001600160401b03811115615734575f5ffd5b61574085828601614ec5565b9150509250929050565b5f5f5f5f5f5f6060878903121561575f575f5ffd5b86356001600160401b03811115615774575f5ffd5b61578089828a01615005565b90975095505060208701356001600160401b0381111561579e575f5ffd5b6157aa89828a01615005565b90955093505060408701356001600160401b038111156157c8575f5ffd5b6157d489828a01615005565b979a9699509497509295939492505050565b602081525f610e6e6020830184615456565b5f5f5f6060848603121561580a575f5ffd5b833561581581614d9f565b925060208401356001600160401b0381111561582f575f5ffd5b840160408187031215615840575f5ffd5b615848614e51565b81356001600160401b0381111561585d575f5ffd5b8201601f8101881361586d575f5ffd5b80356001600160401b0381111561588657615886614e15565b615899601f8201601f1916602001614e73565b8181528960208385010111156158ad575f5ffd5b816020840160208301375f60209282018301528352928301359282019290925293969395505050506040919091013590565b5f5f604083850312156158f0575f5ffd5b82356158fb81614d9f565b946020939093013593505050565b604081525f6154e66040830185614fb9565b5f5f5f6060848603121561592d575f5ffd5b833561593881614d9f565b9250602084013561594881614d9f565b915060408401356001600160401b03811115615962575f5ffd5b61519686828701614ec5565b801515811461258f575f5ffd5b5f5f5f5f6060858703121561598e575f5ffd5b84356001600160401b038111156159a3575f5ffd5b850160e081880312156159b4575f5ffd5b935060208501356001600160401b038111156159ce575f5ffd5b6159da87828801615005565b90945092505060408501356156158161596e565b5f5f604083850312156159ff575f5ffd5b82356001600160401b03811115615a14575f5ffd5b8301601f81018513615a24575f5ffd5b8035615a32614ee282614ea3565b8082825260208201915060208360051b850101925087831115615a53575f5ffd5b6020840193505b82841015615a7e578335615a6d81614d9f565b825260209384019390910190615a5a565b945050505060208301356001600160401b03811115615734575f5ffd5b602081525f610e6e60208301846154f8565b634e487b7160e01b5f52603260045260245ffd5b5f8235605e19833603018112615ad5575f5ffd5b9190910192915050565b5f5f8335601e19843603018112615af4575f5ffd5b8301803591506001600160401b03821115615b0d575f5ffd5b6020019150600581901b360382131561215b575f5ffd5b5f60208284031215615b34575f5ffd5b8151610e6e8161596e565b60208152816020820152818360408301375f818301604090810191909152601f909201601f19160101919050565b5f60208284031215615b7d575f5ffd5b8151610e6e816155b3565b634e487b7160e01b5f52601160045260245ffd5b80820180821115611a5357611a53615b88565b5f82601f830112615bbe575f5ffd5b8151615bcc614ee282614ea3565b8082825260208201915060208360051b860101925085831115615bed575f5ffd5b602085015b83811015614f2e578051835260209283019201615bf2565b5f5f60408385031215615c1b575f5ffd5b82516001600160401b03811115615c30575f5ffd5b8301601f81018513615c40575f5ffd5b8051615c4e614ee282614ea3565b8082825260208201915060208360051b850101925087831115615c6f575f5ffd5b6020840193505b82841015615c9a578351615c8981614d9f565b825260209384019390910190615c76565b8095505050505060208301516001600160401b03811115615cb9575f5ffd5b61574085828601615baf565b5f60208284031215615cd5575f5ffd5b5051919050565b5f823560de19833603018112615ad5575f5ffd5b5f611a533683615310565b5f60208284031215615d0b575f5ffd5b8135610e6e8161596e565b5f60208284031215615d26575f5ffd5b8151610e6e81614d9f565b6001600160a01b03841681526060602082018190525f90615d549083018561541d565b905063ffffffff83166040830152949350505050565b5f60208284031215615d7a575f5ffd5b81516001600160401b03811115615d8f575f5ffd5b8201601f81018413615d9f575f5ffd5b8051615dad614ee282614ea3565b8082825260208201915060208360051b850101925086831115615dce575f5ffd5b6020840193505b8284101561098e578351615de8816155b3565b825260209384019390910190615dd5565b6001600160a01b03831681526040602082018190525f90611afb9083018461541d565b6001600160a01b039384168152919092166020820152604081019190915260600190565b5f60018201615e5157615e51615b88565b5060010190565b838152606060208201525f615e706060830185615456565b828103604084015261098e8185614fb9565b63ffffffff8181168382160190811115611a5357611a53615b88565b81810381811115611a5357611a53615b88565b63ffffffff8281168282160390811115611a5357611a53615b88565b5f5f60408385031215615ede575f5ffd5b505080516020909101519092909150565b634e487b7160e01b5f52602160045260245ffd5b634e487b7160e01b5f52601260045260245ffd5b6001600160401b038281168282160390811115611a5357611a53615b88565b634e487b7160e01b5f52603160045260245ffd5b828152604060208201525f611afb60408301846152d0565b5f82518060208501845e5f920191825250919050565b5f82615f9257634e487b7160e01b5f52601260045260245ffd5b50049056fea264697066735822122064657fd640b0eae842ff4ca6bdea5f6649e0933bd207875de5b50756a607fea464736f6c634300081b0033","linkReferences":{}},"methodIdentifiers":{"DELEGATION_APPROVAL_TYPEHASH()":"04a4f979","allocationManager()":"ca8aa7c7","beaconChainETHStrategy()":"9104c319","calculateDelegationApprovalDigestHash(address,address,address,bytes32,uint256)":"0b9f487a","calculateWithdrawalRoot((address,address,address,uint256,uint32,address[],uint256[]))":"597b36da","completeQueuedWithdrawal((address,address,address,uint256,uint32,address[],uint256[]),address[],bool)":"e4cc3f90","completeQueuedWithdrawals((address,address,address,uint256,uint32,address[],uint256[])[],address[][],bool[])":"9435bb43","convertToDepositShares(address,address[],uint256[])":"25df922e","cumulativeWithdrawalsQueued(address)":"a1788484","decreaseDelegatedShares(address,uint256,uint64)":"60a0d1ce","delegateTo(address,(bytes,uint256),bytes32)":"eea9064b","delegatedTo(address)":"65da1264","delegationApprover(address)":"3cdeb5e0","delegationApproverSaltIsSpent(address,bytes32)":"bb45fef2","depositScalingFactor(address,address)":"bfae3fd2","domainSeparator()":"f698da25","eigenPodManager()":"4665bcda","getDepositedShares(address)":"66d5ba93","getOperatorShares(address,address[])":"90041347","getOperatorsShares(address[],address[])":"f0e0e676","getQueuedWithdrawal(bytes32)":"5d975e88","getQueuedWithdrawalRoots(address)":"fd8aa88d","getQueuedWithdrawals(address)":"5dd68579","getSlashableSharesInQueue(address,address)":"6e174448","getSlashingFactor(address,address,uint64)":"843fb522","getSlashingFactors(address,address,address[])":"cc97a84c","getSlashingFactorsAtBlock(address,address,address[],uint32)":"0dcd38b5","getWithdrawableShares(address,address[])":"c978f7ac","increaseDelegatedShares(address,address,uint256,uint256)":"3c651cf2","initialize(address,uint256)":"cd6dc687","isDelegated(address)":"3e28391d","isOperator(address)":"6d70f7ae","minWithdrawalDelayBlocks()":"c448feb8","modifyOperatorDetails(address,address)":"54b7c96c","operatorShares(address,address)":"778e55f3","owner()":"8da5cb5b","pause(uint256)":"136439dd","pauseAll()":"595c6a67","paused()":"5c975abb","paused(uint8)":"5ac86ab7","pauserRegistry()":"886f1195","pendingWithdrawals(bytes32)":"b7f06ebe","permissionController()":"4657e26a","queueWithdrawals((address[],uint256[],address)[])":"0dd8dd02","queuedWithdrawals(bytes32)":"99f5371b","redelegate(address,(bytes,uint256),bytes32)":"a33a3433","registerAsOperator(address,uint32,string)":"2aa6d888","renounceOwnership()":"715018a6","slashOperatorShares(address,address,uint64,uint64)":"601bb36f","strategyManager()":"39b70e38","transferOwnership(address)":"f2fde38b","undelegate(address)":"da8be864","unpause(uint256)":"fabc1cbc","updateOperatorMetadataURI(address,string)":"78296ec5","version()":"54fd4d50"},"id":175}