{"abi":[{"type":"constructor","inputs":[{"name":"_ethPOS","type":"address","internalType":"contract IETHPOSDeposit"},{"name":"_eigenPodManager","type":"address","internalType":"contract IEigenPodManager"},{"name":"_GENESIS_TIME","type":"uint64","internalType":"uint64"},{"name":"_version","type":"string","internalType":"string"}],"stateMutability":"nonpayable"},{"type":"receive","stateMutability":"payable"},{"type":"function","name":"GENESIS_TIME","inputs":[],"outputs":[{"name":"","type":"uint64","internalType":"uint64"}],"stateMutability":"view"},{"type":"function","name":"activeValidatorCount","inputs":[],"outputs":[{"name":"","type":"uint256","internalType":"uint256"}],"stateMutability":"view"},{"type":"function","name":"checkpointBalanceExitedGwei","inputs":[{"name":"","type":"uint64","internalType":"uint64"}],"outputs":[{"name":"","type":"uint64","internalType":"uint64"}],"stateMutability":"view"},{"type":"function","name":"currentCheckpoint","inputs":[],"outputs":[{"name":"","type":"tuple","internalType":"struct IEigenPodTypes.Checkpoint","components":[{"name":"beaconBlockRoot","type":"bytes32","internalType":"bytes32"},{"name":"proofsRemaining","type":"uint24","internalType":"uint24"},{"name":"podBalanceGwei","type":"uint64","internalType":"uint64"},{"name":"balanceDeltasGwei","type":"int64","internalType":"int64"},{"name":"prevBeaconBalanceGwei","type":"uint64","internalType":"uint64"}]}],"stateMutability":"view"},{"type":"function","name":"currentCheckpointTimestamp","inputs":[],"outputs":[{"name":"","type":"uint64","internalType":"uint64"}],"stateMutability":"view"},{"type":"function","name":"eigenPodManager","inputs":[],"outputs":[{"name":"","type":"address","internalType":"contract IEigenPodManager"}],"stateMutability":"view"},{"type":"function","name":"ethPOS","inputs":[],"outputs":[{"name":"","type":"address","internalType":"contract IETHPOSDeposit"}],"stateMutability":"view"},{"type":"function","name":"getActiveValidatorCount","inputs":[],"outputs":[{"name":"","type":"uint256","internalType":"uint256"}],"stateMutability":"view"},{"type":"function","name":"getParentBlockRoot","inputs":[{"name":"timestamp","type":"uint64","internalType":"uint64"}],"outputs":[{"name":"","type":"bytes32","internalType":"bytes32"}],"stateMutability":"view"},{"type":"function","name":"initialize","inputs":[{"name":"_podOwner","type":"address","internalType":"address"}],"outputs":[],"stateMutability":"nonpayable"},{"type":"function","name":"lastCheckpointTimestamp","inputs":[],"outputs":[{"name":"","type":"uint64","internalType":"uint64"}],"stateMutability":"view"},{"type":"function","name":"podOwner","inputs":[],"outputs":[{"name":"","type":"address","internalType":"address"}],"stateMutability":"view"},{"type":"function","name":"proofSubmitter","inputs":[],"outputs":[{"name":"","type":"address","internalType":"address"}],"stateMutability":"view"},{"type":"function","name":"recoverTokens","inputs":[{"name":"tokenList","type":"address[]","internalType":"contract IERC20[]"},{"name":"amountsToWithdraw","type":"uint256[]","internalType":"uint256[]"},{"name":"recipient","type":"address","internalType":"address"}],"outputs":[],"stateMutability":"nonpayable"},{"type":"function","name":"setActiveValidatorCount","inputs":[{"name":"_count","type":"uint256","internalType":"uint256"}],"outputs":[],"stateMutability":"nonpayable"},{"type":"function","name":"setProofSubmitter","inputs":[{"name":"newProofSubmitter","type":"address","internalType":"address"}],"outputs":[],"stateMutability":"nonpayable"},{"type":"function","name":"setValidatorRestakedBalance","inputs":[{"name":"pkhash","type":"bytes32","internalType":"bytes32"},{"name":"restakedBalanceGwei","type":"uint64","internalType":"uint64"}],"outputs":[],"stateMutability":"nonpayable"},{"type":"function","name":"setValidatorStatus","inputs":[{"name":"pkhash","type":"bytes32","internalType":"bytes32"},{"name":"status","type":"uint8","internalType":"enum IEigenPodTypes.VALIDATOR_STATUS"}],"outputs":[],"stateMutability":"nonpayable"},{"type":"function","name":"stake","inputs":[{"name":"pubkey","type":"bytes","internalType":"bytes"},{"name":"signature","type":"bytes","internalType":"bytes"},{"name":"depositDataRoot","type":"bytes32","internalType":"bytes32"}],"outputs":[],"stateMutability":"payable"},{"type":"function","name":"startCheckpoint","inputs":[{"name":"revertIfNoBalance","type":"bool","internalType":"bool"}],"outputs":[],"stateMutability":"nonpayable"},{"type":"function","name":"validatorPubkeyHashToInfo","inputs":[{"name":"validatorPubkeyHash","type":"bytes32","internalType":"bytes32"}],"outputs":[{"name":"","type":"tuple","internalType":"struct IEigenPodTypes.ValidatorInfo","components":[{"name":"validatorIndex","type":"uint64","internalType":"uint64"},{"name":"restakedBalanceGwei","type":"uint64","internalType":"uint64"},{"name":"lastCheckpointedAt","type":"uint64","internalType":"uint64"},{"name":"status","type":"uint8","internalType":"enum IEigenPodTypes.VALIDATOR_STATUS"}]}],"stateMutability":"view"},{"type":"function","name":"validatorPubkeyToInfo","inputs":[{"name":"validatorPubkey","type":"bytes","internalType":"bytes"}],"outputs":[{"name":"","type":"tuple","internalType":"struct IEigenPodTypes.ValidatorInfo","components":[{"name":"validatorIndex","type":"uint64","internalType":"uint64"},{"name":"restakedBalanceGwei","type":"uint64","internalType":"uint64"},{"name":"lastCheckpointedAt","type":"uint64","internalType":"uint64"},{"name":"status","type":"uint8","internalType":"enum IEigenPodTypes.VALIDATOR_STATUS"}]}],"stateMutability":"view"},{"type":"function","name":"validatorStatus","inputs":[{"name":"validatorPubkey","type":"bytes","internalType":"bytes"}],"outputs":[{"name":"","type":"uint8","internalType":"enum IEigenPodTypes.VALIDATOR_STATUS"}],"stateMutability":"view"},{"type":"function","name":"validatorStatus","inputs":[{"name":"pubkeyHash","type":"bytes32","internalType":"bytes32"}],"outputs":[{"name":"","type":"uint8","internalType":"enum IEigenPodTypes.VALIDATOR_STATUS"}],"stateMutability":"view"},{"type":"function","name":"verifyCheckpointProofs","inputs":[{"name":"balanceContainerProof","type":"tuple","internalType":"struct BeaconChainProofs.BalanceContainerProof","components":[{"name":"balanceContainerRoot","type":"bytes32","internalType":"bytes32"},{"name":"proof","type":"bytes","internalType":"bytes"}]},{"name":"proofs","type":"tuple[]","internalType":"struct BeaconChainProofs.BalanceProof[]","components":[{"name":"pubkeyHash","type":"bytes32","internalType":"bytes32"},{"name":"balanceRoot","type":"bytes32","internalType":"bytes32"},{"name":"proof","type":"bytes","internalType":"bytes"}]}],"outputs":[],"stateMutability":"nonpayable"},{"type":"function","name":"verifyStaleBalance","inputs":[{"name":"beaconTimestamp","type":"uint64","internalType":"uint64"},{"name":"stateRootProof","type":"tuple","internalType":"struct BeaconChainProofs.StateRootProof","components":[{"name":"beaconStateRoot","type":"bytes32","internalType":"bytes32"},{"name":"proof","type":"bytes","internalType":"bytes"}]},{"name":"proof","type":"tuple","internalType":"struct BeaconChainProofs.ValidatorProof","components":[{"name":"validatorFields","type":"bytes32[]","internalType":"bytes32[]"},{"name":"proof","type":"bytes","internalType":"bytes"}]}],"outputs":[],"stateMutability":"nonpayable"},{"type":"function","name":"verifyWithdrawalCredentials","inputs":[{"name":"beaconTimestamp","type":"uint64","internalType":"uint64"},{"name":"stateRootProof","type":"tuple","internalType":"struct BeaconChainProofs.StateRootProof","components":[{"name":"beaconStateRoot","type":"bytes32","internalType":"bytes32"},{"name":"proof","type":"bytes","internalType":"bytes"}]},{"name":"validatorIndices","type":"uint40[]","internalType":"uint40[]"},{"name":"validatorFieldsProofs","type":"bytes[]","internalType":"bytes[]"},{"name":"validatorFields","type":"bytes32[][]","internalType":"bytes32[][]"}],"outputs":[],"stateMutability":"nonpayable"},{"type":"function","name":"verifyWithdrawalCredentials","inputs":[{"name":"beaconTimestamp","type":"uint64","internalType":"uint64"},{"name":"beaconStateRoot","type":"bytes32","internalType":"bytes32"},{"name":"validatorIndex","type":"uint40","internalType":"uint40"},{"name":"validatorFieldsProof","type":"bytes","internalType":"bytes"},{"name":"validatorFields","type":"bytes32[]","internalType":"bytes32[]"}],"outputs":[{"name":"","type":"uint256","internalType":"uint256"}],"stateMutability":"nonpayable"},{"type":"function","name":"version","inputs":[],"outputs":[{"name":"","type":"string","internalType":"string"}],"stateMutability":"view"},{"type":"function","name":"withdrawRestakedBeaconChainETH","inputs":[{"name":"recipient","type":"address","internalType":"address"},{"name":"amountWei","type":"uint256","internalType":"uint256"}],"outputs":[],"stateMutability":"nonpayable"},{"type":"function","name":"withdrawableRestakedExecutionLayerGwei","inputs":[],"outputs":[{"name":"","type":"uint64","internalType":"uint64"}],"stateMutability":"view"},{"type":"event","name":"CheckpointCreated","inputs":[{"name":"checkpointTimestamp","type":"uint64","indexed":true,"internalType":"uint64"},{"name":"beaconBlockRoot","type":"bytes32","indexed":true,"internalType":"bytes32"},{"name":"validatorCount","type":"uint256","indexed":false,"internalType":"uint256"}],"anonymous":false},{"type":"event","name":"CheckpointFinalized","inputs":[{"name":"checkpointTimestamp","type":"uint64","indexed":true,"internalType":"uint64"},{"name":"totalShareDeltaWei","type":"int256","indexed":false,"internalType":"int256"}],"anonymous":false},{"type":"event","name":"EigenPodStaked","inputs":[{"name":"pubkey","type":"bytes","indexed":false,"internalType":"bytes"}],"anonymous":false},{"type":"event","name":"Initialized","inputs":[{"name":"version","type":"uint8","indexed":false,"internalType":"uint8"}],"anonymous":false},{"type":"event","name":"NonBeaconChainETHReceived","inputs":[{"name":"amountReceived","type":"uint256","indexed":false,"internalType":"uint256"}],"anonymous":false},{"type":"event","name":"ProofSubmitterUpdated","inputs":[{"name":"prevProofSubmitter","type":"address","indexed":false,"internalType":"address"},{"name":"newProofSubmitter","type":"address","indexed":false,"internalType":"address"}],"anonymous":false},{"type":"event","name":"RestakedBeaconChainETHWithdrawn","inputs":[{"name":"recipient","type":"address","indexed":true,"internalType":"address"},{"name":"amount","type":"uint256","indexed":false,"internalType":"uint256"}],"anonymous":false},{"type":"event","name":"ValidatorBalanceUpdated","inputs":[{"name":"validatorIndex","type":"uint40","indexed":false,"internalType":"uint40"},{"name":"balanceTimestamp","type":"uint64","indexed":false,"internalType":"uint64"},{"name":"newValidatorBalanceGwei","type":"uint64","indexed":false,"internalType":"uint64"}],"anonymous":false},{"type":"event","name":"ValidatorCheckpointed","inputs":[{"name":"checkpointTimestamp","type":"uint64","indexed":true,"internalType":"uint64"},{"name":"validatorIndex","type":"uint40","indexed":true,"internalType":"uint40"}],"anonymous":false},{"type":"event","name":"ValidatorRestaked","inputs":[{"name":"validatorIndex","type":"uint40","indexed":false,"internalType":"uint40"}],"anonymous":false},{"type":"event","name":"ValidatorWithdrawn","inputs":[{"name":"checkpointTimestamp","type":"uint64","indexed":true,"internalType":"uint64"},{"name":"validatorIndex","type":"uint40","indexed":true,"internalType":"uint40"}],"anonymous":false},{"type":"error","name":"BeaconTimestampTooFarInPast","inputs":[]},{"type":"error","name":"CannotCheckpointTwiceInSingleBlock","inputs":[]},{"type":"error","name":"CheckpointAlreadyActive","inputs":[]},{"type":"error","name":"CredentialsAlreadyVerified","inputs":[]},{"type":"error","name":"CurrentlyPaused","inputs":[]},{"type":"error","name":"ForkTimestampZero","inputs":[]},{"type":"error","name":"InputAddressZero","inputs":[]},{"type":"error","name":"InputArrayLengthMismatch","inputs":[]},{"type":"error","name":"InsufficientWithdrawableBalance","inputs":[]},{"type":"error","name":"InvalidEIP4788Response","inputs":[]},{"type":"error","name":"InvalidProof","inputs":[]},{"type":"error","name":"InvalidProofLength","inputs":[]},{"type":"error","name":"InvalidProofLength","inputs":[]},{"type":"error","name":"InvalidPubKeyLength","inputs":[]},{"type":"error","name":"InvalidShortString","inputs":[]},{"type":"error","name":"InvalidValidatorFieldsLength","inputs":[]},{"type":"error","name":"MsgValueNot32ETH","inputs":[]},{"type":"error","name":"NoActiveCheckpoint","inputs":[]},{"type":"error","name":"NoBalanceToCheckpoint","inputs":[]},{"type":"error","name":"OnlyEigenPodManager","inputs":[]},{"type":"error","name":"OnlyEigenPodOwner","inputs":[]},{"type":"error","name":"OnlyEigenPodOwnerOrProofSubmitter","inputs":[]},{"type":"error","name":"StringTooLong","inputs":[{"name":"str","type":"string","internalType":"string"}]},{"type":"error","name":"TimestampOutOfRange","inputs":[]},{"type":"error","name":"ValidatorInactiveOnBeaconChain","inputs":[]},{"type":"error","name":"ValidatorIsExitingBeaconChain","inputs":[]},{"type":"error","name":"ValidatorNotActiveInPod","inputs":[]},{"type":"error","name":"ValidatorNotSlashedOnBeaconChain","inputs":[]},{"type":"error","name":"WithdrawalCredentialsNotForEigenPod","inputs":[]}],"bytecode":{"object":"0x610100604052348015610010575f5ffd5b5060405161430d38038061430d83398101604081905261002f9161019f565b838383838061003d81610076565b608052506001600160a01b0380851660a052831660c0526001600160401b03821660e0526100696100bc565b50505050505050506102ef565b5f5f829050601f815111156100a9578260405163305a27a960e01b81526004016100a09190610294565b60405180910390fd5b80516100b4826102c9565b179392505050565b5f54610100900460ff16156101235760405162461bcd60e51b815260206004820152602760248201527f496e697469616c697a61626c653a20636f6e747261637420697320696e697469604482015266616c697a696e6760c81b60648201526084016100a0565b5f5460ff90811614610172575f805460ff191660ff9081179091556040519081527f7f26b83ff96e1f2b6a682f133852f6798a09c465da95921460cefb38474024989060200160405180910390a15b565b6001600160a01b0381168114610188575f5ffd5b50565b634e487b7160e01b5f52604160045260245ffd5b5f5f5f5f608085870312156101b2575f5ffd5b84516101bd81610174565b60208601519094506101ce81610174565b60408601519093506001600160401b03811681146101ea575f5ffd5b60608601519092506001600160401b03811115610205575f5ffd5b8501601f81018713610215575f5ffd5b80516001600160401b0381111561022e5761022e61018b565b604051601f8201601f19908116603f011681016001600160401b038111828210171561025c5761025c61018b565b604052818152828201602001891015610273575f5ffd5b8160208401602083015e5f6020838301015280935050505092959194509250565b602081525f82518060208401528060208501604085015e5f604082850101526040601f19601f83011684010191505092915050565b805160208083015191908110156102e9575f198160200360031b1b821691505b50919050565b60805160a05160c05160e051613f976103765f395f61075801525f818161032c015281816107930152818161083b01528181610b0801528181610cd301528181610ff80152818161109f015281816112d50152818161165c0152818161179001528181611c6f0152612b1c01525f81816105dc015261110801525f610d3f0152613f975ff3fe6080604052600436106101d3575f3560e01c80636fcd0e53116100fd578063c490744211610092578063dda3346c11610062578063dda3346c146106ea578063ee94d67c14610709578063f074ba6214610728578063f288246114610747575f5ffd5b8063c49074421461066e578063c4d66de81461068d578063d06d5587146106ac578063d79ed726146106cb575f5ffd5b8063816d53f9116100cd578063816d53f9146105fe57806388676cad1461061d5780639b4e46341461063c578063b522538a1461064f575f5ffd5b80636fcd0e531461054b57806373a97ee8146105775780637439841f1461059657806374cdd798146105cb575f5ffd5b80634665bcda1161017357806354fd4d501161014357806354fd4d50146104c057806358753357146104e157806358eaee79146105005780636c0d2d5a1461052c575f5ffd5b80634665bcda1461031b57806347d283721461034e5780635229564a1461043957806352396a591461048c575f5ffd5b80633474aa16116101ae5780633474aa161461029157806337deea70146102c25780633f65cf19146102d657806342ecff2a146102f5575f5ffd5b8063039157d2146102115780630b18ff66146102325780632340e8d31461026e575f5ffd5b3661020d576040513481527f6fdd3dbdb173299608c0aa9f368735857c8842b581f8389238bf05bd04b3bf499060200160405180910390a1005b5f5ffd5b34801561021c575f5ffd5b5061023061022b3660046133bb565b61077a565b005b34801561023d575f5ffd5b50603354610251906001600160a01b031681565b6040516001600160a01b0390911681526020015b60405180910390f35b348015610279575f5ffd5b5061028360395481565b604051908152602001610265565b34801561029c575f5ffd5b506034546001600160401b03165b6040516001600160401b039091168152602001610265565b3480156102cd575f5ffd5b50603954610283565b3480156102e1575f5ffd5b506102306102f0366004613476565b610aaf565b348015610300575f5ffd5b50603a546102aa90600160401b90046001600160401b031681565b348015610326575f5ffd5b506102517f000000000000000000000000000000000000000000000000000000000000000081565b348015610359575f5ffd5b506103de6040805160a0810182525f80825260208201819052918101829052606081018290526080810191909152506040805160a081018252603c548152603d5462ffffff811660208301526001600160401b0363010000008204811693830193909352600160581b810460070b6060830152600160981b9004909116608082015290565b60405161026591905f60a0820190508251825262ffffff60208401511660208301526001600160401b036040840151166040830152606083015160070b60608301526001600160401b03608084015116608083015292915050565b348015610444575f5ffd5b5061023061045336600461354d565b5f9182526036602052604090912080546001600160401b03909216600160401b0267ffffffffffffffff60401b19909216919091179055565b348015610497575f5ffd5b506102aa6104a636600461357b565b603b6020525f90815260409020546001600160401b031681565b3480156104cb575f5ffd5b506104d4610d38565b60405161026591906135c4565b3480156104ec575f5ffd5b50603e54610251906001600160a01b031681565b34801561050b575f5ffd5b5061051f61051a366004613613565b610d68565b6040516102659190613685565b348015610537575f5ffd5b5061028361054636600461357b565b610dca565b348015610556575f5ffd5b5061056a610565366004613693565b610ed8565b60405161026591906136aa565b348015610582575f5ffd5b50610230610591366004613693565b603955565b3480156105a1575f5ffd5b5061051f6105b0366004613693565b5f90815260366020526040902054600160c01b900460ff1690565b3480156105d6575f5ffd5b506102517f000000000000000000000000000000000000000000000000000000000000000081565b348015610609575f5ffd5b50610283610618366004613716565b610f83565b348015610628575f5ffd5b506102306106373660046137bc565b610f9f565b61023061064a3660046137d7565b611094565b34801561065a575f5ffd5b5061056a610669366004613613565b6111db565b348015610679575f5ffd5b50610230610688366004613867565b6112ca565b348015610698575f5ffd5b506102306106a7366004613891565b611401565b3480156106b7575f5ffd5b506102306106c6366004613891565b61154b565b3480156106d6575f5ffd5b506102306106e53660046138ac565b6115df565b3480156106f5575f5ffd5b506102306107043660046139a2565b611618565b348015610714575f5ffd5b50603a546102aa906001600160401b031681565b348015610733575f5ffd5b50610230610742366004613a74565b611777565b348015610752575f5ffd5b506102aa7f000000000000000000000000000000000000000000000000000000000000000081565b604051635ac86ab760e01b8152600660048201819052907f00000000000000000000000000000000000000000000000000000000000000006001600160a01b031690635ac86ab790602401602060405180830381865afa1580156107e0573d5f5f3e3d5ffd5b505050506040513d601f19601f820116820180604052508101906108049190613adb565b156108225760405163840a48d560e01b815260040160405180910390fd5b604051635ac86ab760e01b8152600860048201819052907f00000000000000000000000000000000000000000000000000000000000000006001600160a01b031690635ac86ab790602401602060405180830381865afa158015610888573d5f5f3e3d5ffd5b505050506040513d601f19601f820116820180604052508101906108ac9190613adb565b156108ca5760405163840a48d560e01b815260040160405180910390fd5b5f61090e6108d88580613af6565b808060200260200160405190810160405280939291908181526020018383602002808284375f92019190915250611b7c92505050565b5f818152603660209081526040808320815160808101835281546001600160401b038082168352600160401b8204811695830195909552600160801b8104909416928101929092529394509192906060830190600160c01b900460ff16600281111561097c5761097c613651565b600281111561098d5761098d613651565b81525050905080604001516001600160401b0316876001600160401b0316116109c9576040516337e07ffd60e01b815260040160405180910390fd5b6001816060015160028111156109e1576109e1613651565b146109ff5760405163d49e19a760e01b815260040160405180910390fd5b610a42610a0c8680613af6565b808060200260200160405190810160405280939291908181526020018383602002808284375f92019190915250611b9e92505050565b610a5f5760405163161ce5ed60e31b815260040160405180910390fd5b610a71610a6b88610dca565b87611bc6565b610a9d610a7d88611c6b565b8735610a898880613af6565b610a9660208b018b613b3b565b8751611d42565b610aa65f611e76565b50505050505050565b6033546001600160a01b0316331480610ad25750603e546001600160a01b031633145b610aef5760405163427a777960e01b815260040160405180910390fd5b604051635ac86ab760e01b8152600260048201819052907f00000000000000000000000000000000000000000000000000000000000000006001600160a01b031690635ac86ab790602401602060405180830381865afa158015610b55573d5f5f3e3d5ffd5b505050506040513d601f19601f82011682018060405250810190610b799190613adb565b15610b975760405163840a48d560e01b815260040160405180910390fd5b8584148015610ba557508382145b610bc2576040516343714afd60e01b815260040160405180910390fd5b603a546001600160401b03600160401b9091048116908a1611610bf8576040516337e07ffd60e01b815260040160405180910390fd5b610c0a610c048a610dca565b89611bc6565b5f805b87811015610ca357610c8f8b8b358b8b85818110610c2d57610c2d613b7d565b9050602002016020810190610c429190613b91565b8a8a86818110610c5457610c54613b7d565b9050602002810190610c669190613b3b565b8a8a88818110610c7857610c78613b7d565b9050602002810190610c8a9190613af6565b611ff1565b610c999083613bbe565b9150600101610c0d565b5060335460405163a1ca780b60e01b81526001600160a01b0391821660048201525f6024820152604481018390527f00000000000000000000000000000000000000000000000000000000000000009091169063a1ca780b906064015f604051808303815f87803b158015610d16575f5ffd5b505af1158015610d28573d5f5f3e3d5ffd5b5050505050505050505050505050565b6060610d637f0000000000000000000000000000000000000000000000000000000000000000612504565b905090565b5f5f610da884848080601f0160208091040260200160405190810160405280939291908181526020018383808284375f9201919091525061254192505050565b5f90815260366020526040902054600160c01b900460ff169150505b92915050565b5f610dd8611fff600c613bd1565b610deb6001600160401b03841642613be8565b10610e0957604051637944e66d60e11b815260040160405180910390fd5b604080516001600160401b03841660208201525f918291720f3df6d732807ef1319fb7b8bb8522d0beac02910160408051601f1981840301815290829052610e5091613c12565b5f60405180830381855afa9150503d805f8114610e88576040519150601f19603f3d011682016040523d82523d5f602084013e610e8d565b606091505b5091509150818015610e9f57505f8151115b610ebc5760405163558ad0a360e01b815260040160405180910390fd5b80806020019051810190610ed09190613c1d565b949350505050565b610eff604080516080810182525f8082526020820181905291810182905290606082015290565b5f82815260366020908152604091829020825160808101845281546001600160401b038082168352600160401b8204811694830194909452600160801b810490931693810193909352906060830190600160c01b900460ff166002811115610f6957610f69613651565b6002811115610f7a57610f7a613651565b90525092915050565b5f610f9388888888888888611ff1565b98975050505050505050565b6033546001600160a01b0316331480610fc25750603e546001600160a01b031633145b610fdf5760405163427a777960e01b815260040160405180910390fd5b604051635ac86ab760e01b8152600660048201819052907f00000000000000000000000000000000000000000000000000000000000000006001600160a01b031690635ac86ab790602401602060405180830381865afa158015611045573d5f5f3e3d5ffd5b505050506040513d601f19601f820116820180604052508101906110699190613adb565b156110875760405163840a48d560e01b815260040160405180910390fd5b61109082611e76565b5050565b336001600160a01b037f000000000000000000000000000000000000000000000000000000000000000016146110dd57604051633213a66160e21b815260040160405180910390fd5b346801bc16d674ec800000146111065760405163049696b360e31b815260040160405180910390fd5b7f00000000000000000000000000000000000000000000000000000000000000006001600160a01b031663228951186801bc16d674ec80000087876111496125d2565b8888886040518863ffffffff1660e01b815260040161116d96959493929190613c5c565b5f604051808303818588803b158015611184575f5ffd5b505af1158015611196573d5f5f3e3d5ffd5b50505050507f606865b7934a25d4aed43f6cdb426403353fa4b3009c4d228407474581b01e2385856040516111cc929190613caa565b60405180910390a15050505050565b611202604080516080810182525f8082526020820181905291810182905290606082015290565b60365f61124385858080601f0160208091040260200160405190810160405280939291908181526020018383808284375f9201919091525061254192505050565b815260208082019290925260409081015f20815160808101835281546001600160401b038082168352600160401b8204811695830195909552600160801b81049094169281019290925290916060830190600160c01b900460ff1660028111156112af576112af613651565b60028111156112c0576112c0613651565b9052509392505050565b336001600160a01b037f0000000000000000000000000000000000000000000000000000000000000000161461131357604051633213a66160e21b815260040160405180910390fd5b5f611322633b9aca0083613cd1565b905061133b633b9aca006001600160401b038316613bd1565b6034549092506001600160401b03908116908216111561136e576040516302c6f54760e21b815260040160405180910390fd5b603480548291905f9061138b9084906001600160401b0316613ce4565b92506101000a8154816001600160401b0302191690836001600160401b03160217905550826001600160a01b03167f8947fd2ce07ef9cc302c4e8f0461015615d91ce851564839e91cc804c2f49d8e836040516113ea91815260200190565b60405180910390a26113fc8383612602565b505050565b5f54610100900460ff161580801561141f57505f54600160ff909116105b806114385750303b15801561143857505f5460ff166001145b6114a05760405162461bcd60e51b815260206004820152602e60248201527f496e697469616c697a61626c653a20636f6e747261637420697320616c72656160448201526d191e481a5b9a5d1a585b1a5e995960921b60648201526084015b60405180910390fd5b5f805460ff1916600117905580156114c1575f805461ff0019166101001790555b6001600160a01b0382166114e8576040516339b190bb60e11b815260040160405180910390fd5b603380546001600160a01b0319166001600160a01b0384161790558015611090575f805461ff0019169055604051600181527f7f26b83ff96e1f2b6a682f133852f6798a09c465da95921460cefb38474024989060200160405180910390a15050565b6033546001600160a01b031633146115765760405163719f370360e11b815260040160405180910390fd5b603e54604080516001600160a01b03928316815291831660208301527ffb8129080a19d34dceac04ba253fc50304dc86c729bd63cdca4a969ad19a5eac910160405180910390a1603e80546001600160a01b0319166001600160a01b0392909216919091179055565b5f828152603660205260409020805482919060ff60c01b1916600160c01b83600281111561160f5761160f613651565b02179055505050565b6033546001600160a01b031633146116435760405163719f370360e11b815260040160405180910390fd5b604051635ac86ab760e01b8152600560048201819052907f00000000000000000000000000000000000000000000000000000000000000006001600160a01b031690635ac86ab790602401602060405180830381865afa1580156116a9573d5f5f3e3d5ffd5b505050506040513d601f19601f820116820180604052508101906116cd9190613adb565b156116eb5760405163840a48d560e01b815260040160405180910390fd5b825184511461170d576040516343714afd60e01b815260040160405180910390fd5b5f5b8451811015611770576117688385838151811061172e5761172e613b7d565b602002602001015187848151811061174857611748613b7d565b60200260200101516001600160a01b03166127179092919063ffffffff16565b60010161170f565b5050505050565b604051635ac86ab760e01b8152600760048201819052907f00000000000000000000000000000000000000000000000000000000000000006001600160a01b031690635ac86ab790602401602060405180830381865afa1580156117dd573d5f5f3e3d5ffd5b505050506040513d601f19601f820116820180604052508101906118019190613adb565b1561181f5760405163840a48d560e01b815260040160405180910390fd5b603a54600160401b90046001600160401b03165f81900361185357604051631a544f4960e01b815260040160405180910390fd5b6040805160a081018252603c548152603d5462ffffff811660208301526001600160401b0363010000008204811693830193909352600160581b810460070b6060830152600160981b900490911660808201526118ba6118b283611c6b565b825188612769565b5f805b85811015611b2357368787838181106118d8576118d8613b7d565b90506020028101906118ea9190613d03565b80355f908152603660209081526040808320815160808101835281546001600160401b038082168352600160401b8204811695830195909552600160801b8104909416928101929092529394509192906060830190600160c01b900460ff16600281111561195a5761195a613651565b600281111561196b5761196b613651565b905250905060018160600151600281111561198857611988613651565b14611994575050611b1b565b856001600160401b031681604001516001600160401b0316106119b8575050611b1b565b5f80806119c8848a8f358861282a565b60208b01805193965091945092506119df82613d21565b62ffffff169052506080880180518491906119fb908390613d3e565b6001600160401b0316905250606088018051839190611a1b908390613d5d565b60070b905250611a2b8188613d3e565b85355f908152603660209081526040918290208751815492890151938901516001600160401b03908116600160801b0267ffffffffffffffff60801b19958216600160401b026001600160801b0319909516919092161792909217928316821781556060880151939a50879390929091839160ff60c01b1990911668ffffffffffffffffff60801b1990911617600160c01b836002811115611acf57611acf613651565b021790555050845160405164ffffffffff90911691506001600160401b038b16907fa91c59033c3423e18b54d0acecebb4972f9ea95aedf5f4cae3b677b02eaf3a3f905f90a350505050505b6001016118bd565b506001600160401b038084165f908152603b6020526040812080548493919291611b4f91859116613d3e565b92506101000a8154816001600160401b0302191690836001600160401b03160217905550610aa68261294d565b5f815f81518110611b8f57611b8f613b7d565b60200260200101519050919050565b5f81600381518110611bb257611bb2613b7d565b60200260200101515f5f1b14159050919050565b611bd260036020613bd1565b611bdf6020830183613b3b565b905014611bff576040516313717da960e21b815260040160405180910390fd5b611c4e611c0f6020830183613b3b565b8080601f0160208091040260200160405190810160405280939291908181526020018383808284375f9201919091525086925050843590506003612b7c565b611090576040516309bde33960e01b815260040160405180910390fd5b5f5f7f00000000000000000000000000000000000000000000000000000000000000006001600160a01b0316632704351a6040518163ffffffff1660e01b8152600401602060405180830381865afa158015611cc9573d5f5f3e3d5ffd5b505050506040513d601f19601f82011682018060405250810190611ced9190613d8c565b9050806001600160401b03165f03611d18576040516341a02cc960e01b815260040160405180910390fd5b806001600160401b0316836001600160401b03161115611d39576001611d3b565b5f5b9392505050565b60088414611d635760405163200591bd60e01b815260040160405180910390fd5b5f611d6d88612b93565b905080611d7c60286001613bbe565b611d869190613bbe565b611d91906020613bd1565b8314611db0576040516313717da960e21b815260040160405180910390fd5b5f611dec8787808060200260200160405190810160405280939291908181526020018383602002808284375f92019190915250612bbb92505050565b90505f64ffffffffff8416611e0360286001613bbe565b600b901b179050611e4d86868080601f0160208091040260200160405190810160405280939291908181526020018383808284375f920191909152508d9250869150859050612b7c565b611e6a576040516309bde33960e01b815260040160405180910390fd5b50505050505050505050565b603a54600160401b90046001600160401b031615611ea65760405162be9bc360e81b815260040160405180910390fd5b603a546001600160401b03428116911603611ed4576040516367db5b8b60e01b815260040160405180910390fd5b6034545f906001600160401b0316611ef0633b9aca0047613cd1565b611efa9190613ce4565b9050818015611f1057506001600160401b038116155b15611f2e576040516332dea95960e21b815260040160405180910390fd5b5f6040518060a00160405280611f4342610dca565b815260395462ffffff1660208201526001600160401b0380851660408301525f60608301819052608090920191909152603a805442909216600160401b0267ffffffffffffffff60401b199092169190911790559050611fa28161294d565b805160208083015160405162ffffff90911681526001600160401b034216917f575796133bbed337e5b39aa49a30dc2556a91e0c6c2af4b7b886ae77ebef1076910160405180910390a3505050565b5f5f61202e8484808060200260200160405190810160405280939291908181526020018383602002808284375f92019190915250611b7c92505050565b5f818152603660209081526040808320815160808101835281546001600160401b038082168352600160401b8204811695830195909552600160801b8104909416928101929092529394509192906060830190600160c01b900460ff16600281111561209c5761209c613651565b60028111156120ad576120ad613651565b90525090505f816060015160028111156120c9576120c9613651565b146120e7576040516335e09e9d60e01b815260040160405180910390fd5b6001600160401b03801661212c8686808060200260200160405190810160405280939291908181526020018383602002808284375f92019190915250612e4b92505050565b6001600160401b03160361215357604051631958236d60e21b815260040160405180910390fd5b6001600160401b0380166121988686808060200260200160405190810160405280939291908181526020018383602002808284375f92019190915250612e6f92505050565b6001600160401b0316146121bf57604051632eade63760e01b815260040160405180910390fd5b6121c76125d2565b6121d090613da7565b61220b8686808060200260200160405190810160405280939291908181526020018383602002808284375f92019190915250612e8692505050565b1480612260575061221a612e9a565b61222390613da7565b61225e8686808060200260200160405190810160405280939291908181526020018383602002808284375f92019190915250612e8692505050565b145b61227d57604051633772dd5360e11b815260040160405180910390fd5b5f6122b98686808060200260200160405190810160405280939291908181526020018383602002808284375f92019190915250612eb692505050565b90506122d26122c78c611c6b565b8b88888c8c8f611d42565b60398054905f6122e183613dca565b9091555050603a545f90600160401b90046001600160401b03161561231857603a54600160401b90046001600160401b0316612325565b603a546001600160401b03165b6040805160808101825264ffffffffff8d1681526001600160401b03858116602083015283169181019190915290915060608101600190525f858152603660209081526040918290208351815492850151938501516001600160401b03908116600160801b0267ffffffffffffffff60801b19958216600160401b026001600160801b031990951691909216179290921792831682178155606084015190929091839160ff60c01b1990911668ffffffffffffffffff60801b1990911617600160c01b8360028111156123fa576123fa613651565b021790555050603d8054849250601390612425908490600160981b90046001600160401b0316613d3e565b92506101000a8154816001600160401b0302191690836001600160401b031602179055507f2d0800bbc377ea54a08c5db6a87aafff5e3e9c8fead0eda110e40e0c104414498a604051612485919064ffffffffff91909116815260200190565b60405180910390a16040805164ffffffffff8c1681526001600160401b03838116602083015284168183015290517f0e5fac175b83177cc047381e030d8fb3b42b37bd1c025e22c280facad62c32df9181900360600190a16124f4633b9aca006001600160401b038416613bd1565b9c9b505050505050505050505050565b60605f61251083612ecd565b6040805160208082528183019092529192505f91906020820181803683375050509182525060208101929092525090565b5f815160301461256457604051634f88323960e11b815260040160405180910390fd5b60405160029061257a9084905f90602001613de2565b60408051601f198184030181529082905261259491613c12565b602060405180830381855afa1580156125af573d5f5f3e3d5ffd5b5050506040513d601f19601f82011682018060405250810190610dc49190613c1d565b6040516060906125ee90600160f81b905f903090602001613e06565b604051602081830303815290604052905090565b804710156126525760405162461bcd60e51b815260206004820152601d60248201527f416464726573733a20696e73756666696369656e742062616c616e63650000006044820152606401611497565b5f826001600160a01b0316826040515f6040518083038185875af1925050503d805f811461269b576040519150601f19603f3d011682016040523d82523d5f602084013e6126a0565b606091505b50509050806113fc5760405162461bcd60e51b815260206004820152603a60248201527f416464726573733a20756e61626c6520746f2073656e642076616c75652c207260448201527f6563697069656e74206d617920686176652072657665727465640000000000006064820152608401611497565b604080516001600160a01b038416602482015260448082018490528251808303909101815260649091019091526020810180516001600160e01b031663a9059cbb60e01b1790526113fc908490612ef4565b5f61277384612b93565b9050612780816003613bbe565b61278b906020613bd1565b6127986020840184613b3b565b9050146127b8576040516313717da960e21b815260040160405180910390fd5b6003811b600c1761280d6127cf6020850185613b3b565b8080601f0160208091040260200160405190810160405280939291908181526020018383808284375f92019190915250889250508635905084612b7c565b611770576040516309bde33960e01b815260040160405180910390fd5b83516020850151905f90819081612842878388612fc7565b9050846001600160401b0316816001600160401b0316146128bc576128678582613e44565b6040805164ffffffffff851681526001600160401b038b8116602083015284168183015290519195507f0e5fac175b83177cc047381e030d8fb3b42b37bd1c025e22c280facad62c32df919081900360600190a15b6001600160401b0380821660208b0181905290891660408b01525f036129415760398054905f6128eb83613e73565b9091555050600260608a015261290084613e88565b92508164ffffffffff16886001600160401b03167f2a02361ffa66cf2c2da4682c2355a6adcaa9f6c227b6e6563e68480f9587626a60405160405180910390a35b50509450945094915050565b602081015162ffffff16156129ed578051603c556020810151603d80546040840151606085015160809095015162ffffff9094166affffffffffffffffffffff199092169190911763010000006001600160401b0392831602176fffffffffffffffffffffffffffffffff60581b1916600160581b9482169490940267ffffffffffffffff60981b191693909317600160981b9390921692909202179055565b60808101516034545f91612a09916001600160401b0316613d3e565b90505f82606001518360400151612a209190613d5d565b60408401516034805492935090915f90612a449084906001600160401b0316613d3e565b82546101009290920a6001600160401b03818102199093169183160217909155603a8054600160401b810483166001600160801b03199091161790555f9150612a9490633b9aca00908516613bd1565b90505f612aa9633b9aca00600785900b613ead565b603a546040518281529192506001600160401b0316907f525408c201bc1576eb44116f6478f1c2a54775b19a043bcfdc708364f74f8e449060200160405180910390a260335460405163a1ca780b60e01b81526001600160a01b03918216600482015260248101849052604481018390527f00000000000000000000000000000000000000000000000000000000000000009091169063a1ca780b906064015f604051808303815f87803b158015612b5f575f5ffd5b505af1158015612b71573d5f5f3e3d5ffd5b505050505050505050565b5f83612b898685856130a5565b1495945050505050565b5f80826001811115612ba757612ba7613651565b14612bb3576006610dc4565b600592915050565b5f5f60028351612bcb9190613cd1565b90505f816001600160401b03811115612be657612be66138d2565b604051908082528060200260200182016040528015612c0f578160200160208202803683370190505b5090505f5b82811015612d0957600285612c298383613bd1565b81518110612c3957612c39613b7d565b602002602001015186836002612c4f9190613bd1565b612c5a906001613bbe565b81518110612c6a57612c6a613b7d565b6020026020010151604051602001612c8c929190918252602082015260400190565b60408051601f1981840301815290829052612ca691613c12565b602060405180830381855afa158015612cc1573d5f5f3e3d5ffd5b5050506040513d601f19601f82011682018060405250810190612ce49190613c1d565b828281518110612cf657612cf6613b7d565b6020908102919091010152600101612c14565b50612d15600283613cd1565b91505b8115612e28575f5b82811015612e1557600282612d358383613bd1565b81518110612d4557612d45613b7d565b602002602001015183836002612d5b9190613bd1565b612d66906001613bbe565b81518110612d7657612d76613b7d565b6020026020010151604051602001612d98929190918252602082015260400190565b60408051601f1981840301815290829052612db291613c12565b602060405180830381855afa158015612dcd573d5f5f3e3d5ffd5b5050506040513d601f19601f82011682018060405250810190612df09190613c1d565b828281518110612e0257612e02613b7d565b6020908102919091010152600101612d20565b50612e21600283613cd1565b9150612d18565b805f81518110612e3a57612e3a613b7d565b602002602001015192505050919050565b5f610dc482600581518110612e6257612e62613b7d565b6020026020010151613179565b5f610dc482600681518110612e6257612e62613b7d565b5f81600181518110611b8f57611b8f613b7d565b6040516060906125ee90600160f91b905f903090602001613e06565b5f610dc482600281518110612e6257612e62613b7d565b5f60ff8216601f811115610dc457604051632cd44ac360e21b815260040160405180910390fd5b5f612f48826040518060400160405280602081526020017f5361666545524332303a206c6f772d6c6576656c2063616c6c206661696c6564815250856001600160a01b03166131e09092919063ffffffff16565b905080515f1480612f68575080806020019051810190612f689190613adb565b6113fc5760405162461bcd60e51b815260206004820152602a60248201527f5361666545524332303a204552433230206f7065726174696f6e20646964206e6044820152691bdd081cdd58d8d9595960b21b6064820152608401611497565b5f612fd460266001613bbe565b612fdf906020613bd1565b612fec6040840184613b3b565b90501461300c576040516313717da960e21b815260040160405180910390fd5b5f613018600485613edc565b64ffffffffff1690506130716130316040850185613b3b565b8080601f0160208091040260200160405190810160405280939291908181526020018383808284375f920191909152508992505050602086013584612b7c565b61308e576040516309bde33960e01b815260040160405180910390fd5b61309c8360200135856131ee565b95945050505050565b5f83515f141580156130c25750602084516130c09190613f05565b155b6130df576040516313717da960e21b815260040160405180910390fd5b604080516020808201909252848152905b8551811161316f57613103600285613f05565b5f036131355781515f528086015160205260208260405f60026107d05a03fa61312a575f5ffd5b60028404935061315d565b808601515f52815160205260208260405f60026107d05a03fa613156575f5ffd5b6002840493505b613168602082613bbe565b90506130f0565b5051949350505050565b60f881901c60e882901c61ff00161760d882901c62ff0000161760c882901c63ff000000161764ff0000000060b883901c161765ff000000000060a883901c161766ff000000000000609883901c161767ff0000000000000060889290921c919091161790565b6060610ed084845f8561321a565b5f806131fb600484613f18565b613206906040613f41565b64ffffffffff169050610ed084821b613179565b60608247101561327b5760405162461bcd60e51b815260206004820152602660248201527f416464726573733a20696e73756666696369656e742062616c616e636520666f6044820152651c8818d85b1b60d21b6064820152608401611497565b5f5f866001600160a01b031685876040516132969190613c12565b5f6040518083038185875af1925050503d805f81146132d0576040519150601f19603f3d011682016040523d82523d5f602084013e6132d5565b606091505b50915091506132e6878383876132f1565b979650505050505050565b6060831561335f5782515f03613358576001600160a01b0385163b6133585760405162461bcd60e51b815260206004820152601d60248201527f416464726573733a2063616c6c20746f206e6f6e2d636f6e74726163740000006044820152606401611497565b5081610ed0565b610ed083838151156133745781518083602001fd5b8060405162461bcd60e51b815260040161149791906135c4565b6001600160401b03811681146133a2575f5ffd5b50565b5f604082840312156133b5575f5ffd5b50919050565b5f5f5f606084860312156133cd575f5ffd5b83356133d88161338e565b925060208401356001600160401b038111156133f2575f5ffd5b6133fe868287016133a5565b92505060408401356001600160401b03811115613419575f5ffd5b613425868287016133a5565b9150509250925092565b5f5f83601f84011261343f575f5ffd5b5081356001600160401b03811115613455575f5ffd5b6020830191508360208260051b850101111561346f575f5ffd5b9250929050565b5f5f5f5f5f5f5f5f60a0898b03121561348d575f5ffd5b88356134988161338e565b975060208901356001600160401b038111156134b2575f5ffd5b6134be8b828c016133a5565b97505060408901356001600160401b038111156134d9575f5ffd5b6134e58b828c0161342f565b90975095505060608901356001600160401b03811115613503575f5ffd5b61350f8b828c0161342f565b90955093505060808901356001600160401b0381111561352d575f5ffd5b6135398b828c0161342f565b999c989b5096995094979396929594505050565b5f5f6040838503121561355e575f5ffd5b8235915060208301356135708161338e565b809150509250929050565b5f6020828403121561358b575f5ffd5b8135611d3b8161338e565b5f81518084528060208401602086015e5f602082860101526020601f19601f83011685010191505092915050565b602081525f611d3b6020830184613596565b5f5f83601f8401126135e6575f5ffd5b5081356001600160401b038111156135fc575f5ffd5b60208301915083602082850101111561346f575f5ffd5b5f5f60208385031215613624575f5ffd5b82356001600160401b03811115613639575f5ffd5b613645858286016135d6565b90969095509350505050565b634e487b7160e01b5f52602160045260245ffd5b6003811061368157634e487b7160e01b5f52602160045260245ffd5b9052565b60208101610dc48284613665565b5f602082840312156136a3575f5ffd5b5035919050565b5f6080820190506001600160401b0383511682526001600160401b0360208401511660208301526001600160401b03604084015116604083015260608301516136f66060840182613665565b5092915050565b803564ffffffffff81168114613711575f5ffd5b919050565b5f5f5f5f5f5f5f60a0888a03121561372c575f5ffd5b87356137378161338e565b96506020880135955061374c604089016136fd565b945060608801356001600160401b03811115613766575f5ffd5b6137728a828b016135d6565b90955093505060808801356001600160401b03811115613790575f5ffd5b61379c8a828b0161342f565b989b979a50959850939692959293505050565b80151581146133a2575f5ffd5b5f602082840312156137cc575f5ffd5b8135611d3b816137af565b5f5f5f5f5f606086880312156137eb575f5ffd5b85356001600160401b03811115613800575f5ffd5b61380c888289016135d6565b90965094505060208601356001600160401b0381111561382a575f5ffd5b613836888289016135d6565b96999598509660400135949350505050565b6001600160a01b03811681146133a2575f5ffd5b803561371181613848565b5f5f60408385031215613878575f5ffd5b823561388381613848565b946020939093013593505050565b5f602082840312156138a1575f5ffd5b8135611d3b81613848565b5f5f604083850312156138bd575f5ffd5b82359150602083013560038110613570575f5ffd5b634e487b7160e01b5f52604160045260245ffd5b604051601f8201601f191681016001600160401b038111828210171561390e5761390e6138d2565b604052919050565b5f6001600160401b0382111561392e5761392e6138d2565b5060051b60200190565b5f82601f830112613947575f5ffd5b813561395a61395582613916565b6138e6565b8082825260208201915060208360051b86010192508583111561397b575f5ffd5b602085015b83811015613998578035835260209283019201613980565b5095945050505050565b5f5f5f606084860312156139b4575f5ffd5b83356001600160401b038111156139c9575f5ffd5b8401601f810186136139d9575f5ffd5b80356139e761395582613916565b8082825260208201915060208360051b850101925088831115613a08575f5ffd5b6020840193505b82841015613a33578335613a2281613848565b825260209384019390910190613a0f565b955050505060208401356001600160401b03811115613a50575f5ffd5b613a5c86828701613938565b925050613a6b6040850161385c565b90509250925092565b5f5f5f60408486031215613a86575f5ffd5b83356001600160401b03811115613a9b575f5ffd5b613aa7868287016133a5565b93505060208401356001600160401b03811115613ac2575f5ffd5b613ace8682870161342f565b9497909650939450505050565b5f60208284031215613aeb575f5ffd5b8151611d3b816137af565b5f5f8335601e19843603018112613b0b575f5ffd5b8301803591506001600160401b03821115613b24575f5ffd5b6020019150600581901b360382131561346f575f5ffd5b5f5f8335601e19843603018112613b50575f5ffd5b8301803591506001600160401b03821115613b69575f5ffd5b60200191503681900382131561346f575f5ffd5b634e487b7160e01b5f52603260045260245ffd5b5f60208284031215613ba1575f5ffd5b611d3b826136fd565b634e487b7160e01b5f52601160045260245ffd5b80820180821115610dc457610dc4613baa565b8082028115828204841417610dc457610dc4613baa565b81810381811115610dc457610dc4613baa565b5f81518060208401855e5f93019283525090919050565b5f611d3b8284613bfb565b5f60208284031215613c2d575f5ffd5b5051919050565b81835281816020850137505f828201602090810191909152601f909101601f19169091010190565b608081525f613c6f60808301888a613c34565b8281036020840152613c818188613596565b90508281036040840152613c96818688613c34565b915050826060830152979650505050505050565b602081525f610ed0602083018486613c34565b634e487b7160e01b5f52601260045260245ffd5b5f82613cdf57613cdf613cbd565b500490565b6001600160401b038281168282160390811115610dc457610dc4613baa565b5f8235605e19833603018112613d17575f5ffd5b9190910192915050565b5f62ffffff821680613d3557613d35613baa565b5f190192915050565b6001600160401b038181168382160190811115610dc457610dc4613baa565b600781810b9083900b01677fffffffffffffff8113677fffffffffffffff1982121715610dc457610dc4613baa565b5f60208284031215613d9c575f5ffd5b8151611d3b8161338e565b805160208083015191908110156133b5575f1960209190910360031b1b16919050565b5f60018201613ddb57613ddb613baa565b5060010190565b5f613ded8285613bfb565b6001600160801b03199390931683525050601001919050565b6001600160f81b03199390931683526001600160a81b031991909116600183015260601b6bffffffffffffffffffffffff1916600c82015260200190565b600782810b9082900b03677fffffffffffffff198112677fffffffffffffff82131715610dc457610dc4613baa565b5f81613e8157613e81613baa565b505f190190565b5f8160070b677fffffffffffffff198103613ea557613ea5613baa565b5f0392915050565b8082025f8212600160ff1b84141615613ec857613ec8613baa565b8181058314821517610dc457610dc4613baa565b5f64ffffffffff831680613ef257613ef2613cbd565b8064ffffffffff84160491505092915050565b5f82613f1357613f13613cbd565b500690565b5f64ffffffffff831680613f2e57613f2e613cbd565b8064ffffffffff84160691505092915050565b64ffffffffff81811683821602908116908181146136f6576136f6613baa56fea26469706673582212204accbf08eda4e458b63e40d635c8c3b0fd09a826579efe2bf1f8cbf10106883f64736f6c634300081b0033","linkReferences":{}},"methodIdentifiers":{"GENESIS_TIME()":"f2882461","activeValidatorCount()":"2340e8d3","checkpointBalanceExitedGwei(uint64)":"52396a59","currentCheckpoint()":"47d28372","currentCheckpointTimestamp()":"42ecff2a","eigenPodManager()":"4665bcda","ethPOS()":"74cdd798","getActiveValidatorCount()":"37deea70","getParentBlockRoot(uint64)":"6c0d2d5a","initialize(address)":"c4d66de8","lastCheckpointTimestamp()":"ee94d67c","podOwner()":"0b18ff66","proofSubmitter()":"58753357","recoverTokens(address[],uint256[],address)":"dda3346c","setActiveValidatorCount(uint256)":"73a97ee8","setProofSubmitter(address)":"d06d5587","setValidatorRestakedBalance(bytes32,uint64)":"5229564a","setValidatorStatus(bytes32,uint8)":"d79ed726","stake(bytes,bytes,bytes32)":"9b4e4634","startCheckpoint(bool)":"88676cad","validatorPubkeyHashToInfo(bytes32)":"6fcd0e53","validatorPubkeyToInfo(bytes)":"b522538a","validatorStatus(bytes)":"58eaee79","validatorStatus(bytes32)":"7439841f","verifyCheckpointProofs((bytes32,bytes),(bytes32,bytes32,bytes)[])":"f074ba62","verifyStaleBalance(uint64,(bytes32,bytes),(bytes32[],bytes))":"039157d2","verifyWithdrawalCredentials(uint64,(bytes32,bytes),uint40[],bytes[],bytes32[][])":"3f65cf19","verifyWithdrawalCredentials(uint64,bytes32,uint40,bytes,bytes32[])":"816d53f9","version()":"54fd4d50","withdrawRestakedBeaconChainETH(address,uint256)":"c4907442","withdrawableRestakedExecutionLayerGwei()":"3474aa16"},"id":177}