{"abi":[{"type":"function","name":"decimals","inputs":[],"outputs":[{"name":"","type":"uint8","internalType":"uint8"}],"stateMutability":"pure"}],"bytecode":{"object":"0x6080604052348015600e575f5ffd5b50607480601a5f395ff3fe6080604052348015600e575f5ffd5b50600436106026575f3560e01c8063313ce56714602a575b5f5ffd5b604080516012815290519081900360200190f3fea2646970667358221220c169443d7e8f08cbb8e05c378cdfb47865bfde7f4014df909866704b5f28f6d264736f6c634300081b0033","linkReferences":{}},"methodIdentifiers":{"decimals()":"313ce567"},"id":240}