{"abi":[{"type":"constructor","inputs":[{"name":"_ethPOS","type":"address","internalType":"contract IETHPOSDeposit"},{"name":"_eigenPodManager","type":"address","internalType":"contract IEigenPodManager"},{"name":"_GENESIS_TIME","type":"uint64","internalType":"uint64"},{"name":"_version","type":"string","internalType":"string"}],"stateMutability":"nonpayable"},{"type":"receive","stateMutability":"payable"},{"type":"function","name":"GENESIS_TIME","inputs":[],"outputs":[{"name":"","type":"uint64","internalType":"uint64"}],"stateMutability":"view"},{"type":"function","name":"activeValidatorCount","inputs":[],"outputs":[{"name":"","type":"uint256","internalType":"uint256"}],"stateMutability":"view"},{"type":"function","name":"checkpointBalanceExitedGwei","inputs":[{"name":"","type":"uint64","internalType":"uint64"}],"outputs":[{"name":"","type":"uint64","internalType":"uint64"}],"stateMutability":"view"},{"type":"function","name":"currentCheckpoint","inputs":[],"outputs":[{"name":"","type":"tuple","internalType":"struct IEigenPodTypes.Checkpoint","components":[{"name":"beaconBlockRoot","type":"bytes32","internalType":"bytes32"},{"name":"proofsRemaining","type":"uint24","internalType":"uint24"},{"name":"podBalanceGwei","type":"uint64","internalType":"uint64"},{"name":"balanceDeltasGwei","type":"int64","internalType":"int64"},{"name":"prevBeaconBalanceGwei","type":"uint64","internalType":"uint64"}]}],"stateMutability":"view"},{"type":"function","name":"currentCheckpointTimestamp","inputs":[],"outputs":[{"name":"","type":"uint64","internalType":"uint64"}],"stateMutability":"view"},{"type":"function","name":"eigenPodManager","inputs":[],"outputs":[{"name":"","type":"address","internalType":"contract IEigenPodManager"}],"stateMutability":"view"},{"type":"function","name":"ethPOS","inputs":[],"outputs":[{"name":"","type":"address","internalType":"contract IETHPOSDeposit"}],"stateMutability":"view"},{"type":"function","name":"getParentBlockRoot","inputs":[{"name":"timestamp","type":"uint64","internalType":"uint64"}],"outputs":[{"name":"","type":"bytes32","internalType":"bytes32"}],"stateMutability":"view"},{"type":"function","name":"initialize","inputs":[{"name":"_podOwner","type":"address","internalType":"address"}],"outputs":[],"stateMutability":"nonpayable"},{"type":"function","name":"lastCheckpointTimestamp","inputs":[],"outputs":[{"name":"","type":"uint64","internalType":"uint64"}],"stateMutability":"view"},{"type":"function","name":"podOwner","inputs":[],"outputs":[{"name":"","type":"address","internalType":"address"}],"stateMutability":"view"},{"type":"function","name":"proofSubmitter","inputs":[],"outputs":[{"name":"","type":"address","internalType":"address"}],"stateMutability":"view"},{"type":"function","name":"recoverTokens","inputs":[{"name":"tokenList","type":"address[]","internalType":"contract IERC20[]"},{"name":"amountsToWithdraw","type":"uint256[]","internalType":"uint256[]"},{"name":"recipient","type":"address","internalType":"address"}],"outputs":[],"stateMutability":"nonpayable"},{"type":"function","name":"setProofSubmitter","inputs":[{"name":"newProofSubmitter","type":"address","internalType":"address"}],"outputs":[],"stateMutability":"nonpayable"},{"type":"function","name":"stake","inputs":[{"name":"pubkey","type":"bytes","internalType":"bytes"},{"name":"signature","type":"bytes","internalType":"bytes"},{"name":"depositDataRoot","type":"bytes32","internalType":"bytes32"}],"outputs":[],"stateMutability":"payable"},{"type":"function","name":"startCheckpoint","inputs":[{"name":"revertIfNoBalance","type":"bool","internalType":"bool"}],"outputs":[],"stateMutability":"nonpayable"},{"type":"function","name":"validatorPubkeyHashToInfo","inputs":[{"name":"validatorPubkeyHash","type":"bytes32","internalType":"bytes32"}],"outputs":[{"name":"","type":"tuple","internalType":"struct IEigenPodTypes.ValidatorInfo","components":[{"name":"validatorIndex","type":"uint64","internalType":"uint64"},{"name":"restakedBalanceGwei","type":"uint64","internalType":"uint64"},{"name":"lastCheckpointedAt","type":"uint64","internalType":"uint64"},{"name":"status","type":"uint8","internalType":"enum IEigenPodTypes.VALIDATOR_STATUS"}]}],"stateMutability":"view"},{"type":"function","name":"validatorPubkeyToInfo","inputs":[{"name":"validatorPubkey","type":"bytes","internalType":"bytes"}],"outputs":[{"name":"","type":"tuple","internalType":"struct IEigenPodTypes.ValidatorInfo","components":[{"name":"validatorIndex","type":"uint64","internalType":"uint64"},{"name":"restakedBalanceGwei","type":"uint64","internalType":"uint64"},{"name":"lastCheckpointedAt","type":"uint64","internalType":"uint64"},{"name":"status","type":"uint8","internalType":"enum IEigenPodTypes.VALIDATOR_STATUS"}]}],"stateMutability":"view"},{"type":"function","name":"validatorStatus","inputs":[{"name":"validatorPubkey","type":"bytes","internalType":"bytes"}],"outputs":[{"name":"","type":"uint8","internalType":"enum IEigenPodTypes.VALIDATOR_STATUS"}],"stateMutability":"view"},{"type":"function","name":"validatorStatus","inputs":[{"name":"pubkeyHash","type":"bytes32","internalType":"bytes32"}],"outputs":[{"name":"","type":"uint8","internalType":"enum IEigenPodTypes.VALIDATOR_STATUS"}],"stateMutability":"view"},{"type":"function","name":"verifyCheckpointProofs","inputs":[{"name":"balanceContainerProof","type":"tuple","internalType":"struct BeaconChainProofs.BalanceContainerProof","components":[{"name":"balanceContainerRoot","type":"bytes32","internalType":"bytes32"},{"name":"proof","type":"bytes","internalType":"bytes"}]},{"name":"proofs","type":"tuple[]","internalType":"struct BeaconChainProofs.BalanceProof[]","components":[{"name":"pubkeyHash","type":"bytes32","internalType":"bytes32"},{"name":"balanceRoot","type":"bytes32","internalType":"bytes32"},{"name":"proof","type":"bytes","internalType":"bytes"}]}],"outputs":[],"stateMutability":"nonpayable"},{"type":"function","name":"verifyStaleBalance","inputs":[{"name":"beaconTimestamp","type":"uint64","internalType":"uint64"},{"name":"stateRootProof","type":"tuple","internalType":"struct BeaconChainProofs.StateRootProof","components":[{"name":"beaconStateRoot","type":"bytes32","internalType":"bytes32"},{"name":"proof","type":"bytes","internalType":"bytes"}]},{"name":"proof","type":"tuple","internalType":"struct BeaconChainProofs.ValidatorProof","components":[{"name":"validatorFields","type":"bytes32[]","internalType":"bytes32[]"},{"name":"proof","type":"bytes","internalType":"bytes"}]}],"outputs":[],"stateMutability":"nonpayable"},{"type":"function","name":"verifyWithdrawalCredentials","inputs":[{"name":"beaconTimestamp","type":"uint64","internalType":"uint64"},{"name":"stateRootProof","type":"tuple","internalType":"struct BeaconChainProofs.StateRootProof","components":[{"name":"beaconStateRoot","type":"bytes32","internalType":"bytes32"},{"name":"proof","type":"bytes","internalType":"bytes"}]},{"name":"validatorIndices","type":"uint40[]","internalType":"uint40[]"},{"name":"validatorFieldsProofs","type":"bytes[]","internalType":"bytes[]"},{"name":"validatorFields","type":"bytes32[][]","internalType":"bytes32[][]"}],"outputs":[],"stateMutability":"nonpayable"},{"type":"function","name":"version","inputs":[],"outputs":[{"name":"","type":"string","internalType":"string"}],"stateMutability":"view"},{"type":"function","name":"withdrawRestakedBeaconChainETH","inputs":[{"name":"recipient","type":"address","internalType":"address"},{"name":"amountWei","type":"uint256","internalType":"uint256"}],"outputs":[],"stateMutability":"nonpayable"},{"type":"function","name":"withdrawableRestakedExecutionLayerGwei","inputs":[],"outputs":[{"name":"","type":"uint64","internalType":"uint64"}],"stateMutability":"view"},{"type":"event","name":"CheckpointCreated","inputs":[{"name":"checkpointTimestamp","type":"uint64","indexed":true,"internalType":"uint64"},{"name":"beaconBlockRoot","type":"bytes32","indexed":true,"internalType":"bytes32"},{"name":"validatorCount","type":"uint256","indexed":false,"internalType":"uint256"}],"anonymous":false},{"type":"event","name":"CheckpointFinalized","inputs":[{"name":"checkpointTimestamp","type":"uint64","indexed":true,"internalType":"uint64"},{"name":"totalShareDeltaWei","type":"int256","indexed":false,"internalType":"int256"}],"anonymous":false},{"type":"event","name":"EigenPodStaked","inputs":[{"name":"pubkey","type":"bytes","indexed":false,"internalType":"bytes"}],"anonymous":false},{"type":"event","name":"Initialized","inputs":[{"name":"version","type":"uint8","indexed":false,"internalType":"uint8"}],"anonymous":false},{"type":"event","name":"NonBeaconChainETHReceived","inputs":[{"name":"amountReceived","type":"uint256","indexed":false,"internalType":"uint256"}],"anonymous":false},{"type":"event","name":"ProofSubmitterUpdated","inputs":[{"name":"prevProofSubmitter","type":"address","indexed":false,"internalType":"address"},{"name":"newProofSubmitter","type":"address","indexed":false,"internalType":"address"}],"anonymous":false},{"type":"event","name":"RestakedBeaconChainETHWithdrawn","inputs":[{"name":"recipient","type":"address","indexed":true,"internalType":"address"},{"name":"amount","type":"uint256","indexed":false,"internalType":"uint256"}],"anonymous":false},{"type":"event","name":"ValidatorBalanceUpdated","inputs":[{"name":"validatorIndex","type":"uint40","indexed":false,"internalType":"uint40"},{"name":"balanceTimestamp","type":"uint64","indexed":false,"internalType":"uint64"},{"name":"newValidatorBalanceGwei","type":"uint64","indexed":false,"internalType":"uint64"}],"anonymous":false},{"type":"event","name":"ValidatorCheckpointed","inputs":[{"name":"checkpointTimestamp","type":"uint64","indexed":true,"internalType":"uint64"},{"name":"validatorIndex","type":"uint40","indexed":true,"internalType":"uint40"}],"anonymous":false},{"type":"event","name":"ValidatorRestaked","inputs":[{"name":"validatorIndex","type":"uint40","indexed":false,"internalType":"uint40"}],"anonymous":false},{"type":"event","name":"ValidatorWithdrawn","inputs":[{"name":"checkpointTimestamp","type":"uint64","indexed":true,"internalType":"uint64"},{"name":"validatorIndex","type":"uint40","indexed":true,"internalType":"uint40"}],"anonymous":false},{"type":"error","name":"BeaconTimestampTooFarInPast","inputs":[]},{"type":"error","name":"CannotCheckpointTwiceInSingleBlock","inputs":[]},{"type":"error","name":"CheckpointAlreadyActive","inputs":[]},{"type":"error","name":"CredentialsAlreadyVerified","inputs":[]},{"type":"error","name":"CurrentlyPaused","inputs":[]},{"type":"error","name":"ForkTimestampZero","inputs":[]},{"type":"error","name":"InputAddressZero","inputs":[]},{"type":"error","name":"InputArrayLengthMismatch","inputs":[]},{"type":"error","name":"InsufficientWithdrawableBalance","inputs":[]},{"type":"error","name":"InvalidEIP4788Response","inputs":[]},{"type":"error","name":"InvalidProof","inputs":[]},{"type":"error","name":"InvalidProofLength","inputs":[]},{"type":"error","name":"InvalidProofLength","inputs":[]},{"type":"error","name":"InvalidPubKeyLength","inputs":[]},{"type":"error","name":"InvalidShortString","inputs":[]},{"type":"error","name":"InvalidValidatorFieldsLength","inputs":[]},{"type":"error","name":"MsgValueNot32ETH","inputs":[]},{"type":"error","name":"NoActiveCheckpoint","inputs":[]},{"type":"error","name":"NoBalanceToCheckpoint","inputs":[]},{"type":"error","name":"OnlyEigenPodManager","inputs":[]},{"type":"error","name":"OnlyEigenPodOwner","inputs":[]},{"type":"error","name":"OnlyEigenPodOwnerOrProofSubmitter","inputs":[]},{"type":"error","name":"StringTooLong","inputs":[{"name":"str","type":"string","internalType":"string"}]},{"type":"error","name":"TimestampOutOfRange","inputs":[]},{"type":"error","name":"ValidatorInactiveOnBeaconChain","inputs":[]},{"type":"error","name":"ValidatorIsExitingBeaconChain","inputs":[]},{"type":"error","name":"ValidatorNotActiveInPod","inputs":[]},{"type":"error","name":"ValidatorNotSlashedOnBeaconChain","inputs":[]},{"type":"error","name":"WithdrawalCredentialsNotForEigenPod","inputs":[]}],"bytecode":{"object":"0x610100604052348015610010575f5ffd5b506040516140a63803806140a683398101604081905261002f91610197565b806100398161006e565b608052506001600160a01b0380851660a052831660c0526001600160401b03821660e0526100656100b4565b505050506102e7565b5f5f829050601f815111156100a1578260405163305a27a960e01b8152600401610098919061028c565b60405180910390fd5b80516100ac826102c1565b179392505050565b5f54610100900460ff161561011b5760405162461bcd60e51b815260206004820152602760248201527f496e697469616c697a61626c653a20636f6e747261637420697320696e697469604482015266616c697a696e6760c81b6064820152608401610098565b5f5460ff9081161461016a575f805460ff191660ff9081179091556040519081527f7f26b83ff96e1f2b6a682f133852f6798a09c465da95921460cefb38474024989060200160405180910390a15b565b6001600160a01b0381168114610180575f5ffd5b50565b634e487b7160e01b5f52604160045260245ffd5b5f5f5f5f608085870312156101aa575f5ffd5b84516101b58161016c565b60208601519094506101c68161016c565b60408601519093506001600160401b03811681146101e2575f5ffd5b60608601519092506001600160401b038111156101fd575f5ffd5b8501601f8101871361020d575f5ffd5b80516001600160401b0381111561022657610226610183565b604051601f8201601f19908116603f011681016001600160401b038111828210171561025457610254610183565b60405281815282820160200189101561026b575f5ffd5b8160208401602083015e5f6020838301015280935050505092959194509250565b602081525f82518060208401528060208501604085015e5f604082850101526040601f19601f83011684010191505092915050565b805160208083015191908110156102e1575f198160200360031b1b821691505b50919050565b60805160a05160c05160e051613d3861036e5f395f61063f01525f81816102c30152818161067a01528181610722015281816109ef01528181610bba01528181610ec301528181610f6a015281816111a0015281816114ee0152818161162201528181611b0101526129b301525f81816105010152610fd301525f610c260152613d385ff3fe60806040526004361061017e575f3560e01c80636fcd0e53116100cd578063c490744211610087578063dda3346c11610062578063dda3346c146105d1578063ee94d67c146105f0578063f074ba621461060f578063f28824611461062e575f5ffd5b8063c490744214610574578063c4d66de814610593578063d06d5587146105b2575f5ffd5b80636fcd0e531461048f5780637439841f146104bb57806374cdd798146104f057806388676cad146105235780639b4e463414610542578063b522538a14610555575f5ffd5b80634665bcda1161013857806354fd4d501161011357806354fd4d5014610404578063587533571461042557806358eaee79146104445780636c0d2d5a14610470575f5ffd5b80634665bcda146102b257806347d28372146102e557806352396a59146103d0575f5ffd5b8063039157d2146101bc5780630b18ff66146101dd5780632340e8d3146102195780633474aa161461023c5780633f65cf191461026d57806342ecff2a1461028c575f5ffd5b366101b8576040513481527f6fdd3dbdb173299608c0aa9f368735857c8842b581f8389238bf05bd04b3bf499060200160405180910390a1005b5f5ffd5b3480156101c7575f5ffd5b506101db6101d6366004613252565b610661565b005b3480156101e8575f5ffd5b506033546101fc906001600160a01b031681565b6040516001600160a01b0390911681526020015b60405180910390f35b348015610224575f5ffd5b5061022e60395481565b604051908152602001610210565b348015610247575f5ffd5b506034546001600160401b03165b6040516001600160401b039091168152602001610210565b348015610278575f5ffd5b506101db61028736600461330d565b610996565b348015610297575f5ffd5b50603a5461025590600160401b90046001600160401b031681565b3480156102bd575f5ffd5b506101fc7f000000000000000000000000000000000000000000000000000000000000000081565b3480156102f0575f5ffd5b506103756040805160a0810182525f80825260208201819052918101829052606081018290526080810191909152506040805160a081018252603c548152603d5462ffffff811660208301526001600160401b0363010000008204811693830193909352600160581b810460070b6060830152600160981b9004909116608082015290565b60405161021091905f60a0820190508251825262ffffff60208401511660208301526001600160401b036040840151166040830152606083015160070b60608301526001600160401b03608084015116608083015292915050565b3480156103db575f5ffd5b506102556103ea3660046133e4565b603b6020525f90815260409020546001600160401b031681565b34801561040f575f5ffd5b50610418610c1f565b604051610210919061342d565b348015610430575f5ffd5b50603e546101fc906001600160a01b031681565b34801561044f575f5ffd5b5061046361045e36600461347c565b610c4f565b60405161021091906134ee565b34801561047b575f5ffd5b5061022e61048a3660046133e4565b610cb1565b34801561049a575f5ffd5b506104ae6104a93660046134fc565b610dbf565b6040516102109190613513565b3480156104c6575f5ffd5b506104636104d53660046134fc565b5f90815260366020526040902054600160c01b900460ff1690565b3480156104fb575f5ffd5b506101fc7f000000000000000000000000000000000000000000000000000000000000000081565b34801561052e575f5ffd5b506101db61053d366004613573565b610e6a565b6101db61055036600461358e565b610f5f565b348015610560575f5ffd5b506104ae61056f36600461347c565b6110a6565b34801561057f575f5ffd5b506101db61058e366004613623565b611195565b34801561059e575f5ffd5b506101db6105ad36600461364d565b6112cc565b3480156105bd575f5ffd5b506101db6105cc36600461364d565b611416565b3480156105dc575f5ffd5b506101db6105eb366004613738565b6114aa565b3480156105fb575f5ffd5b50603a54610255906001600160401b031681565b34801561061a575f5ffd5b506101db61062936600461380a565b611609565b348015610639575f5ffd5b506102557f000000000000000000000000000000000000000000000000000000000000000081565b604051635ac86ab760e01b8152600660048201819052907f00000000000000000000000000000000000000000000000000000000000000006001600160a01b031690635ac86ab790602401602060405180830381865afa1580156106c7573d5f5f3e3d5ffd5b505050506040513d601f19601f820116820180604052508101906106eb9190613871565b156107095760405163840a48d560e01b815260040160405180910390fd5b604051635ac86ab760e01b8152600860048201819052907f00000000000000000000000000000000000000000000000000000000000000006001600160a01b031690635ac86ab790602401602060405180830381865afa15801561076f573d5f5f3e3d5ffd5b505050506040513d601f19601f820116820180604052508101906107939190613871565b156107b15760405163840a48d560e01b815260040160405180910390fd5b5f6107f56107bf858061388c565b808060200260200160405190810160405280939291908181526020018383602002808284375f92019190915250611a0e92505050565b5f818152603660209081526040808320815160808101835281546001600160401b038082168352600160401b8204811695830195909552600160801b8104909416928101929092529394509192906060830190600160c01b900460ff166002811115610863576108636134ba565b6002811115610874576108746134ba565b81525050905080604001516001600160401b0316876001600160401b0316116108b0576040516337e07ffd60e01b815260040160405180910390fd5b6001816060015160028111156108c8576108c86134ba565b146108e65760405163d49e19a760e01b815260040160405180910390fd5b6109296108f3868061388c565b808060200260200160405190810160405280939291908181526020018383602002808284375f92019190915250611a3092505050565b6109465760405163161ce5ed60e31b815260040160405180910390fd5b61095861095288610cb1565b87611a58565b61098461096488611afd565b8735610970888061388c565b61097d60208b018b6138d1565b8751611bd4565b61098d5f611d08565b50505050505050565b6033546001600160a01b03163314806109b95750603e546001600160a01b031633145b6109d65760405163427a777960e01b815260040160405180910390fd5b604051635ac86ab760e01b8152600260048201819052907f00000000000000000000000000000000000000000000000000000000000000006001600160a01b031690635ac86ab790602401602060405180830381865afa158015610a3c573d5f5f3e3d5ffd5b505050506040513d601f19601f82011682018060405250810190610a609190613871565b15610a7e5760405163840a48d560e01b815260040160405180910390fd5b8584148015610a8c57508382145b610aa9576040516343714afd60e01b815260040160405180910390fd5b603a546001600160401b03600160401b9091048116908a1611610adf576040516337e07ffd60e01b815260040160405180910390fd5b610af1610aeb8a610cb1565b89611a58565b5f805b87811015610b8a57610b768b8b358b8b85818110610b1457610b14613913565b9050602002016020810190610b299190613927565b8a8a86818110610b3b57610b3b613913565b9050602002810190610b4d91906138d1565b8a8a88818110610b5f57610b5f613913565b9050602002810190610b71919061388c565b611e88565b610b80908361395f565b9150600101610af4565b5060335460405163a1ca780b60e01b81526001600160a01b0391821660048201525f6024820152604481018390527f00000000000000000000000000000000000000000000000000000000000000009091169063a1ca780b906064015f604051808303815f87803b158015610bfd575f5ffd5b505af1158015610c0f573d5f5f3e3d5ffd5b5050505050505050505050505050565b6060610c4a7f000000000000000000000000000000000000000000000000000000000000000061239b565b905090565b5f5f610c8f84848080601f0160208091040260200160405190810160405280939291908181526020018383808284375f920191909152506123d892505050565b5f90815260366020526040902054600160c01b900460ff169150505b92915050565b5f610cbf611fff600c613972565b610cd26001600160401b03841642613989565b10610cf057604051637944e66d60e11b815260040160405180910390fd5b604080516001600160401b03841660208201525f918291720f3df6d732807ef1319fb7b8bb8522d0beac02910160408051601f1981840301815290829052610d37916139b3565b5f60405180830381855afa9150503d805f8114610d6f576040519150601f19603f3d011682016040523d82523d5f602084013e610d74565b606091505b5091509150818015610d8657505f8151115b610da35760405163558ad0a360e01b815260040160405180910390fd5b80806020019051810190610db791906139be565b949350505050565b610de6604080516080810182525f8082526020820181905291810182905290606082015290565b5f82815260366020908152604091829020825160808101845281546001600160401b038082168352600160401b8204811694830194909452600160801b810490931693810193909352906060830190600160c01b900460ff166002811115610e5057610e506134ba565b6002811115610e6157610e616134ba565b90525092915050565b6033546001600160a01b0316331480610e8d5750603e546001600160a01b031633145b610eaa5760405163427a777960e01b815260040160405180910390fd5b604051635ac86ab760e01b8152600660048201819052907f00000000000000000000000000000000000000000000000000000000000000006001600160a01b031690635ac86ab790602401602060405180830381865afa158015610f10573d5f5f3e3d5ffd5b505050506040513d601f19601f82011682018060405250810190610f349190613871565b15610f525760405163840a48d560e01b815260040160405180910390fd5b610f5b82611d08565b5050565b336001600160a01b037f00000000000000000000000000000000000000000000000000000000000000001614610fa857604051633213a66160e21b815260040160405180910390fd5b346801bc16d674ec80000014610fd15760405163049696b360e31b815260040160405180910390fd5b7f00000000000000000000000000000000000000000000000000000000000000006001600160a01b031663228951186801bc16d674ec8000008787611014612469565b8888886040518863ffffffff1660e01b8152600401611038969594939291906139fd565b5f604051808303818588803b15801561104f575f5ffd5b505af1158015611061573d5f5f3e3d5ffd5b50505050507f606865b7934a25d4aed43f6cdb426403353fa4b3009c4d228407474581b01e238585604051611097929190613a4b565b60405180910390a15050505050565b6110cd604080516080810182525f8082526020820181905291810182905290606082015290565b60365f61110e85858080601f0160208091040260200160405190810160405280939291908181526020018383808284375f920191909152506123d892505050565b815260208082019290925260409081015f20815160808101835281546001600160401b038082168352600160401b8204811695830195909552600160801b81049094169281019290925290916060830190600160c01b900460ff16600281111561117a5761117a6134ba565b600281111561118b5761118b6134ba565b9052509392505050565b336001600160a01b037f000000000000000000000000000000000000000000000000000000000000000016146111de57604051633213a66160e21b815260040160405180910390fd5b5f6111ed633b9aca0083613a72565b9050611206633b9aca006001600160401b038316613972565b6034549092506001600160401b039081169082161115611239576040516302c6f54760e21b815260040160405180910390fd5b603480548291905f906112569084906001600160401b0316613a85565b92506101000a8154816001600160401b0302191690836001600160401b03160217905550826001600160a01b03167f8947fd2ce07ef9cc302c4e8f0461015615d91ce851564839e91cc804c2f49d8e836040516112b591815260200190565b60405180910390a26112c78383612499565b505050565b5f54610100900460ff16158080156112ea57505f54600160ff909116105b806113035750303b15801561130357505f5460ff166001145b61136b5760405162461bcd60e51b815260206004820152602e60248201527f496e697469616c697a61626c653a20636f6e747261637420697320616c72656160448201526d191e481a5b9a5d1a585b1a5e995960921b60648201526084015b60405180910390fd5b5f805460ff19166001179055801561138c575f805461ff0019166101001790555b6001600160a01b0382166113b3576040516339b190bb60e11b815260040160405180910390fd5b603380546001600160a01b0319166001600160a01b0384161790558015610f5b575f805461ff0019169055604051600181527f7f26b83ff96e1f2b6a682f133852f6798a09c465da95921460cefb38474024989060200160405180910390a15050565b6033546001600160a01b031633146114415760405163719f370360e11b815260040160405180910390fd5b603e54604080516001600160a01b03928316815291831660208301527ffb8129080a19d34dceac04ba253fc50304dc86c729bd63cdca4a969ad19a5eac910160405180910390a1603e80546001600160a01b0319166001600160a01b0392909216919091179055565b6033546001600160a01b031633146114d55760405163719f370360e11b815260040160405180910390fd5b604051635ac86ab760e01b8152600560048201819052907f00000000000000000000000000000000000000000000000000000000000000006001600160a01b031690635ac86ab790602401602060405180830381865afa15801561153b573d5f5f3e3d5ffd5b505050506040513d601f19601f8201168201806040525081019061155f9190613871565b1561157d5760405163840a48d560e01b815260040160405180910390fd5b825184511461159f576040516343714afd60e01b815260040160405180910390fd5b5f5b8451811015611602576115fa838583815181106115c0576115c0613913565b60200260200101518784815181106115da576115da613913565b60200260200101516001600160a01b03166125ae9092919063ffffffff16565b6001016115a1565b5050505050565b604051635ac86ab760e01b8152600760048201819052907f00000000000000000000000000000000000000000000000000000000000000006001600160a01b031690635ac86ab790602401602060405180830381865afa15801561166f573d5f5f3e3d5ffd5b505050506040513d601f19601f820116820180604052508101906116939190613871565b156116b15760405163840a48d560e01b815260040160405180910390fd5b603a54600160401b90046001600160401b03165f8190036116e557604051631a544f4960e01b815260040160405180910390fd5b6040805160a081018252603c548152603d5462ffffff811660208301526001600160401b0363010000008204811693830193909352600160581b810460070b6060830152600160981b9004909116608082015261174c61174483611afd565b825188612600565b5f805b858110156119b5573687878381811061176a5761176a613913565b905060200281019061177c9190613aa4565b80355f908152603660209081526040808320815160808101835281546001600160401b038082168352600160401b8204811695830195909552600160801b8104909416928101929092529394509192906060830190600160c01b900460ff1660028111156117ec576117ec6134ba565b60028111156117fd576117fd6134ba565b905250905060018160600151600281111561181a5761181a6134ba565b146118265750506119ad565b856001600160401b031681604001516001600160401b03161061184a5750506119ad565b5f808061185a848a8f35886126c1565b60208b018051939650919450925061187182613ac2565b62ffffff1690525060808801805184919061188d908390613adf565b6001600160401b03169052506060880180518391906118ad908390613afe565b60070b9052506118bd8188613adf565b85355f908152603660209081526040918290208751815492890151938901516001600160401b03908116600160801b0267ffffffffffffffff60801b19958216600160401b026001600160801b0319909516919092161792909217928316821781556060880151939a50879390929091839160ff60c01b1990911668ffffffffffffffffff60801b1990911617600160c01b836002811115611961576119616134ba565b021790555050845160405164ffffffffff90911691506001600160401b038b16907fa91c59033c3423e18b54d0acecebb4972f9ea95aedf5f4cae3b677b02eaf3a3f905f90a350505050505b60010161174f565b506001600160401b038084165f908152603b60205260408120805484939192916119e191859116613adf565b92506101000a8154816001600160401b0302191690836001600160401b0316021790555061098d826127e4565b5f815f81518110611a2157611a21613913565b60200260200101519050919050565b5f81600381518110611a4457611a44613913565b60200260200101515f5f1b14159050919050565b611a6460036020613972565b611a7160208301836138d1565b905014611a91576040516313717da960e21b815260040160405180910390fd5b611ae0611aa160208301836138d1565b8080601f0160208091040260200160405190810160405280939291908181526020018383808284375f9201919091525086925050843590506003612a13565b610f5b576040516309bde33960e01b815260040160405180910390fd5b5f5f7f00000000000000000000000000000000000000000000000000000000000000006001600160a01b0316632704351a6040518163ffffffff1660e01b8152600401602060405180830381865afa158015611b5b573d5f5f3e3d5ffd5b505050506040513d601f19601f82011682018060405250810190611b7f9190613b2d565b9050806001600160401b03165f03611baa576040516341a02cc960e01b815260040160405180910390fd5b806001600160401b0316836001600160401b03161115611bcb576001611bcd565b5f5b9392505050565b60088414611bf55760405163200591bd60e01b815260040160405180910390fd5b5f611bff88612a2a565b905080611c0e6028600161395f565b611c18919061395f565b611c23906020613972565b8314611c42576040516313717da960e21b815260040160405180910390fd5b5f611c7e8787808060200260200160405190810160405280939291908181526020018383602002808284375f92019190915250612a5292505050565b90505f64ffffffffff8416611c956028600161395f565b600b901b179050611cdf86868080601f0160208091040260200160405190810160405280939291908181526020018383808284375f920191909152508d9250869150859050612a13565b611cfc576040516309bde33960e01b815260040160405180910390fd5b50505050505050505050565b603a54600160401b90046001600160401b031615611d385760405162be9bc360e81b815260040160405180910390fd5b603a546001600160401b03428116911603611d66576040516367db5b8b60e01b815260040160405180910390fd5b6034545f906001600160401b0316611d82633b9aca0047613a72565b611d8c9190613a85565b9050818015611da257506001600160401b038116155b15611dc0576040516332dea95960e21b815260040160405180910390fd5b5f6040518060a00160405280611dd542610cb1565b815260395462ffffff1660208201526001600160401b0380851660408301525f60608301819052608090920191909152603a805442909216600160401b026fffffffffffffffff0000000000000000199092169190911790559050611e39816127e4565b805160208083015160405162ffffff90911681526001600160401b034216917f575796133bbed337e5b39aa49a30dc2556a91e0c6c2af4b7b886ae77ebef1076910160405180910390a3505050565b5f5f611ec58484808060200260200160405190810160405280939291908181526020018383602002808284375f92019190915250611a0e92505050565b5f818152603660209081526040808320815160808101835281546001600160401b038082168352600160401b8204811695830195909552600160801b8104909416928101929092529394509192906060830190600160c01b900460ff166002811115611f3357611f336134ba565b6002811115611f4457611f446134ba565b90525090505f81606001516002811115611f6057611f606134ba565b14611f7e576040516335e09e9d60e01b815260040160405180910390fd5b6001600160401b038016611fc38686808060200260200160405190810160405280939291908181526020018383602002808284375f92019190915250612ce292505050565b6001600160401b031603611fea57604051631958236d60e21b815260040160405180910390fd5b6001600160401b03801661202f8686808060200260200160405190810160405280939291908181526020018383602002808284375f92019190915250612d0692505050565b6001600160401b03161461205657604051632eade63760e01b815260040160405180910390fd5b61205e612469565b61206790613b48565b6120a28686808060200260200160405190810160405280939291908181526020018383602002808284375f92019190915250612d1d92505050565b14806120f757506120b1612d31565b6120ba90613b48565b6120f58686808060200260200160405190810160405280939291908181526020018383602002808284375f92019190915250612d1d92505050565b145b61211457604051633772dd5360e11b815260040160405180910390fd5b5f6121508686808060200260200160405190810160405280939291908181526020018383602002808284375f92019190915250612d4d92505050565b905061216961215e8c611afd565b8b88888c8c8f611bd4565b60398054905f61217883613b6b565b9091555050603a545f90600160401b90046001600160401b0316156121af57603a54600160401b90046001600160401b03166121bc565b603a546001600160401b03165b6040805160808101825264ffffffffff8d1681526001600160401b03858116602083015283169181019190915290915060608101600190525f858152603660209081526040918290208351815492850151938501516001600160401b03908116600160801b0267ffffffffffffffff60801b19958216600160401b026001600160801b031990951691909216179290921792831682178155606084015190929091839160ff60c01b1990911668ffffffffffffffffff60801b1990911617600160c01b836002811115612291576122916134ba565b021790555050603d80548492506013906122bc908490600160981b90046001600160401b0316613adf565b92506101000a8154816001600160401b0302191690836001600160401b031602179055507f2d0800bbc377ea54a08c5db6a87aafff5e3e9c8fead0eda110e40e0c104414498a60405161231c919064ffffffffff91909116815260200190565b60405180910390a16040805164ffffffffff8c1681526001600160401b03838116602083015284168183015290517f0e5fac175b83177cc047381e030d8fb3b42b37bd1c025e22c280facad62c32df9181900360600190a161238b633b9aca006001600160401b038416613972565b9c9b505050505050505050505050565b60605f6123a783612d64565b6040805160208082528183019092529192505f91906020820181803683375050509182525060208101929092525090565b5f81516030146123fb57604051634f88323960e11b815260040160405180910390fd5b6040516002906124119084905f90602001613b83565b60408051601f198184030181529082905261242b916139b3565b602060405180830381855afa158015612446573d5f5f3e3d5ffd5b5050506040513d601f19601f82011682018060405250810190610cab91906139be565b60405160609061248590600160f81b905f903090602001613ba7565b604051602081830303815290604052905090565b804710156124e95760405162461bcd60e51b815260206004820152601d60248201527f416464726573733a20696e73756666696369656e742062616c616e63650000006044820152606401611362565b5f826001600160a01b0316826040515f6040518083038185875af1925050503d805f8114612532576040519150601f19603f3d011682016040523d82523d5f602084013e612537565b606091505b50509050806112c75760405162461bcd60e51b815260206004820152603a60248201527f416464726573733a20756e61626c6520746f2073656e642076616c75652c207260448201527f6563697069656e74206d617920686176652072657665727465640000000000006064820152608401611362565b604080516001600160a01b038416602482015260448082018490528251808303909101815260649091019091526020810180516001600160e01b031663a9059cbb60e01b1790526112c7908490612d8b565b5f61260a84612a2a565b905061261781600361395f565b612622906020613972565b61262f60208401846138d1565b90501461264f576040516313717da960e21b815260040160405180910390fd5b6003811b600c176126a461266660208501856138d1565b8080601f0160208091040260200160405190810160405280939291908181526020018383808284375f92019190915250889250508635905084612a13565b611602576040516309bde33960e01b815260040160405180910390fd5b83516020850151905f908190816126d9878388612e5e565b9050846001600160401b0316816001600160401b031614612753576126fe8582613be5565b6040805164ffffffffff851681526001600160401b038b8116602083015284168183015290519195507f0e5fac175b83177cc047381e030d8fb3b42b37bd1c025e22c280facad62c32df919081900360600190a15b6001600160401b0380821660208b0181905290891660408b01525f036127d85760398054905f61278283613c14565b9091555050600260608a015261279784613c29565b92508164ffffffffff16886001600160401b03167f2a02361ffa66cf2c2da4682c2355a6adcaa9f6c227b6e6563e68480f9587626a60405160405180910390a35b50509450945094915050565b602081015162ffffff1615612884578051603c556020810151603d80546040840151606085015160809095015162ffffff9094166affffffffffffffffffffff199092169190911763010000006001600160401b0392831602176fffffffffffffffffffffffffffffffff60581b1916600160581b9482169490940267ffffffffffffffff60981b191693909317600160981b9390921692909202179055565b60808101516034545f916128a0916001600160401b0316613adf565b90505f826060015183604001516128b79190613afe565b60408401516034805492935090915f906128db9084906001600160401b0316613adf565b82546101009290920a6001600160401b03818102199093169183160217909155603a8054600160401b810483166001600160801b03199091161790555f915061292b90633b9aca00908516613972565b90505f612940633b9aca00600785900b613c4e565b603a546040518281529192506001600160401b0316907f525408c201bc1576eb44116f6478f1c2a54775b19a043bcfdc708364f74f8e449060200160405180910390a260335460405163a1ca780b60e01b81526001600160a01b03918216600482015260248101849052604481018390527f00000000000000000000000000000000000000000000000000000000000000009091169063a1ca780b906064015f604051808303815f87803b1580156129f6575f5ffd5b505af1158015612a08573d5f5f3e3d5ffd5b505050505050505050565b5f83612a20868585612f3c565b1495945050505050565b5f80826001811115612a3e57612a3e6134ba565b14612a4a576006610cab565b600592915050565b5f5f60028351612a629190613a72565b90505f816001600160401b03811115612a7d57612a7d613668565b604051908082528060200260200182016040528015612aa6578160200160208202803683370190505b5090505f5b82811015612ba057600285612ac08383613972565b81518110612ad057612ad0613913565b602002602001015186836002612ae69190613972565b612af190600161395f565b81518110612b0157612b01613913565b6020026020010151604051602001612b23929190918252602082015260400190565b60408051601f1981840301815290829052612b3d916139b3565b602060405180830381855afa158015612b58573d5f5f3e3d5ffd5b5050506040513d601f19601f82011682018060405250810190612b7b91906139be565b828281518110612b8d57612b8d613913565b6020908102919091010152600101612aab565b50612bac600283613a72565b91505b8115612cbf575f5b82811015612cac57600282612bcc8383613972565b81518110612bdc57612bdc613913565b602002602001015183836002612bf29190613972565b612bfd90600161395f565b81518110612c0d57612c0d613913565b6020026020010151604051602001612c2f929190918252602082015260400190565b60408051601f1981840301815290829052612c49916139b3565b602060405180830381855afa158015612c64573d5f5f3e3d5ffd5b5050506040513d601f19601f82011682018060405250810190612c8791906139be565b828281518110612c9957612c99613913565b6020908102919091010152600101612bb7565b50612cb8600283613a72565b9150612baf565b805f81518110612cd157612cd1613913565b602002602001015192505050919050565b5f610cab82600581518110612cf957612cf9613913565b6020026020010151613010565b5f610cab82600681518110612cf957612cf9613913565b5f81600181518110611a2157611a21613913565b60405160609061248590600160f91b905f903090602001613ba7565b5f610cab82600281518110612cf957612cf9613913565b5f60ff8216601f811115610cab57604051632cd44ac360e21b815260040160405180910390fd5b5f612ddf826040518060400160405280602081526020017f5361666545524332303a206c6f772d6c6576656c2063616c6c206661696c6564815250856001600160a01b03166130779092919063ffffffff16565b905080515f1480612dff575080806020019051810190612dff9190613871565b6112c75760405162461bcd60e51b815260206004820152602a60248201527f5361666545524332303a204552433230206f7065726174696f6e20646964206e6044820152691bdd081cdd58d8d9595960b21b6064820152608401611362565b5f612e6b6026600161395f565b612e76906020613972565b612e8360408401846138d1565b905014612ea3576040516313717da960e21b815260040160405180910390fd5b5f612eaf600485613c7d565b64ffffffffff169050612f08612ec860408501856138d1565b8080601f0160208091040260200160405190810160405280939291908181526020018383808284375f920191909152508992505050602086013584612a13565b612f25576040516309bde33960e01b815260040160405180910390fd5b612f33836020013585613085565b95945050505050565b5f83515f14158015612f59575060208451612f579190613ca6565b155b612f76576040516313717da960e21b815260040160405180910390fd5b604080516020808201909252848152905b8551811161300657612f9a600285613ca6565b5f03612fcc5781515f528086015160205260208260405f60026107d05a03fa612fc1575f5ffd5b600284049350612ff4565b808601515f52815160205260208260405f60026107d05a03fa612fed575f5ffd5b6002840493505b612fff60208261395f565b9050612f87565b5051949350505050565b60f881901c60e882901c61ff00161760d882901c62ff0000161760c882901c63ff000000161764ff0000000060b883901c161765ff000000000060a883901c161766ff000000000000609883901c161767ff0000000000000060889290921c919091161790565b6060610db784845f856130b1565b5f80613092600484613cb9565b61309d906040613ce2565b64ffffffffff169050610db784821b613010565b6060824710156131125760405162461bcd60e51b815260206004820152602660248201527f416464726573733a20696e73756666696369656e742062616c616e636520666f6044820152651c8818d85b1b60d21b6064820152608401611362565b5f5f866001600160a01b0316858760405161312d91906139b3565b5f6040518083038185875af1925050503d805f8114613167576040519150601f19603f3d011682016040523d82523d5f602084013e61316c565b606091505b509150915061317d87838387613188565b979650505050505050565b606083156131f65782515f036131ef576001600160a01b0385163b6131ef5760405162461bcd60e51b815260206004820152601d60248201527f416464726573733a2063616c6c20746f206e6f6e2d636f6e74726163740000006044820152606401611362565b5081610db7565b610db7838381511561320b5781518083602001fd5b8060405162461bcd60e51b8152600401611362919061342d565b6001600160401b0381168114613239575f5ffd5b50565b5f6040828403121561324c575f5ffd5b50919050565b5f5f5f60608486031215613264575f5ffd5b833561326f81613225565b925060208401356001600160401b03811115613289575f5ffd5b6132958682870161323c565b92505060408401356001600160401b038111156132b0575f5ffd5b6132bc8682870161323c565b9150509250925092565b5f5f83601f8401126132d6575f5ffd5b5081356001600160401b038111156132ec575f5ffd5b6020830191508360208260051b8501011115613306575f5ffd5b9250929050565b5f5f5f5f5f5f5f5f60a0898b031215613324575f5ffd5b883561332f81613225565b975060208901356001600160401b03811115613349575f5ffd5b6133558b828c0161323c565b97505060408901356001600160401b03811115613370575f5ffd5b61337c8b828c016132c6565b90975095505060608901356001600160401b0381111561339a575f5ffd5b6133a68b828c016132c6565b90955093505060808901356001600160401b038111156133c4575f5ffd5b6133d08b828c016132c6565b999c989b5096995094979396929594505050565b5f602082840312156133f4575f5ffd5b8135611bcd81613225565b5f81518084528060208401602086015e5f602082860101526020601f19601f83011685010191505092915050565b602081525f611bcd60208301846133ff565b5f5f83601f84011261344f575f5ffd5b5081356001600160401b03811115613465575f5ffd5b602083019150836020828501011115613306575f5ffd5b5f5f6020838503121561348d575f5ffd5b82356001600160401b038111156134a2575f5ffd5b6134ae8582860161343f565b90969095509350505050565b634e487b7160e01b5f52602160045260245ffd5b600381106134ea57634e487b7160e01b5f52602160045260245ffd5b9052565b60208101610cab82846134ce565b5f6020828403121561350c575f5ffd5b5035919050565b5f6080820190506001600160401b0383511682526001600160401b0360208401511660208301526001600160401b036040840151166040830152606083015161355f60608401826134ce565b5092915050565b8015158114613239575f5ffd5b5f60208284031215613583575f5ffd5b8135611bcd81613566565b5f5f5f5f5f606086880312156135a2575f5ffd5b85356001600160401b038111156135b7575f5ffd5b6135c38882890161343f565b90965094505060208601356001600160401b038111156135e1575f5ffd5b6135ed8882890161343f565b96999598509660400135949350505050565b6001600160a01b0381168114613239575f5ffd5b803561361e816135ff565b919050565b5f5f60408385031215613634575f5ffd5b823561363f816135ff565b946020939093013593505050565b5f6020828403121561365d575f5ffd5b8135611bcd816135ff565b634e487b7160e01b5f52604160045260245ffd5b604051601f8201601f191681016001600160401b03811182821017156136a4576136a4613668565b604052919050565b5f6001600160401b038211156136c4576136c4613668565b5060051b60200190565b5f82601f8301126136dd575f5ffd5b81356136f06136eb826136ac565b61367c565b8082825260208201915060208360051b860101925085831115613711575f5ffd5b602085015b8381101561372e578035835260209283019201613716565b5095945050505050565b5f5f5f6060848603121561374a575f5ffd5b83356001600160401b0381111561375f575f5ffd5b8401601f8101861361376f575f5ffd5b803561377d6136eb826136ac565b8082825260208201915060208360051b85010192508883111561379e575f5ffd5b6020840193505b828410156137c95783356137b8816135ff565b8252602093840193909101906137a5565b955050505060208401356001600160401b038111156137e6575f5ffd5b6137f2868287016136ce565b92505061380160408501613613565b90509250925092565b5f5f5f6040848603121561381c575f5ffd5b83356001600160401b03811115613831575f5ffd5b61383d8682870161323c565b93505060208401356001600160401b03811115613858575f5ffd5b613864868287016132c6565b9497909650939450505050565b5f60208284031215613881575f5ffd5b8151611bcd81613566565b5f5f8335601e198436030181126138a1575f5ffd5b8301803591506001600160401b038211156138ba575f5ffd5b6020019150600581901b3603821315613306575f5ffd5b5f5f8335601e198436030181126138e6575f5ffd5b8301803591506001600160401b038211156138ff575f5ffd5b602001915036819003821315613306575f5ffd5b634e487b7160e01b5f52603260045260245ffd5b5f60208284031215613937575f5ffd5b813564ffffffffff81168114611bcd575f5ffd5b634e487b7160e01b5f52601160045260245ffd5b80820180821115610cab57610cab61394b565b8082028115828204841417610cab57610cab61394b565b81810381811115610cab57610cab61394b565b5f81518060208401855e5f93019283525090919050565b5f611bcd828461399c565b5f602082840312156139ce575f5ffd5b5051919050565b81835281816020850137505f828201602090810191909152601f909101601f19169091010190565b608081525f613a1060808301888a6139d5565b8281036020840152613a2281886133ff565b90508281036040840152613a378186886139d5565b915050826060830152979650505050505050565b602081525f610db76020830184866139d5565b634e487b7160e01b5f52601260045260245ffd5b5f82613a8057613a80613a5e565b500490565b6001600160401b038281168282160390811115610cab57610cab61394b565b5f8235605e19833603018112613ab8575f5ffd5b9190910192915050565b5f62ffffff821680613ad657613ad661394b565b5f190192915050565b6001600160401b038181168382160190811115610cab57610cab61394b565b600781810b9083900b01677fffffffffffffff8113677fffffffffffffff1982121715610cab57610cab61394b565b5f60208284031215613b3d575f5ffd5b8151611bcd81613225565b8051602080830151919081101561324c575f1960209190910360031b1b16919050565b5f60018201613b7c57613b7c61394b565b5060010190565b5f613b8e828561399c565b6001600160801b03199390931683525050601001919050565b6001600160f81b03199390931683526001600160a81b031991909116600183015260601b6bffffffffffffffffffffffff1916600c82015260200190565b600782810b9082900b03677fffffffffffffff198112677fffffffffffffff82131715610cab57610cab61394b565b5f81613c2257613c2261394b565b505f190190565b5f8160070b677fffffffffffffff198103613c4657613c4661394b565b5f0392915050565b8082025f8212600160ff1b84141615613c6957613c6961394b565b8181058314821517610cab57610cab61394b565b5f64ffffffffff831680613c9357613c93613a5e565b8064ffffffffff84160491505092915050565b5f82613cb457613cb4613a5e565b500690565b5f64ffffffffff831680613ccf57613ccf613a5e565b8064ffffffffff84160691505092915050565b64ffffffffff818116838216029081169081811461355f5761355f61394b56fea2646970667358221220e7cf4a946e3e83a143fbfaf4ef08a4ab5ae37cc6de453873c4819eccaf52584e64736f6c634300081b0033","linkReferences":{}},"methodIdentifiers":{"GENESIS_TIME()":"f2882461","activeValidatorCount()":"2340e8d3","checkpointBalanceExitedGwei(uint64)":"52396a59","currentCheckpoint()":"47d28372","currentCheckpointTimestamp()":"42ecff2a","eigenPodManager()":"4665bcda","ethPOS()":"74cdd798","getParentBlockRoot(uint64)":"6c0d2d5a","initialize(address)":"c4d66de8","lastCheckpointTimestamp()":"ee94d67c","podOwner()":"0b18ff66","proofSubmitter()":"58753357","recoverTokens(address[],uint256[],address)":"dda3346c","setProofSubmitter(address)":"d06d5587","stake(bytes,bytes,bytes32)":"9b4e4634","startCheckpoint(bool)":"88676cad","validatorPubkeyHashToInfo(bytes32)":"6fcd0e53","validatorPubkeyToInfo(bytes)":"b522538a","validatorStatus(bytes)":"58eaee79","validatorStatus(bytes32)":"7439841f","verifyCheckpointProofs((bytes32,bytes),(bytes32,bytes32,bytes)[])":"f074ba62","verifyStaleBalance(uint64,(bytes32,bytes),(bytes32[],bytes))":"039157d2","verifyWithdrawalCredentials(uint64,(bytes32,bytes),uint40[],bytes[],bytes32[][])":"3f65cf19","version()":"54fd4d50","withdrawRestakedBeaconChainETH(address,uint256)":"c4907442","withdrawableRestakedExecutionLayerGwei()":"3474aa16"},"id":161}