{"abi":[{"type":"constructor","inputs":[{"name":"_version","type":"string","internalType":"string"}],"stateMutability":"nonpayable"},{"type":"function","name":"acceptAdmin","inputs":[{"name":"account","type":"address","internalType":"address"}],"outputs":[],"stateMutability":"nonpayable"},{"type":"function","name":"addPendingAdmin","inputs":[{"name":"account","type":"address","internalType":"address"},{"name":"admin","type":"address","internalType":"address"}],"outputs":[],"stateMutability":"nonpayable"},{"type":"function","name":"canCall","inputs":[{"name":"account","type":"address","internalType":"address"},{"name":"caller","type":"address","internalType":"address"},{"name":"target","type":"address","internalType":"address"},{"name":"selector","type":"bytes4","internalType":"bytes4"}],"outputs":[{"name":"","type":"bool","internalType":"bool"}],"stateMutability":"view"},{"type":"function","name":"getAdmins","inputs":[{"name":"account","type":"address","internalType":"address"}],"outputs":[{"name":"","type":"address[]","internalType":"address[]"}],"stateMutability":"view"},{"type":"function","name":"getAppointeePermissions","inputs":[{"name":"account","type":"address","internalType":"address"},{"name":"appointee","type":"address","internalType":"address"}],"outputs":[{"name":"","type":"address[]","internalType":"address[]"},{"name":"","type":"bytes4[]","internalType":"bytes4[]"}],"stateMutability":"view"},{"type":"function","name":"getAppointees","inputs":[{"name":"account","type":"address","internalType":"address"},{"name":"target","type":"address","internalType":"address"},{"name":"selector","type":"bytes4","internalType":"bytes4"}],"outputs":[{"name":"","type":"address[]","internalType":"address[]"}],"stateMutability":"view"},{"type":"function","name":"getPendingAdmins","inputs":[{"name":"account","type":"address","internalType":"address"}],"outputs":[{"name":"","type":"address[]","internalType":"address[]"}],"stateMutability":"view"},{"type":"function","name":"isAdmin","inputs":[{"name":"account","type":"address","internalType":"address"},{"name":"caller","type":"address","internalType":"address"}],"outputs":[{"name":"","type":"bool","internalType":"bool"}],"stateMutability":"view"},{"type":"function","name":"isPendingAdmin","inputs":[{"name":"account","type":"address","internalType":"address"},{"name":"pendingAdmin","type":"address","internalType":"address"}],"outputs":[{"name":"","type":"bool","internalType":"bool"}],"stateMutability":"view"},{"type":"function","name":"removeAdmin","inputs":[{"name":"account","type":"address","internalType":"address"},{"name":"admin","type":"address","internalType":"address"}],"outputs":[],"stateMutability":"nonpayable"},{"type":"function","name":"removeAppointee","inputs":[{"name":"account","type":"address","internalType":"address"},{"name":"appointee","type":"address","internalType":"address"},{"name":"target","type":"address","internalType":"address"},{"name":"selector","type":"bytes4","internalType":"bytes4"}],"outputs":[],"stateMutability":"nonpayable"},{"type":"function","name":"removePendingAdmin","inputs":[{"name":"account","type":"address","internalType":"address"},{"name":"admin","type":"address","internalType":"address"}],"outputs":[],"stateMutability":"nonpayable"},{"type":"function","name":"setAppointee","inputs":[{"name":"account","type":"address","internalType":"address"},{"name":"appointee","type":"address","internalType":"address"},{"name":"target","type":"address","internalType":"address"},{"name":"selector","type":"bytes4","internalType":"bytes4"}],"outputs":[],"stateMutability":"nonpayable"},{"type":"function","name":"version","inputs":[],"outputs":[{"name":"","type":"string","internalType":"string"}],"stateMutability":"view"},{"type":"event","name":"AdminRemoved","inputs":[{"name":"account","type":"address","indexed":true,"internalType":"address"},{"name":"admin","type":"address","indexed":false,"internalType":"address"}],"anonymous":false},{"type":"event","name":"AdminSet","inputs":[{"name":"account","type":"address","indexed":true,"internalType":"address"},{"name":"admin","type":"address","indexed":false,"internalType":"address"}],"anonymous":false},{"type":"event","name":"AppointeeRemoved","inputs":[{"name":"account","type":"address","indexed":true,"internalType":"address"},{"name":"appointee","type":"address","indexed":true,"internalType":"address"},{"name":"target","type":"address","indexed":false,"internalType":"address"},{"name":"selector","type":"bytes4","indexed":false,"internalType":"bytes4"}],"anonymous":false},{"type":"event","name":"AppointeeSet","inputs":[{"name":"account","type":"address","indexed":true,"internalType":"address"},{"name":"appointee","type":"address","indexed":true,"internalType":"address"},{"name":"target","type":"address","indexed":false,"internalType":"address"},{"name":"selector","type":"bytes4","indexed":false,"internalType":"bytes4"}],"anonymous":false},{"type":"event","name":"Initialized","inputs":[{"name":"version","type":"uint8","indexed":false,"internalType":"uint8"}],"anonymous":false},{"type":"event","name":"PendingAdminAdded","inputs":[{"name":"account","type":"address","indexed":true,"internalType":"address"},{"name":"admin","type":"address","indexed":false,"internalType":"address"}],"anonymous":false},{"type":"event","name":"PendingAdminRemoved","inputs":[{"name":"account","type":"address","indexed":true,"internalType":"address"},{"name":"admin","type":"address","indexed":false,"internalType":"address"}],"anonymous":false},{"type":"error","name":"AdminAlreadyPending","inputs":[]},{"type":"error","name":"AdminAlreadySet","inputs":[]},{"type":"error","name":"AdminNotPending","inputs":[]},{"type":"error","name":"AdminNotSet","inputs":[]},{"type":"error","name":"AppointeeAlreadySet","inputs":[]},{"type":"error","name":"AppointeeNotSet","inputs":[]},{"type":"error","name":"CannotHaveZeroAdmins","inputs":[]},{"type":"error","name":"InvalidShortString","inputs":[]},{"type":"error","name":"NotAdmin","inputs":[]},{"type":"error","name":"StringTooLong","inputs":[{"name":"str","type":"string","internalType":"string"}]}],"bytecode":{"object":"0x60a060405234801561000f575f5ffd5b506040516112b73803806112b783398101604081905261002e9161015c565b806100388161004a565b60805250610044610090565b50610267565b5f5f829050601f8151111561007d578260405163305a27a960e01b8152600401610074919061020c565b60405180910390fd5b805161008882610241565b179392505050565b5f54610100900460ff16156100f75760405162461bcd60e51b815260206004820152602760248201527f496e697469616c697a61626c653a20636f6e747261637420697320696e697469604482015266616c697a696e6760c81b6064820152608401610074565b5f5460ff90811614610146575f805460ff191660ff9081179091556040519081527f7f26b83ff96e1f2b6a682f133852f6798a09c465da95921460cefb38474024989060200160405180910390a15b565b634e487b7160e01b5f52604160045260245ffd5b5f6020828403121561016c575f5ffd5b81516001600160401b03811115610181575f5ffd5b8201601f81018413610191575f5ffd5b80516001600160401b038111156101aa576101aa610148565b604051601f8201601f19908116603f011681016001600160401b03811182821017156101d8576101d8610148565b6040528181528282016020018610156101ef575f5ffd5b8160208401602083015e5f91810160200191909152949350505050565b602081525f82518060208401528060208501604085015e5f604082850101526040601f19601f83011684010191505092915050565b80516020808301519190811015610261575f198160200360031b1b821691505b50919050565b60805161103861027f5f395f6104d101526110385ff3fe608060405234801561000f575f5ffd5b50600436106100e5575f3560e01c80639100674511610088578063ad8aca7711610063578063ad8aca77146101df578063df595cb8146101f2578063eb5a4e8714610205578063fddbdefd14610218575f5ffd5b80639100674514610196578063950d806e146101b9578063ad5f2210146101cc575f5ffd5b806354fd4d50116100c357806354fd4d5014610124578063628806ef146101425780636bddfa1f14610155578063882a3b3814610175575f5ffd5b806306641201146100e9578063268959e5146100fe5780634f906cf914610111575b5f5ffd5b6100fc6100f7366004610dbd565b61022b565b005b6100fc61010c366004610e0e565b61034c565b6100fc61011f366004610e0e565b610427565b61012c6104ca565b6040516101399190610e3f565b60405180910390f35b6100fc610150366004610e74565b6104fa565b610168610163366004610e74565b610588565b6040516101399190610ed0565b610188610183366004610e0e565b6105b1565b604051610139929190610ee2565b6101a96101a4366004610e0e565b610712565b6040519015158152602001610139565b6100fc6101c7366004610dbd565b610782565b6101686101da366004610e74565b610893565b6101a96101ed366004610e0e565b610939565b6101a9610200366004610dbd565b61095a565b6100fc610213366004610e0e565b6109af565b610168610226366004610f44565b610a7d565b836102368133610712565b61025357604051637bfa4b9f60e01b815260040160405180910390fd5b6001600160a01b0385165f908152600160205260408120906102758585610abb565b6001600160a01b0387165f908152600484016020526040902090915061029b9082610ae8565b6102b85760405163262118cd60e01b815260040160405180910390fd5b6001600160a01b0386165f90815260048301602052604090206102db9082610aff565b505f81815260058301602052604090206102f59087610b0a565b50856001600160a01b0316876001600160a01b03167f18242326b6b862126970679759169f01f646bd55ec5bfcab85ba9f337a74e0c6878760405161033b929190610f84565b60405180910390a350505050505050565b816103578133610712565b61037457604051637bfa4b9f60e01b815260040160405180910390fd5b6001600160a01b0383165f9081526001602081905260409091206002019061039b82610b1e565b116103b9576040516310ce892b60e31b815260040160405180910390fd5b6103c38184610b0a565b6103e057604051630716d81b60e51b815260040160405180910390fd5b6040516001600160a01b0384811682528516907fdb9d5d31320daf5bc7181d565b6da4d12e30f0f4d5aa324a992426c14a1d19ce906020015b60405180910390a250505050565b816104328133610712565b61044f57604051637bfa4b9f60e01b815260040160405180910390fd5b6001600160a01b0383165f9081526001602052604090206104708184610b0a565b61048d5760405163bed8295f60e01b815260040160405180910390fd5b6040516001600160a01b0384811682528516907fd706ed7ae044d795b49e54c9f519f663053951011985f663a862cd9ee72a9ac790602001610419565b60606104f57f0000000000000000000000000000000000000000000000000000000000000000610b27565b905090565b6001600160a01b0381165f90815260016020526040902061051b8133610b0a565b6105385760405163bed8295f60e01b815260040160405180910390fd5b6105456002820133610b64565b506040513381526001600160a01b038316907fbf265e8326285a2747e33e54d5945f7111f2b5edb826eb8c08d4677779b3ff979060200160405180910390a25050565b6001600160a01b0381165f9081526001602052604090206060906105ab90610b78565b92915050565b6001600160a01b038083165f9081526001602090815260408083209385168352600490930190529081206060918291906105ea82610b1e565b90505f8167ffffffffffffffff81111561060657610606610fa7565b60405190808252806020026020018201604052801561062f578160200160208202803683370190505b5090505f8267ffffffffffffffff81111561064c5761064c610fa7565b604051908082528060200260200182016040528015610675578160200160208202803683370190505b5090505f5b83811015610704576106a861068f8683610b84565b606081901c9160a09190911b6001600160e01b03191690565b8483815181106106ba576106ba610fbb565b602002602001018484815181106106d3576106d3610fbb565b6001600160e01b0319909316602093840291909101909201919091526001600160a01b03909116905260010161067a565b509097909650945050505050565b6001600160a01b0382165f90815260016020526040812061073590600201610b1e565b5f0361075757816001600160a01b0316836001600160a01b03161490506105ab565b6001600160a01b0383165f90815260016020526040902061077b9060020183610b8f565b9392505050565b8361078d8133610712565b6107aa57604051637bfa4b9f60e01b815260040160405180910390fd5b6001600160a01b0385165f908152600160205260408120906107cc8585610abb565b6001600160a01b0387165f90815260048401602052604090209091506107f29082610ae8565b156108105760405163ad8efeb760e01b815260040160405180910390fd5b6001600160a01b0386165f90815260048301602052604090206108339082610bb0565b505f818152600583016020526040902061084d9087610b64565b50856001600160a01b0316876001600160a01b03167f037f03a2ad6b967df4a01779b6d2b4c85950df83925d9e31362b519422fc0169878760405161033b929190610f84565b6001600160a01b0381165f9081526001602052604090206060906108b990600201610b1e565b5f03610911576040805160018082528183019092525f916020808301908036833701905050905082815f815181106108f3576108f3610fbb565b6001600160a01b039092166020928302919091019091015292915050565b6001600160a01b0382165f9081526001602052604090206105ab90600201610b78565b919050565b6001600160a01b0382165f90815260016020526040812061077b9083610b8f565b5f6109658585610712565b806109a657506109a66109788484610abb565b6001600160a01b038088165f908152600160209081526040808320938a168352600490930190522090610ae8565b95945050505050565b816109ba8133610712565b6109d757604051637bfa4b9f60e01b815260040160405180910390fd5b6001600160a01b0383165f9081526001602052604090206109fb6002820184610b8f565b15610a195760405163130160e560e31b815260040160405180910390fd5b610a238184610b64565b610a40576040516319abede360e11b815260040160405180910390fd5b6040516001600160a01b0384811682528516907fb14b9a3d448c5b04f0e5b087b6f5193390db7955482a6ffb841e7b3ba61a460c90602001610419565b60605f610a8a8484610abb565b6001600160a01b0386165f90815260016020908152604080832084845260050190915290209091506109a690610b78565b60609190911b6bffffffffffffffffffffffff191660a09190911c6bffffffff0000000000000000161790565b5f818152600183016020526040812054151561077b565b5f61077b8383610bbb565b5f61077b836001600160a01b038416610bbb565b5f6105ab825490565b60605f610b3383610c9e565b6040805160208082528183019092529192505f91906020820181803683375050509182525060208101929092525090565b5f61077b836001600160a01b038416610cc5565b60605f61077b83610d11565b5f61077b8383610d6a565b6001600160a01b0381165f908152600183016020526040812054151561077b565b5f61077b8383610cc5565b5f8181526001830160205260408120548015610c95575f610bdd600183610fcf565b85549091505f90610bf090600190610fcf565b9050818114610c4f575f865f018281548110610c0e57610c0e610fbb565b905f5260205f200154905080875f018481548110610c2e57610c2e610fbb565b5f918252602080832090910192909255918252600188019052604090208390555b8554869080610c6057610c60610fee565b600190038181905f5260205f20015f90559055856001015f8681526020019081526020015f205f9055600193505050506105ab565b5f9150506105ab565b5f60ff8216601f8111156105ab57604051632cd44ac360e21b815260040160405180910390fd5b5f818152600183016020526040812054610d0a57508154600181810184555f8481526020808220909301849055845484825282860190935260409020919091556105ab565b505f6105ab565b6060815f01805480602002602001604051908101604052809291908181526020018280548015610d5e57602002820191905f5260205f20905b815481526020019060010190808311610d4a575b50505050509050919050565b5f825f018281548110610d7f57610d7f610fbb565b905f5260205f200154905092915050565b80356001600160a01b0381168114610934575f5ffd5b80356001600160e01b031981168114610934575f5ffd5b5f5f5f5f60808587031215610dd0575f5ffd5b610dd985610d90565b9350610de760208601610d90565b9250610df560408601610d90565b9150610e0360608601610da6565b905092959194509250565b5f5f60408385031215610e1f575f5ffd5b610e2883610d90565b9150610e3660208401610d90565b90509250929050565b602081525f82518060208401528060208501604085015e5f604082850101526040601f19601f83011684010191505092915050565b5f60208284031215610e84575f5ffd5b61077b82610d90565b5f8151808452602084019350602083015f5b82811015610ec65781516001600160a01b0316865260209586019590910190600101610e9f565b5093949350505050565b602081525f61077b6020830184610e8d565b604081525f610ef46040830185610e8d565b82810360208401528084518083526020830191506020860192505f5b81811015610f385783516001600160e01b031916835260209384019390920191600101610f10565b50909695505050505050565b5f5f5f60608486031215610f56575f5ffd5b610f5f84610d90565b9250610f6d60208501610d90565b9150610f7b60408501610da6565b90509250925092565b6001600160a01b039290921682526001600160e01b031916602082015260400190565b634e487b7160e01b5f52604160045260245ffd5b634e487b7160e01b5f52603260045260245ffd5b818103818111156105ab57634e487b7160e01b5f52601160045260245ffd5b634e487b7160e01b5f52603160045260245ffdfea2646970667358221220d27fc578553d9b089fb6c1e7b6c2d45f132cb089bd090ffcdf7dad08628d4e8464736f6c634300081b0033","linkReferences":{}},"methodIdentifiers":{"acceptAdmin(address)":"628806ef","addPendingAdmin(address,address)":"eb5a4e87","canCall(address,address,address,bytes4)":"df595cb8","getAdmins(address)":"ad5f2210","getAppointeePermissions(address,address)":"882a3b38","getAppointees(address,address,bytes4)":"fddbdefd","getPendingAdmins(address)":"6bddfa1f","isAdmin(address,address)":"91006745","isPendingAdmin(address,address)":"ad8aca77","removeAdmin(address,address)":"268959e5","removeAppointee(address,address,address,bytes4)":"06641201","removePendingAdmin(address,address)":"4f906cf9","setAppointee(address,address,address,bytes4)":"950d806e","version()":"54fd4d50"},"id":159}