{"abi":[{"type":"constructor","inputs":[{"name":"_strategyManager","type":"address","internalType":"contract IStrategyManager"},{"name":"_eigenPodManager","type":"address","internalType":"contract IEigenPodManager"},{"name":"_allocationManager","type":"address","internalType":"contract IAllocationManager"},{"name":"_pauserRegistry","type":"address","internalType":"contract IPauserRegistry"},{"name":"_permissionController","type":"address","internalType":"contract IPermissionController"},{"name":"_MIN_WITHDRAWAL_DELAY","type":"uint32","internalType":"uint32"},{"name":"_version","type":"string","internalType":"string"}],"stateMutability":"nonpayable"},{"type":"function","name":"DELEGATION_APPROVAL_TYPEHASH","inputs":[],"outputs":[{"name":"","type":"bytes32","internalType":"bytes32"}],"stateMutability":"view"},{"type":"function","name":"allocationManager","inputs":[],"outputs":[{"name":"","type":"address","internalType":"contract IAllocationManager"}],"stateMutability":"view"},{"type":"function","name":"beaconChainETHStrategy","inputs":[],"outputs":[{"name":"","type":"address","internalType":"contract IStrategy"}],"stateMutability":"view"},{"type":"function","name":"calculateDelegationApprovalDigestHash","inputs":[{"name":"staker","type":"address","internalType":"address"},{"name":"operator","type":"address","internalType":"address"},{"name":"approver","type":"address","internalType":"address"},{"name":"approverSalt","type":"bytes32","internalType":"bytes32"},{"name":"expiry","type":"uint256","internalType":"uint256"}],"outputs":[{"name":"","type":"bytes32","internalType":"bytes32"}],"stateMutability":"view"},{"type":"function","name":"calculateWithdrawalRoot","inputs":[{"name":"withdrawal","type":"tuple","internalType":"struct IDelegationManagerTypes.Withdrawal","components":[{"name":"staker","type":"address","internalType":"address"},{"name":"delegatedTo","type":"address","internalType":"address"},{"name":"withdrawer","type":"address","internalType":"address"},{"name":"nonce","type":"uint256","internalType":"uint256"},{"name":"startBlock","type":"uint32","internalType":"uint32"},{"name":"strategies","type":"address[]","internalType":"contract IStrategy[]"},{"name":"scaledShares","type":"uint256[]","internalType":"uint256[]"}]}],"outputs":[{"name":"","type":"bytes32","internalType":"bytes32"}],"stateMutability":"pure"},{"type":"function","name":"completeQueuedWithdrawal","inputs":[{"name":"withdrawal","type":"tuple","internalType":"struct IDelegationManagerTypes.Withdrawal","components":[{"name":"staker","type":"address","internalType":"address"},{"name":"delegatedTo","type":"address","internalType":"address"},{"name":"withdrawer","type":"address","internalType":"address"},{"name":"nonce","type":"uint256","internalType":"uint256"},{"name":"startBlock","type":"uint32","internalType":"uint32"},{"name":"strategies","type":"address[]","internalType":"contract IStrategy[]"},{"name":"scaledShares","type":"uint256[]","internalType":"uint256[]"}]},{"name":"tokens","type":"address[]","internalType":"contract IERC20[]"},{"name":"receiveAsTokens","type":"bool","internalType":"bool"}],"outputs":[],"stateMutability":"nonpayable"},{"type":"function","name":"completeQueuedWithdrawals","inputs":[{"name":"withdrawals","type":"tuple[]","internalType":"struct IDelegationManagerTypes.Withdrawal[]","components":[{"name":"staker","type":"address","internalType":"address"},{"name":"delegatedTo","type":"address","internalType":"address"},{"name":"withdrawer","type":"address","internalType":"address"},{"name":"nonce","type":"uint256","internalType":"uint256"},{"name":"startBlock","type":"uint32","internalType":"uint32"},{"name":"strategies","type":"address[]","internalType":"contract IStrategy[]"},{"name":"scaledShares","type":"uint256[]","internalType":"uint256[]"}]},{"name":"tokens","type":"address[][]","internalType":"contract IERC20[][]"},{"name":"receiveAsTokens","type":"bool[]","internalType":"bool[]"}],"outputs":[],"stateMutability":"nonpayable"},{"type":"function","name":"convertToDepositShares","inputs":[{"name":"staker","type":"address","internalType":"address"},{"name":"strategies","type":"address[]","internalType":"contract IStrategy[]"},{"name":"withdrawableShares","type":"uint256[]","internalType":"uint256[]"}],"outputs":[{"name":"","type":"uint256[]","internalType":"uint256[]"}],"stateMutability":"view"},{"type":"function","name":"cumulativeWithdrawalsQueued","inputs":[{"name":"staker","type":"address","internalType":"address"}],"outputs":[{"name":"totalQueued","type":"uint256","internalType":"uint256"}],"stateMutability":"view"},{"type":"function","name":"decreaseDelegatedShares","inputs":[{"name":"staker","type":"address","internalType":"address"},{"name":"curDepositShares","type":"uint256","internalType":"uint256"},{"name":"beaconChainSlashingFactorDecrease","type":"uint64","internalType":"uint64"}],"outputs":[],"stateMutability":"nonpayable"},{"type":"function","name":"delegateTo","inputs":[{"name":"operator","type":"address","internalType":"address"},{"name":"approverSignatureAndExpiry","type":"tuple","internalType":"struct ISignatureUtilsMixinTypes.SignatureWithExpiry","components":[{"name":"signature","type":"bytes","internalType":"bytes"},{"name":"expiry","type":"uint256","internalType":"uint256"}]},{"name":"approverSalt","type":"bytes32","internalType":"bytes32"}],"outputs":[],"stateMutability":"nonpayable"},{"type":"function","name":"delegatedTo","inputs":[{"name":"staker","type":"address","internalType":"address"}],"outputs":[{"name":"operator","type":"address","internalType":"address"}],"stateMutability":"view"},{"type":"function","name":"delegationApprover","inputs":[{"name":"operator","type":"address","internalType":"address"}],"outputs":[{"name":"","type":"address","internalType":"address"}],"stateMutability":"view"},{"type":"function","name":"delegationApproverSaltIsSpent","inputs":[{"name":"delegationApprover","type":"address","internalType":"address"},{"name":"salt","type":"bytes32","internalType":"bytes32"}],"outputs":[{"name":"spent","type":"bool","internalType":"bool"}],"stateMutability":"view"},{"type":"function","name":"depositScalingFactor","inputs":[{"name":"staker","type":"address","internalType":"address"},{"name":"strategy","type":"address","internalType":"contract IStrategy"}],"outputs":[{"name":"","type":"uint256","internalType":"uint256"}],"stateMutability":"view"},{"type":"function","name":"domainSeparator","inputs":[],"outputs":[{"name":"","type":"bytes32","internalType":"bytes32"}],"stateMutability":"view"},{"type":"function","name":"eigenPodManager","inputs":[],"outputs":[{"name":"","type":"address","internalType":"contract IEigenPodManager"}],"stateMutability":"view"},{"type":"function","name":"getDepositedShares","inputs":[{"name":"staker","type":"address","internalType":"address"}],"outputs":[{"name":"","type":"address[]","internalType":"contract IStrategy[]"},{"name":"","type":"uint256[]","internalType":"uint256[]"}],"stateMutability":"view"},{"type":"function","name":"getOperatorShares","inputs":[{"name":"operator","type":"address","internalType":"address"},{"name":"strategies","type":"address[]","internalType":"contract IStrategy[]"}],"outputs":[{"name":"","type":"uint256[]","internalType":"uint256[]"}],"stateMutability":"view"},{"type":"function","name":"getOperatorsShares","inputs":[{"name":"operators","type":"address[]","internalType":"address[]"},{"name":"strategies","type":"address[]","internalType":"contract IStrategy[]"}],"outputs":[{"name":"","type":"uint256[][]","internalType":"uint256[][]"}],"stateMutability":"view"},{"type":"function","name":"getQueuedWithdrawal","inputs":[{"name":"withdrawalRoot","type":"bytes32","internalType":"bytes32"}],"outputs":[{"name":"withdrawal","type":"tuple","internalType":"struct IDelegationManagerTypes.Withdrawal","components":[{"name":"staker","type":"address","internalType":"address"},{"name":"delegatedTo","type":"address","internalType":"address"},{"name":"withdrawer","type":"address","internalType":"address"},{"name":"nonce","type":"uint256","internalType":"uint256"},{"name":"startBlock","type":"uint32","internalType":"uint32"},{"name":"strategies","type":"address[]","internalType":"contract IStrategy[]"},{"name":"scaledShares","type":"uint256[]","internalType":"uint256[]"}]},{"name":"shares","type":"uint256[]","internalType":"uint256[]"}],"stateMutability":"view"},{"type":"function","name":"getQueuedWithdrawalRoots","inputs":[{"name":"staker","type":"address","internalType":"address"}],"outputs":[{"name":"","type":"bytes32[]","internalType":"bytes32[]"}],"stateMutability":"view"},{"type":"function","name":"getQueuedWithdrawals","inputs":[{"name":"staker","type":"address","internalType":"address"}],"outputs":[{"name":"withdrawals","type":"tuple[]","internalType":"struct IDelegationManagerTypes.Withdrawal[]","components":[{"name":"staker","type":"address","internalType":"address"},{"name":"delegatedTo","type":"address","internalType":"address"},{"name":"withdrawer","type":"address","internalType":"address"},{"name":"nonce","type":"uint256","internalType":"uint256"},{"name":"startBlock","type":"uint32","internalType":"uint32"},{"name":"strategies","type":"address[]","internalType":"contract IStrategy[]"},{"name":"scaledShares","type":"uint256[]","internalType":"uint256[]"}]},{"name":"shares","type":"uint256[][]","internalType":"uint256[][]"}],"stateMutability":"view"},{"type":"function","name":"getSlashableSharesInQueue","inputs":[{"name":"operator","type":"address","internalType":"address"},{"name":"strategy","type":"address","internalType":"contract IStrategy"}],"outputs":[{"name":"","type":"uint256","internalType":"uint256"}],"stateMutability":"view"},{"type":"function","name":"getWithdrawableShares","inputs":[{"name":"staker","type":"address","internalType":"address"},{"name":"strategies","type":"address[]","internalType":"contract IStrategy[]"}],"outputs":[{"name":"withdrawableShares","type":"uint256[]","internalType":"uint256[]"},{"name":"depositShares","type":"uint256[]","internalType":"uint256[]"}],"stateMutability":"view"},{"type":"function","name":"increaseDelegatedShares","inputs":[{"name":"staker","type":"address","internalType":"address"},{"name":"strategy","type":"address","internalType":"contract IStrategy"},{"name":"prevDepositShares","type":"uint256","internalType":"uint256"},{"name":"addedShares","type":"uint256","internalType":"uint256"}],"outputs":[],"stateMutability":"nonpayable"},{"type":"function","name":"initialize","inputs":[{"name":"initialOwner","type":"address","internalType":"address"},{"name":"initialPausedStatus","type":"uint256","internalType":"uint256"}],"outputs":[],"stateMutability":"nonpayable"},{"type":"function","name":"isDelegated","inputs":[{"name":"staker","type":"address","internalType":"address"}],"outputs":[{"name":"","type":"bool","internalType":"bool"}],"stateMutability":"view"},{"type":"function","name":"isOperator","inputs":[{"name":"operator","type":"address","internalType":"address"}],"outputs":[{"name":"","type":"bool","internalType":"bool"}],"stateMutability":"view"},{"type":"function","name":"minWithdrawalDelayBlocks","inputs":[],"outputs":[{"name":"","type":"uint32","internalType":"uint32"}],"stateMutability":"view"},{"type":"function","name":"modifyOperatorDetails","inputs":[{"name":"operator","type":"address","internalType":"address"},{"name":"newDelegationApprover","type":"address","internalType":"address"}],"outputs":[],"stateMutability":"nonpayable"},{"type":"function","name":"operatorShares","inputs":[{"name":"operator","type":"address","internalType":"address"},{"name":"strategy","type":"address","internalType":"contract IStrategy"}],"outputs":[{"name":"shares","type":"uint256","internalType":"uint256"}],"stateMutability":"view"},{"type":"function","name":"owner","inputs":[],"outputs":[{"name":"","type":"address","internalType":"address"}],"stateMutability":"view"},{"type":"function","name":"pause","inputs":[{"name":"newPausedStatus","type":"uint256","internalType":"uint256"}],"outputs":[],"stateMutability":"nonpayable"},{"type":"function","name":"pauseAll","inputs":[],"outputs":[],"stateMutability":"nonpayable"},{"type":"function","name":"paused","inputs":[{"name":"index","type":"uint8","internalType":"uint8"}],"outputs":[{"name":"","type":"bool","internalType":"bool"}],"stateMutability":"view"},{"type":"function","name":"paused","inputs":[],"outputs":[{"name":"","type":"uint256","internalType":"uint256"}],"stateMutability":"view"},{"type":"function","name":"pauserRegistry","inputs":[],"outputs":[{"name":"","type":"address","internalType":"contract IPauserRegistry"}],"stateMutability":"view"},{"type":"function","name":"pendingWithdrawals","inputs":[{"name":"withdrawalRoot","type":"bytes32","internalType":"bytes32"}],"outputs":[{"name":"pending","type":"bool","internalType":"bool"}],"stateMutability":"view"},{"type":"function","name":"permissionController","inputs":[],"outputs":[{"name":"","type":"address","internalType":"contract IPermissionController"}],"stateMutability":"view"},{"type":"function","name":"queueWithdrawals","inputs":[{"name":"params","type":"tuple[]","internalType":"struct IDelegationManagerTypes.QueuedWithdrawalParams[]","components":[{"name":"strategies","type":"address[]","internalType":"contract IStrategy[]"},{"name":"depositShares","type":"uint256[]","internalType":"uint256[]"},{"name":"__deprecated_withdrawer","type":"address","internalType":"address"}]}],"outputs":[{"name":"","type":"bytes32[]","internalType":"bytes32[]"}],"stateMutability":"nonpayable"},{"type":"function","name":"queuedWithdrawals","inputs":[{"name":"withdrawalRoot","type":"bytes32","internalType":"bytes32"}],"outputs":[{"name":"withdrawal","type":"tuple","internalType":"struct IDelegationManagerTypes.Withdrawal","components":[{"name":"staker","type":"address","internalType":"address"},{"name":"delegatedTo","type":"address","internalType":"address"},{"name":"withdrawer","type":"address","internalType":"address"},{"name":"nonce","type":"uint256","internalType":"uint256"},{"name":"startBlock","type":"uint32","internalType":"uint32"},{"name":"strategies","type":"address[]","internalType":"contract IStrategy[]"},{"name":"scaledShares","type":"uint256[]","internalType":"uint256[]"}]}],"stateMutability":"view"},{"type":"function","name":"redelegate","inputs":[{"name":"newOperator","type":"address","internalType":"address"},{"name":"newOperatorApproverSig","type":"tuple","internalType":"struct ISignatureUtilsMixinTypes.SignatureWithExpiry","components":[{"name":"signature","type":"bytes","internalType":"bytes"},{"name":"expiry","type":"uint256","internalType":"uint256"}]},{"name":"approverSalt","type":"bytes32","internalType":"bytes32"}],"outputs":[{"name":"withdrawalRoots","type":"bytes32[]","internalType":"bytes32[]"}],"stateMutability":"nonpayable"},{"type":"function","name":"registerAsOperator","inputs":[{"name":"initDelegationApprover","type":"address","internalType":"address"},{"name":"allocationDelay","type":"uint32","internalType":"uint32"},{"name":"metadataURI","type":"string","internalType":"string"}],"outputs":[],"stateMutability":"nonpayable"},{"type":"function","name":"renounceOwnership","inputs":[],"outputs":[],"stateMutability":"nonpayable"},{"type":"function","name":"slashOperatorShares","inputs":[{"name":"operator","type":"address","internalType":"address"},{"name":"strategy","type":"address","internalType":"contract IStrategy"},{"name":"prevMaxMagnitude","type":"uint64","internalType":"uint64"},{"name":"newMaxMagnitude","type":"uint64","internalType":"uint64"}],"outputs":[],"stateMutability":"nonpayable"},{"type":"function","name":"strategyManager","inputs":[],"outputs":[{"name":"","type":"address","internalType":"contract IStrategyManager"}],"stateMutability":"view"},{"type":"function","name":"transferOwnership","inputs":[{"name":"newOwner","type":"address","internalType":"address"}],"outputs":[],"stateMutability":"nonpayable"},{"type":"function","name":"undelegate","inputs":[{"name":"staker","type":"address","internalType":"address"}],"outputs":[{"name":"withdrawalRoots","type":"bytes32[]","internalType":"bytes32[]"}],"stateMutability":"nonpayable"},{"type":"function","name":"unpause","inputs":[{"name":"newPausedStatus","type":"uint256","internalType":"uint256"}],"outputs":[],"stateMutability":"nonpayable"},{"type":"function","name":"updateOperatorMetadataURI","inputs":[{"name":"operator","type":"address","internalType":"address"},{"name":"metadataURI","type":"string","internalType":"string"}],"outputs":[],"stateMutability":"nonpayable"},{"type":"function","name":"version","inputs":[],"outputs":[{"name":"","type":"string","internalType":"string"}],"stateMutability":"view"},{"type":"event","name":"DelegationApproverUpdated","inputs":[{"name":"operator","type":"address","indexed":true,"internalType":"address"},{"name":"newDelegationApprover","type":"address","indexed":false,"internalType":"address"}],"anonymous":false},{"type":"event","name":"DepositScalingFactorUpdated","inputs":[{"name":"staker","type":"address","indexed":false,"internalType":"address"},{"name":"strategy","type":"address","indexed":false,"internalType":"contract IStrategy"},{"name":"newDepositScalingFactor","type":"uint256","indexed":false,"internalType":"uint256"}],"anonymous":false},{"type":"event","name":"Initialized","inputs":[{"name":"version","type":"uint8","indexed":false,"internalType":"uint8"}],"anonymous":false},{"type":"event","name":"OperatorMetadataURIUpdated","inputs":[{"name":"operator","type":"address","indexed":true,"internalType":"address"},{"name":"metadataURI","type":"string","indexed":false,"internalType":"string"}],"anonymous":false},{"type":"event","name":"OperatorRegistered","inputs":[{"name":"operator","type":"address","indexed":true,"internalType":"address"},{"name":"delegationApprover","type":"address","indexed":false,"internalType":"address"}],"anonymous":false},{"type":"event","name":"OperatorSharesDecreased","inputs":[{"name":"operator","type":"address","indexed":true,"internalType":"address"},{"name":"staker","type":"address","indexed":false,"internalType":"address"},{"name":"strategy","type":"address","indexed":false,"internalType":"contract IStrategy"},{"name":"shares","type":"uint256","indexed":false,"internalType":"uint256"}],"anonymous":false},{"type":"event","name":"OperatorSharesIncreased","inputs":[{"name":"operator","type":"address","indexed":true,"internalType":"address"},{"name":"staker","type":"address","indexed":false,"internalType":"address"},{"name":"strategy","type":"address","indexed":false,"internalType":"contract IStrategy"},{"name":"shares","type":"uint256","indexed":false,"internalType":"uint256"}],"anonymous":false},{"type":"event","name":"OperatorSharesSlashed","inputs":[{"name":"operator","type":"address","indexed":true,"internalType":"address"},{"name":"strategy","type":"address","indexed":false,"internalType":"contract IStrategy"},{"name":"totalSlashedShares","type":"uint256","indexed":false,"internalType":"uint256"}],"anonymous":false},{"type":"event","name":"OwnershipTransferred","inputs":[{"name":"previousOwner","type":"address","indexed":true,"internalType":"address"},{"name":"newOwner","type":"address","indexed":true,"internalType":"address"}],"anonymous":false},{"type":"event","name":"Paused","inputs":[{"name":"account","type":"address","indexed":true,"internalType":"address"},{"name":"newPausedStatus","type":"uint256","indexed":false,"internalType":"uint256"}],"anonymous":false},{"type":"event","name":"SlashingWithdrawalCompleted","inputs":[{"name":"withdrawalRoot","type":"bytes32","indexed":false,"internalType":"bytes32"}],"anonymous":false},{"type":"event","name":"SlashingWithdrawalQueued","inputs":[{"name":"withdrawalRoot","type":"bytes32","indexed":false,"internalType":"bytes32"},{"name":"withdrawal","type":"tuple","indexed":false,"internalType":"struct IDelegationManagerTypes.Withdrawal","components":[{"name":"staker","type":"address","internalType":"address"},{"name":"delegatedTo","type":"address","internalType":"address"},{"name":"withdrawer","type":"address","internalType":"address"},{"name":"nonce","type":"uint256","internalType":"uint256"},{"name":"startBlock","type":"uint32","internalType":"uint32"},{"name":"strategies","type":"address[]","internalType":"contract IStrategy[]"},{"name":"scaledShares","type":"uint256[]","internalType":"uint256[]"}]},{"name":"sharesToWithdraw","type":"uint256[]","indexed":false,"internalType":"uint256[]"}],"anonymous":false},{"type":"event","name":"StakerDelegated","inputs":[{"name":"staker","type":"address","indexed":true,"internalType":"address"},{"name":"operator","type":"address","indexed":true,"internalType":"address"}],"anonymous":false},{"type":"event","name":"StakerForceUndelegated","inputs":[{"name":"staker","type":"address","indexed":true,"internalType":"address"},{"name":"operator","type":"address","indexed":true,"internalType":"address"}],"anonymous":false},{"type":"event","name":"StakerUndelegated","inputs":[{"name":"staker","type":"address","indexed":true,"internalType":"address"},{"name":"operator","type":"address","indexed":true,"internalType":"address"}],"anonymous":false},{"type":"event","name":"Unpaused","inputs":[{"name":"account","type":"address","indexed":true,"internalType":"address"},{"name":"newPausedStatus","type":"uint256","indexed":false,"internalType":"uint256"}],"anonymous":false},{"type":"error","name":"ActivelyDelegated","inputs":[]},{"type":"error","name":"CallerCannotUndelegate","inputs":[]},{"type":"error","name":"CurrentlyPaused","inputs":[]},{"type":"error","name":"FullySlashed","inputs":[]},{"type":"error","name":"InputAddressZero","inputs":[]},{"type":"error","name":"InputArrayLengthMismatch","inputs":[]},{"type":"error","name":"InputArrayLengthZero","inputs":[]},{"type":"error","name":"InvalidNewPausedStatus","inputs":[]},{"type":"error","name":"InvalidPermissions","inputs":[]},{"type":"error","name":"InvalidShortString","inputs":[]},{"type":"error","name":"InvalidSignature","inputs":[]},{"type":"error","name":"InvalidSnapshotOrdering","inputs":[]},{"type":"error","name":"NotActivelyDelegated","inputs":[]},{"type":"error","name":"OnlyAllocationManager","inputs":[]},{"type":"error","name":"OnlyEigenPodManager","inputs":[]},{"type":"error","name":"OnlyPauser","inputs":[]},{"type":"error","name":"OnlyStrategyManagerOrEigenPodManager","inputs":[]},{"type":"error","name":"OnlyUnpauser","inputs":[]},{"type":"error","name":"OperatorNotRegistered","inputs":[]},{"type":"error","name":"OperatorsCannotUndelegate","inputs":[]},{"type":"error","name":"SaltSpent","inputs":[]},{"type":"error","name":"SignatureExpired","inputs":[]},{"type":"error","name":"StringTooLong","inputs":[{"name":"str","type":"string","internalType":"string"}]},{"type":"error","name":"WithdrawalDelayNotElapsed","inputs":[]},{"type":"error","name":"WithdrawalNotQueued","inputs":[]},{"type":"error","name":"WithdrawerNotCaller","inputs":[]}],"bytecode":{"object":"0x610160604052348015610010575f5ffd5b5060405161628138038061628183398101604081905261002f916101d9565b808084898989878a6001600160a01b03811661005e576040516339b190bb60e11b815260040160405180910390fd5b6001600160a01b0390811660805293841660a05291831660c052821660e05263ffffffff16610100521661012052610095816100b0565b61014052506100a490506100f6565b50505050505050610364565b5f5f829050601f815111156100e3578260405163305a27a960e01b81526004016100da9190610309565b60405180910390fd5b80516100ee8261033e565b179392505050565b5f54610100900460ff161561015d5760405162461bcd60e51b815260206004820152602760248201527f496e697469616c697a61626c653a20636f6e747261637420697320696e697469604482015266616c697a696e6760c81b60648201526084016100da565b5f5460ff908116146101ac575f805460ff191660ff9081179091556040519081527f7f26b83ff96e1f2b6a682f133852f6798a09c465da95921460cefb38474024989060200160405180910390a15b565b6001600160a01b03811681146101c2575f5ffd5b50565b634e487b7160e01b5f52604160045260245ffd5b5f5f5f5f5f5f5f60e0888a0312156101ef575f5ffd5b87516101fa816101ae565b602089015190975061020b816101ae565b604089015190965061021c816101ae565b606089015190955061022d816101ae565b608089015190945061023e816101ae565b60a089015190935063ffffffff81168114610257575f5ffd5b60c08901519092506001600160401b03811115610272575f5ffd5b88015f601f82018b13610283575f5ffd5b81516001600160401b0381111561029c5761029c6101c5565b604051601f8201601f19908116603f011681016001600160401b03811182821017156102ca576102ca6101c5565b6040528181528382016020018d10156102e1575f5ffd5b8160208501602083015e5f602083830101528092508094505050505092959891949750929550565b602081525f82518060208401528060208501604085015e5f604082850101526040601f19601f83011684010191505092915050565b8051602080830151919081101561035e575f198160200360031b1b821691505b50919050565b60805160a05160c05160e051610100516101205161014051615e2461045d5f395f8181611112015261410001525f818161046001526133df01525f818161076a015281816135ef015281816137310152613a1401525f81816107ba01528181610e2701528181610fea0152818161136b01528181611584015281816119e6015281816127a0015261432a01525f818161048701528181610f68015281816114e30152818161175701528181612fe0015281816131c1015261387701525f81816103bd01528181610f36015281816116ab015261385101525f818161063801528181610bb70152818161115001526125960152615e245ff3fe608060405234801561000f575f5ffd5b50600436106102ff575f3560e01c8063715018a611610195578063bfae3fd2116100e4578063e4cc3f901161009e578063f2fde38b11610079578063f2fde38b14610848578063f698da251461085b578063fabc1cbc14610863578063fd8aa88d14610876575f5ffd5b8063e4cc3f9014610802578063eea9064b14610815578063f0e0e67614610828575f5ffd5b8063bfae3fd21461074d578063c448feb814610760578063c978f7ac14610794578063ca8aa7c7146107b5578063cd6dc687146107dc578063da8be864146107ef575f5ffd5b80639104c3191161014f578063a17884841161012a578063a1788484146106cc578063a33a3433146106eb578063b7f06ebe146106fe578063bb45fef214610720575f5ffd5b80639104c3191461067e5780639435bb431461069957806399f5371b146106ac575f5ffd5b8063715018a6146105ee578063778e55f3146105f657806378296ec514610620578063886f1195146106335780638da5cb5b1461065a578063900413471461066b575f5ffd5b806354fd4d50116102515780635dd685791161020b57806365da1264116101e657806365da12641461057f57806366d5ba93146105a75780636d70f7ae146105c85780636e174448146105db575f5ffd5b80635dd6857914610538578063601bb36f1461055957806360a0d1ce1461056c575f5ffd5b806354fd4d50146104bc578063595c6a67146104d1578063597b36da146104d95780635ac86ab7146104ec5780635c975abb1461050f5780635d975e8814610517575f5ffd5b806339b70e38116102bc5780633e28391d116102975780633e28391d146104385780634657e26a1461045b5780634665bcda1461048257806354b7c96c146104a9575f5ffd5b806339b70e38146103b85780633c651cf2146103f75780633cdeb5e01461040a575f5ffd5b806304a4f979146103035780630b9f487a1461033d5780630dd8dd0214610350578063136439dd1461037057806325df922e146103855780632aa6d888146103a5575b5f5ffd5b61032a7f14bde674c9f64b2ad00eaaee4a8bed1fabef35c7507e3c5b9cfc9436909a2dad81565b6040519081526020015b60405180910390f35b61032a61034b366004614d13565b610889565b61036361035e366004614daa565b610911565b6040516103349190614de8565b61038361037e366004614e1f565b610ba2565b005b610398610393366004614fb4565b610c77565b6040516103349190615062565b6103836103b33660046150c4565b610dd7565b6103df7f000000000000000000000000000000000000000000000000000000000000000081565b6040516001600160a01b039091168152602001610334565b610383610405366004615122565b610f2b565b6103df610418366004615165565b6001600160a01b039081165f908152609960205260409020600101541690565b61044b610446366004615165565b61107e565b6040519015158152602001610334565b6103df7f000000000000000000000000000000000000000000000000000000000000000081565b6103df7f000000000000000000000000000000000000000000000000000000000000000081565b6103836104b7366004615180565b61109d565b6104c461110b565b60405161033491906151e5565b61038361113b565b61032a6104e73660046152b3565b6111ea565b61044b6104fa3660046152e4565b606654600160ff9092169190911b9081161490565b60665461032a565b61052a610525366004614e1f565b611219565b6040516103349291906153bb565b61054b610546366004615165565b611236565b60405161033492919061542d565b6103836105673660046154ae565b611360565b61038361057a366004615507565b6114d8565b6103df61058d366004615165565b609a6020525f90815260409020546001600160a01b031681565b6105ba6105b5366004615165565b611683565b604051610334929190615546565b61044b6105d6366004615165565b611983565b61032a6105e9366004615180565b6119bb565b610383611a65565b61032a610604366004615180565b609860209081525f928352604080842090915290825290205481565b61038361062e366004615558565b611a76565b6103df7f000000000000000000000000000000000000000000000000000000000000000081565b6033546001600160a01b03166103df565b6103986106793660046155a8565b611b0c565b6103df73beac0eeeeeeeeeeeeeeeeeeeeeeeeeeeeeebeac081565b6103836106a73660046155f4565b611be2565b6106bf6106ba366004614e1f565b611cbb565b6040516103349190615690565b61032a6106da366004615165565b609f6020525f908152604090205481565b6103636106f93660046156a2565b611dd7565b61044b61070c366004614e1f565b609e6020525f908152604090205460ff1681565b61044b61072e366004615789565b609c60209081525f928352604080842090915290825290205460ff1681565b61032a61075b366004615180565b611def565b60405163ffffffff7f0000000000000000000000000000000000000000000000000000000000000000168152602001610334565b6107a76107a23660046155a8565b611e2b565b6040516103349291906157b3565b6103df7f000000000000000000000000000000000000000000000000000000000000000081565b6103836107ea366004615789565b6120b8565b6103636107fd366004615165565b6121d3565b6103836108103660046157d2565b6122fc565b6103836108233660046156a2565b612352565b61083b610836366004615845565b6123bd565b60405161033491906158f2565b610383610856366004615165565b612462565b61032a6124db565b610383610871366004614e1f565b612594565b610363610884366004615165565b6126ab565b604080517f14bde674c9f64b2ad00eaaee4a8bed1fabef35c7507e3c5b9cfc9436909a2dad60208201526001600160a01b03808616928201929092528187166060820152908516608082015260a0810183905260c081018290525f906109079060e001604051602081830303815290604052805190602001206126ce565b9695505050505050565b60665460609060019060029081160361093d5760405163840a48d560e01b815260040160405180910390fd5b6109456126fc565b5f836001600160401b0381111561095e5761095e614e36565b604051908082528060200260200182016040528015610987578160200160208202803683370190505b50335f908152609a60205260408120549192506001600160a01b03909116905b85811015610b93578686828181106109c1576109c1615904565b90506020028101906109d39190615918565b6109e1906020810190615936565b90508787838181106109f5576109f5615904565b9050602002810190610a079190615918565b610a119080615936565b905014610a31576040516343714afd60e01b815260040160405180910390fd5b5f610a9b33848a8a86818110610a4957610a49615904565b9050602002810190610a5b9190615918565b610a659080615936565b808060200260200160405190810160405280939291908181526020018383602002808284375f9201919091525061275592505050565b9050610b6d33848a8a86818110610ab457610ab4615904565b9050602002810190610ac69190615918565b610ad09080615936565b808060200260200160405190810160405280939291908181526020018383602002808284375f920191909152508e92508d9150889050818110610b1557610b15615904565b9050602002810190610b279190615918565b610b35906020810190615936565b808060200260200160405190810160405280939291908181526020018383602002808284375f920191909152508892506128a7915050565b848381518110610b7f57610b7f615904565b6020908102919091010152506001016109a7565b5050600160c955949350505050565b60405163237dfb4760e11b81523360048201527f00000000000000000000000000000000000000000000000000000000000000006001600160a01b0316906346fbf68e90602401602060405180830381865afa158015610c04573d5f5f3e3d5ffd5b505050506040513d601f19601f82011682018060405250810190610c28919061597b565b610c4557604051631d77d47760e21b815260040160405180910390fd5b6066548181168114610c6a5760405163c61dca5d60e01b815260040160405180910390fd5b610c7382612e16565b5050565b6001600160a01b038084165f908152609a60205260408120546060921690610ca0868387612755565b90505f85516001600160401b03811115610cbc57610cbc614e36565b604051908082528060200260200182016040528015610ce5578160200160208202803683370190505b5090505f5b8651811015610dca576001600160a01b0388165f90815260a260205260408120885182908a9085908110610d2057610d20615904565b60200260200101516001600160a01b03166001600160a01b031681526020019081526020015f206040518060200160405290815f820154815250509050610da4878381518110610d7257610d72615904565b6020026020010151858481518110610d8c57610d8c615904565b602002602001015183612e539092919063ffffffff16565b838381518110610db657610db6615904565b602090810291909101015250600101610cea565b50925050505b9392505050565b610ddf6126fc565b610de83361107e565b15610e0657604051633bf2b50360e11b815260040160405180910390fd5b604051632b6241f360e11b815233600482015263ffffffff841660248201527f00000000000000000000000000000000000000000000000000000000000000006001600160a01b0316906356c483e6906044015f604051808303815f87803b158015610e70575f5ffd5b505af1158015610e82573d5f5f3e3d5ffd5b50505050610e903385612e71565b610e9a3333612ed3565b6040516001600160a01b038516815233907fa453db612af59e5521d6ab9284dc3e2d06af286eb1b1b7b771fce4716c19f2c19060200160405180910390a2336001600160a01b03167f02a919ed0e2acad1dd90f17ef2fa4ae5462ee1339170034a8531cca4b67080908383604051610f13929190615996565b60405180910390a2610f25600160c955565b50505050565b336001600160a01b037f0000000000000000000000000000000000000000000000000000000000000000161480610f8a5750336001600160a01b037f000000000000000000000000000000000000000000000000000000000000000016145b610fa75760405163045206a560e21b815260040160405180910390fd5b610faf6126fc565b6001600160a01b038481165f908152609a602052604080822054905163152667d960e31b8152908316600482018190528684166024830152927f0000000000000000000000000000000000000000000000000000000000000000169063a9333ec890604401602060405180830381865afa15801561102f573d5f5f3e3d5ffd5b505050506040513d601f19601f8201168201806040525081019061105391906159c4565b90505f61106187878461317a565b905061107183888888888661325c565b505050610f25600160c955565b6001600160a01b039081165f908152609a602052604090205416151590565b816110a7816133a1565b6110c45760405163932d94f760e01b815260040160405180910390fd5b6110cc6126fc565b6110d583611983565b6110f2576040516325ec6c1f60e01b815260040160405180910390fd5b6110fc8383612e71565b611106600160c955565b505050565b60606111367f000000000000000000000000000000000000000000000000000000000000000061344b565b905090565b60405163237dfb4760e11b81523360048201527f00000000000000000000000000000000000000000000000000000000000000006001600160a01b0316906346fbf68e90602401602060405180830381865afa15801561119d573d5f5f3e3d5ffd5b505050506040513d601f19601f820116820180604052508101906111c1919061597b565b6111de57604051631d77d47760e21b815260040160405180910390fd5b6111e85f19612e16565b565b5f816040516020016111fc9190615690565b604051602081830303815290604052805190602001209050919050565b611221614bd4565b606061122c83613488565b9094909350915050565b6060805f611243846126ab565b8051909150806001600160401b0381111561126057611260614e36565b60405190808252806020026020018201604052801561129957816020015b611286614bd4565b81526020019060019003908161127e5790505b509350806001600160401b038111156112b4576112b4614e36565b6040519080825280602002602001820160405280156112e757816020015b60608152602001906001900390816112d25790505b5092505f5b818110156113585761131683828151811061130957611309615904565b6020026020010151613488565b86838151811061132857611328615904565b6020026020010186848151811061134157611341615904565b6020908102919091010191909152526001016112ec565b505050915091565b336001600160a01b037f000000000000000000000000000000000000000000000000000000000000000016146113a9576040516323d871a560e01b815260040160405180910390fd5b6113b16126fc565b6001600160a01b038085165f9081526098602090815260408083209387168352929052908120546113ef906001600160401b038086169085166136db565b90505f6113fe868686866136f3565b90505f61140b82846159f3565b9050611419875f88866137b0565b604080516001600160a01b038881168252602082018490528916917fdd611f4ef63f4385f1756c86ce1f1f389a9013ba6fa07daba8528291bc2d3c30910160405180910390a25f6114698761382a565b60405163debe1eab60e01b81526001600160a01b038981166004830152602482018590529192509082169063debe1eab906044015f604051808303815f87803b1580156114b4575f5ffd5b505af11580156114c6573d5f5f3e3d5ffd5b5050505050505050610f25600160c955565b336001600160a01b037f0000000000000000000000000000000000000000000000000000000000000000161461152157604051633213a66160e21b815260040160405180910390fd5b6115296126fc565b6115328361107e565b156110fc576001600160a01b038381165f908152609a602052604080822054905163152667d960e31b81529083166004820181905273beac0eeeeeeeeeeeeeeeeeeeeeeeeeeeeeebeac06024830152927f0000000000000000000000000000000000000000000000000000000000000000169063a9333ec890604401602060405180830381865afa1580156115c9573d5f5f3e3d5ffd5b505050506040513d601f19601f820116820180604052508101906115ed91906159c4565b6001600160a01b0386165f90815260a26020908152604080832073beac0eeeeeeeeeeeeeeeeeeeeeeeeeeeeeebeac08452825280832081519283019091525481529192506116538661164b6001600160401b0380871690891661389c565b8491906138b0565b9050611675848873beac0eeeeeeeeeeeeeeeeeeeeeeeeeeeeeebeac0846137b0565b50505050611106600160c955565b6040516394f649dd60e01b81526001600160a01b03828116600483015260609182915f9182917f000000000000000000000000000000000000000000000000000000000000000016906394f649dd906024015f60405180830381865afa1580156116ef573d5f5f3e3d5ffd5b505050506040513d5f823e601f3d908101601f191682016040526117169190810190615a61565b60405163fe243a1760e01b81526001600160a01b03888116600483015273beac0eeeeeeeeeeeeeeeeeeeeeeeeeeeeeebeac060248301529294509092505f917f0000000000000000000000000000000000000000000000000000000000000000169063fe243a1790604401602060405180830381865afa15801561179c573d5f5f3e3d5ffd5b505050506040513d601f19601f820116820180604052508101906117c09190615b1c565b9050805f036117d457509094909350915050565b5f835160016117e391906159f3565b6001600160401b038111156117fa576117fa614e36565b604051908082528060200260200182016040528015611823578160200160208202803683370190505b5090505f8451600161183591906159f3565b6001600160401b0381111561184c5761184c614e36565b604051908082528060200260200182016040528015611875578160200160208202803683370190505b50905073beac0eeeeeeeeeeeeeeeeeeeeeeeeeeeeeebeac0828651815181106118a0576118a0615904565b60200260200101906001600160a01b031690816001600160a01b03168152505082818651815181106118d4576118d4615904565b60209081029190910101525f5b8551811015611975578581815181106118fc576118fc615904565b602002602001015183828151811061191657611916615904565b60200260200101906001600160a01b031690816001600160a01b03168152505084818151811061194857611948615904565b602002602001015182828151811061196257611962615904565b60209081029190910101526001016118e1565b509097909650945050505050565b5f6001600160a01b038216158015906119b557506001600160a01b038083165f818152609a6020526040902054909116145b92915050565b60405163152667d960e31b81526001600160a01b03838116600483015282811660248301525f9182917f0000000000000000000000000000000000000000000000000000000000000000169063a9333ec890604401602060405180830381865afa158015611a2b573d5f5f3e3d5ffd5b505050506040513d601f19601f82011682018060405250810190611a4f91906159c4565b9050611a5d8484835f6136f3565b949350505050565b611a6d6138ce565b6111e85f613928565b82611a80816133a1565b611a9d5760405163932d94f760e01b815260040160405180910390fd5b611aa684611983565b611ac3576040516325ec6c1f60e01b815260040160405180910390fd5b836001600160a01b03167f02a919ed0e2acad1dd90f17ef2fa4ae5462ee1339170034a8531cca4b67080908484604051611afe929190615996565b60405180910390a250505050565b60605f82516001600160401b03811115611b2857611b28614e36565b604051908082528060200260200182016040528015611b51578160200160208202803683370190505b5090505f5b8351811015611bda576001600160a01b0385165f9081526098602052604081208551909190869084908110611b8d57611b8d615904565b60200260200101516001600160a01b03166001600160a01b031681526020019081526020015f2054828281518110611bc757611bc7615904565b6020908102919091010152600101611b56565b509392505050565b606654600290600490811603611c0b5760405163840a48d560e01b815260040160405180910390fd5b611c136126fc565b855f5b81811015611ca657611c9e898983818110611c3357611c33615904565b9050602002810190611c459190615b33565b611c4e90615b47565b888884818110611c6057611c60615904565b9050602002810190611c729190615936565b888886818110611c8457611c84615904565b9050602002016020810190611c999190615b52565b613979565b600101611c16565b5050611cb2600160c955565b50505050505050565b611cc3614bd4565b5f82815260a46020908152604091829020825160e08101845281546001600160a01b03908116825260018301548116828501526002830154168185015260038201546060820152600482015463ffffffff1660808201526005820180548551818602810186019096528086529194929360a08601939290830182828015611d7157602002820191905f5260205f20905b81546001600160a01b03168152600190910190602001808311611d53575b5050505050815260200160068201805480602002602001604051908101604052809291908181526020018280548015611dc757602002820191905f5260205f20905b815481526020019060010190808311611db3575b5050505050815250509050919050565b6060611de2336121d3565b9050610dd0848484612352565b6001600160a01b038083165f90815260a260209081526040808320938516835292815282822083519182019093529154825290610dd090613dbb565b60608082516001600160401b03811115611e4757611e47614e36565b604051908082528060200260200182016040528015611e70578160200160208202803683370190505b50915082516001600160401b03811115611e8c57611e8c614e36565b604051908082528060200260200182016040528015611eb5578160200160208202803683370190505b506001600160a01b038086165f908152609a6020526040812054929350911690611ee0868387612755565b90505f5b85518110156120ad575f611f10878381518110611f0357611f03615904565b602002602001015161382a565b9050806001600160a01b031663fe243a1789898581518110611f3457611f34615904565b60200260200101516040518363ffffffff1660e01b8152600401611f6e9291906001600160a01b0392831681529116602082015260400190565b602060405180830381865afa158015611f89573d5f5f3e3d5ffd5b505050506040513d601f19601f82011682018060405250810190611fad9190615b1c565b858381518110611fbf57611fbf615904565b6020026020010181815250505f60a25f8a6001600160a01b03166001600160a01b031681526020019081526020015f205f89858151811061200257612002615904565b60200260200101516001600160a01b03166001600160a01b031681526020019081526020015f206040518060200160405290815f82015481525050905061208686848151811061205457612054615904565b602002602001015185858151811061206e5761206e615904565b6020026020010151836138b09092919063ffffffff16565b87848151811061209857612098615904565b60209081029190910101525050600101611ee4565b5050505b9250929050565b5f54610100900460ff16158080156120d657505f54600160ff909116105b806120ef5750303b1580156120ef57505f5460ff166001145b6121575760405162461bcd60e51b815260206004820152602e60248201527f496e697469616c697a61626c653a20636f6e747261637420697320616c72656160448201526d191e481a5b9a5d1a585b1a5e995960921b60648201526084015b60405180910390fd5b5f805460ff191660011790558015612178575f805461ff0019166101001790555b61218182612e16565b61218a83613928565b8015611106575f805461ff0019169055604051600181527f7f26b83ff96e1f2b6a682f133852f6798a09c465da95921460cefb38474024989060200160405180910390a1505050565b60606121dd6126fc565b6121e68261107e565b6122035760405163a5c7c44560e01b815260040160405180910390fd5b61220c82611983565b1561222a576040516311ca333560e31b815260040160405180910390fd5b336001600160a01b038316146122e2576001600160a01b038083165f908152609a60205260409020541661225d816133a1565b8061228357506001600160a01b038181165f908152609960205260409020600101541633145b6122a057604051631e499a2360e11b815260040160405180910390fd5b806001600160a01b0316836001600160a01b03167ff0eddf07e6ea14f388b47e1e94a0f464ecbd9eed4171130e0fc0e99fb4030a8a60405160405180910390a3505b6122eb82613dda565b90506122f7600160c955565b919050565b6066546002906004908116036123255760405163840a48d560e01b815260040160405180910390fd5b61232d6126fc565b61234161233986615b47565b858585613979565b61234b600160c955565b5050505050565b61235a6126fc565b6123633361107e565b1561238157604051633bf2b50360e11b815260040160405180910390fd5b61238a83611983565b6123a7576040516325ec6c1f60e01b815260040160405180910390fd5b6123b333848484614039565b6110fc3384612ed3565b60605f83516001600160401b038111156123d9576123d9614e36565b60405190808252806020026020018201604052801561240c57816020015b60608152602001906001900390816123f75790505b5090505f5b8451811015611bda5761243d85828151811061242f5761242f615904565b602002602001015185611b0c565b82828151811061244f5761244f615904565b6020908102919091010152600101612411565b61246a6138ce565b6001600160a01b0381166124cf5760405162461bcd60e51b815260206004820152602660248201527f4f776e61626c653a206e6577206f776e657220697320746865207a65726f206160448201526564647265737360d01b606482015260840161214e565b6124d881613928565b50565b60408051808201909152600a81526922b4b3b2b72630bcb2b960b11b6020909101525f7f8b73c3c69bb8fe3d512ecc4cf759cc79239f7b179b0ffacaa9a75d522b39400f7f71b625cfad44bac63b13dba07f2e1d6084ee04b6f8752101ece6126d584ee6ea6125486140f8565b805160209182012060408051928301949094529281019190915260608101919091524660808201523060a082015260c00160405160208183030381529060405280519060200120905090565b7f00000000000000000000000000000000000000000000000000000000000000006001600160a01b031663eab66d7a6040518163ffffffff1660e01b8152600401602060405180830381865afa1580156125f0573d5f5f3e3d5ffd5b505050506040513d601f19601f820116820180604052508101906126149190615b6d565b6001600160a01b0316336001600160a01b0316146126455760405163794821ff60e01b815260040160405180910390fd5b6066548019821981161461266c5760405163c61dca5d60e01b815260040160405180910390fd5b606682905560405182815233907f3582d1828e26bf56bd801502bc021ac0bc8afb57c826e4986b45593c8fad389c906020015b60405180910390a25050565b6001600160a01b0381165f90815260a3602052604090206060906119b590614194565b5f6126d76124db565b60405161190160f01b60208201526022810191909152604281018390526062016111fc565b600260c9540361274e5760405162461bcd60e51b815260206004820152601f60248201527f5265656e7472616e637947756172643a207265656e7472616e742063616c6c00604482015260640161214e565b600260c955565b60605f82516001600160401b0381111561277157612771614e36565b60405190808252806020026020018201604052801561279a578160200160208202803683370190505b5090505f7f00000000000000000000000000000000000000000000000000000000000000006001600160a01b031663547afb8786866040518363ffffffff1660e01b81526004016127ec929190615b88565b5f60405180830381865afa158015612806573d5f5f3e3d5ffd5b505050506040513d5f823e601f3d908101601f1916820160405261282d9190810190615bab565b90505f5b845181101561289c576128778786838151811061285057612850615904565b602002602001015184848151811061286a5761286a615904565b602002602001015161317a565b83828151811061288957612889615904565b6020908102919091010152600101612831565b509095945050505050565b5f6001600160a01b0386166128cf576040516339b190bb60e11b815260040160405180910390fd5b83515f036128f05760405163796cc52560e01b815260040160405180910390fd5b5f84516001600160401b0381111561290a5761290a614e36565b604051908082528060200260200182016040528015612933578160200160208202803683370190505b5090505f85516001600160401b0381111561295057612950614e36565b604051908082528060200260200182016040528015612979578160200160208202803683370190505b5090505f5b8651811015612c49575f61299d888381518110611f0357611f03615904565b90505f60a25f8c6001600160a01b03166001600160a01b031681526020019081526020015f205f8a85815181106129d6576129d6615904565b60200260200101516001600160a01b03166001600160a01b031681526020019081526020015f206040518060200160405290815f820154815250509050612a42888481518110612a2857612a28615904565b602002602001015188858151811061206e5761206e615904565b848481518110612a5457612a54615904565b602002602001018181525050612a8c888481518110612a7557612a75615904565b6020026020010151826141a090919063ffffffff16565b858481518110612a9e57612a9e615904565b60209081029190910101526001600160a01b038a1615612b3357612af58a8a8581518110612ace57612ace615904565b6020026020010151878681518110612ae857612ae8615904565b60200260200101516141b4565b612b338a8c8b8681518110612b0c57612b0c615904565b6020026020010151878781518110612b2657612b26615904565b60200260200101516137b0565b5f826001600160a01b031663724af4238d8c8781518110612b5657612b56615904565b60200260200101518c8881518110612b7057612b70615904565b60200260200101516040518463ffffffff1660e01b8152600401612b9693929190615c3a565b6020604051808303815f875af1158015612bb2573d5f5f3e3d5ffd5b505050506040513d601f19601f82011682018060405250810190612bd69190615b1c565b9050805f03612c3b576001600160a01b038c165f90815260a2602052604081208b51612c3b92908d9088908110612c0f57612c0f615904565b60200260200101516001600160a01b03166001600160a01b031681526020019081526020015f205f9055565b50505080600101905061297e565b506001600160a01b0388165f908152609f60205260408120805491829190612c7083615c5e565b91905055505f6040518060e001604052808b6001600160a01b031681526020018a6001600160a01b031681526020018b6001600160a01b031681526020018381526020014363ffffffff1681526020018981526020018581525090505f612cd6826111ea565b5f818152609e602090815260408083208054600160ff19909116811790915560a4835292819020865181546001600160a01b03199081166001600160a01b039283161783558885015195830180548216968316969096179095559187015160028201805490951692169190911790925560608501516003830155608085015160048301805463ffffffff191663ffffffff90921691909117905560a085015180519394508593612d8c9260058501920190614c2d565b5060c08201518051612da8916006840191602090910190614c90565b5050506001600160a01b038b165f90815260a360205260409020612dcc908261421e565b507f26b2aae26516e8719ef50ea2f6831a2efbd4e37dccdf0f6936b27bc08e793e30818386604051612e0093929190615c76565b60405180910390a19a9950505050505050505050565b606681905560405181815233907fab40a374bc51de372200a8bc981af8c9ecdc08dfdaef0bb6e09f88f3c616ef3d9060200160405180910390a250565b5f611a5d82612e6b612e6487613dbb565b8690614229565b90614229565b6001600160a01b038281165f8181526099602090815260409182902060010180546001600160a01b0319169486169485179055905192835290917f773b54c04d756fcc5e678111f7d730de3be98192000799eee3d63716055a87c6910161269f565b6066545f90600190811603612efb5760405163840a48d560e01b815260040160405180910390fd5b5f5f612f0685611683565b915091505f612f165f8685612755565b6001600160a01b038781165f818152609a602052604080822080546001600160a01b031916948b16948517905551939450919290917fc3ee9f2e5fda98e8066a1f745b2df9285f416fe98cf2559cd21484b3d874330491a35f5b8351811015611cb25773beac0eeeeeeeeeeeeeeeeeeeeeeeeeeeeeebeac06001600160a01b0316848281518110612fa957612fa9615904565b60200260200101516001600160a01b0316036131195760405163a3d75e0960e01b81526001600160a01b0388811660048301525f917f00000000000000000000000000000000000000000000000000000000000000009091169063a3d75e0990602401602060405180830381865afa158015613027573d5f5f3e3d5ffd5b505050506040513d601f19601f8201168201806040525081019061304b91906159c4565b90505f60a25f8a6001600160a01b03166001600160a01b031681526020019081526020015f205f87858151811061308457613084615904565b60200260200101516001600160a01b03166001600160a01b031681526020019081526020015f206040518060200160405290815f8201548152505090506130f88584815181106130d6576130d6615904565b6020026020010151836001600160401b0316836138b09092919063ffffffff16565b85848151811061310a5761310a615904565b60200260200101818152505050505b613172868886848151811061313057613130615904565b60200260200101515f87868151811061314b5761314b615904565b602002602001015187878151811061316557613165615904565b602002602001015161325c565b600101612f70565b5f73beac0eeeeeeeeeeeeeeeeeeeeeeeeeeeeeebeabf196001600160a01b0384160161324c5760405163a3d75e0960e01b81526001600160a01b0385811660048301525f917f00000000000000000000000000000000000000000000000000000000000000009091169063a3d75e0990602401602060405180830381865afa158015613208573d5f5f3e3d5ffd5b505050506040513d601f19601f8201168201806040525081019061322c91906159c4565b90506132446001600160401b0384811690831661389c565b915050610dd0565b506001600160401b031692915050565b805f0361327c57604051630a33bc6960e21b815260040160405180910390fd5b8115613399576001600160a01b038086165f90815260a2602090815260408083209388168352929052206132b28185858561423d565b6040805160208101909152815481527f8be932bac54561f27260f95463d9b8ab37e06b2842e5ee2404157cc13df6eb8f90879087906132f090613dbb565b6040516132ff93929190615c3a565b60405180910390a16133108661107e565b15611cb2576001600160a01b038088165f9081526098602090815260408083209389168352929052908120805485929061334b9084906159f3565b92505081905550866001600160a01b03167f1ec042c965e2edd7107b51188ee0f383e22e76179041ab3a9d18ff151405166c87878660405161338f93929190615c3a565b60405180910390a2505b505050505050565b604051631beb2b9760e31b81526001600160a01b0382811660048301523360248301523060448301525f80356001600160e01b0319166064840152917f00000000000000000000000000000000000000000000000000000000000000009091169063df595cb8906084016020604051808303815f875af1158015613427573d5f5f3e3d5ffd5b505050506040513d601f19601f820116820180604052508101906119b5919061597b565b60605f613457836142b8565b6040805160208082528183019092529192505f91906020820181803683375050509182525060208101929092525090565b613490614bd4565b5f82815260a46020908152604091829020825160e08101845281546001600160a01b0390811682526001830154811682850152600283015416818501526003820154606082810191909152600483015463ffffffff1660808301526005830180548651818702810187019097528087529195929460a0860193929083018282801561354257602002820191905f5260205f20905b81546001600160a01b03168152600190910190602001808311613524575b505050505081526020016006820180548060200260200160405190810160405280929190818152602001828054801561359857602002820191905f5260205f20905b815481526020019060010190808311613584575b50505050508152505091508160a00151516001600160401b038111156135c0576135c0614e36565b6040519080825280602002602001820160405280156135e9578160200160208202803683370190505b5090505f7f0000000000000000000000000000000000000000000000000000000000000000836080015161361d9190615ca0565b90505f4363ffffffff168263ffffffff161061364e57613649845f015185602001518660a00151612755565b613665565b613665845f015185602001518660a00151856142df565b90505f5b8460a0015151811015611358576136b68560c00151828151811061368f5761368f615904565b60200260200101518383815181106136a9576136a9615904565b602002602001015161440d565b8482815181106136c8576136c8615904565b6020908102919091010152600101613669565b5f6136e98483856001614418565b611a5d9085615cbc565b6001600160a01b038085165f90815260a5602090815260408083209387168352929052908120819061372490614473565b90505f61378a60016137567f000000000000000000000000000000000000000000000000000000000000000043615ccf565b6137609190615ccf565b6001600160a01b03808a165f90815260a560209081526040808320938c168352929052209061448d565b90505f6137978284615cbc565b90506137a48187876144a9565b98975050505050505050565b6001600160a01b038085165f908152609860209081526040808320938616835292905290812080548392906137e6908490615cbc565b92505081905550836001600160a01b03167f6909600037b75d7b4733aedd815442b5ec018a827751c832aaff64eba5d6d2dd848484604051611afe93929190615c3a565b5f6001600160a01b03821673beac0eeeeeeeeeeeeeeeeeeeeeeeeeeeeeebeac014613875577f00000000000000000000000000000000000000000000000000000000000000006119b5565b7f000000000000000000000000000000000000000000000000000000000000000092915050565b5f610dd08383670de0b6b3a76400006144c7565b5f611a5d826138c86138c187613dbb565b869061389c565b9061389c565b6033546001600160a01b031633146111e85760405162461bcd60e51b815260206004820181905260248201527f4f776e61626c653a2063616c6c6572206973206e6f7420746865206f776e6572604482015260640161214e565b603380546001600160a01b038381166001600160a01b0319831681179093556040519116919082907f8be0079c531659141344cd1fd0a4f28419497f9722a3daafe3b4186f6b6457e0905f90a35050565b60a084015151821461399e576040516343714afd60e01b815260040160405180910390fd5b83604001516001600160a01b0316336001600160a01b0316146139d4576040516316110d3560e21b815260040160405180910390fd5b5f6139de856111ea565b5f818152609e602052604090205490915060ff16613a0f576040516387c9d21960e01b815260040160405180910390fd5b60605f7f00000000000000000000000000000000000000000000000000000000000000008760800151613a429190615ca0565b90508063ffffffff164363ffffffff1611613a70576040516378f67ae160e11b815260040160405180910390fd5b613a87875f015188602001518960a00151846142df565b87516001600160a01b03165f90815260a360205260409020909250613aad9150836145ac565b505f82815260a46020526040812080546001600160a01b031990811682556001820180548216905560028201805490911690556003810182905560048101805463ffffffff1916905590613b046005830182614cc9565b613b11600683015f614cc9565b50505f828152609e602052604090819020805460ff19169055517f1f40400889274ed07b24845e5054a87a0cab969eb1277aafe61ae352e7c32a0090613b5a9084815260200190565b60405180910390a185516001600160a01b039081165f908152609a6020526040812054885160a08a01519190931692613b94918490612755565b90505f5b8860a0015151811015613db0575f613bbf8a60a001518381518110611f0357611f03615904565b90505f613bf58b60c001518481518110613bdb57613bdb615904565b60200260200101518785815181106136a9576136a9615904565b9050805f03613c05575050613da8565b8715613cd357816001600160a01b0316632eae418c8c5f01518d60a001518681518110613c3457613c34615904565b60200260200101518d8d88818110613c4e57613c4e615904565b9050602002016020810190613c639190615165565b60405160e085901b6001600160e01b03191681526001600160a01b03938416600482015291831660248301529091166044820152606481018490526084015f604051808303815f87803b158015613cb8575f5ffd5b505af1158015613cca573d5f5f3e3d5ffd5b50505050613da5565b5f5f836001600160a01b03166350ff72258e5f01518f60a001518881518110613cfe57613cfe615904565b6020026020010151866040518463ffffffff1660e01b8152600401613d2593929190615c3a565b60408051808303815f875af1158015613d40573d5f5f3e3d5ffd5b505050506040513d601f19601f82011682018060405250810190613d649190615ceb565b91509150613da2878e5f01518f60a001518881518110613d8657613d86615904565b602002602001015185858b8b8151811061316557613165615904565b50505b50505b600101613b98565b505050505050505050565b80515f9015613dcb5781516119b5565b670de0b6b3a764000092915050565b606654606090600190600290811603613e065760405163840a48d560e01b815260040160405180910390fd5b6001600160a01b038084165f818152609a602052604080822080546001600160a01b0319811690915590519316928392917ffee30966a256b71e14bc0ebfc94315e28ef4a97a7131a9e2b7a310a73af4467691a35f5f613e6586611683565b9150915081515f03613e7957505050614033565b81516001600160401b03811115613e9257613e92614e36565b604051908082528060200260200182016040528015613ebb578160200160208202803683370190505b5094505f613eca878585612755565b90505f5b835181101561402d576040805160018082528183019092525f916020808301908036833750506040805160018082528183019092529293505f9291506020808301908036833750506040805160018082528183019092529293505f92915060208083019080368337019050509050868481518110613f4e57613f4e615904565b6020026020010151835f81518110613f6857613f68615904565b60200260200101906001600160a01b031690816001600160a01b031681525050858481518110613f9a57613f9a615904565b6020026020010151825f81518110613fb457613fb4615904565b602002602001018181525050848481518110613fd257613fd2615904565b6020026020010151815f81518110613fec57613fec615904565b6020026020010181815250506140058b898585856128a7565b8a858151811061401757614017615904565b6020908102919091010152505050600101613ece565b50505050505b50919050565b6001600160a01b038084165f9081526099602052604090206001015416806140615750610f25565b6001600160a01b0381165f908152609c6020908152604080832085845290915290205460ff16156140a557604051630d4c4c9160e21b815260040160405180910390fd5b6001600160a01b0381165f908152609c602090815260408083208584528252909120805460ff1916600117905583015161234b9082906140ec908890889084908890610889565b855160208701516145b7565b60605f6141247f000000000000000000000000000000000000000000000000000000000000000061344b565b9050805f8151811061413857614138615904565b602001015160f81c60f81b8160018151811061415657614156615904565b016020908101516040516001600160f81b03199384169281019290925291909116602182015260220160405160208183030381529060405291505090565b60605f610dd083614609565b5f610dd06141ad84613dbb565b839061389c565b6001600160a01b038084165f90815260a56020908152604080832093861683529290529081206141e390614473565b9050610f25436141f384846159f3565b6001600160a01b038088165f90815260a560209081526040808320938a168352929052209190614662565b5f610dd0838361466d565b5f610dd083670de0b6b3a7640000846144c7565b825f0361426957604080516020810190915284548152614262908290612e6b90613dbb565b8455610f25565b6040805160208101909152845481525f906142859085846138b0565b90505f61429284836159f3565b90505f6142ad84612e6b6142a6888a6159f3565b8590614229565b875550505050505050565b5f60ff8216601f8111156119b557604051632cd44ac360e21b815260040160405180910390fd5b60605f83516001600160401b038111156142fb576142fb614e36565b604051908082528060200260200182016040528015614324578160200160208202803683370190505b5090505f7f00000000000000000000000000000000000000000000000000000000000000006001600160a01b03166394d7d00c8787876040518463ffffffff1660e01b815260040161437893929190615d0d565b5f60405180830381865afa158015614392573d5f5f3e3d5ffd5b505050506040513d5f823e601f3d908101601f191682016040526143b99190810190615bab565b90505f5b8551811015614401576143dc8887838151811061285057612850615904565b8382815181106143ee576143ee615904565b60209081029190910101526001016143bd565b50909695505050505050565b5f610dd0838361389c565b5f5f6144258686866144c7565b9050600183600281111561443b5761443b615d46565b14801561445757505f848061445257614452615d5a565b868809115b1561446a576144676001826159f3565b90505b95945050505050565b5f61447e82826146b9565b6001600160e01b031692915050565b5f6144998383836146fe565b6001600160e01b03169392505050565b5f611a5d6144b78385615d6e565b85906001600160401b031661389c565b5f80805f19858709858702925082811083820303915050805f036144fe578382816144f4576144f4615d5a565b0492505050610dd0565b8084116145455760405162461bcd60e51b81526020600482015260156024820152744d6174683a206d756c446976206f766572666c6f7760581b604482015260640161214e565b5f8486880960026001871981018816978890046003810283188082028403028082028403028082028403028082028403028082028403029081029092039091025f889003889004909101858311909403939093029303949094049190911702949350505050565b5f610dd08383614747565b428110156145d857604051630819bdcd60e01b815260040160405180910390fd5b6145ec6001600160a01b038516848461482a565b610f2557604051638baa579f60e01b815260040160405180910390fd5b6060815f0180548060200260200160405190810160405280929190818152602001828054801561465657602002820191905f5260205f20905b815481526020019060010190808311614642575b50505050509050919050565b61110683838361487e565b5f8181526001830160205260408120546146b257508154600181810184555f8481526020808220909301849055845484825282860190935260409020919091556119b5565b505f6119b5565b81545f9080156146f6576146df846146d2600184615cbc565b5f91825260209091200190565b5464010000000090046001600160e01b0316611a5d565b509092915050565b82545f908161470f86868385614984565b9050801561473d57614726866146d2600184615cbc565b5464010000000090046001600160e01b0316610907565b5091949350505050565b5f8181526001830160205260408120548015614821575f614769600183615cbc565b85549091505f9061477c90600190615cbc565b90508181146147db575f865f01828154811061479a5761479a615904565b905f5260205f200154905080875f0184815481106147ba576147ba615904565b5f918252602080832090910192909255918252600188019052604090208390555b85548690806147ec576147ec615d8d565b600190038181905f5260205f20015f90559055856001015f8681526020019081526020015f205f9055600193505050506119b5565b5f9150506119b5565b5f5f5f61483785856149d7565b90925090505f81600481111561484f5761484f615d46565b14801561486d5750856001600160a01b0316826001600160a01b0316145b806109075750610907868686614a16565b82548015614936575f614896856146d2600185615cbc565b60408051808201909152905463ffffffff8082168084526401000000009092046001600160e01b0316602084015291925090851610156148e95760405163151b8e3f60e11b815260040160405180910390fd5b805163ffffffff808616911603614934578261490a866146d2600186615cbc565b80546001600160e01b03929092166401000000000263ffffffff9092169190911790555050505050565b505b506040805180820190915263ffffffff92831681526001600160e01b03918216602080830191825285546001810187555f968752952091519051909216640100000000029190921617910155565b5f5b81831015611bda575f6149998484614afd565b5f8781526020902090915063ffffffff86169082015463ffffffff1611156149c3578092506149d1565b6149ce8160016159f3565b93505b50614986565b5f5f8251604103614a0b576020830151604084015160608501515f1a6149ff87828585614b17565b945094505050506120b1565b505f905060026120b1565b5f5f5f856001600160a01b0316631626ba7e60e01b8686604051602401614a3e929190615da1565b60408051601f198184030181529181526020820180516001600160e01b03166001600160e01b0319909416939093179092529051614a7c9190615db9565b5f60405180830381855afa9150503d805f8114614ab4576040519150601f19603f3d011682016040523d82523d5f602084013e614ab9565b606091505b5091509150818015614acd57506020815110155b801561090757508051630b135d3f60e11b90614af29083016020908101908401615b1c565b149695505050505050565b5f614b0b6002848418615dcf565b610dd0908484166159f3565b5f807f7fffffffffffffffffffffffffffffff5d576e7357a4501ddfe92f46681b20a0831115614b4c57505f90506003614bcb565b604080515f8082526020820180845289905260ff881692820192909252606081018690526080810185905260019060a0016020604051602081039080840390855afa158015614b9d573d5f5f3e3d5ffd5b5050604051601f1901519150506001600160a01b038116614bc5575f60019250925050614bcb565b91505f90505b94509492505050565b6040518060e001604052805f6001600160a01b031681526020015f6001600160a01b031681526020015f6001600160a01b031681526020015f81526020015f63ffffffff16815260200160608152602001606081525090565b828054828255905f5260205f20908101928215614c80579160200282015b82811115614c8057825182546001600160a01b0319166001600160a01b03909116178255602090920191600190910190614c4b565b50614c8c929150614ce0565b5090565b828054828255905f5260205f20908101928215614c80579160200282015b82811115614c80578251825591602001919060010190614cae565b5080545f8255905f5260205f20908101906124d891905b5b80821115614c8c575f8155600101614ce1565b6001600160a01b03811681146124d8575f5ffd5b80356122f781614cf4565b5f5f5f5f5f60a08688031215614d27575f5ffd5b8535614d3281614cf4565b94506020860135614d4281614cf4565b93506040860135614d5281614cf4565b94979396509394606081013594506080013592915050565b5f5f83601f840112614d7a575f5ffd5b5081356001600160401b03811115614d90575f5ffd5b6020830191508360208260051b85010111156120b1575f5ffd5b5f5f60208385031215614dbb575f5ffd5b82356001600160401b03811115614dd0575f5ffd5b614ddc85828601614d6a565b90969095509350505050565b602080825282518282018190525f918401906040840190835b8181101561289c578351835260209384019390920191600101614e01565b5f60208284031215614e2f575f5ffd5b5035919050565b634e487b7160e01b5f52604160045260245ffd5b60405160e081016001600160401b0381118282101715614e6c57614e6c614e36565b60405290565b604080519081016001600160401b0381118282101715614e6c57614e6c614e36565b604051601f8201601f191681016001600160401b0381118282101715614ebc57614ebc614e36565b604052919050565b5f6001600160401b03821115614edc57614edc614e36565b5060051b60200190565b5f82601f830112614ef5575f5ffd5b8135614f08614f0382614ec4565b614e94565b8082825260208201915060208360051b860101925085831115614f29575f5ffd5b602085015b83811015614f4f578035614f4181614cf4565b835260209283019201614f2e565b5095945050505050565b5f82601f830112614f68575f5ffd5b8135614f76614f0382614ec4565b8082825260208201915060208360051b860101925085831115614f97575f5ffd5b602085015b83811015614f4f578035835260209283019201614f9c565b5f5f5f60608486031215614fc6575f5ffd5b8335614fd181614cf4565b925060208401356001600160401b03811115614feb575f5ffd5b614ff786828701614ee6565b92505060408401356001600160401b03811115615012575f5ffd5b61501e86828701614f59565b9150509250925092565b5f8151808452602084019350602083015f5b8281101561505857815186526020958601959091019060010161503a565b5093949350505050565b602081525f610dd06020830184615028565b803563ffffffff811681146122f7575f5ffd5b5f5f83601f840112615097575f5ffd5b5081356001600160401b038111156150ad575f5ffd5b6020830191508360208285010111156120b1575f5ffd5b5f5f5f5f606085870312156150d7575f5ffd5b84356150e281614cf4565b93506150f060208601615074565b925060408501356001600160401b0381111561510a575f5ffd5b61511687828801615087565b95989497509550505050565b5f5f5f5f60808587031215615135575f5ffd5b843561514081614cf4565b9350602085013561515081614cf4565b93969395505050506040820135916060013590565b5f60208284031215615175575f5ffd5b8135610dd081614cf4565b5f5f60408385031215615191575f5ffd5b823561519c81614cf4565b915060208301356151ac81614cf4565b809150509250929050565b5f81518084528060208401602086015e5f602082860101526020601f19601f83011685010191505092915050565b602081525f610dd060208301846151b7565b5f60e08284031215615207575f5ffd5b61520f614e4a565b905061521a82614d08565b815261522860208301614d08565b602082015261523960408301614d08565b60408201526060828101359082015261525460808301615074565b608082015260a08201356001600160401b03811115615271575f5ffd5b61527d84828501614ee6565b60a08301525060c08201356001600160401b0381111561529b575f5ffd5b6152a784828501614f59565b60c08301525092915050565b5f602082840312156152c3575f5ffd5b81356001600160401b038111156152d8575f5ffd5b611a5d848285016151f7565b5f602082840312156152f4575f5ffd5b813560ff81168114610dd0575f5ffd5b5f8151808452602084019350602083015f5b828110156150585781516001600160a01b0316865260209586019590910190600101615316565b80516001600160a01b03908116835260208083015182169084015260408083015190911690830152606080820151908301526080808201515f916153889085018263ffffffff169052565b5060a082015160e060a08501526153a260e0850182615304565b905060c083015184820360c086015261446a8282615028565b604081525f6153cd604083018561533d565b828103602084015261446a8185615028565b5f82825180855260208501945060208160051b830101602085015f5b8381101561440157601f19858403018852615417838351615028565b60209889019890935091909101906001016153fb565b5f604082016040835280855180835260608501915060608160051b8601019250602087015f5b8281101561548457605f1987860301845261546f85835161533d565b94506020938401939190910190600101615453565b50505050828103602084015261446a81856153df565b6001600160401b03811681146124d8575f5ffd5b5f5f5f5f608085870312156154c1575f5ffd5b84356154cc81614cf4565b935060208501356154dc81614cf4565b925060408501356154ec8161549a565b915060608501356154fc8161549a565b939692955090935050565b5f5f5f60608486031215615519575f5ffd5b833561552481614cf4565b925060208401359150604084013561553b8161549a565b809150509250925092565b604081525f6153cd6040830185615304565b5f5f5f6040848603121561556a575f5ffd5b833561557581614cf4565b925060208401356001600160401b0381111561558f575f5ffd5b61559b86828701615087565b9497909650939450505050565b5f5f604083850312156155b9575f5ffd5b82356155c481614cf4565b915060208301356001600160401b038111156155de575f5ffd5b6155ea85828601614ee6565b9150509250929050565b5f5f5f5f5f5f60608789031215615609575f5ffd5b86356001600160401b0381111561561e575f5ffd5b61562a89828a01614d6a565b90975095505060208701356001600160401b03811115615648575f5ffd5b61565489828a01614d6a565b90955093505060408701356001600160401b03811115615672575f5ffd5b61567e89828a01614d6a565b979a9699509497509295939492505050565b602081525f610dd0602083018461533d565b5f5f5f606084860312156156b4575f5ffd5b83356156bf81614cf4565b925060208401356001600160401b038111156156d9575f5ffd5b8401604081870312156156ea575f5ffd5b6156f2614e72565b81356001600160401b03811115615707575f5ffd5b8201601f81018813615717575f5ffd5b80356001600160401b0381111561573057615730614e36565b615743601f8201601f1916602001614e94565b818152896020838501011115615757575f5ffd5b816020840160208301375f60209282018301528352928301359282019290925293969395505050506040919091013590565b5f5f6040838503121561579a575f5ffd5b82356157a581614cf4565b946020939093013593505050565b604081525f6153cd6040830185615028565b80151581146124d8575f5ffd5b5f5f5f5f606085870312156157e5575f5ffd5b84356001600160401b038111156157fa575f5ffd5b850160e0818803121561580b575f5ffd5b935060208501356001600160401b03811115615825575f5ffd5b61583187828801614d6a565b90945092505060408501356154fc816157c5565b5f5f60408385031215615856575f5ffd5b82356001600160401b0381111561586b575f5ffd5b8301601f8101851361587b575f5ffd5b8035615889614f0382614ec4565b8082825260208201915060208360051b8501019250878311156158aa575f5ffd5b6020840193505b828410156158d55783356158c481614cf4565b8252602093840193909101906158b1565b945050505060208301356001600160401b038111156155de575f5ffd5b602081525f610dd060208301846153df565b634e487b7160e01b5f52603260045260245ffd5b5f8235605e1983360301811261592c575f5ffd5b9190910192915050565b5f5f8335601e1984360301811261594b575f5ffd5b8301803591506001600160401b03821115615964575f5ffd5b6020019150600581901b36038213156120b1575f5ffd5b5f6020828403121561598b575f5ffd5b8151610dd0816157c5565b60208152816020820152818360408301375f818301604090810191909152601f909201601f19160101919050565b5f602082840312156159d4575f5ffd5b8151610dd08161549a565b634e487b7160e01b5f52601160045260245ffd5b808201808211156119b5576119b56159df565b5f82601f830112615a15575f5ffd5b8151615a23614f0382614ec4565b8082825260208201915060208360051b860101925085831115615a44575f5ffd5b602085015b83811015614f4f578051835260209283019201615a49565b5f5f60408385031215615a72575f5ffd5b82516001600160401b03811115615a87575f5ffd5b8301601f81018513615a97575f5ffd5b8051615aa5614f0382614ec4565b8082825260208201915060208360051b850101925087831115615ac6575f5ffd5b6020840193505b82841015615af1578351615ae081614cf4565b825260209384019390910190615acd565b8095505050505060208301516001600160401b03811115615b10575f5ffd5b6155ea85828601615a06565b5f60208284031215615b2c575f5ffd5b5051919050565b5f823560de1983360301811261592c575f5ffd5b5f6119b536836151f7565b5f60208284031215615b62575f5ffd5b8135610dd0816157c5565b5f60208284031215615b7d575f5ffd5b8151610dd081614cf4565b6001600160a01b03831681526040602082018190525f90611a5d90830184615304565b5f60208284031215615bbb575f5ffd5b81516001600160401b03811115615bd0575f5ffd5b8201601f81018413615be0575f5ffd5b8051615bee614f0382614ec4565b8082825260208201915060208360051b850101925086831115615c0f575f5ffd5b6020840193505b82841015610907578351615c298161549a565b825260209384019390910190615c16565b6001600160a01b039384168152919092166020820152604081019190915260600190565b5f60018201615c6f57615c6f6159df565b5060010190565b838152606060208201525f615c8e606083018561533d565b82810360408401526109078185615028565b63ffffffff81811683821601908111156119b5576119b56159df565b818103818111156119b5576119b56159df565b63ffffffff82811682821603908111156119b5576119b56159df565b5f5f60408385031215615cfc575f5ffd5b505080516020909101519092909150565b6001600160a01b03841681526060602082018190525f90615d3090830185615304565b905063ffffffff83166040830152949350505050565b634e487b7160e01b5f52602160045260245ffd5b634e487b7160e01b5f52601260045260245ffd5b6001600160401b0382811682821603908111156119b5576119b56159df565b634e487b7160e01b5f52603160045260245ffd5b828152604060208201525f611a5d60408301846151b7565b5f82518060208501845e5f920191825250919050565b5f82615de957634e487b7160e01b5f52601260045260245ffd5b50049056fea264697066735822122024d46eb50f554b683498951f6f753a93466828f8d96fa10b24229588e964a39964736f6c634300081b0033","linkReferences":{}},"methodIdentifiers":{"DELEGATION_APPROVAL_TYPEHASH()":"04a4f979","allocationManager()":"ca8aa7c7","beaconChainETHStrategy()":"9104c319","calculateDelegationApprovalDigestHash(address,address,address,bytes32,uint256)":"0b9f487a","calculateWithdrawalRoot((address,address,address,uint256,uint32,address[],uint256[]))":"597b36da","completeQueuedWithdrawal((address,address,address,uint256,uint32,address[],uint256[]),address[],bool)":"e4cc3f90","completeQueuedWithdrawals((address,address,address,uint256,uint32,address[],uint256[])[],address[][],bool[])":"9435bb43","convertToDepositShares(address,address[],uint256[])":"25df922e","cumulativeWithdrawalsQueued(address)":"a1788484","decreaseDelegatedShares(address,uint256,uint64)":"60a0d1ce","delegateTo(address,(bytes,uint256),bytes32)":"eea9064b","delegatedTo(address)":"65da1264","delegationApprover(address)":"3cdeb5e0","delegationApproverSaltIsSpent(address,bytes32)":"bb45fef2","depositScalingFactor(address,address)":"bfae3fd2","domainSeparator()":"f698da25","eigenPodManager()":"4665bcda","getDepositedShares(address)":"66d5ba93","getOperatorShares(address,address[])":"90041347","getOperatorsShares(address[],address[])":"f0e0e676","getQueuedWithdrawal(bytes32)":"5d975e88","getQueuedWithdrawalRoots(address)":"fd8aa88d","getQueuedWithdrawals(address)":"5dd68579","getSlashableSharesInQueue(address,address)":"6e174448","getWithdrawableShares(address,address[])":"c978f7ac","increaseDelegatedShares(address,address,uint256,uint256)":"3c651cf2","initialize(address,uint256)":"cd6dc687","isDelegated(address)":"3e28391d","isOperator(address)":"6d70f7ae","minWithdrawalDelayBlocks()":"c448feb8","modifyOperatorDetails(address,address)":"54b7c96c","operatorShares(address,address)":"778e55f3","owner()":"8da5cb5b","pause(uint256)":"136439dd","pauseAll()":"595c6a67","paused()":"5c975abb","paused(uint8)":"5ac86ab7","pauserRegistry()":"886f1195","pendingWithdrawals(bytes32)":"b7f06ebe","permissionController()":"4657e26a","queueWithdrawals((address[],uint256[],address)[])":"0dd8dd02","queuedWithdrawals(bytes32)":"99f5371b","redelegate(address,(bytes,uint256),bytes32)":"a33a3433","registerAsOperator(address,uint32,string)":"2aa6d888","renounceOwnership()":"715018a6","slashOperatorShares(address,address,uint64,uint64)":"601bb36f","strategyManager()":"39b70e38","transferOwnership(address)":"f2fde38b","undelegate(address)":"da8be864","unpause(uint256)":"fabc1cbc","updateOperatorMetadataURI(address,string)":"78296ec5","version()":"54fd4d50"},"id":122}