{"abi":[{"type":"constructor","inputs":[],"stateMutability":"nonpayable"},{"type":"function","name":"allowance","inputs":[{"name":"owner","type":"address","internalType":"address"},{"name":"spender","type":"address","internalType":"address"}],"outputs":[{"name":"","type":"uint256","internalType":"uint256"}],"stateMutability":"view"},{"type":"function","name":"approve","inputs":[{"name":"","type":"address","internalType":"address"},{"name":"","type":"uint256","internalType":"uint256"}],"outputs":[{"name":"","type":"bool","internalType":"bool"}],"stateMutability":"nonpayable"},{"type":"function","name":"balanceOf","inputs":[{"name":"account","type":"address","internalType":"address"}],"outputs":[{"name":"","type":"uint256","internalType":"uint256"}],"stateMutability":"view"},{"type":"function","name":"decimals","inputs":[],"outputs":[{"name":"","type":"uint8","internalType":"uint8"}],"stateMutability":"pure"},{"type":"function","name":"mint","inputs":[{"name":"","type":"address","internalType":"address"},{"name":"amount","type":"uint256","internalType":"uint256"}],"outputs":[],"stateMutability":"nonpayable"},{"type":"function","name":"totalSupply","inputs":[],"outputs":[{"name":"","type":"uint256","internalType":"uint256"}],"stateMutability":"view"},{"type":"function","name":"transfer","inputs":[{"name":"to","type":"address","internalType":"address"},{"name":"amount","type":"uint256","internalType":"uint256"}],"outputs":[{"name":"","type":"bool","internalType":"bool"}],"stateMutability":"nonpayable"},{"type":"function","name":"transferFrom","inputs":[{"name":"from","type":"address","internalType":"address"},{"name":"to","type":"address","internalType":"address"},{"name":"amount","type":"uint256","internalType":"uint256"}],"outputs":[{"name":"","type":"bool","internalType":"bool"}],"stateMutability":"nonpayable"},{"type":"event","name":"Approval","inputs":[{"name":"owner","type":"address","indexed":true,"internalType":"address"},{"name":"spender","type":"address","indexed":true,"internalType":"address"},{"name":"value","type":"uint256","indexed":false,"internalType":"uint256"}],"anonymous":false},{"type":"event","name":"Transfer","inputs":[{"name":"from","type":"address","indexed":true,"internalType":"address"},{"name":"to","type":"address","indexed":true,"internalType":"address"},{"name":"value","type":"uint256","indexed":false,"internalType":"uint256"}],"anonymous":false}],"bytecode":{"object":"0x60806040526001600160581b0360035534801561001a575f5ffd5b5061002d3360035461003260201b60201c565b610118565b6001600160a01b03821661008c5760405162461bcd60e51b815260206004820152601f60248201527f45524332303a206d696e7420746f20746865207a65726f206164647265737300604482015260640160405180910390fd5b8060025f82825461009d91906100f3565b90915550506001600160a01b0382165f81815260208181526040808320805486019055518481527fddf252ad1be2c89b69c2b068fc378daa952ba7f163c4a11628f55a4df523b3ef910160405180910390a35050565b8082018082111561011257634e487b7160e01b5f52601160045260245ffd5b92915050565b6104c1806101255f395ff3fe608060405234801561000f575f5ffd5b5060043610610085575f3560e01c806340c10f191161005857806340c10f19146100e557806370a08231146100fa578063a9059cbb14610122578063dd62ed3e14610135575f5ffd5b8063095ea7b31461008957806318160ddd146100b157806323b872dd146100c3578063313ce567146100d6575b5f5ffd5b61009c6100973660046103b9565b61016d565b60405190151581526020015b60405180910390f35b6002545b6040519081526020016100a8565b61009c6100d13660046103e1565b610176565b604051601281526020016100a8565b6100f86100f33660046103b9565b61018c565b005b6100b561010836600461041b565b6001600160a01b03165f9081526020819052604090205490565b61009c6101303660046103b9565b61019c565b6100b561014336600461043b565b6001600160a01b039182165f90815260016020908152604080832093909416825291909152205490565b60015b92915050565b5f6101828484846101a5565b5060019392505050565b3361019781836102e1565b505050565b5f336101828185855b6001600160a01b03831661020e5760405162461bcd60e51b815260206004820152602560248201527f45524332303a207472616e736665722066726f6d20746865207a65726f206164604482015264647265737360d81b60648201526084015b60405180910390fd5b6001600160a01b0382166102705760405162461bcd60e51b815260206004820152602360248201527f45524332303a207472616e7366657220746f20746865207a65726f206164647260448201526265737360e81b6064820152608401610205565b61027a83826102e1565b6001600160a01b038381165f818152602081815260408083208054879003905593861680835291849020805486019055925184815290927fddf252ad1be2c89b69c2b068fc378daa952ba7f163c4a11628f55a4df523b3ef910160405180910390a3505050565b6001600160a01b0382166103375760405162461bcd60e51b815260206004820152601f60248201527f45524332303a206d696e7420746f20746865207a65726f2061646472657373006044820152606401610205565b8060025f828254610348919061046c565b90915550506001600160a01b0382165f81815260208181526040808320805486019055518481527fddf252ad1be2c89b69c2b068fc378daa952ba7f163c4a11628f55a4df523b3ef910160405180910390a35050565b80356001600160a01b03811681146103b4575f5ffd5b919050565b5f5f604083850312156103ca575f5ffd5b6103d38361039e565b946020939093013593505050565b5f5f5f606084860312156103f3575f5ffd5b6103fc8461039e565b925061040a6020850161039e565b929592945050506040919091013590565b5f6020828403121561042b575f5ffd5b6104348261039e565b9392505050565b5f5f6040838503121561044c575f5ffd5b6104558361039e565b91506104636020840161039e565b90509250929050565b8082018082111561017057634e487b7160e01b5f52601160045260245ffdfea264697066735822122096450cd96f83a546b4a63d3263c99610c2110ff8ddcdb61b525d1bef7e3bdb7a64736f6c634300081b0033","linkReferences":{}},"methodIdentifiers":{"allowance(address,address)":"dd62ed3e","approve(address,uint256)":"095ea7b3","balanceOf(address)":"70a08231","decimals()":"313ce567","mint(address,uint256)":"40c10f19","totalSupply()":"18160ddd","transfer(address,uint256)":"a9059cbb","transferFrom(address,address,uint256)":"23b872dd"},"id":231}