{"abi":[{"type":"function","name":"deposit","inputs":[{"name":"pubkey","type":"bytes","internalType":"bytes"},{"name":"withdrawal_credentials","type":"bytes","internalType":"bytes"},{"name":"signature","type":"bytes","internalType":"bytes"},{"name":"deposit_data_root","type":"bytes32","internalType":"bytes32"}],"outputs":[],"stateMutability":"payable"},{"type":"function","name":"get_deposit_count","inputs":[],"outputs":[{"name":"","type":"bytes","internalType":"bytes"}],"stateMutability":"pure"},{"type":"function","name":"get_deposit_root","inputs":[],"outputs":[{"name":"","type":"bytes32","internalType":"bytes32"}],"stateMutability":"pure"},{"type":"event","name":"DepositEvent","inputs":[{"name":"pubkey","type":"bytes","indexed":false,"internalType":"bytes"},{"name":"withdrawal_credentials","type":"bytes","indexed":false,"internalType":"bytes"},{"name":"amount","type":"bytes","indexed":false,"internalType":"bytes"},{"name":"signature","type":"bytes","indexed":false,"internalType":"bytes"},{"name":"index","type":"bytes","indexed":false,"internalType":"bytes"}],"anonymous":false}],"bytecode":{"object":"0x6080604052348015600e575f5ffd5b506101e58061001c5f395ff3fe608060405260043610610033575f3560e01c80632289511814610037578063621fd13014610050578063c5f2892f14610074575b5f5ffd5b61004e6100453660046100d3565b50505050505050565b005b34801561005b575f5ffd5b50606060405161006b919061017a565b60405180910390f35b34801561007f575f5ffd5b506040515f815260200161006b565b5f5f83601f84011261009e575f5ffd5b50813567ffffffffffffffff8111156100b5575f5ffd5b6020830191508360208285010111156100cc575f5ffd5b9250929050565b5f5f5f5f5f5f5f6080888a0312156100e9575f5ffd5b873567ffffffffffffffff8111156100ff575f5ffd5b61010b8a828b0161008e565b909850965050602088013567ffffffffffffffff81111561012a575f5ffd5b6101368a828b0161008e565b909650945050604088013567ffffffffffffffff811115610155575f5ffd5b6101618a828b0161008e565b989b979a50959894979596606090950135949350505050565b602081525f82518060208401528060208501604085015e5f604082850101526040601f19601f8301168401019150509291505056fea2646970667358221220dd8f67b80a73d6697e70b57fe434e8a1f234a2f4927665c744357cbc14e0492a64736f6c634300081b0033","linkReferences":{}},"methodIdentifiers":{"deposit(bytes,bytes,bytes,bytes32)":"22895118","get_deposit_count()":"621fd130","get_deposit_root()":"c5f2892f"},"id":234}