{"abi":[{"type":"constructor","inputs":[{"name":"_bEIGEN","type":"address","internalType":"contract IERC20"}],"stateMutability":"nonpayable"},{"type":"function","name":"CLOCK_MODE","inputs":[],"outputs":[{"name":"","type":"string","internalType":"string"}],"stateMutability":"pure"},{"type":"function","name":"DOMAIN_SEPARATOR","inputs":[],"outputs":[{"name":"","type":"bytes32","internalType":"bytes32"}],"stateMutability":"view"},{"type":"function","name":"allowance","inputs":[{"name":"owner","type":"address","internalType":"address"},{"name":"spender","type":"address","internalType":"address"}],"outputs":[{"name":"","type":"uint256","internalType":"uint256"}],"stateMutability":"view"},{"type":"function","name":"allowedFrom","inputs":[{"name":"","type":"address","internalType":"address"}],"outputs":[{"name":"","type":"bool","internalType":"bool"}],"stateMutability":"view"},{"type":"function","name":"allowedTo","inputs":[{"name":"","type":"address","internalType":"address"}],"outputs":[{"name":"","type":"bool","internalType":"bool"}],"stateMutability":"view"},{"type":"function","name":"approve","inputs":[{"name":"spender","type":"address","internalType":"address"},{"name":"amount","type":"uint256","internalType":"uint256"}],"outputs":[{"name":"","type":"bool","internalType":"bool"}],"stateMutability":"nonpayable"},{"type":"function","name":"bEIGEN","inputs":[],"outputs":[{"name":"","type":"address","internalType":"contract IERC20"}],"stateMutability":"view"},{"type":"function","name":"balanceOf","inputs":[{"name":"account","type":"address","internalType":"address"}],"outputs":[{"name":"","type":"uint256","internalType":"uint256"}],"stateMutability":"view"},{"type":"function","name":"checkpoints","inputs":[{"name":"account","type":"address","internalType":"address"},{"name":"pos","type":"uint32","internalType":"uint32"}],"outputs":[{"name":"","type":"tuple","internalType":"struct ERC20VotesUpgradeable.Checkpoint","components":[{"name":"fromBlock","type":"uint32","internalType":"uint32"},{"name":"votes","type":"uint224","internalType":"uint224"}]}],"stateMutability":"view"},{"type":"function","name":"clock","inputs":[],"outputs":[{"name":"","type":"uint48","internalType":"uint48"}],"stateMutability":"view"},{"type":"function","name":"decimals","inputs":[],"outputs":[{"name":"","type":"uint8","internalType":"uint8"}],"stateMutability":"view"},{"type":"function","name":"decreaseAllowance","inputs":[{"name":"spender","type":"address","internalType":"address"},{"name":"subtractedValue","type":"uint256","internalType":"uint256"}],"outputs":[{"name":"","type":"bool","internalType":"bool"}],"stateMutability":"nonpayable"},{"type":"function","name":"delegate","inputs":[{"name":"delegatee","type":"address","internalType":"address"}],"outputs":[],"stateMutability":"nonpayable"},{"type":"function","name":"delegateBySig","inputs":[{"name":"delegatee","type":"address","internalType":"address"},{"name":"nonce","type":"uint256","internalType":"uint256"},{"name":"expiry","type":"uint256","internalType":"uint256"},{"name":"v","type":"uint8","internalType":"uint8"},{"name":"r","type":"bytes32","internalType":"bytes32"},{"name":"s","type":"bytes32","internalType":"bytes32"}],"outputs":[],"stateMutability":"nonpayable"},{"type":"function","name":"delegates","inputs":[{"name":"account","type":"address","internalType":"address"}],"outputs":[{"name":"","type":"address","internalType":"address"}],"stateMutability":"view"},{"type":"function","name":"disableTransferRestrictions","inputs":[],"outputs":[],"stateMutability":"nonpayable"},{"type":"function","name":"eip712Domain","inputs":[],"outputs":[{"name":"fields","type":"bytes1","internalType":"bytes1"},{"name":"name","type":"string","internalType":"string"},{"name":"version","type":"string","internalType":"string"},{"name":"chainId","type":"uint256","internalType":"uint256"},{"name":"verifyingContract","type":"address","internalType":"address"},{"name":"salt","type":"bytes32","internalType":"bytes32"},{"name":"extensions","type":"uint256[]","internalType":"uint256[]"}],"stateMutability":"view"},{"type":"function","name":"getPastTotalSupply","inputs":[{"name":"timepoint","type":"uint256","internalType":"uint256"}],"outputs":[{"name":"","type":"uint256","internalType":"uint256"}],"stateMutability":"view"},{"type":"function","name":"getPastVotes","inputs":[{"name":"account","type":"address","internalType":"address"},{"name":"timepoint","type":"uint256","internalType":"uint256"}],"outputs":[{"name":"","type":"uint256","internalType":"uint256"}],"stateMutability":"view"},{"type":"function","name":"getVotes","inputs":[{"name":"account","type":"address","internalType":"address"}],"outputs":[{"name":"","type":"uint256","internalType":"uint256"}],"stateMutability":"view"},{"type":"function","name":"increaseAllowance","inputs":[{"name":"spender","type":"address","internalType":"address"},{"name":"addedValue","type":"uint256","internalType":"uint256"}],"outputs":[{"name":"","type":"bool","internalType":"bool"}],"stateMutability":"nonpayable"},{"type":"function","name":"initialize","inputs":[{"name":"initialOwner","type":"address","internalType":"address"},{"name":"minters","type":"address[]","internalType":"address[]"},{"name":"mintingAllowances","type":"uint256[]","internalType":"uint256[]"},{"name":"mintAllowedAfters","type":"uint256[]","internalType":"uint256[]"}],"outputs":[],"stateMutability":"nonpayable"},{"type":"function","name":"mint","inputs":[],"outputs":[],"stateMutability":"nonpayable"},{"type":"function","name":"mintAllowedAfter","inputs":[{"name":"","type":"address","internalType":"address"}],"outputs":[{"name":"","type":"uint256","internalType":"uint256"}],"stateMutability":"view"},{"type":"function","name":"mintingAllowance","inputs":[{"name":"","type":"address","internalType":"address"}],"outputs":[{"name":"","type":"uint256","internalType":"uint256"}],"stateMutability":"view"},{"type":"function","name":"multisend","inputs":[{"name":"receivers","type":"address[]","internalType":"address[]"},{"name":"amounts","type":"uint256[]","internalType":"uint256[]"}],"outputs":[],"stateMutability":"nonpayable"},{"type":"function","name":"name","inputs":[],"outputs":[{"name":"","type":"string","internalType":"string"}],"stateMutability":"view"},{"type":"function","name":"nonces","inputs":[{"name":"owner","type":"address","internalType":"address"}],"outputs":[{"name":"","type":"uint256","internalType":"uint256"}],"stateMutability":"view"},{"type":"function","name":"numCheckpoints","inputs":[{"name":"account","type":"address","internalType":"address"}],"outputs":[{"name":"","type":"uint32","internalType":"uint32"}],"stateMutability":"view"},{"type":"function","name":"owner","inputs":[],"outputs":[{"name":"","type":"address","internalType":"address"}],"stateMutability":"view"},{"type":"function","name":"permit","inputs":[{"name":"owner","type":"address","internalType":"address"},{"name":"spender","type":"address","internalType":"address"},{"name":"value","type":"uint256","internalType":"uint256"},{"name":"deadline","type":"uint256","internalType":"uint256"},{"name":"v","type":"uint8","internalType":"uint8"},{"name":"r","type":"bytes32","internalType":"bytes32"},{"name":"s","type":"bytes32","internalType":"bytes32"}],"outputs":[],"stateMutability":"nonpayable"},{"type":"function","name":"renounceOwnership","inputs":[],"outputs":[],"stateMutability":"nonpayable"},{"type":"function","name":"setAllowedFrom","inputs":[{"name":"from","type":"address","internalType":"address"},{"name":"isAllowedFrom","type":"bool","internalType":"bool"}],"outputs":[],"stateMutability":"nonpayable"},{"type":"function","name":"setAllowedTo","inputs":[{"name":"to","type":"address","internalType":"address"},{"name":"isAllowedTo","type":"bool","internalType":"bool"}],"outputs":[],"stateMutability":"nonpayable"},{"type":"function","name":"symbol","inputs":[],"outputs":[{"name":"","type":"string","internalType":"string"}],"stateMutability":"view"},{"type":"function","name":"totalSupply","inputs":[],"outputs":[{"name":"","type":"uint256","internalType":"uint256"}],"stateMutability":"view"},{"type":"function","name":"transfer","inputs":[{"name":"to","type":"address","internalType":"address"},{"name":"amount","type":"uint256","internalType":"uint256"}],"outputs":[{"name":"","type":"bool","internalType":"bool"}],"stateMutability":"nonpayable"},{"type":"function","name":"transferFrom","inputs":[{"name":"from","type":"address","internalType":"address"},{"name":"to","type":"address","internalType":"address"},{"name":"amount","type":"uint256","internalType":"uint256"}],"outputs":[{"name":"","type":"bool","internalType":"bool"}],"stateMutability":"nonpayable"},{"type":"function","name":"transferOwnership","inputs":[{"name":"newOwner","type":"address","internalType":"address"}],"outputs":[],"stateMutability":"nonpayable"},{"type":"function","name":"transferRestrictionsDisabledAfter","inputs":[],"outputs":[{"name":"","type":"uint256","internalType":"uint256"}],"stateMutability":"view"},{"type":"function","name":"unwrap","inputs":[{"name":"amount","type":"uint256","internalType":"uint256"}],"outputs":[],"stateMutability":"nonpayable"},{"type":"function","name":"wrap","inputs":[{"name":"amount","type":"uint256","internalType":"uint256"}],"outputs":[],"stateMutability":"nonpayable"},{"type":"event","name":"Approval","inputs":[{"name":"owner","type":"address","indexed":true,"internalType":"address"},{"name":"spender","type":"address","indexed":true,"internalType":"address"},{"name":"value","type":"uint256","indexed":false,"internalType":"uint256"}],"anonymous":false},{"type":"event","name":"DelegateChanged","inputs":[{"name":"delegator","type":"address","indexed":true,"internalType":"address"},{"name":"fromDelegate","type":"address","indexed":true,"internalType":"address"},{"name":"toDelegate","type":"address","indexed":true,"internalType":"address"}],"anonymous":false},{"type":"event","name":"DelegateVotesChanged","inputs":[{"name":"delegate","type":"address","indexed":true,"internalType":"address"},{"name":"previousBalance","type":"uint256","indexed":false,"internalType":"uint256"},{"name":"newBalance","type":"uint256","indexed":false,"internalType":"uint256"}],"anonymous":false},{"type":"event","name":"EIP712DomainChanged","inputs":[],"anonymous":false},{"type":"event","name":"Initialized","inputs":[{"name":"version","type":"uint8","indexed":false,"internalType":"uint8"}],"anonymous":false},{"type":"event","name":"Mint","inputs":[{"name":"minter","type":"address","indexed":true,"internalType":"address"},{"name":"amount","type":"uint256","indexed":false,"internalType":"uint256"}],"anonymous":false},{"type":"event","name":"OwnershipTransferred","inputs":[{"name":"previousOwner","type":"address","indexed":true,"internalType":"address"},{"name":"newOwner","type":"address","indexed":true,"internalType":"address"}],"anonymous":false},{"type":"event","name":"SetAllowedFrom","inputs":[{"name":"from","type":"address","indexed":true,"internalType":"address"},{"name":"isAllowedFrom","type":"bool","indexed":false,"internalType":"bool"}],"anonymous":false},{"type":"event","name":"SetAllowedTo","inputs":[{"name":"to","type":"address","indexed":true,"internalType":"address"},{"name":"isAllowedTo","type":"bool","indexed":false,"internalType":"bool"}],"anonymous":false},{"type":"event","name":"Transfer","inputs":[{"name":"from","type":"address","indexed":true,"internalType":"address"},{"name":"to","type":"address","indexed":true,"internalType":"address"},{"name":"value","type":"uint256","indexed":false,"internalType":"uint256"}],"anonymous":false},{"type":"event","name":"TransferRestrictionsDisabled","inputs":[],"anonymous":false}],"bytecode":{"object":"0x60a060405234801561000f575f5ffd5b5060405161352938038061352983398101604081905261002e91610105565b6001600160a01b038116608052610043610049565b50610132565b5f54610100900460ff16156100b45760405162461bcd60e51b815260206004820152602760248201527f496e697469616c697a61626c653a20636f6e747261637420697320696e697469604482015266616c697a696e6760c81b606482015260840160405180910390fd5b5f5460ff90811614610103575f805460ff191660ff9081179091556040519081527f7f26b83ff96e1f2b6a682f133852f6798a09c465da95921460cefb38474024989060200160405180910390a15b565b5f60208284031215610115575f5ffd5b81516001600160a01b038116811461012b575f5ffd5b9392505050565b6080516133ca61015f5f395f81816103410152818161083e0152818161149e015261158a01526133ca5ff3fe608060405234801561000f575f5ffd5b5060043610610255575f3560e01c806381b9716111610140578063a9059cbb116100bf578063dd62ed3e11610084578063dd62ed3e146105b9578063de0e9a3e146105cc578063ea598cb0146105df578063eb415f45146105f2578063f1127ed8146105fa578063f2fde38b14610637575f5ffd5b8063a9059cbb1461055a578063aad41a411461056d578063b8c2559414610580578063c3cda52014610593578063d505accf146105a6575f5ffd5b806395d89b411161010557806395d89b411461050f5780639ab24eb0146105175780639aec4bae1461052a578063a457c2d714610534578063a7d1195d14610547575f5ffd5b806381b971611461049157806384b0196e146104b15780638da5cb5b146104cc5780638e539e8c146104dd57806391ddadf4146104f0575f5ffd5b80633a46b1a8116101d75780635c19a95c1161019c5780635c19a95c146103f05780636fcfff451461040357806370a082311461042b578063715018a61461045357806378aa33ba1461045b5780637ecebe001461047e575f5ffd5b80633a46b1a8146103295780633f4da4c61461033c5780634bf5d7e91461037b57806353957125146103a5578063587cde1e146103c5575f5ffd5b80631ffacdef1161021d5780631ffacdef146102d957806323b872dd146102ec578063313ce567146102ff5780633644e5151461030e5780633950935114610316575f5ffd5b80630455e6941461025957806306fdde0314610291578063095ea7b3146102a65780631249c58b146102b957806318160ddd146102c3575b5f5ffd5b61027c610267366004612c01565b6101336020525f908152604090205460ff1681565b60405190151581526020015b60405180910390f35b61029961064a565b6040516102889190612c48565b61027c6102b4366004612c5a565b6106da565b6102c16106f3565b005b6102cb61083b565b604051908152602001610288565b6102c16102e7366004612c8f565b6108c1565b61027c6102fa366004612cc4565b610929565b60405160128152602001610288565b6102cb61094c565b61027c610324366004612c5a565b610955565b6102cb610337366004612c5a565b610976565b6103637f000000000000000000000000000000000000000000000000000000000000000081565b6040516001600160a01b039091168152602001610288565b60408051808201909152600e81526d06d6f64653d74696d657374616d760941b6020820152610299565b6102cb6103b3366004612c01565b6101306020525f908152604090205481565b6103636103d3366004612c01565b6001600160a01b039081165f90815260fe60205260409020541690565b6102c16103fe366004612c01565b6109f9565b610416610411366004612c01565b610a06565b60405163ffffffff9091168152602001610288565b6102cb610439366004612c01565b6001600160a01b03165f9081526065602052604090205490565b6102c1610a27565b61027c610469366004612c01565b6101346020525f908152604090205460ff1681565b6102cb61048c366004612c01565b610a3a565b6102cb61049f366004612c01565b6101316020525f908152604090205481565b6104b9610a57565b6040516102889796959493929190612cfe565b6033546001600160a01b0316610363565b6102cb6104eb366004612d94565b610af0565b6104f8610b57565b60405165ffffffffffff9091168152602001610288565b610299610b61565b6102cb610525366004612c01565b610b70565b6102cb6101325481565b61027c610542366004612c5a565b610bed565b6102c1610555366004612e73565b610c67565b61027c610568366004612c5a565b61107b565b6102c161057b366004612fb8565b611088565b6102c161058e366004612c8f565b611158565b6102c16105a1366004613034565b6111b8565b6102c16105b4366004613088565b6112ed565b6102cb6105c73660046130ee565b61144e565b6102c16105da366004612d94565b611478565b6102c16105ed366004612d94565b611568565b6102c161165d565b61060d61060836600461311f565b611724565b60408051825163ffffffff1681526020928301516001600160e01b03169281019290925201610288565b6102c1610645366004612c01565b6117a5565b60606068805461065990613151565b80601f016020809104026020016040519081016040528092919081815260200182805461068590613151565b80156106d05780601f106106a7576101008083540402835291602001916106d0565b820191905f5260205f20905b8154815290600101906020018083116106b357829003601f168201915b5050505050905090565b5f336106e781858561181b565b60019150505b92915050565b335f908152610131602052604090205461076c5760405162461bcd60e51b815260206004820152602f60248201527f456967656e2e6d696e743a206d73672e73656e64657220686173206e6f206d6960448201526e6e74696e6720616c6c6f77616e636560881b60648201526084015b60405180910390fd5b335f908152610130602052604090205442116107e45760405162461bcd60e51b815260206004820152603160248201527f456967656e2e6d696e743a206d73672e73656e646572206973206e6f7420616c6044820152701b1bddd959081d1bc81b5a5b9d081e595d607a1b6064820152608401610763565b335f81815261013160205260408120805491905590610803908261193e565b60405181815233907f0f6798a560793a54c3bcfe86a93cde1e73087d944c0ea20544137d41213968859060200160405180910390a250565b5f7f00000000000000000000000000000000000000000000000000000000000000006001600160a01b03166318160ddd6040518163ffffffff1660e01b8152600401602060405180830381865afa158015610898573d5f5f3e3d5ffd5b505050506040513d601f19601f820116820180604052508101906108bc9190613183565b905090565b6108c96119d4565b6001600160a01b0382165f8181526101336020908152604091829020805460ff191685151590811790915591519182527fcf20b1ecb604b0e8888d579c64e8a3b10e590d45c1c2dddb393bed284362227191015b60405180910390a25050565b5f33610936858285611a2e565b610941858585611aa0565b506001949350505050565b5f6108bc611c5a565b5f336106e7818585610967838361144e565b61097191906131ae565b61181b565b5f61097f610b57565b65ffffffffffff1682106109d15760405162461bcd60e51b815260206004820152601960248201527804552433230566f7465733a20667574757265206c6f6f6b757603c1b6044820152606401610763565b6001600160a01b0383165f90815260ff602052604090206109f29083611c63565b9392505050565b610a033382611d44565b50565b6001600160a01b0381165f90815260ff60205260408120546106ed90611dbd565b610a2f6119d4565b610a385f611e25565b565b6001600160a01b0381165f90815260cb60205260408120546106ed565b5f6060805f5f5f60606097545f5f1b148015610a735750609854155b610ab75760405162461bcd60e51b81526020600482015260156024820152741152540dcc4c8e88155b9a5b9a5d1a585b1a5e9959605a1b6044820152606401610763565b610abf611e76565b610ac7611e85565b604080515f80825260208201909252600f60f81b9b939a50919850469750309650945092509050565b5f610af9610b57565b65ffffffffffff168210610b4b5760405162461bcd60e51b815260206004820152601960248201527804552433230566f7465733a20667574757265206c6f6f6b757603c1b6044820152606401610763565b6106ed61010083611c63565b5f6108bc42611e94565b60606069805461065990613151565b6001600160a01b0381165f90815260ff60205260408120548015610bdb576001600160a01b0383165f90815260ff6020526040902080545f198301908110610bba57610bba6131c1565b5f9182526020909120015464010000000090046001600160e01b0316610bdd565b5f5b6001600160e01b03169392505050565b5f3381610bfa828661144e565b905083811015610c5a5760405162461bcd60e51b815260206004820152602560248201527f45524332303a2064656372656173656420616c6c6f77616e63652062656c6f77604482015264207a65726f60d81b6064820152608401610763565b610941828686840361181b565b5f54610100900460ff1615808015610c8557505f54600160ff909116105b80610c9e5750303b158015610c9e57505f5460ff166001145b610d015760405162461bcd60e51b815260206004820152602e60248201527f496e697469616c697a61626c653a20636f6e747261637420697320616c72656160448201526d191e481a5b9a5d1a585b1a5e995960921b6064820152608401610763565b5f805460ff191660011790558015610d22575f805461ff0019166101001790555b610d2a611efa565b610d6e6040518060400160405280600581526020016422b4b3b2b760d91b8152506040518060400160405280600581526020016422a4a3a2a760d91b815250611f28565b610d7785611e25565b610d9d6040518060400160405280600581526020016422a4a3a2a760d91b815250611f5c565b8251845114610e245760405162461bcd60e51b815260206004820152604760248201527f456967656e2e696e697469616c697a653a206d696e7465727320616e64206d6960448201527f6e74696e67416c6c6f77616e636573206d757374206265207468652073616d65606482015266040d8cadccee8d60cb1b608482015260a401610763565b8151845114610eab5760405162461bcd60e51b815260206004820152604760248201527f456967656e2e696e697469616c697a653a206d696e7465727320616e64206d6960448201527f6e74416c6c6f776564416674657273206d757374206265207468652073616d65606482015266040d8cadccee8d60cb1b608482015260a401610763565b5f5b845181101561102857838181518110610ec857610ec86131c1565b60200260200101516101315f878481518110610ee657610ee66131c1565b60200260200101516001600160a01b03166001600160a01b031681526020019081526020015f2081905550828181518110610f2357610f236131c1565b60200260200101516101305f878481518110610f4157610f416131c1565b60200260200101516001600160a01b03166001600160a01b031681526020019081526020015f208190555060016101335f878481518110610f8457610f846131c1565b60200260200101516001600160a01b03166001600160a01b031681526020019081526020015f205f6101000a81548160ff021916908315150217905550848181518110610fd357610fd36131c1565b60200260200101516001600160a01b03167fcf20b1ecb604b0e8888d579c64e8a3b10e590d45c1c2dddb393bed28436222716001604051611018911515815260200190565b60405180910390a2600101610ead565b505f19610132558015611074575f805461ff0019169055604051600181527f7f26b83ff96e1f2b6a682f133852f6798a09c465da95921460cefb38474024989060200160405180910390a15b5050505050565b5f336106e7818585611aa0565b8281146110fd5760405162461bcd60e51b815260206004820152603e60248201527f456967656e2e6d756c746973656e643a2072656365697665727320616e64206160448201527f6d6f756e7473206d757374206265207468652073616d65206c656e67746800006064820152608401610763565b5f5b83811015611074576111503386868481811061111d5761111d6131c1565b90506020020160208101906111329190612c01565b858585818110611144576111446131c1565b90506020020135611aa0565b6001016110ff565b6111606119d4565b6001600160a01b0382165f8181526101346020908152604091829020805460ff191685151590811790915591519182527f72a561d1af7409467dae4f1e9fc52590a9335a1dda17727e2b6aa8c4db35109b910161091d565b834211156112085760405162461bcd60e51b815260206004820152601d60248201527f4552433230566f7465733a207369676e617475726520657870697265640000006044820152606401610763565b604080517fe48329057bfd03d55e49b547132e39cffd9c1820ad7b9d4c5307691425d15adf60208201526001600160a01b0388169181019190915260608101869052608081018590525f90611281906112799060a00160405160208183030381529060405280519060200120611fa5565b858585611fd1565b905061128c81611ff7565b86146112da5760405162461bcd60e51b815260206004820152601960248201527f4552433230566f7465733a20696e76616c6964206e6f6e6365000000000000006044820152606401610763565b6112e48188611d44565b50505050505050565b8342111561133d5760405162461bcd60e51b815260206004820152601d60248201527f45524332305065726d69743a206578706972656420646561646c696e650000006044820152606401610763565b5f7f6e71edae12b1b97f4d1f60370fef10105fa2faae0126114a169c64845d6126c988888861136b8c611ff7565b6040805160208101969096526001600160a01b0394851690860152929091166060840152608083015260a082015260c0810186905260e0016040516020818303038152906040528051906020012090505f6113c582611fa5565b90505f6113d482878787611fd1565b9050896001600160a01b0316816001600160a01b0316146114375760405162461bcd60e51b815260206004820152601e60248201527f45524332305065726d69743a20696e76616c6964207369676e617475726500006044820152606401610763565b6114428a8a8a61181b565b50505050505050505050565b6001600160a01b039182165f90815260666020908152604080832093909416825291909152205490565b611482338261201e565b60405163a9059cbb60e01b8152336004820152602481018290527f00000000000000000000000000000000000000000000000000000000000000006001600160a01b03169063a9059cbb906044016020604051808303815f875af11580156114ec573d5f5f3e3d5ffd5b505050506040513d601f19601f8201168201806040525081019061151091906131d5565b610a035760405162461bcd60e51b8152602060048201526024808201527f456967656e2e756e777261703a2062454947454e207472616e736665722066616044820152631a5b195960e21b6064820152608401610763565b6040516323b872dd60e01b8152336004820152306024820152604481018290527f00000000000000000000000000000000000000000000000000000000000000006001600160a01b0316906323b872dd906064016020604051808303815f875af11580156115d8573d5f5f3e3d5ffd5b505050506040513d601f19601f820116820180604052508101906115fc91906131d5565b6116535760405162461bcd60e51b815260206004820152602260248201527f456967656e2e777261703a2062454947454e207472616e73666572206661696c604482015261195960f21b6064820152608401610763565b610a03338261193e565b6116656119d4565b5f1961013254146116f45760405162461bcd60e51b815260206004820152604d60248201527f456967656e2e64697361626c655472616e736665725265737472696374696f6e60448201527f733a207472616e73666572207265737472696374696f6e732061726520616c7260648201526c1958591e48191a5cd8589b1959609a1b608482015260a401610763565b5f6101328190556040517f2b18986d3ba809db2f13a5d7bf17f60d357b37d9cbb55dd71cbbac8dc4060f649190a1565b604080518082019091525f80825260208201526001600160a01b0383165f90815260ff60205260409020805463ffffffff8416908110611766576117666131c1565b5f9182526020918290206040805180820190915291015463ffffffff8116825264010000000090046001600160e01b0316918101919091529392505050565b6117ad6119d4565b6001600160a01b0381166118125760405162461bcd60e51b815260206004820152602660248201527f4f776e61626c653a206e6577206f776e657220697320746865207a65726f206160448201526564647265737360d01b6064820152608401610763565b610a0381611e25565b6001600160a01b03831661187d5760405162461bcd60e51b8152602060048201526024808201527f45524332303a20617070726f76652066726f6d20746865207a65726f206164646044820152637265737360e01b6064820152608401610763565b6001600160a01b0382166118de5760405162461bcd60e51b815260206004820152602260248201527f45524332303a20617070726f766520746f20746865207a65726f206164647265604482015261737360f01b6064820152608401610763565b6001600160a01b038381165f8181526066602090815260408083209487168084529482529182902085905590518481527f8c5be1e5ebec7d5bd14f71427d1e84f3dd0314c0f7b2291e5b200ac8c7c3b925910160405180910390a3505050565b6119488282612037565b6001600160e01b0361195861083b565b11156119bf5760405162461bcd60e51b815260206004820152603060248201527f4552433230566f7465733a20746f74616c20737570706c79207269736b73206f60448201526f766572666c6f77696e6720766f74657360801b6064820152608401610763565b6119ce61010061210883612113565b50505050565b6033546001600160a01b03163314610a385760405162461bcd60e51b815260206004820181905260248201527f4f776e61626c653a2063616c6c6572206973206e6f7420746865206f776e65726044820152606401610763565b5f611a39848461144e565b90505f1981146119ce5781811015611a935760405162461bcd60e51b815260206004820152601d60248201527f45524332303a20696e73756666696369656e7420616c6c6f77616e63650000006044820152606401610763565b6119ce848484840361181b565b6001600160a01b038316611b045760405162461bcd60e51b815260206004820152602560248201527f45524332303a207472616e736665722066726f6d20746865207a65726f206164604482015264647265737360d81b6064820152608401610763565b6001600160a01b038216611b665760405162461bcd60e51b815260206004820152602360248201527f45524332303a207472616e7366657220746f20746865207a65726f206164647260448201526265737360e81b6064820152608401610763565b611b7183838361227f565b6001600160a01b0383165f9081526065602052604090205481811015611be85760405162461bcd60e51b815260206004820152602660248201527f45524332303a207472616e7366657220616d6f756e7420657863656564732062604482015265616c616e636560d01b6064820152608401610763565b6001600160a01b038085165f8181526065602052604080822086860390559286168082529083902080548601905591517fddf252ad1be2c89b69c2b068fc378daa952ba7f163c4a11628f55a4df523b3ef90611c479086815260200190565b60405180910390a36119ce848484612363565b5f6108bc612394565b81545f9081816005811115611cba575f611c7c84612407565b611c8690856131f0565b5f88815260209020909150869082015463ffffffff161115611caa57809150611cb8565b611cb58160016131ae565b92505b505b80821015611d05575f611ccd83836124eb565b5f88815260209020909150869082015463ffffffff161115611cf157809150611cff565b611cfc8160016131ae565b92505b50611cba565b8015611d2f575f8681526020902081015f19015464010000000090046001600160e01b0316611d31565b5f5b6001600160e01b03169695505050505050565b6001600160a01b038281165f81815260fe6020818152604080842080546065845282862054949093528787166001600160a01b03198416811790915590519190951694919391928592917f3134e8a2e6d97e929a7e54011ea5485d7d196dd5f0ba4d4ef95803e8e3fc257f9190a46119ce828483612505565b5f63ffffffff821115611e215760405162461bcd60e51b815260206004820152602660248201527f53616665436173743a2076616c756520646f65736e27742066697420696e203360448201526532206269747360d01b6064820152608401610763565b5090565b603380546001600160a01b038381166001600160a01b0319831681179093556040519116919082907f8be0079c531659141344cd1fd0a4f28419497f9722a3daafe3b4186f6b6457e0905f90a35050565b60606099805461065990613151565b6060609a805461065990613151565b5f65ffffffffffff821115611e215760405162461bcd60e51b815260206004820152602660248201527f53616665436173743a2076616c756520646f65736e27742066697420696e203460448201526538206269747360d01b6064820152608401610763565b5f54610100900460ff16611f205760405162461bcd60e51b815260040161076390613203565b610a3861263f565b5f54610100900460ff16611f4e5760405162461bcd60e51b815260040161076390613203565b611f58828261266e565b5050565b5f54610100900460ff16611f825760405162461bcd60e51b815260040161076390613203565b610a0381604051806040016040528060018152602001603160f81b8152506126ad565b5f6106ed611fb1611c5a565b8360405161190160f01b8152600281019290925260228201526042902090565b5f5f5f611fe0878787876126fa565b91509150611fed816127b7565b5095945050505050565b6001600160a01b0381165f90815260cb602052604090208054600181018255905b50919050565b6120288282612900565b6119ce610100612a4383612113565b6001600160a01b03821661208d5760405162461bcd60e51b815260206004820152601f60248201527f45524332303a206d696e7420746f20746865207a65726f2061646472657373006044820152606401610763565b6120985f838361227f565b8060675f8282546120a991906131ae565b90915550506001600160a01b0382165f818152606560209081526040808320805486019055518481527fddf252ad1be2c89b69c2b068fc378daa952ba7f163c4a11628f55a4df523b3ef910160405180910390a3611f585f8383612363565b5f6109f282846131ae565b82545f90819081811561215d575f8781526020902082015f190160408051808201909152905463ffffffff8116825264010000000090046001600160e01b03166020820152612171565b604080518082019091525f80825260208201525b905080602001516001600160e01b0316935061219184868863ffffffff16565b92505f821180156121b957506121a5610b57565b65ffffffffffff16815f015163ffffffff16145b156121fc576121c783612a4e565b5f8881526020902083015f190180546001600160e01b03929092166401000000000263ffffffff909216919091179055612275565b866040518060400160405280612220612213610b57565b65ffffffffffff16611dbd565b63ffffffff16815260200161223486612a4e565b6001600160e01b0390811690915282546001810184555f938452602093849020835194909301519091166401000000000263ffffffff909316929092179101555b5050935093915050565b61013254421161235e576001600160a01b03831615806122a657506001600160a01b038216155b806122c957506001600160a01b0383165f908152610133602052604090205460ff165b806122ec57506001600160a01b0382165f908152610134602052604090205460ff165b61235e5760405162461bcd60e51b815260206004820152603a60248201527f456967656e2e5f6265666f7265546f6b656e5472616e736665723a2066726f6d60448201527f206f7220746f206d7573742062652077686974656c69737465640000000000006064820152608401610763565b505050565b6001600160a01b038381165f90815260fe602052604080822054858416835291205461235e92918216911683612505565b5f7f8b73c3c69bb8fe3d512ecc4cf759cc79239f7b179b0ffacaa9a75d522b39400f6123be612ab6565b6123c6612b0e565b60408051602081019490945283019190915260608201524660808201523060a082015260c00160405160208183030381529060405280519060200120905090565b5f815f0361241657505f919050565b5f600161242284612b3e565b901c6001901b9050600181848161243b5761243b61324e565b048201901c905060018184816124535761245361324e565b048201901c9050600181848161246b5761246b61324e565b048201901c905060018184816124835761248361324e565b048201901c9050600181848161249b5761249b61324e565b048201901c905060018184816124b3576124b361324e565b048201901c905060018184816124cb576124cb61324e565b048201901c90506109f2818285816124e5576124e561324e565b04612bd1565b5f6124f96002848418613262565b6109f2908484166131ae565b816001600160a01b0316836001600160a01b03161415801561252657505f81115b1561235e576001600160a01b038316156125b3576001600160a01b0383165f90815260ff60205260408120819061256090612a4385612113565b91509150846001600160a01b03167fdec2bacdd2f05b59de34da9b523dff8be42e5e38e818c82fdb0bae774387a72483836040516125a8929190918252602082015260400190565b60405180910390a250505b6001600160a01b0382161561235e576001600160a01b0382165f90815260ff6020526040812081906125e89061210885612113565b91509150836001600160a01b03167fdec2bacdd2f05b59de34da9b523dff8be42e5e38e818c82fdb0bae774387a7248383604051612630929190918252602082015260400190565b60405180910390a25050505050565b5f54610100900460ff166126655760405162461bcd60e51b815260040161076390613203565b610a3833611e25565b5f54610100900460ff166126945760405162461bcd60e51b815260040161076390613203565b60686126a083826132c5565b50606961235e82826132c5565b5f54610100900460ff166126d35760405162461bcd60e51b815260040161076390613203565b60996126df83826132c5565b50609a6126ec82826132c5565b50505f609781905560985550565b5f807f7fffffffffffffffffffffffffffffff5d576e7357a4501ddfe92f46681b20a083111561272f57505f905060036127ae565b604080515f8082526020820180845289905260ff881692820192909252606081018690526080810185905260019060a0016020604051602081039080840390855afa158015612780573d5f5f3e3d5ffd5b5050604051601f1901519150506001600160a01b0381166127a8575f600192509250506127ae565b91505f90505b94509492505050565b5f8160048111156127ca576127ca613380565b036127d25750565b60018160048111156127e6576127e6613380565b036128335760405162461bcd60e51b815260206004820152601860248201527f45434453413a20696e76616c6964207369676e617475726500000000000000006044820152606401610763565b600281600481111561284757612847613380565b036128945760405162461bcd60e51b815260206004820152601f60248201527f45434453413a20696e76616c6964207369676e6174757265206c656e677468006044820152606401610763565b60038160048111156128a8576128a8613380565b03610a035760405162461bcd60e51b815260206004820152602260248201527f45434453413a20696e76616c6964207369676e6174757265202773272076616c604482015261756560f01b6064820152608401610763565b6001600160a01b0382166129605760405162461bcd60e51b815260206004820152602160248201527f45524332303a206275726e2066726f6d20746865207a65726f206164647265736044820152607360f81b6064820152608401610763565b61296b825f8361227f565b6001600160a01b0382165f90815260656020526040902054818110156129de5760405162461bcd60e51b815260206004820152602260248201527f45524332303a206275726e20616d6f756e7420657863656564732062616c616e604482015261636560f01b6064820152608401610763565b6001600160a01b0383165f8181526065602090815260408083208686039055606780548790039055518581529192917fddf252ad1be2c89b69c2b068fc378daa952ba7f163c4a11628f55a4df523b3ef910160405180910390a361235e835f84612363565b5f6109f282846131f0565b5f6001600160e01b03821115611e215760405162461bcd60e51b815260206004820152602760248201527f53616665436173743a2076616c756520646f65736e27742066697420696e20326044820152663234206269747360c81b6064820152608401610763565b5f5f612ac0611e76565b805190915015612ad7578051602090910120919050565b6097548015612ae65792915050565b7fc5d2460186f7233c927e7db2dcc703c0e500b653ca82273b7bfad8045d85a4709250505090565b5f5f612b18611e85565b805190915015612b2f578051602090910120919050565b6098548015612ae65792915050565b5f80608083901c15612b5257608092831c92015b604083901c15612b6457604092831c92015b602083901c15612b7657602092831c92015b601083901c15612b8857601092831c92015b600883901c15612b9a57600892831c92015b600483901c15612bac57600492831c92015b600283901c15612bbe57600292831c92015b600183901c156106ed5760010192915050565b5f818310612bdf57816109f2565b5090919050565b80356001600160a01b0381168114612bfc575f5ffd5b919050565b5f60208284031215612c11575f5ffd5b6109f282612be6565b5f81518084528060208401602086015e5f602082860101526020601f19601f83011685010191505092915050565b602081525f6109f26020830184612c1a565b5f5f60408385031215612c6b575f5ffd5b612c7483612be6565b946020939093013593505050565b8015158114610a03575f5ffd5b5f5f60408385031215612ca0575f5ffd5b612ca983612be6565b91506020830135612cb981612c82565b809150509250929050565b5f5f5f60608486031215612cd6575f5ffd5b612cdf84612be6565b9250612ced60208501612be6565b929592945050506040919091013590565b60ff60f81b8816815260e060208201525f612d1c60e0830189612c1a565b8281036040840152612d2e8189612c1a565b606084018890526001600160a01b038716608085015260a0840186905283810360c0850152845180825260208087019350909101905f5b81811015612d83578351835260209384019390920191600101612d65565b50909b9a5050505050505050505050565b5f60208284031215612da4575f5ffd5b5035919050565b634e487b7160e01b5f52604160045260245ffd5b604051601f8201601f1916810167ffffffffffffffff81118282101715612de857612de8612dab565b604052919050565b5f67ffffffffffffffff821115612e0957612e09612dab565b5060051b60200190565b5f82601f830112612e22575f5ffd5b8135612e35612e3082612df0565b612dbf565b8082825260208201915060208360051b860101925085831115612e56575f5ffd5b602085015b83811015611fed578035835260209283019201612e5b565b5f5f5f5f60808587031215612e86575f5ffd5b612e8f85612be6565b9350602085013567ffffffffffffffff811115612eaa575f5ffd5b8501601f81018713612eba575f5ffd5b8035612ec8612e3082612df0565b8082825260208201915060208360051b850101925089831115612ee9575f5ffd5b6020840193505b82841015612f1257612f0184612be6565b825260209384019390910190612ef0565b9550505050604085013567ffffffffffffffff811115612f30575f5ffd5b612f3c87828801612e13565b925050606085013567ffffffffffffffff811115612f58575f5ffd5b612f6487828801612e13565b91505092959194509250565b5f5f83601f840112612f80575f5ffd5b50813567ffffffffffffffff811115612f97575f5ffd5b6020830191508360208260051b8501011115612fb1575f5ffd5b9250929050565b5f5f5f5f60408587031215612fcb575f5ffd5b843567ffffffffffffffff811115612fe1575f5ffd5b612fed87828801612f70565b909550935050602085013567ffffffffffffffff81111561300c575f5ffd5b61301887828801612f70565b95989497509550505050565b803560ff81168114612bfc575f5ffd5b5f5f5f5f5f5f60c08789031215613049575f5ffd5b61305287612be6565b9550602087013594506040870135935061306e60608801613024565b9598949750929560808101359460a0909101359350915050565b5f5f5f5f5f5f5f60e0888a03121561309e575f5ffd5b6130a788612be6565b96506130b560208901612be6565b955060408801359450606088013593506130d160808901613024565b9699959850939692959460a0840135945060c09093013592915050565b5f5f604083850312156130ff575f5ffd5b61310883612be6565b915061311660208401612be6565b90509250929050565b5f5f60408385031215613130575f5ffd5b61313983612be6565b9150602083013563ffffffff81168114612cb9575f5ffd5b600181811c9082168061316557607f821691505b60208210810361201857634e487b7160e01b5f52602260045260245ffd5b5f60208284031215613193575f5ffd5b5051919050565b634e487b7160e01b5f52601160045260245ffd5b808201808211156106ed576106ed61319a565b634e487b7160e01b5f52603260045260245ffd5b5f602082840312156131e5575f5ffd5b81516109f281612c82565b818103818111156106ed576106ed61319a565b6020808252602b908201527f496e697469616c697a61626c653a20636f6e7472616374206973206e6f74206960408201526a6e697469616c697a696e6760a81b606082015260800190565b634e487b7160e01b5f52601260045260245ffd5b5f8261327c57634e487b7160e01b5f52601260045260245ffd5b500490565b601f82111561235e57805f5260205f20601f840160051c810160208510156132a65750805b601f840160051c820191505b81811015611074575f81556001016132b2565b815167ffffffffffffffff8111156132df576132df612dab565b6132f3816132ed8454613151565b84613281565b6020601f821160018114613325575f831561330e5750848201515b5f19600385901b1c1916600184901b178455611074565b5f84815260208120601f198516915b828110156133545787850151825560209485019460019092019101613334565b508482101561337157868401515f19600387901b60f8161c191681555b50505050600190811b01905550565b634e487b7160e01b5f52602160045260245ffdfea2646970667358221220288064199d2be90b93729dff2dcc2497b661bd2af455c43da5f6db62c74e88c364736f6c634300081b0033","linkReferences":{}},"methodIdentifiers":{"CLOCK_MODE()":"4bf5d7e9","DOMAIN_SEPARATOR()":"3644e515","allowance(address,address)":"dd62ed3e","allowedFrom(address)":"0455e694","allowedTo(address)":"78aa33ba","approve(address,uint256)":"095ea7b3","bEIGEN()":"3f4da4c6","balanceOf(address)":"70a08231","checkpoints(address,uint32)":"f1127ed8","clock()":"91ddadf4","decimals()":"313ce567","decreaseAllowance(address,uint256)":"a457c2d7","delegate(address)":"5c19a95c","delegateBySig(address,uint256,uint256,uint8,bytes32,bytes32)":"c3cda520","delegates(address)":"587cde1e","disableTransferRestrictions()":"eb415f45","eip712Domain()":"84b0196e","getPastTotalSupply(uint256)":"8e539e8c","getPastVotes(address,uint256)":"3a46b1a8","getVotes(address)":"9ab24eb0","increaseAllowance(address,uint256)":"39509351","initialize(address,address[],uint256[],uint256[])":"a7d1195d","mint()":"1249c58b","mintAllowedAfter(address)":"53957125","mintingAllowance(address)":"81b97161","multisend(address[],uint256[])":"aad41a41","name()":"06fdde03","nonces(address)":"7ecebe00","numCheckpoints(address)":"6fcfff45","owner()":"8da5cb5b","permit(address,address,uint256,uint256,uint8,bytes32,bytes32)":"d505accf","renounceOwnership()":"715018a6","setAllowedFrom(address,bool)":"1ffacdef","setAllowedTo(address,bool)":"b8c25594","symbol()":"95d89b41","totalSupply()":"18160ddd","transfer(address,uint256)":"a9059cbb","transferFrom(address,address,uint256)":"23b872dd","transferOwnership(address)":"f2fde38b","transferRestrictionsDisabledAfter()":"9aec4bae","unwrap(uint256)":"de0e9a3e","wrap(uint256)":"ea598cb0"},"id":172}