{"abi":[{"type":"constructor","inputs":[{"name":"_ethPOS","type":"address","internalType":"contract IETHPOSDeposit"},{"name":"_eigenPodBeacon","type":"address","internalType":"contract IBeacon"},{"name":"_delegationManager","type":"address","internalType":"contract IDelegationManager"},{"name":"_pauserRegistry","type":"address","internalType":"contract IPauserRegistry"},{"name":"_version","type":"string","internalType":"string"}],"stateMutability":"nonpayable"},{"type":"function","name":"addShares","inputs":[{"name":"staker","type":"address","internalType":"address"},{"name":"strategy","type":"address","internalType":"contract IStrategy"},{"name":"shares","type":"uint256","internalType":"uint256"}],"outputs":[{"name":"","type":"uint256","internalType":"uint256"},{"name":"","type":"uint256","internalType":"uint256"}],"stateMutability":"nonpayable"},{"type":"function","name":"beaconChainETHStrategy","inputs":[],"outputs":[{"name":"","type":"address","internalType":"contract IStrategy"}],"stateMutability":"view"},{"type":"function","name":"beaconChainSlashingFactor","inputs":[{"name":"podOwner","type":"address","internalType":"address"}],"outputs":[{"name":"","type":"uint64","internalType":"uint64"}],"stateMutability":"view"},{"type":"function","name":"burnableETHShares","inputs":[],"outputs":[{"name":"","type":"uint256","internalType":"uint256"}],"stateMutability":"view"},{"type":"function","name":"createPod","inputs":[],"outputs":[{"name":"","type":"address","internalType":"address"}],"stateMutability":"nonpayable"},{"type":"function","name":"delegationManager","inputs":[],"outputs":[{"name":"","type":"address","internalType":"contract IDelegationManager"}],"stateMutability":"view"},{"type":"function","name":"eigenPodBeacon","inputs":[],"outputs":[{"name":"","type":"address","internalType":"contract IBeacon"}],"stateMutability":"view"},{"type":"function","name":"ethPOS","inputs":[],"outputs":[{"name":"","type":"address","internalType":"contract IETHPOSDeposit"}],"stateMutability":"view"},{"type":"function","name":"getPod","inputs":[{"name":"podOwner","type":"address","internalType":"address"}],"outputs":[{"name":"","type":"address","internalType":"contract IEigenPod"}],"stateMutability":"view"},{"type":"function","name":"hasPod","inputs":[{"name":"podOwner","type":"address","internalType":"address"}],"outputs":[{"name":"","type":"bool","internalType":"bool"}],"stateMutability":"view"},{"type":"function","name":"increaseBurnableShares","inputs":[{"name":"","type":"address","internalType":"contract IStrategy"},{"name":"addedSharesToBurn","type":"uint256","internalType":"uint256"}],"outputs":[],"stateMutability":"nonpayable"},{"type":"function","name":"initialize","inputs":[{"name":"initialOwner","type":"address","internalType":"address"},{"name":"_initPausedStatus","type":"uint256","internalType":"uint256"}],"outputs":[],"stateMutability":"nonpayable"},{"type":"function","name":"numPods","inputs":[],"outputs":[{"name":"","type":"uint256","internalType":"uint256"}],"stateMutability":"view"},{"type":"function","name":"owner","inputs":[],"outputs":[{"name":"","type":"address","internalType":"address"}],"stateMutability":"view"},{"type":"function","name":"ownerToPod","inputs":[{"name":"podOwner","type":"address","internalType":"address"}],"outputs":[{"name":"","type":"address","internalType":"contract IEigenPod"}],"stateMutability":"view"},{"type":"function","name":"pause","inputs":[{"name":"newPausedStatus","type":"uint256","internalType":"uint256"}],"outputs":[],"stateMutability":"nonpayable"},{"type":"function","name":"pauseAll","inputs":[],"outputs":[],"stateMutability":"nonpayable"},{"type":"function","name":"paused","inputs":[{"name":"index","type":"uint8","internalType":"uint8"}],"outputs":[{"name":"","type":"bool","internalType":"bool"}],"stateMutability":"view"},{"type":"function","name":"paused","inputs":[],"outputs":[{"name":"","type":"uint256","internalType":"uint256"}],"stateMutability":"view"},{"type":"function","name":"pauserRegistry","inputs":[],"outputs":[{"name":"","type":"address","internalType":"contract IPauserRegistry"}],"stateMutability":"view"},{"type":"function","name":"pectraForkTimestamp","inputs":[],"outputs":[{"name":"","type":"uint64","internalType":"uint64"}],"stateMutability":"view"},{"type":"function","name":"podOwnerDepositShares","inputs":[{"name":"podOwner","type":"address","internalType":"address"}],"outputs":[{"name":"shares","type":"int256","internalType":"int256"}],"stateMutability":"view"},{"type":"function","name":"proofTimestampSetter","inputs":[],"outputs":[{"name":"","type":"address","internalType":"address"}],"stateMutability":"view"},{"type":"function","name":"recordBeaconChainETHBalanceUpdate","inputs":[{"name":"podOwner","type":"address","internalType":"address"},{"name":"prevRestakedBalanceWei","type":"uint256","internalType":"uint256"},{"name":"balanceDeltaWei","type":"int256","internalType":"int256"}],"outputs":[],"stateMutability":"nonpayable"},{"type":"function","name":"removeDepositShares","inputs":[{"name":"staker","type":"address","internalType":"address"},{"name":"strategy","type":"address","internalType":"contract IStrategy"},{"name":"depositSharesToRemove","type":"uint256","internalType":"uint256"}],"outputs":[{"name":"","type":"uint256","internalType":"uint256"}],"stateMutability":"nonpayable"},{"type":"function","name":"renounceOwnership","inputs":[],"outputs":[],"stateMutability":"nonpayable"},{"type":"function","name":"setBeaconChainSlashingFactor","inputs":[{"name":"podOwner","type":"address","internalType":"address"},{"name":"slashingFactor","type":"uint64","internalType":"uint64"}],"outputs":[],"stateMutability":"nonpayable"},{"type":"function","name":"setPectraForkTimestamp","inputs":[{"name":"timestamp","type":"uint64","internalType":"uint64"}],"outputs":[],"stateMutability":"nonpayable"},{"type":"function","name":"setPodOwnerShares","inputs":[{"name":"owner","type":"address","internalType":"address"},{"name":"shares","type":"int256","internalType":"int256"}],"outputs":[],"stateMutability":"nonpayable"},{"type":"function","name":"setPodOwnerShares","inputs":[{"name":"owner","type":"address","internalType":"address"},{"name":"pod","type":"address","internalType":"contract IEigenPod"}],"outputs":[],"stateMutability":"nonpayable"},{"type":"function","name":"setProofTimestampSetter","inputs":[{"name":"newProofTimestampSetter","type":"address","internalType":"address"}],"outputs":[],"stateMutability":"nonpayable"},{"type":"function","name":"stake","inputs":[{"name":"pubkey","type":"bytes","internalType":"bytes"},{"name":"signature","type":"bytes","internalType":"bytes"},{"name":"depositDataRoot","type":"bytes32","internalType":"bytes32"}],"outputs":[],"stateMutability":"payable"},{"type":"function","name":"stakerDepositShares","inputs":[{"name":"user","type":"address","internalType":"address"},{"name":"strategy","type":"address","internalType":"contract IStrategy"}],"outputs":[{"name":"depositShares","type":"uint256","internalType":"uint256"}],"stateMutability":"view"},{"type":"function","name":"transferOwnership","inputs":[{"name":"newOwner","type":"address","internalType":"address"}],"outputs":[],"stateMutability":"nonpayable"},{"type":"function","name":"unpause","inputs":[{"name":"newPausedStatus","type":"uint256","internalType":"uint256"}],"outputs":[],"stateMutability":"nonpayable"},{"type":"function","name":"version","inputs":[],"outputs":[{"name":"","type":"string","internalType":"string"}],"stateMutability":"view"},{"type":"function","name":"withdrawSharesAsTokens","inputs":[{"name":"staker","type":"address","internalType":"address"},{"name":"strategy","type":"address","internalType":"contract IStrategy"},{"name":"","type":"address","internalType":"contract IERC20"},{"name":"shares","type":"uint256","internalType":"uint256"}],"outputs":[],"stateMutability":"nonpayable"},{"type":"event","name":"BeaconChainETHDeposited","inputs":[{"name":"podOwner","type":"address","indexed":true,"internalType":"address"},{"name":"amount","type":"uint256","indexed":false,"internalType":"uint256"}],"anonymous":false},{"type":"event","name":"BeaconChainETHWithdrawalCompleted","inputs":[{"name":"podOwner","type":"address","indexed":true,"internalType":"address"},{"name":"shares","type":"uint256","indexed":false,"internalType":"uint256"},{"name":"nonce","type":"uint96","indexed":false,"internalType":"uint96"},{"name":"delegatedAddress","type":"address","indexed":false,"internalType":"address"},{"name":"withdrawer","type":"address","indexed":false,"internalType":"address"},{"name":"withdrawalRoot","type":"bytes32","indexed":false,"internalType":"bytes32"}],"anonymous":false},{"type":"event","name":"BeaconChainSlashingFactorDecreased","inputs":[{"name":"staker","type":"address","indexed":false,"internalType":"address"},{"name":"prevBeaconChainSlashingFactor","type":"uint64","indexed":false,"internalType":"uint64"},{"name":"newBeaconChainSlashingFactor","type":"uint64","indexed":false,"internalType":"uint64"}],"anonymous":false},{"type":"event","name":"BurnableETHSharesIncreased","inputs":[{"name":"shares","type":"uint256","indexed":false,"internalType":"uint256"}],"anonymous":false},{"type":"event","name":"Initialized","inputs":[{"name":"version","type":"uint8","indexed":false,"internalType":"uint8"}],"anonymous":false},{"type":"event","name":"NewTotalShares","inputs":[{"name":"podOwner","type":"address","indexed":true,"internalType":"address"},{"name":"newTotalShares","type":"int256","indexed":false,"internalType":"int256"}],"anonymous":false},{"type":"event","name":"OwnershipTransferred","inputs":[{"name":"previousOwner","type":"address","indexed":true,"internalType":"address"},{"name":"newOwner","type":"address","indexed":true,"internalType":"address"}],"anonymous":false},{"type":"event","name":"Paused","inputs":[{"name":"account","type":"address","indexed":true,"internalType":"address"},{"name":"newPausedStatus","type":"uint256","indexed":false,"internalType":"uint256"}],"anonymous":false},{"type":"event","name":"PectraForkTimestampSet","inputs":[{"name":"newPectraForkTimestamp","type":"uint64","indexed":false,"internalType":"uint64"}],"anonymous":false},{"type":"event","name":"PodDeployed","inputs":[{"name":"eigenPod","type":"address","indexed":true,"internalType":"address"},{"name":"podOwner","type":"address","indexed":true,"internalType":"address"}],"anonymous":false},{"type":"event","name":"PodSharesUpdated","inputs":[{"name":"podOwner","type":"address","indexed":true,"internalType":"address"},{"name":"sharesDelta","type":"int256","indexed":false,"internalType":"int256"}],"anonymous":false},{"type":"event","name":"ProofTimestampSetterSet","inputs":[{"name":"newProofTimestampSetter","type":"address","indexed":false,"internalType":"address"}],"anonymous":false},{"type":"event","name":"Unpaused","inputs":[{"name":"account","type":"address","indexed":true,"internalType":"address"},{"name":"newPausedStatus","type":"uint256","indexed":false,"internalType":"uint256"}],"anonymous":false},{"type":"error","name":"CurrentlyPaused","inputs":[]},{"type":"error","name":"EigenPodAlreadyExists","inputs":[]},{"type":"error","name":"InputAddressZero","inputs":[]},{"type":"error","name":"InvalidNewPausedStatus","inputs":[]},{"type":"error","name":"InvalidShortString","inputs":[]},{"type":"error","name":"InvalidStrategy","inputs":[]},{"type":"error","name":"LegacyWithdrawalsNotCompleted","inputs":[]},{"type":"error","name":"OnlyDelegationManager","inputs":[]},{"type":"error","name":"OnlyEigenPod","inputs":[]},{"type":"error","name":"OnlyPauser","inputs":[]},{"type":"error","name":"OnlyProofTimestampSetter","inputs":[]},{"type":"error","name":"OnlyUnpauser","inputs":[]},{"type":"error","name":"SharesNegative","inputs":[]},{"type":"error","name":"SharesNotMultipleOfGwei","inputs":[]},{"type":"error","name":"StringTooLong","inputs":[{"name":"str","type":"string","internalType":"string"}]}],"bytecode":{"object":"0x610120604052348015610010575f5ffd5b5060405161304938038061304983398101604081905261002f916101cc565b848484848480858585856001600160a01b038116610060576040516339b190bb60e11b815260040160405180910390fd5b6001600160a01b0390811660805292831660a05290821660c0521660e052610087816100a3565b61010052506100946100e9565b50505050505050505050610324565b5f5f829050601f815111156100d6578260405163305a27a960e01b81526004016100cd91906102c9565b60405180910390fd5b80516100e1826102fe565b179392505050565b5f54610100900460ff16156101505760405162461bcd60e51b815260206004820152602760248201527f496e697469616c697a61626c653a20636f6e747261637420697320696e697469604482015266616c697a696e6760c81b60648201526084016100cd565b5f5460ff9081161461019f575f805460ff191660ff9081179091556040519081527f7f26b83ff96e1f2b6a682f133852f6798a09c465da95921460cefb38474024989060200160405180910390a15b565b6001600160a01b03811681146101b5575f5ffd5b50565b634e487b7160e01b5f52604160045260245ffd5b5f5f5f5f5f60a086880312156101e0575f5ffd5b85516101eb816101a1565b60208701519095506101fc816101a1565b604087015190945061020d816101a1565b606087015190935061021e816101a1565b60808701519092506001600160401b03811115610239575f5ffd5b8601601f81018813610249575f5ffd5b80516001600160401b03811115610262576102626101b8565b604051601f8201601f19908116603f011681016001600160401b0381118282101715610290576102906101b8565b6040528181528282016020018a10156102a7575f5ffd5b8160208401602083015e5f602083830101528093505050509295509295909350565b602081525f82518060208401528060208501604085015e5f604082850101526040601f19601f83011684010191505092915050565b8051602080830151919081101561031e575f198160200360031b1b821691505b50919050565b60805160a05160c05160e05161010051612c9b6103ae5f395f610c3a01525f818161072b0152818161093501528181610b9001528181610db5015281816111660152818161121a01526114ad01525f81816102aa015281816112b00152611a5f01525f61048001525f818161054b0152818161086a01528181610c7801526115c10152612c9b5ff3fe608060405260043610610212575f3560e01c8063886f11951161011e578063cd6dc687116100a8578063f2fde38b1161006d578063f2fde38b1461074d578063f5d4fed31461076c578063f6848d2414610781578063fabc1cbc146107ba578063fe243a17146107d9575f5ffd5b8063cd6dc6871461066a578063d48e889414610689578063d7fd8a57146106b4578063debe1eab146106fb578063ea4d3c9b1461071a575f5ffd5b80639ba06275116100ee5780639ba06275146105c4578063a1ca780b146105f8578063a38406a314610617578063a3d75e0914610636578063a6a509be14610655575f5ffd5b8063886f11951461053a5780638da5cb5b1461056d5780639104c3191461058a5780639b4e4634146105b1575f5ffd5b8063595edbcb1161019f578063715018a61161016f578063715018a61461043c578063724af4231461045057806374cdd7981461046f57806380852b02146104a257806384d8106214610526575f5ffd5b8063595edbcb146103a15780635a26fbf4146103c05780635ac86ab7146103df5780635c975abb1461041e575f5ffd5b80632eae418c116101e55780632eae418c146102e45780633a591f081461030357806350ff72251461033857806354fd4d501461036c578063595c6a671461038d575f5ffd5b80630d1e9de114610216578063136439dd146102375780632704351a14610256578063292b7b2b14610299575b5f5ffd5b348015610221575f5ffd5b50610235610230366004611ec3565b6107f8565b005b348015610242575f5ffd5b50610235610251366004611ede565b610855565b348015610261575f5ffd5b50609f5461027c90600160a01b90046001600160401b031681565b6040516001600160401b0390911681526020015b60405180910390f35b3480156102a4575f5ffd5b506102cc7f000000000000000000000000000000000000000000000000000000000000000081565b6040516001600160a01b039091168152602001610290565b3480156102ef575f5ffd5b506102356102fe366004611ef5565b61092a565b34801561030e575f5ffd5b5061023561031d366004611f43565b6001600160a01b039091165f908152609b6020526040902055565b348015610343575f5ffd5b50610357610352366004611f6d565b610b83565b60408051928352602083019190915201610290565b348015610377575f5ffd5b50610380610c33565b6040516102909190611fab565b348015610398575f5ffd5b50610235610c63565b3480156103ac575f5ffd5b50609f546102cc906001600160a01b031681565b3480156103cb575f5ffd5b506102356103da366004611ffb565b610d12565b3480156103ea575f5ffd5b5061040e6103f9366004612014565b606654600160ff9092169190911b9081161490565b6040519015158152602001610290565b348015610429575f5ffd5b506066545b604051908152602001610290565b348015610447575f5ffd5b50610235610d98565b34801561045b575f5ffd5b5061042e61046a366004611f6d565b610da9565b34801561047a575f5ffd5b506102cc7f000000000000000000000000000000000000000000000000000000000000000081565b3480156104ad575f5ffd5b506102356104bc366004612034565b604080518082018252600181526001600160401b0392831660208083019182526001600160a01b03959095165f908152609d9095529190932092518354915168ffffffffffffffffff1990921690151568ffffffffffffffff001916176101009190921602179055565b348015610531575f5ffd5b506102cc610ee5565b348015610545575f5ffd5b506102cc7f000000000000000000000000000000000000000000000000000000000000000081565b348015610578575f5ffd5b506033546001600160a01b03166102cc565b348015610595575f5ffd5b506102cc73beac0eeeeeeeeeeeeeeeeeeeeeeeeeeeeeebeac081565b6102356105bf3660046120a4565b610f67565b3480156105cf575f5ffd5b506102cc6105de366004611ec3565b60986020525f90815260409020546001600160a01b031681565b348015610603575f5ffd5b50610235610612366004612115565b611036565b348015610622575f5ffd5b506102cc610631366004611ec3565b611256565b348015610641575f5ffd5b5061027c610650366004611ec3565b611327565b348015610660575f5ffd5b5061042e60995481565b348015610675575f5ffd5b50610235610684366004611f43565b611386565b348015610694575f5ffd5b5061042e6106a3366004611ec3565b609b6020525f908152604090205481565b3480156106bf575f5ffd5b506102356106ce366004612147565b6001600160a01b039182165f90815260986020526040902080546001600160a01b03191691909216179055565b348015610706575f5ffd5b50610235610715366004611f43565b6114a2565b348015610725575f5ffd5b506102cc7f000000000000000000000000000000000000000000000000000000000000000081565b348015610758575f5ffd5b50610235610767366004611ec3565b611546565b348015610777575f5ffd5b5061042e609e5481565b34801561078c575f5ffd5b5061040e61079b366004611ec3565b6001600160a01b039081165f9081526098602052604090205416151590565b3480156107c5575f5ffd5b506102356107d4366004611ede565b6115bf565b3480156107e4575f5ffd5b5061042e6107f3366004612147565b6116d5565b610800611755565b609f80546001600160a01b0319166001600160a01b0383169081179091556040519081527f7025c71a9fe60d709e71b377dc5f7c72c3e1d8539f8022574254e736ceca01e5906020015b60405180910390a150565b60405163237dfb4760e11b81523360048201527f00000000000000000000000000000000000000000000000000000000000000006001600160a01b0316906346fbf68e90602401602060405180830381865afa1580156108b7573d5f5f3e3d5ffd5b505050506040513d601f19601f820116820180604052508101906108db919061217e565b6108f857604051631d77d47760e21b815260040160405180910390fd5b606654818116811461091d5760405163c61dca5d60e01b815260040160405180910390fd5b610926826117af565b5050565b336001600160a01b037f000000000000000000000000000000000000000000000000000000000000000016146109735760405163f739589b60e01b815260040160405180910390fd5b61097b6117ec565b6001600160a01b03831673beac0eeeeeeeeeeeeeeeeeeeeeeeeeeeeeebeac0146109b857604051632711b74d60e11b815260040160405180910390fd5b6001600160a01b0384166109df576040516339b190bb60e11b815260040160405180910390fd5b5f81136109ff5760405163ef147de160e01b815260040160405180910390fd5b6001600160a01b0384165f908152609b6020526040812054908290821215610af9575f610a2b836121b1565b90505f81851115610a49575080610a4281866121cb565b9250610a4f565b505f9150835b5f610a5a82866121de565b6001600160a01b038a165f818152609b60205260409081902083905551919250907f4e2b791dedccd9fb30141b088cabf5c14a8912b52f59375c95c010700b8c619390610aaa9085815260200190565b60405180910390a2886001600160a01b03167fd4def76d6d2bed6f14d5cd9af73cc2913d618d00edde42432e81c09bfe07709882604051610aed91815260200190565b60405180910390a25050505b8015610b71576001600160a01b038681165f81815260986020526040908190205490516362483a2160e11b81526004810192909252602482018490529091169063c4907442906044015b5f604051808303815f87803b158015610b5a575f5ffd5b505af1158015610b6c573d5f5f3e3d5ffd5b505050505b5050610b7d600160c955565b50505050565b5f80336001600160a01b037f00000000000000000000000000000000000000000000000000000000000000001614610bce5760405163f739589b60e01b815260040160405180910390fd5b610bd66117ec565b6001600160a01b03841673beac0eeeeeeeeeeeeeeeeeeeeeeeeeeeeeebeac014610c1357604051632711b74d60e11b815260040160405180910390fd5b610c1d8584611845565b91509150610c2b600160c955565b935093915050565b6060610c5e7f000000000000000000000000000000000000000000000000000000000000000061198c565b905090565b60405163237dfb4760e11b81523360048201527f00000000000000000000000000000000000000000000000000000000000000006001600160a01b0316906346fbf68e90602401602060405180830381865afa158015610cc5573d5f5f3e3d5ffd5b505050506040513d601f19601f82011682018060405250810190610ce9919061217e565b610d0657604051631d77d47760e21b815260040160405180910390fd5b610d105f196117af565b565b609f546001600160a01b03163314610d3d57604051630986113760e41b815260040160405180910390fd5b609f805467ffffffffffffffff60a01b1916600160a01b6001600160401b038416908102919091179091556040519081527f1bc8f042a52db3a437620dea4548f2031fb2a16dd8d3b0b854295528dd2cdd339060200161084a565b610da0611755565b610d105f6119c9565b5f336001600160a01b037f00000000000000000000000000000000000000000000000000000000000000001614610df35760405163f739589b60e01b815260040160405180910390fd5b610dfb6117ec565b6001600160a01b03831673beac0eeeeeeeeeeeeeeeeeeeeeeeeeeeeeebeac014610e3857604051632711b74d60e11b815260040160405180910390fd5b6001600160a01b0384165f908152609b6020526040812054610e5b908490612205565b90505f811215610e7e5760405163ef147de160e01b815260040160405180910390fd5b6001600160a01b0385165f818152609b602052604090819020839055517fd4def76d6d2bed6f14d5cd9af73cc2913d618d00edde42432e81c09bfe07709890610eca9084815260200190565b60405180910390a29050610ede600160c955565b9392505050565b6066545f908190600190811603610f0f5760405163840a48d560e01b815260040160405180910390fd5b610f176117ec565b335f908152609860205260409020546001600160a01b031615610f4d5760405163031a852160e21b815260040160405180910390fd5b5f610f56611a1a565b925050610f63600160c955565b5090565b6066545f90600190811603610f8f5760405163840a48d560e01b815260040160405180910390fd5b610f976117ec565b335f908152609860205260409020546001600160a01b031680610fbf57610fbc611a1a565b90505b6040516326d3918d60e21b81526001600160a01b03821690639b4e4634903490610ff5908b908b908b908b908b90600401612253565b5f604051808303818588803b15801561100c575f5ffd5b505af115801561101e573d5f5f3e3d5ffd5b50505050505061102e600160c955565b505050505050565b6001600160a01b038084165f908152609860205260409020548491163314611071576040516312e16d7160e11b815260040160405180910390fd5b6110796117ec565b6001600160a01b0384166110a0576040516339b190bb60e11b815260040160405180910390fd5b6110ae633b9aca00836122a0565b156110cc576040516347d072bb60e11b815260040160405180910390fd5b6001600160a01b0384165f908152609b60205260408120549081121561110557604051634b692bcf60e01b815260040160405180910390fd5b5f8313156111c6575f5f6111198786611845565b604051631e328e7960e11b81526001600160a01b038a8116600483015273beac0eeeeeeeeeeeeeeeeeeeeeeeeeeeeeebeac0602483015260448201849052606482018390529294509092507f000000000000000000000000000000000000000000000000000000000000000090911690633c651cf2906084015f604051808303815f87803b1580156111a9575f5ffd5b505af11580156111bb573d5f5f3e3d5ffd5b50505050505061124b565b5f83121561124b575f6111e286866111dd876121b1565b611b75565b60405163305068e760e11b81526001600160a01b038881166004830152602482018590526001600160401b03831660448301529192507f0000000000000000000000000000000000000000000000000000000000000000909116906360a0d1ce90606401610b43565b50610b7d600160c955565b6001600160a01b038082165f90815260986020526040812054909116806113215761131e836001600160a01b03165f1b60405180610940016040528061090e815260200161235861090e9139604080516001600160a01b037f0000000000000000000000000000000000000000000000000000000000000000166020820152808201919091525f606082015260800160408051601f198184030181529082905261130392916020016122d6565b60405160208183030381529060405280519060200120611c6c565b90505b92915050565b6001600160a01b0381165f908152609d6020908152604080832081518083019092525460ff811615158083526101009091046001600160401b0316928201929092529061137c57670de0b6b3a7640000610ede565b6020015192915050565b5f54610100900460ff16158080156113a457505f54600160ff909116105b806113bd5750303b1580156113bd57505f5460ff166001145b6114255760405162461bcd60e51b815260206004820152602e60248201527f496e697469616c697a61626c653a20636f6e747261637420697320616c72656160448201526d191e481a5b9a5d1a585b1a5e995960921b60648201526084015b60405180910390fd5b5f805460ff191660011790558015611446575f805461ff0019166101001790555b61144f836119c9565b611458826117af565b801561149d575f805461ff0019169055604051600181527f7f26b83ff96e1f2b6a682f133852f6798a09c465da95921460cefb38474024989060200160405180910390a15b505050565b336001600160a01b037f000000000000000000000000000000000000000000000000000000000000000016146114eb5760405163f739589b60e01b815260040160405180910390fd5b6114f36117ec565b80609e5f82825461150491906122f2565b90915550506040518181527f1ed04b7fd262c0d9e50fa02957f32a81a151f03baaa367faeedc7521b001c4a49060200160405180910390a1610926600160c955565b61154e611755565b6001600160a01b0381166115b35760405162461bcd60e51b815260206004820152602660248201527f4f776e61626c653a206e6577206f776e657220697320746865207a65726f206160448201526564647265737360d01b606482015260840161141c565b6115bc816119c9565b50565b7f00000000000000000000000000000000000000000000000000000000000000006001600160a01b031663eab66d7a6040518163ffffffff1660e01b8152600401602060405180830381865afa15801561161b573d5f5f3e3d5ffd5b505050506040513d601f19601f8201168201806040525081019061163f9190612305565b6001600160a01b0316336001600160a01b0316146116705760405163794821ff60e01b815260040160405180910390fd5b606654801982198116146116975760405163c61dca5d60e01b815260040160405180910390fd5b606682905560405182815233907f3582d1828e26bf56bd801502bc021ac0bc8afb57c826e4986b45593c8fad389c9060200160405180910390a25050565b5f6001600160a01b03821673beac0eeeeeeeeeeeeeeeeeeeeeeeeeeeeeebeac01461171357604051632711b74d60e11b815260040160405180910390fd5b6001600160a01b0383165f908152609b60205260408120541261174d576001600160a01b0383165f908152609b602052604090205461131e565b505f92915050565b6033546001600160a01b03163314610d105760405162461bcd60e51b815260206004820181905260248201527f4f776e61626c653a2063616c6c6572206973206e6f7420746865206f776e6572604482015260640161141c565b606681905560405181815233907fab40a374bc51de372200a8bc981af8c9ecdc08dfdaef0bb6e09f88f3c616ef3d9060200160405180910390a250565b600260c9540361183e5760405162461bcd60e51b815260206004820152601f60248201527f5265656e7472616e637947756172643a207265656e7472616e742063616c6c00604482015260640161141c565b600260c955565b5f806001600160a01b03841661186e576040516339b190bb60e11b815260040160405180910390fd5b5f83121561188f5760405163ef147de160e01b815260040160405180910390fd5b6001600160a01b0384165f908152609b602052604081205484916118b383836121de565b6001600160a01b0388165f818152609b60205260409081902083905551919250907f4e2b791dedccd9fb30141b088cabf5c14a8912b52f59375c95c010700b8c6193906119039086815260200190565b60405180910390a2866001600160a01b03167fd4def76d6d2bed6f14d5cd9af73cc2913d618d00edde42432e81c09bfe0770988260405161194691815260200190565b60405180910390a25f8113611963575f5f94509450505050611985565b5f821215611978575f94509250611985915050565b5092508391506119859050565b9250929050565b60605f61199883611c78565b6040805160208082528183019092529192505f91906020820181803683375050509182525060208101929092525090565b603380546001600160a01b038381166001600160a01b0319831681179093556040519116919082907f8be0079c531659141344cd1fd0a4f28419497f9722a3daafe3b4186f6b6457e0905f90a35050565b5f60995f8154611a2990612320565b9091555060408051610940810190915261090e8082525f91611ac691839133916123586020830139604080516001600160a01b037f0000000000000000000000000000000000000000000000000000000000000000166020820152808201919091525f606082015260800160408051601f1981840301815290829052611ab292916020016122d6565b604051602081830303815290604052611c9f565b60405163189acdbd60e31b81523360048201529091506001600160a01b0382169063c4d66de8906024015f604051808303815f87803b158015611b07575f5ffd5b505af1158015611b19573d5f5f3e3d5ffd5b5050335f8181526098602052604080822080546001600160a01b0319166001600160a01b038816908117909155905192945092507f21c99d0db02213c32fff5b05cf0a718ab5f858802b91498f80d82270289d856a91a3919050565b5f80611b8183856121cb565b90505f611b8d86611327565b90505f611ba46001600160401b0383168488611da1565b90505f611bb18284612338565b604080518082018252600181526001600160401b0385811660208084018281526001600160a01b038f165f818152609d845287902095518654925168ffffffffffffffffff1990931690151568ffffffffffffffff001916176101009286169290920291909117909455845193845291881691830191909152918101919091529091507fb160ab8589bf47dc04ea11b50d46678d21590cea2ed3e454e7bd3e41510f98cf9060600160405180910390a1979650505050505050565b5f61131e838330611e86565b5f60ff8216601f81111561132157604051632cd44ac360e21b815260040160405180910390fd5b5f83471015611cf05760405162461bcd60e51b815260206004820152601d60248201527f437265617465323a20696e73756666696369656e742062616c616e6365000000604482015260640161141c565b81515f03611d405760405162461bcd60e51b815260206004820181905260248201527f437265617465323a2062797465636f6465206c656e677468206973207a65726f604482015260640161141c565b8282516020840186f590506001600160a01b038116610ede5760405162461bcd60e51b815260206004820152601960248201527f437265617465323a204661696c6564206f6e206465706c6f7900000000000000604482015260640161141c565b5f80805f19858709858702925082811083820303915050805f03611dd857838281611dce57611dce61228c565b0492505050610ede565b808411611e1f5760405162461bcd60e51b81526020600482015260156024820152744d6174683a206d756c446976206f766572666c6f7760581b604482015260640161141c565b5f8486880960026001871981018816978890046003810283188082028403028082028403028082028403028082028403028082028403029081029092039091025f889003889004909101858311909403939093029303949094049190911702949350505050565b5f604051836040820152846020820152828152600b8101905060ff815360559020949350505050565b6001600160a01b03811681146115bc575f5ffd5b5f60208284031215611ed3575f5ffd5b8135610ede81611eaf565b5f60208284031215611eee575f5ffd5b5035919050565b5f5f5f5f60808587031215611f08575f5ffd5b8435611f1381611eaf565b93506020850135611f2381611eaf565b92506040850135611f3381611eaf565b9396929550929360600135925050565b5f5f60408385031215611f54575f5ffd5b8235611f5f81611eaf565b946020939093013593505050565b5f5f5f60608486031215611f7f575f5ffd5b8335611f8a81611eaf565b92506020840135611f9a81611eaf565b929592945050506040919091013590565b602081525f82518060208401528060208501604085015e5f604082850101526040601f19601f83011684010191505092915050565b80356001600160401b0381168114611ff6575f5ffd5b919050565b5f6020828403121561200b575f5ffd5b61131e82611fe0565b5f60208284031215612024575f5ffd5b813560ff81168114610ede575f5ffd5b5f5f60408385031215612045575f5ffd5b823561205081611eaf565b915061205e60208401611fe0565b90509250929050565b5f5f83601f840112612077575f5ffd5b5081356001600160401b0381111561208d575f5ffd5b602083019150836020828501011115611985575f5ffd5b5f5f5f5f5f606086880312156120b8575f5ffd5b85356001600160401b038111156120cd575f5ffd5b6120d988828901612067565b90965094505060208601356001600160401b038111156120f7575f5ffd5b61210388828901612067565b96999598509660400135949350505050565b5f5f5f60608486031215612127575f5ffd5b833561213281611eaf565b95602085013595506040909401359392505050565b5f5f60408385031215612158575f5ffd5b823561216381611eaf565b9150602083013561217381611eaf565b809150509250929050565b5f6020828403121561218e575f5ffd5b81518015158114610ede575f5ffd5b634e487b7160e01b5f52601160045260245ffd5b5f600160ff1b82016121c5576121c561219d565b505f0390565b818103818111156113215761132161219d565b8082018281125f8312801582168215821617156121fd576121fd61219d565b505092915050565b8181035f8312801583831316838312821617156122245761222461219d565b5092915050565b81835281816020850137505f828201602090810191909152601f909101601f19169091010190565b606081525f61226660608301878961222b565b828103602084015261227981868861222b565b9150508260408301529695505050505050565b634e487b7160e01b5f52601260045260245ffd5b5f826122ba57634e487b7160e01b5f52601260045260245ffd5b500790565b5f81518060208401855e5f93019283525090919050565b5f6122ea6122e483866122bf565b846122bf565b949350505050565b808201808211156113215761132161219d565b5f60208284031215612315575f5ffd5b8151610ede81611eaf565b5f600182016123315761233161219d565b5060010190565b6001600160401b0382811682821603908111156113215761132161219d56fe608060405260405161090e38038061090e83398101604081905261002291610460565b61002e82826000610035565b505061058a565b61003e83610100565b6040516001600160a01b038416907f1cf3b03a6cf19fa2baba4df148e9dcabedea7f8a5c07840e207e5c089be95d3e90600090a260008251118061007f5750805b156100fb576100f9836001600160a01b0316635c60da1b6040518163ffffffff1660e01b8152600401602060405180830381865afa1580156100c5573d6000803e3d6000fd5b505050506040513d601f19601f820116820180604052508101906100e99190610520565b836102a360201b6100291760201c565b505b505050565b610113816102cf60201b6100551760201c565b6101725760405162461bcd60e51b815260206004820152602560248201527f455243313936373a206e657720626561636f6e206973206e6f74206120636f6e6044820152641d1c9858dd60da1b60648201526084015b60405180910390fd5b6101e6816001600160a01b0316635c60da1b6040518163ffffffff1660e01b8152600401602060405180830381865afa1580156101b3573d6000803e3d6000fd5b505050506040513d601f19601f820116820180604052508101906101d79190610520565b6102cf60201b6100551760201c565b61024b5760405162461bcd60e51b815260206004820152603060248201527f455243313936373a20626561636f6e20696d706c656d656e746174696f6e206960448201526f1cc81b9bdd08184818dbdb9d1c9858dd60821b6064820152608401610169565b806102827fa3f0ad74e5423aebfd80d3ef4346578335a9a72aeaee59ff6cb3582b35133d5060001b6102de60201b6100641760201c565b80546001600160a01b0319166001600160a01b039290921691909117905550565b60606102c883836040518060600160405280602781526020016108e7602791396102e1565b9392505050565b6001600160a01b03163b151590565b90565b6060600080856001600160a01b0316856040516102fe919061053b565b600060405180830381855af49150503d8060008114610339576040519150601f19603f3d011682016040523d82523d6000602084013e61033e565b606091505b5090925090506103508683838761035a565b9695505050505050565b606083156103c65782516103bf576001600160a01b0385163b6103bf5760405162461bcd60e51b815260206004820152601d60248201527f416464726573733a2063616c6c20746f206e6f6e2d636f6e74726163740000006044820152606401610169565b50816103d0565b6103d083836103d8565b949350505050565b8151156103e85781518083602001fd5b8060405162461bcd60e51b81526004016101699190610557565b80516001600160a01b038116811461041957600080fd5b919050565b634e487b7160e01b600052604160045260246000fd5b60005b8381101561044f578181015183820152602001610437565b838111156100f95750506000910152565b6000806040838503121561047357600080fd5b61047c83610402565b60208401519092506001600160401b038082111561049957600080fd5b818501915085601f8301126104ad57600080fd5b8151818111156104bf576104bf61041e565b604051601f8201601f19908116603f011681019083821181831017156104e7576104e761041e565b8160405282815288602084870101111561050057600080fd5b610511836020830160208801610434565b80955050505050509250929050565b60006020828403121561053257600080fd5b6102c882610402565b6000825161054d818460208701610434565b9190910192915050565b6020815260008251806020840152610576816040850160208701610434565b601f01601f19169190910160400192915050565b61034e806105996000396000f3fe60806040523661001357610011610017565b005b6100115b610027610022610067565b610100565b565b606061004e83836040518060600160405280602781526020016102f260279139610124565b9392505050565b6001600160a01b03163b151590565b90565b600061009a7fa3f0ad74e5423aebfd80d3ef4346578335a9a72aeaee59ff6cb3582b35133d50546001600160a01b031690565b6001600160a01b0316635c60da1b6040518163ffffffff1660e01b8152600401602060405180830381865afa1580156100d7573d6000803e3d6000fd5b505050506040513d601f19601f820116820180604052508101906100fb9190610249565b905090565b3660008037600080366000845af43d6000803e80801561011f573d6000f35b3d6000fd5b6060600080856001600160a01b03168560405161014191906102a2565b600060405180830381855af49150503d806000811461017c576040519150601f19603f3d011682016040523d82523d6000602084013e610181565b606091505b50915091506101928683838761019c565b9695505050505050565b6060831561020d578251610206576001600160a01b0385163b6102065760405162461bcd60e51b815260206004820152601d60248201527f416464726573733a2063616c6c20746f206e6f6e2d636f6e747261637400000060448201526064015b60405180910390fd5b5081610217565b610217838361021f565b949350505050565b81511561022f5781518083602001fd5b8060405162461bcd60e51b81526004016101fd91906102be565b60006020828403121561025b57600080fd5b81516001600160a01b038116811461004e57600080fd5b60005b8381101561028d578181015183820152602001610275565b8381111561029c576000848401525b50505050565b600082516102b4818460208701610272565b9190910192915050565b60208152600082518060208401526102dd816040850160208701610272565b601f01601f1916919091016040019291505056fe416464726573733a206c6f772d6c6576656c2064656c65676174652063616c6c206661696c6564a2646970667358221220d51e81d3bc5ed20a26aeb05dce7e825c503b2061aa78628027300c8d65b9d89a64736f6c634300080c0033416464726573733a206c6f772d6c6576656c2064656c65676174652063616c6c206661696c6564a264697066735822122080a38af3a22e3400aad0deaa27231ff14417f0d21387ee140c844519ce056a2364736f6c634300081b0033","linkReferences":{}},"methodIdentifiers":{"addShares(address,address,uint256)":"50ff7225","beaconChainETHStrategy()":"9104c319","beaconChainSlashingFactor(address)":"a3d75e09","burnableETHShares()":"f5d4fed3","createPod()":"84d81062","delegationManager()":"ea4d3c9b","eigenPodBeacon()":"292b7b2b","ethPOS()":"74cdd798","getPod(address)":"a38406a3","hasPod(address)":"f6848d24","increaseBurnableShares(address,uint256)":"debe1eab","initialize(address,uint256)":"cd6dc687","numPods()":"a6a509be","owner()":"8da5cb5b","ownerToPod(address)":"9ba06275","pause(uint256)":"136439dd","pauseAll()":"595c6a67","paused()":"5c975abb","paused(uint8)":"5ac86ab7","pauserRegistry()":"886f1195","pectraForkTimestamp()":"2704351a","podOwnerDepositShares(address)":"d48e8894","proofTimestampSetter()":"595edbcb","recordBeaconChainETHBalanceUpdate(address,uint256,int256)":"a1ca780b","removeDepositShares(address,address,uint256)":"724af423","renounceOwnership()":"715018a6","setBeaconChainSlashingFactor(address,uint64)":"80852b02","setPectraForkTimestamp(uint64)":"5a26fbf4","setPodOwnerShares(address,address)":"d7fd8a57","setPodOwnerShares(address,int256)":"3a591f08","setProofTimestampSetter(address)":"0d1e9de1","stake(bytes,bytes,bytes32)":"9b4e4634","stakerDepositShares(address,address)":"fe243a17","transferOwnership(address)":"f2fde38b","unpause(uint256)":"fabc1cbc","version()":"54fd4d50","withdrawSharesAsTokens(address,address,address,uint256)":"2eae418c"},"id":178}