{"abi":[{"type":"fallback","stateMutability":"nonpayable"},{"type":"function","name":"decimals","inputs":[],"outputs":[{"name":"","type":"uint8","internalType":"uint8"}],"stateMutability":"pure"}],"bytecode":{"object":"0x6080604052348015600e575f5ffd5b5060d280601a5f395ff3fe6080604052348015600e575f5ffd5b50600436106026575f3560e01c8063313ce567146088575b60405162461bcd60e51b815260206004820152602d60248201527f52657665727465723a204920616d206120636f6e74726163742074686174206160448201526c6c77617973207265766572747360981b606482015260840160405180910390fd5b604080516012815290519081900360200190f3fea2646970667358221220bc5b99488e87dd9a99dc1f07594ebeffeb68cf6892166ca9422f563a6077434764736f6c634300081b0033","linkReferences":{}},"methodIdentifiers":{"decimals()":"313ce567"},"id":243}